{
	"pinkLockV2(NormalLock).sol": {
		"PinkLock02": {
			"abi": [
				{
					"anonymous": false,
					"inputs": [
						{
							"indexed": true,
							"internalType": "uint256",
							"name": "id",
							"type": "uint256"
						},
						{
							"indexed": false,
							"internalType": "address",
							"name": "token",
							"type": "address"
						},
						{
							"indexed": false,
							"internalType": "address",
							"name": "owner",
							"type": "address"
						},
						{
							"indexed": false,
							"internalType": "uint256",
							"name": "amount",
							"type": "uint256"
						},
						{
							"indexed": false,
							"internalType": "uint256",
							"name": "unlockDate",
							"type": "uint256"
						}
					],
					"name": "LockAdded",
					"type": "event"
				},
				{
					"anonymous": false,
					"inputs": [
						{
							"indexed": false,
							"internalType": "uint256",
							"name": "lockId",
							"type": "uint256"
						}
					],
					"name": "LockDescriptionChanged",
					"type": "event"
				},
				{
					"anonymous": false,
					"inputs": [
						{
							"indexed": false,
							"internalType": "uint256",
							"name": "lockId",
							"type": "uint256"
						},
						{
							"indexed": false,
							"internalType": "address",
							"name": "owner",
							"type": "address"
						},
						{
							"indexed": false,
							"internalType": "address",
							"name": "newOwner",
							"type": "address"
						}
					],
					"name": "LockOwnerChanged",
					"type": "event"
				},
				{
					"anonymous": false,
					"inputs": [
						{
							"indexed": true,
							"internalType": "uint256",
							"name": "id",
							"type": "uint256"
						},
						{
							"indexed": false,
							"internalType": "address",
							"name": "token",
							"type": "address"
						},
						{
							"indexed": false,
							"internalType": "address",
							"name": "owner",
							"type": "address"
						},
						{
							"indexed": false,
							"internalType": "uint256",
							"name": "amount",
							"type": "uint256"
						},
						{
							"indexed": false,
							"internalType": "uint256",
							"name": "unlockedAt",
							"type": "uint256"
						}
					],
					"name": "LockRemoved",
					"type": "event"
				},
				{
					"anonymous": false,
					"inputs": [
						{
							"indexed": true,
							"internalType": "uint256",
							"name": "id",
							"type": "uint256"
						},
						{
							"indexed": false,
							"internalType": "address",
							"name": "token",
							"type": "address"
						},
						{
							"indexed": false,
							"internalType": "address",
							"name": "owner",
							"type": "address"
						},
						{
							"indexed": false,
							"internalType": "uint256",
							"name": "newAmount",
							"type": "uint256"
						},
						{
							"indexed": false,
							"internalType": "uint256",
							"name": "newUnlockDate",
							"type": "uint256"
						}
					],
					"name": "LockUpdated",
					"type": "event"
				},
				{
					"anonymous": false,
					"inputs": [
						{
							"indexed": false,
							"internalType": "address",
							"name": "account",
							"type": "address"
						}
					],
					"name": "Paused",
					"type": "event"
				},
				{
					"anonymous": false,
					"inputs": [
						{
							"indexed": false,
							"internalType": "address",
							"name": "account",
							"type": "address"
						}
					],
					"name": "Unpaused",
					"type": "event"
				},
				{
					"inputs": [],
					"name": "allNormalTokenLockedCount",
					"outputs": [
						{
							"internalType": "uint256",
							"name": "",
							"type": "uint256"
						}
					],
					"stateMutability": "view",
					"type": "function"
				},
				{
					"inputs": [
						{
							"internalType": "address",
							"name": "",
							"type": "address"
						}
					],
					"name": "cumulativeLockInfo",
					"outputs": [
						{
							"internalType": "address",
							"name": "token",
							"type": "address"
						},
						{
							"internalType": "uint256",
							"name": "amount",
							"type": "uint256"
						}
					],
					"stateMutability": "view",
					"type": "function"
				},
				{
					"inputs": [
						{
							"internalType": "uint256",
							"name": "lockId",
							"type": "uint256"
						},
						{
							"internalType": "uint256",
							"name": "newAmount",
							"type": "uint256"
						},
						{
							"internalType": "uint256",
							"name": "newUnlockDate",
							"type": "uint256"
						}
					],
					"name": "editLock",
					"outputs": [],
					"stateMutability": "nonpayable",
					"type": "function"
				},
				{
					"inputs": [
						{
							"internalType": "uint256",
							"name": "lockId",
							"type": "uint256"
						},
						{
							"internalType": "string",
							"name": "description",
							"type": "string"
						}
					],
					"name": "editLockDescription",
					"outputs": [],
					"stateMutability": "nonpayable",
					"type": "function"
				},
				{
					"inputs": [
						{
							"internalType": "uint256",
							"name": "start",
							"type": "uint256"
						},
						{
							"internalType": "uint256",
							"name": "end",
							"type": "uint256"
						}
					],
					"name": "getCumulativeNormalTokenLockInfo",
					"outputs": [
						{
							"components": [
								{
									"internalType": "address",
									"name": "token",
									"type": "address"
								},
								{
									"internalType": "uint256",
									"name": "amount",
									"type": "uint256"
								}
							],
							"internalType": "struct PinkLock02.CumulativeLockInfo[]",
							"name": "",
							"type": "tuple[]"
						}
					],
					"stateMutability": "view",
					"type": "function"
				},
				{
					"inputs": [
						{
							"internalType": "uint256",
							"name": "index",
							"type": "uint256"
						}
					],
					"name": "getCumulativeNormalTokenLockInfoAt",
					"outputs": [
						{
							"components": [
								{
									"internalType": "address",
									"name": "token",
									"type": "address"
								},
								{
									"internalType": "uint256",
									"name": "amount",
									"type": "uint256"
								}
							],
							"internalType": "struct PinkLock02.CumulativeLockInfo",
							"name": "",
							"type": "tuple"
						}
					],
					"stateMutability": "view",
					"type": "function"
				},
				{
					"inputs": [
						{
							"internalType": "uint256",
							"name": "index",
							"type": "uint256"
						}
					],
					"name": "getLockAt",
					"outputs": [
						{
							"components": [
								{
									"internalType": "uint256",
									"name": "id",
									"type": "uint256"
								},
								{
									"internalType": "address",
									"name": "token",
									"type": "address"
								},
								{
									"internalType": "address",
									"name": "owner",
									"type": "address"
								},
								{
									"internalType": "uint256",
									"name": "amount",
									"type": "uint256"
								},
								{
									"internalType": "uint256",
									"name": "lockDate",
									"type": "uint256"
								},
								{
									"internalType": "uint256",
									"name": "unlockDate",
									"type": "uint256"
								},
								{
									"internalType": "uint256",
									"name": "unlockedAmount",
									"type": "uint256"
								},
								{
									"internalType": "string",
									"name": "description",
									"type": "string"
								}
							],
							"internalType": "struct PinkLock02.Lock",
							"name": "",
							"type": "tuple"
						}
					],
					"stateMutability": "view",
					"type": "function"
				},
				{
					"inputs": [
						{
							"internalType": "uint256",
							"name": "lockId",
							"type": "uint256"
						}
					],
					"name": "getLockById",
					"outputs": [
						{
							"components": [
								{
									"internalType": "uint256",
									"name": "id",
									"type": "uint256"
								},
								{
									"internalType": "address",
									"name": "token",
									"type": "address"
								},
								{
									"internalType": "address",
									"name": "owner",
									"type": "address"
								},
								{
									"internalType": "uint256",
									"name": "amount",
									"type": "uint256"
								},
								{
									"internalType": "uint256",
									"name": "lockDate",
									"type": "uint256"
								},
								{
									"internalType": "uint256",
									"name": "unlockDate",
									"type": "uint256"
								},
								{
									"internalType": "uint256",
									"name": "unlockedAmount",
									"type": "uint256"
								},
								{
									"internalType": "string",
									"name": "description",
									"type": "string"
								}
							],
							"internalType": "struct PinkLock02.Lock",
							"name": "",
							"type": "tuple"
						}
					],
					"stateMutability": "view",
					"type": "function"
				},
				{
					"inputs": [
						{
							"internalType": "address",
							"name": "token",
							"type": "address"
						},
						{
							"internalType": "uint256",
							"name": "start",
							"type": "uint256"
						},
						{
							"internalType": "uint256",
							"name": "end",
							"type": "uint256"
						}
					],
					"name": "getLocksForToken",
					"outputs": [
						{
							"components": [
								{
									"internalType": "uint256",
									"name": "id",
									"type": "uint256"
								},
								{
									"internalType": "address",
									"name": "token",
									"type": "address"
								},
								{
									"internalType": "address",
									"name": "owner",
									"type": "address"
								},
								{
									"internalType": "uint256",
									"name": "amount",
									"type": "uint256"
								},
								{
									"internalType": "uint256",
									"name": "lockDate",
									"type": "uint256"
								},
								{
									"internalType": "uint256",
									"name": "unlockDate",
									"type": "uint256"
								},
								{
									"internalType": "uint256",
									"name": "unlockedAmount",
									"type": "uint256"
								},
								{
									"internalType": "string",
									"name": "description",
									"type": "string"
								}
							],
							"internalType": "struct PinkLock02.Lock[]",
							"name": "",
							"type": "tuple[]"
						}
					],
					"stateMutability": "view",
					"type": "function"
				},
				{
					"inputs": [],
					"name": "getTotalLockCount",
					"outputs": [
						{
							"internalType": "uint256",
							"name": "",
							"type": "uint256"
						}
					],
					"stateMutability": "view",
					"type": "function"
				},
				{
					"inputs": [
						{
							"internalType": "address",
							"name": "owner",
							"type": "address"
						},
						{
							"internalType": "address",
							"name": "token",
							"type": "address"
						},
						{
							"internalType": "uint256",
							"name": "amount",
							"type": "uint256"
						},
						{
							"internalType": "uint256",
							"name": "unlockDate",
							"type": "uint256"
						},
						{
							"internalType": "string",
							"name": "description",
							"type": "string"
						}
					],
					"name": "lock",
					"outputs": [
						{
							"internalType": "uint256",
							"name": "id",
							"type": "uint256"
						}
					],
					"stateMutability": "nonpayable",
					"type": "function"
				},
				{
					"inputs": [
						{
							"internalType": "address",
							"name": "user",
							"type": "address"
						}
					],
					"name": "normalLockCountForUser",
					"outputs": [
						{
							"internalType": "uint256",
							"name": "",
							"type": "uint256"
						}
					],
					"stateMutability": "view",
					"type": "function"
				},
				{
					"inputs": [
						{
							"internalType": "address",
							"name": "user",
							"type": "address"
						},
						{
							"internalType": "uint256",
							"name": "index",
							"type": "uint256"
						}
					],
					"name": "normalLockForUserAtIndex",
					"outputs": [
						{
							"components": [
								{
									"internalType": "uint256",
									"name": "id",
									"type": "uint256"
								},
								{
									"internalType": "address",
									"name": "token",
									"type": "address"
								},
								{
									"internalType": "address",
									"name": "owner",
									"type": "address"
								},
								{
									"internalType": "uint256",
									"name": "amount",
									"type": "uint256"
								},
								{
									"internalType": "uint256",
									"name": "lockDate",
									"type": "uint256"
								},
								{
									"internalType": "uint256",
									"name": "unlockDate",
									"type": "uint256"
								},
								{
									"internalType": "uint256",
									"name": "unlockedAmount",
									"type": "uint256"
								},
								{
									"internalType": "string",
									"name": "description",
									"type": "string"
								}
							],
							"internalType": "struct PinkLock02.Lock",
							"name": "",
							"type": "tuple"
						}
					],
					"stateMutability": "view",
					"type": "function"
				},
				{
					"inputs": [
						{
							"internalType": "address",
							"name": "user",
							"type": "address"
						}
					],
					"name": "normalLocksForUser",
					"outputs": [
						{
							"components": [
								{
									"internalType": "uint256",
									"name": "id",
									"type": "uint256"
								},
								{
									"internalType": "address",
									"name": "token",
									"type": "address"
								},
								{
									"internalType": "address",
									"name": "owner",
									"type": "address"
								},
								{
									"internalType": "uint256",
									"name": "amount",
									"type": "uint256"
								},
								{
									"internalType": "uint256",
									"name": "lockDate",
									"type": "uint256"
								},
								{
									"internalType": "uint256",
									"name": "unlockDate",
									"type": "uint256"
								},
								{
									"internalType": "uint256",
									"name": "unlockedAmount",
									"type": "uint256"
								},
								{
									"internalType": "string",
									"name": "description",
									"type": "string"
								}
							],
							"internalType": "struct PinkLock02.Lock[]",
							"name": "",
							"type": "tuple[]"
						}
					],
					"stateMutability": "view",
					"type": "function"
				},
				{
					"inputs": [],
					"name": "paused",
					"outputs": [
						{
							"internalType": "bool",
							"name": "",
							"type": "bool"
						}
					],
					"stateMutability": "view",
					"type": "function"
				},
				{
					"inputs": [
						{
							"internalType": "uint256",
							"name": "lockId",
							"type": "uint256"
						}
					],
					"name": "renounceLockOwnership",
					"outputs": [],
					"stateMutability": "nonpayable",
					"type": "function"
				},
				{
					"inputs": [
						{
							"internalType": "uint256",
							"name": "lockId",
							"type": "uint256"
						},
						{
							"internalType": "address",
							"name": "newOwner",
							"type": "address"
						}
					],
					"name": "transferLockOwnership",
					"outputs": [],
					"stateMutability": "nonpayable",
					"type": "function"
				},
				{
					"inputs": [
						{
							"internalType": "uint256",
							"name": "lockId",
							"type": "uint256"
						}
					],
					"name": "unlock",
					"outputs": [],
					"stateMutability": "nonpayable",
					"type": "function"
				}
			],
			"devdoc": {
				"kind": "dev",
				"methods": {
					"paused()": {
						"details": "Returns true if the contract is paused, and false otherwise."
					}
				},
				"version": 1
			},
			"evm": {
				"assembly": "    /* \"pinkLockV2(NormalLock).sol\":36584:48887  contract PinkLock02 is IPinkLock, Pausable {\r... */\n  mstore(0x40, 0x80)\n  callvalue\n  dup1\n  iszero\n  tag_1\n  jumpi\n  0x00\n  dup1\n  revert\ntag_1:\n  pop\n    /* \"pinkLockV2(NormalLock).sol\":2399:2404  false */\n  0x00\n    /* \"pinkLockV2(NormalLock).sol\":2389:2396  _paused */\n  dup1\n  0x00\n    /* \"pinkLockV2(NormalLock).sol\":2389:2404  _paused = false */\n  0x0100\n  exp\n  dup2\n  sload\n  dup2\n  0xff\n  mul\n  not\n  and\n  swap1\n  dup4\n  iszero\n  iszero\n  mul\n  or\n  swap1\n  sstore\n  pop\n    /* \"pinkLockV2(NormalLock).sol\":36584:48887  contract PinkLock02 is IPinkLock, Pausable {\r... */\n  dataSize(sub_0)\n  dup1\n  dataOffset(sub_0)\n  0x00\n  codecopy\n  0x00\n  return\nstop\n\nsub_0: assembly {\n        /* \"pinkLockV2(NormalLock).sol\":36584:48887  contract PinkLock02 is IPinkLock, Pausable {\r... */\n      mstore(0x40, 0x80)\n      callvalue\n      dup1\n      iszero\n      tag_1\n      jumpi\n      0x00\n      dup1\n      revert\n    tag_1:\n      pop\n      jumpi(tag_2, lt(calldatasize, 0x04))\n      shr(0xe0, calldataload(0x00))\n      dup1\n      0x7e6706d3\n      gt\n      tag_21\n      jumpi\n      dup1\n      0xd3cac885\n      gt\n      tag_22\n      jumpi\n      dup1\n      0xd3cac885\n      eq\n      tag_16\n      jumpi\n      dup1\n      0xda1d8cff\n      eq\n      tag_17\n      jumpi\n      dup1\n      0xe1444fd6\n      eq\n      tag_18\n      jumpi\n      dup1\n      0xeb80bdae\n      eq\n      tag_19\n      jumpi\n      dup1\n      0xfd981c66\n      eq\n      tag_20\n      jumpi\n      jump(tag_2)\n    tag_22:\n      dup1\n      0x7e6706d3\n      eq\n      tag_12\n      jumpi\n      dup1\n      0x97b1d73a\n      eq\n      tag_13\n      jumpi\n      dup1\n      0xa57e3141\n      eq\n      tag_14\n      jumpi\n      dup1\n      0xb3b9aa48\n      eq\n      tag_15\n      jumpi\n      jump(tag_2)\n    tag_21:\n      dup1\n      0x5a04fb69\n      gt\n      tag_23\n      jumpi\n      dup1\n      0x5a04fb69\n      eq\n      tag_7\n      jumpi\n      dup1\n      0x5c975abb\n      eq\n      tag_8\n      jumpi\n      dup1\n      0x618df7a3\n      eq\n      tag_9\n      jumpi\n      dup1\n      0x6198e339\n      eq\n      tag_10\n      jumpi\n      dup1\n      0x76c12822\n      eq\n      tag_11\n      jumpi\n      jump(tag_2)\n    tag_23:\n      dup1\n      0x08f12470\n      eq\n      tag_3\n      jumpi\n      dup1\n      0x0d4f581a\n      eq\n      tag_4\n      jumpi\n      dup1\n      0x332f26d7\n      eq\n      tag_5\n      jumpi\n      dup1\n      0x475831c8\n      eq\n      tag_6\n      jumpi\n    tag_2:\n      0x00\n      dup1\n      revert\n        /* \"pinkLockV2(NormalLock).sol\":46018:46146  function getLockById(uint256 lockId) public view returns (Lock memory) {\r... */\n    tag_3:\n      tag_24\n      0x04\n      dup1\n      calldatasize\n      sub\n      dup2\n      add\n      swap1\n      tag_25\n      swap2\n      swap1\n      tag_26\n      jump\t// in\n    tag_25:\n      tag_27\n      jump\t// in\n    tag_24:\n      mload(0x40)\n      tag_28\n      swap2\n      swap1\n      tag_29\n      jump\t// in\n    tag_28:\n      mload(0x40)\n      dup1\n      swap2\n      sub\n      swap1\n      return\n        /* \"pinkLockV2(NormalLock).sol\":45901:46010  function getLockAt(uint256 index) external view returns (Lock memory) {\r... */\n    tag_4:\n      tag_30\n      0x04\n      dup1\n      calldatasize\n      sub\n      dup2\n      add\n      swap1\n      tag_31\n      swap2\n      swap1\n      tag_26\n      jump\t// in\n    tag_31:\n      tag_32\n      jump\t// in\n    tag_30:\n      mload(0x40)\n      tag_33\n      swap2\n      swap1\n      tag_29\n      jump\t// in\n    tag_33:\n      mload(0x40)\n      dup1\n      swap2\n      sub\n      swap1\n      return\n        /* \"pinkLockV2(NormalLock).sol\":48051:48640  function getLocksForToken(\r... */\n    tag_5:\n      tag_34\n      0x04\n      dup1\n      calldatasize\n      sub\n      dup2\n      add\n      swap1\n      tag_35\n      swap2\n      swap1\n      tag_36\n      jump\t// in\n    tag_35:\n      tag_37\n      jump\t// in\n    tag_34:\n      mload(0x40)\n      tag_38\n      swap2\n      swap1\n      tag_39\n      jump\t// in\n    tag_38:\n      mload(0x40)\n      dup1\n      swap2\n      sub\n      swap1\n      return\n        /* \"pinkLockV2(NormalLock).sol\":46154:46275  function allNormalTokenLockedCount() public view returns (uint256) {\r... */\n    tag_6:\n      tag_40\n      tag_41\n      jump\t// in\n    tag_40:\n      mload(0x40)\n      tag_42\n      swap2\n      swap1\n      tag_43\n      jump\t// in\n    tag_42:\n      mload(0x40)\n      dup1\n      swap2\n      sub\n      swap1\n      return\n        /* \"pinkLockV2(NormalLock).sol\":44201:44767  function transferLockOwnership(uint256 lockId, address newOwner)\r... */\n    tag_7:\n      tag_44\n      0x04\n      dup1\n      calldatasize\n      sub\n      dup2\n      add\n      swap1\n      tag_45\n      swap2\n      swap1\n      tag_46\n      jump\t// in\n    tag_45:\n      tag_47\n      jump\t// in\n    tag_44:\n      stop\n        /* \"pinkLockV2(NormalLock).sol\":3038:3124  function paused() public view virtual returns (bool) {\r... */\n    tag_8:\n      tag_48\n      tag_49\n      jump\t// in\n    tag_48:\n      mload(0x40)\n      tag_50\n      swap2\n      swap1\n      tag_51\n      jump\t// in\n    tag_50:\n      mload(0x40)\n      dup1\n      swap2\n      sub\n      swap1\n      return\n        /* \"pinkLockV2(NormalLock).sol\":47766:48043  function normalLockForUserAtIndex(address user, uint256 index)\r... */\n    tag_9:\n      tag_52\n      0x04\n      dup1\n      calldatasize\n      sub\n      dup2\n      add\n      swap1\n      tag_53\n      swap2\n      swap1\n      tag_54\n      jump\t// in\n    tag_53:\n      tag_55\n      jump\t// in\n    tag_52:\n      mload(0x40)\n      tag_56\n      swap2\n      swap1\n      tag_29\n      jump\t// in\n    tag_56:\n      mload(0x40)\n      dup1\n      swap2\n      sub\n      swap1\n      return\n        /* \"pinkLockV2(NormalLock).sol\":40666:40961  function unlock(uint256 lockId) external override validLock(lockId) {\r... */\n    tag_10:\n      tag_57\n      0x04\n      dup1\n      calldatasize\n      sub\n      dup2\n      add\n      swap1\n      tag_58\n      swap2\n      swap1\n      tag_26\n      jump\t// in\n    tag_58:\n      tag_59\n      jump\t// in\n    tag_57:\n      stop\n        /* \"pinkLockV2(NormalLock).sol\":46507:47178  function getCumulativeNormalTokenLockInfo(uint256 start, uint256 end)\r... */\n    tag_11:\n      tag_60\n      0x04\n      dup1\n      calldatasize\n      sub\n      dup2\n      add\n      swap1\n      tag_61\n      swap2\n      swap1\n      tag_62\n      jump\t// in\n    tag_61:\n      tag_63\n      jump\t// in\n    tag_60:\n      mload(0x40)\n      tag_64\n      swap2\n      swap1\n      tag_65\n      jump\t// in\n    tag_64:\n      mload(0x40)\n      dup1\n      swap2\n      sub\n      swap1\n      return\n        /* \"pinkLockV2(NormalLock).sol\":46283:46499  function getCumulativeNormalTokenLockInfoAt(uint256 index)\r... */\n    tag_12:\n      tag_66\n      0x04\n      dup1\n      calldatasize\n      sub\n      dup2\n      add\n      swap1\n      tag_67\n      swap2\n      swap1\n      tag_26\n      jump\t// in\n    tag_67:\n      tag_68\n      jump\t// in\n    tag_66:\n      mload(0x40)\n      tag_69\n      swap2\n      swap1\n      tag_70\n      jump\t// in\n    tag_69:\n      mload(0x40)\n      dup1\n      swap2\n      sub\n      swap1\n      return\n        /* \"pinkLockV2(NormalLock).sol\":38181:38959  function lock(\r... */\n    tag_13:\n      tag_71\n      0x04\n      dup1\n      calldatasize\n      sub\n      dup2\n      add\n      swap1\n      tag_72\n      swap2\n      swap1\n      tag_73\n      jump\t// in\n    tag_72:\n      tag_74\n      jump\t// in\n    tag_71:\n      mload(0x40)\n      tag_75\n      swap2\n      swap1\n      tag_43\n      jump\t// in\n    tag_75:\n      mload(0x40)\n      dup1\n      swap2\n      sub\n      swap1\n      return\n        /* \"pinkLockV2(NormalLock).sol\":44775:44891  function renounceLockOwnership(uint256 lockId) external {\r... */\n    tag_14:\n      tag_76\n      0x04\n      dup1\n      calldatasize\n      sub\n      dup2\n      add\n      swap1\n      tag_77\n      swap2\n      swap1\n      tag_26\n      jump\t// in\n    tag_77:\n      tag_78\n      jump\t// in\n    tag_76:\n      stop\n        /* \"pinkLockV2(NormalLock).sol\":42106:43780  function editLock(\r... */\n    tag_15:\n      tag_79\n      0x04\n      dup1\n      calldatasize\n      sub\n      dup2\n      add\n      swap1\n      tag_80\n      swap2\n      swap1\n      tag_81\n      jump\t// in\n    tag_80:\n      tag_82\n      jump\t// in\n    tag_79:\n      stop\n        /* \"pinkLockV2(NormalLock).sol\":43788:44193  function editLockDescription(uint256 lockId, string memory description)\r... */\n    tag_16:\n      tag_83\n      0x04\n      dup1\n      calldatasize\n      sub\n      dup2\n      add\n      swap1\n      tag_84\n      swap2\n      swap1\n      tag_85\n      jump\t// in\n    tag_84:\n      tag_86\n      jump\t// in\n    tag_83:\n      stop\n        /* \"pinkLockV2(NormalLock).sol\":47361:47758  function normalLocksForUser(address user)\r... */\n    tag_17:\n      tag_87\n      0x04\n      dup1\n      calldatasize\n      sub\n      dup2\n      add\n      swap1\n      tag_88\n      swap2\n      swap1\n      tag_89\n      jump\t// in\n    tag_88:\n      tag_90\n      jump\t// in\n    tag_87:\n      mload(0x40)\n      tag_91\n      swap2\n      swap1\n      tag_39\n      jump\t// in\n    tag_91:\n      mload(0x40)\n      dup1\n      swap2\n      sub\n      swap1\n      return\n        /* \"pinkLockV2(NormalLock).sol\":37312:37376  mapping(address => CumulativeLockInfo) public cumulativeLockInfo */\n    tag_18:\n      tag_92\n      0x04\n      dup1\n      calldatasize\n      sub\n      dup2\n      add\n      swap1\n      tag_93\n      swap2\n      swap1\n      tag_89\n      jump\t// in\n    tag_93:\n      tag_94\n      jump\t// in\n    tag_92:\n      mload(0x40)\n      tag_95\n      swap3\n      swap2\n      swap1\n      tag_96\n      jump\t// in\n    tag_95:\n      mload(0x40)\n      dup1\n      swap2\n      sub\n      swap1\n      return\n        /* \"pinkLockV2(NormalLock).sol\":47186:47353  function normalLockCountForUser(address user)\r... */\n    tag_19:\n      tag_97\n      0x04\n      dup1\n      calldatasize\n      sub\n      dup2\n      add\n      swap1\n      tag_98\n      swap2\n      swap1\n      tag_89\n      jump\t// in\n    tag_98:\n      tag_99\n      jump\t// in\n    tag_97:\n      mload(0x40)\n      tag_100\n      swap2\n      swap1\n      tag_43\n      jump\t// in\n    tag_100:\n      mload(0x40)\n      dup1\n      swap2\n      sub\n      swap1\n      return\n        /* \"pinkLockV2(NormalLock).sol\":45705:45893  function getTotalLockCount() external view returns (uint256) {\r... */\n    tag_20:\n      tag_101\n      tag_102\n      jump\t// in\n    tag_101:\n      mload(0x40)\n      tag_103\n      swap2\n      swap1\n      tag_43\n      jump\t// in\n    tag_103:\n      mload(0x40)\n      dup1\n      swap2\n      sub\n      swap1\n      return\n        /* \"pinkLockV2(NormalLock).sol\":46018:46146  function getLockById(uint256 lockId) public view returns (Lock memory) {\r... */\n    tag_27:\n        /* \"pinkLockV2(NormalLock).sol\":46076:46087  Lock memory */\n      tag_104\n      tag_105\n      jump\t// in\n    tag_104:\n        /* \"pinkLockV2(NormalLock).sol\":46107:46113  _locks */\n      0x01\n        /* \"pinkLockV2(NormalLock).sol\":46114:46137  _getActualIndex(lockId) */\n      tag_107\n        /* \"pinkLockV2(NormalLock).sol\":46130:46136  lockId */\n      dup4\n        /* \"pinkLockV2(NormalLock).sol\":46114:46129  _getActualIndex */\n      tag_108\n        /* \"pinkLockV2(NormalLock).sol\":46114:46137  _getActualIndex(lockId) */\n      jump\t// in\n    tag_107:\n        /* \"pinkLockV2(NormalLock).sol\":46107:46138  _locks[_getActualIndex(lockId)] */\n      dup2\n      sload\n      dup2\n      lt\n      tag_109\n      jumpi\n      mstore(0x00, 0x4e487b7100000000000000000000000000000000000000000000000000000000)\n      mstore(0x04, 0x32)\n      revert(0x00, 0x24)\n    tag_109:\n      swap1\n      0x00\n      mstore\n      keccak256(0x00, 0x20)\n      swap1\n      0x08\n      mul\n      add\n        /* \"pinkLockV2(NormalLock).sol\":46100:46138  return _locks[_getActualIndex(lockId)] */\n      mload(0x40)\n      dup1\n      0x0100\n      add\n      0x40\n      mstore\n      swap1\n      dup2\n      0x00\n      dup3\n      add\n      sload\n      dup2\n      mstore\n      0x20\n      add\n      0x01\n      dup3\n      add\n      0x00\n      swap1\n      sload\n      swap1\n      0x0100\n      exp\n      swap1\n      div\n      0xffffffffffffffffffffffffffffffffffffffff\n      and\n      0xffffffffffffffffffffffffffffffffffffffff\n      and\n      0xffffffffffffffffffffffffffffffffffffffff\n      and\n      dup2\n      mstore\n      0x20\n      add\n      0x02\n      dup3\n      add\n      0x00\n      swap1\n      sload\n      swap1\n      0x0100\n      exp\n      swap1\n      div\n      0xffffffffffffffffffffffffffffffffffffffff\n      and\n      0xffffffffffffffffffffffffffffffffffffffff\n      and\n      0xffffffffffffffffffffffffffffffffffffffff\n      and\n      dup2\n      mstore\n      0x20\n      add\n      0x03\n      dup3\n      add\n      sload\n      dup2\n      mstore\n      0x20\n      add\n      0x04\n      dup3\n      add\n      sload\n      dup2\n      mstore\n      0x20\n      add\n      0x05\n      dup3\n      add\n      sload\n      dup2\n      mstore\n      0x20\n      add\n      0x06\n      dup3\n      add\n      sload\n      dup2\n      mstore\n      0x20\n      add\n      0x07\n      dup3\n      add\n      dup1\n      sload\n      tag_111\n      swap1\n      tag_112\n      jump\t// in\n    tag_111:\n      dup1\n      0x1f\n      add\n      0x20\n      dup1\n      swap2\n      div\n      mul\n      0x20\n      add\n      mload(0x40)\n      swap1\n      dup2\n      add\n      0x40\n      mstore\n      dup1\n      swap3\n      swap2\n      swap1\n      dup2\n      dup2\n      mstore\n      0x20\n      add\n      dup3\n      dup1\n      sload\n      tag_113\n      swap1\n      tag_112\n      jump\t// in\n    tag_113:\n      dup1\n      iszero\n      tag_114\n      jumpi\n      dup1\n      0x1f\n      lt\n      tag_115\n      jumpi\n      0x0100\n      dup1\n      dup4\n      sload\n      div\n      mul\n      dup4\n      mstore\n      swap2\n      0x20\n      add\n      swap2\n      jump(tag_114)\n    tag_115:\n      dup3\n      add\n      swap2\n      swap1\n      0x00\n      mstore\n      keccak256(0x00, 0x20)\n      swap1\n    tag_116:\n      dup2\n      sload\n      dup2\n      mstore\n      swap1\n      0x01\n      add\n      swap1\n      0x20\n      add\n      dup1\n      dup4\n      gt\n      tag_116\n      jumpi\n      dup3\n      swap1\n      sub\n      0x1f\n      and\n      dup3\n      add\n      swap2\n    tag_114:\n      pop\n      pop\n      pop\n      pop\n      pop\n      dup2\n      mstore\n      pop\n      pop\n      swap1\n      pop\n        /* \"pinkLockV2(NormalLock).sol\":46018:46146  function getLockById(uint256 lockId) public view returns (Lock memory) {\r... */\n      swap2\n      swap1\n      pop\n      jump\t// out\n        /* \"pinkLockV2(NormalLock).sol\":45901:46010  function getLockAt(uint256 index) external view returns (Lock memory) {\r... */\n    tag_32:\n        /* \"pinkLockV2(NormalLock).sol\":45958:45969  Lock memory */\n      tag_117\n      tag_105\n      jump\t// in\n    tag_117:\n        /* \"pinkLockV2(NormalLock).sol\":45989:45995  _locks */\n      0x01\n        /* \"pinkLockV2(NormalLock).sol\":45996:46001  index */\n      dup3\n        /* \"pinkLockV2(NormalLock).sol\":45989:46002  _locks[index] */\n      dup2\n      sload\n      dup2\n      lt\n      tag_119\n      jumpi\n      mstore(0x00, 0x4e487b7100000000000000000000000000000000000000000000000000000000)\n      mstore(0x04, 0x32)\n      revert(0x00, 0x24)\n    tag_119:\n      swap1\n      0x00\n      mstore\n      keccak256(0x00, 0x20)\n      swap1\n      0x08\n      mul\n      add\n        /* \"pinkLockV2(NormalLock).sol\":45982:46002  return _locks[index] */\n      mload(0x40)\n      dup1\n      0x0100\n      add\n      0x40\n      mstore\n      swap1\n      dup2\n      0x00\n      dup3\n      add\n      sload\n      dup2\n      mstore\n      0x20\n      add\n      0x01\n      dup3\n      add\n      0x00\n      swap1\n      sload\n      swap1\n      0x0100\n      exp\n      swap1\n      div\n      0xffffffffffffffffffffffffffffffffffffffff\n      and\n      0xffffffffffffffffffffffffffffffffffffffff\n      and\n      0xffffffffffffffffffffffffffffffffffffffff\n      and\n      dup2\n      mstore\n      0x20\n      add\n      0x02\n      dup3\n      add\n      0x00\n      swap1\n      sload\n      swap1\n      0x0100\n      exp\n      swap1\n      div\n      0xffffffffffffffffffffffffffffffffffffffff\n      and\n      0xffffffffffffffffffffffffffffffffffffffff\n      and\n      0xffffffffffffffffffffffffffffffffffffffff\n      and\n      dup2\n      mstore\n      0x20\n      add\n      0x03\n      dup3\n      add\n      sload\n      dup2\n      mstore\n      0x20\n      add\n      0x04\n      dup3\n      add\n      sload\n      dup2\n      mstore\n      0x20\n      add\n      0x05\n      dup3\n      add\n      sload\n      dup2\n      mstore\n      0x20\n      add\n      0x06\n      dup3\n      add\n      sload\n      dup2\n      mstore\n      0x20\n      add\n      0x07\n      dup3\n      add\n      dup1\n      sload\n      tag_121\n      swap1\n      tag_112\n      jump\t// in\n    tag_121:\n      dup1\n      0x1f\n      add\n      0x20\n      dup1\n      swap2\n      div\n      mul\n      0x20\n      add\n      mload(0x40)\n      swap1\n      dup2\n      add\n      0x40\n      mstore\n      dup1\n      swap3\n      swap2\n      swap1\n      dup2\n      dup2\n      mstore\n      0x20\n      add\n      dup3\n      dup1\n      sload\n      tag_122\n      swap1\n      tag_112\n      jump\t// in\n    tag_122:\n      dup1\n      iszero\n      tag_123\n      jumpi\n      dup1\n      0x1f\n      lt\n      tag_124\n      jumpi\n      0x0100\n      dup1\n      dup4\n      sload\n      div\n      mul\n      dup4\n      mstore\n      swap2\n      0x20\n      add\n      swap2\n      jump(tag_123)\n    tag_124:\n      dup3\n      add\n      swap2\n      swap1\n      0x00\n      mstore\n      keccak256(0x00, 0x20)\n      swap1\n    tag_125:\n      dup2\n      sload\n      dup2\n      mstore\n      swap1\n      0x01\n      add\n      swap1\n      0x20\n      add\n      dup1\n      dup4\n      gt\n      tag_125\n      jumpi\n      dup3\n      swap1\n      sub\n      0x1f\n      and\n      dup3\n      add\n      swap2\n    tag_123:\n      pop\n      pop\n      pop\n      pop\n      pop\n      dup2\n      mstore\n      pop\n      pop\n      swap1\n      pop\n        /* \"pinkLockV2(NormalLock).sol\":45901:46010  function getLockAt(uint256 index) external view returns (Lock memory) {\r... */\n      swap2\n      swap1\n      pop\n      jump\t// out\n        /* \"pinkLockV2(NormalLock).sol\":48051:48640  function getLocksForToken(\r... */\n    tag_37:\n        /* \"pinkLockV2(NormalLock).sol\":48175:48188  Lock[] memory */\n      0x60\n        /* \"pinkLockV2(NormalLock).sol\":48212:48243  _tokenToLockIds[token].length() */\n      tag_127\n        /* \"pinkLockV2(NormalLock).sol\":48212:48227  _tokenToLockIds */\n      0x06\n        /* \"pinkLockV2(NormalLock).sol\":48212:48234  _tokenToLockIds[token] */\n      0x00\n        /* \"pinkLockV2(NormalLock).sol\":48228:48233  token */\n      dup7\n        /* \"pinkLockV2(NormalLock).sol\":48212:48234  _tokenToLockIds[token] */\n      0xffffffffffffffffffffffffffffffffffffffff\n      and\n      0xffffffffffffffffffffffffffffffffffffffff\n      and\n      dup2\n      mstore\n      0x20\n      add\n      swap1\n      dup2\n      mstore\n      0x20\n      add\n      0x00\n      keccak256\n        /* \"pinkLockV2(NormalLock).sol\":48212:48241  _tokenToLockIds[token].length */\n      tag_128\n        /* \"pinkLockV2(NormalLock).sol\":48212:48243  _tokenToLockIds[token].length() */\n      jump\t// in\n    tag_127:\n        /* \"pinkLockV2(NormalLock).sol\":48205:48208  end */\n      dup3\n        /* \"pinkLockV2(NormalLock).sol\":48205:48243  end >= _tokenToLockIds[token].length() */\n      lt\n        /* \"pinkLockV2(NormalLock).sol\":48201:48313  if (end >= _tokenToLockIds[token].length()) {\r... */\n      tag_129\n      jumpi\n        /* \"pinkLockV2(NormalLock).sol\":48300:48301  1 */\n      0x01\n        /* \"pinkLockV2(NormalLock).sol\":48266:48297  _tokenToLockIds[token].length() */\n      tag_130\n        /* \"pinkLockV2(NormalLock).sol\":48266:48281  _tokenToLockIds */\n      0x06\n        /* \"pinkLockV2(NormalLock).sol\":48266:48288  _tokenToLockIds[token] */\n      0x00\n        /* \"pinkLockV2(NormalLock).sol\":48282:48287  token */\n      dup8\n        /* \"pinkLockV2(NormalLock).sol\":48266:48288  _tokenToLockIds[token] */\n      0xffffffffffffffffffffffffffffffffffffffff\n      and\n      0xffffffffffffffffffffffffffffffffffffffff\n      and\n      dup2\n      mstore\n      0x20\n      add\n      swap1\n      dup2\n      mstore\n      0x20\n      add\n      0x00\n      keccak256\n        /* \"pinkLockV2(NormalLock).sol\":48266:48295  _tokenToLockIds[token].length */\n      tag_128\n        /* \"pinkLockV2(NormalLock).sol\":48266:48297  _tokenToLockIds[token].length() */\n      jump\t// in\n    tag_130:\n        /* \"pinkLockV2(NormalLock).sol\":48266:48301  _tokenToLockIds[token].length() - 1 */\n      tag_131\n      swap2\n      swap1\n      tag_132\n      jump\t// in\n    tag_131:\n        /* \"pinkLockV2(NormalLock).sol\":48260:48301  end = _tokenToLockIds[token].length() - 1 */\n      swap2\n      pop\n        /* \"pinkLockV2(NormalLock).sol\":48201:48313  if (end >= _tokenToLockIds[token].length()) {\r... */\n    tag_129:\n        /* \"pinkLockV2(NormalLock).sol\":48323:48337  uint256 length */\n      0x00\n        /* \"pinkLockV2(NormalLock).sol\":48354:48355  1 */\n      0x01\n        /* \"pinkLockV2(NormalLock).sol\":48346:48351  start */\n      dup5\n        /* \"pinkLockV2(NormalLock).sol\":48340:48343  end */\n      dup5\n        /* \"pinkLockV2(NormalLock).sol\":48340:48351  end - start */\n      tag_133\n      swap2\n      swap1\n      tag_132\n      jump\t// in\n    tag_133:\n        /* \"pinkLockV2(NormalLock).sol\":48340:48355  end - start + 1 */\n      tag_134\n      swap2\n      swap1\n      tag_135\n      jump\t// in\n    tag_134:\n        /* \"pinkLockV2(NormalLock).sol\":48323:48355  uint256 length = end - start + 1 */\n      swap1\n      pop\n        /* \"pinkLockV2(NormalLock).sol\":48366:48385  Lock[] memory locks */\n      0x00\n        /* \"pinkLockV2(NormalLock).sol\":48399:48405  length */\n      dup2\n        /* \"pinkLockV2(NormalLock).sol\":48388:48406  new Lock[](length) */\n      0xffffffffffffffff\n      dup2\n      gt\n      iszero\n      tag_136\n      jumpi\n      mstore(0x00, 0x4e487b7100000000000000000000000000000000000000000000000000000000)\n      mstore(0x04, 0x41)\n      revert(0x00, 0x24)\n    tag_136:\n      mload(0x40)\n      swap1\n      dup1\n      dup3\n      mstore\n      dup1\n      0x20\n      mul\n      0x20\n      add\n      dup3\n      add\n      0x40\n      mstore\n      dup1\n      iszero\n      tag_137\n      jumpi\n      dup2\n      0x20\n      add\n    tag_138:\n      tag_139\n      tag_105\n      jump\t// in\n    tag_139:\n      dup2\n      mstore\n      0x20\n      add\n      swap1\n      0x01\n      swap1\n      sub\n      swap1\n      dup2\n      tag_138\n      jumpi\n      swap1\n      pop\n    tag_137:\n      pop\n        /* \"pinkLockV2(NormalLock).sol\":48366:48406  Lock[] memory locks = new Lock[](length) */\n      swap1\n      pop\n        /* \"pinkLockV2(NormalLock).sol\":48417:48437  uint256 currentIndex */\n      0x00\n        /* \"pinkLockV2(NormalLock).sol\":48457:48466  uint256 i */\n      dup1\n        /* \"pinkLockV2(NormalLock).sol\":48469:48474  start */\n      dup7\n        /* \"pinkLockV2(NormalLock).sol\":48457:48474  uint256 i = start */\n      swap1\n      pop\n        /* \"pinkLockV2(NormalLock).sol\":48452:48610  for (uint256 i = start; i <= end; i++) {\r... */\n    tag_140:\n        /* \"pinkLockV2(NormalLock).sol\":48481:48484  end */\n      dup6\n        /* \"pinkLockV2(NormalLock).sol\":48476:48477  i */\n      dup2\n        /* \"pinkLockV2(NormalLock).sol\":48476:48484  i <= end */\n      gt\n        /* \"pinkLockV2(NormalLock).sol\":48452:48610  for (uint256 i = start; i <= end; i++) {\r... */\n      tag_141\n      jumpi\n        /* \"pinkLockV2(NormalLock).sol\":48528:48569  getLockById(_tokenToLockIds[token].at(i)) */\n      tag_143\n        /* \"pinkLockV2(NormalLock).sol\":48540:48568  _tokenToLockIds[token].at(i) */\n      tag_144\n        /* \"pinkLockV2(NormalLock).sol\":48566:48567  i */\n      dup3\n        /* \"pinkLockV2(NormalLock).sol\":48540:48555  _tokenToLockIds */\n      0x06\n        /* \"pinkLockV2(NormalLock).sol\":48540:48562  _tokenToLockIds[token] */\n      0x00\n        /* \"pinkLockV2(NormalLock).sol\":48556:48561  token */\n      dup13\n        /* \"pinkLockV2(NormalLock).sol\":48540:48562  _tokenToLockIds[token] */\n      0xffffffffffffffffffffffffffffffffffffffff\n      and\n      0xffffffffffffffffffffffffffffffffffffffff\n      and\n      dup2\n      mstore\n      0x20\n      add\n      swap1\n      dup2\n      mstore\n      0x20\n      add\n      0x00\n      keccak256\n        /* \"pinkLockV2(NormalLock).sol\":48540:48565  _tokenToLockIds[token].at */\n      tag_145\n      swap1\n        /* \"pinkLockV2(NormalLock).sol\":48540:48568  _tokenToLockIds[token].at(i) */\n      swap2\n      swap1\n      0xffffffff\n      and\n      jump\t// in\n    tag_144:\n        /* \"pinkLockV2(NormalLock).sol\":48528:48539  getLockById */\n      tag_27\n        /* \"pinkLockV2(NormalLock).sol\":48528:48569  getLockById(_tokenToLockIds[token].at(i)) */\n      jump\t// in\n    tag_143:\n        /* \"pinkLockV2(NormalLock).sol\":48506:48511  locks */\n      dup4\n        /* \"pinkLockV2(NormalLock).sol\":48512:48524  currentIndex */\n      dup4\n        /* \"pinkLockV2(NormalLock).sol\":48506:48525  locks[currentIndex] */\n      dup2\n      mload\n      dup2\n      lt\n      tag_146\n      jumpi\n      mstore(0x00, 0x4e487b7100000000000000000000000000000000000000000000000000000000)\n      mstore(0x04, 0x32)\n      revert(0x00, 0x24)\n    tag_146:\n      0x20\n      mul\n      0x20\n      add\n      add\n        /* \"pinkLockV2(NormalLock).sol\":48506:48569  locks[currentIndex] = getLockById(_tokenToLockIds[token].at(i)) */\n      dup2\n      swap1\n      mstore\n      pop\n        /* \"pinkLockV2(NormalLock).sol\":48584:48598  currentIndex++ */\n      dup2\n      dup1\n      tag_147\n      swap1\n      tag_148\n      jump\t// in\n    tag_147:\n      swap3\n      pop\n      pop\n        /* \"pinkLockV2(NormalLock).sol\":48486:48489  i++ */\n      dup1\n      dup1\n      tag_149\n      swap1\n      tag_148\n      jump\t// in\n    tag_149:\n      swap2\n      pop\n      pop\n        /* \"pinkLockV2(NormalLock).sol\":48452:48610  for (uint256 i = start; i <= end; i++) {\r... */\n      jump(tag_140)\n    tag_141:\n      pop\n        /* \"pinkLockV2(NormalLock).sol\":48627:48632  locks */\n      dup2\n        /* \"pinkLockV2(NormalLock).sol\":48620:48632  return locks */\n      swap4\n      pop\n      pop\n      pop\n      pop\n        /* \"pinkLockV2(NormalLock).sol\":48051:48640  function getLocksForToken(\r... */\n      swap4\n      swap3\n      pop\n      pop\n      pop\n      jump\t// out\n        /* \"pinkLockV2(NormalLock).sol\":46154:46275  function allNormalTokenLockedCount() public view returns (uint256) {\r... */\n    tag_41:\n        /* \"pinkLockV2(NormalLock).sol\":46212:46219  uint256 */\n      0x00\n        /* \"pinkLockV2(NormalLock).sol\":46239:46267  _normalLockedTokens.length() */\n      tag_151\n        /* \"pinkLockV2(NormalLock).sol\":46239:46258  _normalLockedTokens */\n      0x03\n        /* \"pinkLockV2(NormalLock).sol\":46239:46265  _normalLockedTokens.length */\n      tag_152\n        /* \"pinkLockV2(NormalLock).sol\":46239:46267  _normalLockedTokens.length() */\n      jump\t// in\n    tag_151:\n        /* \"pinkLockV2(NormalLock).sol\":46232:46267  return _normalLockedTokens.length() */\n      swap1\n      pop\n        /* \"pinkLockV2(NormalLock).sol\":46154:46275  function allNormalTokenLockedCount() public view returns (uint256) {\r... */\n      swap1\n      jump\t// out\n        /* \"pinkLockV2(NormalLock).sol\":44201:44767  function transferLockOwnership(uint256 lockId, address newOwner)\r... */\n    tag_47:\n        /* \"pinkLockV2(NormalLock).sol\":44301:44307  lockId */\n      dup2\n        /* \"pinkLockV2(NormalLock).sol\":38130:38153  _getActualIndex(lockId) */\n      tag_154\n        /* \"pinkLockV2(NormalLock).sol\":38146:38152  lockId */\n      dup2\n        /* \"pinkLockV2(NormalLock).sol\":38130:38145  _getActualIndex */\n      tag_108\n        /* \"pinkLockV2(NormalLock).sol\":38130:38153  _getActualIndex(lockId) */\n      jump\t// in\n    tag_154:\n      pop\n        /* \"pinkLockV2(NormalLock).sol\":44325:44346  Lock storage userLock */\n      0x00\n        /* \"pinkLockV2(NormalLock).sol\":44349:44355  _locks */\n      0x01\n        /* \"pinkLockV2(NormalLock).sol\":44356:44362  lockId */\n      dup5\n        /* \"pinkLockV2(NormalLock).sol\":44349:44363  _locks[lockId] */\n      dup2\n      sload\n      dup2\n      lt\n      tag_156\n      jumpi\n      mstore(0x00, 0x4e487b7100000000000000000000000000000000000000000000000000000000)\n      mstore(0x04, 0x32)\n      revert(0x00, 0x24)\n    tag_156:\n      swap1\n      0x00\n      mstore\n      keccak256(0x00, 0x20)\n      swap1\n      0x08\n      mul\n      add\n        /* \"pinkLockV2(NormalLock).sol\":44325:44363  Lock storage userLock = _locks[lockId] */\n      swap1\n      pop\n        /* \"pinkLockV2(NormalLock).sol\":44386:44406  address currentOwner */\n      0x00\n        /* \"pinkLockV2(NormalLock).sol\":44409:44417  userLock */\n      dup2\n        /* \"pinkLockV2(NormalLock).sol\":44409:44423  userLock.owner */\n      0x02\n      add\n      0x00\n      swap1\n      sload\n      swap1\n      0x0100\n      exp\n      swap1\n      div\n      0xffffffffffffffffffffffffffffffffffffffff\n      and\n        /* \"pinkLockV2(NormalLock).sol\":44386:44423  address currentOwner = userLock.owner */\n      swap1\n      pop\n        /* \"pinkLockV2(NormalLock).sol\":44472:44482  msg.sender */\n      caller\n        /* \"pinkLockV2(NormalLock).sol\":44456:44482  currentOwner == msg.sender */\n      0xffffffffffffffffffffffffffffffffffffffff\n      and\n        /* \"pinkLockV2(NormalLock).sol\":44456:44468  currentOwner */\n      dup2\n        /* \"pinkLockV2(NormalLock).sol\":44456:44482  currentOwner == msg.sender */\n      0xffffffffffffffffffffffffffffffffffffffff\n      and\n      eq\n        /* \"pinkLockV2(NormalLock).sol\":44434:44544  require(\r... */\n      tag_158\n      jumpi\n      mload(0x40)\n      0x08c379a000000000000000000000000000000000000000000000000000000000\n      dup2\n      mstore\n      0x04\n      add\n      tag_159\n      swap1\n      tag_160\n      jump\t// in\n    tag_159:\n      mload(0x40)\n      dup1\n      swap2\n      sub\n      swap1\n      revert\n    tag_158:\n        /* \"pinkLockV2(NormalLock).sol\":44574:44582  newOwner */\n      dup4\n        /* \"pinkLockV2(NormalLock).sol\":44557:44565  userLock */\n      dup3\n        /* \"pinkLockV2(NormalLock).sol\":44557:44571  userLock.owner */\n      0x02\n      add\n      0x00\n        /* \"pinkLockV2(NormalLock).sol\":44557:44582  userLock.owner = newOwner */\n      0x0100\n      exp\n      dup2\n      sload\n      dup2\n      0xffffffffffffffffffffffffffffffffffffffff\n      mul\n      not\n      and\n      swap1\n      dup4\n      0xffffffffffffffffffffffffffffffffffffffff\n      and\n      mul\n      or\n      swap1\n      sstore\n      pop\n        /* \"pinkLockV2(NormalLock).sol\":44595:44642  _userNormalLockIds[currentOwner].remove(lockId) */\n      tag_161\n        /* \"pinkLockV2(NormalLock).sol\":44635:44641  lockId */\n      dup6\n        /* \"pinkLockV2(NormalLock).sol\":44595:44613  _userNormalLockIds */\n      0x02\n        /* \"pinkLockV2(NormalLock).sol\":44595:44627  _userNormalLockIds[currentOwner] */\n      0x00\n        /* \"pinkLockV2(NormalLock).sol\":44614:44626  currentOwner */\n      dup5\n        /* \"pinkLockV2(NormalLock).sol\":44595:44627  _userNormalLockIds[currentOwner] */\n      0xffffffffffffffffffffffffffffffffffffffff\n      and\n      0xffffffffffffffffffffffffffffffffffffffff\n      and\n      dup2\n      mstore\n      0x20\n      add\n      swap1\n      dup2\n      mstore\n      0x20\n      add\n      0x00\n      keccak256\n        /* \"pinkLockV2(NormalLock).sol\":44595:44634  _userNormalLockIds[currentOwner].remove */\n      tag_162\n      swap1\n        /* \"pinkLockV2(NormalLock).sol\":44595:44642  _userNormalLockIds[currentOwner].remove(lockId) */\n      swap2\n      swap1\n      0xffffffff\n      and\n      jump\t// in\n    tag_161:\n      pop\n        /* \"pinkLockV2(NormalLock).sol\":44653:44693  _userNormalLockIds[newOwner].add(lockId) */\n      tag_163\n        /* \"pinkLockV2(NormalLock).sol\":44686:44692  lockId */\n      dup6\n        /* \"pinkLockV2(NormalLock).sol\":44653:44671  _userNormalLockIds */\n      0x02\n        /* \"pinkLockV2(NormalLock).sol\":44653:44681  _userNormalLockIds[newOwner] */\n      0x00\n        /* \"pinkLockV2(NormalLock).sol\":44672:44680  newOwner */\n      dup8\n        /* \"pinkLockV2(NormalLock).sol\":44653:44681  _userNormalLockIds[newOwner] */\n      0xffffffffffffffffffffffffffffffffffffffff\n      and\n      0xffffffffffffffffffffffffffffffffffffffff\n      and\n      dup2\n      mstore\n      0x20\n      add\n      swap1\n      dup2\n      mstore\n      0x20\n      add\n      0x00\n      keccak256\n        /* \"pinkLockV2(NormalLock).sol\":44653:44685  _userNormalLockIds[newOwner].add */\n      tag_164\n      swap1\n        /* \"pinkLockV2(NormalLock).sol\":44653:44693  _userNormalLockIds[newOwner].add(lockId) */\n      swap2\n      swap1\n      0xffffffff\n      and\n      jump\t// in\n    tag_163:\n      pop\n        /* \"pinkLockV2(NormalLock).sol\":44711:44759  LockOwnerChanged(lockId, currentOwner, newOwner) */\n      0x9075ad040756c0d8743a1fed927066a92c4755071615bf61e04b17583d961caf\n        /* \"pinkLockV2(NormalLock).sol\":44728:44734  lockId */\n      dup6\n        /* \"pinkLockV2(NormalLock).sol\":44736:44748  currentOwner */\n      dup3\n        /* \"pinkLockV2(NormalLock).sol\":44750:44758  newOwner */\n      dup7\n        /* \"pinkLockV2(NormalLock).sol\":44711:44759  LockOwnerChanged(lockId, currentOwner, newOwner) */\n      mload(0x40)\n      tag_165\n      swap4\n      swap3\n      swap2\n      swap1\n      tag_166\n      jump\t// in\n    tag_165:\n      mload(0x40)\n      dup1\n      swap2\n      sub\n      swap1\n      log1\n        /* \"pinkLockV2(NormalLock).sol\":38164:38165  _ */\n      pop\n      pop\n        /* \"pinkLockV2(NormalLock).sol\":44201:44767  function transferLockOwnership(uint256 lockId, address newOwner)\r... */\n      pop\n      pop\n      pop\n      jump\t// out\n        /* \"pinkLockV2(NormalLock).sol\":3038:3124  function paused() public view virtual returns (bool) {\r... */\n    tag_49:\n        /* \"pinkLockV2(NormalLock).sol\":3085:3089  bool */\n      0x00\n        /* \"pinkLockV2(NormalLock).sol\":3109:3116  _paused */\n      dup1\n      0x00\n      swap1\n      sload\n      swap1\n      0x0100\n      exp\n      swap1\n      div\n      0xff\n      and\n        /* \"pinkLockV2(NormalLock).sol\":3102:3116  return _paused */\n      swap1\n      pop\n        /* \"pinkLockV2(NormalLock).sol\":3038:3124  function paused() public view virtual returns (bool) {\r... */\n      swap1\n      jump\t// out\n        /* \"pinkLockV2(NormalLock).sol\":47766:48043  function normalLockForUserAtIndex(address user, uint256 index)\r... */\n    tag_55:\n        /* \"pinkLockV2(NormalLock).sol\":47879:47890  Lock memory */\n      tag_168\n      tag_105\n      jump\t// in\n    tag_168:\n        /* \"pinkLockV2(NormalLock).sol\":47947:47952  index */\n      dup2\n        /* \"pinkLockV2(NormalLock).sol\":47916:47944  normalLockCountForUser(user) */\n      tag_170\n        /* \"pinkLockV2(NormalLock).sol\":47939:47943  user */\n      dup5\n        /* \"pinkLockV2(NormalLock).sol\":47916:47938  normalLockCountForUser */\n      tag_99\n        /* \"pinkLockV2(NormalLock).sol\":47916:47944  normalLockCountForUser(user) */\n      jump\t// in\n    tag_170:\n        /* \"pinkLockV2(NormalLock).sol\":47916:47952  normalLockCountForUser(user) > index */\n      gt\n        /* \"pinkLockV2(NormalLock).sol\":47908:47970  require(normalLockCountForUser(user) > index, \"Invalid index\") */\n      tag_171\n      jumpi\n      mload(0x40)\n      0x08c379a000000000000000000000000000000000000000000000000000000000\n      dup2\n      mstore\n      0x04\n      add\n      tag_172\n      swap1\n      tag_173\n      jump\t// in\n    tag_172:\n      mload(0x40)\n      dup1\n      swap2\n      sub\n      swap1\n      revert\n    tag_171:\n        /* \"pinkLockV2(NormalLock).sol\":47988:48035  getLockById(_userNormalLockIds[user].at(index)) */\n      tag_174\n        /* \"pinkLockV2(NormalLock).sol\":48000:48034  _userNormalLockIds[user].at(index) */\n      tag_175\n        /* \"pinkLockV2(NormalLock).sol\":48028:48033  index */\n      dup4\n        /* \"pinkLockV2(NormalLock).sol\":48000:48018  _userNormalLockIds */\n      0x02\n        /* \"pinkLockV2(NormalLock).sol\":48000:48024  _userNormalLockIds[user] */\n      0x00\n        /* \"pinkLockV2(NormalLock).sol\":48019:48023  user */\n      dup8\n        /* \"pinkLockV2(NormalLock).sol\":48000:48024  _userNormalLockIds[user] */\n      0xffffffffffffffffffffffffffffffffffffffff\n      and\n      0xffffffffffffffffffffffffffffffffffffffff\n      and\n      dup2\n      mstore\n      0x20\n      add\n      swap1\n      dup2\n      mstore\n      0x20\n      add\n      0x00\n      keccak256\n        /* \"pinkLockV2(NormalLock).sol\":48000:48027  _userNormalLockIds[user].at */\n      tag_145\n      swap1\n        /* \"pinkLockV2(NormalLock).sol\":48000:48034  _userNormalLockIds[user].at(index) */\n      swap2\n      swap1\n      0xffffffff\n      and\n      jump\t// in\n    tag_175:\n        /* \"pinkLockV2(NormalLock).sol\":47988:47999  getLockById */\n      tag_27\n        /* \"pinkLockV2(NormalLock).sol\":47988:48035  getLockById(_userNormalLockIds[user].at(index)) */\n      jump\t// in\n    tag_174:\n        /* \"pinkLockV2(NormalLock).sol\":47981:48035  return getLockById(_userNormalLockIds[user].at(index)) */\n      swap1\n      pop\n        /* \"pinkLockV2(NormalLock).sol\":47766:48043  function normalLockForUserAtIndex(address user, uint256 index)\r... */\n      swap3\n      swap2\n      pop\n      pop\n      jump\t// out\n        /* \"pinkLockV2(NormalLock).sol\":40666:40961  function unlock(uint256 lockId) external override validLock(lockId) {\r... */\n    tag_59:\n        /* \"pinkLockV2(NormalLock).sol\":40726:40732  lockId */\n      dup1\n        /* \"pinkLockV2(NormalLock).sol\":38130:38153  _getActualIndex(lockId) */\n      tag_177\n        /* \"pinkLockV2(NormalLock).sol\":38146:38152  lockId */\n      dup2\n        /* \"pinkLockV2(NormalLock).sol\":38130:38145  _getActualIndex */\n      tag_108\n        /* \"pinkLockV2(NormalLock).sol\":38130:38153  _getActualIndex(lockId) */\n      jump\t// in\n    tag_177:\n      pop\n        /* \"pinkLockV2(NormalLock).sol\":40745:40766  Lock storage userLock */\n      0x00\n        /* \"pinkLockV2(NormalLock).sol\":40769:40775  _locks */\n      0x01\n        /* \"pinkLockV2(NormalLock).sol\":40776:40782  lockId */\n      dup4\n        /* \"pinkLockV2(NormalLock).sol\":40769:40783  _locks[lockId] */\n      dup2\n      sload\n      dup2\n      lt\n      tag_179\n      jumpi\n      mstore(0x00, 0x4e487b7100000000000000000000000000000000000000000000000000000000)\n      mstore(0x04, 0x32)\n      revert(0x00, 0x24)\n    tag_179:\n      swap1\n      0x00\n      mstore\n      keccak256(0x00, 0x20)\n      swap1\n      0x08\n      mul\n      add\n        /* \"pinkLockV2(NormalLock).sol\":40745:40783  Lock storage userLock = _locks[lockId] */\n      swap1\n      pop\n        /* \"pinkLockV2(NormalLock).sol\":40847:40857  msg.sender */\n      caller\n        /* \"pinkLockV2(NormalLock).sol\":40829:40857  userLock.owner == msg.sender */\n      0xffffffffffffffffffffffffffffffffffffffff\n      and\n        /* \"pinkLockV2(NormalLock).sol\":40829:40837  userLock */\n      dup2\n        /* \"pinkLockV2(NormalLock).sol\":40829:40843  userLock.owner */\n      0x02\n      add\n      0x00\n      swap1\n      sload\n      swap1\n      0x0100\n      exp\n      swap1\n      div\n      0xffffffffffffffffffffffffffffffffffffffff\n      and\n        /* \"pinkLockV2(NormalLock).sol\":40829:40857  userLock.owner == msg.sender */\n      0xffffffffffffffffffffffffffffffffffffffff\n      and\n      eq\n        /* \"pinkLockV2(NormalLock).sol\":40807:40919  require(\r... */\n      tag_181\n      jumpi\n      mload(0x40)\n      0x08c379a000000000000000000000000000000000000000000000000000000000\n      dup2\n      mstore\n      0x04\n      add\n      tag_182\n      swap1\n      tag_160\n      jump\t// in\n    tag_182:\n      mload(0x40)\n      dup1\n      swap2\n      sub\n      swap1\n      revert\n    tag_181:\n        /* \"pinkLockV2(NormalLock).sol\":40930:40953  _normalUnlock(userLock) */\n      tag_183\n        /* \"pinkLockV2(NormalLock).sol\":40944:40952  userLock */\n      dup2\n        /* \"pinkLockV2(NormalLock).sol\":40930:40943  _normalUnlock */\n      tag_184\n        /* \"pinkLockV2(NormalLock).sol\":40930:40953  _normalUnlock(userLock) */\n      jump\t// in\n    tag_183:\n        /* \"pinkLockV2(NormalLock).sol\":38164:38165  _ */\n      pop\n        /* \"pinkLockV2(NormalLock).sol\":40666:40961  function unlock(uint256 lockId) external override validLock(lockId) {\r... */\n      pop\n      pop\n      jump\t// out\n        /* \"pinkLockV2(NormalLock).sol\":46507:47178  function getCumulativeNormalTokenLockInfo(uint256 start, uint256 end)\r... */\n    tag_63:\n        /* \"pinkLockV2(NormalLock).sol\":46627:46654  CumulativeLockInfo[] memory */\n      0x60\n        /* \"pinkLockV2(NormalLock).sol\":46683:46711  _normalLockedTokens.length() */\n      tag_186\n        /* \"pinkLockV2(NormalLock).sol\":46683:46702  _normalLockedTokens */\n      0x03\n        /* \"pinkLockV2(NormalLock).sol\":46683:46709  _normalLockedTokens.length */\n      tag_152\n        /* \"pinkLockV2(NormalLock).sol\":46683:46711  _normalLockedTokens.length() */\n      jump\t// in\n    tag_186:\n        /* \"pinkLockV2(NormalLock).sol\":46676:46679  end */\n      dup3\n        /* \"pinkLockV2(NormalLock).sol\":46676:46711  end >= _normalLockedTokens.length() */\n      lt\n        /* \"pinkLockV2(NormalLock).sol\":46672:46778  if (end >= _normalLockedTokens.length()) {\r... */\n      tag_187\n      jumpi\n        /* \"pinkLockV2(NormalLock).sol\":46765:46766  1 */\n      0x01\n        /* \"pinkLockV2(NormalLock).sol\":46734:46762  _normalLockedTokens.length() */\n      tag_188\n        /* \"pinkLockV2(NormalLock).sol\":46734:46753  _normalLockedTokens */\n      0x03\n        /* \"pinkLockV2(NormalLock).sol\":46734:46760  _normalLockedTokens.length */\n      tag_152\n        /* \"pinkLockV2(NormalLock).sol\":46734:46762  _normalLockedTokens.length() */\n      jump\t// in\n    tag_188:\n        /* \"pinkLockV2(NormalLock).sol\":46734:46766  _normalLockedTokens.length() - 1 */\n      tag_189\n      swap2\n      swap1\n      tag_132\n      jump\t// in\n    tag_189:\n        /* \"pinkLockV2(NormalLock).sol\":46728:46766  end = _normalLockedTokens.length() - 1 */\n      swap2\n      pop\n        /* \"pinkLockV2(NormalLock).sol\":46672:46778  if (end >= _normalLockedTokens.length()) {\r... */\n    tag_187:\n        /* \"pinkLockV2(NormalLock).sol\":46788:46802  uint256 length */\n      0x00\n        /* \"pinkLockV2(NormalLock).sol\":46819:46820  1 */\n      0x01\n        /* \"pinkLockV2(NormalLock).sol\":46811:46816  start */\n      dup5\n        /* \"pinkLockV2(NormalLock).sol\":46805:46808  end */\n      dup5\n        /* \"pinkLockV2(NormalLock).sol\":46805:46816  end - start */\n      tag_190\n      swap2\n      swap1\n      tag_132\n      jump\t// in\n    tag_190:\n        /* \"pinkLockV2(NormalLock).sol\":46805:46820  end - start + 1 */\n      tag_191\n      swap2\n      swap1\n      tag_135\n      jump\t// in\n    tag_191:\n        /* \"pinkLockV2(NormalLock).sol\":46788:46820  uint256 length = end - start + 1 */\n      swap1\n      pop\n        /* \"pinkLockV2(NormalLock).sol\":46831:46867  CumulativeLockInfo[] memory lockInfo */\n      0x00\n        /* \"pinkLockV2(NormalLock).sol\":46895:46901  length */\n      dup2\n        /* \"pinkLockV2(NormalLock).sol\":46870:46902  new CumulativeLockInfo[](length) */\n      0xffffffffffffffff\n      dup2\n      gt\n      iszero\n      tag_192\n      jumpi\n      mstore(0x00, 0x4e487b7100000000000000000000000000000000000000000000000000000000)\n      mstore(0x04, 0x41)\n      revert(0x00, 0x24)\n    tag_192:\n      mload(0x40)\n      swap1\n      dup1\n      dup3\n      mstore\n      dup1\n      0x20\n      mul\n      0x20\n      add\n      dup3\n      add\n      0x40\n      mstore\n      dup1\n      iszero\n      tag_193\n      jumpi\n      dup2\n      0x20\n      add\n    tag_194:\n      tag_195\n      tag_196\n      jump\t// in\n    tag_195:\n      dup2\n      mstore\n      0x20\n      add\n      swap1\n      0x01\n      swap1\n      sub\n      swap1\n      dup2\n      tag_194\n      jumpi\n      swap1\n      pop\n    tag_193:\n      pop\n        /* \"pinkLockV2(NormalLock).sol\":46831:46902  CumulativeLockInfo[] memory lockInfo = new CumulativeLockInfo[](length) */\n      swap1\n      pop\n        /* \"pinkLockV2(NormalLock).sol\":46913:46933  uint256 currentIndex */\n      0x00\n        /* \"pinkLockV2(NormalLock).sol\":46953:46962  uint256 i */\n      dup1\n        /* \"pinkLockV2(NormalLock).sol\":46965:46970  start */\n      dup7\n        /* \"pinkLockV2(NormalLock).sol\":46953:46970  uint256 i = start */\n      swap1\n      pop\n        /* \"pinkLockV2(NormalLock).sol\":46948:47145  for (uint256 i = start; i <= end; i++) {\r... */\n    tag_197:\n        /* \"pinkLockV2(NormalLock).sol\":46977:46980  end */\n      dup6\n        /* \"pinkLockV2(NormalLock).sol\":46972:46973  i */\n      dup2\n        /* \"pinkLockV2(NormalLock).sol\":46972:46980  i <= end */\n      gt\n        /* \"pinkLockV2(NormalLock).sol\":46948:47145  for (uint256 i = start; i <= end; i++) {\r... */\n      tag_198\n      jumpi\n        /* \"pinkLockV2(NormalLock).sol\":47027:47045  cumulativeLockInfo */\n      0x05\n        /* \"pinkLockV2(NormalLock).sol\":47027:47104  cumulativeLockInfo[\r... */\n      0x00\n        /* \"pinkLockV2(NormalLock).sol\":47064:47089  _normalLockedTokens.at(i) */\n      tag_200\n        /* \"pinkLockV2(NormalLock).sol\":47087:47088  i */\n      dup4\n        /* \"pinkLockV2(NormalLock).sol\":47064:47083  _normalLockedTokens */\n      0x03\n        /* \"pinkLockV2(NormalLock).sol\":47064:47086  _normalLockedTokens.at */\n      tag_201\n      swap1\n        /* \"pinkLockV2(NormalLock).sol\":47064:47089  _normalLockedTokens.at(i) */\n      swap2\n      swap1\n      0xffffffff\n      and\n      jump\t// in\n    tag_200:\n        /* \"pinkLockV2(NormalLock).sol\":47027:47104  cumulativeLockInfo[\r... */\n      0xffffffffffffffffffffffffffffffffffffffff\n      and\n      0xffffffffffffffffffffffffffffffffffffffff\n      and\n      dup2\n      mstore\n      0x20\n      add\n      swap1\n      dup2\n      mstore\n      0x20\n      add\n      0x00\n      keccak256\n        /* \"pinkLockV2(NormalLock).sol\":47002:47104  lockInfo[currentIndex] = cumulativeLockInfo[\r... */\n      mload(0x40)\n      dup1\n      0x40\n      add\n      0x40\n      mstore\n      swap1\n      dup2\n      0x00\n      dup3\n      add\n      0x00\n      swap1\n      sload\n      swap1\n      0x0100\n      exp\n      swap1\n      div\n      0xffffffffffffffffffffffffffffffffffffffff\n      and\n      0xffffffffffffffffffffffffffffffffffffffff\n      and\n      0xffffffffffffffffffffffffffffffffffffffff\n      and\n      dup2\n      mstore\n      0x20\n      add\n      0x01\n      dup3\n      add\n      sload\n      dup2\n      mstore\n      pop\n      pop\n        /* \"pinkLockV2(NormalLock).sol\":47002:47010  lockInfo */\n      dup4\n        /* \"pinkLockV2(NormalLock).sol\":47011:47023  currentIndex */\n      dup4\n        /* \"pinkLockV2(NormalLock).sol\":47002:47024  lockInfo[currentIndex] */\n      dup2\n      mload\n      dup2\n      lt\n      tag_202\n      jumpi\n      mstore(0x00, 0x4e487b7100000000000000000000000000000000000000000000000000000000)\n      mstore(0x04, 0x32)\n      revert(0x00, 0x24)\n    tag_202:\n      0x20\n      mul\n      0x20\n      add\n      add\n        /* \"pinkLockV2(NormalLock).sol\":47002:47104  lockInfo[currentIndex] = cumulativeLockInfo[\r... */\n      dup2\n      swap1\n      mstore\n      pop\n        /* \"pinkLockV2(NormalLock).sol\":47119:47133  currentIndex++ */\n      dup2\n      dup1\n      tag_203\n      swap1\n      tag_148\n      jump\t// in\n    tag_203:\n      swap3\n      pop\n      pop\n        /* \"pinkLockV2(NormalLock).sol\":46982:46985  i++ */\n      dup1\n      dup1\n      tag_204\n      swap1\n      tag_148\n      jump\t// in\n    tag_204:\n      swap2\n      pop\n      pop\n        /* \"pinkLockV2(NormalLock).sol\":46948:47145  for (uint256 i = start; i <= end; i++) {\r... */\n      jump(tag_197)\n    tag_198:\n      pop\n        /* \"pinkLockV2(NormalLock).sol\":47162:47170  lockInfo */\n      dup2\n        /* \"pinkLockV2(NormalLock).sol\":47155:47170  return lockInfo */\n      swap4\n      pop\n      pop\n      pop\n      pop\n        /* \"pinkLockV2(NormalLock).sol\":46507:47178  function getCumulativeNormalTokenLockInfo(uint256 start, uint256 end)\r... */\n      swap3\n      swap2\n      pop\n      pop\n      jump\t// out\n        /* \"pinkLockV2(NormalLock).sol\":46283:46499  function getCumulativeNormalTokenLockInfoAt(uint256 index)\r... */\n    tag_68:\n        /* \"pinkLockV2(NormalLock).sol\":46392:46417  CumulativeLockInfo memory */\n      tag_205\n      tag_196\n      jump\t// in\n    tag_205:\n        /* \"pinkLockV2(NormalLock).sol\":46442:46460  cumulativeLockInfo */\n      0x05\n        /* \"pinkLockV2(NormalLock).sol\":46442:46491  cumulativeLockInfo[_normalLockedTokens.at(index)] */\n      0x00\n        /* \"pinkLockV2(NormalLock).sol\":46461:46490  _normalLockedTokens.at(index) */\n      tag_207\n        /* \"pinkLockV2(NormalLock).sol\":46484:46489  index */\n      dup5\n        /* \"pinkLockV2(NormalLock).sol\":46461:46480  _normalLockedTokens */\n      0x03\n        /* \"pinkLockV2(NormalLock).sol\":46461:46483  _normalLockedTokens.at */\n      tag_201\n      swap1\n        /* \"pinkLockV2(NormalLock).sol\":46461:46490  _normalLockedTokens.at(index) */\n      swap2\n      swap1\n      0xffffffff\n      and\n      jump\t// in\n    tag_207:\n        /* \"pinkLockV2(NormalLock).sol\":46442:46491  cumulativeLockInfo[_normalLockedTokens.at(index)] */\n      0xffffffffffffffffffffffffffffffffffffffff\n      and\n      0xffffffffffffffffffffffffffffffffffffffff\n      and\n      dup2\n      mstore\n      0x20\n      add\n      swap1\n      dup2\n      mstore\n      0x20\n      add\n      0x00\n      keccak256\n        /* \"pinkLockV2(NormalLock).sol\":46435:46491  return cumulativeLockInfo[_normalLockedTokens.at(index)] */\n      mload(0x40)\n      dup1\n      0x40\n      add\n      0x40\n      mstore\n      swap1\n      dup2\n      0x00\n      dup3\n      add\n      0x00\n      swap1\n      sload\n      swap1\n      0x0100\n      exp\n      swap1\n      div\n      0xffffffffffffffffffffffffffffffffffffffff\n      and\n      0xffffffffffffffffffffffffffffffffffffffff\n      and\n      0xffffffffffffffffffffffffffffffffffffffff\n      and\n      dup2\n      mstore\n      0x20\n      add\n      0x01\n      dup3\n      add\n      sload\n      dup2\n      mstore\n      pop\n      pop\n      swap1\n      pop\n        /* \"pinkLockV2(NormalLock).sol\":46283:46499  function getCumulativeNormalTokenLockInfoAt(uint256 index)\r... */\n      swap2\n      swap1\n      pop\n      jump\t// out\n        /* \"pinkLockV2(NormalLock).sol\":38181:38959  function lock(\r... */\n    tag_74:\n        /* \"pinkLockV2(NormalLock).sol\":38367:38377  uint256 id */\n      0x00\n        /* \"pinkLockV2(NormalLock).sol\":38425:38440  block.timestamp */\n      timestamp\n        /* \"pinkLockV2(NormalLock).sol\":38412:38422  unlockDate */\n      dup4\n        /* \"pinkLockV2(NormalLock).sol\":38412:38440  unlockDate > block.timestamp */\n      gt\n        /* \"pinkLockV2(NormalLock).sol\":38390:38503  require(\r... */\n      tag_209\n      jumpi\n      mload(0x40)\n      0x08c379a000000000000000000000000000000000000000000000000000000000\n      dup2\n      mstore\n      0x04\n      add\n      tag_210\n      swap1\n      tag_211\n      jump\t// in\n    tag_210:\n      mload(0x40)\n      dup1\n      swap2\n      sub\n      swap1\n      revert\n    tag_209:\n        /* \"pinkLockV2(NormalLock).sol\":38531:38532  0 */\n      0x00\n        /* \"pinkLockV2(NormalLock).sol\":38522:38528  amount */\n      dup5\n        /* \"pinkLockV2(NormalLock).sol\":38522:38532  amount > 0 */\n      gt\n        /* \"pinkLockV2(NormalLock).sol\":38514:38568  require(amount > 0, \"Amount should be greater than 0\") */\n      tag_212\n      jumpi\n      mload(0x40)\n      0x08c379a000000000000000000000000000000000000000000000000000000000\n      dup2\n      mstore\n      0x04\n      add\n      tag_213\n      swap1\n      tag_214\n      jump\t// in\n    tag_213:\n      mload(0x40)\n      dup1\n      swap2\n      sub\n      swap1\n      revert\n    tag_212:\n        /* \"pinkLockV2(NormalLock).sol\":38584:38718  _createLock(\r... */\n      tag_215\n        /* \"pinkLockV2(NormalLock).sol\":38610:38615  owner */\n      dup7\n        /* \"pinkLockV2(NormalLock).sol\":38630:38635  token */\n      dup7\n        /* \"pinkLockV2(NormalLock).sol\":38650:38656  amount */\n      dup7\n        /* \"pinkLockV2(NormalLock).sol\":38671:38681  unlockDate */\n      dup7\n        /* \"pinkLockV2(NormalLock).sol\":38696:38707  description */\n      dup7\n        /* \"pinkLockV2(NormalLock).sol\":38584:38595  _createLock */\n      tag_216\n        /* \"pinkLockV2(NormalLock).sol\":38584:38718  _createLock(\r... */\n      jump\t// in\n    tag_215:\n        /* \"pinkLockV2(NormalLock).sol\":38579:38718  id = _createLock(\r... */\n      swap1\n      pop\n        /* \"pinkLockV2(NormalLock).sol\":38729:38868  _safeTransferFromEnsureExactAmount(\r... */\n      tag_217\n        /* \"pinkLockV2(NormalLock).sol\":38778:38783  token */\n      dup6\n        /* \"pinkLockV2(NormalLock).sol\":38798:38808  msg.sender */\n      caller\n        /* \"pinkLockV2(NormalLock).sol\":38831:38835  this */\n      address\n        /* \"pinkLockV2(NormalLock).sol\":38851:38857  amount */\n      dup8\n        /* \"pinkLockV2(NormalLock).sol\":38729:38763  _safeTransferFromEnsureExactAmount */\n      tag_218\n        /* \"pinkLockV2(NormalLock).sol\":38729:38868  _safeTransferFromEnsureExactAmount(\r... */\n      jump\t// in\n    tag_217:\n        /* \"pinkLockV2(NormalLock).sol\":38894:38896  id */\n      dup1\n        /* \"pinkLockV2(NormalLock).sol\":38884:38931  LockAdded(id, token, owner, amount, unlockDate) */\n      0x694af1cc8727cdd0afbdd53d9b87b69248bd490224e9dd090e788546506e076f\n        /* \"pinkLockV2(NormalLock).sol\":38898:38903  token */\n      dup7\n        /* \"pinkLockV2(NormalLock).sol\":38905:38910  owner */\n      dup9\n        /* \"pinkLockV2(NormalLock).sol\":38912:38918  amount */\n      dup8\n        /* \"pinkLockV2(NormalLock).sol\":38920:38930  unlockDate */\n      dup8\n        /* \"pinkLockV2(NormalLock).sol\":38884:38931  LockAdded(id, token, owner, amount, unlockDate) */\n      mload(0x40)\n      tag_219\n      swap5\n      swap4\n      swap3\n      swap2\n      swap1\n      tag_220\n      jump\t// in\n    tag_219:\n      mload(0x40)\n      dup1\n      swap2\n      sub\n      swap1\n      log2\n        /* \"pinkLockV2(NormalLock).sol\":38181:38959  function lock(\r... */\n      swap6\n      swap5\n      pop\n      pop\n      pop\n      pop\n      pop\n      jump\t// out\n        /* \"pinkLockV2(NormalLock).sol\":44775:44891  function renounceLockOwnership(uint256 lockId) external {\r... */\n    tag_78:\n        /* \"pinkLockV2(NormalLock).sol\":44842:44883  transferLockOwnership(lockId, address(0)) */\n      tag_222\n        /* \"pinkLockV2(NormalLock).sol\":44864:44870  lockId */\n      dup2\n        /* \"pinkLockV2(NormalLock).sol\":44880:44881  0 */\n      0x00\n        /* \"pinkLockV2(NormalLock).sol\":44842:44863  transferLockOwnership */\n      tag_47\n        /* \"pinkLockV2(NormalLock).sol\":44842:44883  transferLockOwnership(lockId, address(0)) */\n      jump\t// in\n    tag_222:\n        /* \"pinkLockV2(NormalLock).sol\":44775:44891  function renounceLockOwnership(uint256 lockId) external {\r... */\n      pop\n      jump\t// out\n        /* \"pinkLockV2(NormalLock).sol\":42106:43780  function editLock(\r... */\n    tag_82:\n        /* \"pinkLockV2(NormalLock).sol\":42244:42250  lockId */\n      dup3\n        /* \"pinkLockV2(NormalLock).sol\":38130:38153  _getActualIndex(lockId) */\n      tag_224\n        /* \"pinkLockV2(NormalLock).sol\":38146:38152  lockId */\n      dup2\n        /* \"pinkLockV2(NormalLock).sol\":38130:38145  _getActualIndex */\n      tag_108\n        /* \"pinkLockV2(NormalLock).sol\":38130:38153  _getActualIndex(lockId) */\n      jump\t// in\n    tag_224:\n      pop\n        /* \"pinkLockV2(NormalLock).sol\":42263:42284  Lock storage userLock */\n      0x00\n        /* \"pinkLockV2(NormalLock).sol\":42287:42293  _locks */\n      0x01\n        /* \"pinkLockV2(NormalLock).sol\":42294:42300  lockId */\n      dup6\n        /* \"pinkLockV2(NormalLock).sol\":42287:42301  _locks[lockId] */\n      dup2\n      sload\n      dup2\n      lt\n      tag_226\n      jumpi\n      mstore(0x00, 0x4e487b7100000000000000000000000000000000000000000000000000000000)\n      mstore(0x04, 0x32)\n      revert(0x00, 0x24)\n    tag_226:\n      swap1\n      0x00\n      mstore\n      keccak256(0x00, 0x20)\n      swap1\n      0x08\n      mul\n      add\n        /* \"pinkLockV2(NormalLock).sol\":42263:42301  Lock storage userLock = _locks[lockId] */\n      swap1\n      pop\n        /* \"pinkLockV2(NormalLock).sol\":42363:42373  msg.sender */\n      caller\n        /* \"pinkLockV2(NormalLock).sol\":42345:42373  userLock.owner == msg.sender */\n      0xffffffffffffffffffffffffffffffffffffffff\n      and\n        /* \"pinkLockV2(NormalLock).sol\":42345:42353  userLock */\n      dup2\n        /* \"pinkLockV2(NormalLock).sol\":42345:42359  userLock.owner */\n      0x02\n      add\n      0x00\n      swap1\n      sload\n      swap1\n      0x0100\n      exp\n      swap1\n      div\n      0xffffffffffffffffffffffffffffffffffffffff\n      and\n        /* \"pinkLockV2(NormalLock).sol\":42345:42373  userLock.owner == msg.sender */\n      0xffffffffffffffffffffffffffffffffffffffff\n      and\n      eq\n        /* \"pinkLockV2(NormalLock).sol\":42323:42435  require(\r... */\n      tag_228\n      jumpi\n      mload(0x40)\n      0x08c379a000000000000000000000000000000000000000000000000000000000\n      dup2\n      mstore\n      0x04\n      add\n      tag_229\n      swap1\n      tag_160\n      jump\t// in\n    tag_229:\n      mload(0x40)\n      dup1\n      swap2\n      sub\n      swap1\n      revert\n    tag_228:\n        /* \"pinkLockV2(NormalLock).sol\":42481:42482  0 */\n      0x00\n        /* \"pinkLockV2(NormalLock).sol\":42454:42462  userLock */\n      dup2\n        /* \"pinkLockV2(NormalLock).sol\":42454:42477  userLock.unlockedAmount */\n      0x06\n      add\n      sload\n        /* \"pinkLockV2(NormalLock).sol\":42454:42482  userLock.unlockedAmount == 0 */\n      eq\n        /* \"pinkLockV2(NormalLock).sol\":42446:42504  require(userLock.unlockedAmount == 0, \"Lock was unlocked\") */\n      tag_230\n      jumpi\n      mload(0x40)\n      0x08c379a000000000000000000000000000000000000000000000000000000000\n      dup2\n      mstore\n      0x04\n      add\n      tag_231\n      swap1\n      tag_232\n      jump\t// in\n    tag_231:\n      mload(0x40)\n      dup1\n      swap2\n      sub\n      swap1\n      revert\n    tag_230:\n        /* \"pinkLockV2(NormalLock).sol\":42537:42538  0 */\n      0x00\n        /* \"pinkLockV2(NormalLock).sol\":42521:42534  newUnlockDate */\n      dup4\n        /* \"pinkLockV2(NormalLock).sol\":42521:42538  newUnlockDate > 0 */\n      gt\n        /* \"pinkLockV2(NormalLock).sol\":42517:42839  if (newUnlockDate > 0) {\r... */\n      iszero\n      tag_233\n      jumpi\n        /* \"pinkLockV2(NormalLock).sol\":42598:42606  userLock */\n      dup1\n        /* \"pinkLockV2(NormalLock).sol\":42598:42617  userLock.unlockDate */\n      0x05\n      add\n      sload\n        /* \"pinkLockV2(NormalLock).sol\":42581:42594  newUnlockDate */\n      dup4\n        /* \"pinkLockV2(NormalLock).sol\":42581:42617  newUnlockDate >= userLock.unlockDate */\n      lt\n      iszero\n        /* \"pinkLockV2(NormalLock).sol\":42581:42673  newUnlockDate >= userLock.unlockDate &&\r... */\n      dup1\n      iszero\n      tag_234\n      jumpi\n      pop\n        /* \"pinkLockV2(NormalLock).sol\":42658:42673  block.timestamp */\n      timestamp\n        /* \"pinkLockV2(NormalLock).sol\":42642:42655  newUnlockDate */\n      dup4\n        /* \"pinkLockV2(NormalLock).sol\":42642:42673  newUnlockDate > block.timestamp */\n      gt\n        /* \"pinkLockV2(NormalLock).sol\":42581:42673  newUnlockDate >= userLock.unlockDate &&\r... */\n    tag_234:\n        /* \"pinkLockV2(NormalLock).sol\":42555:42777  require(\r... */\n      tag_235\n      jumpi\n      mload(0x40)\n      0x08c379a000000000000000000000000000000000000000000000000000000000\n      dup2\n      mstore\n      0x04\n      add\n      tag_236\n      swap1\n      tag_237\n      jump\t// in\n    tag_236:\n      mload(0x40)\n      dup1\n      swap2\n      sub\n      swap1\n      revert\n    tag_235:\n        /* \"pinkLockV2(NormalLock).sol\":42814:42827  newUnlockDate */\n      dup3\n        /* \"pinkLockV2(NormalLock).sol\":42792:42800  userLock */\n      dup2\n        /* \"pinkLockV2(NormalLock).sol\":42792:42811  userLock.unlockDate */\n      0x05\n      add\n        /* \"pinkLockV2(NormalLock).sol\":42792:42827  userLock.unlockDate = newUnlockDate */\n      dup2\n      swap1\n      sstore\n      pop\n        /* \"pinkLockV2(NormalLock).sol\":42517:42839  if (newUnlockDate > 0) {\r... */\n    tag_233:\n        /* \"pinkLockV2(NormalLock).sol\":42867:42868  0 */\n      0x00\n        /* \"pinkLockV2(NormalLock).sol\":42855:42864  newAmount */\n      dup5\n        /* \"pinkLockV2(NormalLock).sol\":42855:42868  newAmount > 0 */\n      gt\n        /* \"pinkLockV2(NormalLock).sol\":42851:43585  if (newAmount > 0) {\r... */\n      iszero\n      tag_238\n      jumpi\n        /* \"pinkLockV2(NormalLock).sol\":42924:42932  userLock */\n      dup1\n        /* \"pinkLockV2(NormalLock).sol\":42924:42939  userLock.amount */\n      0x03\n      add\n      sload\n        /* \"pinkLockV2(NormalLock).sol\":42911:42920  newAmount */\n      dup5\n        /* \"pinkLockV2(NormalLock).sol\":42911:42939  newAmount >= userLock.amount */\n      lt\n      iszero\n        /* \"pinkLockV2(NormalLock).sol\":42885:43024  require(\r... */\n      tag_239\n      jumpi\n      mload(0x40)\n      0x08c379a000000000000000000000000000000000000000000000000000000000\n      dup2\n      mstore\n      0x04\n      add\n      tag_240\n      swap1\n      tag_241\n      jump\t// in\n    tag_240:\n      mload(0x40)\n      dup1\n      swap2\n      sub\n      swap1\n      revert\n    tag_239:\n        /* \"pinkLockV2(NormalLock).sol\":43041:43053  uint256 diff */\n      0x00\n        /* \"pinkLockV2(NormalLock).sol\":43068:43076  userLock */\n      dup2\n        /* \"pinkLockV2(NormalLock).sol\":43068:43083  userLock.amount */\n      0x03\n      add\n      sload\n        /* \"pinkLockV2(NormalLock).sol\":43056:43065  newAmount */\n      dup6\n        /* \"pinkLockV2(NormalLock).sol\":43056:43083  newAmount - userLock.amount */\n      tag_242\n      swap2\n      swap1\n      tag_132\n      jump\t// in\n    tag_242:\n        /* \"pinkLockV2(NormalLock).sol\":43041:43083  uint256 diff = newAmount - userLock.amount */\n      swap1\n      pop\n        /* \"pinkLockV2(NormalLock).sol\":43111:43112  0 */\n      0x00\n        /* \"pinkLockV2(NormalLock).sol\":43104:43108  diff */\n      dup2\n        /* \"pinkLockV2(NormalLock).sol\":43104:43112  diff > 0 */\n      gt\n        /* \"pinkLockV2(NormalLock).sol\":43100:43574  if (diff > 0) {\r... */\n      iszero\n      tag_243\n      jumpi\n        /* \"pinkLockV2(NormalLock).sol\":43151:43160  newAmount */\n      dup5\n        /* \"pinkLockV2(NormalLock).sol\":43133:43141  userLock */\n      dup3\n        /* \"pinkLockV2(NormalLock).sol\":43133:43148  userLock.amount */\n      0x03\n      add\n        /* \"pinkLockV2(NormalLock).sol\":43133:43160  userLock.amount = newAmount */\n      dup2\n      swap1\n      sstore\n      pop\n        /* \"pinkLockV2(NormalLock).sol\":43179:43215  CumulativeLockInfo storage tokenInfo */\n      0x00\n        /* \"pinkLockV2(NormalLock).sol\":43218:43236  cumulativeLockInfo */\n      0x05\n        /* \"pinkLockV2(NormalLock).sol\":43218:43292  cumulativeLockInfo[\r... */\n      0x00\n        /* \"pinkLockV2(NormalLock).sol\":43259:43267  userLock */\n      dup5\n        /* \"pinkLockV2(NormalLock).sol\":43259:43273  userLock.token */\n      0x01\n      add\n      0x00\n      swap1\n      sload\n      swap1\n      0x0100\n      exp\n      swap1\n      div\n      0xffffffffffffffffffffffffffffffffffffffff\n      and\n        /* \"pinkLockV2(NormalLock).sol\":43218:43292  cumulativeLockInfo[\r... */\n      0xffffffffffffffffffffffffffffffffffffffff\n      and\n      0xffffffffffffffffffffffffffffffffffffffff\n      and\n      dup2\n      mstore\n      0x20\n      add\n      swap1\n      dup2\n      mstore\n      0x20\n      add\n      0x00\n      keccak256\n        /* \"pinkLockV2(NormalLock).sol\":43179:43292  CumulativeLockInfo storage tokenInfo = cumulativeLockInfo[\r... */\n      swap1\n      pop\n        /* \"pinkLockV2(NormalLock).sol\":43349:43353  diff */\n      dup2\n        /* \"pinkLockV2(NormalLock).sol\":43330:43339  tokenInfo */\n      dup2\n        /* \"pinkLockV2(NormalLock).sol\":43330:43346  tokenInfo.amount */\n      0x01\n      add\n      sload\n        /* \"pinkLockV2(NormalLock).sol\":43330:43353  tokenInfo.amount + diff */\n      tag_244\n      swap2\n      swap1\n      tag_135\n      jump\t// in\n    tag_244:\n        /* \"pinkLockV2(NormalLock).sol\":43311:43320  tokenInfo */\n      dup2\n        /* \"pinkLockV2(NormalLock).sol\":43311:43327  tokenInfo.amount */\n      0x01\n      add\n        /* \"pinkLockV2(NormalLock).sol\":43311:43353  tokenInfo.amount = tokenInfo.amount + diff */\n      dup2\n      swap1\n      sstore\n      pop\n        /* \"pinkLockV2(NormalLock).sol\":43372:43558  _safeTransferFromEnsureExactAmount(\r... */\n      tag_245\n        /* \"pinkLockV2(NormalLock).sol\":43429:43437  userLock */\n      dup4\n        /* \"pinkLockV2(NormalLock).sol\":43429:43443  userLock.token */\n      0x01\n      add\n      0x00\n      swap1\n      sload\n      swap1\n      0x0100\n      exp\n      swap1\n      div\n      0xffffffffffffffffffffffffffffffffffffffff\n      and\n        /* \"pinkLockV2(NormalLock).sol\":43466:43476  msg.sender */\n      caller\n        /* \"pinkLockV2(NormalLock).sol\":43507:43511  this */\n      address\n        /* \"pinkLockV2(NormalLock).sol\":43535:43539  diff */\n      dup6\n        /* \"pinkLockV2(NormalLock).sol\":43372:43406  _safeTransferFromEnsureExactAmount */\n      tag_218\n        /* \"pinkLockV2(NormalLock).sol\":43372:43558  _safeTransferFromEnsureExactAmount(\r... */\n      jump\t// in\n    tag_245:\n        /* \"pinkLockV2(NormalLock).sol\":43100:43574  if (diff > 0) {\r... */\n      pop\n    tag_243:\n        /* \"pinkLockV2(NormalLock).sol\":42851:43585  if (newAmount > 0) {\r... */\n      pop\n    tag_238:\n        /* \"pinkLockV2(NormalLock).sol\":43628:43636  userLock */\n      dup1\n        /* \"pinkLockV2(NormalLock).sol\":43628:43639  userLock.id */\n      0x00\n      add\n      sload\n        /* \"pinkLockV2(NormalLock).sol\":43602:43772  LockUpdated(\r... */\n      0xa8b26360df8d5e154ffa5a8a7e894e85f781acfbbef0b744fb9551d8fd0fd36c\n        /* \"pinkLockV2(NormalLock).sol\":43654:43662  userLock */\n      dup3\n        /* \"pinkLockV2(NormalLock).sol\":43654:43668  userLock.token */\n      0x01\n      add\n      0x00\n      swap1\n      sload\n      swap1\n      0x0100\n      exp\n      swap1\n      div\n      0xffffffffffffffffffffffffffffffffffffffff\n      and\n        /* \"pinkLockV2(NormalLock).sol\":43683:43691  userLock */\n      dup4\n        /* \"pinkLockV2(NormalLock).sol\":43683:43697  userLock.owner */\n      0x02\n      add\n      0x00\n      swap1\n      sload\n      swap1\n      0x0100\n      exp\n      swap1\n      div\n      0xffffffffffffffffffffffffffffffffffffffff\n      and\n        /* \"pinkLockV2(NormalLock).sol\":43712:43720  userLock */\n      dup5\n        /* \"pinkLockV2(NormalLock).sol\":43712:43727  userLock.amount */\n      0x03\n      add\n      sload\n        /* \"pinkLockV2(NormalLock).sol\":43742:43750  userLock */\n      dup6\n        /* \"pinkLockV2(NormalLock).sol\":43742:43761  userLock.unlockDate */\n      0x05\n      add\n      sload\n        /* \"pinkLockV2(NormalLock).sol\":43602:43772  LockUpdated(\r... */\n      mload(0x40)\n      tag_246\n      swap5\n      swap4\n      swap3\n      swap2\n      swap1\n      tag_220\n      jump\t// in\n    tag_246:\n      mload(0x40)\n      dup1\n      swap2\n      sub\n      swap1\n      log2\n        /* \"pinkLockV2(NormalLock).sol\":38164:38165  _ */\n      pop\n        /* \"pinkLockV2(NormalLock).sol\":42106:43780  function editLock(\r... */\n      pop\n      pop\n      pop\n      pop\n      jump\t// out\n        /* \"pinkLockV2(NormalLock).sol\":43788:44193  function editLockDescription(uint256 lockId, string memory description)\r... */\n    tag_86:\n        /* \"pinkLockV2(NormalLock).sol\":43897:43903  lockId */\n      dup2\n        /* \"pinkLockV2(NormalLock).sol\":38130:38153  _getActualIndex(lockId) */\n      tag_248\n        /* \"pinkLockV2(NormalLock).sol\":38146:38152  lockId */\n      dup2\n        /* \"pinkLockV2(NormalLock).sol\":38130:38145  _getActualIndex */\n      tag_108\n        /* \"pinkLockV2(NormalLock).sol\":38130:38153  _getActualIndex(lockId) */\n      jump\t// in\n    tag_248:\n      pop\n        /* \"pinkLockV2(NormalLock).sol\":43921:43942  Lock storage userLock */\n      0x00\n        /* \"pinkLockV2(NormalLock).sol\":43945:43951  _locks */\n      0x01\n        /* \"pinkLockV2(NormalLock).sol\":43952:43958  lockId */\n      dup5\n        /* \"pinkLockV2(NormalLock).sol\":43945:43959  _locks[lockId] */\n      dup2\n      sload\n      dup2\n      lt\n      tag_250\n      jumpi\n      mstore(0x00, 0x4e487b7100000000000000000000000000000000000000000000000000000000)\n      mstore(0x04, 0x32)\n      revert(0x00, 0x24)\n    tag_250:\n      swap1\n      0x00\n      mstore\n      keccak256(0x00, 0x20)\n      swap1\n      0x08\n      mul\n      add\n        /* \"pinkLockV2(NormalLock).sol\":43921:43959  Lock storage userLock = _locks[lockId] */\n      swap1\n      pop\n        /* \"pinkLockV2(NormalLock).sol\":44022:44032  msg.sender */\n      caller\n        /* \"pinkLockV2(NormalLock).sol\":44004:44032  userLock.owner == msg.sender */\n      0xffffffffffffffffffffffffffffffffffffffff\n      and\n        /* \"pinkLockV2(NormalLock).sol\":44004:44012  userLock */\n      dup2\n        /* \"pinkLockV2(NormalLock).sol\":44004:44018  userLock.owner */\n      0x02\n      add\n      0x00\n      swap1\n      sload\n      swap1\n      0x0100\n      exp\n      swap1\n      div\n      0xffffffffffffffffffffffffffffffffffffffff\n      and\n        /* \"pinkLockV2(NormalLock).sol\":44004:44032  userLock.owner == msg.sender */\n      0xffffffffffffffffffffffffffffffffffffffff\n      and\n      eq\n        /* \"pinkLockV2(NormalLock).sol\":43982:44094  require(\r... */\n      tag_252\n      jumpi\n      mload(0x40)\n      0x08c379a000000000000000000000000000000000000000000000000000000000\n      dup2\n      mstore\n      0x04\n      add\n      tag_253\n      swap1\n      tag_160\n      jump\t// in\n    tag_253:\n      mload(0x40)\n      dup1\n      swap2\n      sub\n      swap1\n      revert\n    tag_252:\n        /* \"pinkLockV2(NormalLock).sol\":44128:44139  description */\n      dup3\n        /* \"pinkLockV2(NormalLock).sol\":44105:44113  userLock */\n      dup2\n        /* \"pinkLockV2(NormalLock).sol\":44105:44125  userLock.description */\n      0x07\n      add\n        /* \"pinkLockV2(NormalLock).sol\":44105:44139  userLock.description = description */\n      swap1\n      dup1\n      mload\n      swap1\n      0x20\n      add\n      swap1\n      tag_254\n      swap3\n      swap2\n      swap1\n      tag_255\n      jump\t// in\n    tag_254:\n      pop\n        /* \"pinkLockV2(NormalLock).sol\":44155:44185  LockDescriptionChanged(lockId) */\n      0xe4a1120fd509c50aec65802fd3c3c9a4b72bf746fe9a552396185c6de928e8aa\n        /* \"pinkLockV2(NormalLock).sol\":44178:44184  lockId */\n      dup5\n        /* \"pinkLockV2(NormalLock).sol\":44155:44185  LockDescriptionChanged(lockId) */\n      mload(0x40)\n      tag_256\n      swap2\n      swap1\n      tag_43\n      jump\t// in\n    tag_256:\n      mload(0x40)\n      dup1\n      swap2\n      sub\n      swap1\n      log1\n        /* \"pinkLockV2(NormalLock).sol\":38164:38165  _ */\n      pop\n        /* \"pinkLockV2(NormalLock).sol\":43788:44193  function editLockDescription(uint256 lockId, string memory description)\r... */\n      pop\n      pop\n      pop\n      jump\t// out\n        /* \"pinkLockV2(NormalLock).sol\":47361:47758  function normalLocksForUser(address user)\r... */\n    tag_90:\n        /* \"pinkLockV2(NormalLock).sol\":47453:47466  Lock[] memory */\n      0x60\n        /* \"pinkLockV2(NormalLock).sol\":47484:47498  uint256 length */\n      0x00\n        /* \"pinkLockV2(NormalLock).sol\":47501:47534  _userNormalLockIds[user].length() */\n      tag_258\n        /* \"pinkLockV2(NormalLock).sol\":47501:47519  _userNormalLockIds */\n      0x02\n        /* \"pinkLockV2(NormalLock).sol\":47501:47525  _userNormalLockIds[user] */\n      0x00\n        /* \"pinkLockV2(NormalLock).sol\":47520:47524  user */\n      dup6\n        /* \"pinkLockV2(NormalLock).sol\":47501:47525  _userNormalLockIds[user] */\n      0xffffffffffffffffffffffffffffffffffffffff\n      and\n      0xffffffffffffffffffffffffffffffffffffffff\n      and\n      dup2\n      mstore\n      0x20\n      add\n      swap1\n      dup2\n      mstore\n      0x20\n      add\n      0x00\n      keccak256\n        /* \"pinkLockV2(NormalLock).sol\":47501:47532  _userNormalLockIds[user].length */\n      tag_128\n        /* \"pinkLockV2(NormalLock).sol\":47501:47534  _userNormalLockIds[user].length() */\n      jump\t// in\n    tag_258:\n        /* \"pinkLockV2(NormalLock).sol\":47484:47534  uint256 length = _userNormalLockIds[user].length() */\n      swap1\n      pop\n        /* \"pinkLockV2(NormalLock).sol\":47545:47568  Lock[] memory userLocks */\n      0x00\n        /* \"pinkLockV2(NormalLock).sol\":47582:47588  length */\n      dup2\n        /* \"pinkLockV2(NormalLock).sol\":47571:47589  new Lock[](length) */\n      0xffffffffffffffff\n      dup2\n      gt\n      iszero\n      tag_259\n      jumpi\n      mstore(0x00, 0x4e487b7100000000000000000000000000000000000000000000000000000000)\n      mstore(0x04, 0x41)\n      revert(0x00, 0x24)\n    tag_259:\n      mload(0x40)\n      swap1\n      dup1\n      dup3\n      mstore\n      dup1\n      0x20\n      mul\n      0x20\n      add\n      dup3\n      add\n      0x40\n      mstore\n      dup1\n      iszero\n      tag_260\n      jumpi\n      dup2\n      0x20\n      add\n    tag_261:\n      tag_262\n      tag_105\n      jump\t// in\n    tag_262:\n      dup2\n      mstore\n      0x20\n      add\n      swap1\n      0x01\n      swap1\n      sub\n      swap1\n      dup2\n      tag_261\n      jumpi\n      swap1\n      pop\n    tag_260:\n      pop\n        /* \"pinkLockV2(NormalLock).sol\":47545:47589  Lock[] memory userLocks = new Lock[](length) */\n      swap1\n      pop\n        /* \"pinkLockV2(NormalLock).sol\":47607:47616  uint256 i */\n      0x00\n        /* \"pinkLockV2(NormalLock).sol\":47602:47724  for (uint256 i = 0; i < length; i++) {\r... */\n    tag_263:\n        /* \"pinkLockV2(NormalLock).sol\":47626:47632  length */\n      dup3\n        /* \"pinkLockV2(NormalLock).sol\":47622:47623  i */\n      dup2\n        /* \"pinkLockV2(NormalLock).sol\":47622:47632  i < length */\n      lt\n        /* \"pinkLockV2(NormalLock).sol\":47602:47724  for (uint256 i = 0; i < length; i++) {\r... */\n      iszero\n      tag_264\n      jumpi\n        /* \"pinkLockV2(NormalLock).sol\":47669:47712  getLockById(_userNormalLockIds[user].at(i)) */\n      tag_266\n        /* \"pinkLockV2(NormalLock).sol\":47681:47711  _userNormalLockIds[user].at(i) */\n      tag_267\n        /* \"pinkLockV2(NormalLock).sol\":47709:47710  i */\n      dup3\n        /* \"pinkLockV2(NormalLock).sol\":47681:47699  _userNormalLockIds */\n      0x02\n        /* \"pinkLockV2(NormalLock).sol\":47681:47705  _userNormalLockIds[user] */\n      0x00\n        /* \"pinkLockV2(NormalLock).sol\":47700:47704  user */\n      dup10\n        /* \"pinkLockV2(NormalLock).sol\":47681:47705  _userNormalLockIds[user] */\n      0xffffffffffffffffffffffffffffffffffffffff\n      and\n      0xffffffffffffffffffffffffffffffffffffffff\n      and\n      dup2\n      mstore\n      0x20\n      add\n      swap1\n      dup2\n      mstore\n      0x20\n      add\n      0x00\n      keccak256\n        /* \"pinkLockV2(NormalLock).sol\":47681:47708  _userNormalLockIds[user].at */\n      tag_145\n      swap1\n        /* \"pinkLockV2(NormalLock).sol\":47681:47711  _userNormalLockIds[user].at(i) */\n      swap2\n      swap1\n      0xffffffff\n      and\n      jump\t// in\n    tag_267:\n        /* \"pinkLockV2(NormalLock).sol\":47669:47680  getLockById */\n      tag_27\n        /* \"pinkLockV2(NormalLock).sol\":47669:47712  getLockById(_userNormalLockIds[user].at(i)) */\n      jump\t// in\n    tag_266:\n        /* \"pinkLockV2(NormalLock).sol\":47654:47663  userLocks */\n      dup3\n        /* \"pinkLockV2(NormalLock).sol\":47664:47665  i */\n      dup3\n        /* \"pinkLockV2(NormalLock).sol\":47654:47666  userLocks[i] */\n      dup2\n      mload\n      dup2\n      lt\n      tag_268\n      jumpi\n      mstore(0x00, 0x4e487b7100000000000000000000000000000000000000000000000000000000)\n      mstore(0x04, 0x32)\n      revert(0x00, 0x24)\n    tag_268:\n      0x20\n      mul\n      0x20\n      add\n      add\n        /* \"pinkLockV2(NormalLock).sol\":47654:47712  userLocks[i] = getLockById(_userNormalLockIds[user].at(i)) */\n      dup2\n      swap1\n      mstore\n      pop\n        /* \"pinkLockV2(NormalLock).sol\":47634:47637  i++ */\n      dup1\n      dup1\n      tag_269\n      swap1\n      tag_148\n      jump\t// in\n    tag_269:\n      swap2\n      pop\n      pop\n        /* \"pinkLockV2(NormalLock).sol\":47602:47724  for (uint256 i = 0; i < length; i++) {\r... */\n      jump(tag_263)\n    tag_264:\n      pop\n        /* \"pinkLockV2(NormalLock).sol\":47741:47750  userLocks */\n      dup1\n        /* \"pinkLockV2(NormalLock).sol\":47734:47750  return userLocks */\n      swap3\n      pop\n      pop\n      pop\n        /* \"pinkLockV2(NormalLock).sol\":47361:47758  function normalLocksForUser(address user)\r... */\n      swap2\n      swap1\n      pop\n      jump\t// out\n        /* \"pinkLockV2(NormalLock).sol\":37312:37376  mapping(address => CumulativeLockInfo) public cumulativeLockInfo */\n    tag_94:\n      mstore(0x20, 0x05)\n      dup1\n      0x00\n      mstore\n      keccak256(0x00, 0x40)\n      0x00\n      swap2\n      pop\n      swap1\n      pop\n      dup1\n      0x00\n      add\n      0x00\n      swap1\n      sload\n      swap1\n      0x0100\n      exp\n      swap1\n      div\n      0xffffffffffffffffffffffffffffffffffffffff\n      and\n      swap1\n      dup1\n      0x01\n      add\n      sload\n      swap1\n      pop\n      dup3\n      jump\t// out\n        /* \"pinkLockV2(NormalLock).sol\":47186:47353  function normalLockCountForUser(address user)\r... */\n    tag_99:\n        /* \"pinkLockV2(NormalLock).sol\":47280:47287  uint256 */\n      0x00\n        /* \"pinkLockV2(NormalLock).sol\":47312:47345  _userNormalLockIds[user].length() */\n      tag_271\n        /* \"pinkLockV2(NormalLock).sol\":47312:47330  _userNormalLockIds */\n      0x02\n        /* \"pinkLockV2(NormalLock).sol\":47312:47336  _userNormalLockIds[user] */\n      0x00\n        /* \"pinkLockV2(NormalLock).sol\":47331:47335  user */\n      dup5\n        /* \"pinkLockV2(NormalLock).sol\":47312:47336  _userNormalLockIds[user] */\n      0xffffffffffffffffffffffffffffffffffffffff\n      and\n      0xffffffffffffffffffffffffffffffffffffffff\n      and\n      dup2\n      mstore\n      0x20\n      add\n      swap1\n      dup2\n      mstore\n      0x20\n      add\n      0x00\n      keccak256\n        /* \"pinkLockV2(NormalLock).sol\":47312:47343  _userNormalLockIds[user].length */\n      tag_128\n        /* \"pinkLockV2(NormalLock).sol\":47312:47345  _userNormalLockIds[user].length() */\n      jump\t// in\n    tag_271:\n        /* \"pinkLockV2(NormalLock).sol\":47305:47345  return _userNormalLockIds[user].length() */\n      swap1\n      pop\n        /* \"pinkLockV2(NormalLock).sol\":47186:47353  function normalLockCountForUser(address user)\r... */\n      swap2\n      swap1\n      pop\n      jump\t// out\n        /* \"pinkLockV2(NormalLock).sol\":45705:45893  function getTotalLockCount() external view returns (uint256) {\r... */\n    tag_102:\n        /* \"pinkLockV2(NormalLock).sol\":45757:45764  uint256 */\n      0x00\n        /* \"pinkLockV2(NormalLock).sol\":45872:45878  _locks */\n      0x01\n        /* \"pinkLockV2(NormalLock).sol\":45872:45885  _locks.length */\n      dup1\n      sload\n      swap1\n      pop\n        /* \"pinkLockV2(NormalLock).sol\":45865:45885  return _locks.length */\n      swap1\n      pop\n        /* \"pinkLockV2(NormalLock).sol\":45705:45893  function getTotalLockCount() external view returns (uint256) {\r... */\n      swap1\n      jump\t// out\n        /* \"pinkLockV2(NormalLock).sol\":48648:48884  function _getActualIndex(uint256 lockId) internal view returns (uint256) {\r... */\n    tag_108:\n        /* \"pinkLockV2(NormalLock).sol\":48712:48719  uint256 */\n      0x00\n        /* \"pinkLockV2(NormalLock).sol\":48742:48761  uint256 actualIndex */\n      dup1\n        /* \"pinkLockV2(NormalLock).sol\":48764:48770  lockId */\n      dup3\n        /* \"pinkLockV2(NormalLock).sol\":48742:48770  uint256 actualIndex = lockId */\n      swap1\n      pop\n        /* \"pinkLockV2(NormalLock).sol\":48814:48820  _locks */\n      0x01\n        /* \"pinkLockV2(NormalLock).sol\":48814:48827  _locks.length */\n      dup1\n      sload\n      swap1\n      pop\n        /* \"pinkLockV2(NormalLock).sol\":48800:48811  actualIndex */\n      dup2\n        /* \"pinkLockV2(NormalLock).sol\":48800:48827  actualIndex < _locks.length */\n      lt\n        /* \"pinkLockV2(NormalLock).sol\":48792:48847  require(actualIndex < _locks.length, \"Invalid lock id\") */\n      tag_274\n      jumpi\n      mload(0x40)\n      0x08c379a000000000000000000000000000000000000000000000000000000000\n      dup2\n      mstore\n      0x04\n      add\n      tag_275\n      swap1\n      tag_276\n      jump\t// in\n    tag_275:\n      mload(0x40)\n      dup1\n      swap2\n      sub\n      swap1\n      revert\n    tag_274:\n        /* \"pinkLockV2(NormalLock).sol\":48865:48876  actualIndex */\n      dup1\n        /* \"pinkLockV2(NormalLock).sol\":48858:48876  return actualIndex */\n      swap2\n      pop\n      pop\n        /* \"pinkLockV2(NormalLock).sol\":48648:48884  function _getActualIndex(uint256 lockId) internal view returns (uint256) {\r... */\n      swap2\n      swap1\n      pop\n      jump\t// out\n        /* \"pinkLockV2(NormalLock).sol\":15923:16037  function length(UintSet storage set) internal view returns (uint256) {\r... */\n    tag_128:\n        /* \"pinkLockV2(NormalLock).sol\":15983:15990  uint256 */\n      0x00\n        /* \"pinkLockV2(NormalLock).sol\":16010:16029  _length(set._inner) */\n      tag_278\n        /* \"pinkLockV2(NormalLock).sol\":16018:16021  set */\n      dup3\n        /* \"pinkLockV2(NormalLock).sol\":16018:16028  set._inner */\n      0x00\n      add\n        /* \"pinkLockV2(NormalLock).sol\":16010:16017  _length */\n      tag_279\n        /* \"pinkLockV2(NormalLock).sol\":16010:16029  _length(set._inner) */\n      jump\t// in\n    tag_278:\n        /* \"pinkLockV2(NormalLock).sol\":16003:16029  return _length(set._inner) */\n      swap1\n      pop\n        /* \"pinkLockV2(NormalLock).sol\":15923:16037  function length(UintSet storage set) internal view returns (uint256) {\r... */\n      swap2\n      swap1\n      pop\n      jump\t// out\n        /* \"pinkLockV2(NormalLock).sol\":16391:16528  function at(UintSet storage set, uint256 index) internal view returns (uint256) {\r... */\n    tag_145:\n        /* \"pinkLockV2(NormalLock).sol\":16462:16469  uint256 */\n      0x00\n        /* \"pinkLockV2(NormalLock).sol\":16497:16519  _at(set._inner, index) */\n      tag_281\n        /* \"pinkLockV2(NormalLock).sol\":16501:16504  set */\n      dup4\n        /* \"pinkLockV2(NormalLock).sol\":16501:16511  set._inner */\n      0x00\n      add\n        /* \"pinkLockV2(NormalLock).sol\":16513:16518  index */\n      dup4\n        /* \"pinkLockV2(NormalLock).sol\":16497:16500  _at */\n      tag_282\n        /* \"pinkLockV2(NormalLock).sol\":16497:16519  _at(set._inner, index) */\n      jump\t// in\n    tag_281:\n        /* \"pinkLockV2(NormalLock).sol\":16489:16520  uint256(_at(set._inner, index)) */\n      0x00\n      shr\n        /* \"pinkLockV2(NormalLock).sol\":16482:16520  return uint256(_at(set._inner, index)) */\n      swap1\n      pop\n        /* \"pinkLockV2(NormalLock).sol\":16391:16528  function at(UintSet storage set, uint256 index) internal view returns (uint256) {\r... */\n      swap3\n      swap2\n      pop\n      pop\n      jump\t// out\n        /* \"pinkLockV2(NormalLock).sol\":13424:13541  function length(AddressSet storage set) internal view returns (uint256) {\r... */\n    tag_152:\n        /* \"pinkLockV2(NormalLock).sol\":13487:13494  uint256 */\n      0x00\n        /* \"pinkLockV2(NormalLock).sol\":13514:13533  _length(set._inner) */\n      tag_284\n        /* \"pinkLockV2(NormalLock).sol\":13522:13525  set */\n      dup3\n        /* \"pinkLockV2(NormalLock).sol\":13522:13532  set._inner */\n      0x00\n      add\n        /* \"pinkLockV2(NormalLock).sol\":13514:13521  _length */\n      tag_279\n        /* \"pinkLockV2(NormalLock).sol\":13514:13533  _length(set._inner) */\n      jump\t// in\n    tag_284:\n        /* \"pinkLockV2(NormalLock).sol\":13507:13533  return _length(set._inner) */\n      swap1\n      pop\n        /* \"pinkLockV2(NormalLock).sol\":13424:13541  function length(AddressSet storage set) internal view returns (uint256) {\r... */\n      swap2\n      swap1\n      pop\n      jump\t// out\n        /* \"pinkLockV2(NormalLock).sol\":15468:15605  function remove(UintSet storage set, uint256 value) internal returns (bool) {\r... */\n    tag_162:\n        /* \"pinkLockV2(NormalLock).sol\":15538:15542  bool */\n      0x00\n        /* \"pinkLockV2(NormalLock).sol\":15562:15597  _remove(set._inner, bytes32(value)) */\n      tag_286\n        /* \"pinkLockV2(NormalLock).sol\":15570:15573  set */\n      dup4\n        /* \"pinkLockV2(NormalLock).sol\":15570:15580  set._inner */\n      0x00\n      add\n        /* \"pinkLockV2(NormalLock).sol\":15590:15595  value */\n      dup4\n        /* \"pinkLockV2(NormalLock).sol\":15582:15596  bytes32(value) */\n      0x00\n      shl\n        /* \"pinkLockV2(NormalLock).sol\":15562:15569  _remove */\n      tag_287\n        /* \"pinkLockV2(NormalLock).sol\":15562:15597  _remove(set._inner, bytes32(value)) */\n      jump\t// in\n    tag_286:\n        /* \"pinkLockV2(NormalLock).sol\":15555:15597  return _remove(set._inner, bytes32(value)) */\n      swap1\n      pop\n        /* \"pinkLockV2(NormalLock).sol\":15468:15605  function remove(UintSet storage set, uint256 value) internal returns (bool) {\r... */\n      swap3\n      swap2\n      pop\n      pop\n      jump\t// out\n        /* \"pinkLockV2(NormalLock).sol\":15161:15292  function add(UintSet storage set, uint256 value) internal returns (bool) {\r... */\n    tag_164:\n        /* \"pinkLockV2(NormalLock).sol\":15228:15232  bool */\n      0x00\n        /* \"pinkLockV2(NormalLock).sol\":15252:15284  _add(set._inner, bytes32(value)) */\n      tag_289\n        /* \"pinkLockV2(NormalLock).sol\":15257:15260  set */\n      dup4\n        /* \"pinkLockV2(NormalLock).sol\":15257:15267  set._inner */\n      0x00\n      add\n        /* \"pinkLockV2(NormalLock).sol\":15277:15282  value */\n      dup4\n        /* \"pinkLockV2(NormalLock).sol\":15269:15283  bytes32(value) */\n      0x00\n      shl\n        /* \"pinkLockV2(NormalLock).sol\":15252:15256  _add */\n      tag_290\n        /* \"pinkLockV2(NormalLock).sol\":15252:15284  _add(set._inner, bytes32(value)) */\n      jump\t// in\n    tag_289:\n        /* \"pinkLockV2(NormalLock).sol\":15245:15284  return _add(set._inner, bytes32(value)) */\n      swap1\n      pop\n        /* \"pinkLockV2(NormalLock).sol\":15161:15292  function add(UintSet storage set, uint256 value) internal returns (bool) {\r... */\n      swap3\n      swap2\n      pop\n      pop\n      jump\t// out\n        /* \"pinkLockV2(NormalLock).sol\":40969:42098  function _normalUnlock(Lock storage userLock) internal {\r... */\n    tag_184:\n        /* \"pinkLockV2(NormalLock).sol\":41076:41084  userLock */\n      dup1\n        /* \"pinkLockV2(NormalLock).sol\":41076:41095  userLock.unlockDate */\n      0x05\n      add\n      sload\n        /* \"pinkLockV2(NormalLock).sol\":41057:41072  block.timestamp */\n      timestamp\n        /* \"pinkLockV2(NormalLock).sol\":41057:41095  block.timestamp >= userLock.unlockDate */\n      lt\n      iszero\n        /* \"pinkLockV2(NormalLock).sol\":41035:41147  require(\r... */\n      tag_292\n      jumpi\n      mload(0x40)\n      0x08c379a000000000000000000000000000000000000000000000000000000000\n      dup2\n      mstore\n      0x04\n      add\n      tag_293\n      swap1\n      tag_294\n      jump\t// in\n    tag_293:\n      mload(0x40)\n      dup1\n      swap2\n      sub\n      swap1\n      revert\n    tag_292:\n        /* \"pinkLockV2(NormalLock).sol\":41193:41194  0 */\n      0x00\n        /* \"pinkLockV2(NormalLock).sol\":41166:41174  userLock */\n      dup2\n        /* \"pinkLockV2(NormalLock).sol\":41166:41189  userLock.unlockedAmount */\n      0x06\n      add\n      sload\n        /* \"pinkLockV2(NormalLock).sol\":41166:41194  userLock.unlockedAmount == 0 */\n      eq\n        /* \"pinkLockV2(NormalLock).sol\":41158:41216  require(userLock.unlockedAmount == 0, \"Nothing to unlock\") */\n      tag_295\n      jumpi\n      mload(0x40)\n      0x08c379a000000000000000000000000000000000000000000000000000000000\n      dup2\n      mstore\n      0x04\n      add\n      tag_296\n      swap1\n      tag_297\n      jump\t// in\n    tag_296:\n      mload(0x40)\n      dup1\n      swap2\n      sub\n      swap1\n      revert\n    tag_295:\n        /* \"pinkLockV2(NormalLock).sol\":41229:41265  CumulativeLockInfo storage tokenInfo */\n      0x00\n        /* \"pinkLockV2(NormalLock).sol\":41268:41286  cumulativeLockInfo */\n      0x05\n        /* \"pinkLockV2(NormalLock).sol\":41268:41326  cumulativeLockInfo[\r... */\n      0x00\n        /* \"pinkLockV2(NormalLock).sol\":41301:41309  userLock */\n      dup4\n        /* \"pinkLockV2(NormalLock).sol\":41301:41315  userLock.token */\n      0x01\n      add\n      0x00\n      swap1\n      sload\n      swap1\n      0x0100\n      exp\n      swap1\n      div\n      0xffffffffffffffffffffffffffffffffffffffff\n      and\n        /* \"pinkLockV2(NormalLock).sol\":41268:41326  cumulativeLockInfo[\r... */\n      0xffffffffffffffffffffffffffffffffffffffff\n      and\n      0xffffffffffffffffffffffffffffffffffffffff\n      and\n      dup2\n      mstore\n      0x20\n      add\n      swap1\n      dup2\n      mstore\n      0x20\n      add\n      0x00\n      keccak256\n        /* \"pinkLockV2(NormalLock).sol\":41229:41326  CumulativeLockInfo storage tokenInfo = cumulativeLockInfo[\r... */\n      swap1\n      pop\n        /* \"pinkLockV2(NormalLock).sol\":41337:41387  _userNormalLockIds[msg.sender].remove(userLock.id) */\n      tag_298\n        /* \"pinkLockV2(NormalLock).sol\":41375:41383  userLock */\n      dup3\n        /* \"pinkLockV2(NormalLock).sol\":41375:41386  userLock.id */\n      0x00\n      add\n      sload\n        /* \"pinkLockV2(NormalLock).sol\":41337:41355  _userNormalLockIds */\n      0x02\n        /* \"pinkLockV2(NormalLock).sol\":41337:41367  _userNormalLockIds[msg.sender] */\n      0x00\n        /* \"pinkLockV2(NormalLock).sol\":41356:41366  msg.sender */\n      caller\n        /* \"pinkLockV2(NormalLock).sol\":41337:41367  _userNormalLockIds[msg.sender] */\n      0xffffffffffffffffffffffffffffffffffffffff\n      and\n      0xffffffffffffffffffffffffffffffffffffffff\n      and\n      dup2\n      mstore\n      0x20\n      add\n      swap1\n      dup2\n      mstore\n      0x20\n      add\n      0x00\n      keccak256\n        /* \"pinkLockV2(NormalLock).sol\":41337:41374  _userNormalLockIds[msg.sender].remove */\n      tag_162\n      swap1\n        /* \"pinkLockV2(NormalLock).sol\":41337:41387  _userNormalLockIds[msg.sender].remove(userLock.id) */\n      swap2\n      swap1\n      0xffffffff\n      and\n      jump\t// in\n    tag_298:\n      pop\n        /* \"pinkLockV2(NormalLock).sol\":41400:41420  uint256 unlockAmount */\n      0x00\n        /* \"pinkLockV2(NormalLock).sol\":41423:41431  userLock */\n      dup3\n        /* \"pinkLockV2(NormalLock).sol\":41423:41438  userLock.amount */\n      0x03\n      add\n      sload\n        /* \"pinkLockV2(NormalLock).sol\":41400:41438  uint256 unlockAmount = userLock.amount */\n      swap1\n      pop\n        /* \"pinkLockV2(NormalLock).sol\":41475:41487  unlockAmount */\n      dup1\n        /* \"pinkLockV2(NormalLock).sol\":41455:41464  tokenInfo */\n      dup3\n        /* \"pinkLockV2(NormalLock).sol\":41455:41471  tokenInfo.amount */\n      0x01\n      add\n      sload\n        /* \"pinkLockV2(NormalLock).sol\":41455:41487  tokenInfo.amount <= unlockAmount */\n      gt\n        /* \"pinkLockV2(NormalLock).sol\":41451:41619  if (tokenInfo.amount <= unlockAmount) {\r... */\n      tag_299\n      jumpi\n        /* \"pinkLockV2(NormalLock).sol\":41523:41524  0 */\n      0x00\n        /* \"pinkLockV2(NormalLock).sol\":41504:41513  tokenInfo */\n      dup3\n        /* \"pinkLockV2(NormalLock).sol\":41504:41520  tokenInfo.amount */\n      0x01\n      add\n        /* \"pinkLockV2(NormalLock).sol\":41504:41524  tokenInfo.amount = 0 */\n      dup2\n      swap1\n      sstore\n      pop\n        /* \"pinkLockV2(NormalLock).sol\":41451:41619  if (tokenInfo.amount <= unlockAmount) {\r... */\n      jump(tag_300)\n    tag_299:\n        /* \"pinkLockV2(NormalLock).sol\":41595:41607  unlockAmount */\n      dup1\n        /* \"pinkLockV2(NormalLock).sol\":41576:41585  tokenInfo */\n      dup3\n        /* \"pinkLockV2(NormalLock).sol\":41576:41592  tokenInfo.amount */\n      0x01\n      add\n      sload\n        /* \"pinkLockV2(NormalLock).sol\":41576:41607  tokenInfo.amount - unlockAmount */\n      tag_301\n      swap2\n      swap1\n      tag_132\n      jump\t// in\n    tag_301:\n        /* \"pinkLockV2(NormalLock).sol\":41557:41566  tokenInfo */\n      dup3\n        /* \"pinkLockV2(NormalLock).sol\":41557:41573  tokenInfo.amount */\n      0x01\n      add\n        /* \"pinkLockV2(NormalLock).sol\":41557:41607  tokenInfo.amount = tokenInfo.amount - unlockAmount */\n      dup2\n      swap1\n      sstore\n      pop\n        /* \"pinkLockV2(NormalLock).sol\":41451:41619  if (tokenInfo.amount <= unlockAmount) {\r... */\n    tag_300:\n        /* \"pinkLockV2(NormalLock).sol\":41655:41656  0 */\n      0x00\n        /* \"pinkLockV2(NormalLock).sol\":41635:41644  tokenInfo */\n      dup3\n        /* \"pinkLockV2(NormalLock).sol\":41635:41651  tokenInfo.amount */\n      0x01\n      add\n      sload\n        /* \"pinkLockV2(NormalLock).sol\":41635:41656  tokenInfo.amount == 0 */\n      eq\n        /* \"pinkLockV2(NormalLock).sol\":41631:41727  if (tokenInfo.amount == 0) {\r... */\n      iszero\n      tag_302\n      jumpi\n        /* \"pinkLockV2(NormalLock).sol\":41673:41715  _normalLockedTokens.remove(userLock.token) */\n      tag_303\n        /* \"pinkLockV2(NormalLock).sol\":41700:41708  userLock */\n      dup4\n        /* \"pinkLockV2(NormalLock).sol\":41700:41714  userLock.token */\n      0x01\n      add\n      0x00\n      swap1\n      sload\n      swap1\n      0x0100\n      exp\n      swap1\n      div\n      0xffffffffffffffffffffffffffffffffffffffff\n      and\n        /* \"pinkLockV2(NormalLock).sol\":41673:41692  _normalLockedTokens */\n      0x03\n        /* \"pinkLockV2(NormalLock).sol\":41673:41699  _normalLockedTokens.remove */\n      tag_304\n      swap1\n        /* \"pinkLockV2(NormalLock).sol\":41673:41715  _normalLockedTokens.remove(userLock.token) */\n      swap2\n      swap1\n      0xffffffff\n      and\n      jump\t// in\n    tag_303:\n      pop\n        /* \"pinkLockV2(NormalLock).sol\":41631:41727  if (tokenInfo.amount == 0) {\r... */\n    tag_302:\n        /* \"pinkLockV2(NormalLock).sol\":41763:41775  unlockAmount */\n      dup1\n        /* \"pinkLockV2(NormalLock).sol\":41737:41745  userLock */\n      dup4\n        /* \"pinkLockV2(NormalLock).sol\":41737:41760  userLock.unlockedAmount */\n      0x06\n      add\n        /* \"pinkLockV2(NormalLock).sol\":41737:41775  userLock.unlockedAmount = unlockAmount */\n      dup2\n      swap1\n      sstore\n      pop\n        /* \"pinkLockV2(NormalLock).sol\":41788:41839  _tokenToLockIds[userLock.token].remove(userLock.id) */\n      tag_305\n        /* \"pinkLockV2(NormalLock).sol\":41827:41835  userLock */\n      dup4\n        /* \"pinkLockV2(NormalLock).sol\":41827:41838  userLock.id */\n      0x00\n      add\n      sload\n        /* \"pinkLockV2(NormalLock).sol\":41788:41803  _tokenToLockIds */\n      0x06\n        /* \"pinkLockV2(NormalLock).sol\":41788:41819  _tokenToLockIds[userLock.token] */\n      0x00\n        /* \"pinkLockV2(NormalLock).sol\":41804:41812  userLock */\n      dup7\n        /* \"pinkLockV2(NormalLock).sol\":41804:41818  userLock.token */\n      0x01\n      add\n      0x00\n      swap1\n      sload\n      swap1\n      0x0100\n      exp\n      swap1\n      div\n      0xffffffffffffffffffffffffffffffffffffffff\n      and\n        /* \"pinkLockV2(NormalLock).sol\":41788:41819  _tokenToLockIds[userLock.token] */\n      0xffffffffffffffffffffffffffffffffffffffff\n      and\n      0xffffffffffffffffffffffffffffffffffffffff\n      and\n      dup2\n      mstore\n      0x20\n      add\n      swap1\n      dup2\n      mstore\n      0x20\n      add\n      0x00\n      keccak256\n        /* \"pinkLockV2(NormalLock).sol\":41788:41826  _tokenToLockIds[userLock.token].remove */\n      tag_162\n      swap1\n        /* \"pinkLockV2(NormalLock).sol\":41788:41839  _tokenToLockIds[userLock.token].remove(userLock.id) */\n      swap2\n      swap1\n      0xffffffff\n      and\n      jump\t// in\n    tag_305:\n      pop\n        /* \"pinkLockV2(NormalLock).sol\":41852:41913  IERC20(userLock.token).safeTransfer(msg.sender, unlockAmount) */\n      tag_306\n        /* \"pinkLockV2(NormalLock).sol\":41888:41898  msg.sender */\n      caller\n        /* \"pinkLockV2(NormalLock).sol\":41900:41912  unlockAmount */\n      dup3\n        /* \"pinkLockV2(NormalLock).sol\":41859:41867  userLock */\n      dup6\n        /* \"pinkLockV2(NormalLock).sol\":41859:41873  userLock.token */\n      0x01\n      add\n      0x00\n      swap1\n      sload\n      swap1\n      0x0100\n      exp\n      swap1\n      div\n      0xffffffffffffffffffffffffffffffffffffffff\n      and\n        /* \"pinkLockV2(NormalLock).sol\":41852:41887  IERC20(userLock.token).safeTransfer */\n      0xffffffffffffffffffffffffffffffffffffffff\n      and\n      tag_307\n      swap1\n        /* \"pinkLockV2(NormalLock).sol\":41852:41913  IERC20(userLock.token).safeTransfer(msg.sender, unlockAmount) */\n      swap3\n      swap2\n      swap1\n      0xffffffff\n      and\n      jump\t// in\n    tag_306:\n        /* \"pinkLockV2(NormalLock).sol\":41957:41965  userLock */\n      dup3\n        /* \"pinkLockV2(NormalLock).sol\":41957:41968  userLock.id */\n      0x00\n      add\n      sload\n        /* \"pinkLockV2(NormalLock).sol\":41931:42090  LockRemoved(\r... */\n      0xc6532367992b32e42a62dd89fc3574876d97d081a263aa6e030f34b79b7e6e8b\n        /* \"pinkLockV2(NormalLock).sol\":41983:41991  userLock */\n      dup5\n        /* \"pinkLockV2(NormalLock).sol\":41983:41997  userLock.token */\n      0x01\n      add\n      0x00\n      swap1\n      sload\n      swap1\n      0x0100\n      exp\n      swap1\n      div\n      0xffffffffffffffffffffffffffffffffffffffff\n      and\n        /* \"pinkLockV2(NormalLock).sol\":42012:42022  msg.sender */\n      caller\n        /* \"pinkLockV2(NormalLock).sol\":42037:42049  unlockAmount */\n      dup5\n        /* \"pinkLockV2(NormalLock).sol\":42064:42079  block.timestamp */\n      timestamp\n        /* \"pinkLockV2(NormalLock).sol\":41931:42090  LockRemoved(\r... */\n      mload(0x40)\n      tag_308\n      swap5\n      swap4\n      swap3\n      swap2\n      swap1\n      tag_220\n      jump\t// in\n    tag_308:\n      mload(0x40)\n      dup1\n      swap2\n      sub\n      swap1\n      log2\n        /* \"pinkLockV2(NormalLock).sol\":40969:42098  function _normalUnlock(Lock storage userLock) internal {\r... */\n      pop\n      pop\n      pop\n      jump\t// out\n        /* \"pinkLockV2(NormalLock).sol\":13895:14053  function at(AddressSet storage set, uint256 index) internal view returns (address) {\r... */\n    tag_201:\n        /* \"pinkLockV2(NormalLock).sol\":13969:13976  address */\n      0x00\n        /* \"pinkLockV2(NormalLock).sol\":14020:14042  _at(set._inner, index) */\n      tag_310\n        /* \"pinkLockV2(NormalLock).sol\":14024:14027  set */\n      dup4\n        /* \"pinkLockV2(NormalLock).sol\":14024:14034  set._inner */\n      0x00\n      add\n        /* \"pinkLockV2(NormalLock).sol\":14036:14041  index */\n      dup4\n        /* \"pinkLockV2(NormalLock).sol\":14020:14023  _at */\n      tag_282\n        /* \"pinkLockV2(NormalLock).sol\":14020:14042  _at(set._inner, index) */\n      jump\t// in\n    tag_310:\n        /* \"pinkLockV2(NormalLock).sol\":14012:14043  uint256(_at(set._inner, index)) */\n      0x00\n      shr\n        /* \"pinkLockV2(NormalLock).sol\":13989:14045  return address(uint160(uint256(_at(set._inner, index)))) */\n      swap1\n      pop\n        /* \"pinkLockV2(NormalLock).sol\":13895:14053  function at(AddressSet storage set, uint256 index) internal view returns (address) {\r... */\n      swap3\n      swap2\n      pop\n      pop\n      jump\t// out\n        /* \"pinkLockV2(NormalLock).sol\":38967:39346  function _createLock(\r... */\n    tag_216:\n        /* \"pinkLockV2(NormalLock).sol\":39151:39161  uint256 id */\n      0x00\n        /* \"pinkLockV2(NormalLock).sol\":39179:39318  _lockNormalToken(\r... */\n      tag_312\n        /* \"pinkLockV2(NormalLock).sol\":39210:39215  owner */\n      dup7\n        /* \"pinkLockV2(NormalLock).sol\":39230:39235  token */\n      dup7\n        /* \"pinkLockV2(NormalLock).sol\":39250:39256  amount */\n      dup7\n        /* \"pinkLockV2(NormalLock).sol\":39271:39281  unlockDate */\n      dup7\n        /* \"pinkLockV2(NormalLock).sol\":39296:39307  description */\n      dup7\n        /* \"pinkLockV2(NormalLock).sol\":39179:39195  _lockNormalToken */\n      tag_313\n        /* \"pinkLockV2(NormalLock).sol\":39179:39318  _lockNormalToken(\r... */\n      jump\t// in\n    tag_312:\n        /* \"pinkLockV2(NormalLock).sol\":39174:39318  id = _lockNormalToken(\r... */\n      swap1\n      pop\n        /* \"pinkLockV2(NormalLock).sol\":38967:39346  function _createLock(\r... */\n      swap6\n      swap5\n      pop\n      pop\n      pop\n      pop\n      pop\n      jump\t// out\n        /* \"pinkLockV2(NormalLock).sol\":44899:45430  function _safeTransferFromEnsureExactAmount(\r... */\n    tag_218:\n        /* \"pinkLockV2(NormalLock).sol\":45072:45099  uint256 oldRecipientBalance */\n      0x00\n        /* \"pinkLockV2(NormalLock).sol\":45109:45114  token */\n      dup5\n        /* \"pinkLockV2(NormalLock).sol\":45102:45125  IERC20(token).balanceOf */\n      0xffffffffffffffffffffffffffffffffffffffff\n      and\n      0x70a08231\n        /* \"pinkLockV2(NormalLock).sol\":45126:45135  recipient */\n      dup5\n        /* \"pinkLockV2(NormalLock).sol\":45102:45136  IERC20(token).balanceOf(recipient) */\n      mload(0x40)\n      dup3\n      0xffffffff\n      and\n      0xe0\n      shl\n      dup2\n      mstore\n      0x04\n      add\n      tag_315\n      swap2\n      swap1\n      tag_316\n      jump\t// in\n    tag_315:\n      0x20\n      mload(0x40)\n      dup1\n      dup4\n      sub\n      dup2\n      dup7\n      dup1\n      extcodesize\n      iszero\n      dup1\n      iszero\n      tag_317\n      jumpi\n      0x00\n      dup1\n      revert\n    tag_317:\n      pop\n      gas\n      staticcall\n      iszero\n      dup1\n      iszero\n      tag_319\n      jumpi\n      returndatasize\n      0x00\n      dup1\n      returndatacopy\n      revert(0x00, returndatasize)\n    tag_319:\n      pop\n      pop\n      pop\n      pop\n      mload(0x40)\n      returndatasize\n      not(0x1f)\n      0x1f\n      dup3\n      add\n      and\n      dup3\n      add\n      dup1\n      0x40\n      mstore\n      pop\n      dup2\n      add\n      swap1\n      tag_320\n      swap2\n      swap1\n      tag_321\n      jump\t// in\n    tag_320:\n        /* \"pinkLockV2(NormalLock).sol\":45072:45136  uint256 oldRecipientBalance = IERC20(token).balanceOf(recipient) */\n      swap1\n      pop\n        /* \"pinkLockV2(NormalLock).sol\":45147:45204  IERC20(token).safeTransferFrom(sender, recipient, amount) */\n      tag_322\n        /* \"pinkLockV2(NormalLock).sol\":45178:45184  sender */\n      dup5\n        /* \"pinkLockV2(NormalLock).sol\":45186:45195  recipient */\n      dup5\n        /* \"pinkLockV2(NormalLock).sol\":45197:45203  amount */\n      dup5\n        /* \"pinkLockV2(NormalLock).sol\":45154:45159  token */\n      dup9\n        /* \"pinkLockV2(NormalLock).sol\":45147:45177  IERC20(token).safeTransferFrom */\n      0xffffffffffffffffffffffffffffffffffffffff\n      and\n      tag_323\n      swap1\n        /* \"pinkLockV2(NormalLock).sol\":45147:45204  IERC20(token).safeTransferFrom(sender, recipient, amount) */\n      swap4\n      swap3\n      swap2\n      swap1\n      0xffffffff\n      and\n      jump\t// in\n    tag_322:\n        /* \"pinkLockV2(NormalLock).sol\":45215:45242  uint256 newRecipientBalance */\n      0x00\n        /* \"pinkLockV2(NormalLock).sol\":45252:45257  token */\n      dup6\n        /* \"pinkLockV2(NormalLock).sol\":45245:45268  IERC20(token).balanceOf */\n      0xffffffffffffffffffffffffffffffffffffffff\n      and\n      0x70a08231\n        /* \"pinkLockV2(NormalLock).sol\":45269:45278  recipient */\n      dup6\n        /* \"pinkLockV2(NormalLock).sol\":45245:45279  IERC20(token).balanceOf(recipient) */\n      mload(0x40)\n      dup3\n      0xffffffff\n      and\n      0xe0\n      shl\n      dup2\n      mstore\n      0x04\n      add\n      tag_324\n      swap2\n      swap1\n      tag_316\n      jump\t// in\n    tag_324:\n      0x20\n      mload(0x40)\n      dup1\n      dup4\n      sub\n      dup2\n      dup7\n      dup1\n      extcodesize\n      iszero\n      dup1\n      iszero\n      tag_325\n      jumpi\n      0x00\n      dup1\n      revert\n    tag_325:\n      pop\n      gas\n      staticcall\n      iszero\n      dup1\n      iszero\n      tag_327\n      jumpi\n      returndatasize\n      0x00\n      dup1\n      returndatacopy\n      revert(0x00, returndatasize)\n    tag_327:\n      pop\n      pop\n      pop\n      pop\n      mload(0x40)\n      returndatasize\n      not(0x1f)\n      0x1f\n      dup3\n      add\n      and\n      dup3\n      add\n      dup1\n      0x40\n      mstore\n      pop\n      dup2\n      add\n      swap1\n      tag_328\n      swap2\n      swap1\n      tag_321\n      jump\t// in\n    tag_328:\n        /* \"pinkLockV2(NormalLock).sol\":45215:45279  uint256 newRecipientBalance = IERC20(token).balanceOf(recipient) */\n      swap1\n      pop\n        /* \"pinkLockV2(NormalLock).sol\":45357:45363  amount */\n      dup3\n        /* \"pinkLockV2(NormalLock).sol\":45334:45353  oldRecipientBalance */\n      dup3\n        /* \"pinkLockV2(NormalLock).sol\":45312:45331  newRecipientBalance */\n      dup3\n        /* \"pinkLockV2(NormalLock).sol\":45312:45353  newRecipientBalance - oldRecipientBalance */\n      tag_329\n      swap2\n      swap1\n      tag_132\n      jump\t// in\n    tag_329:\n        /* \"pinkLockV2(NormalLock).sol\":45312:45363  newRecipientBalance - oldRecipientBalance == amount */\n      eq\n        /* \"pinkLockV2(NormalLock).sol\":45290:45422  require(\r... */\n      tag_330\n      jumpi\n      mload(0x40)\n      0x08c379a000000000000000000000000000000000000000000000000000000000\n      dup2\n      mstore\n      0x04\n      add\n      tag_331\n      swap1\n      tag_332\n      jump\t// in\n    tag_331:\n      mload(0x40)\n      dup1\n      swap2\n      sub\n      swap1\n      revert\n    tag_330:\n        /* \"pinkLockV2(NormalLock).sol\":44899:45430  function _safeTransferFromEnsureExactAmount(\r... */\n      pop\n      pop\n      pop\n      pop\n      pop\n      pop\n      jump\t// out\n        /* \"pinkLockV2(NormalLock).sol\":8641:8750  function _length(Set storage set) private view returns (uint256) {\r... */\n    tag_279:\n        /* \"pinkLockV2(NormalLock).sol\":8697:8704  uint256 */\n      0x00\n        /* \"pinkLockV2(NormalLock).sol\":8724:8727  set */\n      dup2\n        /* \"pinkLockV2(NormalLock).sol\":8724:8735  set._values */\n      0x00\n      add\n        /* \"pinkLockV2(NormalLock).sol\":8724:8742  set._values.length */\n      dup1\n      sload\n      swap1\n      pop\n        /* \"pinkLockV2(NormalLock).sol\":8717:8742  return set._values.length */\n      swap1\n      pop\n        /* \"pinkLockV2(NormalLock).sol\":8641:8750  function _length(Set storage set) private view returns (uint256) {\r... */\n      swap2\n      swap1\n      pop\n      jump\t// out\n        /* \"pinkLockV2(NormalLock).sol\":9104:9224  function _at(Set storage set, uint256 index) private view returns (bytes32) {\r... */\n    tag_282:\n        /* \"pinkLockV2(NormalLock).sol\":9171:9178  bytes32 */\n      0x00\n        /* \"pinkLockV2(NormalLock).sol\":9198:9201  set */\n      dup3\n        /* \"pinkLockV2(NormalLock).sol\":9198:9209  set._values */\n      0x00\n      add\n        /* \"pinkLockV2(NormalLock).sol\":9210:9215  index */\n      dup3\n        /* \"pinkLockV2(NormalLock).sol\":9198:9216  set._values[index] */\n      dup2\n      sload\n      dup2\n      lt\n      tag_335\n      jumpi\n      mstore(0x00, 0x4e487b7100000000000000000000000000000000000000000000000000000000)\n      mstore(0x04, 0x32)\n      revert(0x00, 0x24)\n    tag_335:\n      swap1\n      0x00\n      mstore\n      keccak256(0x00, 0x20)\n      add\n      sload\n        /* \"pinkLockV2(NormalLock).sol\":9191:9216  return set._values[index] */\n      swap1\n      pop\n        /* \"pinkLockV2(NormalLock).sol\":9104:9224  function _at(Set storage set, uint256 index) private view returns (bytes32) {\r... */\n      swap3\n      swap2\n      pop\n      pop\n      jump\t// out\n        /* \"pinkLockV2(NormalLock).sol\":6920:8340  function _remove(Set storage set, bytes32 value) private returns (bool) {\r... */\n    tag_287:\n        /* \"pinkLockV2(NormalLock).sol\":6986:6990  bool */\n      0x00\n        /* \"pinkLockV2(NormalLock).sol\":7104:7122  uint256 valueIndex */\n      dup1\n        /* \"pinkLockV2(NormalLock).sol\":7125:7128  set */\n      dup4\n        /* \"pinkLockV2(NormalLock).sol\":7125:7137  set._indexes */\n      0x01\n      add\n        /* \"pinkLockV2(NormalLock).sol\":7125:7144  set._indexes[value] */\n      0x00\n        /* \"pinkLockV2(NormalLock).sol\":7138:7143  value */\n      dup5\n        /* \"pinkLockV2(NormalLock).sol\":7125:7144  set._indexes[value] */\n      dup2\n      mstore\n      0x20\n      add\n      swap1\n      dup2\n      mstore\n      0x20\n      add\n      0x00\n      keccak256\n      sload\n        /* \"pinkLockV2(NormalLock).sol\":7104:7144  uint256 valueIndex = set._indexes[value] */\n      swap1\n      pop\n        /* \"pinkLockV2(NormalLock).sol\":7175:7176  0 */\n      0x00\n        /* \"pinkLockV2(NormalLock).sol\":7161:7171  valueIndex */\n      dup2\n        /* \"pinkLockV2(NormalLock).sol\":7161:7176  valueIndex != 0 */\n      eq\n        /* \"pinkLockV2(NormalLock).sol\":7157:8333  if (valueIndex != 0) {\r... */\n      tag_338\n      jumpi\n        /* \"pinkLockV2(NormalLock).sol\":7536:7557  uint256 toDeleteIndex */\n      0x00\n        /* \"pinkLockV2(NormalLock).sol\":7573:7574  1 */\n      0x01\n        /* \"pinkLockV2(NormalLock).sol\":7560:7570  valueIndex */\n      dup3\n        /* \"pinkLockV2(NormalLock).sol\":7560:7574  valueIndex - 1 */\n      tag_339\n      swap2\n      swap1\n      tag_132\n      jump\t// in\n    tag_339:\n        /* \"pinkLockV2(NormalLock).sol\":7536:7574  uint256 toDeleteIndex = valueIndex - 1 */\n      swap1\n      pop\n        /* \"pinkLockV2(NormalLock).sol\":7589:7606  uint256 lastIndex */\n      0x00\n        /* \"pinkLockV2(NormalLock).sol\":7630:7631  1 */\n      0x01\n        /* \"pinkLockV2(NormalLock).sol\":7609:7612  set */\n      dup7\n        /* \"pinkLockV2(NormalLock).sol\":7609:7620  set._values */\n      0x00\n      add\n        /* \"pinkLockV2(NormalLock).sol\":7609:7627  set._values.length */\n      dup1\n      sload\n      swap1\n      pop\n        /* \"pinkLockV2(NormalLock).sol\":7609:7631  set._values.length - 1 */\n      tag_340\n      swap2\n      swap1\n      tag_132\n      jump\t// in\n    tag_340:\n        /* \"pinkLockV2(NormalLock).sol\":7589:7631  uint256 lastIndex = set._values.length - 1 */\n      swap1\n      pop\n        /* \"pinkLockV2(NormalLock).sol\":7665:7678  toDeleteIndex */\n      dup2\n        /* \"pinkLockV2(NormalLock).sol\":7652:7661  lastIndex */\n      dup2\n        /* \"pinkLockV2(NormalLock).sol\":7652:7678  lastIndex != toDeleteIndex */\n      eq\n        /* \"pinkLockV2(NormalLock).sol\":7648:8053  if (lastIndex != toDeleteIndex) {\r... */\n      tag_341\n      jumpi\n        /* \"pinkLockV2(NormalLock).sol\":7699:7716  bytes32 lastValue */\n      0x00\n        /* \"pinkLockV2(NormalLock).sol\":7719:7722  set */\n      dup7\n        /* \"pinkLockV2(NormalLock).sol\":7719:7730  set._values */\n      0x00\n      add\n        /* \"pinkLockV2(NormalLock).sol\":7731:7740  lastIndex */\n      dup3\n        /* \"pinkLockV2(NormalLock).sol\":7719:7741  set._values[lastIndex] */\n      dup2\n      sload\n      dup2\n      lt\n      tag_342\n      jumpi\n      mstore(0x00, 0x4e487b7100000000000000000000000000000000000000000000000000000000)\n      mstore(0x04, 0x32)\n      revert(0x00, 0x24)\n    tag_342:\n      swap1\n      0x00\n      mstore\n      keccak256(0x00, 0x20)\n      add\n      sload\n        /* \"pinkLockV2(NormalLock).sol\":7699:7741  bytes32 lastValue = set._values[lastIndex] */\n      swap1\n      pop\n        /* \"pinkLockV2(NormalLock).sol\":7873:7882  lastValue */\n      dup1\n        /* \"pinkLockV2(NormalLock).sol\":7844:7847  set */\n      dup8\n        /* \"pinkLockV2(NormalLock).sol\":7844:7855  set._values */\n      0x00\n      add\n        /* \"pinkLockV2(NormalLock).sol\":7856:7869  toDeleteIndex */\n      dup5\n        /* \"pinkLockV2(NormalLock).sol\":7844:7870  set._values[toDeleteIndex] */\n      dup2\n      sload\n      dup2\n      lt\n      tag_344\n      jumpi\n      mstore(0x00, 0x4e487b7100000000000000000000000000000000000000000000000000000000)\n      mstore(0x04, 0x32)\n      revert(0x00, 0x24)\n    tag_344:\n      swap1\n      0x00\n      mstore\n      keccak256(0x00, 0x20)\n      add\n        /* \"pinkLockV2(NormalLock).sol\":7844:7882  set._values[toDeleteIndex] = lastValue */\n      dup2\n      swap1\n      sstore\n      pop\n        /* \"pinkLockV2(NormalLock).sol\":7984:7994  valueIndex */\n      dup4\n        /* \"pinkLockV2(NormalLock).sol\":7958:7961  set */\n      dup8\n        /* \"pinkLockV2(NormalLock).sol\":7958:7970  set._indexes */\n      0x01\n      add\n        /* \"pinkLockV2(NormalLock).sol\":7958:7981  set._indexes[lastValue] */\n      0x00\n        /* \"pinkLockV2(NormalLock).sol\":7971:7980  lastValue */\n      dup4\n        /* \"pinkLockV2(NormalLock).sol\":7958:7981  set._indexes[lastValue] */\n      dup2\n      mstore\n      0x20\n      add\n      swap1\n      dup2\n      mstore\n      0x20\n      add\n      0x00\n      keccak256\n        /* \"pinkLockV2(NormalLock).sol\":7958:7994  set._indexes[lastValue] = valueIndex */\n      dup2\n      swap1\n      sstore\n      pop\n        /* \"pinkLockV2(NormalLock).sol\":7648:8053  if (lastIndex != toDeleteIndex) {\r... */\n      pop\n    tag_341:\n        /* \"pinkLockV2(NormalLock).sol\":8134:8137  set */\n      dup6\n        /* \"pinkLockV2(NormalLock).sol\":8134:8145  set._values */\n      0x00\n      add\n        /* \"pinkLockV2(NormalLock).sol\":8134:8151  set._values.pop() */\n      dup1\n      sload\n      dup1\n      tag_346\n      jumpi\n      mstore(0x00, 0x4e487b7100000000000000000000000000000000000000000000000000000000)\n      mstore(0x04, 0x31)\n      revert(0x00, 0x24)\n    tag_346:\n      0x01\n      swap1\n      sub\n      dup2\n      dup2\n      swap1\n      0x00\n      mstore\n      keccak256(0x00, 0x20)\n      add\n      0x00\n      swap1\n      sstore\n      swap1\n      sstore\n        /* \"pinkLockV2(NormalLock).sol\":8229:8232  set */\n      dup6\n        /* \"pinkLockV2(NormalLock).sol\":8229:8241  set._indexes */\n      0x01\n      add\n        /* \"pinkLockV2(NormalLock).sol\":8229:8248  set._indexes[value] */\n      0x00\n        /* \"pinkLockV2(NormalLock).sol\":8242:8247  value */\n      dup7\n        /* \"pinkLockV2(NormalLock).sol\":8229:8248  set._indexes[value] */\n      dup2\n      mstore\n      0x20\n      add\n      swap1\n      dup2\n      mstore\n      0x20\n      add\n      0x00\n      keccak256\n        /* \"pinkLockV2(NormalLock).sol\":8222:8248  delete set._indexes[value] */\n      0x00\n      swap1\n      sstore\n        /* \"pinkLockV2(NormalLock).sol\":8272:8276  true */\n      0x01\n        /* \"pinkLockV2(NormalLock).sol\":8265:8276  return true */\n      swap4\n      pop\n      pop\n      pop\n      pop\n      jump(tag_337)\n        /* \"pinkLockV2(NormalLock).sol\":7157:8333  if (valueIndex != 0) {\r... */\n    tag_338:\n        /* \"pinkLockV2(NormalLock).sol\":8316:8321  false */\n      0x00\n        /* \"pinkLockV2(NormalLock).sol\":8309:8321  return false */\n      swap2\n      pop\n      pop\n        /* \"pinkLockV2(NormalLock).sol\":6920:8340  function _remove(Set storage set, bytes32 value) private returns (bool) {\r... */\n    tag_337:\n      swap3\n      swap2\n      pop\n      pop\n      jump\t// out\n        /* \"pinkLockV2(NormalLock).sol\":6330:6744  function _add(Set storage set, bytes32 value) private returns (bool) {\r... */\n    tag_290:\n        /* \"pinkLockV2(NormalLock).sol\":6393:6397  bool */\n      0x00\n        /* \"pinkLockV2(NormalLock).sol\":6415:6436  _contains(set, value) */\n      tag_350\n        /* \"pinkLockV2(NormalLock).sol\":6425:6428  set */\n      dup4\n        /* \"pinkLockV2(NormalLock).sol\":6430:6435  value */\n      dup4\n        /* \"pinkLockV2(NormalLock).sol\":6415:6424  _contains */\n      tag_351\n        /* \"pinkLockV2(NormalLock).sol\":6415:6436  _contains(set, value) */\n      jump\t// in\n    tag_350:\n        /* \"pinkLockV2(NormalLock).sol\":6410:6737  if (!_contains(set, value)) {\r... */\n      tag_352\n      jumpi\n        /* \"pinkLockV2(NormalLock).sol\":6453:6456  set */\n      dup3\n        /* \"pinkLockV2(NormalLock).sol\":6453:6464  set._values */\n      0x00\n      add\n        /* \"pinkLockV2(NormalLock).sol\":6470:6475  value */\n      dup3\n        /* \"pinkLockV2(NormalLock).sol\":6453:6476  set._values.push(value) */\n      swap1\n      dup1\n      0x01\n      dup2\n      sload\n      add\n      dup1\n      dup3\n      sstore\n      dup1\n      swap2\n      pop\n      pop\n      0x01\n      swap1\n      sub\n      swap1\n      0x00\n      mstore\n      keccak256(0x00, 0x20)\n      add\n      0x00\n      swap1\n      swap2\n      swap1\n      swap2\n      swap1\n      swap2\n      pop\n      sstore\n        /* \"pinkLockV2(NormalLock).sol\":6636:6639  set */\n      dup3\n        /* \"pinkLockV2(NormalLock).sol\":6636:6647  set._values */\n      0x00\n      add\n        /* \"pinkLockV2(NormalLock).sol\":6636:6654  set._values.length */\n      dup1\n      sload\n      swap1\n      pop\n        /* \"pinkLockV2(NormalLock).sol\":6614:6617  set */\n      dup4\n        /* \"pinkLockV2(NormalLock).sol\":6614:6626  set._indexes */\n      0x01\n      add\n        /* \"pinkLockV2(NormalLock).sol\":6614:6633  set._indexes[value] */\n      0x00\n        /* \"pinkLockV2(NormalLock).sol\":6627:6632  value */\n      dup5\n        /* \"pinkLockV2(NormalLock).sol\":6614:6633  set._indexes[value] */\n      dup2\n      mstore\n      0x20\n      add\n      swap1\n      dup2\n      mstore\n      0x20\n      add\n      0x00\n      keccak256\n        /* \"pinkLockV2(NormalLock).sol\":6614:6654  set._indexes[value] = set._values.length */\n      dup2\n      swap1\n      sstore\n      pop\n        /* \"pinkLockV2(NormalLock).sol\":6676:6680  true */\n      0x01\n        /* \"pinkLockV2(NormalLock).sol\":6669:6680  return true */\n      swap1\n      pop\n      jump(tag_349)\n        /* \"pinkLockV2(NormalLock).sol\":6410:6737  if (!_contains(set, value)) {\r... */\n    tag_352:\n        /* \"pinkLockV2(NormalLock).sol\":6720:6725  false */\n      0x00\n        /* \"pinkLockV2(NormalLock).sol\":6713:6725  return false */\n      swap1\n      pop\n        /* \"pinkLockV2(NormalLock).sol\":6330:6744  function _add(Set storage set, bytes32 value) private returns (bool) {\r... */\n    tag_349:\n      swap3\n      swap2\n      pop\n      pop\n      jump\t// out\n        /* \"pinkLockV2(NormalLock).sol\":12927:13085  function remove(AddressSet storage set, address value) internal returns (bool) {\r... */\n    tag_304:\n        /* \"pinkLockV2(NormalLock).sol\":13000:13004  bool */\n      0x00\n        /* \"pinkLockV2(NormalLock).sol\":13024:13077  _remove(set._inner, bytes32(uint256(uint160(value)))) */\n      tag_356\n        /* \"pinkLockV2(NormalLock).sol\":13032:13035  set */\n      dup4\n        /* \"pinkLockV2(NormalLock).sol\":13032:13042  set._inner */\n      0x00\n      add\n        /* \"pinkLockV2(NormalLock).sol\":13068:13073  value */\n      dup4\n        /* \"pinkLockV2(NormalLock).sol\":13052:13075  uint256(uint160(value)) */\n      0xffffffffffffffffffffffffffffffffffffffff\n      and\n        /* \"pinkLockV2(NormalLock).sol\":13044:13076  bytes32(uint256(uint160(value))) */\n      0x00\n      shl\n        /* \"pinkLockV2(NormalLock).sol\":13024:13031  _remove */\n      tag_287\n        /* \"pinkLockV2(NormalLock).sol\":13024:13077  _remove(set._inner, bytes32(uint256(uint160(value)))) */\n      jump\t// in\n    tag_356:\n        /* \"pinkLockV2(NormalLock).sol\":13017:13077  return _remove(set._inner, bytes32(uint256(uint160(value)))) */\n      swap1\n      pop\n        /* \"pinkLockV2(NormalLock).sol\":12927:13085  function remove(AddressSet storage set, address value) internal returns (bool) {\r... */\n      swap3\n      swap2\n      pop\n      pop\n      jump\t// out\n        /* \"pinkLockV2(NormalLock).sol\":32790:33001  function safeTransfer(\r... */\n    tag_307:\n        /* \"pinkLockV2(NormalLock).sol\":32907:32993  _callOptionalReturn(token, abi.encodeWithSelector(token.transfer.selector, to, value)) */\n      tag_358\n        /* \"pinkLockV2(NormalLock).sol\":32927:32932  token */\n      dup4\n        /* \"pinkLockV2(NormalLock).sol\":32957:32980  token.transfer.selector */\n      shl(0xe0, 0xa9059cbb)\n        /* \"pinkLockV2(NormalLock).sol\":32982:32984  to */\n      dup5\n        /* \"pinkLockV2(NormalLock).sol\":32986:32991  value */\n      dup5\n        /* \"pinkLockV2(NormalLock).sol\":32934:32992  abi.encodeWithSelector(token.transfer.selector, to, value) */\n      add(0x24, mload(0x40))\n      tag_359\n      swap3\n      swap2\n      swap1\n      tag_96\n      jump\t// in\n    tag_359:\n      mload(0x40)\n      0x20\n      dup2\n      dup4\n      sub\n      sub\n      dup2\n      mstore\n      swap1\n      0x40\n      mstore\n      swap1\n      not(0xffffffffffffffffffffffffffffffffffffffffffffffffffffffff)\n      and\n      0x20\n      dup3\n      add\n      dup1\n      mload\n      0xffffffffffffffffffffffffffffffffffffffffffffffffffffffff\n      dup4\n      dup2\n      dup4\n      and\n      or\n      dup4\n      mstore\n      pop\n      pop\n      pop\n      pop\n        /* \"pinkLockV2(NormalLock).sol\":32907:32926  _callOptionalReturn */\n      tag_360\n        /* \"pinkLockV2(NormalLock).sol\":32907:32993  _callOptionalReturn(token, abi.encodeWithSelector(token.transfer.selector, to, value)) */\n      jump\t// in\n    tag_358:\n        /* \"pinkLockV2(NormalLock).sol\":32790:33001  function safeTransfer(\r... */\n      pop\n      pop\n      pop\n      jump\t// out\n        /* \"pinkLockV2(NormalLock).sol\":39354:40069  function _lockNormalToken(\r... */\n    tag_313:\n        /* \"pinkLockV2(NormalLock).sol\":39542:39552  uint256 id */\n      0x00\n        /* \"pinkLockV2(NormalLock).sol\":39570:39706  _registerLock(\r... */\n      tag_362\n        /* \"pinkLockV2(NormalLock).sol\":39598:39603  owner */\n      dup7\n        /* \"pinkLockV2(NormalLock).sol\":39618:39623  token */\n      dup7\n        /* \"pinkLockV2(NormalLock).sol\":39638:39644  amount */\n      dup7\n        /* \"pinkLockV2(NormalLock).sol\":39659:39669  unlockDate */\n      dup7\n        /* \"pinkLockV2(NormalLock).sol\":39684:39695  description */\n      dup7\n        /* \"pinkLockV2(NormalLock).sol\":39570:39583  _registerLock */\n      tag_363\n        /* \"pinkLockV2(NormalLock).sol\":39570:39706  _registerLock(\r... */\n      jump\t// in\n    tag_362:\n        /* \"pinkLockV2(NormalLock).sol\":39565:39706  id = _registerLock(\r... */\n      swap1\n      pop\n        /* \"pinkLockV2(NormalLock).sol\":39717:39750  _userNormalLockIds[owner].add(id) */\n      tag_364\n        /* \"pinkLockV2(NormalLock).sol\":39747:39749  id */\n      dup2\n        /* \"pinkLockV2(NormalLock).sol\":39717:39735  _userNormalLockIds */\n      0x02\n        /* \"pinkLockV2(NormalLock).sol\":39717:39742  _userNormalLockIds[owner] */\n      0x00\n        /* \"pinkLockV2(NormalLock).sol\":39736:39741  owner */\n      dup10\n        /* \"pinkLockV2(NormalLock).sol\":39717:39742  _userNormalLockIds[owner] */\n      0xffffffffffffffffffffffffffffffffffffffff\n      and\n      0xffffffffffffffffffffffffffffffffffffffff\n      and\n      dup2\n      mstore\n      0x20\n      add\n      swap1\n      dup2\n      mstore\n      0x20\n      add\n      0x00\n      keccak256\n        /* \"pinkLockV2(NormalLock).sol\":39717:39746  _userNormalLockIds[owner].add */\n      tag_164\n      swap1\n        /* \"pinkLockV2(NormalLock).sol\":39717:39750  _userNormalLockIds[owner].add(id) */\n      swap2\n      swap1\n      0xffffffff\n      and\n      jump\t// in\n    tag_364:\n      pop\n        /* \"pinkLockV2(NormalLock).sol\":39761:39791  _normalLockedTokens.add(token) */\n      tag_365\n        /* \"pinkLockV2(NormalLock).sol\":39785:39790  token */\n      dup6\n        /* \"pinkLockV2(NormalLock).sol\":39761:39780  _normalLockedTokens */\n      0x03\n        /* \"pinkLockV2(NormalLock).sol\":39761:39784  _normalLockedTokens.add */\n      tag_366\n      swap1\n        /* \"pinkLockV2(NormalLock).sol\":39761:39791  _normalLockedTokens.add(token) */\n      swap2\n      swap1\n      0xffffffff\n      and\n      jump\t// in\n    tag_365:\n      pop\n        /* \"pinkLockV2(NormalLock).sol\":39804:39840  CumulativeLockInfo storage tokenInfo */\n      0x00\n        /* \"pinkLockV2(NormalLock).sol\":39843:39861  cumulativeLockInfo */\n      0x05\n        /* \"pinkLockV2(NormalLock).sol\":39843:39868  cumulativeLockInfo[token] */\n      0x00\n        /* \"pinkLockV2(NormalLock).sol\":39862:39867  token */\n      dup8\n        /* \"pinkLockV2(NormalLock).sol\":39843:39868  cumulativeLockInfo[token] */\n      0xffffffffffffffffffffffffffffffffffffffff\n      and\n      0xffffffffffffffffffffffffffffffffffffffff\n      and\n      dup2\n      mstore\n      0x20\n      add\n      swap1\n      dup2\n      mstore\n      0x20\n      add\n      0x00\n      keccak256\n        /* \"pinkLockV2(NormalLock).sol\":39804:39868  CumulativeLockInfo storage tokenInfo = cumulativeLockInfo[token] */\n      swap1\n      pop\n        /* \"pinkLockV2(NormalLock).sol\":39910:39911  0 */\n      0x00\n        /* \"pinkLockV2(NormalLock).sol\":39883:39912  tokenInfo.token == address(0) */\n      0xffffffffffffffffffffffffffffffffffffffff\n      and\n        /* \"pinkLockV2(NormalLock).sol\":39883:39892  tokenInfo */\n      dup2\n        /* \"pinkLockV2(NormalLock).sol\":39883:39898  tokenInfo.token */\n      0x00\n      add\n      0x00\n      swap1\n      sload\n      swap1\n      0x0100\n      exp\n      swap1\n      div\n      0xffffffffffffffffffffffffffffffffffffffff\n      and\n        /* \"pinkLockV2(NormalLock).sol\":39883:39912  tokenInfo.token == address(0) */\n      0xffffffffffffffffffffffffffffffffffffffff\n      and\n      eq\n        /* \"pinkLockV2(NormalLock).sol\":39879:39964  if (tokenInfo.token == address(0)) {\r... */\n      iszero\n      tag_367\n      jumpi\n        /* \"pinkLockV2(NormalLock).sol\":39947:39952  token */\n      dup6\n        /* \"pinkLockV2(NormalLock).sol\":39929:39938  tokenInfo */\n      dup2\n        /* \"pinkLockV2(NormalLock).sol\":39929:39944  tokenInfo.token */\n      0x00\n      add\n      0x00\n        /* \"pinkLockV2(NormalLock).sol\":39929:39952  tokenInfo.token = token */\n      0x0100\n      exp\n      dup2\n      sload\n      dup2\n      0xffffffffffffffffffffffffffffffffffffffff\n      mul\n      not\n      and\n      swap1\n      dup4\n      0xffffffffffffffffffffffffffffffffffffffff\n      and\n      mul\n      or\n      swap1\n      sstore\n      pop\n        /* \"pinkLockV2(NormalLock).sol\":39879:39964  if (tokenInfo.token == address(0)) {\r... */\n    tag_367:\n        /* \"pinkLockV2(NormalLock).sol\":40012:40018  amount */\n      dup5\n        /* \"pinkLockV2(NormalLock).sol\":39993:40002  tokenInfo */\n      dup2\n        /* \"pinkLockV2(NormalLock).sol\":39993:40009  tokenInfo.amount */\n      0x01\n      add\n      sload\n        /* \"pinkLockV2(NormalLock).sol\":39993:40018  tokenInfo.amount + amount */\n      tag_368\n      swap2\n      swap1\n      tag_135\n      jump\t// in\n    tag_368:\n        /* \"pinkLockV2(NormalLock).sol\":39974:39983  tokenInfo */\n      dup2\n        /* \"pinkLockV2(NormalLock).sol\":39974:39990  tokenInfo.amount */\n      0x01\n      add\n        /* \"pinkLockV2(NormalLock).sol\":39974:40018  tokenInfo.amount = tokenInfo.amount + amount */\n      dup2\n      swap1\n      sstore\n      pop\n        /* \"pinkLockV2(NormalLock).sol\":40031:40061  _tokenToLockIds[token].add(id) */\n      tag_369\n        /* \"pinkLockV2(NormalLock).sol\":40058:40060  id */\n      dup3\n        /* \"pinkLockV2(NormalLock).sol\":40031:40046  _tokenToLockIds */\n      0x06\n        /* \"pinkLockV2(NormalLock).sol\":40031:40053  _tokenToLockIds[token] */\n      0x00\n        /* \"pinkLockV2(NormalLock).sol\":40047:40052  token */\n      dup10\n        /* \"pinkLockV2(NormalLock).sol\":40031:40053  _tokenToLockIds[token] */\n      0xffffffffffffffffffffffffffffffffffffffff\n      and\n      0xffffffffffffffffffffffffffffffffffffffff\n      and\n      dup2\n      mstore\n      0x20\n      add\n      swap1\n      dup2\n      mstore\n      0x20\n      add\n      0x00\n      keccak256\n        /* \"pinkLockV2(NormalLock).sol\":40031:40057  _tokenToLockIds[token].add */\n      tag_164\n      swap1\n        /* \"pinkLockV2(NormalLock).sol\":40031:40061  _tokenToLockIds[token].add(id) */\n      swap2\n      swap1\n      0xffffffff\n      and\n      jump\t// in\n    tag_369:\n      pop\n        /* \"pinkLockV2(NormalLock).sol\":39354:40069  function _lockNormalToken(\r... */\n      pop\n      swap6\n      swap5\n      pop\n      pop\n      pop\n      pop\n      pop\n      jump\t// out\n        /* \"pinkLockV2(NormalLock).sol\":33009:33257  function safeTransferFrom(\r... */\n    tag_323:\n        /* \"pinkLockV2(NormalLock).sol\":33153:33249  _callOptionalReturn(token, abi.encodeWithSelector(token.transferFrom.selector, from, to, value)) */\n      tag_371\n        /* \"pinkLockV2(NormalLock).sol\":33173:33178  token */\n      dup5\n        /* \"pinkLockV2(NormalLock).sol\":33203:33230  token.transferFrom.selector */\n      shl(0xe0, 0x23b872dd)\n        /* \"pinkLockV2(NormalLock).sol\":33232:33236  from */\n      dup6\n        /* \"pinkLockV2(NormalLock).sol\":33238:33240  to */\n      dup6\n        /* \"pinkLockV2(NormalLock).sol\":33242:33247  value */\n      dup6\n        /* \"pinkLockV2(NormalLock).sol\":33180:33248  abi.encodeWithSelector(token.transferFrom.selector, from, to, value) */\n      add(0x24, mload(0x40))\n      tag_372\n      swap4\n      swap3\n      swap2\n      swap1\n      tag_373\n      jump\t// in\n    tag_372:\n      mload(0x40)\n      0x20\n      dup2\n      dup4\n      sub\n      sub\n      dup2\n      mstore\n      swap1\n      0x40\n      mstore\n      swap1\n      not(0xffffffffffffffffffffffffffffffffffffffffffffffffffffffff)\n      and\n      0x20\n      dup3\n      add\n      dup1\n      mload\n      0xffffffffffffffffffffffffffffffffffffffffffffffffffffffff\n      dup4\n      dup2\n      dup4\n      and\n      or\n      dup4\n      mstore\n      pop\n      pop\n      pop\n      pop\n        /* \"pinkLockV2(NormalLock).sol\":33153:33172  _callOptionalReturn */\n      tag_360\n        /* \"pinkLockV2(NormalLock).sol\":33153:33249  _callOptionalReturn(token, abi.encodeWithSelector(token.transferFrom.selector, from, to, value)) */\n      jump\t// in\n    tag_371:\n        /* \"pinkLockV2(NormalLock).sol\":33009:33257  function safeTransferFrom(\r... */\n      pop\n      pop\n      pop\n      pop\n      jump\t// out\n        /* \"pinkLockV2(NormalLock).sol\":8426:8555  function _contains(Set storage set, bytes32 value) private view returns (bool) {\r... */\n    tag_351:\n        /* \"pinkLockV2(NormalLock).sol\":8499:8503  bool */\n      0x00\n        /* \"pinkLockV2(NormalLock).sol\":8546:8547  0 */\n      dup1\n        /* \"pinkLockV2(NormalLock).sol\":8523:8526  set */\n      dup4\n        /* \"pinkLockV2(NormalLock).sol\":8523:8535  set._indexes */\n      0x01\n      add\n        /* \"pinkLockV2(NormalLock).sol\":8523:8542  set._indexes[value] */\n      0x00\n        /* \"pinkLockV2(NormalLock).sol\":8536:8541  value */\n      dup5\n        /* \"pinkLockV2(NormalLock).sol\":8523:8542  set._indexes[value] */\n      dup2\n      mstore\n      0x20\n      add\n      swap1\n      dup2\n      mstore\n      0x20\n      add\n      0x00\n      keccak256\n      sload\n        /* \"pinkLockV2(NormalLock).sol\":8523:8547  set._indexes[value] != 0 */\n      eq\n      iszero\n        /* \"pinkLockV2(NormalLock).sol\":8516:8547  return set._indexes[value] != 0 */\n      swap1\n      pop\n        /* \"pinkLockV2(NormalLock).sol\":8426:8555  function _contains(Set storage set, bytes32 value) private view returns (bool) {\r... */\n      swap3\n      swap2\n      pop\n      pop\n      jump\t// out\n        /* \"pinkLockV2(NormalLock).sol\":35857:36573  function _callOptionalReturn(IERC20 token, bytes memory data) private {\r... */\n    tag_360:\n        /* \"pinkLockV2(NormalLock).sol\":36281:36304  bytes memory returndata */\n      0x00\n        /* \"pinkLockV2(NormalLock).sol\":36307:36376  address(token).functionCall(data, \"SafeERC20: low-level call failed\") */\n      tag_376\n        /* \"pinkLockV2(NormalLock).sol\":36335:36339  data */\n      dup3\n        /* \"pinkLockV2(NormalLock).sol\":36307:36376  address(token).functionCall(data, \"SafeERC20: low-level call failed\") */\n      mload(0x40)\n      dup1\n      0x40\n      add\n      0x40\n      mstore\n      dup1\n      0x20\n      dup2\n      mstore\n      0x20\n      add\n      0x5361666545524332303a206c6f772d6c6576656c2063616c6c206661696c6564\n      dup2\n      mstore\n      pop\n        /* \"pinkLockV2(NormalLock).sol\":36315:36320  token */\n      dup6\n        /* \"pinkLockV2(NormalLock).sol\":36307:36334  address(token).functionCall */\n      0xffffffffffffffffffffffffffffffffffffffff\n      and\n      tag_377\n      swap1\n        /* \"pinkLockV2(NormalLock).sol\":36307:36376  address(token).functionCall(data, \"SafeERC20: low-level call failed\") */\n      swap3\n      swap2\n      swap1\n      0xffffffff\n      and\n      jump\t// in\n    tag_376:\n        /* \"pinkLockV2(NormalLock).sol\":36281:36376  bytes memory returndata = address(token).functionCall(data, \"SafeERC20: low-level call failed\") */\n      swap1\n      pop\n        /* \"pinkLockV2(NormalLock).sol\":36411:36412  0 */\n      0x00\n        /* \"pinkLockV2(NormalLock).sol\":36391:36401  returndata */\n      dup2\n        /* \"pinkLockV2(NormalLock).sol\":36391:36408  returndata.length */\n      mload\n        /* \"pinkLockV2(NormalLock).sol\":36391:36412  returndata.length > 0 */\n      gt\n        /* \"pinkLockV2(NormalLock).sol\":36387:36566  if (returndata.length > 0) {\r... */\n      iszero\n      tag_378\n      jumpi\n        /* \"pinkLockV2(NormalLock).sol\":36488:36498  returndata */\n      dup1\n        /* \"pinkLockV2(NormalLock).sol\":36477:36507  abi.decode(returndata, (bool)) */\n      dup1\n      0x20\n      add\n      swap1\n      mload\n      dup2\n      add\n      swap1\n      tag_379\n      swap2\n      swap1\n      tag_380\n      jump\t// in\n    tag_379:\n        /* \"pinkLockV2(NormalLock).sol\":36469:36554  require(abi.decode(returndata, (bool)), \"SafeERC20: ERC20 operation did not succeed\") */\n      tag_381\n      jumpi\n      mload(0x40)\n      0x08c379a000000000000000000000000000000000000000000000000000000000\n      dup2\n      mstore\n      0x04\n      add\n      tag_382\n      swap1\n      tag_383\n      jump\t// in\n    tag_382:\n      mload(0x40)\n      dup1\n      swap2\n      sub\n      swap1\n      revert\n    tag_381:\n        /* \"pinkLockV2(NormalLock).sol\":36387:36566  if (returndata.length > 0) {\r... */\n    tag_378:\n        /* \"pinkLockV2(NormalLock).sol\":35857:36573  function _callOptionalReturn(IERC20 token, bytes memory data) private {\r... */\n      pop\n      pop\n      pop\n      jump\t// out\n        /* \"pinkLockV2(NormalLock).sol\":40077:40658  function _registerLock(\r... */\n    tag_363:\n        /* \"pinkLockV2(NormalLock).sol\":40276:40286  uint256 id */\n      0x00\n        /* \"pinkLockV2(NormalLock).sol\":2643:2662  _requireNotPaused() */\n      tag_385\n        /* \"pinkLockV2(NormalLock).sol\":2643:2660  _requireNotPaused */\n      tag_386\n        /* \"pinkLockV2(NormalLock).sol\":2643:2662  _requireNotPaused() */\n      jump\t// in\n    tag_385:\n        /* \"pinkLockV2(NormalLock).sol\":40304:40310  _locks */\n      0x01\n        /* \"pinkLockV2(NormalLock).sol\":40304:40317  _locks.length */\n      dup1\n      sload\n      swap1\n      pop\n        /* \"pinkLockV2(NormalLock).sol\":40299:40317  id = _locks.length */\n      swap1\n      pop\n        /* \"pinkLockV2(NormalLock).sol\":40328:40347  Lock memory newLock */\n      0x00\n        /* \"pinkLockV2(NormalLock).sol\":40350:40619  Lock({\r... */\n      mload(0x40)\n      dup1\n      0x0100\n      add\n      0x40\n      mstore\n      dup1\n        /* \"pinkLockV2(NormalLock).sol\":40374:40376  id */\n      dup4\n        /* \"pinkLockV2(NormalLock).sol\":40350:40619  Lock({\r... */\n      dup2\n      mstore\n      0x20\n      add\n        /* \"pinkLockV2(NormalLock).sol\":40398:40403  token */\n      dup8\n        /* \"pinkLockV2(NormalLock).sol\":40350:40619  Lock({\r... */\n      0xffffffffffffffffffffffffffffffffffffffff\n      and\n      dup2\n      mstore\n      0x20\n      add\n        /* \"pinkLockV2(NormalLock).sol\":40425:40430  owner */\n      dup9\n        /* \"pinkLockV2(NormalLock).sol\":40350:40619  Lock({\r... */\n      0xffffffffffffffffffffffffffffffffffffffff\n      and\n      dup2\n      mstore\n      0x20\n      add\n        /* \"pinkLockV2(NormalLock).sol\":40453:40459  amount */\n      dup7\n        /* \"pinkLockV2(NormalLock).sol\":40350:40619  Lock({\r... */\n      dup2\n      mstore\n      0x20\n      add\n        /* \"pinkLockV2(NormalLock).sol\":40484:40499  block.timestamp */\n      timestamp\n        /* \"pinkLockV2(NormalLock).sol\":40350:40619  Lock({\r... */\n      dup2\n      mstore\n      0x20\n      add\n        /* \"pinkLockV2(NormalLock).sol\":40526:40536  unlockDate */\n      dup6\n        /* \"pinkLockV2(NormalLock).sol\":40350:40619  Lock({\r... */\n      dup2\n      mstore\n      0x20\n      add\n        /* \"pinkLockV2(NormalLock).sol\":40567:40568  0 */\n      0x00\n        /* \"pinkLockV2(NormalLock).sol\":40350:40619  Lock({\r... */\n      dup2\n      mstore\n      0x20\n      add\n        /* \"pinkLockV2(NormalLock).sol\":40596:40607  description */\n      dup5\n        /* \"pinkLockV2(NormalLock).sol\":40350:40619  Lock({\r... */\n      dup2\n      mstore\n      pop\n        /* \"pinkLockV2(NormalLock).sol\":40328:40619  Lock memory newLock = Lock({\r... */\n      swap1\n      pop\n        /* \"pinkLockV2(NormalLock).sol\":40630:40636  _locks */\n      0x01\n        /* \"pinkLockV2(NormalLock).sol\":40642:40649  newLock */\n      dup2\n        /* \"pinkLockV2(NormalLock).sol\":40630:40650  _locks.push(newLock) */\n      swap1\n      dup1\n      0x01\n      dup2\n      sload\n      add\n      dup1\n      dup3\n      sstore\n      dup1\n      swap2\n      pop\n      pop\n      0x01\n      swap1\n      sub\n      swap1\n      0x00\n      mstore\n      keccak256(0x00, 0x20)\n      swap1\n      0x08\n      mul\n      add\n      0x00\n      swap1\n      swap2\n      swap1\n      swap2\n      swap1\n      swap2\n      pop\n      0x00\n      dup3\n      add\n      mload\n      dup2\n      0x00\n      add\n      sstore\n      0x20\n      dup3\n      add\n      mload\n      dup2\n      0x01\n      add\n      exp(0x0100, 0x00)\n      dup2\n      sload\n      dup2\n      0xffffffffffffffffffffffffffffffffffffffff\n      mul\n      not\n      and\n      swap1\n      dup4\n      0xffffffffffffffffffffffffffffffffffffffff\n      and\n      mul\n      or\n      swap1\n      sstore\n      pop\n      0x40\n      dup3\n      add\n      mload\n      dup2\n      0x02\n      add\n      exp(0x0100, 0x00)\n      dup2\n      sload\n      dup2\n      0xffffffffffffffffffffffffffffffffffffffff\n      mul\n      not\n      and\n      swap1\n      dup4\n      0xffffffffffffffffffffffffffffffffffffffff\n      and\n      mul\n      or\n      swap1\n      sstore\n      pop\n      0x60\n      dup3\n      add\n      mload\n      dup2\n      0x03\n      add\n      sstore\n      0x80\n      dup3\n      add\n      mload\n      dup2\n      0x04\n      add\n      sstore\n      0xa0\n      dup3\n      add\n      mload\n      dup2\n      0x05\n      add\n      sstore\n      0xc0\n      dup3\n      add\n      mload\n      dup2\n      0x06\n      add\n      sstore\n      0xe0\n      dup3\n      add\n      mload\n      dup2\n      0x07\n      add\n      swap1\n      dup1\n      mload\n      swap1\n      0x20\n      add\n      swap1\n      tag_389\n      swap3\n      swap2\n      swap1\n      tag_255\n      jump\t// in\n    tag_389:\n      pop\n      pop\n      pop\n        /* \"pinkLockV2(NormalLock).sol\":2673:2674  _ */\n      pop\n        /* \"pinkLockV2(NormalLock).sol\":40077:40658  function _registerLock(\r... */\n      swap6\n      swap5\n      pop\n      pop\n      pop\n      pop\n      pop\n      jump\t// out\n        /* \"pinkLockV2(NormalLock).sol\":12599:12751  function add(AddressSet storage set, address value) internal returns (bool) {\r... */\n    tag_366:\n        /* \"pinkLockV2(NormalLock).sol\":12669:12673  bool */\n      0x00\n        /* \"pinkLockV2(NormalLock).sol\":12693:12743  _add(set._inner, bytes32(uint256(uint160(value)))) */\n      tag_391\n        /* \"pinkLockV2(NormalLock).sol\":12698:12701  set */\n      dup4\n        /* \"pinkLockV2(NormalLock).sol\":12698:12708  set._inner */\n      0x00\n      add\n        /* \"pinkLockV2(NormalLock).sol\":12734:12739  value */\n      dup4\n        /* \"pinkLockV2(NormalLock).sol\":12718:12741  uint256(uint160(value)) */\n      0xffffffffffffffffffffffffffffffffffffffff\n      and\n        /* \"pinkLockV2(NormalLock).sol\":12710:12742  bytes32(uint256(uint160(value))) */\n      0x00\n      shl\n        /* \"pinkLockV2(NormalLock).sol\":12693:12697  _add */\n      tag_290\n        /* \"pinkLockV2(NormalLock).sol\":12693:12743  _add(set._inner, bytes32(uint256(uint160(value)))) */\n      jump\t// in\n    tag_391:\n        /* \"pinkLockV2(NormalLock).sol\":12686:12743  return _add(set._inner, bytes32(uint256(uint160(value)))) */\n      swap1\n      pop\n        /* \"pinkLockV2(NormalLock).sol\":12599:12751  function add(AddressSet storage set, address value) internal returns (bool) {\r... */\n      swap3\n      swap2\n      pop\n      pop\n      jump\t// out\n        /* \"pinkLockV2(NormalLock).sol\":26635:26864  function functionCall(\r... */\n    tag_377:\n        /* \"pinkLockV2(NormalLock).sol\":26772:26784  bytes memory */\n      0x60\n        /* \"pinkLockV2(NormalLock).sol\":26804:26856  functionCallWithValue(target, data, 0, errorMessage) */\n      tag_393\n        /* \"pinkLockV2(NormalLock).sol\":26826:26832  target */\n      dup5\n        /* \"pinkLockV2(NormalLock).sol\":26834:26838  data */\n      dup5\n        /* \"pinkLockV2(NormalLock).sol\":26840:26841  0 */\n      0x00\n        /* \"pinkLockV2(NormalLock).sol\":26843:26855  errorMessage */\n      dup6\n        /* \"pinkLockV2(NormalLock).sol\":26804:26825  functionCallWithValue */\n      tag_394\n        /* \"pinkLockV2(NormalLock).sol\":26804:26856  functionCallWithValue(target, data, 0, errorMessage) */\n      jump\t// in\n    tag_393:\n        /* \"pinkLockV2(NormalLock).sol\":26797:26856  return functionCallWithValue(target, data, 0, errorMessage) */\n      swap1\n      pop\n        /* \"pinkLockV2(NormalLock).sol\":26635:26864  function functionCall(\r... */\n      swap4\n      swap3\n      pop\n      pop\n      pop\n      jump\t// out\n        /* \"pinkLockV2(NormalLock).sol\":3197:3305  function _requireNotPaused() internal view virtual {\r... */\n    tag_386:\n        /* \"pinkLockV2(NormalLock).sol\":3268:3276  paused() */\n      tag_396\n        /* \"pinkLockV2(NormalLock).sol\":3268:3274  paused */\n      tag_49\n        /* \"pinkLockV2(NormalLock).sol\":3268:3276  paused() */\n      jump\t// in\n    tag_396:\n        /* \"pinkLockV2(NormalLock).sol\":3267:3276  !paused() */\n      iszero\n        /* \"pinkLockV2(NormalLock).sol\":3259:3297  require(!paused(), \"Pausable: paused\") */\n      tag_397\n      jumpi\n      mload(0x40)\n      0x08c379a000000000000000000000000000000000000000000000000000000000\n      dup2\n      mstore\n      0x04\n      add\n      tag_398\n      swap1\n      tag_399\n      jump\t// in\n    tag_398:\n      mload(0x40)\n      dup1\n      swap2\n      sub\n      swap1\n      revert\n    tag_397:\n        /* \"pinkLockV2(NormalLock).sol\":3197:3305  function _requireNotPaused() internal view virtual {\r... */\n      jump\t// out\n        /* \"pinkLockV2(NormalLock).sol\":27755:28210  function functionCallWithValue(\r... */\n    tag_394:\n        /* \"pinkLockV2(NormalLock).sol\":27925:27937  bytes memory */\n      0x60\n        /* \"pinkLockV2(NormalLock).sol\":27983:27988  value */\n      dup3\n        /* \"pinkLockV2(NormalLock).sol\":27958:27979  address(this).balance */\n      selfbalance\n        /* \"pinkLockV2(NormalLock).sol\":27958:27988  address(this).balance >= value */\n      lt\n      iszero\n        /* \"pinkLockV2(NormalLock).sol\":27950:28031  require(address(this).balance >= value, \"Address: insufficient balance for call\") */\n      tag_401\n      jumpi\n      mload(0x40)\n      0x08c379a000000000000000000000000000000000000000000000000000000000\n      dup2\n      mstore\n      0x04\n      add\n      tag_402\n      swap1\n      tag_403\n      jump\t// in\n    tag_402:\n      mload(0x40)\n      dup1\n      swap2\n      sub\n      swap1\n      revert\n    tag_401:\n        /* \"pinkLockV2(NormalLock).sol\":28043:28055  bool success */\n      0x00\n        /* \"pinkLockV2(NormalLock).sol\":28057:28080  bytes memory returndata */\n      dup1\n        /* \"pinkLockV2(NormalLock).sol\":28084:28090  target */\n      dup7\n        /* \"pinkLockV2(NormalLock).sol\":28084:28095  target.call */\n      0xffffffffffffffffffffffffffffffffffffffff\n      and\n        /* \"pinkLockV2(NormalLock).sol\":28103:28108  value */\n      dup6\n        /* \"pinkLockV2(NormalLock).sol\":28110:28114  data */\n      dup8\n        /* \"pinkLockV2(NormalLock).sol\":28084:28115  target.call{value: value}(data) */\n      mload(0x40)\n      tag_404\n      swap2\n      swap1\n      tag_405\n      jump\t// in\n    tag_404:\n      0x00\n      mload(0x40)\n      dup1\n      dup4\n      sub\n      dup2\n      dup6\n      dup8\n      gas\n      call\n      swap3\n      pop\n      pop\n      pop\n      returndatasize\n      dup1\n      0x00\n      dup2\n      eq\n      tag_408\n      jumpi\n      mload(0x40)\n      swap2\n      pop\n      and(add(returndatasize, 0x3f), not(0x1f))\n      dup3\n      add\n      0x40\n      mstore\n      returndatasize\n      dup3\n      mstore\n      returndatasize\n      0x00\n      0x20\n      dup5\n      add\n      returndatacopy\n      jump(tag_407)\n    tag_408:\n      0x60\n      swap2\n      pop\n    tag_407:\n      pop\n        /* \"pinkLockV2(NormalLock).sol\":28042:28115  (bool success, bytes memory returndata) = target.call{value: value}(data) */\n      swap2\n      pop\n      swap2\n      pop\n        /* \"pinkLockV2(NormalLock).sol\":28133:28202  verifyCallResultFromTarget(target, success, returndata, errorMessage) */\n      tag_409\n        /* \"pinkLockV2(NormalLock).sol\":28160:28166  target */\n      dup8\n        /* \"pinkLockV2(NormalLock).sol\":28168:28175  success */\n      dup4\n        /* \"pinkLockV2(NormalLock).sol\":28177:28187  returndata */\n      dup4\n        /* \"pinkLockV2(NormalLock).sol\":28189:28201  errorMessage */\n      dup8\n        /* \"pinkLockV2(NormalLock).sol\":28133:28159  verifyCallResultFromTarget */\n      tag_410\n        /* \"pinkLockV2(NormalLock).sol\":28133:28202  verifyCallResultFromTarget(target, success, returndata, errorMessage) */\n      jump\t// in\n    tag_409:\n        /* \"pinkLockV2(NormalLock).sol\":28126:28202  return verifyCallResultFromTarget(target, success, returndata, errorMessage) */\n      swap3\n      pop\n      pop\n      pop\n        /* \"pinkLockV2(NormalLock).sol\":27755:28210  function functionCallWithValue(\r... */\n      swap5\n      swap4\n      pop\n      pop\n      pop\n      pop\n      jump\t// out\n        /* \"pinkLockV2(NormalLock).sol\":30328:30972  function verifyCallResultFromTarget(\r... */\n    tag_410:\n        /* \"pinkLockV2(NormalLock).sol\":30513:30525  bytes memory */\n      0x60\n        /* \"pinkLockV2(NormalLock).sol\":30542:30549  success */\n      dup4\n        /* \"pinkLockV2(NormalLock).sol\":30538:30965  if (success) {\r... */\n      iszero\n      tag_412\n      jumpi\n        /* \"pinkLockV2(NormalLock).sol\":30591:30592  0 */\n      0x00\n        /* \"pinkLockV2(NormalLock).sol\":30570:30580  returndata */\n      dup4\n        /* \"pinkLockV2(NormalLock).sol\":30570:30587  returndata.length */\n      mload\n        /* \"pinkLockV2(NormalLock).sol\":30570:30592  returndata.length == 0 */\n      eq\n        /* \"pinkLockV2(NormalLock).sol\":30566:30856  if (returndata.length == 0) {\r... */\n      iszero\n      tag_413\n      jumpi\n        /* \"pinkLockV2(NormalLock).sol\":30788:30806  isContract(target) */\n      tag_414\n        /* \"pinkLockV2(NormalLock).sol\":30799:30805  target */\n      dup6\n        /* \"pinkLockV2(NormalLock).sol\":30788:30798  isContract */\n      tag_415\n        /* \"pinkLockV2(NormalLock).sol\":30788:30806  isContract(target) */\n      jump\t// in\n    tag_414:\n        /* \"pinkLockV2(NormalLock).sol\":30780:30840  require(isContract(target), \"Address: call to non-contract\") */\n      tag_416\n      jumpi\n      mload(0x40)\n      0x08c379a000000000000000000000000000000000000000000000000000000000\n      dup2\n      mstore\n      0x04\n      add\n      tag_417\n      swap1\n      tag_418\n      jump\t// in\n    tag_417:\n      mload(0x40)\n      dup1\n      swap2\n      sub\n      swap1\n      revert\n    tag_416:\n        /* \"pinkLockV2(NormalLock).sol\":30566:30856  if (returndata.length == 0) {\r... */\n    tag_413:\n        /* \"pinkLockV2(NormalLock).sol\":30877:30887  returndata */\n      dup3\n        /* \"pinkLockV2(NormalLock).sol\":30870:30887  return returndata */\n      swap1\n      pop\n      jump(tag_411)\n        /* \"pinkLockV2(NormalLock).sol\":30538:30965  if (success) {\r... */\n    tag_412:\n        /* \"pinkLockV2(NormalLock).sol\":30920:30953  _revert(returndata, errorMessage) */\n      tag_420\n        /* \"pinkLockV2(NormalLock).sol\":30928:30938  returndata */\n      dup4\n        /* \"pinkLockV2(NormalLock).sol\":30940:30952  errorMessage */\n      dup4\n        /* \"pinkLockV2(NormalLock).sol\":30920:30927  _revert */\n      tag_421\n        /* \"pinkLockV2(NormalLock).sol\":30920:30953  _revert(returndata, errorMessage) */\n      jump\t// in\n    tag_420:\n        /* \"pinkLockV2(NormalLock).sol\":30328:30972  function verifyCallResultFromTarget(\r... */\n    tag_411:\n      swap5\n      swap4\n      pop\n      pop\n      pop\n      pop\n      jump\t// out\n        /* \"pinkLockV2(NormalLock).sol\":23878:24204  function isContract(address account) internal view returns (bool) {\r... */\n    tag_415:\n        /* \"pinkLockV2(NormalLock).sol\":23938:23942  bool */\n      0x00\n        /* \"pinkLockV2(NormalLock).sol\":24195:24196  0 */\n      dup1\n        /* \"pinkLockV2(NormalLock).sol\":24173:24180  account */\n      dup3\n        /* \"pinkLockV2(NormalLock).sol\":24173:24192  account.code.length */\n      0xffffffffffffffffffffffffffffffffffffffff\n      and\n      extcodesize\n        /* \"pinkLockV2(NormalLock).sol\":24173:24196  account.code.length > 0 */\n      gt\n        /* \"pinkLockV2(NormalLock).sol\":24166:24196  return account.code.length > 0 */\n      swap1\n      pop\n        /* \"pinkLockV2(NormalLock).sol\":23878:24204  function isContract(address account) internal view returns (bool) {\r... */\n      swap2\n      swap1\n      pop\n      jump\t// out\n        /* \"pinkLockV2(NormalLock).sol\":31514:32066  function _revert(bytes memory returndata, string memory errorMessage) private pure {\r... */\n    tag_421:\n        /* \"pinkLockV2(NormalLock).sol\":31695:31696  0 */\n      0x00\n        /* \"pinkLockV2(NormalLock).sol\":31675:31685  returndata */\n      dup3\n        /* \"pinkLockV2(NormalLock).sol\":31675:31692  returndata.length */\n      mload\n        /* \"pinkLockV2(NormalLock).sol\":31675:31696  returndata.length > 0 */\n      gt\n        /* \"pinkLockV2(NormalLock).sol\":31671:32059  if (returndata.length > 0) {\r... */\n      iszero\n      tag_424\n      jumpi\n        /* \"pinkLockV2(NormalLock).sol\":31907:31917  returndata */\n      dup2\n        /* \"pinkLockV2(NormalLock).sol\":31901:31918  mload(returndata) */\n      mload\n        /* \"pinkLockV2(NormalLock).sol\":31964:31979  returndata_size */\n      dup1\n        /* \"pinkLockV2(NormalLock).sol\":31951:31961  returndata */\n      dup4\n        /* \"pinkLockV2(NormalLock).sol\":31947:31949  32 */\n      0x20\n        /* \"pinkLockV2(NormalLock).sol\":31943:31962  add(32, returndata) */\n      add\n        /* \"pinkLockV2(NormalLock).sol\":31936:31980  revert(add(32, returndata), returndata_size) */\n      revert\n        /* \"pinkLockV2(NormalLock).sol\":31859:31995  {\r... */\n    tag_424:\n        /* \"pinkLockV2(NormalLock).sol\":32034:32046  errorMessage */\n      dup1\n        /* \"pinkLockV2(NormalLock).sol\":32027:32047  revert(errorMessage) */\n      mload(0x40)\n      0x08c379a000000000000000000000000000000000000000000000000000000000\n      dup2\n      mstore\n      0x04\n      add\n      tag_426\n      swap2\n      swap1\n      tag_427\n      jump\t// in\n    tag_426:\n      mload(0x40)\n      dup1\n      swap2\n      sub\n      swap1\n      revert\n    tag_105:\n      mload(0x40)\n      dup1\n      0x0100\n      add\n      0x40\n      mstore\n      dup1\n      0x00\n      dup2\n      mstore\n      0x20\n      add\n      and(0xffffffffffffffffffffffffffffffffffffffff, 0x00)\n      dup2\n      mstore\n      0x20\n      add\n      and(0xffffffffffffffffffffffffffffffffffffffff, 0x00)\n      dup2\n      mstore\n      0x20\n      add\n      0x00\n      dup2\n      mstore\n      0x20\n      add\n      0x00\n      dup2\n      mstore\n      0x20\n      add\n      0x00\n      dup2\n      mstore\n      0x20\n      add\n      0x00\n      dup2\n      mstore\n      0x20\n      add\n      0x60\n      dup2\n      mstore\n      pop\n      swap1\n      jump\t// out\n    tag_196:\n      mload(0x40)\n      dup1\n      0x40\n      add\n      0x40\n      mstore\n      dup1\n      and(0xffffffffffffffffffffffffffffffffffffffff, 0x00)\n      dup2\n      mstore\n      0x20\n      add\n      0x00\n      dup2\n      mstore\n      pop\n      swap1\n      jump\t// out\n    tag_255:\n      dup3\n      dup1\n      sload\n      tag_428\n      swap1\n      tag_112\n      jump\t// in\n    tag_428:\n      swap1\n      0x00\n      mstore\n      keccak256(0x00, 0x20)\n      swap1\n      0x1f\n      add\n      0x20\n      swap1\n      div\n      dup2\n      add\n      swap3\n      dup3\n      tag_430\n      jumpi\n      0x00\n      dup6\n      sstore\n      jump(tag_429)\n    tag_430:\n      dup3\n      0x1f\n      lt\n      tag_431\n      jumpi\n      dup1\n      mload\n      not(0xff)\n      and\n      dup4\n      dup1\n      add\n      or\n      dup6\n      sstore\n      jump(tag_429)\n    tag_431:\n      dup3\n      dup1\n      add\n      0x01\n      add\n      dup6\n      sstore\n      dup3\n      iszero\n      tag_429\n      jumpi\n      swap2\n      dup3\n      add\n    tag_432:\n      dup3\n      dup2\n      gt\n      iszero\n      tag_433\n      jumpi\n      dup3\n      mload\n      dup3\n      sstore\n      swap2\n      0x20\n      add\n      swap2\n      swap1\n      0x01\n      add\n      swap1\n      jump(tag_432)\n    tag_433:\n    tag_429:\n      pop\n      swap1\n      pop\n      tag_434\n      swap2\n      swap1\n      tag_435\n      jump\t// in\n    tag_434:\n      pop\n      swap1\n      jump\t// out\n    tag_435:\n    tag_436:\n      dup1\n      dup3\n      gt\n      iszero\n      tag_437\n      jumpi\n      0x00\n      dup2\n      0x00\n      swap1\n      sstore\n      pop\n      0x01\n      add\n      jump(tag_436)\n    tag_437:\n      pop\n      swap1\n      jump\t// out\n        /* \"#utility.yul\":7:352   */\n    tag_439:\n        /* \"#utility.yul\":85:90   */\n      0x00\n        /* \"#utility.yul\":110:176   */\n      tag_441\n        /* \"#utility.yul\":126:175   */\n      tag_442\n        /* \"#utility.yul\":168:174   */\n      dup5\n        /* \"#utility.yul\":126:175   */\n      tag_443\n      jump\t// in\n    tag_442:\n        /* \"#utility.yul\":110:176   */\n      tag_444\n      jump\t// in\n    tag_441:\n        /* \"#utility.yul\":101:176   */\n      swap1\n      pop\n        /* \"#utility.yul\":199:205   */\n      dup3\n        /* \"#utility.yul\":192:197   */\n      dup2\n        /* \"#utility.yul\":185:206   */\n      mstore\n        /* \"#utility.yul\":237:241   */\n      0x20\n        /* \"#utility.yul\":230:235   */\n      dup2\n        /* \"#utility.yul\":226:242   */\n      add\n        /* \"#utility.yul\":275:278   */\n      dup5\n        /* \"#utility.yul\":266:272   */\n      dup5\n        /* \"#utility.yul\":261:264   */\n      dup5\n        /* \"#utility.yul\":257:273   */\n      add\n        /* \"#utility.yul\":254:279   */\n      gt\n        /* \"#utility.yul\":251:253   */\n      iszero\n      tag_445\n      jumpi\n        /* \"#utility.yul\":292:293   */\n      0x00\n        /* \"#utility.yul\":289:290   */\n      dup1\n        /* \"#utility.yul\":282:294   */\n      revert\n        /* \"#utility.yul\":251:253   */\n    tag_445:\n        /* \"#utility.yul\":305:346   */\n      tag_446\n        /* \"#utility.yul\":339:345   */\n      dup5\n        /* \"#utility.yul\":334:337   */\n      dup3\n        /* \"#utility.yul\":329:332   */\n      dup6\n        /* \"#utility.yul\":305:346   */\n      tag_447\n      jump\t// in\n    tag_446:\n        /* \"#utility.yul\":91:352   */\n      pop\n      swap4\n      swap3\n      pop\n      pop\n      pop\n      jump\t// out\n        /* \"#utility.yul\":358:497   */\n    tag_448:\n        /* \"#utility.yul\":404:409   */\n      0x00\n        /* \"#utility.yul\":442:448   */\n      dup2\n        /* \"#utility.yul\":429:449   */\n      calldataload\n        /* \"#utility.yul\":420:449   */\n      swap1\n      pop\n        /* \"#utility.yul\":458:491   */\n      tag_450\n        /* \"#utility.yul\":485:490   */\n      dup2\n        /* \"#utility.yul\":458:491   */\n      tag_451\n      jump\t// in\n    tag_450:\n        /* \"#utility.yul\":410:497   */\n      swap3\n      swap2\n      pop\n      pop\n      jump\t// out\n        /* \"#utility.yul\":503:640   */\n    tag_452:\n        /* \"#utility.yul\":557:562   */\n      0x00\n        /* \"#utility.yul\":588:594   */\n      dup2\n        /* \"#utility.yul\":582:595   */\n      mload\n        /* \"#utility.yul\":573:595   */\n      swap1\n      pop\n        /* \"#utility.yul\":604:634   */\n      tag_454\n        /* \"#utility.yul\":628:633   */\n      dup2\n        /* \"#utility.yul\":604:634   */\n      tag_455\n      jump\t// in\n    tag_454:\n        /* \"#utility.yul\":563:640   */\n      swap3\n      swap2\n      pop\n      pop\n      jump\t// out\n        /* \"#utility.yul\":660:933   */\n    tag_456:\n        /* \"#utility.yul\":716:721   */\n      0x00\n        /* \"#utility.yul\":765:768   */\n      dup3\n        /* \"#utility.yul\":758:762   */\n      0x1f\n        /* \"#utility.yul\":750:756   */\n      dup4\n        /* \"#utility.yul\":746:763   */\n      add\n        /* \"#utility.yul\":742:769   */\n      slt\n        /* \"#utility.yul\":732:734   */\n      tag_458\n      jumpi\n        /* \"#utility.yul\":783:784   */\n      0x00\n        /* \"#utility.yul\":780:781   */\n      dup1\n        /* \"#utility.yul\":773:785   */\n      revert\n        /* \"#utility.yul\":732:734   */\n    tag_458:\n        /* \"#utility.yul\":823:829   */\n      dup2\n        /* \"#utility.yul\":810:830   */\n      calldataload\n        /* \"#utility.yul\":848:927   */\n      tag_459\n        /* \"#utility.yul\":923:926   */\n      dup5\n        /* \"#utility.yul\":915:921   */\n      dup3\n        /* \"#utility.yul\":908:912   */\n      0x20\n        /* \"#utility.yul\":900:906   */\n      dup7\n        /* \"#utility.yul\":896:913   */\n      add\n        /* \"#utility.yul\":848:927   */\n      tag_439\n      jump\t// in\n    tag_459:\n        /* \"#utility.yul\":839:927   */\n      swap2\n      pop\n        /* \"#utility.yul\":722:933   */\n      pop\n      swap3\n      swap2\n      pop\n      pop\n      jump\t// out\n        /* \"#utility.yul\":939:1078   */\n    tag_460:\n        /* \"#utility.yul\":985:990   */\n      0x00\n        /* \"#utility.yul\":1023:1029   */\n      dup2\n        /* \"#utility.yul\":1010:1030   */\n      calldataload\n        /* \"#utility.yul\":1001:1030   */\n      swap1\n      pop\n        /* \"#utility.yul\":1039:1072   */\n      tag_462\n        /* \"#utility.yul\":1066:1071   */\n      dup2\n        /* \"#utility.yul\":1039:1072   */\n      tag_463\n      jump\t// in\n    tag_462:\n        /* \"#utility.yul\":991:1078   */\n      swap3\n      swap2\n      pop\n      pop\n      jump\t// out\n        /* \"#utility.yul\":1084:1227   */\n    tag_464:\n        /* \"#utility.yul\":1141:1146   */\n      0x00\n        /* \"#utility.yul\":1172:1178   */\n      dup2\n        /* \"#utility.yul\":1166:1179   */\n      mload\n        /* \"#utility.yul\":1157:1179   */\n      swap1\n      pop\n        /* \"#utility.yul\":1188:1221   */\n      tag_466\n        /* \"#utility.yul\":1215:1220   */\n      dup2\n        /* \"#utility.yul\":1188:1221   */\n      tag_463\n      jump\t// in\n    tag_466:\n        /* \"#utility.yul\":1147:1227   */\n      swap3\n      swap2\n      pop\n      pop\n      jump\t// out\n        /* \"#utility.yul\":1233:1495   */\n    tag_89:\n        /* \"#utility.yul\":1292:1298   */\n      0x00\n        /* \"#utility.yul\":1341:1343   */\n      0x20\n        /* \"#utility.yul\":1329:1338   */\n      dup3\n        /* \"#utility.yul\":1320:1327   */\n      dup5\n        /* \"#utility.yul\":1316:1339   */\n      sub\n        /* \"#utility.yul\":1312:1344   */\n      slt\n        /* \"#utility.yul\":1309:1311   */\n      iszero\n      tag_468\n      jumpi\n        /* \"#utility.yul\":1357:1358   */\n      0x00\n        /* \"#utility.yul\":1354:1355   */\n      dup1\n        /* \"#utility.yul\":1347:1359   */\n      revert\n        /* \"#utility.yul\":1309:1311   */\n    tag_468:\n        /* \"#utility.yul\":1400:1401   */\n      0x00\n        /* \"#utility.yul\":1425:1478   */\n      tag_469\n        /* \"#utility.yul\":1470:1477   */\n      dup5\n        /* \"#utility.yul\":1461:1467   */\n      dup3\n        /* \"#utility.yul\":1450:1459   */\n      dup6\n        /* \"#utility.yul\":1446:1468   */\n      add\n        /* \"#utility.yul\":1425:1478   */\n      tag_448\n      jump\t// in\n    tag_469:\n        /* \"#utility.yul\":1415:1478   */\n      swap2\n      pop\n        /* \"#utility.yul\":1371:1488   */\n      pop\n        /* \"#utility.yul\":1299:1495   */\n      swap3\n      swap2\n      pop\n      pop\n      jump\t// out\n        /* \"#utility.yul\":1501:2458   */\n    tag_73:\n        /* \"#utility.yul\":1606:1612   */\n      0x00\n        /* \"#utility.yul\":1614:1620   */\n      dup1\n        /* \"#utility.yul\":1622:1628   */\n      0x00\n        /* \"#utility.yul\":1630:1636   */\n      dup1\n        /* \"#utility.yul\":1638:1644   */\n      0x00\n        /* \"#utility.yul\":1687:1690   */\n      0xa0\n        /* \"#utility.yul\":1675:1684   */\n      dup7\n        /* \"#utility.yul\":1666:1673   */\n      dup9\n        /* \"#utility.yul\":1662:1685   */\n      sub\n        /* \"#utility.yul\":1658:1691   */\n      slt\n        /* \"#utility.yul\":1655:1657   */\n      iszero\n      tag_471\n      jumpi\n        /* \"#utility.yul\":1704:1705   */\n      0x00\n        /* \"#utility.yul\":1701:1702   */\n      dup1\n        /* \"#utility.yul\":1694:1706   */\n      revert\n        /* \"#utility.yul\":1655:1657   */\n    tag_471:\n        /* \"#utility.yul\":1747:1748   */\n      0x00\n        /* \"#utility.yul\":1772:1825   */\n      tag_472\n        /* \"#utility.yul\":1817:1824   */\n      dup9\n        /* \"#utility.yul\":1808:1814   */\n      dup3\n        /* \"#utility.yul\":1797:1806   */\n      dup10\n        /* \"#utility.yul\":1793:1815   */\n      add\n        /* \"#utility.yul\":1772:1825   */\n      tag_448\n      jump\t// in\n    tag_472:\n        /* \"#utility.yul\":1762:1825   */\n      swap6\n      pop\n        /* \"#utility.yul\":1718:1835   */\n      pop\n        /* \"#utility.yul\":1874:1876   */\n      0x20\n        /* \"#utility.yul\":1900:1953   */\n      tag_473\n        /* \"#utility.yul\":1945:1952   */\n      dup9\n        /* \"#utility.yul\":1936:1942   */\n      dup3\n        /* \"#utility.yul\":1925:1934   */\n      dup10\n        /* \"#utility.yul\":1921:1943   */\n      add\n        /* \"#utility.yul\":1900:1953   */\n      tag_448\n      jump\t// in\n    tag_473:\n        /* \"#utility.yul\":1890:1953   */\n      swap5\n      pop\n        /* \"#utility.yul\":1845:1963   */\n      pop\n        /* \"#utility.yul\":2002:2004   */\n      0x40\n        /* \"#utility.yul\":2028:2081   */\n      tag_474\n        /* \"#utility.yul\":2073:2080   */\n      dup9\n        /* \"#utility.yul\":2064:2070   */\n      dup3\n        /* \"#utility.yul\":2053:2062   */\n      dup10\n        /* \"#utility.yul\":2049:2071   */\n      add\n        /* \"#utility.yul\":2028:2081   */\n      tag_460\n      jump\t// in\n    tag_474:\n        /* \"#utility.yul\":2018:2081   */\n      swap4\n      pop\n        /* \"#utility.yul\":1973:2091   */\n      pop\n        /* \"#utility.yul\":2130:2132   */\n      0x60\n        /* \"#utility.yul\":2156:2209   */\n      tag_475\n        /* \"#utility.yul\":2201:2208   */\n      dup9\n        /* \"#utility.yul\":2192:2198   */\n      dup3\n        /* \"#utility.yul\":2181:2190   */\n      dup10\n        /* \"#utility.yul\":2177:2199   */\n      add\n        /* \"#utility.yul\":2156:2209   */\n      tag_460\n      jump\t// in\n    tag_475:\n        /* \"#utility.yul\":2146:2209   */\n      swap3\n      pop\n        /* \"#utility.yul\":2101:2219   */\n      pop\n        /* \"#utility.yul\":2286:2289   */\n      0x80\n        /* \"#utility.yul\":2275:2284   */\n      dup7\n        /* \"#utility.yul\":2271:2290   */\n      add\n        /* \"#utility.yul\":2258:2291   */\n      calldataload\n        /* \"#utility.yul\":2318:2336   */\n      0xffffffffffffffff\n        /* \"#utility.yul\":2310:2316   */\n      dup2\n        /* \"#utility.yul\":2307:2337   */\n      gt\n        /* \"#utility.yul\":2304:2306   */\n      iszero\n      tag_476\n      jumpi\n        /* \"#utility.yul\":2350:2351   */\n      0x00\n        /* \"#utility.yul\":2347:2348   */\n      dup1\n        /* \"#utility.yul\":2340:2352   */\n      revert\n        /* \"#utility.yul\":2304:2306   */\n    tag_476:\n        /* \"#utility.yul\":2378:2441   */\n      tag_477\n        /* \"#utility.yul\":2433:2440   */\n      dup9\n        /* \"#utility.yul\":2424:2430   */\n      dup3\n        /* \"#utility.yul\":2413:2422   */\n      dup10\n        /* \"#utility.yul\":2409:2431   */\n      add\n        /* \"#utility.yul\":2378:2441   */\n      tag_456\n      jump\t// in\n    tag_477:\n        /* \"#utility.yul\":2368:2441   */\n      swap2\n      pop\n        /* \"#utility.yul\":2229:2451   */\n      pop\n        /* \"#utility.yul\":1645:2458   */\n      swap3\n      swap6\n      pop\n      swap3\n      swap6\n      swap1\n      swap4\n      pop\n      jump\t// out\n        /* \"#utility.yul\":2464:2871   */\n    tag_54:\n        /* \"#utility.yul\":2532:2538   */\n      0x00\n        /* \"#utility.yul\":2540:2546   */\n      dup1\n        /* \"#utility.yul\":2589:2591   */\n      0x40\n        /* \"#utility.yul\":2577:2586   */\n      dup4\n        /* \"#utility.yul\":2568:2575   */\n      dup6\n        /* \"#utility.yul\":2564:2587   */\n      sub\n        /* \"#utility.yul\":2560:2592   */\n      slt\n        /* \"#utility.yul\":2557:2559   */\n      iszero\n      tag_479\n      jumpi\n        /* \"#utility.yul\":2605:2606   */\n      0x00\n        /* \"#utility.yul\":2602:2603   */\n      dup1\n        /* \"#utility.yul\":2595:2607   */\n      revert\n        /* \"#utility.yul\":2557:2559   */\n    tag_479:\n        /* \"#utility.yul\":2648:2649   */\n      0x00\n        /* \"#utility.yul\":2673:2726   */\n      tag_480\n        /* \"#utility.yul\":2718:2725   */\n      dup6\n        /* \"#utility.yul\":2709:2715   */\n      dup3\n        /* \"#utility.yul\":2698:2707   */\n      dup7\n        /* \"#utility.yul\":2694:2716   */\n      add\n        /* \"#utility.yul\":2673:2726   */\n      tag_448\n      jump\t// in\n    tag_480:\n        /* \"#utility.yul\":2663:2726   */\n      swap3\n      pop\n        /* \"#utility.yul\":2619:2736   */\n      pop\n        /* \"#utility.yul\":2775:2777   */\n      0x20\n        /* \"#utility.yul\":2801:2854   */\n      tag_481\n        /* \"#utility.yul\":2846:2853   */\n      dup6\n        /* \"#utility.yul\":2837:2843   */\n      dup3\n        /* \"#utility.yul\":2826:2835   */\n      dup7\n        /* \"#utility.yul\":2822:2844   */\n      add\n        /* \"#utility.yul\":2801:2854   */\n      tag_460\n      jump\t// in\n    tag_481:\n        /* \"#utility.yul\":2791:2854   */\n      swap2\n      pop\n        /* \"#utility.yul\":2746:2864   */\n      pop\n        /* \"#utility.yul\":2547:2871   */\n      swap3\n      pop\n      swap3\n      swap1\n      pop\n      jump\t// out\n        /* \"#utility.yul\":2877:3429   */\n    tag_36:\n        /* \"#utility.yul\":2954:2960   */\n      0x00\n        /* \"#utility.yul\":2962:2968   */\n      dup1\n        /* \"#utility.yul\":2970:2976   */\n      0x00\n        /* \"#utility.yul\":3019:3021   */\n      0x60\n        /* \"#utility.yul\":3007:3016   */\n      dup5\n        /* \"#utility.yul\":2998:3005   */\n      dup7\n        /* \"#utility.yul\":2994:3017   */\n      sub\n        /* \"#utility.yul\":2990:3022   */\n      slt\n        /* \"#utility.yul\":2987:2989   */\n      iszero\n      tag_483\n      jumpi\n        /* \"#utility.yul\":3035:3036   */\n      0x00\n        /* \"#utility.yul\":3032:3033   */\n      dup1\n        /* \"#utility.yul\":3025:3037   */\n      revert\n        /* \"#utility.yul\":2987:2989   */\n    tag_483:\n        /* \"#utility.yul\":3078:3079   */\n      0x00\n        /* \"#utility.yul\":3103:3156   */\n      tag_484\n        /* \"#utility.yul\":3148:3155   */\n      dup7\n        /* \"#utility.yul\":3139:3145   */\n      dup3\n        /* \"#utility.yul\":3128:3137   */\n      dup8\n        /* \"#utility.yul\":3124:3146   */\n      add\n        /* \"#utility.yul\":3103:3156   */\n      tag_448\n      jump\t// in\n    tag_484:\n        /* \"#utility.yul\":3093:3156   */\n      swap4\n      pop\n        /* \"#utility.yul\":3049:3166   */\n      pop\n        /* \"#utility.yul\":3205:3207   */\n      0x20\n        /* \"#utility.yul\":3231:3284   */\n      tag_485\n        /* \"#utility.yul\":3276:3283   */\n      dup7\n        /* \"#utility.yul\":3267:3273   */\n      dup3\n        /* \"#utility.yul\":3256:3265   */\n      dup8\n        /* \"#utility.yul\":3252:3274   */\n      add\n        /* \"#utility.yul\":3231:3284   */\n      tag_460\n      jump\t// in\n    tag_485:\n        /* \"#utility.yul\":3221:3284   */\n      swap3\n      pop\n        /* \"#utility.yul\":3176:3294   */\n      pop\n        /* \"#utility.yul\":3333:3335   */\n      0x40\n        /* \"#utility.yul\":3359:3412   */\n      tag_486\n        /* \"#utility.yul\":3404:3411   */\n      dup7\n        /* \"#utility.yul\":3395:3401   */\n      dup3\n        /* \"#utility.yul\":3384:3393   */\n      dup8\n        /* \"#utility.yul\":3380:3402   */\n      add\n        /* \"#utility.yul\":3359:3412   */\n      tag_460\n      jump\t// in\n    tag_486:\n        /* \"#utility.yul\":3349:3412   */\n      swap2\n      pop\n        /* \"#utility.yul\":3304:3422   */\n      pop\n        /* \"#utility.yul\":2977:3429   */\n      swap3\n      pop\n      swap3\n      pop\n      swap3\n      jump\t// out\n        /* \"#utility.yul\":3435:3713   */\n    tag_380:\n        /* \"#utility.yul\":3502:3508   */\n      0x00\n        /* \"#utility.yul\":3551:3553   */\n      0x20\n        /* \"#utility.yul\":3539:3548   */\n      dup3\n        /* \"#utility.yul\":3530:3537   */\n      dup5\n        /* \"#utility.yul\":3526:3549   */\n      sub\n        /* \"#utility.yul\":3522:3554   */\n      slt\n        /* \"#utility.yul\":3519:3521   */\n      iszero\n      tag_488\n      jumpi\n        /* \"#utility.yul\":3567:3568   */\n      0x00\n        /* \"#utility.yul\":3564:3565   */\n      dup1\n        /* \"#utility.yul\":3557:3569   */\n      revert\n        /* \"#utility.yul\":3519:3521   */\n    tag_488:\n        /* \"#utility.yul\":3610:3611   */\n      0x00\n        /* \"#utility.yul\":3635:3696   */\n      tag_489\n        /* \"#utility.yul\":3688:3695   */\n      dup5\n        /* \"#utility.yul\":3679:3685   */\n      dup3\n        /* \"#utility.yul\":3668:3677   */\n      dup6\n        /* \"#utility.yul\":3664:3686   */\n      add\n        /* \"#utility.yul\":3635:3696   */\n      tag_452\n      jump\t// in\n    tag_489:\n        /* \"#utility.yul\":3625:3696   */\n      swap2\n      pop\n        /* \"#utility.yul\":3581:3706   */\n      pop\n        /* \"#utility.yul\":3509:3713   */\n      swap3\n      swap2\n      pop\n      pop\n      jump\t// out\n        /* \"#utility.yul\":3719:3981   */\n    tag_26:\n        /* \"#utility.yul\":3778:3784   */\n      0x00\n        /* \"#utility.yul\":3827:3829   */\n      0x20\n        /* \"#utility.yul\":3815:3824   */\n      dup3\n        /* \"#utility.yul\":3806:3813   */\n      dup5\n        /* \"#utility.yul\":3802:3825   */\n      sub\n        /* \"#utility.yul\":3798:3830   */\n      slt\n        /* \"#utility.yul\":3795:3797   */\n      iszero\n      tag_491\n      jumpi\n        /* \"#utility.yul\":3843:3844   */\n      0x00\n        /* \"#utility.yul\":3840:3841   */\n      dup1\n        /* \"#utility.yul\":3833:3845   */\n      revert\n        /* \"#utility.yul\":3795:3797   */\n    tag_491:\n        /* \"#utility.yul\":3886:3887   */\n      0x00\n        /* \"#utility.yul\":3911:3964   */\n      tag_492\n        /* \"#utility.yul\":3956:3963   */\n      dup5\n        /* \"#utility.yul\":3947:3953   */\n      dup3\n        /* \"#utility.yul\":3936:3945   */\n      dup6\n        /* \"#utility.yul\":3932:3954   */\n      add\n        /* \"#utility.yul\":3911:3964   */\n      tag_460\n      jump\t// in\n    tag_492:\n        /* \"#utility.yul\":3901:3964   */\n      swap2\n      pop\n        /* \"#utility.yul\":3857:3974   */\n      pop\n        /* \"#utility.yul\":3785:3981   */\n      swap3\n      swap2\n      pop\n      pop\n      jump\t// out\n        /* \"#utility.yul\":3987:4271   */\n    tag_321:\n        /* \"#utility.yul\":4057:4063   */\n      0x00\n        /* \"#utility.yul\":4106:4108   */\n      0x20\n        /* \"#utility.yul\":4094:4103   */\n      dup3\n        /* \"#utility.yul\":4085:4092   */\n      dup5\n        /* \"#utility.yul\":4081:4104   */\n      sub\n        /* \"#utility.yul\":4077:4109   */\n      slt\n        /* \"#utility.yul\":4074:4076   */\n      iszero\n      tag_494\n      jumpi\n        /* \"#utility.yul\":4122:4123   */\n      0x00\n        /* \"#utility.yul\":4119:4120   */\n      dup1\n        /* \"#utility.yul\":4112:4124   */\n      revert\n        /* \"#utility.yul\":4074:4076   */\n    tag_494:\n        /* \"#utility.yul\":4165:4166   */\n      0x00\n        /* \"#utility.yul\":4190:4254   */\n      tag_495\n        /* \"#utility.yul\":4246:4253   */\n      dup5\n        /* \"#utility.yul\":4237:4243   */\n      dup3\n        /* \"#utility.yul\":4226:4235   */\n      dup6\n        /* \"#utility.yul\":4222:4244   */\n      add\n        /* \"#utility.yul\":4190:4254   */\n      tag_464\n      jump\t// in\n    tag_495:\n        /* \"#utility.yul\":4180:4254   */\n      swap2\n      pop\n        /* \"#utility.yul\":4136:4264   */\n      pop\n        /* \"#utility.yul\":4064:4271   */\n      swap3\n      swap2\n      pop\n      pop\n      jump\t// out\n        /* \"#utility.yul\":4277:4684   */\n    tag_46:\n        /* \"#utility.yul\":4345:4351   */\n      0x00\n        /* \"#utility.yul\":4353:4359   */\n      dup1\n        /* \"#utility.yul\":4402:4404   */\n      0x40\n        /* \"#utility.yul\":4390:4399   */\n      dup4\n        /* \"#utility.yul\":4381:4388   */\n      dup6\n        /* \"#utility.yul\":4377:4400   */\n      sub\n        /* \"#utility.yul\":4373:4405   */\n      slt\n        /* \"#utility.yul\":4370:4372   */\n      iszero\n      tag_497\n      jumpi\n        /* \"#utility.yul\":4418:4419   */\n      0x00\n        /* \"#utility.yul\":4415:4416   */\n      dup1\n        /* \"#utility.yul\":4408:4420   */\n      revert\n        /* \"#utility.yul\":4370:4372   */\n    tag_497:\n        /* \"#utility.yul\":4461:4462   */\n      0x00\n        /* \"#utility.yul\":4486:4539   */\n      tag_498\n        /* \"#utility.yul\":4531:4538   */\n      dup6\n        /* \"#utility.yul\":4522:4528   */\n      dup3\n        /* \"#utility.yul\":4511:4520   */\n      dup7\n        /* \"#utility.yul\":4507:4529   */\n      add\n        /* \"#utility.yul\":4486:4539   */\n      tag_460\n      jump\t// in\n    tag_498:\n        /* \"#utility.yul\":4476:4539   */\n      swap3\n      pop\n        /* \"#utility.yul\":4432:4549   */\n      pop\n        /* \"#utility.yul\":4588:4590   */\n      0x20\n        /* \"#utility.yul\":4614:4667   */\n      tag_499\n        /* \"#utility.yul\":4659:4666   */\n      dup6\n        /* \"#utility.yul\":4650:4656   */\n      dup3\n        /* \"#utility.yul\":4639:4648   */\n      dup7\n        /* \"#utility.yul\":4635:4657   */\n      add\n        /* \"#utility.yul\":4614:4667   */\n      tag_448\n      jump\t// in\n    tag_499:\n        /* \"#utility.yul\":4604:4667   */\n      swap2\n      pop\n        /* \"#utility.yul\":4559:4677   */\n      pop\n        /* \"#utility.yul\":4360:4684   */\n      swap3\n      pop\n      swap3\n      swap1\n      pop\n      jump\t// out\n        /* \"#utility.yul\":4690:5210   */\n    tag_85:\n        /* \"#utility.yul\":4768:4774   */\n      0x00\n        /* \"#utility.yul\":4776:4782   */\n      dup1\n        /* \"#utility.yul\":4825:4827   */\n      0x40\n        /* \"#utility.yul\":4813:4822   */\n      dup4\n        /* \"#utility.yul\":4804:4811   */\n      dup6\n        /* \"#utility.yul\":4800:4823   */\n      sub\n        /* \"#utility.yul\":4796:4828   */\n      slt\n        /* \"#utility.yul\":4793:4795   */\n      iszero\n      tag_501\n      jumpi\n        /* \"#utility.yul\":4841:4842   */\n      0x00\n        /* \"#utility.yul\":4838:4839   */\n      dup1\n        /* \"#utility.yul\":4831:4843   */\n      revert\n        /* \"#utility.yul\":4793:4795   */\n    tag_501:\n        /* \"#utility.yul\":4884:4885   */\n      0x00\n        /* \"#utility.yul\":4909:4962   */\n      tag_502\n        /* \"#utility.yul\":4954:4961   */\n      dup6\n        /* \"#utility.yul\":4945:4951   */\n      dup3\n        /* \"#utility.yul\":4934:4943   */\n      dup7\n        /* \"#utility.yul\":4930:4952   */\n      add\n        /* \"#utility.yul\":4909:4962   */\n      tag_460\n      jump\t// in\n    tag_502:\n        /* \"#utility.yul\":4899:4962   */\n      swap3\n      pop\n        /* \"#utility.yul\":4855:4972   */\n      pop\n        /* \"#utility.yul\":5039:5041   */\n      0x20\n        /* \"#utility.yul\":5028:5037   */\n      dup4\n        /* \"#utility.yul\":5024:5042   */\n      add\n        /* \"#utility.yul\":5011:5043   */\n      calldataload\n        /* \"#utility.yul\":5070:5088   */\n      0xffffffffffffffff\n        /* \"#utility.yul\":5062:5068   */\n      dup2\n        /* \"#utility.yul\":5059:5089   */\n      gt\n        /* \"#utility.yul\":5056:5058   */\n      iszero\n      tag_503\n      jumpi\n        /* \"#utility.yul\":5102:5103   */\n      0x00\n        /* \"#utility.yul\":5099:5100   */\n      dup1\n        /* \"#utility.yul\":5092:5104   */\n      revert\n        /* \"#utility.yul\":5056:5058   */\n    tag_503:\n        /* \"#utility.yul\":5130:5193   */\n      tag_504\n        /* \"#utility.yul\":5185:5192   */\n      dup6\n        /* \"#utility.yul\":5176:5182   */\n      dup3\n        /* \"#utility.yul\":5165:5174   */\n      dup7\n        /* \"#utility.yul\":5161:5183   */\n      add\n        /* \"#utility.yul\":5130:5193   */\n      tag_456\n      jump\t// in\n    tag_504:\n        /* \"#utility.yul\":5120:5193   */\n      swap2\n      pop\n        /* \"#utility.yul\":4982:5203   */\n      pop\n        /* \"#utility.yul\":4783:5210   */\n      swap3\n      pop\n      swap3\n      swap1\n      pop\n      jump\t// out\n        /* \"#utility.yul\":5216:5623   */\n    tag_62:\n        /* \"#utility.yul\":5284:5290   */\n      0x00\n        /* \"#utility.yul\":5292:5298   */\n      dup1\n        /* \"#utility.yul\":5341:5343   */\n      0x40\n        /* \"#utility.yul\":5329:5338   */\n      dup4\n        /* \"#utility.yul\":5320:5327   */\n      dup6\n        /* \"#utility.yul\":5316:5339   */\n      sub\n        /* \"#utility.yul\":5312:5344   */\n      slt\n        /* \"#utility.yul\":5309:5311   */\n      iszero\n      tag_506\n      jumpi\n        /* \"#utility.yul\":5357:5358   */\n      0x00\n        /* \"#utility.yul\":5354:5355   */\n      dup1\n        /* \"#utility.yul\":5347:5359   */\n      revert\n        /* \"#utility.yul\":5309:5311   */\n    tag_506:\n        /* \"#utility.yul\":5400:5401   */\n      0x00\n        /* \"#utility.yul\":5425:5478   */\n      tag_507\n        /* \"#utility.yul\":5470:5477   */\n      dup6\n        /* \"#utility.yul\":5461:5467   */\n      dup3\n        /* \"#utility.yul\":5450:5459   */\n      dup7\n        /* \"#utility.yul\":5446:5468   */\n      add\n        /* \"#utility.yul\":5425:5478   */\n      tag_460\n      jump\t// in\n    tag_507:\n        /* \"#utility.yul\":5415:5478   */\n      swap3\n      pop\n        /* \"#utility.yul\":5371:5488   */\n      pop\n        /* \"#utility.yul\":5527:5529   */\n      0x20\n        /* \"#utility.yul\":5553:5606   */\n      tag_508\n        /* \"#utility.yul\":5598:5605   */\n      dup6\n        /* \"#utility.yul\":5589:5595   */\n      dup3\n        /* \"#utility.yul\":5578:5587   */\n      dup7\n        /* \"#utility.yul\":5574:5596   */\n      add\n        /* \"#utility.yul\":5553:5606   */\n      tag_460\n      jump\t// in\n    tag_508:\n        /* \"#utility.yul\":5543:5606   */\n      swap2\n      pop\n        /* \"#utility.yul\":5498:5616   */\n      pop\n        /* \"#utility.yul\":5299:5623   */\n      swap3\n      pop\n      swap3\n      swap1\n      pop\n      jump\t// out\n        /* \"#utility.yul\":5629:6181   */\n    tag_81:\n        /* \"#utility.yul\":5706:5712   */\n      0x00\n        /* \"#utility.yul\":5714:5720   */\n      dup1\n        /* \"#utility.yul\":5722:5728   */\n      0x00\n        /* \"#utility.yul\":5771:5773   */\n      0x60\n        /* \"#utility.yul\":5759:5768   */\n      dup5\n        /* \"#utility.yul\":5750:5757   */\n      dup7\n        /* \"#utility.yul\":5746:5769   */\n      sub\n        /* \"#utility.yul\":5742:5774   */\n      slt\n        /* \"#utility.yul\":5739:5741   */\n      iszero\n      tag_510\n      jumpi\n        /* \"#utility.yul\":5787:5788   */\n      0x00\n        /* \"#utility.yul\":5784:5785   */\n      dup1\n        /* \"#utility.yul\":5777:5789   */\n      revert\n        /* \"#utility.yul\":5739:5741   */\n    tag_510:\n        /* \"#utility.yul\":5830:5831   */\n      0x00\n        /* \"#utility.yul\":5855:5908   */\n      tag_511\n        /* \"#utility.yul\":5900:5907   */\n      dup7\n        /* \"#utility.yul\":5891:5897   */\n      dup3\n        /* \"#utility.yul\":5880:5889   */\n      dup8\n        /* \"#utility.yul\":5876:5898   */\n      add\n        /* \"#utility.yul\":5855:5908   */\n      tag_460\n      jump\t// in\n    tag_511:\n        /* \"#utility.yul\":5845:5908   */\n      swap4\n      pop\n        /* \"#utility.yul\":5801:5918   */\n      pop\n        /* \"#utility.yul\":5957:5959   */\n      0x20\n        /* \"#utility.yul\":5983:6036   */\n      tag_512\n        /* \"#utility.yul\":6028:6035   */\n      dup7\n        /* \"#utility.yul\":6019:6025   */\n      dup3\n        /* \"#utility.yul\":6008:6017   */\n      dup8\n        /* \"#utility.yul\":6004:6026   */\n      add\n        /* \"#utility.yul\":5983:6036   */\n      tag_460\n      jump\t// in\n    tag_512:\n        /* \"#utility.yul\":5973:6036   */\n      swap3\n      pop\n        /* \"#utility.yul\":5928:6046   */\n      pop\n        /* \"#utility.yul\":6085:6087   */\n      0x40\n        /* \"#utility.yul\":6111:6164   */\n      tag_513\n        /* \"#utility.yul\":6156:6163   */\n      dup7\n        /* \"#utility.yul\":6147:6153   */\n      dup3\n        /* \"#utility.yul\":6136:6145   */\n      dup8\n        /* \"#utility.yul\":6132:6154   */\n      add\n        /* \"#utility.yul\":6111:6164   */\n      tag_460\n      jump\t// in\n    tag_513:\n        /* \"#utility.yul\":6101:6164   */\n      swap2\n      pop\n        /* \"#utility.yul\":6056:6174   */\n      pop\n        /* \"#utility.yul\":5729:6181   */\n      swap3\n      pop\n      swap3\n      pop\n      swap3\n      jump\t// out\n        /* \"#utility.yul\":6187:6510   */\n    tag_514:\n        /* \"#utility.yul\":6328:6338   */\n      0x00\n        /* \"#utility.yul\":6349:6467   */\n      tag_516\n        /* \"#utility.yul\":6463:6466   */\n      dup4\n        /* \"#utility.yul\":6455:6461   */\n      dup4\n        /* \"#utility.yul\":6349:6467   */\n      tag_517\n      jump\t// in\n    tag_516:\n        /* \"#utility.yul\":6499:6503   */\n      0x40\n        /* \"#utility.yul\":6494:6497   */\n      dup4\n        /* \"#utility.yul\":6490:6504   */\n      add\n        /* \"#utility.yul\":6476:6504   */\n      swap1\n      pop\n        /* \"#utility.yul\":6339:6510   */\n      swap3\n      swap2\n      pop\n      pop\n      jump\t// out\n        /* \"#utility.yul\":6516:6760   */\n    tag_518:\n        /* \"#utility.yul\":6629:6639   */\n      0x00\n        /* \"#utility.yul\":6664:6754   */\n      tag_520\n        /* \"#utility.yul\":6750:6753   */\n      dup4\n        /* \"#utility.yul\":6742:6748   */\n      dup4\n        /* \"#utility.yul\":6664:6754   */\n      tag_521\n      jump\t// in\n    tag_520:\n        /* \"#utility.yul\":6650:6754   */\n      swap1\n      pop\n        /* \"#utility.yul\":6640:6760   */\n      swap3\n      swap2\n      pop\n      pop\n      jump\t// out\n        /* \"#utility.yul\":6766:6874   */\n    tag_522:\n        /* \"#utility.yul\":6843:6867   */\n      tag_524\n        /* \"#utility.yul\":6861:6866   */\n      dup2\n        /* \"#utility.yul\":6843:6867   */\n      tag_525\n      jump\t// in\n    tag_524:\n        /* \"#utility.yul\":6838:6841   */\n      dup3\n        /* \"#utility.yul\":6831:6868   */\n      mstore\n        /* \"#utility.yul\":6821:6874   */\n      pop\n      pop\n      jump\t// out\n        /* \"#utility.yul\":6880:6998   */\n    tag_526:\n        /* \"#utility.yul\":6967:6991   */\n      tag_528\n        /* \"#utility.yul\":6985:6990   */\n      dup2\n        /* \"#utility.yul\":6967:6991   */\n      tag_525\n      jump\t// in\n    tag_528:\n        /* \"#utility.yul\":6962:6965   */\n      dup3\n        /* \"#utility.yul\":6955:6992   */\n      mstore\n        /* \"#utility.yul\":6945:6998   */\n      pop\n      pop\n      jump\t// out\n        /* \"#utility.yul\":7092:8112   */\n    tag_529:\n        /* \"#utility.yul\":7283:7286   */\n      0x00\n        /* \"#utility.yul\":7312:7402   */\n      tag_531\n        /* \"#utility.yul\":7396:7401   */\n      dup3\n        /* \"#utility.yul\":7312:7402   */\n      tag_532\n      jump\t// in\n    tag_531:\n        /* \"#utility.yul\":7418:7540   */\n      tag_533\n        /* \"#utility.yul\":7533:7539   */\n      dup2\n        /* \"#utility.yul\":7528:7531   */\n      dup6\n        /* \"#utility.yul\":7418:7540   */\n      tag_534\n      jump\t// in\n    tag_533:\n        /* \"#utility.yul\":7411:7540   */\n      swap4\n      pop\n        /* \"#utility.yul\":7564:7656   */\n      tag_535\n        /* \"#utility.yul\":7650:7655   */\n      dup4\n        /* \"#utility.yul\":7564:7656   */\n      tag_536\n      jump\t// in\n    tag_535:\n        /* \"#utility.yul\":7679:7686   */\n      dup1\n        /* \"#utility.yul\":7710:7711   */\n      0x00\n        /* \"#utility.yul\":7695:8087   */\n    tag_537:\n        /* \"#utility.yul\":7720:7726   */\n      dup4\n        /* \"#utility.yul\":7717:7718   */\n      dup2\n        /* \"#utility.yul\":7714:7727   */\n      lt\n        /* \"#utility.yul\":7695:8087   */\n      iszero\n      tag_539\n      jumpi\n        /* \"#utility.yul\":7796:7802   */\n      dup2\n        /* \"#utility.yul\":7790:7803   */\n      mload\n        /* \"#utility.yul\":7823:7958   */\n      tag_540\n        /* \"#utility.yul\":7954:7957   */\n      dup9\n        /* \"#utility.yul\":7939:7952   */\n      dup3\n        /* \"#utility.yul\":7823:7958   */\n      tag_514\n      jump\t// in\n    tag_540:\n        /* \"#utility.yul\":7816:7958   */\n      swap8\n      pop\n        /* \"#utility.yul\":7981:8077   */\n      tag_541\n        /* \"#utility.yul\":8070:8076   */\n      dup4\n        /* \"#utility.yul\":7981:8077   */\n      tag_542\n      jump\t// in\n    tag_541:\n        /* \"#utility.yul\":7971:8077   */\n      swap3\n      pop\n        /* \"#utility.yul\":7755:8087   */\n      pop\n        /* \"#utility.yul\":7742:7743   */\n      0x01\n        /* \"#utility.yul\":7739:7740   */\n      dup2\n        /* \"#utility.yul\":7735:7744   */\n      add\n        /* \"#utility.yul\":7730:7744   */\n      swap1\n      pop\n        /* \"#utility.yul\":7695:8087   */\n      jump(tag_537)\n    tag_539:\n        /* \"#utility.yul\":7699:7713   */\n      pop\n        /* \"#utility.yul\":8103:8106   */\n      dup6\n        /* \"#utility.yul\":8096:8106   */\n      swap4\n      pop\n        /* \"#utility.yul\":7288:8112   */\n      pop\n      pop\n      pop\n      swap3\n      swap2\n      pop\n      pop\n      jump\t// out\n        /* \"#utility.yul\":8178:9265   */\n    tag_543:\n        /* \"#utility.yul\":8341:8344   */\n      0x00\n        /* \"#utility.yul\":8370:8446   */\n      tag_545\n        /* \"#utility.yul\":8440:8445   */\n      dup3\n        /* \"#utility.yul\":8370:8446   */\n      tag_546\n      jump\t// in\n    tag_545:\n        /* \"#utility.yul\":8462:8570   */\n      tag_547\n        /* \"#utility.yul\":8563:8569   */\n      dup2\n        /* \"#utility.yul\":8558:8561   */\n      dup6\n        /* \"#utility.yul\":8462:8570   */\n      tag_548\n      jump\t// in\n    tag_547:\n        /* \"#utility.yul\":8455:8570   */\n      swap4\n      pop\n        /* \"#utility.yul\":8596:8599   */\n      dup4\n        /* \"#utility.yul\":8641:8645   */\n      0x20\n        /* \"#utility.yul\":8633:8639   */\n      dup3\n        /* \"#utility.yul\":8629:8646   */\n      mul\n        /* \"#utility.yul\":8624:8627   */\n      dup6\n        /* \"#utility.yul\":8620:8647   */\n      add\n        /* \"#utility.yul\":8671:8749   */\n      tag_549\n        /* \"#utility.yul\":8743:8748   */\n      dup6\n        /* \"#utility.yul\":8671:8749   */\n      tag_550\n      jump\t// in\n    tag_549:\n        /* \"#utility.yul\":8772:8779   */\n      dup1\n        /* \"#utility.yul\":8803:8804   */\n      0x00\n        /* \"#utility.yul\":8788:9220   */\n    tag_551:\n        /* \"#utility.yul\":8813:8819   */\n      dup6\n        /* \"#utility.yul\":8810:8811   */\n      dup2\n        /* \"#utility.yul\":8807:8820   */\n      lt\n        /* \"#utility.yul\":8788:9220   */\n      iszero\n      tag_553\n      jumpi\n        /* \"#utility.yul\":8884:8893   */\n      dup5\n        /* \"#utility.yul\":8878:8882   */\n      dup5\n        /* \"#utility.yul\":8874:8894   */\n      sub\n        /* \"#utility.yul\":8869:8872   */\n      dup10\n        /* \"#utility.yul\":8862:8895   */\n      mstore\n        /* \"#utility.yul\":8935:8941   */\n      dup2\n        /* \"#utility.yul\":8929:8942   */\n      mload\n        /* \"#utility.yul\":8963:9071   */\n      tag_554\n        /* \"#utility.yul\":9066:9070   */\n      dup6\n        /* \"#utility.yul\":9051:9064   */\n      dup3\n        /* \"#utility.yul\":8963:9071   */\n      tag_518\n      jump\t// in\n    tag_554:\n        /* \"#utility.yul\":8955:9071   */\n      swap5\n      pop\n        /* \"#utility.yul\":9094:9176   */\n      tag_555\n        /* \"#utility.yul\":9169:9175   */\n      dup4\n        /* \"#utility.yul\":9094:9176   */\n      tag_556\n      jump\t// in\n    tag_555:\n        /* \"#utility.yul\":9084:9176   */\n      swap3\n      pop\n        /* \"#utility.yul\":9205:9209   */\n      0x20\n        /* \"#utility.yul\":9200:9203   */\n      dup11\n        /* \"#utility.yul\":9196:9210   */\n      add\n        /* \"#utility.yul\":9189:9210   */\n      swap10\n      pop\n        /* \"#utility.yul\":8848:9220   */\n      pop\n        /* \"#utility.yul\":8835:8836   */\n      0x01\n        /* \"#utility.yul\":8832:8833   */\n      dup2\n        /* \"#utility.yul\":8828:8837   */\n      add\n        /* \"#utility.yul\":8823:8837   */\n      swap1\n      pop\n        /* \"#utility.yul\":8788:9220   */\n      jump(tag_551)\n    tag_553:\n        /* \"#utility.yul\":8792:8806   */\n      pop\n        /* \"#utility.yul\":9236:9240   */\n      dup3\n        /* \"#utility.yul\":9229:9240   */\n      swap8\n      pop\n        /* \"#utility.yul\":9256:9259   */\n      dup8\n        /* \"#utility.yul\":9249:9259   */\n      swap6\n      pop\n        /* \"#utility.yul\":8346:9265   */\n      pop\n      pop\n      pop\n      pop\n      pop\n      swap3\n      swap2\n      pop\n      pop\n      jump\t// out\n        /* \"#utility.yul\":9271:9380   */\n    tag_557:\n        /* \"#utility.yul\":9352:9373   */\n      tag_559\n        /* \"#utility.yul\":9367:9372   */\n      dup2\n        /* \"#utility.yul\":9352:9373   */\n      tag_560\n      jump\t// in\n    tag_559:\n        /* \"#utility.yul\":9347:9350   */\n      dup3\n        /* \"#utility.yul\":9340:9374   */\n      mstore\n        /* \"#utility.yul\":9330:9380   */\n      pop\n      pop\n      jump\t// out\n        /* \"#utility.yul\":9386:9759   */\n    tag_561:\n        /* \"#utility.yul\":9490:9493   */\n      0x00\n        /* \"#utility.yul\":9518:9556   */\n      tag_563\n        /* \"#utility.yul\":9550:9555   */\n      dup3\n        /* \"#utility.yul\":9518:9556   */\n      tag_564\n      jump\t// in\n    tag_563:\n        /* \"#utility.yul\":9572:9660   */\n      tag_565\n        /* \"#utility.yul\":9653:9659   */\n      dup2\n        /* \"#utility.yul\":9648:9651   */\n      dup6\n        /* \"#utility.yul\":9572:9660   */\n      tag_566\n      jump\t// in\n    tag_565:\n        /* \"#utility.yul\":9565:9660   */\n      swap4\n      pop\n        /* \"#utility.yul\":9669:9721   */\n      tag_567\n        /* \"#utility.yul\":9714:9720   */\n      dup2\n        /* \"#utility.yul\":9709:9712   */\n      dup6\n        /* \"#utility.yul\":9702:9706   */\n      0x20\n        /* \"#utility.yul\":9695:9700   */\n      dup7\n        /* \"#utility.yul\":9691:9707   */\n      add\n        /* \"#utility.yul\":9669:9721   */\n      tag_568\n      jump\t// in\n    tag_567:\n        /* \"#utility.yul\":9746:9752   */\n      dup1\n        /* \"#utility.yul\":9741:9744   */\n      dup5\n        /* \"#utility.yul\":9737:9753   */\n      add\n        /* \"#utility.yul\":9730:9753   */\n      swap2\n      pop\n        /* \"#utility.yul\":9494:9759   */\n      pop\n      swap3\n      swap2\n      pop\n      pop\n      jump\t// out\n        /* \"#utility.yul\":9765:10109   */\n    tag_569:\n        /* \"#utility.yul\":9843:9846   */\n      0x00\n        /* \"#utility.yul\":9871:9910   */\n      tag_571\n        /* \"#utility.yul\":9904:9909   */\n      dup3\n        /* \"#utility.yul\":9871:9910   */\n      tag_572\n      jump\t// in\n    tag_571:\n        /* \"#utility.yul\":9926:9987   */\n      tag_573\n        /* \"#utility.yul\":9980:9986   */\n      dup2\n        /* \"#utility.yul\":9975:9978   */\n      dup6\n        /* \"#utility.yul\":9926:9987   */\n      tag_574\n      jump\t// in\n    tag_573:\n        /* \"#utility.yul\":9919:9987   */\n      swap4\n      pop\n        /* \"#utility.yul\":9996:10048   */\n      tag_575\n        /* \"#utility.yul\":10041:10047   */\n      dup2\n        /* \"#utility.yul\":10036:10039   */\n      dup6\n        /* \"#utility.yul\":10029:10033   */\n      0x20\n        /* \"#utility.yul\":10022:10027   */\n      dup7\n        /* \"#utility.yul\":10018:10034   */\n      add\n        /* \"#utility.yul\":9996:10048   */\n      tag_568\n      jump\t// in\n    tag_575:\n        /* \"#utility.yul\":10073:10102   */\n      tag_576\n        /* \"#utility.yul\":10095:10101   */\n      dup2\n        /* \"#utility.yul\":10073:10102   */\n      tag_577\n      jump\t// in\n    tag_576:\n        /* \"#utility.yul\":10068:10071   */\n      dup5\n        /* \"#utility.yul\":10064:10103   */\n      add\n        /* \"#utility.yul\":10057:10103   */\n      swap2\n      pop\n        /* \"#utility.yul\":9847:10109   */\n      pop\n      swap3\n      swap2\n      pop\n      pop\n      jump\t// out\n        /* \"#utility.yul\":10115:10479   */\n    tag_578:\n        /* \"#utility.yul\":10203:10206   */\n      0x00\n        /* \"#utility.yul\":10231:10270   */\n      tag_580\n        /* \"#utility.yul\":10264:10269   */\n      dup3\n        /* \"#utility.yul\":10231:10270   */\n      tag_572\n      jump\t// in\n    tag_580:\n        /* \"#utility.yul\":10286:10357   */\n      tag_581\n        /* \"#utility.yul\":10350:10356   */\n      dup2\n        /* \"#utility.yul\":10345:10348   */\n      dup6\n        /* \"#utility.yul\":10286:10357   */\n      tag_582\n      jump\t// in\n    tag_581:\n        /* \"#utility.yul\":10279:10357   */\n      swap4\n      pop\n        /* \"#utility.yul\":10366:10418   */\n      tag_583\n        /* \"#utility.yul\":10411:10417   */\n      dup2\n        /* \"#utility.yul\":10406:10409   */\n      dup6\n        /* \"#utility.yul\":10399:10403   */\n      0x20\n        /* \"#utility.yul\":10392:10397   */\n      dup7\n        /* \"#utility.yul\":10388:10404   */\n      add\n        /* \"#utility.yul\":10366:10418   */\n      tag_568\n      jump\t// in\n    tag_583:\n        /* \"#utility.yul\":10443:10472   */\n      tag_584\n        /* \"#utility.yul\":10465:10471   */\n      dup2\n        /* \"#utility.yul\":10443:10472   */\n      tag_577\n      jump\t// in\n    tag_584:\n        /* \"#utility.yul\":10438:10441   */\n      dup5\n        /* \"#utility.yul\":10434:10473   */\n      add\n        /* \"#utility.yul\":10427:10473   */\n      swap2\n      pop\n        /* \"#utility.yul\":10207:10479   */\n      pop\n      swap3\n      swap2\n      pop\n      pop\n      jump\t// out\n        /* \"#utility.yul\":10485:10851   */\n    tag_585:\n        /* \"#utility.yul\":10627:10630   */\n      0x00\n        /* \"#utility.yul\":10648:10715   */\n      tag_587\n        /* \"#utility.yul\":10712:10714   */\n      0x11\n        /* \"#utility.yul\":10707:10710   */\n      dup4\n        /* \"#utility.yul\":10648:10715   */\n      tag_582\n      jump\t// in\n    tag_587:\n        /* \"#utility.yul\":10641:10715   */\n      swap2\n      pop\n        /* \"#utility.yul\":10724:10817   */\n      tag_588\n        /* \"#utility.yul\":10813:10816   */\n      dup3\n        /* \"#utility.yul\":10724:10817   */\n      tag_589\n      jump\t// in\n    tag_588:\n        /* \"#utility.yul\":10842:10844   */\n      0x20\n        /* \"#utility.yul\":10837:10840   */\n      dup3\n        /* \"#utility.yul\":10833:10845   */\n      add\n        /* \"#utility.yul\":10826:10845   */\n      swap1\n      pop\n        /* \"#utility.yul\":10631:10851   */\n      swap2\n      swap1\n      pop\n      jump\t// out\n        /* \"#utility.yul\":10857:11223   */\n    tag_590:\n        /* \"#utility.yul\":10999:11002   */\n      0x00\n        /* \"#utility.yul\":11020:11087   */\n      tag_592\n        /* \"#utility.yul\":11084:11086   */\n      0x23\n        /* \"#utility.yul\":11079:11082   */\n      dup4\n        /* \"#utility.yul\":11020:11087   */\n      tag_582\n      jump\t// in\n    tag_592:\n        /* \"#utility.yul\":11013:11087   */\n      swap2\n      pop\n        /* \"#utility.yul\":11096:11189   */\n      tag_593\n        /* \"#utility.yul\":11185:11188   */\n      dup3\n        /* \"#utility.yul\":11096:11189   */\n      tag_594\n      jump\t// in\n    tag_593:\n        /* \"#utility.yul\":11214:11216   */\n      0x40\n        /* \"#utility.yul\":11209:11212   */\n      dup3\n        /* \"#utility.yul\":11205:11217   */\n      add\n        /* \"#utility.yul\":11198:11217   */\n      swap1\n      pop\n        /* \"#utility.yul\":11003:11223   */\n      swap2\n      swap1\n      pop\n      jump\t// out\n        /* \"#utility.yul\":11229:11595   */\n    tag_595:\n        /* \"#utility.yul\":11371:11374   */\n      0x00\n        /* \"#utility.yul\":11392:11459   */\n      tag_597\n        /* \"#utility.yul\":11456:11458   */\n      0x0d\n        /* \"#utility.yul\":11451:11454   */\n      dup4\n        /* \"#utility.yul\":11392:11459   */\n      tag_582\n      jump\t// in\n    tag_597:\n        /* \"#utility.yul\":11385:11459   */\n      swap2\n      pop\n        /* \"#utility.yul\":11468:11561   */\n      tag_598\n        /* \"#utility.yul\":11557:11560   */\n      dup3\n        /* \"#utility.yul\":11468:11561   */\n      tag_599\n      jump\t// in\n    tag_598:\n        /* \"#utility.yul\":11586:11588   */\n      0x20\n        /* \"#utility.yul\":11581:11584   */\n      dup3\n        /* \"#utility.yul\":11577:11589   */\n      add\n        /* \"#utility.yul\":11570:11589   */\n      swap1\n      pop\n        /* \"#utility.yul\":11375:11595   */\n      swap2\n      swap1\n      pop\n      jump\t// out\n        /* \"#utility.yul\":11601:11967   */\n    tag_600:\n        /* \"#utility.yul\":11743:11746   */\n      0x00\n        /* \"#utility.yul\":11764:11831   */\n      tag_602\n        /* \"#utility.yul\":11828:11830   */\n      0x26\n        /* \"#utility.yul\":11823:11826   */\n      dup4\n        /* \"#utility.yul\":11764:11831   */\n      tag_582\n      jump\t// in\n    tag_602:\n        /* \"#utility.yul\":11757:11831   */\n      swap2\n      pop\n        /* \"#utility.yul\":11840:11933   */\n      tag_603\n        /* \"#utility.yul\":11929:11932   */\n      dup3\n        /* \"#utility.yul\":11840:11933   */\n      tag_604\n      jump\t// in\n    tag_603:\n        /* \"#utility.yul\":11958:11960   */\n      0x40\n        /* \"#utility.yul\":11953:11956   */\n      dup3\n        /* \"#utility.yul\":11949:11961   */\n      add\n        /* \"#utility.yul\":11942:11961   */\n      swap1\n      pop\n        /* \"#utility.yul\":11747:11967   */\n      swap2\n      swap1\n      pop\n      jump\t// out\n        /* \"#utility.yul\":11973:12339   */\n    tag_605:\n        /* \"#utility.yul\":12115:12118   */\n      0x00\n        /* \"#utility.yul\":12136:12203   */\n      tag_607\n        /* \"#utility.yul\":12200:12202   */\n      0x22\n        /* \"#utility.yul\":12195:12198   */\n      dup4\n        /* \"#utility.yul\":12136:12203   */\n      tag_582\n      jump\t// in\n    tag_607:\n        /* \"#utility.yul\":12129:12203   */\n      swap2\n      pop\n        /* \"#utility.yul\":12212:12305   */\n      tag_608\n        /* \"#utility.yul\":12301:12304   */\n      dup3\n        /* \"#utility.yul\":12212:12305   */\n      tag_609\n      jump\t// in\n    tag_608:\n        /* \"#utility.yul\":12330:12332   */\n      0x40\n        /* \"#utility.yul\":12325:12328   */\n      dup3\n        /* \"#utility.yul\":12321:12333   */\n      add\n        /* \"#utility.yul\":12314:12333   */\n      swap1\n      pop\n        /* \"#utility.yul\":12119:12339   */\n      swap2\n      swap1\n      pop\n      jump\t// out\n        /* \"#utility.yul\":12345:12711   */\n    tag_610:\n        /* \"#utility.yul\":12487:12490   */\n      0x00\n        /* \"#utility.yul\":12508:12575   */\n      tag_612\n        /* \"#utility.yul\":12572:12574   */\n      0x10\n        /* \"#utility.yul\":12567:12570   */\n      dup4\n        /* \"#utility.yul\":12508:12575   */\n      tag_582\n      jump\t// in\n    tag_612:\n        /* \"#utility.yul\":12501:12575   */\n      swap2\n      pop\n        /* \"#utility.yul\":12584:12677   */\n      tag_613\n        /* \"#utility.yul\":12673:12676   */\n      dup3\n        /* \"#utility.yul\":12584:12677   */\n      tag_614\n      jump\t// in\n    tag_613:\n        /* \"#utility.yul\":12702:12704   */\n      0x20\n        /* \"#utility.yul\":12697:12700   */\n      dup3\n        /* \"#utility.yul\":12693:12705   */\n      add\n        /* \"#utility.yul\":12686:12705   */\n      swap1\n      pop\n        /* \"#utility.yul\":12491:12711   */\n      swap2\n      swap1\n      pop\n      jump\t// out\n        /* \"#utility.yul\":12717:13083   */\n    tag_615:\n        /* \"#utility.yul\":12859:12862   */\n      0x00\n        /* \"#utility.yul\":12880:12947   */\n      tag_617\n        /* \"#utility.yul\":12944:12946   */\n      0x0f\n        /* \"#utility.yul\":12939:12942   */\n      dup4\n        /* \"#utility.yul\":12880:12947   */\n      tag_582\n      jump\t// in\n    tag_617:\n        /* \"#utility.yul\":12873:12947   */\n      swap2\n      pop\n        /* \"#utility.yul\":12956:13049   */\n      tag_618\n        /* \"#utility.yul\":13045:13048   */\n      dup3\n        /* \"#utility.yul\":12956:13049   */\n      tag_619\n      jump\t// in\n    tag_618:\n        /* \"#utility.yul\":13074:13076   */\n      0x20\n        /* \"#utility.yul\":13069:13072   */\n      dup3\n        /* \"#utility.yul\":13065:13077   */\n      add\n        /* \"#utility.yul\":13058:13077   */\n      swap1\n      pop\n        /* \"#utility.yul\":12863:13083   */\n      swap2\n      swap1\n      pop\n      jump\t// out\n        /* \"#utility.yul\":13089:13455   */\n    tag_620:\n        /* \"#utility.yul\":13231:13234   */\n      0x00\n        /* \"#utility.yul\":13252:13319   */\n      tag_622\n        /* \"#utility.yul\":13316:13318   */\n      0x1f\n        /* \"#utility.yul\":13311:13314   */\n      dup4\n        /* \"#utility.yul\":13252:13319   */\n      tag_582\n      jump\t// in\n    tag_622:\n        /* \"#utility.yul\":13245:13319   */\n      swap2\n      pop\n        /* \"#utility.yul\":13328:13421   */\n      tag_623\n        /* \"#utility.yul\":13417:13420   */\n      dup3\n        /* \"#utility.yul\":13328:13421   */\n      tag_624\n      jump\t// in\n    tag_623:\n        /* \"#utility.yul\":13446:13448   */\n      0x20\n        /* \"#utility.yul\":13441:13444   */\n      dup3\n        /* \"#utility.yul\":13437:13449   */\n      add\n        /* \"#utility.yul\":13430:13449   */\n      swap1\n      pop\n        /* \"#utility.yul\":13235:13455   */\n      swap2\n      swap1\n      pop\n      jump\t// out\n        /* \"#utility.yul\":13461:13827   */\n    tag_625:\n        /* \"#utility.yul\":13603:13606   */\n      0x00\n        /* \"#utility.yul\":13624:13691   */\n      tag_627\n        /* \"#utility.yul\":13688:13690   */\n      0x11\n        /* \"#utility.yul\":13683:13686   */\n      dup4\n        /* \"#utility.yul\":13624:13691   */\n      tag_582\n      jump\t// in\n    tag_627:\n        /* \"#utility.yul\":13617:13691   */\n      swap2\n      pop\n        /* \"#utility.yul\":13700:13793   */\n      tag_628\n        /* \"#utility.yul\":13789:13792   */\n      dup3\n        /* \"#utility.yul\":13700:13793   */\n      tag_629\n      jump\t// in\n    tag_628:\n        /* \"#utility.yul\":13818:13820   */\n      0x20\n        /* \"#utility.yul\":13813:13816   */\n      dup3\n        /* \"#utility.yul\":13809:13821   */\n      add\n        /* \"#utility.yul\":13802:13821   */\n      swap1\n      pop\n        /* \"#utility.yul\":13607:13827   */\n      swap2\n      swap1\n      pop\n      jump\t// out\n        /* \"#utility.yul\":13833:14199   */\n    tag_630:\n        /* \"#utility.yul\":13975:13978   */\n      0x00\n        /* \"#utility.yul\":13996:14063   */\n      tag_632\n        /* \"#utility.yul\":14060:14062   */\n      0x1d\n        /* \"#utility.yul\":14055:14058   */\n      dup4\n        /* \"#utility.yul\":13996:14063   */\n      tag_582\n      jump\t// in\n    tag_632:\n        /* \"#utility.yul\":13989:14063   */\n      swap2\n      pop\n        /* \"#utility.yul\":14072:14165   */\n      tag_633\n        /* \"#utility.yul\":14161:14164   */\n      dup3\n        /* \"#utility.yul\":14072:14165   */\n      tag_634\n      jump\t// in\n    tag_633:\n        /* \"#utility.yul\":14190:14192   */\n      0x20\n        /* \"#utility.yul\":14185:14188   */\n      dup3\n        /* \"#utility.yul\":14181:14193   */\n      add\n        /* \"#utility.yul\":14174:14193   */\n      swap1\n      pop\n        /* \"#utility.yul\":13979:14199   */\n      swap2\n      swap1\n      pop\n      jump\t// out\n        /* \"#utility.yul\":14205:14571   */\n    tag_635:\n        /* \"#utility.yul\":14347:14350   */\n      0x00\n        /* \"#utility.yul\":14368:14435   */\n      tag_637\n        /* \"#utility.yul\":14432:14434   */\n      0x31\n        /* \"#utility.yul\":14427:14430   */\n      dup4\n        /* \"#utility.yul\":14368:14435   */\n      tag_582\n      jump\t// in\n    tag_637:\n        /* \"#utility.yul\":14361:14435   */\n      swap2\n      pop\n        /* \"#utility.yul\":14444:14537   */\n      tag_638\n        /* \"#utility.yul\":14533:14536   */\n      dup3\n        /* \"#utility.yul\":14444:14537   */\n      tag_639\n      jump\t// in\n    tag_638:\n        /* \"#utility.yul\":14562:14564   */\n      0x40\n        /* \"#utility.yul\":14557:14560   */\n      dup3\n        /* \"#utility.yul\":14553:14565   */\n      add\n        /* \"#utility.yul\":14546:14565   */\n      swap1\n      pop\n        /* \"#utility.yul\":14351:14571   */\n      swap2\n      swap1\n      pop\n      jump\t// out\n        /* \"#utility.yul\":14577:14943   */\n    tag_640:\n        /* \"#utility.yul\":14719:14722   */\n      0x00\n        /* \"#utility.yul\":14740:14807   */\n      tag_642\n        /* \"#utility.yul\":14804:14806   */\n      0x2a\n        /* \"#utility.yul\":14799:14802   */\n      dup4\n        /* \"#utility.yul\":14740:14807   */\n      tag_582\n      jump\t// in\n    tag_642:\n        /* \"#utility.yul\":14733:14807   */\n      swap2\n      pop\n        /* \"#utility.yul\":14816:14909   */\n      tag_643\n        /* \"#utility.yul\":14905:14908   */\n      dup3\n        /* \"#utility.yul\":14816:14909   */\n      tag_644\n      jump\t// in\n    tag_643:\n        /* \"#utility.yul\":14934:14936   */\n      0x40\n        /* \"#utility.yul\":14929:14932   */\n      dup3\n        /* \"#utility.yul\":14925:14937   */\n      add\n        /* \"#utility.yul\":14918:14937   */\n      swap1\n      pop\n        /* \"#utility.yul\":14723:14943   */\n      swap2\n      swap1\n      pop\n      jump\t// out\n        /* \"#utility.yul\":14949:15315   */\n    tag_645:\n        /* \"#utility.yul\":15091:15094   */\n      0x00\n        /* \"#utility.yul\":15112:15179   */\n      tag_647\n        /* \"#utility.yul\":15176:15178   */\n      0x18\n        /* \"#utility.yul\":15171:15174   */\n      dup4\n        /* \"#utility.yul\":15112:15179   */\n      tag_582\n      jump\t// in\n    tag_647:\n        /* \"#utility.yul\":15105:15179   */\n      swap2\n      pop\n        /* \"#utility.yul\":15188:15281   */\n      tag_648\n        /* \"#utility.yul\":15277:15280   */\n      dup3\n        /* \"#utility.yul\":15188:15281   */\n      tag_649\n      jump\t// in\n    tag_648:\n        /* \"#utility.yul\":15306:15308   */\n      0x20\n        /* \"#utility.yul\":15301:15304   */\n      dup3\n        /* \"#utility.yul\":15297:15309   */\n      add\n        /* \"#utility.yul\":15290:15309   */\n      swap1\n      pop\n        /* \"#utility.yul\":15095:15315   */\n      swap2\n      swap1\n      pop\n      jump\t// out\n        /* \"#utility.yul\":15321:15687   */\n    tag_650:\n        /* \"#utility.yul\":15463:15466   */\n      0x00\n        /* \"#utility.yul\":15484:15551   */\n      tag_652\n        /* \"#utility.yul\":15548:15550   */\n      0x44\n        /* \"#utility.yul\":15543:15546   */\n      dup4\n        /* \"#utility.yul\":15484:15551   */\n      tag_582\n      jump\t// in\n    tag_652:\n        /* \"#utility.yul\":15477:15551   */\n      swap2\n      pop\n        /* \"#utility.yul\":15560:15653   */\n      tag_653\n        /* \"#utility.yul\":15649:15652   */\n      dup3\n        /* \"#utility.yul\":15560:15653   */\n      tag_654\n      jump\t// in\n    tag_653:\n        /* \"#utility.yul\":15678:15680   */\n      0x60\n        /* \"#utility.yul\":15673:15676   */\n      dup3\n        /* \"#utility.yul\":15669:15681   */\n      add\n        /* \"#utility.yul\":15662:15681   */\n      swap1\n      pop\n        /* \"#utility.yul\":15467:15687   */\n      swap2\n      swap1\n      pop\n      jump\t// out\n        /* \"#utility.yul\":15693:16059   */\n    tag_655:\n        /* \"#utility.yul\":15835:15838   */\n      0x00\n        /* \"#utility.yul\":15856:15923   */\n      tag_657\n        /* \"#utility.yul\":15920:15922   */\n      0x1f\n        /* \"#utility.yul\":15915:15918   */\n      dup4\n        /* \"#utility.yul\":15856:15923   */\n      tag_582\n      jump\t// in\n    tag_657:\n        /* \"#utility.yul\":15849:15923   */\n      swap2\n      pop\n        /* \"#utility.yul\":15932:16025   */\n      tag_658\n        /* \"#utility.yul\":16021:16024   */\n      dup3\n        /* \"#utility.yul\":15932:16025   */\n      tag_659\n      jump\t// in\n    tag_658:\n        /* \"#utility.yul\":16050:16052   */\n      0x20\n        /* \"#utility.yul\":16045:16048   */\n      dup3\n        /* \"#utility.yul\":16041:16053   */\n      add\n        /* \"#utility.yul\":16034:16053   */\n      swap1\n      pop\n        /* \"#utility.yul\":15839:16059   */\n      swap2\n      swap1\n      pop\n      jump\t// out\n        /* \"#utility.yul\":16149:16671   */\n    tag_517:\n        /* \"#utility.yul\":16308:16312   */\n      0x40\n        /* \"#utility.yul\":16303:16306   */\n      dup3\n        /* \"#utility.yul\":16299:16313   */\n      add\n        /* \"#utility.yul\":16396:16400   */\n      0x00\n        /* \"#utility.yul\":16389:16394   */\n      dup3\n        /* \"#utility.yul\":16385:16401   */\n      add\n        /* \"#utility.yul\":16379:16402   */\n      mload\n        /* \"#utility.yul\":16415:16478   */\n      tag_661\n        /* \"#utility.yul\":16472:16476   */\n      0x00\n        /* \"#utility.yul\":16467:16470   */\n      dup6\n        /* \"#utility.yul\":16463:16477   */\n      add\n        /* \"#utility.yul\":16449:16461   */\n      dup3\n        /* \"#utility.yul\":16415:16478   */\n      tag_522\n      jump\t// in\n    tag_661:\n        /* \"#utility.yul\":16323:16488   */\n      pop\n        /* \"#utility.yul\":16572:16576   */\n      0x20\n        /* \"#utility.yul\":16565:16570   */\n      dup3\n        /* \"#utility.yul\":16561:16577   */\n      add\n        /* \"#utility.yul\":16555:16578   */\n      mload\n        /* \"#utility.yul\":16591:16654   */\n      tag_662\n        /* \"#utility.yul\":16648:16652   */\n      0x20\n        /* \"#utility.yul\":16643:16646   */\n      dup6\n        /* \"#utility.yul\":16639:16653   */\n      add\n        /* \"#utility.yul\":16625:16637   */\n      dup3\n        /* \"#utility.yul\":16591:16654   */\n      tag_663\n      jump\t// in\n    tag_662:\n        /* \"#utility.yul\":16498:16664   */\n      pop\n        /* \"#utility.yul\":16277:16671   */\n      pop\n      pop\n      pop\n      jump\t// out\n        /* \"#utility.yul\":16761:17293   */\n    tag_664:\n        /* \"#utility.yul\":16930:16934   */\n      0x40\n        /* \"#utility.yul\":16925:16928   */\n      dup3\n        /* \"#utility.yul\":16921:16935   */\n      add\n        /* \"#utility.yul\":17018:17022   */\n      0x00\n        /* \"#utility.yul\":17011:17016   */\n      dup3\n        /* \"#utility.yul\":17007:17023   */\n      add\n        /* \"#utility.yul\":17001:17024   */\n      mload\n        /* \"#utility.yul\":17037:17100   */\n      tag_666\n        /* \"#utility.yul\":17094:17098   */\n      0x00\n        /* \"#utility.yul\":17089:17092   */\n      dup6\n        /* \"#utility.yul\":17085:17099   */\n      add\n        /* \"#utility.yul\":17071:17083   */\n      dup3\n        /* \"#utility.yul\":17037:17100   */\n      tag_522\n      jump\t// in\n    tag_666:\n        /* \"#utility.yul\":16945:17110   */\n      pop\n        /* \"#utility.yul\":17194:17198   */\n      0x20\n        /* \"#utility.yul\":17187:17192   */\n      dup3\n        /* \"#utility.yul\":17183:17199   */\n      add\n        /* \"#utility.yul\":17177:17200   */\n      mload\n        /* \"#utility.yul\":17213:17276   */\n      tag_667\n        /* \"#utility.yul\":17270:17274   */\n      0x20\n        /* \"#utility.yul\":17265:17268   */\n      dup6\n        /* \"#utility.yul\":17261:17275   */\n      add\n        /* \"#utility.yul\":17247:17259   */\n      dup3\n        /* \"#utility.yul\":17213:17276   */\n      tag_663\n      jump\t// in\n    tag_667:\n        /* \"#utility.yul\":17120:17286   */\n      pop\n        /* \"#utility.yul\":16899:17293   */\n      pop\n      pop\n      pop\n      jump\t// out\n        /* \"#utility.yul\":17355:19020   */\n    tag_521:\n        /* \"#utility.yul\":17458:17461   */\n      0x00\n        /* \"#utility.yul\":17494:17500   */\n      0x0100\n        /* \"#utility.yul\":17489:17492   */\n      dup4\n        /* \"#utility.yul\":17485:17501   */\n      add\n        /* \"#utility.yul\":17581:17585   */\n      0x00\n        /* \"#utility.yul\":17574:17579   */\n      dup4\n        /* \"#utility.yul\":17570:17586   */\n      add\n        /* \"#utility.yul\":17564:17587   */\n      mload\n        /* \"#utility.yul\":17600:17663   */\n      tag_669\n        /* \"#utility.yul\":17657:17661   */\n      0x00\n        /* \"#utility.yul\":17652:17655   */\n      dup7\n        /* \"#utility.yul\":17648:17662   */\n      add\n        /* \"#utility.yul\":17634:17646   */\n      dup3\n        /* \"#utility.yul\":17600:17663   */\n      tag_663\n      jump\t// in\n    tag_669:\n        /* \"#utility.yul\":17511:17673   */\n      pop\n        /* \"#utility.yul\":17756:17760   */\n      0x20\n        /* \"#utility.yul\":17749:17754   */\n      dup4\n        /* \"#utility.yul\":17745:17761   */\n      add\n        /* \"#utility.yul\":17739:17762   */\n      mload\n        /* \"#utility.yul\":17775:17838   */\n      tag_670\n        /* \"#utility.yul\":17832:17836   */\n      0x20\n        /* \"#utility.yul\":17827:17830   */\n      dup7\n        /* \"#utility.yul\":17823:17837   */\n      add\n        /* \"#utility.yul\":17809:17821   */\n      dup3\n        /* \"#utility.yul\":17775:17838   */\n      tag_522\n      jump\t// in\n    tag_670:\n        /* \"#utility.yul\":17683:17848   */\n      pop\n        /* \"#utility.yul\":17931:17935   */\n      0x40\n        /* \"#utility.yul\":17924:17929   */\n      dup4\n        /* \"#utility.yul\":17920:17936   */\n      add\n        /* \"#utility.yul\":17914:17937   */\n      mload\n        /* \"#utility.yul\":17950:18013   */\n      tag_671\n        /* \"#utility.yul\":18007:18011   */\n      0x40\n        /* \"#utility.yul\":18002:18005   */\n      dup7\n        /* \"#utility.yul\":17998:18012   */\n      add\n        /* \"#utility.yul\":17984:17996   */\n      dup3\n        /* \"#utility.yul\":17950:18013   */\n      tag_522\n      jump\t// in\n    tag_671:\n        /* \"#utility.yul\":17858:18023   */\n      pop\n        /* \"#utility.yul\":18107:18111   */\n      0x60\n        /* \"#utility.yul\":18100:18105   */\n      dup4\n        /* \"#utility.yul\":18096:18112   */\n      add\n        /* \"#utility.yul\":18090:18113   */\n      mload\n        /* \"#utility.yul\":18126:18189   */\n      tag_672\n        /* \"#utility.yul\":18183:18187   */\n      0x60\n        /* \"#utility.yul\":18178:18181   */\n      dup7\n        /* \"#utility.yul\":18174:18188   */\n      add\n        /* \"#utility.yul\":18160:18172   */\n      dup3\n        /* \"#utility.yul\":18126:18189   */\n      tag_663\n      jump\t// in\n    tag_672:\n        /* \"#utility.yul\":18033:18199   */\n      pop\n        /* \"#utility.yul\":18285:18289   */\n      0x80\n        /* \"#utility.yul\":18278:18283   */\n      dup4\n        /* \"#utility.yul\":18274:18290   */\n      add\n        /* \"#utility.yul\":18268:18291   */\n      mload\n        /* \"#utility.yul\":18304:18367   */\n      tag_673\n        /* \"#utility.yul\":18361:18365   */\n      0x80\n        /* \"#utility.yul\":18356:18359   */\n      dup7\n        /* \"#utility.yul\":18352:18366   */\n      add\n        /* \"#utility.yul\":18338:18350   */\n      dup3\n        /* \"#utility.yul\":18304:18367   */\n      tag_663\n      jump\t// in\n    tag_673:\n        /* \"#utility.yul\":18209:18377   */\n      pop\n        /* \"#utility.yul\":18465:18469   */\n      0xa0\n        /* \"#utility.yul\":18458:18463   */\n      dup4\n        /* \"#utility.yul\":18454:18470   */\n      add\n        /* \"#utility.yul\":18448:18471   */\n      mload\n        /* \"#utility.yul\":18484:18547   */\n      tag_674\n        /* \"#utility.yul\":18541:18545   */\n      0xa0\n        /* \"#utility.yul\":18536:18539   */\n      dup7\n        /* \"#utility.yul\":18532:18546   */\n      add\n        /* \"#utility.yul\":18518:18530   */\n      dup3\n        /* \"#utility.yul\":18484:18547   */\n      tag_663\n      jump\t// in\n    tag_674:\n        /* \"#utility.yul\":18387:18557   */\n      pop\n        /* \"#utility.yul\":18649:18653   */\n      0xc0\n        /* \"#utility.yul\":18642:18647   */\n      dup4\n        /* \"#utility.yul\":18638:18654   */\n      add\n        /* \"#utility.yul\":18632:18655   */\n      mload\n        /* \"#utility.yul\":18668:18731   */\n      tag_675\n        /* \"#utility.yul\":18725:18729   */\n      0xc0\n        /* \"#utility.yul\":18720:18723   */\n      dup7\n        /* \"#utility.yul\":18716:18730   */\n      add\n        /* \"#utility.yul\":18702:18714   */\n      dup3\n        /* \"#utility.yul\":18668:18731   */\n      tag_663\n      jump\t// in\n    tag_675:\n        /* \"#utility.yul\":18567:18741   */\n      pop\n        /* \"#utility.yul\":18830:18834   */\n      0xe0\n        /* \"#utility.yul\":18823:18828   */\n      dup4\n        /* \"#utility.yul\":18819:18835   */\n      add\n        /* \"#utility.yul\":18813:18836   */\n      mload\n        /* \"#utility.yul\":18883:18886   */\n      dup5\n        /* \"#utility.yul\":18877:18881   */\n      dup3\n        /* \"#utility.yul\":18873:18887   */\n      sub\n        /* \"#utility.yul\":18866:18870   */\n      0xe0\n        /* \"#utility.yul\":18861:18864   */\n      dup7\n        /* \"#utility.yul\":18857:18871   */\n      add\n        /* \"#utility.yul\":18850:18888   */\n      mstore\n        /* \"#utility.yul\":18909:18982   */\n      tag_676\n        /* \"#utility.yul\":18977:18981   */\n      dup3\n        /* \"#utility.yul\":18963:18975   */\n      dup3\n        /* \"#utility.yul\":18909:18982   */\n      tag_569\n      jump\t// in\n    tag_676:\n        /* \"#utility.yul\":18901:18982   */\n      swap2\n      pop\n        /* \"#utility.yul\":18751:18993   */\n      pop\n        /* \"#utility.yul\":19010:19014   */\n      dup1\n        /* \"#utility.yul\":19003:19014   */\n      swap2\n      pop\n        /* \"#utility.yul\":17463:19020   */\n      pop\n      swap3\n      swap2\n      pop\n      pop\n      jump\t// out\n        /* \"#utility.yul\":19082:20757   */\n    tag_677:\n        /* \"#utility.yul\":19195:19198   */\n      0x00\n        /* \"#utility.yul\":19231:19237   */\n      0x0100\n        /* \"#utility.yul\":19226:19229   */\n      dup4\n        /* \"#utility.yul\":19222:19238   */\n      add\n        /* \"#utility.yul\":19318:19322   */\n      0x00\n        /* \"#utility.yul\":19311:19316   */\n      dup4\n        /* \"#utility.yul\":19307:19323   */\n      add\n        /* \"#utility.yul\":19301:19324   */\n      mload\n        /* \"#utility.yul\":19337:19400   */\n      tag_679\n        /* \"#utility.yul\":19394:19398   */\n      0x00\n        /* \"#utility.yul\":19389:19392   */\n      dup7\n        /* \"#utility.yul\":19385:19399   */\n      add\n        /* \"#utility.yul\":19371:19383   */\n      dup3\n        /* \"#utility.yul\":19337:19400   */\n      tag_663\n      jump\t// in\n    tag_679:\n        /* \"#utility.yul\":19248:19410   */\n      pop\n        /* \"#utility.yul\":19493:19497   */\n      0x20\n        /* \"#utility.yul\":19486:19491   */\n      dup4\n        /* \"#utility.yul\":19482:19498   */\n      add\n        /* \"#utility.yul\":19476:19499   */\n      mload\n        /* \"#utility.yul\":19512:19575   */\n      tag_680\n        /* \"#utility.yul\":19569:19573   */\n      0x20\n        /* \"#utility.yul\":19564:19567   */\n      dup7\n        /* \"#utility.yul\":19560:19574   */\n      add\n        /* \"#utility.yul\":19546:19558   */\n      dup3\n        /* \"#utility.yul\":19512:19575   */\n      tag_522\n      jump\t// in\n    tag_680:\n        /* \"#utility.yul\":19420:19585   */\n      pop\n        /* \"#utility.yul\":19668:19672   */\n      0x40\n        /* \"#utility.yul\":19661:19666   */\n      dup4\n        /* \"#utility.yul\":19657:19673   */\n      add\n        /* \"#utility.yul\":19651:19674   */\n      mload\n        /* \"#utility.yul\":19687:19750   */\n      tag_681\n        /* \"#utility.yul\":19744:19748   */\n      0x40\n        /* \"#utility.yul\":19739:19742   */\n      dup7\n        /* \"#utility.yul\":19735:19749   */\n      add\n        /* \"#utility.yul\":19721:19733   */\n      dup3\n        /* \"#utility.yul\":19687:19750   */\n      tag_522\n      jump\t// in\n    tag_681:\n        /* \"#utility.yul\":19595:19760   */\n      pop\n        /* \"#utility.yul\":19844:19848   */\n      0x60\n        /* \"#utility.yul\":19837:19842   */\n      dup4\n        /* \"#utility.yul\":19833:19849   */\n      add\n        /* \"#utility.yul\":19827:19850   */\n      mload\n        /* \"#utility.yul\":19863:19926   */\n      tag_682\n        /* \"#utility.yul\":19920:19924   */\n      0x60\n        /* \"#utility.yul\":19915:19918   */\n      dup7\n        /* \"#utility.yul\":19911:19925   */\n      add\n        /* \"#utility.yul\":19897:19909   */\n      dup3\n        /* \"#utility.yul\":19863:19926   */\n      tag_663\n      jump\t// in\n    tag_682:\n        /* \"#utility.yul\":19770:19936   */\n      pop\n        /* \"#utility.yul\":20022:20026   */\n      0x80\n        /* \"#utility.yul\":20015:20020   */\n      dup4\n        /* \"#utility.yul\":20011:20027   */\n      add\n        /* \"#utility.yul\":20005:20028   */\n      mload\n        /* \"#utility.yul\":20041:20104   */\n      tag_683\n        /* \"#utility.yul\":20098:20102   */\n      0x80\n        /* \"#utility.yul\":20093:20096   */\n      dup7\n        /* \"#utility.yul\":20089:20103   */\n      add\n        /* \"#utility.yul\":20075:20087   */\n      dup3\n        /* \"#utility.yul\":20041:20104   */\n      tag_663\n      jump\t// in\n    tag_683:\n        /* \"#utility.yul\":19946:20114   */\n      pop\n        /* \"#utility.yul\":20202:20206   */\n      0xa0\n        /* \"#utility.yul\":20195:20200   */\n      dup4\n        /* \"#utility.yul\":20191:20207   */\n      add\n        /* \"#utility.yul\":20185:20208   */\n      mload\n        /* \"#utility.yul\":20221:20284   */\n      tag_684\n        /* \"#utility.yul\":20278:20282   */\n      0xa0\n        /* \"#utility.yul\":20273:20276   */\n      dup7\n        /* \"#utility.yul\":20269:20283   */\n      add\n        /* \"#utility.yul\":20255:20267   */\n      dup3\n        /* \"#utility.yul\":20221:20284   */\n      tag_663\n      jump\t// in\n    tag_684:\n        /* \"#utility.yul\":20124:20294   */\n      pop\n        /* \"#utility.yul\":20386:20390   */\n      0xc0\n        /* \"#utility.yul\":20379:20384   */\n      dup4\n        /* \"#utility.yul\":20375:20391   */\n      add\n        /* \"#utility.yul\":20369:20392   */\n      mload\n        /* \"#utility.yul\":20405:20468   */\n      tag_685\n        /* \"#utility.yul\":20462:20466   */\n      0xc0\n        /* \"#utility.yul\":20457:20460   */\n      dup7\n        /* \"#utility.yul\":20453:20467   */\n      add\n        /* \"#utility.yul\":20439:20451   */\n      dup3\n        /* \"#utility.yul\":20405:20468   */\n      tag_663\n      jump\t// in\n    tag_685:\n        /* \"#utility.yul\":20304:20478   */\n      pop\n        /* \"#utility.yul\":20567:20571   */\n      0xe0\n        /* \"#utility.yul\":20560:20565   */\n      dup4\n        /* \"#utility.yul\":20556:20572   */\n      add\n        /* \"#utility.yul\":20550:20573   */\n      mload\n        /* \"#utility.yul\":20620:20623   */\n      dup5\n        /* \"#utility.yul\":20614:20618   */\n      dup3\n        /* \"#utility.yul\":20610:20624   */\n      sub\n        /* \"#utility.yul\":20603:20607   */\n      0xe0\n        /* \"#utility.yul\":20598:20601   */\n      dup7\n        /* \"#utility.yul\":20594:20608   */\n      add\n        /* \"#utility.yul\":20587:20625   */\n      mstore\n        /* \"#utility.yul\":20646:20719   */\n      tag_686\n        /* \"#utility.yul\":20714:20718   */\n      dup3\n        /* \"#utility.yul\":20700:20712   */\n      dup3\n        /* \"#utility.yul\":20646:20719   */\n      tag_569\n      jump\t// in\n    tag_686:\n        /* \"#utility.yul\":20638:20719   */\n      swap2\n      pop\n        /* \"#utility.yul\":20488:20730   */\n      pop\n        /* \"#utility.yul\":20747:20751   */\n      dup1\n        /* \"#utility.yul\":20740:20751   */\n      swap2\n      pop\n        /* \"#utility.yul\":19200:20757   */\n      pop\n      swap3\n      swap2\n      pop\n      pop\n      jump\t// out\n        /* \"#utility.yul\":20763:20871   */\n    tag_663:\n        /* \"#utility.yul\":20840:20864   */\n      tag_688\n        /* \"#utility.yul\":20858:20863   */\n      dup2\n        /* \"#utility.yul\":20840:20864   */\n      tag_689\n      jump\t// in\n    tag_688:\n        /* \"#utility.yul\":20835:20838   */\n      dup3\n        /* \"#utility.yul\":20828:20865   */\n      mstore\n        /* \"#utility.yul\":20818:20871   */\n      pop\n      pop\n      jump\t// out\n        /* \"#utility.yul\":20877:20995   */\n    tag_690:\n        /* \"#utility.yul\":20964:20988   */\n      tag_692\n        /* \"#utility.yul\":20982:20987   */\n      dup2\n        /* \"#utility.yul\":20964:20988   */\n      tag_689\n      jump\t// in\n    tag_692:\n        /* \"#utility.yul\":20959:20962   */\n      dup3\n        /* \"#utility.yul\":20952:20989   */\n      mstore\n        /* \"#utility.yul\":20942:20995   */\n      pop\n      pop\n      jump\t// out\n        /* \"#utility.yul\":21001:21272   */\n    tag_405:\n        /* \"#utility.yul\":21131:21134   */\n      0x00\n        /* \"#utility.yul\":21153:21246   */\n      tag_694\n        /* \"#utility.yul\":21242:21245   */\n      dup3\n        /* \"#utility.yul\":21233:21239   */\n      dup5\n        /* \"#utility.yul\":21153:21246   */\n      tag_561\n      jump\t// in\n    tag_694:\n        /* \"#utility.yul\":21146:21246   */\n      swap2\n      pop\n        /* \"#utility.yul\":21263:21266   */\n      dup2\n        /* \"#utility.yul\":21256:21266   */\n      swap1\n      pop\n        /* \"#utility.yul\":21135:21272   */\n      swap3\n      swap2\n      pop\n      pop\n      jump\t// out\n        /* \"#utility.yul\":21278:21500   */\n    tag_316:\n        /* \"#utility.yul\":21371:21375   */\n      0x00\n        /* \"#utility.yul\":21409:21411   */\n      0x20\n        /* \"#utility.yul\":21398:21407   */\n      dup3\n        /* \"#utility.yul\":21394:21412   */\n      add\n        /* \"#utility.yul\":21386:21412   */\n      swap1\n      pop\n        /* \"#utility.yul\":21422:21493   */\n      tag_696\n        /* \"#utility.yul\":21490:21491   */\n      0x00\n        /* \"#utility.yul\":21479:21488   */\n      dup4\n        /* \"#utility.yul\":21475:21492   */\n      add\n        /* \"#utility.yul\":21466:21472   */\n      dup5\n        /* \"#utility.yul\":21422:21493   */\n      tag_526\n      jump\t// in\n    tag_696:\n        /* \"#utility.yul\":21376:21500   */\n      swap3\n      swap2\n      pop\n      pop\n      jump\t// out\n        /* \"#utility.yul\":21506:21948   */\n    tag_373:\n        /* \"#utility.yul\":21655:21659   */\n      0x00\n        /* \"#utility.yul\":21693:21695   */\n      0x60\n        /* \"#utility.yul\":21682:21691   */\n      dup3\n        /* \"#utility.yul\":21678:21696   */\n      add\n        /* \"#utility.yul\":21670:21696   */\n      swap1\n      pop\n        /* \"#utility.yul\":21706:21777   */\n      tag_698\n        /* \"#utility.yul\":21774:21775   */\n      0x00\n        /* \"#utility.yul\":21763:21772   */\n      dup4\n        /* \"#utility.yul\":21759:21776   */\n      add\n        /* \"#utility.yul\":21750:21756   */\n      dup7\n        /* \"#utility.yul\":21706:21777   */\n      tag_526\n      jump\t// in\n    tag_698:\n        /* \"#utility.yul\":21787:21859   */\n      tag_699\n        /* \"#utility.yul\":21855:21857   */\n      0x20\n        /* \"#utility.yul\":21844:21853   */\n      dup4\n        /* \"#utility.yul\":21840:21858   */\n      add\n        /* \"#utility.yul\":21831:21837   */\n      dup6\n        /* \"#utility.yul\":21787:21859   */\n      tag_526\n      jump\t// in\n    tag_699:\n        /* \"#utility.yul\":21869:21941   */\n      tag_700\n        /* \"#utility.yul\":21937:21939   */\n      0x40\n        /* \"#utility.yul\":21926:21935   */\n      dup4\n        /* \"#utility.yul\":21922:21940   */\n      add\n        /* \"#utility.yul\":21913:21919   */\n      dup5\n        /* \"#utility.yul\":21869:21941   */\n      tag_690\n      jump\t// in\n    tag_700:\n        /* \"#utility.yul\":21660:21948   */\n      swap5\n      swap4\n      pop\n      pop\n      pop\n      pop\n      jump\t// out\n        /* \"#utility.yul\":21954:22507   */\n    tag_220:\n        /* \"#utility.yul\":22131:22135   */\n      0x00\n        /* \"#utility.yul\":22169:22172   */\n      0x80\n        /* \"#utility.yul\":22158:22167   */\n      dup3\n        /* \"#utility.yul\":22154:22173   */\n      add\n        /* \"#utility.yul\":22146:22173   */\n      swap1\n      pop\n        /* \"#utility.yul\":22183:22254   */\n      tag_702\n        /* \"#utility.yul\":22251:22252   */\n      0x00\n        /* \"#utility.yul\":22240:22249   */\n      dup4\n        /* \"#utility.yul\":22236:22253   */\n      add\n        /* \"#utility.yul\":22227:22233   */\n      dup8\n        /* \"#utility.yul\":22183:22254   */\n      tag_526\n      jump\t// in\n    tag_702:\n        /* \"#utility.yul\":22264:22336   */\n      tag_703\n        /* \"#utility.yul\":22332:22334   */\n      0x20\n        /* \"#utility.yul\":22321:22330   */\n      dup4\n        /* \"#utility.yul\":22317:22335   */\n      add\n        /* \"#utility.yul\":22308:22314   */\n      dup7\n        /* \"#utility.yul\":22264:22336   */\n      tag_526\n      jump\t// in\n    tag_703:\n        /* \"#utility.yul\":22346:22418   */\n      tag_704\n        /* \"#utility.yul\":22414:22416   */\n      0x40\n        /* \"#utility.yul\":22403:22412   */\n      dup4\n        /* \"#utility.yul\":22399:22417   */\n      add\n        /* \"#utility.yul\":22390:22396   */\n      dup6\n        /* \"#utility.yul\":22346:22418   */\n      tag_690\n      jump\t// in\n    tag_704:\n        /* \"#utility.yul\":22428:22500   */\n      tag_705\n        /* \"#utility.yul\":22496:22498   */\n      0x60\n        /* \"#utility.yul\":22485:22494   */\n      dup4\n        /* \"#utility.yul\":22481:22499   */\n      add\n        /* \"#utility.yul\":22472:22478   */\n      dup5\n        /* \"#utility.yul\":22428:22500   */\n      tag_690\n      jump\t// in\n    tag_705:\n        /* \"#utility.yul\":22136:22507   */\n      swap6\n      swap5\n      pop\n      pop\n      pop\n      pop\n      pop\n      jump\t// out\n        /* \"#utility.yul\":22513:22845   */\n    tag_96:\n        /* \"#utility.yul\":22634:22638   */\n      0x00\n        /* \"#utility.yul\":22672:22674   */\n      0x40\n        /* \"#utility.yul\":22661:22670   */\n      dup3\n        /* \"#utility.yul\":22657:22675   */\n      add\n        /* \"#utility.yul\":22649:22675   */\n      swap1\n      pop\n        /* \"#utility.yul\":22685:22756   */\n      tag_707\n        /* \"#utility.yul\":22753:22754   */\n      0x00\n        /* \"#utility.yul\":22742:22751   */\n      dup4\n        /* \"#utility.yul\":22738:22755   */\n      add\n        /* \"#utility.yul\":22729:22735   */\n      dup6\n        /* \"#utility.yul\":22685:22756   */\n      tag_526\n      jump\t// in\n    tag_707:\n        /* \"#utility.yul\":22766:22838   */\n      tag_708\n        /* \"#utility.yul\":22834:22836   */\n      0x20\n        /* \"#utility.yul\":22823:22832   */\n      dup4\n        /* \"#utility.yul\":22819:22837   */\n      add\n        /* \"#utility.yul\":22810:22816   */\n      dup5\n        /* \"#utility.yul\":22766:22838   */\n      tag_690\n      jump\t// in\n    tag_708:\n        /* \"#utility.yul\":22639:22845   */\n      swap4\n      swap3\n      pop\n      pop\n      pop\n      jump\t// out\n        /* \"#utility.yul\":22851:23368   */\n    tag_65:\n        /* \"#utility.yul\":23066:23070   */\n      0x00\n        /* \"#utility.yul\":23104:23106   */\n      0x20\n        /* \"#utility.yul\":23093:23102   */\n      dup3\n        /* \"#utility.yul\":23089:23107   */\n      add\n        /* \"#utility.yul\":23081:23107   */\n      swap1\n      pop\n        /* \"#utility.yul\":23153:23162   */\n      dup2\n        /* \"#utility.yul\":23147:23151   */\n      dup2\n        /* \"#utility.yul\":23143:23163   */\n      sub\n        /* \"#utility.yul\":23139:23140   */\n      0x00\n        /* \"#utility.yul\":23128:23137   */\n      dup4\n        /* \"#utility.yul\":23124:23141   */\n      add\n        /* \"#utility.yul\":23117:23164   */\n      mstore\n        /* \"#utility.yul\":23181:23361   */\n      tag_710\n        /* \"#utility.yul\":23356:23360   */\n      dup2\n        /* \"#utility.yul\":23347:23353   */\n      dup5\n        /* \"#utility.yul\":23181:23361   */\n      tag_529\n      jump\t// in\n    tag_710:\n        /* \"#utility.yul\":23173:23361   */\n      swap1\n      pop\n        /* \"#utility.yul\":23071:23368   */\n      swap3\n      swap2\n      pop\n      pop\n      jump\t// out\n        /* \"#utility.yul\":23374:23835   */\n    tag_39:\n        /* \"#utility.yul\":23561:23565   */\n      0x00\n        /* \"#utility.yul\":23599:23601   */\n      0x20\n        /* \"#utility.yul\":23588:23597   */\n      dup3\n        /* \"#utility.yul\":23584:23602   */\n      add\n        /* \"#utility.yul\":23576:23602   */\n      swap1\n      pop\n        /* \"#utility.yul\":23648:23657   */\n      dup2\n        /* \"#utility.yul\":23642:23646   */\n      dup2\n        /* \"#utility.yul\":23638:23658   */\n      sub\n        /* \"#utility.yul\":23634:23635   */\n      0x00\n        /* \"#utility.yul\":23623:23632   */\n      dup4\n        /* \"#utility.yul\":23619:23636   */\n      add\n        /* \"#utility.yul\":23612:23659   */\n      mstore\n        /* \"#utility.yul\":23676:23828   */\n      tag_712\n        /* \"#utility.yul\":23823:23827   */\n      dup2\n        /* \"#utility.yul\":23814:23820   */\n      dup5\n        /* \"#utility.yul\":23676:23828   */\n      tag_543\n      jump\t// in\n    tag_712:\n        /* \"#utility.yul\":23668:23828   */\n      swap1\n      pop\n        /* \"#utility.yul\":23566:23835   */\n      swap3\n      swap2\n      pop\n      pop\n      jump\t// out\n        /* \"#utility.yul\":23841:24051   */\n    tag_51:\n        /* \"#utility.yul\":23928:23932   */\n      0x00\n        /* \"#utility.yul\":23966:23968   */\n      0x20\n        /* \"#utility.yul\":23955:23964   */\n      dup3\n        /* \"#utility.yul\":23951:23969   */\n      add\n        /* \"#utility.yul\":23943:23969   */\n      swap1\n      pop\n        /* \"#utility.yul\":23979:24044   */\n      tag_714\n        /* \"#utility.yul\":24041:24042   */\n      0x00\n        /* \"#utility.yul\":24030:24039   */\n      dup4\n        /* \"#utility.yul\":24026:24043   */\n      add\n        /* \"#utility.yul\":24017:24023   */\n      dup5\n        /* \"#utility.yul\":23979:24044   */\n      tag_557\n      jump\t// in\n    tag_714:\n        /* \"#utility.yul\":23933:24051   */\n      swap3\n      swap2\n      pop\n      pop\n      jump\t// out\n        /* \"#utility.yul\":24057:24370   */\n    tag_427:\n        /* \"#utility.yul\":24170:24174   */\n      0x00\n        /* \"#utility.yul\":24208:24210   */\n      0x20\n        /* \"#utility.yul\":24197:24206   */\n      dup3\n        /* \"#utility.yul\":24193:24211   */\n      add\n        /* \"#utility.yul\":24185:24211   */\n      swap1\n      pop\n        /* \"#utility.yul\":24257:24266   */\n      dup2\n        /* \"#utility.yul\":24251:24255   */\n      dup2\n        /* \"#utility.yul\":24247:24267   */\n      sub\n        /* \"#utility.yul\":24243:24244   */\n      0x00\n        /* \"#utility.yul\":24232:24241   */\n      dup4\n        /* \"#utility.yul\":24228:24245   */\n      add\n        /* \"#utility.yul\":24221:24268   */\n      mstore\n        /* \"#utility.yul\":24285:24363   */\n      tag_716\n        /* \"#utility.yul\":24358:24362   */\n      dup2\n        /* \"#utility.yul\":24349:24355   */\n      dup5\n        /* \"#utility.yul\":24285:24363   */\n      tag_578\n      jump\t// in\n    tag_716:\n        /* \"#utility.yul\":24277:24363   */\n      swap1\n      pop\n        /* \"#utility.yul\":24175:24370   */\n      swap3\n      swap2\n      pop\n      pop\n      jump\t// out\n        /* \"#utility.yul\":24376:24795   */\n    tag_232:\n        /* \"#utility.yul\":24542:24546   */\n      0x00\n        /* \"#utility.yul\":24580:24582   */\n      0x20\n        /* \"#utility.yul\":24569:24578   */\n      dup3\n        /* \"#utility.yul\":24565:24583   */\n      add\n        /* \"#utility.yul\":24557:24583   */\n      swap1\n      pop\n        /* \"#utility.yul\":24629:24638   */\n      dup2\n        /* \"#utility.yul\":24623:24627   */\n      dup2\n        /* \"#utility.yul\":24619:24639   */\n      sub\n        /* \"#utility.yul\":24615:24616   */\n      0x00\n        /* \"#utility.yul\":24604:24613   */\n      dup4\n        /* \"#utility.yul\":24600:24617   */\n      add\n        /* \"#utility.yul\":24593:24640   */\n      mstore\n        /* \"#utility.yul\":24657:24788   */\n      tag_718\n        /* \"#utility.yul\":24783:24787   */\n      dup2\n        /* \"#utility.yul\":24657:24788   */\n      tag_585\n      jump\t// in\n    tag_718:\n        /* \"#utility.yul\":24649:24788   */\n      swap1\n      pop\n        /* \"#utility.yul\":24547:24795   */\n      swap2\n      swap1\n      pop\n      jump\t// out\n        /* \"#utility.yul\":24801:25220   */\n    tag_211:\n        /* \"#utility.yul\":24967:24971   */\n      0x00\n        /* \"#utility.yul\":25005:25007   */\n      0x20\n        /* \"#utility.yul\":24994:25003   */\n      dup3\n        /* \"#utility.yul\":24990:25008   */\n      add\n        /* \"#utility.yul\":24982:25008   */\n      swap1\n      pop\n        /* \"#utility.yul\":25054:25063   */\n      dup2\n        /* \"#utility.yul\":25048:25052   */\n      dup2\n        /* \"#utility.yul\":25044:25064   */\n      sub\n        /* \"#utility.yul\":25040:25041   */\n      0x00\n        /* \"#utility.yul\":25029:25038   */\n      dup4\n        /* \"#utility.yul\":25025:25042   */\n      add\n        /* \"#utility.yul\":25018:25065   */\n      mstore\n        /* \"#utility.yul\":25082:25213   */\n      tag_720\n        /* \"#utility.yul\":25208:25212   */\n      dup2\n        /* \"#utility.yul\":25082:25213   */\n      tag_590\n      jump\t// in\n    tag_720:\n        /* \"#utility.yul\":25074:25213   */\n      swap1\n      pop\n        /* \"#utility.yul\":24972:25220   */\n      swap2\n      swap1\n      pop\n      jump\t// out\n        /* \"#utility.yul\":25226:25645   */\n    tag_173:\n        /* \"#utility.yul\":25392:25396   */\n      0x00\n        /* \"#utility.yul\":25430:25432   */\n      0x20\n        /* \"#utility.yul\":25419:25428   */\n      dup3\n        /* \"#utility.yul\":25415:25433   */\n      add\n        /* \"#utility.yul\":25407:25433   */\n      swap1\n      pop\n        /* \"#utility.yul\":25479:25488   */\n      dup2\n        /* \"#utility.yul\":25473:25477   */\n      dup2\n        /* \"#utility.yul\":25469:25489   */\n      sub\n        /* \"#utility.yul\":25465:25466   */\n      0x00\n        /* \"#utility.yul\":25454:25463   */\n      dup4\n        /* \"#utility.yul\":25450:25467   */\n      add\n        /* \"#utility.yul\":25443:25490   */\n      mstore\n        /* \"#utility.yul\":25507:25638   */\n      tag_722\n        /* \"#utility.yul\":25633:25637   */\n      dup2\n        /* \"#utility.yul\":25507:25638   */\n      tag_595\n      jump\t// in\n    tag_722:\n        /* \"#utility.yul\":25499:25638   */\n      swap1\n      pop\n        /* \"#utility.yul\":25397:25645   */\n      swap2\n      swap1\n      pop\n      jump\t// out\n        /* \"#utility.yul\":25651:26070   */\n    tag_403:\n        /* \"#utility.yul\":25817:25821   */\n      0x00\n        /* \"#utility.yul\":25855:25857   */\n      0x20\n        /* \"#utility.yul\":25844:25853   */\n      dup3\n        /* \"#utility.yul\":25840:25858   */\n      add\n        /* \"#utility.yul\":25832:25858   */\n      swap1\n      pop\n        /* \"#utility.yul\":25904:25913   */\n      dup2\n        /* \"#utility.yul\":25898:25902   */\n      dup2\n        /* \"#utility.yul\":25894:25914   */\n      sub\n        /* \"#utility.yul\":25890:25891   */\n      0x00\n        /* \"#utility.yul\":25879:25888   */\n      dup4\n        /* \"#utility.yul\":25875:25892   */\n      add\n        /* \"#utility.yul\":25868:25915   */\n      mstore\n        /* \"#utility.yul\":25932:26063   */\n      tag_724\n        /* \"#utility.yul\":26058:26062   */\n      dup2\n        /* \"#utility.yul\":25932:26063   */\n      tag_600\n      jump\t// in\n    tag_724:\n        /* \"#utility.yul\":25924:26063   */\n      swap1\n      pop\n        /* \"#utility.yul\":25822:26070   */\n      swap2\n      swap1\n      pop\n      jump\t// out\n        /* \"#utility.yul\":26076:26495   */\n    tag_160:\n        /* \"#utility.yul\":26242:26246   */\n      0x00\n        /* \"#utility.yul\":26280:26282   */\n      0x20\n        /* \"#utility.yul\":26269:26278   */\n      dup3\n        /* \"#utility.yul\":26265:26283   */\n      add\n        /* \"#utility.yul\":26257:26283   */\n      swap1\n      pop\n        /* \"#utility.yul\":26329:26338   */\n      dup2\n        /* \"#utility.yul\":26323:26327   */\n      dup2\n        /* \"#utility.yul\":26319:26339   */\n      sub\n        /* \"#utility.yul\":26315:26316   */\n      0x00\n        /* \"#utility.yul\":26304:26313   */\n      dup4\n        /* \"#utility.yul\":26300:26317   */\n      add\n        /* \"#utility.yul\":26293:26340   */\n      mstore\n        /* \"#utility.yul\":26357:26488   */\n      tag_726\n        /* \"#utility.yul\":26483:26487   */\n      dup2\n        /* \"#utility.yul\":26357:26488   */\n      tag_605\n      jump\t// in\n    tag_726:\n        /* \"#utility.yul\":26349:26488   */\n      swap1\n      pop\n        /* \"#utility.yul\":26247:26495   */\n      swap2\n      swap1\n      pop\n      jump\t// out\n        /* \"#utility.yul\":26501:26920   */\n    tag_399:\n        /* \"#utility.yul\":26667:26671   */\n      0x00\n        /* \"#utility.yul\":26705:26707   */\n      0x20\n        /* \"#utility.yul\":26694:26703   */\n      dup3\n        /* \"#utility.yul\":26690:26708   */\n      add\n        /* \"#utility.yul\":26682:26708   */\n      swap1\n      pop\n        /* \"#utility.yul\":26754:26763   */\n      dup2\n        /* \"#utility.yul\":26748:26752   */\n      dup2\n        /* \"#utility.yul\":26744:26764   */\n      sub\n        /* \"#utility.yul\":26740:26741   */\n      0x00\n        /* \"#utility.yul\":26729:26738   */\n      dup4\n        /* \"#utility.yul\":26725:26742   */\n      add\n        /* \"#utility.yul\":26718:26765   */\n      mstore\n        /* \"#utility.yul\":26782:26913   */\n      tag_728\n        /* \"#utility.yul\":26908:26912   */\n      dup2\n        /* \"#utility.yul\":26782:26913   */\n      tag_610\n      jump\t// in\n    tag_728:\n        /* \"#utility.yul\":26774:26913   */\n      swap1\n      pop\n        /* \"#utility.yul\":26672:26920   */\n      swap2\n      swap1\n      pop\n      jump\t// out\n        /* \"#utility.yul\":26926:27345   */\n    tag_276:\n        /* \"#utility.yul\":27092:27096   */\n      0x00\n        /* \"#utility.yul\":27130:27132   */\n      0x20\n        /* \"#utility.yul\":27119:27128   */\n      dup3\n        /* \"#utility.yul\":27115:27133   */\n      add\n        /* \"#utility.yul\":27107:27133   */\n      swap1\n      pop\n        /* \"#utility.yul\":27179:27188   */\n      dup2\n        /* \"#utility.yul\":27173:27177   */\n      dup2\n        /* \"#utility.yul\":27169:27189   */\n      sub\n        /* \"#utility.yul\":27165:27166   */\n      0x00\n        /* \"#utility.yul\":27154:27163   */\n      dup4\n        /* \"#utility.yul\":27150:27167   */\n      add\n        /* \"#utility.yul\":27143:27190   */\n      mstore\n        /* \"#utility.yul\":27207:27338   */\n      tag_730\n        /* \"#utility.yul\":27333:27337   */\n      dup2\n        /* \"#utility.yul\":27207:27338   */\n      tag_615\n      jump\t// in\n    tag_730:\n        /* \"#utility.yul\":27199:27338   */\n      swap1\n      pop\n        /* \"#utility.yul\":27097:27345   */\n      swap2\n      swap1\n      pop\n      jump\t// out\n        /* \"#utility.yul\":27351:27770   */\n    tag_214:\n        /* \"#utility.yul\":27517:27521   */\n      0x00\n        /* \"#utility.yul\":27555:27557   */\n      0x20\n        /* \"#utility.yul\":27544:27553   */\n      dup3\n        /* \"#utility.yul\":27540:27558   */\n      add\n        /* \"#utility.yul\":27532:27558   */\n      swap1\n      pop\n        /* \"#utility.yul\":27604:27613   */\n      dup2\n        /* \"#utility.yul\":27598:27602   */\n      dup2\n        /* \"#utility.yul\":27594:27614   */\n      sub\n        /* \"#utility.yul\":27590:27591   */\n      0x00\n        /* \"#utility.yul\":27579:27588   */\n      dup4\n        /* \"#utility.yul\":27575:27592   */\n      add\n        /* \"#utility.yul\":27568:27615   */\n      mstore\n        /* \"#utility.yul\":27632:27763   */\n      tag_732\n        /* \"#utility.yul\":27758:27762   */\n      dup2\n        /* \"#utility.yul\":27632:27763   */\n      tag_620\n      jump\t// in\n    tag_732:\n        /* \"#utility.yul\":27624:27763   */\n      swap1\n      pop\n        /* \"#utility.yul\":27522:27770   */\n      swap2\n      swap1\n      pop\n      jump\t// out\n        /* \"#utility.yul\":27776:28195   */\n    tag_297:\n        /* \"#utility.yul\":27942:27946   */\n      0x00\n        /* \"#utility.yul\":27980:27982   */\n      0x20\n        /* \"#utility.yul\":27969:27978   */\n      dup3\n        /* \"#utility.yul\":27965:27983   */\n      add\n        /* \"#utility.yul\":27957:27983   */\n      swap1\n      pop\n        /* \"#utility.yul\":28029:28038   */\n      dup2\n        /* \"#utility.yul\":28023:28027   */\n      dup2\n        /* \"#utility.yul\":28019:28039   */\n      sub\n        /* \"#utility.yul\":28015:28016   */\n      0x00\n        /* \"#utility.yul\":28004:28013   */\n      dup4\n        /* \"#utility.yul\":28000:28017   */\n      add\n        /* \"#utility.yul\":27993:28040   */\n      mstore\n        /* \"#utility.yul\":28057:28188   */\n      tag_734\n        /* \"#utility.yul\":28183:28187   */\n      dup2\n        /* \"#utility.yul\":28057:28188   */\n      tag_625\n      jump\t// in\n    tag_734:\n        /* \"#utility.yul\":28049:28188   */\n      swap1\n      pop\n        /* \"#utility.yul\":27947:28195   */\n      swap2\n      swap1\n      pop\n      jump\t// out\n        /* \"#utility.yul\":28201:28620   */\n    tag_418:\n        /* \"#utility.yul\":28367:28371   */\n      0x00\n        /* \"#utility.yul\":28405:28407   */\n      0x20\n        /* \"#utility.yul\":28394:28403   */\n      dup3\n        /* \"#utility.yul\":28390:28408   */\n      add\n        /* \"#utility.yul\":28382:28408   */\n      swap1\n      pop\n        /* \"#utility.yul\":28454:28463   */\n      dup2\n        /* \"#utility.yul\":28448:28452   */\n      dup2\n        /* \"#utility.yul\":28444:28464   */\n      sub\n        /* \"#utility.yul\":28440:28441   */\n      0x00\n        /* \"#utility.yul\":28429:28438   */\n      dup4\n        /* \"#utility.yul\":28425:28442   */\n      add\n        /* \"#utility.yul\":28418:28465   */\n      mstore\n        /* \"#utility.yul\":28482:28613   */\n      tag_736\n        /* \"#utility.yul\":28608:28612   */\n      dup2\n        /* \"#utility.yul\":28482:28613   */\n      tag_630\n      jump\t// in\n    tag_736:\n        /* \"#utility.yul\":28474:28613   */\n      swap1\n      pop\n        /* \"#utility.yul\":28372:28620   */\n      swap2\n      swap1\n      pop\n      jump\t// out\n        /* \"#utility.yul\":28626:29045   */\n    tag_241:\n        /* \"#utility.yul\":28792:28796   */\n      0x00\n        /* \"#utility.yul\":28830:28832   */\n      0x20\n        /* \"#utility.yul\":28819:28828   */\n      dup3\n        /* \"#utility.yul\":28815:28833   */\n      add\n        /* \"#utility.yul\":28807:28833   */\n      swap1\n      pop\n        /* \"#utility.yul\":28879:28888   */\n      dup2\n        /* \"#utility.yul\":28873:28877   */\n      dup2\n        /* \"#utility.yul\":28869:28889   */\n      sub\n        /* \"#utility.yul\":28865:28866   */\n      0x00\n        /* \"#utility.yul\":28854:28863   */\n      dup4\n        /* \"#utility.yul\":28850:28867   */\n      add\n        /* \"#utility.yul\":28843:28890   */\n      mstore\n        /* \"#utility.yul\":28907:29038   */\n      tag_738\n        /* \"#utility.yul\":29033:29037   */\n      dup2\n        /* \"#utility.yul\":28907:29038   */\n      tag_635\n      jump\t// in\n    tag_738:\n        /* \"#utility.yul\":28899:29038   */\n      swap1\n      pop\n        /* \"#utility.yul\":28797:29045   */\n      swap2\n      swap1\n      pop\n      jump\t// out\n        /* \"#utility.yul\":29051:29470   */\n    tag_383:\n        /* \"#utility.yul\":29217:29221   */\n      0x00\n        /* \"#utility.yul\":29255:29257   */\n      0x20\n        /* \"#utility.yul\":29244:29253   */\n      dup3\n        /* \"#utility.yul\":29240:29258   */\n      add\n        /* \"#utility.yul\":29232:29258   */\n      swap1\n      pop\n        /* \"#utility.yul\":29304:29313   */\n      dup2\n        /* \"#utility.yul\":29298:29302   */\n      dup2\n        /* \"#utility.yul\":29294:29314   */\n      sub\n        /* \"#utility.yul\":29290:29291   */\n      0x00\n        /* \"#utility.yul\":29279:29288   */\n      dup4\n        /* \"#utility.yul\":29275:29292   */\n      add\n        /* \"#utility.yul\":29268:29315   */\n      mstore\n        /* \"#utility.yul\":29332:29463   */\n      tag_740\n        /* \"#utility.yul\":29458:29462   */\n      dup2\n        /* \"#utility.yul\":29332:29463   */\n      tag_640\n      jump\t// in\n    tag_740:\n        /* \"#utility.yul\":29324:29463   */\n      swap1\n      pop\n        /* \"#utility.yul\":29222:29470   */\n      swap2\n      swap1\n      pop\n      jump\t// out\n        /* \"#utility.yul\":29476:29895   */\n    tag_294:\n        /* \"#utility.yul\":29642:29646   */\n      0x00\n        /* \"#utility.yul\":29680:29682   */\n      0x20\n        /* \"#utility.yul\":29669:29678   */\n      dup3\n        /* \"#utility.yul\":29665:29683   */\n      add\n        /* \"#utility.yul\":29657:29683   */\n      swap1\n      pop\n        /* \"#utility.yul\":29729:29738   */\n      dup2\n        /* \"#utility.yul\":29723:29727   */\n      dup2\n        /* \"#utility.yul\":29719:29739   */\n      sub\n        /* \"#utility.yul\":29715:29716   */\n      0x00\n        /* \"#utility.yul\":29704:29713   */\n      dup4\n        /* \"#utility.yul\":29700:29717   */\n      add\n        /* \"#utility.yul\":29693:29740   */\n      mstore\n        /* \"#utility.yul\":29757:29888   */\n      tag_742\n        /* \"#utility.yul\":29883:29887   */\n      dup2\n        /* \"#utility.yul\":29757:29888   */\n      tag_645\n      jump\t// in\n    tag_742:\n        /* \"#utility.yul\":29749:29888   */\n      swap1\n      pop\n        /* \"#utility.yul\":29647:29895   */\n      swap2\n      swap1\n      pop\n      jump\t// out\n        /* \"#utility.yul\":29901:30320   */\n    tag_237:\n        /* \"#utility.yul\":30067:30071   */\n      0x00\n        /* \"#utility.yul\":30105:30107   */\n      0x20\n        /* \"#utility.yul\":30094:30103   */\n      dup3\n        /* \"#utility.yul\":30090:30108   */\n      add\n        /* \"#utility.yul\":30082:30108   */\n      swap1\n      pop\n        /* \"#utility.yul\":30154:30163   */\n      dup2\n        /* \"#utility.yul\":30148:30152   */\n      dup2\n        /* \"#utility.yul\":30144:30164   */\n      sub\n        /* \"#utility.yul\":30140:30141   */\n      0x00\n        /* \"#utility.yul\":30129:30138   */\n      dup4\n        /* \"#utility.yul\":30125:30142   */\n      add\n        /* \"#utility.yul\":30118:30165   */\n      mstore\n        /* \"#utility.yul\":30182:30313   */\n      tag_744\n        /* \"#utility.yul\":30308:30312   */\n      dup2\n        /* \"#utility.yul\":30182:30313   */\n      tag_650\n      jump\t// in\n    tag_744:\n        /* \"#utility.yul\":30174:30313   */\n      swap1\n      pop\n        /* \"#utility.yul\":30072:30320   */\n      swap2\n      swap1\n      pop\n      jump\t// out\n        /* \"#utility.yul\":30326:30745   */\n    tag_332:\n        /* \"#utility.yul\":30492:30496   */\n      0x00\n        /* \"#utility.yul\":30530:30532   */\n      0x20\n        /* \"#utility.yul\":30519:30528   */\n      dup3\n        /* \"#utility.yul\":30515:30533   */\n      add\n        /* \"#utility.yul\":30507:30533   */\n      swap1\n      pop\n        /* \"#utility.yul\":30579:30588   */\n      dup2\n        /* \"#utility.yul\":30573:30577   */\n      dup2\n        /* \"#utility.yul\":30569:30589   */\n      sub\n        /* \"#utility.yul\":30565:30566   */\n      0x00\n        /* \"#utility.yul\":30554:30563   */\n      dup4\n        /* \"#utility.yul\":30550:30567   */\n      add\n        /* \"#utility.yul\":30543:30590   */\n      mstore\n        /* \"#utility.yul\":30607:30738   */\n      tag_746\n        /* \"#utility.yul\":30733:30737   */\n      dup2\n        /* \"#utility.yul\":30607:30738   */\n      tag_655\n      jump\t// in\n    tag_746:\n        /* \"#utility.yul\":30599:30738   */\n      swap1\n      pop\n        /* \"#utility.yul\":30497:30745   */\n      swap2\n      swap1\n      pop\n      jump\t// out\n        /* \"#utility.yul\":30751:31117   */\n    tag_70:\n        /* \"#utility.yul\":30916:30920   */\n      0x00\n        /* \"#utility.yul\":30954:30956   */\n      0x40\n        /* \"#utility.yul\":30943:30952   */\n      dup3\n        /* \"#utility.yul\":30939:30957   */\n      add\n        /* \"#utility.yul\":30931:30957   */\n      swap1\n      pop\n        /* \"#utility.yul\":30967:31110   */\n      tag_748\n        /* \"#utility.yul\":31107:31108   */\n      0x00\n        /* \"#utility.yul\":31096:31105   */\n      dup4\n        /* \"#utility.yul\":31092:31109   */\n      add\n        /* \"#utility.yul\":31083:31089   */\n      dup5\n        /* \"#utility.yul\":30967:31110   */\n      tag_664\n      jump\t// in\n    tag_748:\n        /* \"#utility.yul\":30921:31117   */\n      swap3\n      swap2\n      pop\n      pop\n      jump\t// out\n        /* \"#utility.yul\":31123:31484   */\n    tag_29:\n        /* \"#utility.yul\":31260:31264   */\n      0x00\n        /* \"#utility.yul\":31298:31300   */\n      0x20\n        /* \"#utility.yul\":31287:31296   */\n      dup3\n        /* \"#utility.yul\":31283:31301   */\n      add\n        /* \"#utility.yul\":31275:31301   */\n      swap1\n      pop\n        /* \"#utility.yul\":31347:31356   */\n      dup2\n        /* \"#utility.yul\":31341:31345   */\n      dup2\n        /* \"#utility.yul\":31337:31357   */\n      sub\n        /* \"#utility.yul\":31333:31334   */\n      0x00\n        /* \"#utility.yul\":31322:31331   */\n      dup4\n        /* \"#utility.yul\":31318:31335   */\n      add\n        /* \"#utility.yul\":31311:31358   */\n      mstore\n        /* \"#utility.yul\":31375:31477   */\n      tag_750\n        /* \"#utility.yul\":31472:31476   */\n      dup2\n        /* \"#utility.yul\":31463:31469   */\n      dup5\n        /* \"#utility.yul\":31375:31477   */\n      tag_677\n      jump\t// in\n    tag_750:\n        /* \"#utility.yul\":31367:31477   */\n      swap1\n      pop\n        /* \"#utility.yul\":31265:31484   */\n      swap3\n      swap2\n      pop\n      pop\n      jump\t// out\n        /* \"#utility.yul\":31490:31712   */\n    tag_43:\n        /* \"#utility.yul\":31583:31587   */\n      0x00\n        /* \"#utility.yul\":31621:31623   */\n      0x20\n        /* \"#utility.yul\":31610:31619   */\n      dup3\n        /* \"#utility.yul\":31606:31624   */\n      add\n        /* \"#utility.yul\":31598:31624   */\n      swap1\n      pop\n        /* \"#utility.yul\":31634:31705   */\n      tag_752\n        /* \"#utility.yul\":31702:31703   */\n      0x00\n        /* \"#utility.yul\":31691:31700   */\n      dup4\n        /* \"#utility.yul\":31687:31704   */\n      add\n        /* \"#utility.yul\":31678:31684   */\n      dup5\n        /* \"#utility.yul\":31634:31705   */\n      tag_690\n      jump\t// in\n    tag_752:\n        /* \"#utility.yul\":31588:31712   */\n      swap3\n      swap2\n      pop\n      pop\n      jump\t// out\n        /* \"#utility.yul\":31718:32160   */\n    tag_166:\n        /* \"#utility.yul\":31867:31871   */\n      0x00\n        /* \"#utility.yul\":31905:31907   */\n      0x60\n        /* \"#utility.yul\":31894:31903   */\n      dup3\n        /* \"#utility.yul\":31890:31908   */\n      add\n        /* \"#utility.yul\":31882:31908   */\n      swap1\n      pop\n        /* \"#utility.yul\":31918:31989   */\n      tag_754\n        /* \"#utility.yul\":31986:31987   */\n      0x00\n        /* \"#utility.yul\":31975:31984   */\n      dup4\n        /* \"#utility.yul\":31971:31988   */\n      add\n        /* \"#utility.yul\":31962:31968   */\n      dup7\n        /* \"#utility.yul\":31918:31989   */\n      tag_690\n      jump\t// in\n    tag_754:\n        /* \"#utility.yul\":31999:32071   */\n      tag_755\n        /* \"#utility.yul\":32067:32069   */\n      0x20\n        /* \"#utility.yul\":32056:32065   */\n      dup4\n        /* \"#utility.yul\":32052:32070   */\n      add\n        /* \"#utility.yul\":32043:32049   */\n      dup6\n        /* \"#utility.yul\":31999:32071   */\n      tag_526\n      jump\t// in\n    tag_755:\n        /* \"#utility.yul\":32081:32153   */\n      tag_756\n        /* \"#utility.yul\":32149:32151   */\n      0x40\n        /* \"#utility.yul\":32138:32147   */\n      dup4\n        /* \"#utility.yul\":32134:32152   */\n      add\n        /* \"#utility.yul\":32125:32131   */\n      dup5\n        /* \"#utility.yul\":32081:32153   */\n      tag_526\n      jump\t// in\n    tag_756:\n        /* \"#utility.yul\":31872:32160   */\n      swap5\n      swap4\n      pop\n      pop\n      pop\n      pop\n      jump\t// out\n        /* \"#utility.yul\":32166:32295   */\n    tag_444:\n        /* \"#utility.yul\":32200:32206   */\n      0x00\n        /* \"#utility.yul\":32227:32247   */\n      tag_758\n      tag_759\n      jump\t// in\n    tag_758:\n        /* \"#utility.yul\":32217:32247   */\n      swap1\n      pop\n        /* \"#utility.yul\":32256:32289   */\n      tag_760\n        /* \"#utility.yul\":32284:32288   */\n      dup3\n        /* \"#utility.yul\":32276:32282   */\n      dup3\n        /* \"#utility.yul\":32256:32289   */\n      tag_761\n      jump\t// in\n    tag_760:\n        /* \"#utility.yul\":32207:32295   */\n      swap2\n      swap1\n      pop\n      jump\t// out\n        /* \"#utility.yul\":32301:32376   */\n    tag_759:\n        /* \"#utility.yul\":32334:32340   */\n      0x00\n        /* \"#utility.yul\":32367:32369   */\n      0x40\n        /* \"#utility.yul\":32361:32370   */\n      mload\n        /* \"#utility.yul\":32351:32370   */\n      swap1\n      pop\n        /* \"#utility.yul\":32341:32376   */\n      swap1\n      jump\t// out\n        /* \"#utility.yul\":32382:32690   */\n    tag_443:\n        /* \"#utility.yul\":32444:32448   */\n      0x00\n        /* \"#utility.yul\":32534:32552   */\n      0xffffffffffffffff\n        /* \"#utility.yul\":32526:32532   */\n      dup3\n        /* \"#utility.yul\":32523:32553   */\n      gt\n        /* \"#utility.yul\":32520:32522   */\n      iszero\n      tag_764\n      jumpi\n        /* \"#utility.yul\":32556:32574   */\n      tag_765\n      tag_766\n      jump\t// in\n    tag_765:\n        /* \"#utility.yul\":32520:32522   */\n    tag_764:\n        /* \"#utility.yul\":32594:32623   */\n      tag_767\n        /* \"#utility.yul\":32616:32622   */\n      dup3\n        /* \"#utility.yul\":32594:32623   */\n      tag_577\n      jump\t// in\n    tag_767:\n        /* \"#utility.yul\":32586:32623   */\n      swap1\n      pop\n        /* \"#utility.yul\":32678:32682   */\n      0x20\n        /* \"#utility.yul\":32672:32676   */\n      dup2\n        /* \"#utility.yul\":32668:32683   */\n      add\n        /* \"#utility.yul\":32660:32683   */\n      swap1\n      pop\n        /* \"#utility.yul\":32449:32690   */\n      swap2\n      swap1\n      pop\n      jump\t// out\n        /* \"#utility.yul\":32696:32864   */\n    tag_536:\n        /* \"#utility.yul\":32799:32803   */\n      0x00\n        /* \"#utility.yul\":32822:32825   */\n      dup2\n        /* \"#utility.yul\":32814:32825   */\n      swap1\n      pop\n        /* \"#utility.yul\":32852:32856   */\n      0x20\n        /* \"#utility.yul\":32847:32850   */\n      dup3\n        /* \"#utility.yul\":32843:32857   */\n      add\n        /* \"#utility.yul\":32835:32857   */\n      swap1\n      pop\n        /* \"#utility.yul\":32804:32864   */\n      swap2\n      swap1\n      pop\n      jump\t// out\n        /* \"#utility.yul\":32870:33024   */\n    tag_550:\n        /* \"#utility.yul\":32959:32963   */\n      0x00\n        /* \"#utility.yul\":32982:32985   */\n      dup2\n        /* \"#utility.yul\":32974:32985   */\n      swap1\n      pop\n        /* \"#utility.yul\":33012:33016   */\n      0x20\n        /* \"#utility.yul\":33007:33010   */\n      dup3\n        /* \"#utility.yul\":33003:33017   */\n      add\n        /* \"#utility.yul\":32995:33017   */\n      swap1\n      pop\n        /* \"#utility.yul\":32964:33024   */\n      swap2\n      swap1\n      pop\n      jump\t// out\n        /* \"#utility.yul\":33030:33180   */\n    tag_532:\n        /* \"#utility.yul\":33133:33139   */\n      0x00\n        /* \"#utility.yul\":33167:33172   */\n      dup2\n        /* \"#utility.yul\":33161:33173   */\n      mload\n        /* \"#utility.yul\":33151:33173   */\n      swap1\n      pop\n        /* \"#utility.yul\":33140:33180   */\n      swap2\n      swap1\n      pop\n      jump\t// out\n        /* \"#utility.yul\":33186:33322   */\n    tag_546:\n        /* \"#utility.yul\":33275:33281   */\n      0x00\n        /* \"#utility.yul\":33309:33314   */\n      dup2\n        /* \"#utility.yul\":33303:33315   */\n      mload\n        /* \"#utility.yul\":33293:33315   */\n      swap1\n      pop\n        /* \"#utility.yul\":33282:33322   */\n      swap2\n      swap1\n      pop\n      jump\t// out\n        /* \"#utility.yul\":33328:33426   */\n    tag_564:\n        /* \"#utility.yul\":33379:33385   */\n      0x00\n        /* \"#utility.yul\":33413:33418   */\n      dup2\n        /* \"#utility.yul\":33407:33419   */\n      mload\n        /* \"#utility.yul\":33397:33419   */\n      swap1\n      pop\n        /* \"#utility.yul\":33386:33426   */\n      swap2\n      swap1\n      pop\n      jump\t// out\n        /* \"#utility.yul\":33432:33531   */\n    tag_572:\n        /* \"#utility.yul\":33484:33490   */\n      0x00\n        /* \"#utility.yul\":33518:33523   */\n      dup2\n        /* \"#utility.yul\":33512:33524   */\n      mload\n        /* \"#utility.yul\":33502:33524   */\n      swap1\n      pop\n        /* \"#utility.yul\":33491:33531   */\n      swap2\n      swap1\n      pop\n      jump\t// out\n        /* \"#utility.yul\":33537:33686   */\n    tag_542:\n        /* \"#utility.yul\":33643:33647   */\n      0x00\n        /* \"#utility.yul\":33675:33679   */\n      0x20\n        /* \"#utility.yul\":33670:33673   */\n      dup3\n        /* \"#utility.yul\":33666:33680   */\n      add\n        /* \"#utility.yul\":33658:33680   */\n      swap1\n      pop\n        /* \"#utility.yul\":33648:33686   */\n      swap2\n      swap1\n      pop\n      jump\t// out\n        /* \"#utility.yul\":33692:33827   */\n    tag_556:\n        /* \"#utility.yul\":33784:33788   */\n      0x00\n        /* \"#utility.yul\":33816:33820   */\n      0x20\n        /* \"#utility.yul\":33811:33814   */\n      dup3\n        /* \"#utility.yul\":33807:33821   */\n      add\n        /* \"#utility.yul\":33799:33821   */\n      swap1\n      pop\n        /* \"#utility.yul\":33789:33827   */\n      swap2\n      swap1\n      pop\n      jump\t// out\n        /* \"#utility.yul\":33833:34053   */\n    tag_534:\n        /* \"#utility.yul\":33968:33979   */\n      0x00\n        /* \"#utility.yul\":34002:34008   */\n      dup3\n        /* \"#utility.yul\":33997:34000   */\n      dup3\n        /* \"#utility.yul\":33990:34009   */\n      mstore\n        /* \"#utility.yul\":34042:34046   */\n      0x20\n        /* \"#utility.yul\":34037:34040   */\n      dup3\n        /* \"#utility.yul\":34033:34047   */\n      add\n        /* \"#utility.yul\":34018:34047   */\n      swap1\n      pop\n        /* \"#utility.yul\":33980:34053   */\n      swap3\n      swap2\n      pop\n      pop\n      jump\t// out\n        /* \"#utility.yul\":34059:34265   */\n    tag_548:\n        /* \"#utility.yul\":34180:34191   */\n      0x00\n        /* \"#utility.yul\":34214:34220   */\n      dup3\n        /* \"#utility.yul\":34209:34212   */\n      dup3\n        /* \"#utility.yul\":34202:34221   */\n      mstore\n        /* \"#utility.yul\":34254:34258   */\n      0x20\n        /* \"#utility.yul\":34249:34252   */\n      dup3\n        /* \"#utility.yul\":34245:34259   */\n      add\n        /* \"#utility.yul\":34230:34259   */\n      swap1\n      pop\n        /* \"#utility.yul\":34192:34265   */\n      swap3\n      swap2\n      pop\n      pop\n      jump\t// out\n        /* \"#utility.yul\":34271:34418   */\n    tag_566:\n        /* \"#utility.yul\":34372:34383   */\n      0x00\n        /* \"#utility.yul\":34409:34412   */\n      dup2\n        /* \"#utility.yul\":34394:34412   */\n      swap1\n      pop\n        /* \"#utility.yul\":34384:34418   */\n      swap3\n      swap2\n      pop\n      pop\n      jump\t// out\n        /* \"#utility.yul\":34424:34583   */\n    tag_574:\n        /* \"#utility.yul\":34498:34509   */\n      0x00\n        /* \"#utility.yul\":34532:34538   */\n      dup3\n        /* \"#utility.yul\":34527:34530   */\n      dup3\n        /* \"#utility.yul\":34520:34539   */\n      mstore\n        /* \"#utility.yul\":34572:34576   */\n      0x20\n        /* \"#utility.yul\":34567:34570   */\n      dup3\n        /* \"#utility.yul\":34563:34577   */\n      add\n        /* \"#utility.yul\":34548:34577   */\n      swap1\n      pop\n        /* \"#utility.yul\":34510:34583   */\n      swap3\n      swap2\n      pop\n      pop\n      jump\t// out\n        /* \"#utility.yul\":34589:34758   */\n    tag_582:\n        /* \"#utility.yul\":34673:34684   */\n      0x00\n        /* \"#utility.yul\":34707:34713   */\n      dup3\n        /* \"#utility.yul\":34702:34705   */\n      dup3\n        /* \"#utility.yul\":34695:34714   */\n      mstore\n        /* \"#utility.yul\":34747:34751   */\n      0x20\n        /* \"#utility.yul\":34742:34745   */\n      dup3\n        /* \"#utility.yul\":34738:34752   */\n      add\n        /* \"#utility.yul\":34723:34752   */\n      swap1\n      pop\n        /* \"#utility.yul\":34685:34758   */\n      swap3\n      swap2\n      pop\n      pop\n      jump\t// out\n        /* \"#utility.yul\":34764:35069   */\n    tag_135:\n        /* \"#utility.yul\":34804:34807   */\n      0x00\n        /* \"#utility.yul\":34823:34843   */\n      tag_782\n        /* \"#utility.yul\":34841:34842   */\n      dup3\n        /* \"#utility.yul\":34823:34843   */\n      tag_689\n      jump\t// in\n    tag_782:\n        /* \"#utility.yul\":34818:34843   */\n      swap2\n      pop\n        /* \"#utility.yul\":34857:34877   */\n      tag_783\n        /* \"#utility.yul\":34875:34876   */\n      dup4\n        /* \"#utility.yul\":34857:34877   */\n      tag_689\n      jump\t// in\n    tag_783:\n        /* \"#utility.yul\":34852:34877   */\n      swap3\n      pop\n        /* \"#utility.yul\":35011:35012   */\n      dup3\n        /* \"#utility.yul\":34943:35009   */\n      0xffffffffffffffffffffffffffffffffffffffffffffffffffffffffffffffff\n        /* \"#utility.yul\":34939:35013   */\n      sub\n        /* \"#utility.yul\":34936:34937   */\n      dup3\n        /* \"#utility.yul\":34933:35014   */\n      gt\n        /* \"#utility.yul\":34930:34932   */\n      iszero\n      tag_784\n      jumpi\n        /* \"#utility.yul\":35017:35035   */\n      tag_785\n      tag_786\n      jump\t// in\n    tag_785:\n        /* \"#utility.yul\":34930:34932   */\n    tag_784:\n        /* \"#utility.yul\":35061:35062   */\n      dup3\n        /* \"#utility.yul\":35058:35059   */\n      dup3\n        /* \"#utility.yul\":35054:35063   */\n      add\n        /* \"#utility.yul\":35047:35063   */\n      swap1\n      pop\n        /* \"#utility.yul\":34808:35069   */\n      swap3\n      swap2\n      pop\n      pop\n      jump\t// out\n        /* \"#utility.yul\":35075:35266   */\n    tag_132:\n        /* \"#utility.yul\":35115:35119   */\n      0x00\n        /* \"#utility.yul\":35135:35155   */\n      tag_788\n        /* \"#utility.yul\":35153:35154   */\n      dup3\n        /* \"#utility.yul\":35135:35155   */\n      tag_689\n      jump\t// in\n    tag_788:\n        /* \"#utility.yul\":35130:35155   */\n      swap2\n      pop\n        /* \"#utility.yul\":35169:35189   */\n      tag_789\n        /* \"#utility.yul\":35187:35188   */\n      dup4\n        /* \"#utility.yul\":35169:35189   */\n      tag_689\n      jump\t// in\n    tag_789:\n        /* \"#utility.yul\":35164:35189   */\n      swap3\n      pop\n        /* \"#utility.yul\":35208:35209   */\n      dup3\n        /* \"#utility.yul\":35205:35206   */\n      dup3\n        /* \"#utility.yul\":35202:35210   */\n      lt\n        /* \"#utility.yul\":35199:35201   */\n      iszero\n      tag_790\n      jumpi\n        /* \"#utility.yul\":35213:35231   */\n      tag_791\n      tag_786\n      jump\t// in\n    tag_791:\n        /* \"#utility.yul\":35199:35201   */\n    tag_790:\n        /* \"#utility.yul\":35258:35259   */\n      dup3\n        /* \"#utility.yul\":35255:35256   */\n      dup3\n        /* \"#utility.yul\":35251:35260   */\n      sub\n        /* \"#utility.yul\":35243:35260   */\n      swap1\n      pop\n        /* \"#utility.yul\":35120:35266   */\n      swap3\n      swap2\n      pop\n      pop\n      jump\t// out\n        /* \"#utility.yul\":35272:35368   */\n    tag_525:\n        /* \"#utility.yul\":35309:35316   */\n      0x00\n        /* \"#utility.yul\":35338:35362   */\n      tag_793\n        /* \"#utility.yul\":35356:35361   */\n      dup3\n        /* \"#utility.yul\":35338:35362   */\n      tag_794\n      jump\t// in\n    tag_793:\n        /* \"#utility.yul\":35327:35362   */\n      swap1\n      pop\n        /* \"#utility.yul\":35317:35368   */\n      swap2\n      swap1\n      pop\n      jump\t// out\n        /* \"#utility.yul\":35374:35464   */\n    tag_560:\n        /* \"#utility.yul\":35408:35415   */\n      0x00\n        /* \"#utility.yul\":35451:35456   */\n      dup2\n        /* \"#utility.yul\":35444:35457   */\n      iszero\n        /* \"#utility.yul\":35437:35458   */\n      iszero\n        /* \"#utility.yul\":35426:35458   */\n      swap1\n      pop\n        /* \"#utility.yul\":35416:35464   */\n      swap2\n      swap1\n      pop\n      jump\t// out\n        /* \"#utility.yul\":35470:35596   */\n    tag_794:\n        /* \"#utility.yul\":35507:35514   */\n      0x00\n        /* \"#utility.yul\":35547:35589   */\n      0xffffffffffffffffffffffffffffffffffffffff\n        /* \"#utility.yul\":35540:35545   */\n      dup3\n        /* \"#utility.yul\":35536:35590   */\n      and\n        /* \"#utility.yul\":35525:35590   */\n      swap1\n      pop\n        /* \"#utility.yul\":35515:35596   */\n      swap2\n      swap1\n      pop\n      jump\t// out\n        /* \"#utility.yul\":35602:35679   */\n    tag_689:\n        /* \"#utility.yul\":35639:35646   */\n      0x00\n        /* \"#utility.yul\":35668:35673   */\n      dup2\n        /* \"#utility.yul\":35657:35673   */\n      swap1\n      pop\n        /* \"#utility.yul\":35647:35679   */\n      swap2\n      swap1\n      pop\n      jump\t// out\n        /* \"#utility.yul\":35685:35839   */\n    tag_447:\n        /* \"#utility.yul\":35769:35775   */\n      dup3\n        /* \"#utility.yul\":35764:35767   */\n      dup2\n        /* \"#utility.yul\":35759:35762   */\n      dup4\n        /* \"#utility.yul\":35746:35776   */\n      calldatacopy\n        /* \"#utility.yul\":35831:35832   */\n      0x00\n        /* \"#utility.yul\":35822:35828   */\n      dup4\n        /* \"#utility.yul\":35817:35820   */\n      dup4\n        /* \"#utility.yul\":35813:35829   */\n      add\n        /* \"#utility.yul\":35806:35833   */\n      mstore\n        /* \"#utility.yul\":35736:35839   */\n      pop\n      pop\n      pop\n      jump\t// out\n        /* \"#utility.yul\":35845:36152   */\n    tag_568:\n        /* \"#utility.yul\":35913:35914   */\n      0x00\n        /* \"#utility.yul\":35923:36036   */\n    tag_800:\n        /* \"#utility.yul\":35937:35943   */\n      dup4\n        /* \"#utility.yul\":35934:35935   */\n      dup2\n        /* \"#utility.yul\":35931:35944   */\n      lt\n        /* \"#utility.yul\":35923:36036   */\n      iszero\n      tag_802\n      jumpi\n        /* \"#utility.yul\":36022:36023   */\n      dup1\n        /* \"#utility.yul\":36017:36020   */\n      dup3\n        /* \"#utility.yul\":36013:36024   */\n      add\n        /* \"#utility.yul\":36007:36025   */\n      mload\n        /* \"#utility.yul\":36003:36004   */\n      dup2\n        /* \"#utility.yul\":35998:36001   */\n      dup5\n        /* \"#utility.yul\":35994:36005   */\n      add\n        /* \"#utility.yul\":35987:36026   */\n      mstore\n        /* \"#utility.yul\":35959:35961   */\n      0x20\n        /* \"#utility.yul\":35956:35957   */\n      dup2\n        /* \"#utility.yul\":35952:35962   */\n      add\n        /* \"#utility.yul\":35947:35962   */\n      swap1\n      pop\n        /* \"#utility.yul\":35923:36036   */\n      jump(tag_800)\n    tag_802:\n        /* \"#utility.yul\":36054:36060   */\n      dup4\n        /* \"#utility.yul\":36051:36052   */\n      dup2\n        /* \"#utility.yul\":36048:36061   */\n      gt\n        /* \"#utility.yul\":36045:36047   */\n      iszero\n      tag_803\n      jumpi\n        /* \"#utility.yul\":36134:36135   */\n      0x00\n        /* \"#utility.yul\":36125:36131   */\n      dup5\n        /* \"#utility.yul\":36120:36123   */\n      dup5\n        /* \"#utility.yul\":36116:36132   */\n      add\n        /* \"#utility.yul\":36109:36136   */\n      mstore\n        /* \"#utility.yul\":36045:36047   */\n    tag_803:\n        /* \"#utility.yul\":35894:36152   */\n      pop\n      pop\n      pop\n      pop\n      jump\t// out\n        /* \"#utility.yul\":36158:36478   */\n    tag_112:\n        /* \"#utility.yul\":36202:36208   */\n      0x00\n        /* \"#utility.yul\":36239:36240   */\n      0x02\n        /* \"#utility.yul\":36233:36237   */\n      dup3\n        /* \"#utility.yul\":36229:36241   */\n      div\n        /* \"#utility.yul\":36219:36241   */\n      swap1\n      pop\n        /* \"#utility.yul\":36286:36287   */\n      0x01\n        /* \"#utility.yul\":36280:36284   */\n      dup3\n        /* \"#utility.yul\":36276:36288   */\n      and\n        /* \"#utility.yul\":36307:36325   */\n      dup1\n        /* \"#utility.yul\":36297:36299   */\n      tag_805\n      jumpi\n        /* \"#utility.yul\":36363:36367   */\n      0x7f\n        /* \"#utility.yul\":36355:36361   */\n      dup3\n        /* \"#utility.yul\":36351:36368   */\n      and\n        /* \"#utility.yul\":36341:36368   */\n      swap2\n      pop\n        /* \"#utility.yul\":36297:36299   */\n    tag_805:\n        /* \"#utility.yul\":36425:36427   */\n      0x20\n        /* \"#utility.yul\":36417:36423   */\n      dup3\n        /* \"#utility.yul\":36414:36428   */\n      lt\n        /* \"#utility.yul\":36394:36412   */\n      dup2\n        /* \"#utility.yul\":36391:36429   */\n      eq\n        /* \"#utility.yul\":36388:36390   */\n      iszero\n      tag_806\n      jumpi\n        /* \"#utility.yul\":36444:36462   */\n      tag_807\n      tag_808\n      jump\t// in\n    tag_807:\n        /* \"#utility.yul\":36388:36390   */\n    tag_806:\n        /* \"#utility.yul\":36209:36478   */\n      pop\n      swap2\n      swap1\n      pop\n      jump\t// out\n        /* \"#utility.yul\":36484:36765   */\n    tag_761:\n        /* \"#utility.yul\":36567:36594   */\n      tag_810\n        /* \"#utility.yul\":36589:36593   */\n      dup3\n        /* \"#utility.yul\":36567:36594   */\n      tag_577\n      jump\t// in\n    tag_810:\n        /* \"#utility.yul\":36559:36565   */\n      dup2\n        /* \"#utility.yul\":36555:36595   */\n      add\n        /* \"#utility.yul\":36697:36703   */\n      dup2\n        /* \"#utility.yul\":36685:36695   */\n      dup2\n        /* \"#utility.yul\":36682:36704   */\n      lt\n        /* \"#utility.yul\":36661:36679   */\n      0xffffffffffffffff\n        /* \"#utility.yul\":36649:36659   */\n      dup3\n        /* \"#utility.yul\":36646:36680   */\n      gt\n        /* \"#utility.yul\":36643:36705   */\n      or\n        /* \"#utility.yul\":36640:36642   */\n      iszero\n      tag_811\n      jumpi\n        /* \"#utility.yul\":36708:36726   */\n      tag_812\n      tag_766\n      jump\t// in\n    tag_812:\n        /* \"#utility.yul\":36640:36642   */\n    tag_811:\n        /* \"#utility.yul\":36748:36758   */\n      dup1\n        /* \"#utility.yul\":36744:36746   */\n      0x40\n        /* \"#utility.yul\":36737:36759   */\n      mstore\n        /* \"#utility.yul\":36527:36765   */\n      pop\n      pop\n      pop\n      jump\t// out\n        /* \"#utility.yul\":36771:37004   */\n    tag_148:\n        /* \"#utility.yul\":36810:36813   */\n      0x00\n        /* \"#utility.yul\":36833:36857   */\n      tag_814\n        /* \"#utility.yul\":36851:36856   */\n      dup3\n        /* \"#utility.yul\":36833:36857   */\n      tag_689\n      jump\t// in\n    tag_814:\n        /* \"#utility.yul\":36824:36857   */\n      swap2\n      pop\n        /* \"#utility.yul\":36879:36945   */\n      0xffffffffffffffffffffffffffffffffffffffffffffffffffffffffffffffff\n        /* \"#utility.yul\":36872:36877   */\n      dup3\n        /* \"#utility.yul\":36869:36946   */\n      eq\n        /* \"#utility.yul\":36866:36868   */\n      iszero\n      tag_815\n      jumpi\n        /* \"#utility.yul\":36949:36967   */\n      tag_816\n      tag_786\n      jump\t// in\n    tag_816:\n        /* \"#utility.yul\":36866:36868   */\n    tag_815:\n        /* \"#utility.yul\":36996:36997   */\n      0x01\n        /* \"#utility.yul\":36989:36994   */\n      dup3\n        /* \"#utility.yul\":36985:36998   */\n      add\n        /* \"#utility.yul\":36978:36998   */\n      swap1\n      pop\n        /* \"#utility.yul\":36814:37004   */\n      swap2\n      swap1\n      pop\n      jump\t// out\n        /* \"#utility.yul\":37010:37190   */\n    tag_786:\n        /* \"#utility.yul\":37058:37135   */\n      0x4e487b7100000000000000000000000000000000000000000000000000000000\n        /* \"#utility.yul\":37055:37056   */\n      0x00\n        /* \"#utility.yul\":37048:37136   */\n      mstore\n        /* \"#utility.yul\":37155:37159   */\n      0x11\n        /* \"#utility.yul\":37152:37153   */\n      0x04\n        /* \"#utility.yul\":37145:37160   */\n      mstore\n        /* \"#utility.yul\":37179:37183   */\n      0x24\n        /* \"#utility.yul\":37176:37177   */\n      0x00\n        /* \"#utility.yul\":37169:37184   */\n      revert\n        /* \"#utility.yul\":37196:37376   */\n    tag_808:\n        /* \"#utility.yul\":37244:37321   */\n      0x4e487b7100000000000000000000000000000000000000000000000000000000\n        /* \"#utility.yul\":37241:37242   */\n      0x00\n        /* \"#utility.yul\":37234:37322   */\n      mstore\n        /* \"#utility.yul\":37341:37345   */\n      0x22\n        /* \"#utility.yul\":37338:37339   */\n      0x04\n        /* \"#utility.yul\":37331:37346   */\n      mstore\n        /* \"#utility.yul\":37365:37369   */\n      0x24\n        /* \"#utility.yul\":37362:37363   */\n      0x00\n        /* \"#utility.yul\":37355:37370   */\n      revert\n        /* \"#utility.yul\":37382:37562   */\n    tag_766:\n        /* \"#utility.yul\":37430:37507   */\n      0x4e487b7100000000000000000000000000000000000000000000000000000000\n        /* \"#utility.yul\":37427:37428   */\n      0x00\n        /* \"#utility.yul\":37420:37508   */\n      mstore\n        /* \"#utility.yul\":37527:37531   */\n      0x41\n        /* \"#utility.yul\":37524:37525   */\n      0x04\n        /* \"#utility.yul\":37517:37532   */\n      mstore\n        /* \"#utility.yul\":37551:37555   */\n      0x24\n        /* \"#utility.yul\":37548:37549   */\n      0x00\n        /* \"#utility.yul\":37541:37556   */\n      revert\n        /* \"#utility.yul\":37568:37670   */\n    tag_577:\n        /* \"#utility.yul\":37609:37615   */\n      0x00\n        /* \"#utility.yul\":37660:37662   */\n      0x1f\n        /* \"#utility.yul\":37656:37663   */\n      not\n        /* \"#utility.yul\":37651:37653   */\n      0x1f\n        /* \"#utility.yul\":37644:37649   */\n      dup4\n        /* \"#utility.yul\":37640:37654   */\n      add\n        /* \"#utility.yul\":37636:37664   */\n      and\n        /* \"#utility.yul\":37626:37664   */\n      swap1\n      pop\n        /* \"#utility.yul\":37616:37670   */\n      swap2\n      swap1\n      pop\n      jump\t// out\n        /* \"#utility.yul\":37676:37843   */\n    tag_589:\n        /* \"#utility.yul\":37816:37835   */\n      0x4c6f636b2077617320756e6c6f636b6564000000000000000000000000000000\n        /* \"#utility.yul\":37812:37813   */\n      0x00\n        /* \"#utility.yul\":37804:37810   */\n      dup3\n        /* \"#utility.yul\":37800:37814   */\n      add\n        /* \"#utility.yul\":37793:37836   */\n      mstore\n        /* \"#utility.yul\":37782:37843   */\n      pop\n      jump\t// out\n        /* \"#utility.yul\":37849:38071   */\n    tag_594:\n        /* \"#utility.yul\":37989:38023   */\n      0x556e6c6f636b20646174652073686f756c6420626520696e2074686520667574\n        /* \"#utility.yul\":37985:37986   */\n      0x00\n        /* \"#utility.yul\":37977:37983   */\n      dup3\n        /* \"#utility.yul\":37973:37987   */\n      add\n        /* \"#utility.yul\":37966:38024   */\n      mstore\n        /* \"#utility.yul\":38058:38063   */\n      0x7572650000000000000000000000000000000000000000000000000000000000\n        /* \"#utility.yul\":38053:38055   */\n      0x20\n        /* \"#utility.yul\":38045:38051   */\n      dup3\n        /* \"#utility.yul\":38041:38056   */\n      add\n        /* \"#utility.yul\":38034:38064   */\n      mstore\n        /* \"#utility.yul\":37955:38071   */\n      pop\n      jump\t// out\n        /* \"#utility.yul\":38077:38240   */\n    tag_599:\n        /* \"#utility.yul\":38217:38232   */\n      0x496e76616c696420696e64657800000000000000000000000000000000000000\n        /* \"#utility.yul\":38213:38214   */\n      0x00\n        /* \"#utility.yul\":38205:38211   */\n      dup3\n        /* \"#utility.yul\":38201:38215   */\n      add\n        /* \"#utility.yul\":38194:38233   */\n      mstore\n        /* \"#utility.yul\":38183:38240   */\n      pop\n      jump\t// out\n        /* \"#utility.yul\":38246:38471   */\n    tag_604:\n        /* \"#utility.yul\":38386:38420   */\n      0x416464726573733a20696e73756666696369656e742062616c616e636520666f\n        /* \"#utility.yul\":38382:38383   */\n      0x00\n        /* \"#utility.yul\":38374:38380   */\n      dup3\n        /* \"#utility.yul\":38370:38384   */\n      add\n        /* \"#utility.yul\":38363:38421   */\n      mstore\n        /* \"#utility.yul\":38455:38463   */\n      0x722063616c6c0000000000000000000000000000000000000000000000000000\n        /* \"#utility.yul\":38450:38452   */\n      0x20\n        /* \"#utility.yul\":38442:38448   */\n      dup3\n        /* \"#utility.yul\":38438:38453   */\n      add\n        /* \"#utility.yul\":38431:38464   */\n      mstore\n        /* \"#utility.yul\":38352:38471   */\n      pop\n      jump\t// out\n        /* \"#utility.yul\":38477:38698   */\n    tag_609:\n        /* \"#utility.yul\":38617:38651   */\n      0x596f7520617265206e6f7420746865206f776e6572206f662074686973206c6f\n        /* \"#utility.yul\":38613:38614   */\n      0x00\n        /* \"#utility.yul\":38605:38611   */\n      dup3\n        /* \"#utility.yul\":38601:38615   */\n      add\n        /* \"#utility.yul\":38594:38652   */\n      mstore\n        /* \"#utility.yul\":38686:38690   */\n      0x636b000000000000000000000000000000000000000000000000000000000000\n        /* \"#utility.yul\":38681:38683   */\n      0x20\n        /* \"#utility.yul\":38673:38679   */\n      dup3\n        /* \"#utility.yul\":38669:38684   */\n      add\n        /* \"#utility.yul\":38662:38691   */\n      mstore\n        /* \"#utility.yul\":38583:38698   */\n      pop\n      jump\t// out\n        /* \"#utility.yul\":38704:38870   */\n    tag_614:\n        /* \"#utility.yul\":38844:38862   */\n      0x5061757361626c653a2070617573656400000000000000000000000000000000\n        /* \"#utility.yul\":38840:38841   */\n      0x00\n        /* \"#utility.yul\":38832:38838   */\n      dup3\n        /* \"#utility.yul\":38828:38842   */\n      add\n        /* \"#utility.yul\":38821:38863   */\n      mstore\n        /* \"#utility.yul\":38810:38870   */\n      pop\n      jump\t// out\n        /* \"#utility.yul\":38876:39041   */\n    tag_619:\n        /* \"#utility.yul\":39016:39033   */\n      0x496e76616c6964206c6f636b2069640000000000000000000000000000000000\n        /* \"#utility.yul\":39012:39013   */\n      0x00\n        /* \"#utility.yul\":39004:39010   */\n      dup3\n        /* \"#utility.yul\":39000:39014   */\n      add\n        /* \"#utility.yul\":38993:39034   */\n      mstore\n        /* \"#utility.yul\":38982:39041   */\n      pop\n      jump\t// out\n        /* \"#utility.yul\":39047:39228   */\n    tag_624:\n        /* \"#utility.yul\":39187:39220   */\n      0x416d6f756e742073686f756c642062652067726561746572207468616e203000\n        /* \"#utility.yul\":39183:39184   */\n      0x00\n        /* \"#utility.yul\":39175:39181   */\n      dup3\n        /* \"#utility.yul\":39171:39185   */\n      add\n        /* \"#utility.yul\":39164:39221   */\n      mstore\n        /* \"#utility.yul\":39153:39228   */\n      pop\n      jump\t// out\n        /* \"#utility.yul\":39234:39401   */\n    tag_629:\n        /* \"#utility.yul\":39374:39393   */\n      0x4e6f7468696e6720746f20756e6c6f636b000000000000000000000000000000\n        /* \"#utility.yul\":39370:39371   */\n      0x00\n        /* \"#utility.yul\":39362:39368   */\n      dup3\n        /* \"#utility.yul\":39358:39372   */\n      add\n        /* \"#utility.yul\":39351:39394   */\n      mstore\n        /* \"#utility.yul\":39340:39401   */\n      pop\n      jump\t// out\n        /* \"#utility.yul\":39407:39586   */\n    tag_634:\n        /* \"#utility.yul\":39547:39578   */\n      0x416464726573733a2063616c6c20746f206e6f6e2d636f6e7472616374000000\n        /* \"#utility.yul\":39543:39544   */\n      0x00\n        /* \"#utility.yul\":39535:39541   */\n      dup3\n        /* \"#utility.yul\":39531:39545   */\n      add\n        /* \"#utility.yul\":39524:39579   */\n      mstore\n        /* \"#utility.yul\":39513:39586   */\n      pop\n      jump\t// out\n        /* \"#utility.yul\":39592:39828   */\n    tag_639:\n        /* \"#utility.yul\":39732:39766   */\n      0x4e657720616d6f756e742073686f756c64206e6f74206265206c657373207468\n        /* \"#utility.yul\":39728:39729   */\n      0x00\n        /* \"#utility.yul\":39720:39726   */\n      dup3\n        /* \"#utility.yul\":39716:39730   */\n      add\n        /* \"#utility.yul\":39709:39767   */\n      mstore\n        /* \"#utility.yul\":39801:39820   */\n      0x616e2063757272656e7420616d6f756e74000000000000000000000000000000\n        /* \"#utility.yul\":39796:39798   */\n      0x20\n        /* \"#utility.yul\":39788:39794   */\n      dup3\n        /* \"#utility.yul\":39784:39799   */\n      add\n        /* \"#utility.yul\":39777:39821   */\n      mstore\n        /* \"#utility.yul\":39698:39828   */\n      pop\n      jump\t// out\n        /* \"#utility.yul\":39834:40063   */\n    tag_644:\n        /* \"#utility.yul\":39974:40008   */\n      0x5361666545524332303a204552433230206f7065726174696f6e20646964206e\n        /* \"#utility.yul\":39970:39971   */\n      0x00\n        /* \"#utility.yul\":39962:39968   */\n      dup3\n        /* \"#utility.yul\":39958:39972   */\n      add\n        /* \"#utility.yul\":39951:40009   */\n      mstore\n        /* \"#utility.yul\":40043:40055   */\n      0x6f74207375636365656400000000000000000000000000000000000000000000\n        /* \"#utility.yul\":40038:40040   */\n      0x20\n        /* \"#utility.yul\":40030:40036   */\n      dup3\n        /* \"#utility.yul\":40026:40041   */\n      add\n        /* \"#utility.yul\":40019:40056   */\n      mstore\n        /* \"#utility.yul\":39940:40063   */\n      pop\n      jump\t// out\n        /* \"#utility.yul\":40069:40243   */\n    tag_649:\n        /* \"#utility.yul\":40209:40235   */\n      0x4974206973206e6f742074696d6520746f20756e6c6f636b0000000000000000\n        /* \"#utility.yul\":40205:40206   */\n      0x00\n        /* \"#utility.yul\":40197:40203   */\n      dup3\n        /* \"#utility.yul\":40193:40207   */\n      add\n        /* \"#utility.yul\":40186:40236   */\n      mstore\n        /* \"#utility.yul\":40175:40243   */\n      pop\n      jump\t// out\n        /* \"#utility.yul\":40249:40541   */\n    tag_654:\n        /* \"#utility.yul\":40389:40423   */\n      0x4e657720756e6c6f636b2074696d652073686f756c64206e6f74206265206265\n        /* \"#utility.yul\":40385:40386   */\n      0x00\n        /* \"#utility.yul\":40377:40383   */\n      dup3\n        /* \"#utility.yul\":40373:40387   */\n      add\n        /* \"#utility.yul\":40366:40424   */\n      mstore\n        /* \"#utility.yul\":40458:40492   */\n      0x666f7265206f6c6420756e6c6f636b2074696d65206f722063757272656e7420\n        /* \"#utility.yul\":40453:40455   */\n      0x20\n        /* \"#utility.yul\":40445:40451   */\n      dup3\n        /* \"#utility.yul\":40441:40456   */\n      add\n        /* \"#utility.yul\":40434:40493   */\n      mstore\n        /* \"#utility.yul\":40527:40533   */\n      0x74696d6500000000000000000000000000000000000000000000000000000000\n        /* \"#utility.yul\":40522:40524   */\n      0x40\n        /* \"#utility.yul\":40514:40520   */\n      dup3\n        /* \"#utility.yul\":40510:40525   */\n      add\n        /* \"#utility.yul\":40503:40534   */\n      mstore\n        /* \"#utility.yul\":40355:40541   */\n      pop\n      jump\t// out\n        /* \"#utility.yul\":40547:40728   */\n    tag_659:\n        /* \"#utility.yul\":40687:40720   */\n      0x4e6f7420656e6f75676820746f6b656e20776173207472616e73666572656400\n        /* \"#utility.yul\":40683:40684   */\n      0x00\n        /* \"#utility.yul\":40675:40681   */\n      dup3\n        /* \"#utility.yul\":40671:40685   */\n      add\n        /* \"#utility.yul\":40664:40721   */\n      mstore\n        /* \"#utility.yul\":40653:40728   */\n      pop\n      jump\t// out\n        /* \"#utility.yul\":40734:40856   */\n    tag_451:\n        /* \"#utility.yul\":40807:40831   */\n      tag_837\n        /* \"#utility.yul\":40825:40830   */\n      dup2\n        /* \"#utility.yul\":40807:40831   */\n      tag_525\n      jump\t// in\n    tag_837:\n        /* \"#utility.yul\":40800:40805   */\n      dup2\n        /* \"#utility.yul\":40797:40832   */\n      eq\n        /* \"#utility.yul\":40787:40789   */\n      tag_838\n      jumpi\n        /* \"#utility.yul\":40846:40847   */\n      0x00\n        /* \"#utility.yul\":40843:40844   */\n      dup1\n        /* \"#utility.yul\":40836:40848   */\n      revert\n        /* \"#utility.yul\":40787:40789   */\n    tag_838:\n        /* \"#utility.yul\":40777:40856   */\n      pop\n      jump\t// out\n        /* \"#utility.yul\":40862:40978   */\n    tag_455:\n        /* \"#utility.yul\":40932:40953   */\n      tag_840\n        /* \"#utility.yul\":40947:40952   */\n      dup2\n        /* \"#utility.yul\":40932:40953   */\n      tag_560\n      jump\t// in\n    tag_840:\n        /* \"#utility.yul\":40925:40930   */\n      dup2\n        /* \"#utility.yul\":40922:40954   */\n      eq\n        /* \"#utility.yul\":40912:40914   */\n      tag_841\n      jumpi\n        /* \"#utility.yul\":40968:40969   */\n      0x00\n        /* \"#utility.yul\":40965:40966   */\n      dup1\n        /* \"#utility.yul\":40958:40970   */\n      revert\n        /* \"#utility.yul\":40912:40914   */\n    tag_841:\n        /* \"#utility.yul\":40902:40978   */\n      pop\n      jump\t// out\n        /* \"#utility.yul\":40984:41106   */\n    tag_463:\n        /* \"#utility.yul\":41057:41081   */\n      tag_843\n        /* \"#utility.yul\":41075:41080   */\n      dup2\n        /* \"#utility.yul\":41057:41081   */\n      tag_689\n      jump\t// in\n    tag_843:\n        /* \"#utility.yul\":41050:41055   */\n      dup2\n        /* \"#utility.yul\":41047:41082   */\n      eq\n        /* \"#utility.yul\":41037:41039   */\n      tag_844\n      jumpi\n        /* \"#utility.yul\":41096:41097   */\n      0x00\n        /* \"#utility.yul\":41093:41094   */\n      dup1\n        /* \"#utility.yul\":41086:41098   */\n      revert\n        /* \"#utility.yul\":41037:41039   */\n    tag_844:\n        /* \"#utility.yul\":41027:41106   */\n      pop\n      jump\t// out\n\n    auxdata: 0xa2646970667358221220e4d2e6fa8671955f9ab928068f2ef40f797815a3b60940d593ecbfbd554c2dac64736f6c63430008040033\n}\n",
				"bytecode": {
					"linkReferences": {},
					"object": "608060405234801561001057600080fd5b5060008060006101000a81548160ff021916908315150217905550613d9b8061003a6000396000f3fe608060405234801561001057600080fd5b50600436106101165760003560e01c80637e6706d3116100a2578063d3cac88511610071578063d3cac88514610317578063da1d8cff14610333578063e1444fd614610363578063eb80bdae14610394578063fd981c66146103c457610116565b80637e6706d31461027f57806397b1d73a146102af578063a57e3141146102df578063b3b9aa48146102fb57610116565b80635a04fb69116100e95780635a04fb69146101c95780635c975abb146101e5578063618df7a3146102035780636198e3391461023357806376c128221461024f57610116565b806308f124701461011b5780630d4f581a1461014b578063332f26d71461017b578063475831c8146101ab575b600080fd5b61013560048036038101906101309190612b5a565b6103e2565b60405161014291906135d2565b60405180910390f35b61016560048036038101906101609190612b5a565b6105bd565b60405161017291906135d2565b60405180910390f35b61019560048036038101906101909190612ae2565b610790565b6040516101a29190613378565b60405180910390f35b6101b36109a9565b6040516101c091906135f4565b60405180910390f35b6101e360048036038101906101de9190612bac565b6109ba565b005b6101ed610bd1565b6040516101fa919061339a565b60405180910390f35b61021d60048036038101906102189190612aa6565b610be7565b60405161022a91906135d2565b60405180910390f35b61024d60048036038101906102489190612b5a565b610c9a565b005b61026960048036038101906102649190612c3c565b610d91565b6040516102769190613356565b60405180910390f35b61029960048036038101906102949190612b5a565b610f93565b6040516102a691906135b7565b60405180910390f35b6102c960048036038101906102c49190612a17565b61105f565b6040516102d691906135f4565b60405180910390f35b6102f960048036038101906102f49190612b5a565b611148565b005b61031560048036038101906103109190612c78565b611156565b005b610331600480360381019061032c9190612be8565b6114ad565b005b61034d600480360381019061034891906129ee565b6115ec565b60405161035a9190613378565b60405180910390f35b61037d600480360381019061037891906129ee565b61177d565b60405161038b92919061332d565b60405180910390f35b6103ae60048036038101906103a991906129ee565b6117c1565b6040516103bb91906135f4565b60405180910390f35b6103cc611811565b6040516103d991906135f4565b60405180910390f35b6103ea6127ee565b60016103f58361181e565b8154811061042c577f4e487b7100000000000000000000000000000000000000000000000000000000600052603260045260246000fd5b906000526020600020906008020160405180610100016040529081600082015481526020016001820160009054906101000a900473ffffffffffffffffffffffffffffffffffffffff1673ffffffffffffffffffffffffffffffffffffffff1673ffffffffffffffffffffffffffffffffffffffff1681526020016002820160009054906101000a900473ffffffffffffffffffffffffffffffffffffffff1673ffffffffffffffffffffffffffffffffffffffff1673ffffffffffffffffffffffffffffffffffffffff1681526020016003820154815260200160048201548152602001600582015481526020016006820154815260200160078201805461053490613865565b80601f016020809104026020016040519081016040528092919081815260200182805461056090613865565b80156105ad5780601f10610582576101008083540402835291602001916105ad565b820191906000526020600020905b81548152906001019060200180831161059057829003601f168201915b5050505050815250509050919050565b6105c56127ee565b600182815481106105ff577f4e487b7100000000000000000000000000000000000000000000000000000000600052603260045260246000fd5b906000526020600020906008020160405180610100016040529081600082015481526020016001820160009054906101000a900473ffffffffffffffffffffffffffffffffffffffff1673ffffffffffffffffffffffffffffffffffffffff1673ffffffffffffffffffffffffffffffffffffffff1681526020016002820160009054906101000a900473ffffffffffffffffffffffffffffffffffffffff1673ffffffffffffffffffffffffffffffffffffffff1673ffffffffffffffffffffffffffffffffffffffff1681526020016003820154815260200160048201548152602001600582015481526020016006820154815260200160078201805461070790613865565b80601f016020809104026020016040519081016040528092919081815260200182805461073390613865565b80156107805780601f1061075557610100808354040283529160200191610780565b820191906000526020600020905b81548152906001019060200180831161076357829003601f168201915b5050505050815250509050919050565b60606107d9600660008673ffffffffffffffffffffffffffffffffffffffff1673ffffffffffffffffffffffffffffffffffffffff168152602001908152602001600020611874565b8210610835576001610828600660008773ffffffffffffffffffffffffffffffffffffffff1673ffffffffffffffffffffffffffffffffffffffff168152602001908152602001600020611874565b61083291906137a7565b91505b60006001848461084591906137a7565b61084f9190613751565b905060008167ffffffffffffffff811115610893577f4e487b7100000000000000000000000000000000000000000000000000000000600052604160045260246000fd5b6040519080825280602002602001820160405280156108cc57816020015b6108b96127ee565b8152602001906001900390816108b15790505b5090506000808690505b85811161099b5761093661093182600660008c73ffffffffffffffffffffffffffffffffffffffff1673ffffffffffffffffffffffffffffffffffffffff16815260200190815260200160002061188990919063ffffffff16565b6103e2565b83838151811061096f577f4e487b7100000000000000000000000000000000000000000000000000000000600052603260045260246000fd5b60200260200101819052508180610985906138c8565b9250508080610993906138c8565b9150506108d6565b508193505050509392505050565b60006109b560036118a3565b905090565b816109c48161181e565b50600060018481548110610a01577f4e487b7100000000000000000000000000000000000000000000000000000000600052603260045260246000fd5b9060005260206000209060080201905060008160020160009054906101000a900473ffffffffffffffffffffffffffffffffffffffff1690503373ffffffffffffffffffffffffffffffffffffffff168173ffffffffffffffffffffffffffffffffffffffff1614610aa8576040517f08c379a0000000000000000000000000000000000000000000000000000000008152600401610a9f90613457565b60405180910390fd5b838260020160006101000a81548173ffffffffffffffffffffffffffffffffffffffff021916908373ffffffffffffffffffffffffffffffffffffffff160217905550610b3c85600260008473ffffffffffffffffffffffffffffffffffffffff1673ffffffffffffffffffffffffffffffffffffffff1681526020019081526020016000206118b890919063ffffffff16565b50610b8e85600260008773ffffffffffffffffffffffffffffffffffffffff1673ffffffffffffffffffffffffffffffffffffffff1681526020019081526020016000206118d290919063ffffffff16565b507f9075ad040756c0d8743a1fed927066a92c4755071615bf61e04b17583d961caf858286604051610bc29392919061360f565b60405180910390a15050505050565b60008060009054906101000a900460ff16905090565b610bef6127ee565b81610bf9846117c1565b11610c39576040517f08c379a0000000000000000000000000000000000000000000000000000000008152600401610c3090613417565b60405180910390fd5b610c92610c8d83600260008773ffffffffffffffffffffffffffffffffffffffff1673ffffffffffffffffffffffffffffffffffffffff16815260200190815260200160002061188990919063ffffffff16565b6103e2565b905092915050565b80610ca48161181e565b50600060018381548110610ce1577f4e487b7100000000000000000000000000000000000000000000000000000000600052603260045260246000fd5b906000526020600020906008020190503373ffffffffffffffffffffffffffffffffffffffff168160020160009054906101000a900473ffffffffffffffffffffffffffffffffffffffff1673ffffffffffffffffffffffffffffffffffffffff1614610d83576040517f08c379a0000000000000000000000000000000000000000000000000000000008152600401610d7a90613457565b60405180910390fd5b610d8c816118ec565b505050565b6060610d9d60036118a3565b8210610dbc576001610daf60036118a3565b610db991906137a7565b91505b600060018484610dcc91906137a7565b610dd69190613751565b905060008167ffffffffffffffff811115610e1a577f4e487b7100000000000000000000000000000000000000000000000000000000600052604160045260246000fd5b604051908082528060200260200182016040528015610e5357816020015b610e4061285f565b815260200190600190039081610e385790505b5090506000808690505b858111610f865760056000610e7c836003611bf790919063ffffffff16565b73ffffffffffffffffffffffffffffffffffffffff1673ffffffffffffffffffffffffffffffffffffffff1681526020019081526020016000206040518060400160405290816000820160009054906101000a900473ffffffffffffffffffffffffffffffffffffffff1673ffffffffffffffffffffffffffffffffffffffff1673ffffffffffffffffffffffffffffffffffffffff168152602001600182015481525050838381518110610f5a577f4e487b7100000000000000000000000000000000000000000000000000000000600052603260045260246000fd5b60200260200101819052508180610f70906138c8565b9250508080610f7e906138c8565b915050610e5d565b5081935050505092915050565b610f9b61285f565b60056000610fb3846003611bf790919063ffffffff16565b73ffffffffffffffffffffffffffffffffffffffff1673ffffffffffffffffffffffffffffffffffffffff1681526020019081526020016000206040518060400160405290816000820160009054906101000a900473ffffffffffffffffffffffffffffffffffffffff1673ffffffffffffffffffffffffffffffffffffffff1673ffffffffffffffffffffffffffffffffffffffff1681526020016001820154815250509050919050565b60004283116110a3576040517f08c379a000000000000000000000000000000000000000000000000000000000815260040161109a906133f7565b60405180910390fd5b600084116110e6576040517f08c379a00000000000000000000000000000000000000000000000000000000081526004016110dd906134b7565b60405180910390fd5b6110f38686868686611c11565b905061110185333087611c2b565b807f694af1cc8727cdd0afbdd53d9b87b69248bd490224e9dd090e788546506e076f8688878760405161113794939291906132e8565b60405180910390a295945050505050565b6111538160006109ba565b50565b826111608161181e565b5060006001858154811061119d577f4e487b7100000000000000000000000000000000000000000000000000000000600052603260045260246000fd5b906000526020600020906008020190503373ffffffffffffffffffffffffffffffffffffffff168160020160009054906101000a900473ffffffffffffffffffffffffffffffffffffffff1673ffffffffffffffffffffffffffffffffffffffff161461123f576040517f08c379a000000000000000000000000000000000000000000000000000000000815260040161123690613457565b60405180910390fd5b6000816006015414611286576040517f08c379a000000000000000000000000000000000000000000000000000000000815260040161127d906133d7565b60405180910390fd5b60008311156112eb57806005015483101580156112a257504283115b6112e1576040517f08c379a00000000000000000000000000000000000000000000000000000000081526004016112d890613577565b60405180910390fd5b8281600501819055505b600084111561141457806003015484101561133b576040517f08c379a000000000000000000000000000000000000000000000000000000000815260040161133290613517565b60405180910390fd5b600081600301548561134d91906137a7565b90506000811115611412578482600301819055506000600560008460010160009054906101000a900473ffffffffffffffffffffffffffffffffffffffff1673ffffffffffffffffffffffffffffffffffffffff1673ffffffffffffffffffffffffffffffffffffffff16815260200190815260200160002090508181600101546113d89190613751565b81600101819055506114108360010160009054906101000a900473ffffffffffffffffffffffffffffffffffffffff16333085611c2b565b505b505b80600001547fa8b26360df8d5e154ffa5a8a7e894e85f781acfbbef0b744fb9551d8fd0fd36c8260010160009054906101000a900473ffffffffffffffffffffffffffffffffffffffff168360020160009054906101000a900473ffffffffffffffffffffffffffffffffffffffff168460030154856005015460405161149e94939291906132e8565b60405180910390a25050505050565b816114b78161181e565b506000600184815481106114f4577f4e487b7100000000000000000000000000000000000000000000000000000000600052603260045260246000fd5b906000526020600020906008020190503373ffffffffffffffffffffffffffffffffffffffff168160020160009054906101000a900473ffffffffffffffffffffffffffffffffffffffff1673ffffffffffffffffffffffffffffffffffffffff1614611596576040517f08c379a000000000000000000000000000000000000000000000000000000000815260040161158d90613457565b60405180910390fd5b828160070190805190602001906115ae92919061288f565b507fe4a1120fd509c50aec65802fd3c3c9a4b72bf746fe9a552396185c6de928e8aa846040516115de91906135f4565b60405180910390a150505050565b60606000611637600260008573ffffffffffffffffffffffffffffffffffffffff1673ffffffffffffffffffffffffffffffffffffffff168152602001908152602001600020611874565b905060008167ffffffffffffffff81111561167b577f4e487b7100000000000000000000000000000000000000000000000000000000600052604160045260246000fd5b6040519080825280602002602001820160405280156116b457816020015b6116a16127ee565b8152602001906001900390816116995790505b50905060005b828110156117725761171b61171682600260008973ffffffffffffffffffffffffffffffffffffffff1673ffffffffffffffffffffffffffffffffffffffff16815260200190815260200160002061188990919063ffffffff16565b6103e2565b828281518110611754577f4e487b7100000000000000000000000000000000000000000000000000000000600052603260045260246000fd5b6020026020010181905250808061176a906138c8565b9150506116ba565b508092505050919050565b60056020528060005260406000206000915090508060000160009054906101000a900473ffffffffffffffffffffffffffffffffffffffff16908060010154905082565b600061180a600260008473ffffffffffffffffffffffffffffffffffffffff1673ffffffffffffffffffffffffffffffffffffffff168152602001908152602001600020611874565b9050919050565b6000600180549050905090565b600080829050600180549050811061186b576040517f08c379a000000000000000000000000000000000000000000000000000000000815260040161186290613497565b60405180910390fd5b80915050919050565b600061188282600001611dc7565b9050919050565b60006118988360000183611dd8565b60001c905092915050565b60006118b182600001611dc7565b9050919050565b60006118ca836000018360001b611e29565b905092915050565b60006118e4836000018360001b611faf565b905092915050565b8060050154421015611933576040517f08c379a000000000000000000000000000000000000000000000000000000000815260040161192a90613557565b60405180910390fd5b600081600601541461197a576040517f08c379a0000000000000000000000000000000000000000000000000000000008152600401611971906134d7565b60405180910390fd5b6000600560008360010160009054906101000a900473ffffffffffffffffffffffffffffffffffffffff1673ffffffffffffffffffffffffffffffffffffffff1673ffffffffffffffffffffffffffffffffffffffff1681526020019081526020016000209050611a368260000154600260003373ffffffffffffffffffffffffffffffffffffffff1673ffffffffffffffffffffffffffffffffffffffff1681526020019081526020016000206118b890919063ffffffff16565b5060008260030154905080826001015411611a5a5760008260010181905550611a73565b808260010154611a6a91906137a7565b82600101819055505b600082600101541415611aba57611ab88360010160009054906101000a900473ffffffffffffffffffffffffffffffffffffffff16600361201f90919063ffffffff16565b505b808360060181905550611b3c8360000154600660008660010160009054906101000a900473ffffffffffffffffffffffffffffffffffffffff1673ffffffffffffffffffffffffffffffffffffffff1673ffffffffffffffffffffffffffffffffffffffff1681526020019081526020016000206118b890919063ffffffff16565b50611b8c33828560010160009054906101000a900473ffffffffffffffffffffffffffffffffffffffff1673ffffffffffffffffffffffffffffffffffffffff1661204f9092919063ffffffff16565b82600001547fc6532367992b32e42a62dd89fc3574876d97d081a263aa6e030f34b79b7e6e8b8460010160009054906101000a900473ffffffffffffffffffffffffffffffffffffffff16338442604051611bea94939291906132e8565b60405180910390a2505050565b6000611c068360000183611dd8565b60001c905092915050565b6000611c2086868686866120d5565b905095945050505050565b60008473ffffffffffffffffffffffffffffffffffffffff166370a08231846040518263ffffffff1660e01b8152600401611c669190613296565b60206040518083038186803b158015611c7e57600080fd5b505afa158015611c92573d6000803e3d6000fd5b505050506040513d601f19601f82011682018060405250810190611cb69190612b83565b9050611ce58484848873ffffffffffffffffffffffffffffffffffffffff166122a1909392919063ffffffff16565b60008573ffffffffffffffffffffffffffffffffffffffff166370a08231856040518263ffffffff1660e01b8152600401611d209190613296565b60206040518083038186803b158015611d3857600080fd5b505afa158015611d4c573d6000803e3d6000fd5b505050506040513d601f19601f82011682018060405250810190611d709190612b83565b9050828282611d7f91906137a7565b14611dbf576040517f08c379a0000000000000000000000000000000000000000000000000000000008152600401611db690613597565b60405180910390fd5b505050505050565b600081600001805490509050919050565b6000826000018281548110611e16577f4e487b7100000000000000000000000000000000000000000000000000000000600052603260045260246000fd5b9060005260206000200154905092915050565b60008083600101600084815260200190815260200160002054905060008114611fa3576000600182611e5b91906137a7565b9050600060018660000180549050611e7391906137a7565b9050818114611f2e576000866000018281548110611eba577f4e487b7100000000000000000000000000000000000000000000000000000000600052603260045260246000fd5b9060005260206000200154905080876000018481548110611f04577f4e487b7100000000000000000000000000000000000000000000000000000000600052603260045260246000fd5b90600052602060002001819055508387600101600083815260200190815260200160002081905550505b85600001805480611f68577f4e487b7100000000000000000000000000000000000000000000000000000000600052603160045260246000fd5b600190038181906000526020600020016000905590558560010160008681526020019081526020016000206000905560019350505050611fa9565b60009150505b92915050565b6000611fbb838361232a565b612014578260000182908060018154018082558091505060019003906000526020600020016000909190919091505582600001805490508360010160008481526020019081526020016000208190555060019050612019565b600090505b92915050565b6000612047836000018373ffffffffffffffffffffffffffffffffffffffff1660001b611e29565b905092915050565b6120d08363a9059cbb60e01b848460405160240161206e92919061332d565b604051602081830303815290604052907bffffffffffffffffffffffffffffffffffffffffffffffffffffffff19166020820180517bffffffffffffffffffffffffffffffffffffffffffffffffffffffff838183161783525050505061234d565b505050565b60006120e48686868686612414565b905061213781600260008973ffffffffffffffffffffffffffffffffffffffff1673ffffffffffffffffffffffffffffffffffffffff1681526020019081526020016000206118d290919063ffffffff16565b5061214c8560036125a690919063ffffffff16565b506000600560008773ffffffffffffffffffffffffffffffffffffffff1673ffffffffffffffffffffffffffffffffffffffff1681526020019081526020016000209050600073ffffffffffffffffffffffffffffffffffffffff168160000160009054906101000a900473ffffffffffffffffffffffffffffffffffffffff1673ffffffffffffffffffffffffffffffffffffffff16141561222d57858160000160006101000a81548173ffffffffffffffffffffffffffffffffffffffff021916908373ffffffffffffffffffffffffffffffffffffffff1602179055505b84816001015461223d9190613751565b816001018190555061229682600660008973ffffffffffffffffffffffffffffffffffffffff1673ffffffffffffffffffffffffffffffffffffffff1681526020019081526020016000206118d290919063ffffffff16565b505095945050505050565b612324846323b872dd60e01b8585856040516024016122c2939291906132b1565b604051602081830303815290604052907bffffffffffffffffffffffffffffffffffffffffffffffffffffffff19166020820180517bffffffffffffffffffffffffffffffffffffffffffffffffffffffff838183161783525050505061234d565b50505050565b600080836001016000848152602001908152602001600020541415905092915050565b60006123af826040518060400160405280602081526020017f5361666545524332303a206c6f772d6c6576656c2063616c6c206661696c65648152508573ffffffffffffffffffffffffffffffffffffffff166125d69092919063ffffffff16565b905060008151111561240f57808060200190518101906123cf9190612b31565b61240e576040517f08c379a000000000000000000000000000000000000000000000000000000000815260040161240590613537565b60405180910390fd5b5b505050565b600061241e6125ee565b600180549050905060006040518061010001604052808381526020018773ffffffffffffffffffffffffffffffffffffffff1681526020018873ffffffffffffffffffffffffffffffffffffffff1681526020018681526020014281526020018581526020016000815260200184815250905060018190806001815401808255809150506001900390600052602060002090600802016000909190919091506000820151816000015560208201518160010160006101000a81548173ffffffffffffffffffffffffffffffffffffffff021916908373ffffffffffffffffffffffffffffffffffffffff16021790555060408201518160020160006101000a81548173ffffffffffffffffffffffffffffffffffffffff021916908373ffffffffffffffffffffffffffffffffffffffff160217905550606082015181600301556080820151816004015560a0820151816005015560c0820151816006015560e082015181600701908051906020019061259992919061288f565b5050505095945050505050565b60006125ce836000018373ffffffffffffffffffffffffffffffffffffffff1660001b611faf565b905092915050565b60606125e58484600085612638565b90509392505050565b6125f6610bd1565b15612636576040517f08c379a000000000000000000000000000000000000000000000000000000000815260040161262d90613477565b60405180910390fd5b565b60608247101561267d576040517f08c379a000000000000000000000000000000000000000000000000000000000815260040161267490613437565b60405180910390fd5b6000808673ffffffffffffffffffffffffffffffffffffffff1685876040516126a6919061327f565b60006040518083038185875af1925050503d80600081146126e3576040519150601f19603f3d011682016040523d82523d6000602084013e6126e8565b606091505b50915091506126f987838387612705565b92505050949350505050565b6060831561276857600083511415612760576127208561277b565b61275f576040517f08c379a0000000000000000000000000000000000000000000000000000000008152600401612756906134f7565b60405180910390fd5b5b829050612773565b612772838361279e565b5b949350505050565b6000808273ffffffffffffffffffffffffffffffffffffffff163b119050919050565b6000825111156127b15781518083602001fd5b806040517f08c379a00000000000000000000000000000000000000000000000000000000081526004016127e591906133b5565b60405180910390fd5b60405180610100016040528060008152602001600073ffffffffffffffffffffffffffffffffffffffff168152602001600073ffffffffffffffffffffffffffffffffffffffff16815260200160008152602001600081526020016000815260200160008152602001606081525090565b6040518060400160405280600073ffffffffffffffffffffffffffffffffffffffff168152602001600081525090565b82805461289b90613865565b90600052602060002090601f0160209004810192826128bd5760008555612904565b82601f106128d657805160ff1916838001178555612904565b82800160010185558215612904579182015b828111156129035782518255916020019190600101906128e8565b5b5090506129119190612915565b5090565b5b8082111561292e576000816000905550600101612916565b5090565b60006129456129408461366b565b613646565b90508281526020810184848401111561295d57600080fd5b612968848285613823565b509392505050565b60008135905061297f81613d20565b92915050565b60008151905061299481613d37565b92915050565b600082601f8301126129ab57600080fd5b81356129bb848260208601612932565b91505092915050565b6000813590506129d381613d4e565b92915050565b6000815190506129e881613d4e565b92915050565b600060208284031215612a0057600080fd5b6000612a0e84828501612970565b91505092915050565b600080600080600060a08688031215612a2f57600080fd5b6000612a3d88828901612970565b9550506020612a4e88828901612970565b9450506040612a5f888289016129c4565b9350506060612a70888289016129c4565b925050608086013567ffffffffffffffff811115612a8d57600080fd5b612a998882890161299a565b9150509295509295909350565b60008060408385031215612ab957600080fd5b6000612ac785828601612970565b9250506020612ad8858286016129c4565b9150509250929050565b600080600060608486031215612af757600080fd5b6000612b0586828701612970565b9350506020612b16868287016129c4565b9250506040612b27868287016129c4565b9150509250925092565b600060208284031215612b4357600080fd5b6000612b5184828501612985565b91505092915050565b600060208284031215612b6c57600080fd5b6000612b7a848285016129c4565b91505092915050565b600060208284031215612b9557600080fd5b6000612ba3848285016129d9565b91505092915050565b60008060408385031215612bbf57600080fd5b6000612bcd858286016129c4565b9250506020612bde85828601612970565b9150509250929050565b60008060408385031215612bfb57600080fd5b6000612c09858286016129c4565b925050602083013567ffffffffffffffff811115612c2657600080fd5b612c328582860161299a565b9150509250929050565b60008060408385031215612c4f57600080fd5b6000612c5d858286016129c4565b9250506020612c6e858286016129c4565b9150509250929050565b600080600060608486031215612c8d57600080fd5b6000612c9b868287016129c4565b9350506020612cac868287016129c4565b9250506040612cbd868287016129c4565b9150509250925092565b6000612cd383836130a3565b60408301905092915050565b6000612ceb8383613101565b905092915050565b612cfc816137db565b82525050565b612d0b816137db565b82525050565b6000612d1c826136bc565b612d268185613702565b9350612d318361369c565b8060005b83811015612d62578151612d498882612cc7565b9750612d54836136e8565b925050600181019050612d35565b5085935050505092915050565b6000612d7a826136c7565b612d848185613713565b935083602082028501612d96856136ac565b8060005b85811015612dd25784840389528151612db38582612cdf565b9450612dbe836136f5565b925060208a01995050600181019050612d9a565b50829750879550505050505092915050565b612ded816137ed565b82525050565b6000612dfe826136d2565b612e088185613724565b9350612e18818560208601613832565b80840191505092915050565b6000612e2f826136dd565b612e39818561372f565b9350612e49818560208601613832565b612e528161399e565b840191505092915050565b6000612e68826136dd565b612e728185613740565b9350612e82818560208601613832565b612e8b8161399e565b840191505092915050565b6000612ea3601183613740565b9150612eae826139af565b602082019050919050565b6000612ec6602383613740565b9150612ed1826139d8565b604082019050919050565b6000612ee9600d83613740565b9150612ef482613a27565b602082019050919050565b6000612f0c602683613740565b9150612f1782613a50565b604082019050919050565b6000612f2f602283613740565b9150612f3a82613a9f565b604082019050919050565b6000612f52601083613740565b9150612f5d82613aee565b602082019050919050565b6000612f75600f83613740565b9150612f8082613b17565b602082019050919050565b6000612f98601f83613740565b9150612fa382613b40565b602082019050919050565b6000612fbb601183613740565b9150612fc682613b69565b602082019050919050565b6000612fde601d83613740565b9150612fe982613b92565b602082019050919050565b6000613001603183613740565b915061300c82613bbb565b604082019050919050565b6000613024602a83613740565b915061302f82613c0a565b604082019050919050565b6000613047601883613740565b915061305282613c59565b602082019050919050565b600061306a604483613740565b915061307582613c82565b606082019050919050565b600061308d601f83613740565b915061309882613cf7565b602082019050919050565b6040820160008201516130b96000850182612cf3565b5060208201516130cc6020850182613261565b50505050565b6040820160008201516130e86000850182612cf3565b5060208201516130fb6020850182613261565b50505050565b60006101008301600083015161311a6000860182613261565b50602083015161312d6020860182612cf3565b5060408301516131406040860182612cf3565b5060608301516131536060860182613261565b5060808301516131666080860182613261565b5060a083015161317960a0860182613261565b5060c083015161318c60c0860182613261565b5060e083015184820360e08601526131a48282612e24565b9150508091505092915050565b6000610100830160008301516131ca6000860182613261565b5060208301516131dd6020860182612cf3565b5060408301516131f06040860182612cf3565b5060608301516132036060860182613261565b5060808301516132166080860182613261565b5060a083015161322960a0860182613261565b5060c083015161323c60c0860182613261565b5060e083015184820360e08601526132548282612e24565b9150508091505092915050565b61326a81613819565b82525050565b61327981613819565b82525050565b600061328b8284612df3565b915081905092915050565b60006020820190506132ab6000830184612d02565b92915050565b60006060820190506132c66000830186612d02565b6132d36020830185612d02565b6132e06040830184613270565b949350505050565b60006080820190506132fd6000830187612d02565b61330a6020830186612d02565b6133176040830185613270565b6133246060830184613270565b95945050505050565b60006040820190506133426000830185612d02565b61334f6020830184613270565b9392505050565b600060208201905081810360008301526133708184612d11565b905092915050565b600060208201905081810360008301526133928184612d6f565b905092915050565b60006020820190506133af6000830184612de4565b92915050565b600060208201905081810360008301526133cf8184612e5d565b905092915050565b600060208201905081810360008301526133f081612e96565b9050919050565b6000602082019050818103600083015261341081612eb9565b9050919050565b6000602082019050818103600083015261343081612edc565b9050919050565b6000602082019050818103600083015261345081612eff565b9050919050565b6000602082019050818103600083015261347081612f22565b9050919050565b6000602082019050818103600083015261349081612f45565b9050919050565b600060208201905081810360008301526134b081612f68565b9050919050565b600060208201905081810360008301526134d081612f8b565b9050919050565b600060208201905081810360008301526134f081612fae565b9050919050565b6000602082019050818103600083015261351081612fd1565b9050919050565b6000602082019050818103600083015261353081612ff4565b9050919050565b6000602082019050818103600083015261355081613017565b9050919050565b600060208201905081810360008301526135708161303a565b9050919050565b600060208201905081810360008301526135908161305d565b9050919050565b600060208201905081810360008301526135b081613080565b9050919050565b60006040820190506135cc60008301846130d2565b92915050565b600060208201905081810360008301526135ec81846131b1565b905092915050565b60006020820190506136096000830184613270565b92915050565b60006060820190506136246000830186613270565b6136316020830185612d02565b61363e6040830184612d02565b949350505050565b6000613650613661565b905061365c8282613897565b919050565b6000604051905090565b600067ffffffffffffffff8211156136865761368561396f565b5b61368f8261399e565b9050602081019050919050565b6000819050602082019050919050565b6000819050602082019050919050565b600081519050919050565b600081519050919050565b600081519050919050565b600081519050919050565b6000602082019050919050565b6000602082019050919050565b600082825260208201905092915050565b600082825260208201905092915050565b600081905092915050565b600082825260208201905092915050565b600082825260208201905092915050565b600061375c82613819565b915061376783613819565b9250827fffffffffffffffffffffffffffffffffffffffffffffffffffffffffffffffff0382111561379c5761379b613911565b5b828201905092915050565b60006137b282613819565b91506137bd83613819565b9250828210156137d0576137cf613911565b5b828203905092915050565b60006137e6826137f9565b9050919050565b60008115159050919050565b600073ffffffffffffffffffffffffffffffffffffffff82169050919050565b6000819050919050565b82818337600083830152505050565b60005b83811015613850578082015181840152602081019050613835565b8381111561385f576000848401525b50505050565b6000600282049050600182168061387d57607f821691505b6020821081141561389157613890613940565b5b50919050565b6138a08261399e565b810181811067ffffffffffffffff821117156138bf576138be61396f565b5b80604052505050565b60006138d382613819565b91507fffffffffffffffffffffffffffffffffffffffffffffffffffffffffffffffff82141561390657613905613911565b5b600182019050919050565b7f4e487b7100000000000000000000000000000000000000000000000000000000600052601160045260246000fd5b7f4e487b7100000000000000000000000000000000000000000000000000000000600052602260045260246000fd5b7f4e487b7100000000000000000000000000000000000000000000000000000000600052604160045260246000fd5b6000601f19601f8301169050919050565b7f4c6f636b2077617320756e6c6f636b6564000000000000000000000000000000600082015250565b7f556e6c6f636b20646174652073686f756c6420626520696e207468652066757460008201527f7572650000000000000000000000000000000000000000000000000000000000602082015250565b7f496e76616c696420696e64657800000000000000000000000000000000000000600082015250565b7f416464726573733a20696e73756666696369656e742062616c616e636520666f60008201527f722063616c6c0000000000000000000000000000000000000000000000000000602082015250565b7f596f7520617265206e6f7420746865206f776e6572206f662074686973206c6f60008201527f636b000000000000000000000000000000000000000000000000000000000000602082015250565b7f5061757361626c653a2070617573656400000000000000000000000000000000600082015250565b7f496e76616c6964206c6f636b2069640000000000000000000000000000000000600082015250565b7f416d6f756e742073686f756c642062652067726561746572207468616e203000600082015250565b7f4e6f7468696e6720746f20756e6c6f636b000000000000000000000000000000600082015250565b7f416464726573733a2063616c6c20746f206e6f6e2d636f6e7472616374000000600082015250565b7f4e657720616d6f756e742073686f756c64206e6f74206265206c65737320746860008201527f616e2063757272656e7420616d6f756e74000000000000000000000000000000602082015250565b7f5361666545524332303a204552433230206f7065726174696f6e20646964206e60008201527f6f74207375636365656400000000000000000000000000000000000000000000602082015250565b7f4974206973206e6f742074696d6520746f20756e6c6f636b0000000000000000600082015250565b7f4e657720756e6c6f636b2074696d652073686f756c64206e6f7420626520626560008201527f666f7265206f6c6420756e6c6f636b2074696d65206f722063757272656e742060208201527f74696d6500000000000000000000000000000000000000000000000000000000604082015250565b7f4e6f7420656e6f75676820746f6b656e20776173207472616e73666572656400600082015250565b613d29816137db565b8114613d3457600080fd5b50565b613d40816137ed565b8114613d4b57600080fd5b50565b613d5781613819565b8114613d6257600080fd5b5056fea2646970667358221220e4d2e6fa8671955f9ab928068f2ef40f797815a3b60940d593ecbfbd554c2dac64736f6c63430008040033",
					"opcodes": "PUSH1 0x80 PUSH1 0x40 MSTORE CALLVALUE DUP1 ISZERO PUSH2 0x10 JUMPI PUSH1 0x0 DUP1 REVERT JUMPDEST POP PUSH1 0x0 DUP1 PUSH1 0x0 PUSH2 0x100 EXP DUP2 SLOAD DUP2 PUSH1 0xFF MUL NOT AND SWAP1 DUP4 ISZERO ISZERO MUL OR SWAP1 SSTORE POP PUSH2 0x3D9B DUP1 PUSH2 0x3A PUSH1 0x0 CODECOPY PUSH1 0x0 RETURN INVALID PUSH1 0x80 PUSH1 0x40 MSTORE CALLVALUE DUP1 ISZERO PUSH2 0x10 JUMPI PUSH1 0x0 DUP1 REVERT JUMPDEST POP PUSH1 0x4 CALLDATASIZE LT PUSH2 0x116 JUMPI PUSH1 0x0 CALLDATALOAD PUSH1 0xE0 SHR DUP1 PUSH4 0x7E6706D3 GT PUSH2 0xA2 JUMPI DUP1 PUSH4 0xD3CAC885 GT PUSH2 0x71 JUMPI DUP1 PUSH4 0xD3CAC885 EQ PUSH2 0x317 JUMPI DUP1 PUSH4 0xDA1D8CFF EQ PUSH2 0x333 JUMPI DUP1 PUSH4 0xE1444FD6 EQ PUSH2 0x363 JUMPI DUP1 PUSH4 0xEB80BDAE EQ PUSH2 0x394 JUMPI DUP1 PUSH4 0xFD981C66 EQ PUSH2 0x3C4 JUMPI PUSH2 0x116 JUMP JUMPDEST DUP1 PUSH4 0x7E6706D3 EQ PUSH2 0x27F JUMPI DUP1 PUSH4 0x97B1D73A EQ PUSH2 0x2AF JUMPI DUP1 PUSH4 0xA57E3141 EQ PUSH2 0x2DF JUMPI DUP1 PUSH4 0xB3B9AA48 EQ PUSH2 0x2FB JUMPI PUSH2 0x116 JUMP JUMPDEST DUP1 PUSH4 0x5A04FB69 GT PUSH2 0xE9 JUMPI DUP1 PUSH4 0x5A04FB69 EQ PUSH2 0x1C9 JUMPI DUP1 PUSH4 0x5C975ABB EQ PUSH2 0x1E5 JUMPI DUP1 PUSH4 0x618DF7A3 EQ PUSH2 0x203 JUMPI DUP1 PUSH4 0x6198E339 EQ PUSH2 0x233 JUMPI DUP1 PUSH4 0x76C12822 EQ PUSH2 0x24F JUMPI PUSH2 0x116 JUMP JUMPDEST DUP1 PUSH4 0x8F12470 EQ PUSH2 0x11B JUMPI DUP1 PUSH4 0xD4F581A EQ PUSH2 0x14B JUMPI DUP1 PUSH4 0x332F26D7 EQ PUSH2 0x17B JUMPI DUP1 PUSH4 0x475831C8 EQ PUSH2 0x1AB JUMPI JUMPDEST PUSH1 0x0 DUP1 REVERT JUMPDEST PUSH2 0x135 PUSH1 0x4 DUP1 CALLDATASIZE SUB DUP2 ADD SWAP1 PUSH2 0x130 SWAP2 SWAP1 PUSH2 0x2B5A JUMP JUMPDEST PUSH2 0x3E2 JUMP JUMPDEST PUSH1 0x40 MLOAD PUSH2 0x142 SWAP2 SWAP1 PUSH2 0x35D2 JUMP JUMPDEST PUSH1 0x40 MLOAD DUP1 SWAP2 SUB SWAP1 RETURN JUMPDEST PUSH2 0x165 PUSH1 0x4 DUP1 CALLDATASIZE SUB DUP2 ADD SWAP1 PUSH2 0x160 SWAP2 SWAP1 PUSH2 0x2B5A JUMP JUMPDEST PUSH2 0x5BD JUMP JUMPDEST PUSH1 0x40 MLOAD PUSH2 0x172 SWAP2 SWAP1 PUSH2 0x35D2 JUMP JUMPDEST PUSH1 0x40 MLOAD DUP1 SWAP2 SUB SWAP1 RETURN JUMPDEST PUSH2 0x195 PUSH1 0x4 DUP1 CALLDATASIZE SUB DUP2 ADD SWAP1 PUSH2 0x190 SWAP2 SWAP1 PUSH2 0x2AE2 JUMP JUMPDEST PUSH2 0x790 JUMP JUMPDEST PUSH1 0x40 MLOAD PUSH2 0x1A2 SWAP2 SWAP1 PUSH2 0x3378 JUMP JUMPDEST PUSH1 0x40 MLOAD DUP1 SWAP2 SUB SWAP1 RETURN JUMPDEST PUSH2 0x1B3 PUSH2 0x9A9 JUMP JUMPDEST PUSH1 0x40 MLOAD PUSH2 0x1C0 SWAP2 SWAP1 PUSH2 0x35F4 JUMP JUMPDEST PUSH1 0x40 MLOAD DUP1 SWAP2 SUB SWAP1 RETURN JUMPDEST PUSH2 0x1E3 PUSH1 0x4 DUP1 CALLDATASIZE SUB DUP2 ADD SWAP1 PUSH2 0x1DE SWAP2 SWAP1 PUSH2 0x2BAC JUMP JUMPDEST PUSH2 0x9BA JUMP JUMPDEST STOP JUMPDEST PUSH2 0x1ED PUSH2 0xBD1 JUMP JUMPDEST PUSH1 0x40 MLOAD PUSH2 0x1FA SWAP2 SWAP1 PUSH2 0x339A JUMP JUMPDEST PUSH1 0x40 MLOAD DUP1 SWAP2 SUB SWAP1 RETURN JUMPDEST PUSH2 0x21D PUSH1 0x4 DUP1 CALLDATASIZE SUB DUP2 ADD SWAP1 PUSH2 0x218 SWAP2 SWAP1 PUSH2 0x2AA6 JUMP JUMPDEST PUSH2 0xBE7 JUMP JUMPDEST PUSH1 0x40 MLOAD PUSH2 0x22A SWAP2 SWAP1 PUSH2 0x35D2 JUMP JUMPDEST PUSH1 0x40 MLOAD DUP1 SWAP2 SUB SWAP1 RETURN JUMPDEST PUSH2 0x24D PUSH1 0x4 DUP1 CALLDATASIZE SUB DUP2 ADD SWAP1 PUSH2 0x248 SWAP2 SWAP1 PUSH2 0x2B5A JUMP JUMPDEST PUSH2 0xC9A JUMP JUMPDEST STOP JUMPDEST PUSH2 0x269 PUSH1 0x4 DUP1 CALLDATASIZE SUB DUP2 ADD SWAP1 PUSH2 0x264 SWAP2 SWAP1 PUSH2 0x2C3C JUMP JUMPDEST PUSH2 0xD91 JUMP JUMPDEST PUSH1 0x40 MLOAD PUSH2 0x276 SWAP2 SWAP1 PUSH2 0x3356 JUMP JUMPDEST PUSH1 0x40 MLOAD DUP1 SWAP2 SUB SWAP1 RETURN JUMPDEST PUSH2 0x299 PUSH1 0x4 DUP1 CALLDATASIZE SUB DUP2 ADD SWAP1 PUSH2 0x294 SWAP2 SWAP1 PUSH2 0x2B5A JUMP JUMPDEST PUSH2 0xF93 JUMP JUMPDEST PUSH1 0x40 MLOAD PUSH2 0x2A6 SWAP2 SWAP1 PUSH2 0x35B7 JUMP JUMPDEST PUSH1 0x40 MLOAD DUP1 SWAP2 SUB SWAP1 RETURN JUMPDEST PUSH2 0x2C9 PUSH1 0x4 DUP1 CALLDATASIZE SUB DUP2 ADD SWAP1 PUSH2 0x2C4 SWAP2 SWAP1 PUSH2 0x2A17 JUMP JUMPDEST PUSH2 0x105F JUMP JUMPDEST PUSH1 0x40 MLOAD PUSH2 0x2D6 SWAP2 SWAP1 PUSH2 0x35F4 JUMP JUMPDEST PUSH1 0x40 MLOAD DUP1 SWAP2 SUB SWAP1 RETURN JUMPDEST PUSH2 0x2F9 PUSH1 0x4 DUP1 CALLDATASIZE SUB DUP2 ADD SWAP1 PUSH2 0x2F4 SWAP2 SWAP1 PUSH2 0x2B5A JUMP JUMPDEST PUSH2 0x1148 JUMP JUMPDEST STOP JUMPDEST PUSH2 0x315 PUSH1 0x4 DUP1 CALLDATASIZE SUB DUP2 ADD SWAP1 PUSH2 0x310 SWAP2 SWAP1 PUSH2 0x2C78 JUMP JUMPDEST PUSH2 0x1156 JUMP JUMPDEST STOP JUMPDEST PUSH2 0x331 PUSH1 0x4 DUP1 CALLDATASIZE SUB DUP2 ADD SWAP1 PUSH2 0x32C SWAP2 SWAP1 PUSH2 0x2BE8 JUMP JUMPDEST PUSH2 0x14AD JUMP JUMPDEST STOP JUMPDEST PUSH2 0x34D PUSH1 0x4 DUP1 CALLDATASIZE SUB DUP2 ADD SWAP1 PUSH2 0x348 SWAP2 SWAP1 PUSH2 0x29EE JUMP JUMPDEST PUSH2 0x15EC JUMP JUMPDEST PUSH1 0x40 MLOAD PUSH2 0x35A SWAP2 SWAP1 PUSH2 0x3378 JUMP JUMPDEST PUSH1 0x40 MLOAD DUP1 SWAP2 SUB SWAP1 RETURN JUMPDEST PUSH2 0x37D PUSH1 0x4 DUP1 CALLDATASIZE SUB DUP2 ADD SWAP1 PUSH2 0x378 SWAP2 SWAP1 PUSH2 0x29EE JUMP JUMPDEST PUSH2 0x177D JUMP JUMPDEST PUSH1 0x40 MLOAD PUSH2 0x38B SWAP3 SWAP2 SWAP1 PUSH2 0x332D JUMP JUMPDEST PUSH1 0x40 MLOAD DUP1 SWAP2 SUB SWAP1 RETURN JUMPDEST PUSH2 0x3AE PUSH1 0x4 DUP1 CALLDATASIZE SUB DUP2 ADD SWAP1 PUSH2 0x3A9 SWAP2 SWAP1 PUSH2 0x29EE JUMP JUMPDEST PUSH2 0x17C1 JUMP JUMPDEST PUSH1 0x40 MLOAD PUSH2 0x3BB SWAP2 SWAP1 PUSH2 0x35F4 JUMP JUMPDEST PUSH1 0x40 MLOAD DUP1 SWAP2 SUB SWAP1 RETURN JUMPDEST PUSH2 0x3CC PUSH2 0x1811 JUMP JUMPDEST PUSH1 0x40 MLOAD PUSH2 0x3D9 SWAP2 SWAP1 PUSH2 0x35F4 JUMP JUMPDEST PUSH1 0x40 MLOAD DUP1 SWAP2 SUB SWAP1 RETURN JUMPDEST PUSH2 0x3EA PUSH2 0x27EE JUMP JUMPDEST PUSH1 0x1 PUSH2 0x3F5 DUP4 PUSH2 0x181E JUMP JUMPDEST DUP2 SLOAD DUP2 LT PUSH2 0x42C JUMPI PUSH32 0x4E487B7100000000000000000000000000000000000000000000000000000000 PUSH1 0x0 MSTORE PUSH1 0x32 PUSH1 0x4 MSTORE PUSH1 0x24 PUSH1 0x0 REVERT JUMPDEST SWAP1 PUSH1 0x0 MSTORE PUSH1 0x20 PUSH1 0x0 KECCAK256 SWAP1 PUSH1 0x8 MUL ADD PUSH1 0x40 MLOAD DUP1 PUSH2 0x100 ADD PUSH1 0x40 MSTORE SWAP1 DUP2 PUSH1 0x0 DUP3 ADD SLOAD DUP2 MSTORE PUSH1 0x20 ADD PUSH1 0x1 DUP3 ADD PUSH1 0x0 SWAP1 SLOAD SWAP1 PUSH2 0x100 EXP SWAP1 DIV PUSH20 0xFFFFFFFFFFFFFFFFFFFFFFFFFFFFFFFFFFFFFFFF AND PUSH20 0xFFFFFFFFFFFFFFFFFFFFFFFFFFFFFFFFFFFFFFFF AND PUSH20 0xFFFFFFFFFFFFFFFFFFFFFFFFFFFFFFFFFFFFFFFF AND DUP2 MSTORE PUSH1 0x20 ADD PUSH1 0x2 DUP3 ADD PUSH1 0x0 SWAP1 SLOAD SWAP1 PUSH2 0x100 EXP SWAP1 DIV PUSH20 0xFFFFFFFFFFFFFFFFFFFFFFFFFFFFFFFFFFFFFFFF AND PUSH20 0xFFFFFFFFFFFFFFFFFFFFFFFFFFFFFFFFFFFFFFFF AND PUSH20 0xFFFFFFFFFFFFFFFFFFFFFFFFFFFFFFFFFFFFFFFF AND DUP2 MSTORE PUSH1 0x20 ADD PUSH1 0x3 DUP3 ADD SLOAD DUP2 MSTORE PUSH1 0x20 ADD PUSH1 0x4 DUP3 ADD SLOAD DUP2 MSTORE PUSH1 0x20 ADD PUSH1 0x5 DUP3 ADD SLOAD DUP2 MSTORE PUSH1 0x20 ADD PUSH1 0x6 DUP3 ADD SLOAD DUP2 MSTORE PUSH1 0x20 ADD PUSH1 0x7 DUP3 ADD DUP1 SLOAD PUSH2 0x534 SWAP1 PUSH2 0x3865 JUMP JUMPDEST DUP1 PUSH1 0x1F ADD PUSH1 0x20 DUP1 SWAP2 DIV MUL PUSH1 0x20 ADD PUSH1 0x40 MLOAD SWAP1 DUP2 ADD PUSH1 0x40 MSTORE DUP1 SWAP3 SWAP2 SWAP1 DUP2 DUP2 MSTORE PUSH1 0x20 ADD DUP3 DUP1 SLOAD PUSH2 0x560 SWAP1 PUSH2 0x3865 JUMP JUMPDEST DUP1 ISZERO PUSH2 0x5AD JUMPI DUP1 PUSH1 0x1F LT PUSH2 0x582 JUMPI PUSH2 0x100 DUP1 DUP4 SLOAD DIV MUL DUP4 MSTORE SWAP2 PUSH1 0x20 ADD SWAP2 PUSH2 0x5AD JUMP JUMPDEST DUP3 ADD SWAP2 SWAP1 PUSH1 0x0 MSTORE PUSH1 0x20 PUSH1 0x0 KECCAK256 SWAP1 JUMPDEST DUP2 SLOAD DUP2 MSTORE SWAP1 PUSH1 0x1 ADD SWAP1 PUSH1 0x20 ADD DUP1 DUP4 GT PUSH2 0x590 JUMPI DUP3 SWAP1 SUB PUSH1 0x1F AND DUP3 ADD SWAP2 JUMPDEST POP POP POP POP POP DUP2 MSTORE POP POP SWAP1 POP SWAP2 SWAP1 POP JUMP JUMPDEST PUSH2 0x5C5 PUSH2 0x27EE JUMP JUMPDEST PUSH1 0x1 DUP3 DUP2 SLOAD DUP2 LT PUSH2 0x5FF JUMPI PUSH32 0x4E487B7100000000000000000000000000000000000000000000000000000000 PUSH1 0x0 MSTORE PUSH1 0x32 PUSH1 0x4 MSTORE PUSH1 0x24 PUSH1 0x0 REVERT JUMPDEST SWAP1 PUSH1 0x0 MSTORE PUSH1 0x20 PUSH1 0x0 KECCAK256 SWAP1 PUSH1 0x8 MUL ADD PUSH1 0x40 MLOAD DUP1 PUSH2 0x100 ADD PUSH1 0x40 MSTORE SWAP1 DUP2 PUSH1 0x0 DUP3 ADD SLOAD DUP2 MSTORE PUSH1 0x20 ADD PUSH1 0x1 DUP3 ADD PUSH1 0x0 SWAP1 SLOAD SWAP1 PUSH2 0x100 EXP SWAP1 DIV PUSH20 0xFFFFFFFFFFFFFFFFFFFFFFFFFFFFFFFFFFFFFFFF AND PUSH20 0xFFFFFFFFFFFFFFFFFFFFFFFFFFFFFFFFFFFFFFFF AND PUSH20 0xFFFFFFFFFFFFFFFFFFFFFFFFFFFFFFFFFFFFFFFF AND DUP2 MSTORE PUSH1 0x20 ADD PUSH1 0x2 DUP3 ADD PUSH1 0x0 SWAP1 SLOAD SWAP1 PUSH2 0x100 EXP SWAP1 DIV PUSH20 0xFFFFFFFFFFFFFFFFFFFFFFFFFFFFFFFFFFFFFFFF AND PUSH20 0xFFFFFFFFFFFFFFFFFFFFFFFFFFFFFFFFFFFFFFFF AND PUSH20 0xFFFFFFFFFFFFFFFFFFFFFFFFFFFFFFFFFFFFFFFF AND DUP2 MSTORE PUSH1 0x20 ADD PUSH1 0x3 DUP3 ADD SLOAD DUP2 MSTORE PUSH1 0x20 ADD PUSH1 0x4 DUP3 ADD SLOAD DUP2 MSTORE PUSH1 0x20 ADD PUSH1 0x5 DUP3 ADD SLOAD DUP2 MSTORE PUSH1 0x20 ADD PUSH1 0x6 DUP3 ADD SLOAD DUP2 MSTORE PUSH1 0x20 ADD PUSH1 0x7 DUP3 ADD DUP1 SLOAD PUSH2 0x707 SWAP1 PUSH2 0x3865 JUMP JUMPDEST DUP1 PUSH1 0x1F ADD PUSH1 0x20 DUP1 SWAP2 DIV MUL PUSH1 0x20 ADD PUSH1 0x40 MLOAD SWAP1 DUP2 ADD PUSH1 0x40 MSTORE DUP1 SWAP3 SWAP2 SWAP1 DUP2 DUP2 MSTORE PUSH1 0x20 ADD DUP3 DUP1 SLOAD PUSH2 0x733 SWAP1 PUSH2 0x3865 JUMP JUMPDEST DUP1 ISZERO PUSH2 0x780 JUMPI DUP1 PUSH1 0x1F LT PUSH2 0x755 JUMPI PUSH2 0x100 DUP1 DUP4 SLOAD DIV MUL DUP4 MSTORE SWAP2 PUSH1 0x20 ADD SWAP2 PUSH2 0x780 JUMP JUMPDEST DUP3 ADD SWAP2 SWAP1 PUSH1 0x0 MSTORE PUSH1 0x20 PUSH1 0x0 KECCAK256 SWAP1 JUMPDEST DUP2 SLOAD DUP2 MSTORE SWAP1 PUSH1 0x1 ADD SWAP1 PUSH1 0x20 ADD DUP1 DUP4 GT PUSH2 0x763 JUMPI DUP3 SWAP1 SUB PUSH1 0x1F AND DUP3 ADD SWAP2 JUMPDEST POP POP POP POP POP DUP2 MSTORE POP POP SWAP1 POP SWAP2 SWAP1 POP JUMP JUMPDEST PUSH1 0x60 PUSH2 0x7D9 PUSH1 0x6 PUSH1 0x0 DUP7 PUSH20 0xFFFFFFFFFFFFFFFFFFFFFFFFFFFFFFFFFFFFFFFF AND PUSH20 0xFFFFFFFFFFFFFFFFFFFFFFFFFFFFFFFFFFFFFFFF AND DUP2 MSTORE PUSH1 0x20 ADD SWAP1 DUP2 MSTORE PUSH1 0x20 ADD PUSH1 0x0 KECCAK256 PUSH2 0x1874 JUMP JUMPDEST DUP3 LT PUSH2 0x835 JUMPI PUSH1 0x1 PUSH2 0x828 PUSH1 0x6 PUSH1 0x0 DUP8 PUSH20 0xFFFFFFFFFFFFFFFFFFFFFFFFFFFFFFFFFFFFFFFF AND PUSH20 0xFFFFFFFFFFFFFFFFFFFFFFFFFFFFFFFFFFFFFFFF AND DUP2 MSTORE PUSH1 0x20 ADD SWAP1 DUP2 MSTORE PUSH1 0x20 ADD PUSH1 0x0 KECCAK256 PUSH2 0x1874 JUMP JUMPDEST PUSH2 0x832 SWAP2 SWAP1 PUSH2 0x37A7 JUMP JUMPDEST SWAP2 POP JUMPDEST PUSH1 0x0 PUSH1 0x1 DUP5 DUP5 PUSH2 0x845 SWAP2 SWAP1 PUSH2 0x37A7 JUMP JUMPDEST PUSH2 0x84F SWAP2 SWAP1 PUSH2 0x3751 JUMP JUMPDEST SWAP1 POP PUSH1 0x0 DUP2 PUSH8 0xFFFFFFFFFFFFFFFF DUP2 GT ISZERO PUSH2 0x893 JUMPI PUSH32 0x4E487B7100000000000000000000000000000000000000000000000000000000 PUSH1 0x0 MSTORE PUSH1 0x41 PUSH1 0x4 MSTORE PUSH1 0x24 PUSH1 0x0 REVERT JUMPDEST PUSH1 0x40 MLOAD SWAP1 DUP1 DUP3 MSTORE DUP1 PUSH1 0x20 MUL PUSH1 0x20 ADD DUP3 ADD PUSH1 0x40 MSTORE DUP1 ISZERO PUSH2 0x8CC JUMPI DUP2 PUSH1 0x20 ADD JUMPDEST PUSH2 0x8B9 PUSH2 0x27EE JUMP JUMPDEST DUP2 MSTORE PUSH1 0x20 ADD SWAP1 PUSH1 0x1 SWAP1 SUB SWAP1 DUP2 PUSH2 0x8B1 JUMPI SWAP1 POP JUMPDEST POP SWAP1 POP PUSH1 0x0 DUP1 DUP7 SWAP1 POP JUMPDEST DUP6 DUP2 GT PUSH2 0x99B JUMPI PUSH2 0x936 PUSH2 0x931 DUP3 PUSH1 0x6 PUSH1 0x0 DUP13 PUSH20 0xFFFFFFFFFFFFFFFFFFFFFFFFFFFFFFFFFFFFFFFF AND PUSH20 0xFFFFFFFFFFFFFFFFFFFFFFFFFFFFFFFFFFFFFFFF AND DUP2 MSTORE PUSH1 0x20 ADD SWAP1 DUP2 MSTORE PUSH1 0x20 ADD PUSH1 0x0 KECCAK256 PUSH2 0x1889 SWAP1 SWAP2 SWAP1 PUSH4 0xFFFFFFFF AND JUMP JUMPDEST PUSH2 0x3E2 JUMP JUMPDEST DUP4 DUP4 DUP2 MLOAD DUP2 LT PUSH2 0x96F JUMPI PUSH32 0x4E487B7100000000000000000000000000000000000000000000000000000000 PUSH1 0x0 MSTORE PUSH1 0x32 PUSH1 0x4 MSTORE PUSH1 0x24 PUSH1 0x0 REVERT JUMPDEST PUSH1 0x20 MUL PUSH1 0x20 ADD ADD DUP2 SWAP1 MSTORE POP DUP2 DUP1 PUSH2 0x985 SWAP1 PUSH2 0x38C8 JUMP JUMPDEST SWAP3 POP POP DUP1 DUP1 PUSH2 0x993 SWAP1 PUSH2 0x38C8 JUMP JUMPDEST SWAP2 POP POP PUSH2 0x8D6 JUMP JUMPDEST POP DUP2 SWAP4 POP POP POP POP SWAP4 SWAP3 POP POP POP JUMP JUMPDEST PUSH1 0x0 PUSH2 0x9B5 PUSH1 0x3 PUSH2 0x18A3 JUMP JUMPDEST SWAP1 POP SWAP1 JUMP JUMPDEST DUP2 PUSH2 0x9C4 DUP2 PUSH2 0x181E JUMP JUMPDEST POP PUSH1 0x0 PUSH1 0x1 DUP5 DUP2 SLOAD DUP2 LT PUSH2 0xA01 JUMPI PUSH32 0x4E487B7100000000000000000000000000000000000000000000000000000000 PUSH1 0x0 MSTORE PUSH1 0x32 PUSH1 0x4 MSTORE PUSH1 0x24 PUSH1 0x0 REVERT JUMPDEST SWAP1 PUSH1 0x0 MSTORE PUSH1 0x20 PUSH1 0x0 KECCAK256 SWAP1 PUSH1 0x8 MUL ADD SWAP1 POP PUSH1 0x0 DUP2 PUSH1 0x2 ADD PUSH1 0x0 SWAP1 SLOAD SWAP1 PUSH2 0x100 EXP SWAP1 DIV PUSH20 0xFFFFFFFFFFFFFFFFFFFFFFFFFFFFFFFFFFFFFFFF AND SWAP1 POP CALLER PUSH20 0xFFFFFFFFFFFFFFFFFFFFFFFFFFFFFFFFFFFFFFFF AND DUP2 PUSH20 0xFFFFFFFFFFFFFFFFFFFFFFFFFFFFFFFFFFFFFFFF AND EQ PUSH2 0xAA8 JUMPI PUSH1 0x40 MLOAD PUSH32 0x8C379A000000000000000000000000000000000000000000000000000000000 DUP2 MSTORE PUSH1 0x4 ADD PUSH2 0xA9F SWAP1 PUSH2 0x3457 JUMP JUMPDEST PUSH1 0x40 MLOAD DUP1 SWAP2 SUB SWAP1 REVERT JUMPDEST DUP4 DUP3 PUSH1 0x2 ADD PUSH1 0x0 PUSH2 0x100 EXP DUP2 SLOAD DUP2 PUSH20 0xFFFFFFFFFFFFFFFFFFFFFFFFFFFFFFFFFFFFFFFF MUL NOT AND SWAP1 DUP4 PUSH20 0xFFFFFFFFFFFFFFFFFFFFFFFFFFFFFFFFFFFFFFFF AND MUL OR SWAP1 SSTORE POP PUSH2 0xB3C DUP6 PUSH1 0x2 PUSH1 0x0 DUP5 PUSH20 0xFFFFFFFFFFFFFFFFFFFFFFFFFFFFFFFFFFFFFFFF AND PUSH20 0xFFFFFFFFFFFFFFFFFFFFFFFFFFFFFFFFFFFFFFFF AND DUP2 MSTORE PUSH1 0x20 ADD SWAP1 DUP2 MSTORE PUSH1 0x20 ADD PUSH1 0x0 KECCAK256 PUSH2 0x18B8 SWAP1 SWAP2 SWAP1 PUSH4 0xFFFFFFFF AND JUMP JUMPDEST POP PUSH2 0xB8E DUP6 PUSH1 0x2 PUSH1 0x0 DUP8 PUSH20 0xFFFFFFFFFFFFFFFFFFFFFFFFFFFFFFFFFFFFFFFF AND PUSH20 0xFFFFFFFFFFFFFFFFFFFFFFFFFFFFFFFFFFFFFFFF AND DUP2 MSTORE PUSH1 0x20 ADD SWAP1 DUP2 MSTORE PUSH1 0x20 ADD PUSH1 0x0 KECCAK256 PUSH2 0x18D2 SWAP1 SWAP2 SWAP1 PUSH4 0xFFFFFFFF AND JUMP JUMPDEST POP PUSH32 0x9075AD040756C0D8743A1FED927066A92C4755071615BF61E04B17583D961CAF DUP6 DUP3 DUP7 PUSH1 0x40 MLOAD PUSH2 0xBC2 SWAP4 SWAP3 SWAP2 SWAP1 PUSH2 0x360F JUMP JUMPDEST PUSH1 0x40 MLOAD DUP1 SWAP2 SUB SWAP1 LOG1 POP POP POP POP POP JUMP JUMPDEST PUSH1 0x0 DUP1 PUSH1 0x0 SWAP1 SLOAD SWAP1 PUSH2 0x100 EXP SWAP1 DIV PUSH1 0xFF AND SWAP1 POP SWAP1 JUMP JUMPDEST PUSH2 0xBEF PUSH2 0x27EE JUMP JUMPDEST DUP2 PUSH2 0xBF9 DUP5 PUSH2 0x17C1 JUMP JUMPDEST GT PUSH2 0xC39 JUMPI PUSH1 0x40 MLOAD PUSH32 0x8C379A000000000000000000000000000000000000000000000000000000000 DUP2 MSTORE PUSH1 0x4 ADD PUSH2 0xC30 SWAP1 PUSH2 0x3417 JUMP JUMPDEST PUSH1 0x40 MLOAD DUP1 SWAP2 SUB SWAP1 REVERT JUMPDEST PUSH2 0xC92 PUSH2 0xC8D DUP4 PUSH1 0x2 PUSH1 0x0 DUP8 PUSH20 0xFFFFFFFFFFFFFFFFFFFFFFFFFFFFFFFFFFFFFFFF AND PUSH20 0xFFFFFFFFFFFFFFFFFFFFFFFFFFFFFFFFFFFFFFFF AND DUP2 MSTORE PUSH1 0x20 ADD SWAP1 DUP2 MSTORE PUSH1 0x20 ADD PUSH1 0x0 KECCAK256 PUSH2 0x1889 SWAP1 SWAP2 SWAP1 PUSH4 0xFFFFFFFF AND JUMP JUMPDEST PUSH2 0x3E2 JUMP JUMPDEST SWAP1 POP SWAP3 SWAP2 POP POP JUMP JUMPDEST DUP1 PUSH2 0xCA4 DUP2 PUSH2 0x181E JUMP JUMPDEST POP PUSH1 0x0 PUSH1 0x1 DUP4 DUP2 SLOAD DUP2 LT PUSH2 0xCE1 JUMPI PUSH32 0x4E487B7100000000000000000000000000000000000000000000000000000000 PUSH1 0x0 MSTORE PUSH1 0x32 PUSH1 0x4 MSTORE PUSH1 0x24 PUSH1 0x0 REVERT JUMPDEST SWAP1 PUSH1 0x0 MSTORE PUSH1 0x20 PUSH1 0x0 KECCAK256 SWAP1 PUSH1 0x8 MUL ADD SWAP1 POP CALLER PUSH20 0xFFFFFFFFFFFFFFFFFFFFFFFFFFFFFFFFFFFFFFFF AND DUP2 PUSH1 0x2 ADD PUSH1 0x0 SWAP1 SLOAD SWAP1 PUSH2 0x100 EXP SWAP1 DIV PUSH20 0xFFFFFFFFFFFFFFFFFFFFFFFFFFFFFFFFFFFFFFFF AND PUSH20 0xFFFFFFFFFFFFFFFFFFFFFFFFFFFFFFFFFFFFFFFF AND EQ PUSH2 0xD83 JUMPI PUSH1 0x40 MLOAD PUSH32 0x8C379A000000000000000000000000000000000000000000000000000000000 DUP2 MSTORE PUSH1 0x4 ADD PUSH2 0xD7A SWAP1 PUSH2 0x3457 JUMP JUMPDEST PUSH1 0x40 MLOAD DUP1 SWAP2 SUB SWAP1 REVERT JUMPDEST PUSH2 0xD8C DUP2 PUSH2 0x18EC JUMP JUMPDEST POP POP POP JUMP JUMPDEST PUSH1 0x60 PUSH2 0xD9D PUSH1 0x3 PUSH2 0x18A3 JUMP JUMPDEST DUP3 LT PUSH2 0xDBC JUMPI PUSH1 0x1 PUSH2 0xDAF PUSH1 0x3 PUSH2 0x18A3 JUMP JUMPDEST PUSH2 0xDB9 SWAP2 SWAP1 PUSH2 0x37A7 JUMP JUMPDEST SWAP2 POP JUMPDEST PUSH1 0x0 PUSH1 0x1 DUP5 DUP5 PUSH2 0xDCC SWAP2 SWAP1 PUSH2 0x37A7 JUMP JUMPDEST PUSH2 0xDD6 SWAP2 SWAP1 PUSH2 0x3751 JUMP JUMPDEST SWAP1 POP PUSH1 0x0 DUP2 PUSH8 0xFFFFFFFFFFFFFFFF DUP2 GT ISZERO PUSH2 0xE1A JUMPI PUSH32 0x4E487B7100000000000000000000000000000000000000000000000000000000 PUSH1 0x0 MSTORE PUSH1 0x41 PUSH1 0x4 MSTORE PUSH1 0x24 PUSH1 0x0 REVERT JUMPDEST PUSH1 0x40 MLOAD SWAP1 DUP1 DUP3 MSTORE DUP1 PUSH1 0x20 MUL PUSH1 0x20 ADD DUP3 ADD PUSH1 0x40 MSTORE DUP1 ISZERO PUSH2 0xE53 JUMPI DUP2 PUSH1 0x20 ADD JUMPDEST PUSH2 0xE40 PUSH2 0x285F JUMP JUMPDEST DUP2 MSTORE PUSH1 0x20 ADD SWAP1 PUSH1 0x1 SWAP1 SUB SWAP1 DUP2 PUSH2 0xE38 JUMPI SWAP1 POP JUMPDEST POP SWAP1 POP PUSH1 0x0 DUP1 DUP7 SWAP1 POP JUMPDEST DUP6 DUP2 GT PUSH2 0xF86 JUMPI PUSH1 0x5 PUSH1 0x0 PUSH2 0xE7C DUP4 PUSH1 0x3 PUSH2 0x1BF7 SWAP1 SWAP2 SWAP1 PUSH4 0xFFFFFFFF AND JUMP JUMPDEST PUSH20 0xFFFFFFFFFFFFFFFFFFFFFFFFFFFFFFFFFFFFFFFF AND PUSH20 0xFFFFFFFFFFFFFFFFFFFFFFFFFFFFFFFFFFFFFFFF AND DUP2 MSTORE PUSH1 0x20 ADD SWAP1 DUP2 MSTORE PUSH1 0x20 ADD PUSH1 0x0 KECCAK256 PUSH1 0x40 MLOAD DUP1 PUSH1 0x40 ADD PUSH1 0x40 MSTORE SWAP1 DUP2 PUSH1 0x0 DUP3 ADD PUSH1 0x0 SWAP1 SLOAD SWAP1 PUSH2 0x100 EXP SWAP1 DIV PUSH20 0xFFFFFFFFFFFFFFFFFFFFFFFFFFFFFFFFFFFFFFFF AND PUSH20 0xFFFFFFFFFFFFFFFFFFFFFFFFFFFFFFFFFFFFFFFF AND PUSH20 0xFFFFFFFFFFFFFFFFFFFFFFFFFFFFFFFFFFFFFFFF AND DUP2 MSTORE PUSH1 0x20 ADD PUSH1 0x1 DUP3 ADD SLOAD DUP2 MSTORE POP POP DUP4 DUP4 DUP2 MLOAD DUP2 LT PUSH2 0xF5A JUMPI PUSH32 0x4E487B7100000000000000000000000000000000000000000000000000000000 PUSH1 0x0 MSTORE PUSH1 0x32 PUSH1 0x4 MSTORE PUSH1 0x24 PUSH1 0x0 REVERT JUMPDEST PUSH1 0x20 MUL PUSH1 0x20 ADD ADD DUP2 SWAP1 MSTORE POP DUP2 DUP1 PUSH2 0xF70 SWAP1 PUSH2 0x38C8 JUMP JUMPDEST SWAP3 POP POP DUP1 DUP1 PUSH2 0xF7E SWAP1 PUSH2 0x38C8 JUMP JUMPDEST SWAP2 POP POP PUSH2 0xE5D JUMP JUMPDEST POP DUP2 SWAP4 POP POP POP POP SWAP3 SWAP2 POP POP JUMP JUMPDEST PUSH2 0xF9B PUSH2 0x285F JUMP JUMPDEST PUSH1 0x5 PUSH1 0x0 PUSH2 0xFB3 DUP5 PUSH1 0x3 PUSH2 0x1BF7 SWAP1 SWAP2 SWAP1 PUSH4 0xFFFFFFFF AND JUMP JUMPDEST PUSH20 0xFFFFFFFFFFFFFFFFFFFFFFFFFFFFFFFFFFFFFFFF AND PUSH20 0xFFFFFFFFFFFFFFFFFFFFFFFFFFFFFFFFFFFFFFFF AND DUP2 MSTORE PUSH1 0x20 ADD SWAP1 DUP2 MSTORE PUSH1 0x20 ADD PUSH1 0x0 KECCAK256 PUSH1 0x40 MLOAD DUP1 PUSH1 0x40 ADD PUSH1 0x40 MSTORE SWAP1 DUP2 PUSH1 0x0 DUP3 ADD PUSH1 0x0 SWAP1 SLOAD SWAP1 PUSH2 0x100 EXP SWAP1 DIV PUSH20 0xFFFFFFFFFFFFFFFFFFFFFFFFFFFFFFFFFFFFFFFF AND PUSH20 0xFFFFFFFFFFFFFFFFFFFFFFFFFFFFFFFFFFFFFFFF AND PUSH20 0xFFFFFFFFFFFFFFFFFFFFFFFFFFFFFFFFFFFFFFFF AND DUP2 MSTORE PUSH1 0x20 ADD PUSH1 0x1 DUP3 ADD SLOAD DUP2 MSTORE POP POP SWAP1 POP SWAP2 SWAP1 POP JUMP JUMPDEST PUSH1 0x0 TIMESTAMP DUP4 GT PUSH2 0x10A3 JUMPI PUSH1 0x40 MLOAD PUSH32 0x8C379A000000000000000000000000000000000000000000000000000000000 DUP2 MSTORE PUSH1 0x4 ADD PUSH2 0x109A SWAP1 PUSH2 0x33F7 JUMP JUMPDEST PUSH1 0x40 MLOAD DUP1 SWAP2 SUB SWAP1 REVERT JUMPDEST PUSH1 0x0 DUP5 GT PUSH2 0x10E6 JUMPI PUSH1 0x40 MLOAD PUSH32 0x8C379A000000000000000000000000000000000000000000000000000000000 DUP2 MSTORE PUSH1 0x4 ADD PUSH2 0x10DD SWAP1 PUSH2 0x34B7 JUMP JUMPDEST PUSH1 0x40 MLOAD DUP1 SWAP2 SUB SWAP1 REVERT JUMPDEST PUSH2 0x10F3 DUP7 DUP7 DUP7 DUP7 DUP7 PUSH2 0x1C11 JUMP JUMPDEST SWAP1 POP PUSH2 0x1101 DUP6 CALLER ADDRESS DUP8 PUSH2 0x1C2B JUMP JUMPDEST DUP1 PUSH32 0x694AF1CC8727CDD0AFBDD53D9B87B69248BD490224E9DD090E788546506E076F DUP7 DUP9 DUP8 DUP8 PUSH1 0x40 MLOAD PUSH2 0x1137 SWAP5 SWAP4 SWAP3 SWAP2 SWAP1 PUSH2 0x32E8 JUMP JUMPDEST PUSH1 0x40 MLOAD DUP1 SWAP2 SUB SWAP1 LOG2 SWAP6 SWAP5 POP POP POP POP POP JUMP JUMPDEST PUSH2 0x1153 DUP2 PUSH1 0x0 PUSH2 0x9BA JUMP JUMPDEST POP JUMP JUMPDEST DUP3 PUSH2 0x1160 DUP2 PUSH2 0x181E JUMP JUMPDEST POP PUSH1 0x0 PUSH1 0x1 DUP6 DUP2 SLOAD DUP2 LT PUSH2 0x119D JUMPI PUSH32 0x4E487B7100000000000000000000000000000000000000000000000000000000 PUSH1 0x0 MSTORE PUSH1 0x32 PUSH1 0x4 MSTORE PUSH1 0x24 PUSH1 0x0 REVERT JUMPDEST SWAP1 PUSH1 0x0 MSTORE PUSH1 0x20 PUSH1 0x0 KECCAK256 SWAP1 PUSH1 0x8 MUL ADD SWAP1 POP CALLER PUSH20 0xFFFFFFFFFFFFFFFFFFFFFFFFFFFFFFFFFFFFFFFF AND DUP2 PUSH1 0x2 ADD PUSH1 0x0 SWAP1 SLOAD SWAP1 PUSH2 0x100 EXP SWAP1 DIV PUSH20 0xFFFFFFFFFFFFFFFFFFFFFFFFFFFFFFFFFFFFFFFF AND PUSH20 0xFFFFFFFFFFFFFFFFFFFFFFFFFFFFFFFFFFFFFFFF AND EQ PUSH2 0x123F JUMPI PUSH1 0x40 MLOAD PUSH32 0x8C379A000000000000000000000000000000000000000000000000000000000 DUP2 MSTORE PUSH1 0x4 ADD PUSH2 0x1236 SWAP1 PUSH2 0x3457 JUMP JUMPDEST PUSH1 0x40 MLOAD DUP1 SWAP2 SUB SWAP1 REVERT JUMPDEST PUSH1 0x0 DUP2 PUSH1 0x6 ADD SLOAD EQ PUSH2 0x1286 JUMPI PUSH1 0x40 MLOAD PUSH32 0x8C379A000000000000000000000000000000000000000000000000000000000 DUP2 MSTORE PUSH1 0x4 ADD PUSH2 0x127D SWAP1 PUSH2 0x33D7 JUMP JUMPDEST PUSH1 0x40 MLOAD DUP1 SWAP2 SUB SWAP1 REVERT JUMPDEST PUSH1 0x0 DUP4 GT ISZERO PUSH2 0x12EB JUMPI DUP1 PUSH1 0x5 ADD SLOAD DUP4 LT ISZERO DUP1 ISZERO PUSH2 0x12A2 JUMPI POP TIMESTAMP DUP4 GT JUMPDEST PUSH2 0x12E1 JUMPI PUSH1 0x40 MLOAD PUSH32 0x8C379A000000000000000000000000000000000000000000000000000000000 DUP2 MSTORE PUSH1 0x4 ADD PUSH2 0x12D8 SWAP1 PUSH2 0x3577 JUMP JUMPDEST PUSH1 0x40 MLOAD DUP1 SWAP2 SUB SWAP1 REVERT JUMPDEST DUP3 DUP2 PUSH1 0x5 ADD DUP2 SWAP1 SSTORE POP JUMPDEST PUSH1 0x0 DUP5 GT ISZERO PUSH2 0x1414 JUMPI DUP1 PUSH1 0x3 ADD SLOAD DUP5 LT ISZERO PUSH2 0x133B JUMPI PUSH1 0x40 MLOAD PUSH32 0x8C379A000000000000000000000000000000000000000000000000000000000 DUP2 MSTORE PUSH1 0x4 ADD PUSH2 0x1332 SWAP1 PUSH2 0x3517 JUMP JUMPDEST PUSH1 0x40 MLOAD DUP1 SWAP2 SUB SWAP1 REVERT JUMPDEST PUSH1 0x0 DUP2 PUSH1 0x3 ADD SLOAD DUP6 PUSH2 0x134D SWAP2 SWAP1 PUSH2 0x37A7 JUMP JUMPDEST SWAP1 POP PUSH1 0x0 DUP2 GT ISZERO PUSH2 0x1412 JUMPI DUP5 DUP3 PUSH1 0x3 ADD DUP2 SWAP1 SSTORE POP PUSH1 0x0 PUSH1 0x5 PUSH1 0x0 DUP5 PUSH1 0x1 ADD PUSH1 0x0 SWAP1 SLOAD SWAP1 PUSH2 0x100 EXP SWAP1 DIV PUSH20 0xFFFFFFFFFFFFFFFFFFFFFFFFFFFFFFFFFFFFFFFF AND PUSH20 0xFFFFFFFFFFFFFFFFFFFFFFFFFFFFFFFFFFFFFFFF AND PUSH20 0xFFFFFFFFFFFFFFFFFFFFFFFFFFFFFFFFFFFFFFFF AND DUP2 MSTORE PUSH1 0x20 ADD SWAP1 DUP2 MSTORE PUSH1 0x20 ADD PUSH1 0x0 KECCAK256 SWAP1 POP DUP2 DUP2 PUSH1 0x1 ADD SLOAD PUSH2 0x13D8 SWAP2 SWAP1 PUSH2 0x3751 JUMP JUMPDEST DUP2 PUSH1 0x1 ADD DUP2 SWAP1 SSTORE POP PUSH2 0x1410 DUP4 PUSH1 0x1 ADD PUSH1 0x0 SWAP1 SLOAD SWAP1 PUSH2 0x100 EXP SWAP1 DIV PUSH20 0xFFFFFFFFFFFFFFFFFFFFFFFFFFFFFFFFFFFFFFFF AND CALLER ADDRESS DUP6 PUSH2 0x1C2B JUMP JUMPDEST POP JUMPDEST POP JUMPDEST DUP1 PUSH1 0x0 ADD SLOAD PUSH32 0xA8B26360DF8D5E154FFA5A8A7E894E85F781ACFBBEF0B744FB9551D8FD0FD36C DUP3 PUSH1 0x1 ADD PUSH1 0x0 SWAP1 SLOAD SWAP1 PUSH2 0x100 EXP SWAP1 DIV PUSH20 0xFFFFFFFFFFFFFFFFFFFFFFFFFFFFFFFFFFFFFFFF AND DUP4 PUSH1 0x2 ADD PUSH1 0x0 SWAP1 SLOAD SWAP1 PUSH2 0x100 EXP SWAP1 DIV PUSH20 0xFFFFFFFFFFFFFFFFFFFFFFFFFFFFFFFFFFFFFFFF AND DUP5 PUSH1 0x3 ADD SLOAD DUP6 PUSH1 0x5 ADD SLOAD PUSH1 0x40 MLOAD PUSH2 0x149E SWAP5 SWAP4 SWAP3 SWAP2 SWAP1 PUSH2 0x32E8 JUMP JUMPDEST PUSH1 0x40 MLOAD DUP1 SWAP2 SUB SWAP1 LOG2 POP POP POP POP POP JUMP JUMPDEST DUP2 PUSH2 0x14B7 DUP2 PUSH2 0x181E JUMP JUMPDEST POP PUSH1 0x0 PUSH1 0x1 DUP5 DUP2 SLOAD DUP2 LT PUSH2 0x14F4 JUMPI PUSH32 0x4E487B7100000000000000000000000000000000000000000000000000000000 PUSH1 0x0 MSTORE PUSH1 0x32 PUSH1 0x4 MSTORE PUSH1 0x24 PUSH1 0x0 REVERT JUMPDEST SWAP1 PUSH1 0x0 MSTORE PUSH1 0x20 PUSH1 0x0 KECCAK256 SWAP1 PUSH1 0x8 MUL ADD SWAP1 POP CALLER PUSH20 0xFFFFFFFFFFFFFFFFFFFFFFFFFFFFFFFFFFFFFFFF AND DUP2 PUSH1 0x2 ADD PUSH1 0x0 SWAP1 SLOAD SWAP1 PUSH2 0x100 EXP SWAP1 DIV PUSH20 0xFFFFFFFFFFFFFFFFFFFFFFFFFFFFFFFFFFFFFFFF AND PUSH20 0xFFFFFFFFFFFFFFFFFFFFFFFFFFFFFFFFFFFFFFFF AND EQ PUSH2 0x1596 JUMPI PUSH1 0x40 MLOAD PUSH32 0x8C379A000000000000000000000000000000000000000000000000000000000 DUP2 MSTORE PUSH1 0x4 ADD PUSH2 0x158D SWAP1 PUSH2 0x3457 JUMP JUMPDEST PUSH1 0x40 MLOAD DUP1 SWAP2 SUB SWAP1 REVERT JUMPDEST DUP3 DUP2 PUSH1 0x7 ADD SWAP1 DUP1 MLOAD SWAP1 PUSH1 0x20 ADD SWAP1 PUSH2 0x15AE SWAP3 SWAP2 SWAP1 PUSH2 0x288F JUMP JUMPDEST POP PUSH32 0xE4A1120FD509C50AEC65802FD3C3C9A4B72BF746FE9A552396185C6DE928E8AA DUP5 PUSH1 0x40 MLOAD PUSH2 0x15DE SWAP2 SWAP1 PUSH2 0x35F4 JUMP JUMPDEST PUSH1 0x40 MLOAD DUP1 SWAP2 SUB SWAP1 LOG1 POP POP POP POP JUMP JUMPDEST PUSH1 0x60 PUSH1 0x0 PUSH2 0x1637 PUSH1 0x2 PUSH1 0x0 DUP6 PUSH20 0xFFFFFFFFFFFFFFFFFFFFFFFFFFFFFFFFFFFFFFFF AND PUSH20 0xFFFFFFFFFFFFFFFFFFFFFFFFFFFFFFFFFFFFFFFF AND DUP2 MSTORE PUSH1 0x20 ADD SWAP1 DUP2 MSTORE PUSH1 0x20 ADD PUSH1 0x0 KECCAK256 PUSH2 0x1874 JUMP JUMPDEST SWAP1 POP PUSH1 0x0 DUP2 PUSH8 0xFFFFFFFFFFFFFFFF DUP2 GT ISZERO PUSH2 0x167B JUMPI PUSH32 0x4E487B7100000000000000000000000000000000000000000000000000000000 PUSH1 0x0 MSTORE PUSH1 0x41 PUSH1 0x4 MSTORE PUSH1 0x24 PUSH1 0x0 REVERT JUMPDEST PUSH1 0x40 MLOAD SWAP1 DUP1 DUP3 MSTORE DUP1 PUSH1 0x20 MUL PUSH1 0x20 ADD DUP3 ADD PUSH1 0x40 MSTORE DUP1 ISZERO PUSH2 0x16B4 JUMPI DUP2 PUSH1 0x20 ADD JUMPDEST PUSH2 0x16A1 PUSH2 0x27EE JUMP JUMPDEST DUP2 MSTORE PUSH1 0x20 ADD SWAP1 PUSH1 0x1 SWAP1 SUB SWAP1 DUP2 PUSH2 0x1699 JUMPI SWAP1 POP JUMPDEST POP SWAP1 POP PUSH1 0x0 JUMPDEST DUP3 DUP2 LT ISZERO PUSH2 0x1772 JUMPI PUSH2 0x171B PUSH2 0x1716 DUP3 PUSH1 0x2 PUSH1 0x0 DUP10 PUSH20 0xFFFFFFFFFFFFFFFFFFFFFFFFFFFFFFFFFFFFFFFF AND PUSH20 0xFFFFFFFFFFFFFFFFFFFFFFFFFFFFFFFFFFFFFFFF AND DUP2 MSTORE PUSH1 0x20 ADD SWAP1 DUP2 MSTORE PUSH1 0x20 ADD PUSH1 0x0 KECCAK256 PUSH2 0x1889 SWAP1 SWAP2 SWAP1 PUSH4 0xFFFFFFFF AND JUMP JUMPDEST PUSH2 0x3E2 JUMP JUMPDEST DUP3 DUP3 DUP2 MLOAD DUP2 LT PUSH2 0x1754 JUMPI PUSH32 0x4E487B7100000000000000000000000000000000000000000000000000000000 PUSH1 0x0 MSTORE PUSH1 0x32 PUSH1 0x4 MSTORE PUSH1 0x24 PUSH1 0x0 REVERT JUMPDEST PUSH1 0x20 MUL PUSH1 0x20 ADD ADD DUP2 SWAP1 MSTORE POP DUP1 DUP1 PUSH2 0x176A SWAP1 PUSH2 0x38C8 JUMP JUMPDEST SWAP2 POP POP PUSH2 0x16BA JUMP JUMPDEST POP DUP1 SWAP3 POP POP POP SWAP2 SWAP1 POP JUMP JUMPDEST PUSH1 0x5 PUSH1 0x20 MSTORE DUP1 PUSH1 0x0 MSTORE PUSH1 0x40 PUSH1 0x0 KECCAK256 PUSH1 0x0 SWAP2 POP SWAP1 POP DUP1 PUSH1 0x0 ADD PUSH1 0x0 SWAP1 SLOAD SWAP1 PUSH2 0x100 EXP SWAP1 DIV PUSH20 0xFFFFFFFFFFFFFFFFFFFFFFFFFFFFFFFFFFFFFFFF AND SWAP1 DUP1 PUSH1 0x1 ADD SLOAD SWAP1 POP DUP3 JUMP JUMPDEST PUSH1 0x0 PUSH2 0x180A PUSH1 0x2 PUSH1 0x0 DUP5 PUSH20 0xFFFFFFFFFFFFFFFFFFFFFFFFFFFFFFFFFFFFFFFF AND PUSH20 0xFFFFFFFFFFFFFFFFFFFFFFFFFFFFFFFFFFFFFFFF AND DUP2 MSTORE PUSH1 0x20 ADD SWAP1 DUP2 MSTORE PUSH1 0x20 ADD PUSH1 0x0 KECCAK256 PUSH2 0x1874 JUMP JUMPDEST SWAP1 POP SWAP2 SWAP1 POP JUMP JUMPDEST PUSH1 0x0 PUSH1 0x1 DUP1 SLOAD SWAP1 POP SWAP1 POP SWAP1 JUMP JUMPDEST PUSH1 0x0 DUP1 DUP3 SWAP1 POP PUSH1 0x1 DUP1 SLOAD SWAP1 POP DUP2 LT PUSH2 0x186B JUMPI PUSH1 0x40 MLOAD PUSH32 0x8C379A000000000000000000000000000000000000000000000000000000000 DUP2 MSTORE PUSH1 0x4 ADD PUSH2 0x1862 SWAP1 PUSH2 0x3497 JUMP JUMPDEST PUSH1 0x40 MLOAD DUP1 SWAP2 SUB SWAP1 REVERT JUMPDEST DUP1 SWAP2 POP POP SWAP2 SWAP1 POP JUMP JUMPDEST PUSH1 0x0 PUSH2 0x1882 DUP3 PUSH1 0x0 ADD PUSH2 0x1DC7 JUMP JUMPDEST SWAP1 POP SWAP2 SWAP1 POP JUMP JUMPDEST PUSH1 0x0 PUSH2 0x1898 DUP4 PUSH1 0x0 ADD DUP4 PUSH2 0x1DD8 JUMP JUMPDEST PUSH1 0x0 SHR SWAP1 POP SWAP3 SWAP2 POP POP JUMP JUMPDEST PUSH1 0x0 PUSH2 0x18B1 DUP3 PUSH1 0x0 ADD PUSH2 0x1DC7 JUMP JUMPDEST SWAP1 POP SWAP2 SWAP1 POP JUMP JUMPDEST PUSH1 0x0 PUSH2 0x18CA DUP4 PUSH1 0x0 ADD DUP4 PUSH1 0x0 SHL PUSH2 0x1E29 JUMP JUMPDEST SWAP1 POP SWAP3 SWAP2 POP POP JUMP JUMPDEST PUSH1 0x0 PUSH2 0x18E4 DUP4 PUSH1 0x0 ADD DUP4 PUSH1 0x0 SHL PUSH2 0x1FAF JUMP JUMPDEST SWAP1 POP SWAP3 SWAP2 POP POP JUMP JUMPDEST DUP1 PUSH1 0x5 ADD SLOAD TIMESTAMP LT ISZERO PUSH2 0x1933 JUMPI PUSH1 0x40 MLOAD PUSH32 0x8C379A000000000000000000000000000000000000000000000000000000000 DUP2 MSTORE PUSH1 0x4 ADD PUSH2 0x192A SWAP1 PUSH2 0x3557 JUMP JUMPDEST PUSH1 0x40 MLOAD DUP1 SWAP2 SUB SWAP1 REVERT JUMPDEST PUSH1 0x0 DUP2 PUSH1 0x6 ADD SLOAD EQ PUSH2 0x197A JUMPI PUSH1 0x40 MLOAD PUSH32 0x8C379A000000000000000000000000000000000000000000000000000000000 DUP2 MSTORE PUSH1 0x4 ADD PUSH2 0x1971 SWAP1 PUSH2 0x34D7 JUMP JUMPDEST PUSH1 0x40 MLOAD DUP1 SWAP2 SUB SWAP1 REVERT JUMPDEST PUSH1 0x0 PUSH1 0x5 PUSH1 0x0 DUP4 PUSH1 0x1 ADD PUSH1 0x0 SWAP1 SLOAD SWAP1 PUSH2 0x100 EXP SWAP1 DIV PUSH20 0xFFFFFFFFFFFFFFFFFFFFFFFFFFFFFFFFFFFFFFFF AND PUSH20 0xFFFFFFFFFFFFFFFFFFFFFFFFFFFFFFFFFFFFFFFF AND PUSH20 0xFFFFFFFFFFFFFFFFFFFFFFFFFFFFFFFFFFFFFFFF AND DUP2 MSTORE PUSH1 0x20 ADD SWAP1 DUP2 MSTORE PUSH1 0x20 ADD PUSH1 0x0 KECCAK256 SWAP1 POP PUSH2 0x1A36 DUP3 PUSH1 0x0 ADD SLOAD PUSH1 0x2 PUSH1 0x0 CALLER PUSH20 0xFFFFFFFFFFFFFFFFFFFFFFFFFFFFFFFFFFFFFFFF AND PUSH20 0xFFFFFFFFFFFFFFFFFFFFFFFFFFFFFFFFFFFFFFFF AND DUP2 MSTORE PUSH1 0x20 ADD SWAP1 DUP2 MSTORE PUSH1 0x20 ADD PUSH1 0x0 KECCAK256 PUSH2 0x18B8 SWAP1 SWAP2 SWAP1 PUSH4 0xFFFFFFFF AND JUMP JUMPDEST POP PUSH1 0x0 DUP3 PUSH1 0x3 ADD SLOAD SWAP1 POP DUP1 DUP3 PUSH1 0x1 ADD SLOAD GT PUSH2 0x1A5A JUMPI PUSH1 0x0 DUP3 PUSH1 0x1 ADD DUP2 SWAP1 SSTORE POP PUSH2 0x1A73 JUMP JUMPDEST DUP1 DUP3 PUSH1 0x1 ADD SLOAD PUSH2 0x1A6A SWAP2 SWAP1 PUSH2 0x37A7 JUMP JUMPDEST DUP3 PUSH1 0x1 ADD DUP2 SWAP1 SSTORE POP JUMPDEST PUSH1 0x0 DUP3 PUSH1 0x1 ADD SLOAD EQ ISZERO PUSH2 0x1ABA JUMPI PUSH2 0x1AB8 DUP4 PUSH1 0x1 ADD PUSH1 0x0 SWAP1 SLOAD SWAP1 PUSH2 0x100 EXP SWAP1 DIV PUSH20 0xFFFFFFFFFFFFFFFFFFFFFFFFFFFFFFFFFFFFFFFF AND PUSH1 0x3 PUSH2 0x201F SWAP1 SWAP2 SWAP1 PUSH4 0xFFFFFFFF AND JUMP JUMPDEST POP JUMPDEST DUP1 DUP4 PUSH1 0x6 ADD DUP2 SWAP1 SSTORE POP PUSH2 0x1B3C DUP4 PUSH1 0x0 ADD SLOAD PUSH1 0x6 PUSH1 0x0 DUP7 PUSH1 0x1 ADD PUSH1 0x0 SWAP1 SLOAD SWAP1 PUSH2 0x100 EXP SWAP1 DIV PUSH20 0xFFFFFFFFFFFFFFFFFFFFFFFFFFFFFFFFFFFFFFFF AND PUSH20 0xFFFFFFFFFFFFFFFFFFFFFFFFFFFFFFFFFFFFFFFF AND PUSH20 0xFFFFFFFFFFFFFFFFFFFFFFFFFFFFFFFFFFFFFFFF AND DUP2 MSTORE PUSH1 0x20 ADD SWAP1 DUP2 MSTORE PUSH1 0x20 ADD PUSH1 0x0 KECCAK256 PUSH2 0x18B8 SWAP1 SWAP2 SWAP1 PUSH4 0xFFFFFFFF AND JUMP JUMPDEST POP PUSH2 0x1B8C CALLER DUP3 DUP6 PUSH1 0x1 ADD PUSH1 0x0 SWAP1 SLOAD SWAP1 PUSH2 0x100 EXP SWAP1 DIV PUSH20 0xFFFFFFFFFFFFFFFFFFFFFFFFFFFFFFFFFFFFFFFF AND PUSH20 0xFFFFFFFFFFFFFFFFFFFFFFFFFFFFFFFFFFFFFFFF AND PUSH2 0x204F SWAP1 SWAP3 SWAP2 SWAP1 PUSH4 0xFFFFFFFF AND JUMP JUMPDEST DUP3 PUSH1 0x0 ADD SLOAD PUSH32 0xC6532367992B32E42A62DD89FC3574876D97D081A263AA6E030F34B79B7E6E8B DUP5 PUSH1 0x1 ADD PUSH1 0x0 SWAP1 SLOAD SWAP1 PUSH2 0x100 EXP SWAP1 DIV PUSH20 0xFFFFFFFFFFFFFFFFFFFFFFFFFFFFFFFFFFFFFFFF AND CALLER DUP5 TIMESTAMP PUSH1 0x40 MLOAD PUSH2 0x1BEA SWAP5 SWAP4 SWAP3 SWAP2 SWAP1 PUSH2 0x32E8 JUMP JUMPDEST PUSH1 0x40 MLOAD DUP1 SWAP2 SUB SWAP1 LOG2 POP POP POP JUMP JUMPDEST PUSH1 0x0 PUSH2 0x1C06 DUP4 PUSH1 0x0 ADD DUP4 PUSH2 0x1DD8 JUMP JUMPDEST PUSH1 0x0 SHR SWAP1 POP SWAP3 SWAP2 POP POP JUMP JUMPDEST PUSH1 0x0 PUSH2 0x1C20 DUP7 DUP7 DUP7 DUP7 DUP7 PUSH2 0x20D5 JUMP JUMPDEST SWAP1 POP SWAP6 SWAP5 POP POP POP POP POP JUMP JUMPDEST PUSH1 0x0 DUP5 PUSH20 0xFFFFFFFFFFFFFFFFFFFFFFFFFFFFFFFFFFFFFFFF AND PUSH4 0x70A08231 DUP5 PUSH1 0x40 MLOAD DUP3 PUSH4 0xFFFFFFFF AND PUSH1 0xE0 SHL DUP2 MSTORE PUSH1 0x4 ADD PUSH2 0x1C66 SWAP2 SWAP1 PUSH2 0x3296 JUMP JUMPDEST PUSH1 0x20 PUSH1 0x40 MLOAD DUP1 DUP4 SUB DUP2 DUP7 DUP1 EXTCODESIZE ISZERO DUP1 ISZERO PUSH2 0x1C7E JUMPI PUSH1 0x0 DUP1 REVERT JUMPDEST POP GAS STATICCALL ISZERO DUP1 ISZERO PUSH2 0x1C92 JUMPI RETURNDATASIZE PUSH1 0x0 DUP1 RETURNDATACOPY RETURNDATASIZE PUSH1 0x0 REVERT JUMPDEST POP POP POP POP PUSH1 0x40 MLOAD RETURNDATASIZE PUSH1 0x1F NOT PUSH1 0x1F DUP3 ADD AND DUP3 ADD DUP1 PUSH1 0x40 MSTORE POP DUP2 ADD SWAP1 PUSH2 0x1CB6 SWAP2 SWAP1 PUSH2 0x2B83 JUMP JUMPDEST SWAP1 POP PUSH2 0x1CE5 DUP5 DUP5 DUP5 DUP9 PUSH20 0xFFFFFFFFFFFFFFFFFFFFFFFFFFFFFFFFFFFFFFFF AND PUSH2 0x22A1 SWAP1 SWAP4 SWAP3 SWAP2 SWAP1 PUSH4 0xFFFFFFFF AND JUMP JUMPDEST PUSH1 0x0 DUP6 PUSH20 0xFFFFFFFFFFFFFFFFFFFFFFFFFFFFFFFFFFFFFFFF AND PUSH4 0x70A08231 DUP6 PUSH1 0x40 MLOAD DUP3 PUSH4 0xFFFFFFFF AND PUSH1 0xE0 SHL DUP2 MSTORE PUSH1 0x4 ADD PUSH2 0x1D20 SWAP2 SWAP1 PUSH2 0x3296 JUMP JUMPDEST PUSH1 0x20 PUSH1 0x40 MLOAD DUP1 DUP4 SUB DUP2 DUP7 DUP1 EXTCODESIZE ISZERO DUP1 ISZERO PUSH2 0x1D38 JUMPI PUSH1 0x0 DUP1 REVERT JUMPDEST POP GAS STATICCALL ISZERO DUP1 ISZERO PUSH2 0x1D4C JUMPI RETURNDATASIZE PUSH1 0x0 DUP1 RETURNDATACOPY RETURNDATASIZE PUSH1 0x0 REVERT JUMPDEST POP POP POP POP PUSH1 0x40 MLOAD RETURNDATASIZE PUSH1 0x1F NOT PUSH1 0x1F DUP3 ADD AND DUP3 ADD DUP1 PUSH1 0x40 MSTORE POP DUP2 ADD SWAP1 PUSH2 0x1D70 SWAP2 SWAP1 PUSH2 0x2B83 JUMP JUMPDEST SWAP1 POP DUP3 DUP3 DUP3 PUSH2 0x1D7F SWAP2 SWAP1 PUSH2 0x37A7 JUMP JUMPDEST EQ PUSH2 0x1DBF JUMPI PUSH1 0x40 MLOAD PUSH32 0x8C379A000000000000000000000000000000000000000000000000000000000 DUP2 MSTORE PUSH1 0x4 ADD PUSH2 0x1DB6 SWAP1 PUSH2 0x3597 JUMP JUMPDEST PUSH1 0x40 MLOAD DUP1 SWAP2 SUB SWAP1 REVERT JUMPDEST POP POP POP POP POP POP JUMP JUMPDEST PUSH1 0x0 DUP2 PUSH1 0x0 ADD DUP1 SLOAD SWAP1 POP SWAP1 POP SWAP2 SWAP1 POP JUMP JUMPDEST PUSH1 0x0 DUP3 PUSH1 0x0 ADD DUP3 DUP2 SLOAD DUP2 LT PUSH2 0x1E16 JUMPI PUSH32 0x4E487B7100000000000000000000000000000000000000000000000000000000 PUSH1 0x0 MSTORE PUSH1 0x32 PUSH1 0x4 MSTORE PUSH1 0x24 PUSH1 0x0 REVERT JUMPDEST SWAP1 PUSH1 0x0 MSTORE PUSH1 0x20 PUSH1 0x0 KECCAK256 ADD SLOAD SWAP1 POP SWAP3 SWAP2 POP POP JUMP JUMPDEST PUSH1 0x0 DUP1 DUP4 PUSH1 0x1 ADD PUSH1 0x0 DUP5 DUP2 MSTORE PUSH1 0x20 ADD SWAP1 DUP2 MSTORE PUSH1 0x20 ADD PUSH1 0x0 KECCAK256 SLOAD SWAP1 POP PUSH1 0x0 DUP2 EQ PUSH2 0x1FA3 JUMPI PUSH1 0x0 PUSH1 0x1 DUP3 PUSH2 0x1E5B SWAP2 SWAP1 PUSH2 0x37A7 JUMP JUMPDEST SWAP1 POP PUSH1 0x0 PUSH1 0x1 DUP7 PUSH1 0x0 ADD DUP1 SLOAD SWAP1 POP PUSH2 0x1E73 SWAP2 SWAP1 PUSH2 0x37A7 JUMP JUMPDEST SWAP1 POP DUP2 DUP2 EQ PUSH2 0x1F2E JUMPI PUSH1 0x0 DUP7 PUSH1 0x0 ADD DUP3 DUP2 SLOAD DUP2 LT PUSH2 0x1EBA JUMPI PUSH32 0x4E487B7100000000000000000000000000000000000000000000000000000000 PUSH1 0x0 MSTORE PUSH1 0x32 PUSH1 0x4 MSTORE PUSH1 0x24 PUSH1 0x0 REVERT JUMPDEST SWAP1 PUSH1 0x0 MSTORE PUSH1 0x20 PUSH1 0x0 KECCAK256 ADD SLOAD SWAP1 POP DUP1 DUP8 PUSH1 0x0 ADD DUP5 DUP2 SLOAD DUP2 LT PUSH2 0x1F04 JUMPI PUSH32 0x4E487B7100000000000000000000000000000000000000000000000000000000 PUSH1 0x0 MSTORE PUSH1 0x32 PUSH1 0x4 MSTORE PUSH1 0x24 PUSH1 0x0 REVERT JUMPDEST SWAP1 PUSH1 0x0 MSTORE PUSH1 0x20 PUSH1 0x0 KECCAK256 ADD DUP2 SWAP1 SSTORE POP DUP4 DUP8 PUSH1 0x1 ADD PUSH1 0x0 DUP4 DUP2 MSTORE PUSH1 0x20 ADD SWAP1 DUP2 MSTORE PUSH1 0x20 ADD PUSH1 0x0 KECCAK256 DUP2 SWAP1 SSTORE POP POP JUMPDEST DUP6 PUSH1 0x0 ADD DUP1 SLOAD DUP1 PUSH2 0x1F68 JUMPI PUSH32 0x4E487B7100000000000000000000000000000000000000000000000000000000 PUSH1 0x0 MSTORE PUSH1 0x31 PUSH1 0x4 MSTORE PUSH1 0x24 PUSH1 0x0 REVERT JUMPDEST PUSH1 0x1 SWAP1 SUB DUP2 DUP2 SWAP1 PUSH1 0x0 MSTORE PUSH1 0x20 PUSH1 0x0 KECCAK256 ADD PUSH1 0x0 SWAP1 SSTORE SWAP1 SSTORE DUP6 PUSH1 0x1 ADD PUSH1 0x0 DUP7 DUP2 MSTORE PUSH1 0x20 ADD SWAP1 DUP2 MSTORE PUSH1 0x20 ADD PUSH1 0x0 KECCAK256 PUSH1 0x0 SWAP1 SSTORE PUSH1 0x1 SWAP4 POP POP POP POP PUSH2 0x1FA9 JUMP JUMPDEST PUSH1 0x0 SWAP2 POP POP JUMPDEST SWAP3 SWAP2 POP POP JUMP JUMPDEST PUSH1 0x0 PUSH2 0x1FBB DUP4 DUP4 PUSH2 0x232A JUMP JUMPDEST PUSH2 0x2014 JUMPI DUP3 PUSH1 0x0 ADD DUP3 SWAP1 DUP1 PUSH1 0x1 DUP2 SLOAD ADD DUP1 DUP3 SSTORE DUP1 SWAP2 POP POP PUSH1 0x1 SWAP1 SUB SWAP1 PUSH1 0x0 MSTORE PUSH1 0x20 PUSH1 0x0 KECCAK256 ADD PUSH1 0x0 SWAP1 SWAP2 SWAP1 SWAP2 SWAP1 SWAP2 POP SSTORE DUP3 PUSH1 0x0 ADD DUP1 SLOAD SWAP1 POP DUP4 PUSH1 0x1 ADD PUSH1 0x0 DUP5 DUP2 MSTORE PUSH1 0x20 ADD SWAP1 DUP2 MSTORE PUSH1 0x20 ADD PUSH1 0x0 KECCAK256 DUP2 SWAP1 SSTORE POP PUSH1 0x1 SWAP1 POP PUSH2 0x2019 JUMP JUMPDEST PUSH1 0x0 SWAP1 POP JUMPDEST SWAP3 SWAP2 POP POP JUMP JUMPDEST PUSH1 0x0 PUSH2 0x2047 DUP4 PUSH1 0x0 ADD DUP4 PUSH20 0xFFFFFFFFFFFFFFFFFFFFFFFFFFFFFFFFFFFFFFFF AND PUSH1 0x0 SHL PUSH2 0x1E29 JUMP JUMPDEST SWAP1 POP SWAP3 SWAP2 POP POP JUMP JUMPDEST PUSH2 0x20D0 DUP4 PUSH4 0xA9059CBB PUSH1 0xE0 SHL DUP5 DUP5 PUSH1 0x40 MLOAD PUSH1 0x24 ADD PUSH2 0x206E SWAP3 SWAP2 SWAP1 PUSH2 0x332D JUMP JUMPDEST PUSH1 0x40 MLOAD PUSH1 0x20 DUP2 DUP4 SUB SUB DUP2 MSTORE SWAP1 PUSH1 0x40 MSTORE SWAP1 PUSH28 0xFFFFFFFFFFFFFFFFFFFFFFFFFFFFFFFFFFFFFFFFFFFFFFFFFFFFFFFF NOT AND PUSH1 0x20 DUP3 ADD DUP1 MLOAD PUSH28 0xFFFFFFFFFFFFFFFFFFFFFFFFFFFFFFFFFFFFFFFFFFFFFFFFFFFFFFFF DUP4 DUP2 DUP4 AND OR DUP4 MSTORE POP POP POP POP PUSH2 0x234D JUMP JUMPDEST POP POP POP JUMP JUMPDEST PUSH1 0x0 PUSH2 0x20E4 DUP7 DUP7 DUP7 DUP7 DUP7 PUSH2 0x2414 JUMP JUMPDEST SWAP1 POP PUSH2 0x2137 DUP2 PUSH1 0x2 PUSH1 0x0 DUP10 PUSH20 0xFFFFFFFFFFFFFFFFFFFFFFFFFFFFFFFFFFFFFFFF AND PUSH20 0xFFFFFFFFFFFFFFFFFFFFFFFFFFFFFFFFFFFFFFFF AND DUP2 MSTORE PUSH1 0x20 ADD SWAP1 DUP2 MSTORE PUSH1 0x20 ADD PUSH1 0x0 KECCAK256 PUSH2 0x18D2 SWAP1 SWAP2 SWAP1 PUSH4 0xFFFFFFFF AND JUMP JUMPDEST POP PUSH2 0x214C DUP6 PUSH1 0x3 PUSH2 0x25A6 SWAP1 SWAP2 SWAP1 PUSH4 0xFFFFFFFF AND JUMP JUMPDEST POP PUSH1 0x0 PUSH1 0x5 PUSH1 0x0 DUP8 PUSH20 0xFFFFFFFFFFFFFFFFFFFFFFFFFFFFFFFFFFFFFFFF AND PUSH20 0xFFFFFFFFFFFFFFFFFFFFFFFFFFFFFFFFFFFFFFFF AND DUP2 MSTORE PUSH1 0x20 ADD SWAP1 DUP2 MSTORE PUSH1 0x20 ADD PUSH1 0x0 KECCAK256 SWAP1 POP PUSH1 0x0 PUSH20 0xFFFFFFFFFFFFFFFFFFFFFFFFFFFFFFFFFFFFFFFF AND DUP2 PUSH1 0x0 ADD PUSH1 0x0 SWAP1 SLOAD SWAP1 PUSH2 0x100 EXP SWAP1 DIV PUSH20 0xFFFFFFFFFFFFFFFFFFFFFFFFFFFFFFFFFFFFFFFF AND PUSH20 0xFFFFFFFFFFFFFFFFFFFFFFFFFFFFFFFFFFFFFFFF AND EQ ISZERO PUSH2 0x222D JUMPI DUP6 DUP2 PUSH1 0x0 ADD PUSH1 0x0 PUSH2 0x100 EXP DUP2 SLOAD DUP2 PUSH20 0xFFFFFFFFFFFFFFFFFFFFFFFFFFFFFFFFFFFFFFFF MUL NOT AND SWAP1 DUP4 PUSH20 0xFFFFFFFFFFFFFFFFFFFFFFFFFFFFFFFFFFFFFFFF AND MUL OR SWAP1 SSTORE POP JUMPDEST DUP5 DUP2 PUSH1 0x1 ADD SLOAD PUSH2 0x223D SWAP2 SWAP1 PUSH2 0x3751 JUMP JUMPDEST DUP2 PUSH1 0x1 ADD DUP2 SWAP1 SSTORE POP PUSH2 0x2296 DUP3 PUSH1 0x6 PUSH1 0x0 DUP10 PUSH20 0xFFFFFFFFFFFFFFFFFFFFFFFFFFFFFFFFFFFFFFFF AND PUSH20 0xFFFFFFFFFFFFFFFFFFFFFFFFFFFFFFFFFFFFFFFF AND DUP2 MSTORE PUSH1 0x20 ADD SWAP1 DUP2 MSTORE PUSH1 0x20 ADD PUSH1 0x0 KECCAK256 PUSH2 0x18D2 SWAP1 SWAP2 SWAP1 PUSH4 0xFFFFFFFF AND JUMP JUMPDEST POP POP SWAP6 SWAP5 POP POP POP POP POP JUMP JUMPDEST PUSH2 0x2324 DUP5 PUSH4 0x23B872DD PUSH1 0xE0 SHL DUP6 DUP6 DUP6 PUSH1 0x40 MLOAD PUSH1 0x24 ADD PUSH2 0x22C2 SWAP4 SWAP3 SWAP2 SWAP1 PUSH2 0x32B1 JUMP JUMPDEST PUSH1 0x40 MLOAD PUSH1 0x20 DUP2 DUP4 SUB SUB DUP2 MSTORE SWAP1 PUSH1 0x40 MSTORE SWAP1 PUSH28 0xFFFFFFFFFFFFFFFFFFFFFFFFFFFFFFFFFFFFFFFFFFFFFFFFFFFFFFFF NOT AND PUSH1 0x20 DUP3 ADD DUP1 MLOAD PUSH28 0xFFFFFFFFFFFFFFFFFFFFFFFFFFFFFFFFFFFFFFFFFFFFFFFFFFFFFFFF DUP4 DUP2 DUP4 AND OR DUP4 MSTORE POP POP POP POP PUSH2 0x234D JUMP JUMPDEST POP POP POP POP JUMP JUMPDEST PUSH1 0x0 DUP1 DUP4 PUSH1 0x1 ADD PUSH1 0x0 DUP5 DUP2 MSTORE PUSH1 0x20 ADD SWAP1 DUP2 MSTORE PUSH1 0x20 ADD PUSH1 0x0 KECCAK256 SLOAD EQ ISZERO SWAP1 POP SWAP3 SWAP2 POP POP JUMP JUMPDEST PUSH1 0x0 PUSH2 0x23AF DUP3 PUSH1 0x40 MLOAD DUP1 PUSH1 0x40 ADD PUSH1 0x40 MSTORE DUP1 PUSH1 0x20 DUP2 MSTORE PUSH1 0x20 ADD PUSH32 0x5361666545524332303A206C6F772D6C6576656C2063616C6C206661696C6564 DUP2 MSTORE POP DUP6 PUSH20 0xFFFFFFFFFFFFFFFFFFFFFFFFFFFFFFFFFFFFFFFF AND PUSH2 0x25D6 SWAP1 SWAP3 SWAP2 SWAP1 PUSH4 0xFFFFFFFF AND JUMP JUMPDEST SWAP1 POP PUSH1 0x0 DUP2 MLOAD GT ISZERO PUSH2 0x240F JUMPI DUP1 DUP1 PUSH1 0x20 ADD SWAP1 MLOAD DUP2 ADD SWAP1 PUSH2 0x23CF SWAP2 SWAP1 PUSH2 0x2B31 JUMP JUMPDEST PUSH2 0x240E JUMPI PUSH1 0x40 MLOAD PUSH32 0x8C379A000000000000000000000000000000000000000000000000000000000 DUP2 MSTORE PUSH1 0x4 ADD PUSH2 0x2405 SWAP1 PUSH2 0x3537 JUMP JUMPDEST PUSH1 0x40 MLOAD DUP1 SWAP2 SUB SWAP1 REVERT JUMPDEST JUMPDEST POP POP POP JUMP JUMPDEST PUSH1 0x0 PUSH2 0x241E PUSH2 0x25EE JUMP JUMPDEST PUSH1 0x1 DUP1 SLOAD SWAP1 POP SWAP1 POP PUSH1 0x0 PUSH1 0x40 MLOAD DUP1 PUSH2 0x100 ADD PUSH1 0x40 MSTORE DUP1 DUP4 DUP2 MSTORE PUSH1 0x20 ADD DUP8 PUSH20 0xFFFFFFFFFFFFFFFFFFFFFFFFFFFFFFFFFFFFFFFF AND DUP2 MSTORE PUSH1 0x20 ADD DUP9 PUSH20 0xFFFFFFFFFFFFFFFFFFFFFFFFFFFFFFFFFFFFFFFF AND DUP2 MSTORE PUSH1 0x20 ADD DUP7 DUP2 MSTORE PUSH1 0x20 ADD TIMESTAMP DUP2 MSTORE PUSH1 0x20 ADD DUP6 DUP2 MSTORE PUSH1 0x20 ADD PUSH1 0x0 DUP2 MSTORE PUSH1 0x20 ADD DUP5 DUP2 MSTORE POP SWAP1 POP PUSH1 0x1 DUP2 SWAP1 DUP1 PUSH1 0x1 DUP2 SLOAD ADD DUP1 DUP3 SSTORE DUP1 SWAP2 POP POP PUSH1 0x1 SWAP1 SUB SWAP1 PUSH1 0x0 MSTORE PUSH1 0x20 PUSH1 0x0 KECCAK256 SWAP1 PUSH1 0x8 MUL ADD PUSH1 0x0 SWAP1 SWAP2 SWAP1 SWAP2 SWAP1 SWAP2 POP PUSH1 0x0 DUP3 ADD MLOAD DUP2 PUSH1 0x0 ADD SSTORE PUSH1 0x20 DUP3 ADD MLOAD DUP2 PUSH1 0x1 ADD PUSH1 0x0 PUSH2 0x100 EXP DUP2 SLOAD DUP2 PUSH20 0xFFFFFFFFFFFFFFFFFFFFFFFFFFFFFFFFFFFFFFFF MUL NOT AND SWAP1 DUP4 PUSH20 0xFFFFFFFFFFFFFFFFFFFFFFFFFFFFFFFFFFFFFFFF AND MUL OR SWAP1 SSTORE POP PUSH1 0x40 DUP3 ADD MLOAD DUP2 PUSH1 0x2 ADD PUSH1 0x0 PUSH2 0x100 EXP DUP2 SLOAD DUP2 PUSH20 0xFFFFFFFFFFFFFFFFFFFFFFFFFFFFFFFFFFFFFFFF MUL NOT AND SWAP1 DUP4 PUSH20 0xFFFFFFFFFFFFFFFFFFFFFFFFFFFFFFFFFFFFFFFF AND MUL OR SWAP1 SSTORE POP PUSH1 0x60 DUP3 ADD MLOAD DUP2 PUSH1 0x3 ADD SSTORE PUSH1 0x80 DUP3 ADD MLOAD DUP2 PUSH1 0x4 ADD SSTORE PUSH1 0xA0 DUP3 ADD MLOAD DUP2 PUSH1 0x5 ADD SSTORE PUSH1 0xC0 DUP3 ADD MLOAD DUP2 PUSH1 0x6 ADD SSTORE PUSH1 0xE0 DUP3 ADD MLOAD DUP2 PUSH1 0x7 ADD SWAP1 DUP1 MLOAD SWAP1 PUSH1 0x20 ADD SWAP1 PUSH2 0x2599 SWAP3 SWAP2 SWAP1 PUSH2 0x288F JUMP JUMPDEST POP POP POP POP SWAP6 SWAP5 POP POP POP POP POP JUMP JUMPDEST PUSH1 0x0 PUSH2 0x25CE DUP4 PUSH1 0x0 ADD DUP4 PUSH20 0xFFFFFFFFFFFFFFFFFFFFFFFFFFFFFFFFFFFFFFFF AND PUSH1 0x0 SHL PUSH2 0x1FAF JUMP JUMPDEST SWAP1 POP SWAP3 SWAP2 POP POP JUMP JUMPDEST PUSH1 0x60 PUSH2 0x25E5 DUP5 DUP5 PUSH1 0x0 DUP6 PUSH2 0x2638 JUMP JUMPDEST SWAP1 POP SWAP4 SWAP3 POP POP POP JUMP JUMPDEST PUSH2 0x25F6 PUSH2 0xBD1 JUMP JUMPDEST ISZERO PUSH2 0x2636 JUMPI PUSH1 0x40 MLOAD PUSH32 0x8C379A000000000000000000000000000000000000000000000000000000000 DUP2 MSTORE PUSH1 0x4 ADD PUSH2 0x262D SWAP1 PUSH2 0x3477 JUMP JUMPDEST PUSH1 0x40 MLOAD DUP1 SWAP2 SUB SWAP1 REVERT JUMPDEST JUMP JUMPDEST PUSH1 0x60 DUP3 SELFBALANCE LT ISZERO PUSH2 0x267D JUMPI PUSH1 0x40 MLOAD PUSH32 0x8C379A000000000000000000000000000000000000000000000000000000000 DUP2 MSTORE PUSH1 0x4 ADD PUSH2 0x2674 SWAP1 PUSH2 0x3437 JUMP JUMPDEST PUSH1 0x40 MLOAD DUP1 SWAP2 SUB SWAP1 REVERT JUMPDEST PUSH1 0x0 DUP1 DUP7 PUSH20 0xFFFFFFFFFFFFFFFFFFFFFFFFFFFFFFFFFFFFFFFF AND DUP6 DUP8 PUSH1 0x40 MLOAD PUSH2 0x26A6 SWAP2 SWAP1 PUSH2 0x327F JUMP JUMPDEST PUSH1 0x0 PUSH1 0x40 MLOAD DUP1 DUP4 SUB DUP2 DUP6 DUP8 GAS CALL SWAP3 POP POP POP RETURNDATASIZE DUP1 PUSH1 0x0 DUP2 EQ PUSH2 0x26E3 JUMPI PUSH1 0x40 MLOAD SWAP2 POP PUSH1 0x1F NOT PUSH1 0x3F RETURNDATASIZE ADD AND DUP3 ADD PUSH1 0x40 MSTORE RETURNDATASIZE DUP3 MSTORE RETURNDATASIZE PUSH1 0x0 PUSH1 0x20 DUP5 ADD RETURNDATACOPY PUSH2 0x26E8 JUMP JUMPDEST PUSH1 0x60 SWAP2 POP JUMPDEST POP SWAP2 POP SWAP2 POP PUSH2 0x26F9 DUP8 DUP4 DUP4 DUP8 PUSH2 0x2705 JUMP JUMPDEST SWAP3 POP POP POP SWAP5 SWAP4 POP POP POP POP JUMP JUMPDEST PUSH1 0x60 DUP4 ISZERO PUSH2 0x2768 JUMPI PUSH1 0x0 DUP4 MLOAD EQ ISZERO PUSH2 0x2760 JUMPI PUSH2 0x2720 DUP6 PUSH2 0x277B JUMP JUMPDEST PUSH2 0x275F JUMPI PUSH1 0x40 MLOAD PUSH32 0x8C379A000000000000000000000000000000000000000000000000000000000 DUP2 MSTORE PUSH1 0x4 ADD PUSH2 0x2756 SWAP1 PUSH2 0x34F7 JUMP JUMPDEST PUSH1 0x40 MLOAD DUP1 SWAP2 SUB SWAP1 REVERT JUMPDEST JUMPDEST DUP3 SWAP1 POP PUSH2 0x2773 JUMP JUMPDEST PUSH2 0x2772 DUP4 DUP4 PUSH2 0x279E JUMP JUMPDEST JUMPDEST SWAP5 SWAP4 POP POP POP POP JUMP JUMPDEST PUSH1 0x0 DUP1 DUP3 PUSH20 0xFFFFFFFFFFFFFFFFFFFFFFFFFFFFFFFFFFFFFFFF AND EXTCODESIZE GT SWAP1 POP SWAP2 SWAP1 POP JUMP JUMPDEST PUSH1 0x0 DUP3 MLOAD GT ISZERO PUSH2 0x27B1 JUMPI DUP2 MLOAD DUP1 DUP4 PUSH1 0x20 ADD REVERT JUMPDEST DUP1 PUSH1 0x40 MLOAD PUSH32 0x8C379A000000000000000000000000000000000000000000000000000000000 DUP2 MSTORE PUSH1 0x4 ADD PUSH2 0x27E5 SWAP2 SWAP1 PUSH2 0x33B5 JUMP JUMPDEST PUSH1 0x40 MLOAD DUP1 SWAP2 SUB SWAP1 REVERT JUMPDEST PUSH1 0x40 MLOAD DUP1 PUSH2 0x100 ADD PUSH1 0x40 MSTORE DUP1 PUSH1 0x0 DUP2 MSTORE PUSH1 0x20 ADD PUSH1 0x0 PUSH20 0xFFFFFFFFFFFFFFFFFFFFFFFFFFFFFFFFFFFFFFFF AND DUP2 MSTORE PUSH1 0x20 ADD PUSH1 0x0 PUSH20 0xFFFFFFFFFFFFFFFFFFFFFFFFFFFFFFFFFFFFFFFF AND DUP2 MSTORE PUSH1 0x20 ADD PUSH1 0x0 DUP2 MSTORE PUSH1 0x20 ADD PUSH1 0x0 DUP2 MSTORE PUSH1 0x20 ADD PUSH1 0x0 DUP2 MSTORE PUSH1 0x20 ADD PUSH1 0x0 DUP2 MSTORE PUSH1 0x20 ADD PUSH1 0x60 DUP2 MSTORE POP SWAP1 JUMP JUMPDEST PUSH1 0x40 MLOAD DUP1 PUSH1 0x40 ADD PUSH1 0x40 MSTORE DUP1 PUSH1 0x0 PUSH20 0xFFFFFFFFFFFFFFFFFFFFFFFFFFFFFFFFFFFFFFFF AND DUP2 MSTORE PUSH1 0x20 ADD PUSH1 0x0 DUP2 MSTORE POP SWAP1 JUMP JUMPDEST DUP3 DUP1 SLOAD PUSH2 0x289B SWAP1 PUSH2 0x3865 JUMP JUMPDEST SWAP1 PUSH1 0x0 MSTORE PUSH1 0x20 PUSH1 0x0 KECCAK256 SWAP1 PUSH1 0x1F ADD PUSH1 0x20 SWAP1 DIV DUP2 ADD SWAP3 DUP3 PUSH2 0x28BD JUMPI PUSH1 0x0 DUP6 SSTORE PUSH2 0x2904 JUMP JUMPDEST DUP3 PUSH1 0x1F LT PUSH2 0x28D6 JUMPI DUP1 MLOAD PUSH1 0xFF NOT AND DUP4 DUP1 ADD OR DUP6 SSTORE PUSH2 0x2904 JUMP JUMPDEST DUP3 DUP1 ADD PUSH1 0x1 ADD DUP6 SSTORE DUP3 ISZERO PUSH2 0x2904 JUMPI SWAP2 DUP3 ADD JUMPDEST DUP3 DUP2 GT ISZERO PUSH2 0x2903 JUMPI DUP3 MLOAD DUP3 SSTORE SWAP2 PUSH1 0x20 ADD SWAP2 SWAP1 PUSH1 0x1 ADD SWAP1 PUSH2 0x28E8 JUMP JUMPDEST JUMPDEST POP SWAP1 POP PUSH2 0x2911 SWAP2 SWAP1 PUSH2 0x2915 JUMP JUMPDEST POP SWAP1 JUMP JUMPDEST JUMPDEST DUP1 DUP3 GT ISZERO PUSH2 0x292E JUMPI PUSH1 0x0 DUP2 PUSH1 0x0 SWAP1 SSTORE POP PUSH1 0x1 ADD PUSH2 0x2916 JUMP JUMPDEST POP SWAP1 JUMP JUMPDEST PUSH1 0x0 PUSH2 0x2945 PUSH2 0x2940 DUP5 PUSH2 0x366B JUMP JUMPDEST PUSH2 0x3646 JUMP JUMPDEST SWAP1 POP DUP3 DUP2 MSTORE PUSH1 0x20 DUP2 ADD DUP5 DUP5 DUP5 ADD GT ISZERO PUSH2 0x295D JUMPI PUSH1 0x0 DUP1 REVERT JUMPDEST PUSH2 0x2968 DUP5 DUP3 DUP6 PUSH2 0x3823 JUMP JUMPDEST POP SWAP4 SWAP3 POP POP POP JUMP JUMPDEST PUSH1 0x0 DUP2 CALLDATALOAD SWAP1 POP PUSH2 0x297F DUP2 PUSH2 0x3D20 JUMP JUMPDEST SWAP3 SWAP2 POP POP JUMP JUMPDEST PUSH1 0x0 DUP2 MLOAD SWAP1 POP PUSH2 0x2994 DUP2 PUSH2 0x3D37 JUMP JUMPDEST SWAP3 SWAP2 POP POP JUMP JUMPDEST PUSH1 0x0 DUP3 PUSH1 0x1F DUP4 ADD SLT PUSH2 0x29AB JUMPI PUSH1 0x0 DUP1 REVERT JUMPDEST DUP2 CALLDATALOAD PUSH2 0x29BB DUP5 DUP3 PUSH1 0x20 DUP7 ADD PUSH2 0x2932 JUMP JUMPDEST SWAP2 POP POP SWAP3 SWAP2 POP POP JUMP JUMPDEST PUSH1 0x0 DUP2 CALLDATALOAD SWAP1 POP PUSH2 0x29D3 DUP2 PUSH2 0x3D4E JUMP JUMPDEST SWAP3 SWAP2 POP POP JUMP JUMPDEST PUSH1 0x0 DUP2 MLOAD SWAP1 POP PUSH2 0x29E8 DUP2 PUSH2 0x3D4E JUMP JUMPDEST SWAP3 SWAP2 POP POP JUMP JUMPDEST PUSH1 0x0 PUSH1 0x20 DUP3 DUP5 SUB SLT ISZERO PUSH2 0x2A00 JUMPI PUSH1 0x0 DUP1 REVERT JUMPDEST PUSH1 0x0 PUSH2 0x2A0E DUP5 DUP3 DUP6 ADD PUSH2 0x2970 JUMP JUMPDEST SWAP2 POP POP SWAP3 SWAP2 POP POP JUMP JUMPDEST PUSH1 0x0 DUP1 PUSH1 0x0 DUP1 PUSH1 0x0 PUSH1 0xA0 DUP7 DUP9 SUB SLT ISZERO PUSH2 0x2A2F JUMPI PUSH1 0x0 DUP1 REVERT JUMPDEST PUSH1 0x0 PUSH2 0x2A3D DUP9 DUP3 DUP10 ADD PUSH2 0x2970 JUMP JUMPDEST SWAP6 POP POP PUSH1 0x20 PUSH2 0x2A4E DUP9 DUP3 DUP10 ADD PUSH2 0x2970 JUMP JUMPDEST SWAP5 POP POP PUSH1 0x40 PUSH2 0x2A5F DUP9 DUP3 DUP10 ADD PUSH2 0x29C4 JUMP JUMPDEST SWAP4 POP POP PUSH1 0x60 PUSH2 0x2A70 DUP9 DUP3 DUP10 ADD PUSH2 0x29C4 JUMP JUMPDEST SWAP3 POP POP PUSH1 0x80 DUP7 ADD CALLDATALOAD PUSH8 0xFFFFFFFFFFFFFFFF DUP2 GT ISZERO PUSH2 0x2A8D JUMPI PUSH1 0x0 DUP1 REVERT JUMPDEST PUSH2 0x2A99 DUP9 DUP3 DUP10 ADD PUSH2 0x299A JUMP JUMPDEST SWAP2 POP POP SWAP3 SWAP6 POP SWAP3 SWAP6 SWAP1 SWAP4 POP JUMP JUMPDEST PUSH1 0x0 DUP1 PUSH1 0x40 DUP4 DUP6 SUB SLT ISZERO PUSH2 0x2AB9 JUMPI PUSH1 0x0 DUP1 REVERT JUMPDEST PUSH1 0x0 PUSH2 0x2AC7 DUP6 DUP3 DUP7 ADD PUSH2 0x2970 JUMP JUMPDEST SWAP3 POP POP PUSH1 0x20 PUSH2 0x2AD8 DUP6 DUP3 DUP7 ADD PUSH2 0x29C4 JUMP JUMPDEST SWAP2 POP POP SWAP3 POP SWAP3 SWAP1 POP JUMP JUMPDEST PUSH1 0x0 DUP1 PUSH1 0x0 PUSH1 0x60 DUP5 DUP7 SUB SLT ISZERO PUSH2 0x2AF7 JUMPI PUSH1 0x0 DUP1 REVERT JUMPDEST PUSH1 0x0 PUSH2 0x2B05 DUP7 DUP3 DUP8 ADD PUSH2 0x2970 JUMP JUMPDEST SWAP4 POP POP PUSH1 0x20 PUSH2 0x2B16 DUP7 DUP3 DUP8 ADD PUSH2 0x29C4 JUMP JUMPDEST SWAP3 POP POP PUSH1 0x40 PUSH2 0x2B27 DUP7 DUP3 DUP8 ADD PUSH2 0x29C4 JUMP JUMPDEST SWAP2 POP POP SWAP3 POP SWAP3 POP SWAP3 JUMP JUMPDEST PUSH1 0x0 PUSH1 0x20 DUP3 DUP5 SUB SLT ISZERO PUSH2 0x2B43 JUMPI PUSH1 0x0 DUP1 REVERT JUMPDEST PUSH1 0x0 PUSH2 0x2B51 DUP5 DUP3 DUP6 ADD PUSH2 0x2985 JUMP JUMPDEST SWAP2 POP POP SWAP3 SWAP2 POP POP JUMP JUMPDEST PUSH1 0x0 PUSH1 0x20 DUP3 DUP5 SUB SLT ISZERO PUSH2 0x2B6C JUMPI PUSH1 0x0 DUP1 REVERT JUMPDEST PUSH1 0x0 PUSH2 0x2B7A DUP5 DUP3 DUP6 ADD PUSH2 0x29C4 JUMP JUMPDEST SWAP2 POP POP SWAP3 SWAP2 POP POP JUMP JUMPDEST PUSH1 0x0 PUSH1 0x20 DUP3 DUP5 SUB SLT ISZERO PUSH2 0x2B95 JUMPI PUSH1 0x0 DUP1 REVERT JUMPDEST PUSH1 0x0 PUSH2 0x2BA3 DUP5 DUP3 DUP6 ADD PUSH2 0x29D9 JUMP JUMPDEST SWAP2 POP POP SWAP3 SWAP2 POP POP JUMP JUMPDEST PUSH1 0x0 DUP1 PUSH1 0x40 DUP4 DUP6 SUB SLT ISZERO PUSH2 0x2BBF JUMPI PUSH1 0x0 DUP1 REVERT JUMPDEST PUSH1 0x0 PUSH2 0x2BCD DUP6 DUP3 DUP7 ADD PUSH2 0x29C4 JUMP JUMPDEST SWAP3 POP POP PUSH1 0x20 PUSH2 0x2BDE DUP6 DUP3 DUP7 ADD PUSH2 0x2970 JUMP JUMPDEST SWAP2 POP POP SWAP3 POP SWAP3 SWAP1 POP JUMP JUMPDEST PUSH1 0x0 DUP1 PUSH1 0x40 DUP4 DUP6 SUB SLT ISZERO PUSH2 0x2BFB JUMPI PUSH1 0x0 DUP1 REVERT JUMPDEST PUSH1 0x0 PUSH2 0x2C09 DUP6 DUP3 DUP7 ADD PUSH2 0x29C4 JUMP JUMPDEST SWAP3 POP POP PUSH1 0x20 DUP4 ADD CALLDATALOAD PUSH8 0xFFFFFFFFFFFFFFFF DUP2 GT ISZERO PUSH2 0x2C26 JUMPI PUSH1 0x0 DUP1 REVERT JUMPDEST PUSH2 0x2C32 DUP6 DUP3 DUP7 ADD PUSH2 0x299A JUMP JUMPDEST SWAP2 POP POP SWAP3 POP SWAP3 SWAP1 POP JUMP JUMPDEST PUSH1 0x0 DUP1 PUSH1 0x40 DUP4 DUP6 SUB SLT ISZERO PUSH2 0x2C4F JUMPI PUSH1 0x0 DUP1 REVERT JUMPDEST PUSH1 0x0 PUSH2 0x2C5D DUP6 DUP3 DUP7 ADD PUSH2 0x29C4 JUMP JUMPDEST SWAP3 POP POP PUSH1 0x20 PUSH2 0x2C6E DUP6 DUP3 DUP7 ADD PUSH2 0x29C4 JUMP JUMPDEST SWAP2 POP POP SWAP3 POP SWAP3 SWAP1 POP JUMP JUMPDEST PUSH1 0x0 DUP1 PUSH1 0x0 PUSH1 0x60 DUP5 DUP7 SUB SLT ISZERO PUSH2 0x2C8D JUMPI PUSH1 0x0 DUP1 REVERT JUMPDEST PUSH1 0x0 PUSH2 0x2C9B DUP7 DUP3 DUP8 ADD PUSH2 0x29C4 JUMP JUMPDEST SWAP4 POP POP PUSH1 0x20 PUSH2 0x2CAC DUP7 DUP3 DUP8 ADD PUSH2 0x29C4 JUMP JUMPDEST SWAP3 POP POP PUSH1 0x40 PUSH2 0x2CBD DUP7 DUP3 DUP8 ADD PUSH2 0x29C4 JUMP JUMPDEST SWAP2 POP POP SWAP3 POP SWAP3 POP SWAP3 JUMP JUMPDEST PUSH1 0x0 PUSH2 0x2CD3 DUP4 DUP4 PUSH2 0x30A3 JUMP JUMPDEST PUSH1 0x40 DUP4 ADD SWAP1 POP SWAP3 SWAP2 POP POP JUMP JUMPDEST PUSH1 0x0 PUSH2 0x2CEB DUP4 DUP4 PUSH2 0x3101 JUMP JUMPDEST SWAP1 POP SWAP3 SWAP2 POP POP JUMP JUMPDEST PUSH2 0x2CFC DUP2 PUSH2 0x37DB JUMP JUMPDEST DUP3 MSTORE POP POP JUMP JUMPDEST PUSH2 0x2D0B DUP2 PUSH2 0x37DB JUMP JUMPDEST DUP3 MSTORE POP POP JUMP JUMPDEST PUSH1 0x0 PUSH2 0x2D1C DUP3 PUSH2 0x36BC JUMP JUMPDEST PUSH2 0x2D26 DUP2 DUP6 PUSH2 0x3702 JUMP JUMPDEST SWAP4 POP PUSH2 0x2D31 DUP4 PUSH2 0x369C JUMP JUMPDEST DUP1 PUSH1 0x0 JUMPDEST DUP4 DUP2 LT ISZERO PUSH2 0x2D62 JUMPI DUP2 MLOAD PUSH2 0x2D49 DUP9 DUP3 PUSH2 0x2CC7 JUMP JUMPDEST SWAP8 POP PUSH2 0x2D54 DUP4 PUSH2 0x36E8 JUMP JUMPDEST SWAP3 POP POP PUSH1 0x1 DUP2 ADD SWAP1 POP PUSH2 0x2D35 JUMP JUMPDEST POP DUP6 SWAP4 POP POP POP POP SWAP3 SWAP2 POP POP JUMP JUMPDEST PUSH1 0x0 PUSH2 0x2D7A DUP3 PUSH2 0x36C7 JUMP JUMPDEST PUSH2 0x2D84 DUP2 DUP6 PUSH2 0x3713 JUMP JUMPDEST SWAP4 POP DUP4 PUSH1 0x20 DUP3 MUL DUP6 ADD PUSH2 0x2D96 DUP6 PUSH2 0x36AC JUMP JUMPDEST DUP1 PUSH1 0x0 JUMPDEST DUP6 DUP2 LT ISZERO PUSH2 0x2DD2 JUMPI DUP5 DUP5 SUB DUP10 MSTORE DUP2 MLOAD PUSH2 0x2DB3 DUP6 DUP3 PUSH2 0x2CDF JUMP JUMPDEST SWAP5 POP PUSH2 0x2DBE DUP4 PUSH2 0x36F5 JUMP JUMPDEST SWAP3 POP PUSH1 0x20 DUP11 ADD SWAP10 POP POP PUSH1 0x1 DUP2 ADD SWAP1 POP PUSH2 0x2D9A JUMP JUMPDEST POP DUP3 SWAP8 POP DUP8 SWAP6 POP POP POP POP POP POP SWAP3 SWAP2 POP POP JUMP JUMPDEST PUSH2 0x2DED DUP2 PUSH2 0x37ED JUMP JUMPDEST DUP3 MSTORE POP POP JUMP JUMPDEST PUSH1 0x0 PUSH2 0x2DFE DUP3 PUSH2 0x36D2 JUMP JUMPDEST PUSH2 0x2E08 DUP2 DUP6 PUSH2 0x3724 JUMP JUMPDEST SWAP4 POP PUSH2 0x2E18 DUP2 DUP6 PUSH1 0x20 DUP7 ADD PUSH2 0x3832 JUMP JUMPDEST DUP1 DUP5 ADD SWAP2 POP POP SWAP3 SWAP2 POP POP JUMP JUMPDEST PUSH1 0x0 PUSH2 0x2E2F DUP3 PUSH2 0x36DD JUMP JUMPDEST PUSH2 0x2E39 DUP2 DUP6 PUSH2 0x372F JUMP JUMPDEST SWAP4 POP PUSH2 0x2E49 DUP2 DUP6 PUSH1 0x20 DUP7 ADD PUSH2 0x3832 JUMP JUMPDEST PUSH2 0x2E52 DUP2 PUSH2 0x399E JUMP JUMPDEST DUP5 ADD SWAP2 POP POP SWAP3 SWAP2 POP POP JUMP JUMPDEST PUSH1 0x0 PUSH2 0x2E68 DUP3 PUSH2 0x36DD JUMP JUMPDEST PUSH2 0x2E72 DUP2 DUP6 PUSH2 0x3740 JUMP JUMPDEST SWAP4 POP PUSH2 0x2E82 DUP2 DUP6 PUSH1 0x20 DUP7 ADD PUSH2 0x3832 JUMP JUMPDEST PUSH2 0x2E8B DUP2 PUSH2 0x399E JUMP JUMPDEST DUP5 ADD SWAP2 POP POP SWAP3 SWAP2 POP POP JUMP JUMPDEST PUSH1 0x0 PUSH2 0x2EA3 PUSH1 0x11 DUP4 PUSH2 0x3740 JUMP JUMPDEST SWAP2 POP PUSH2 0x2EAE DUP3 PUSH2 0x39AF JUMP JUMPDEST PUSH1 0x20 DUP3 ADD SWAP1 POP SWAP2 SWAP1 POP JUMP JUMPDEST PUSH1 0x0 PUSH2 0x2EC6 PUSH1 0x23 DUP4 PUSH2 0x3740 JUMP JUMPDEST SWAP2 POP PUSH2 0x2ED1 DUP3 PUSH2 0x39D8 JUMP JUMPDEST PUSH1 0x40 DUP3 ADD SWAP1 POP SWAP2 SWAP1 POP JUMP JUMPDEST PUSH1 0x0 PUSH2 0x2EE9 PUSH1 0xD DUP4 PUSH2 0x3740 JUMP JUMPDEST SWAP2 POP PUSH2 0x2EF4 DUP3 PUSH2 0x3A27 JUMP JUMPDEST PUSH1 0x20 DUP3 ADD SWAP1 POP SWAP2 SWAP1 POP JUMP JUMPDEST PUSH1 0x0 PUSH2 0x2F0C PUSH1 0x26 DUP4 PUSH2 0x3740 JUMP JUMPDEST SWAP2 POP PUSH2 0x2F17 DUP3 PUSH2 0x3A50 JUMP JUMPDEST PUSH1 0x40 DUP3 ADD SWAP1 POP SWAP2 SWAP1 POP JUMP JUMPDEST PUSH1 0x0 PUSH2 0x2F2F PUSH1 0x22 DUP4 PUSH2 0x3740 JUMP JUMPDEST SWAP2 POP PUSH2 0x2F3A DUP3 PUSH2 0x3A9F JUMP JUMPDEST PUSH1 0x40 DUP3 ADD SWAP1 POP SWAP2 SWAP1 POP JUMP JUMPDEST PUSH1 0x0 PUSH2 0x2F52 PUSH1 0x10 DUP4 PUSH2 0x3740 JUMP JUMPDEST SWAP2 POP PUSH2 0x2F5D DUP3 PUSH2 0x3AEE JUMP JUMPDEST PUSH1 0x20 DUP3 ADD SWAP1 POP SWAP2 SWAP1 POP JUMP JUMPDEST PUSH1 0x0 PUSH2 0x2F75 PUSH1 0xF DUP4 PUSH2 0x3740 JUMP JUMPDEST SWAP2 POP PUSH2 0x2F80 DUP3 PUSH2 0x3B17 JUMP JUMPDEST PUSH1 0x20 DUP3 ADD SWAP1 POP SWAP2 SWAP1 POP JUMP JUMPDEST PUSH1 0x0 PUSH2 0x2F98 PUSH1 0x1F DUP4 PUSH2 0x3740 JUMP JUMPDEST SWAP2 POP PUSH2 0x2FA3 DUP3 PUSH2 0x3B40 JUMP JUMPDEST PUSH1 0x20 DUP3 ADD SWAP1 POP SWAP2 SWAP1 POP JUMP JUMPDEST PUSH1 0x0 PUSH2 0x2FBB PUSH1 0x11 DUP4 PUSH2 0x3740 JUMP JUMPDEST SWAP2 POP PUSH2 0x2FC6 DUP3 PUSH2 0x3B69 JUMP JUMPDEST PUSH1 0x20 DUP3 ADD SWAP1 POP SWAP2 SWAP1 POP JUMP JUMPDEST PUSH1 0x0 PUSH2 0x2FDE PUSH1 0x1D DUP4 PUSH2 0x3740 JUMP JUMPDEST SWAP2 POP PUSH2 0x2FE9 DUP3 PUSH2 0x3B92 JUMP JUMPDEST PUSH1 0x20 DUP3 ADD SWAP1 POP SWAP2 SWAP1 POP JUMP JUMPDEST PUSH1 0x0 PUSH2 0x3001 PUSH1 0x31 DUP4 PUSH2 0x3740 JUMP JUMPDEST SWAP2 POP PUSH2 0x300C DUP3 PUSH2 0x3BBB JUMP JUMPDEST PUSH1 0x40 DUP3 ADD SWAP1 POP SWAP2 SWAP1 POP JUMP JUMPDEST PUSH1 0x0 PUSH2 0x3024 PUSH1 0x2A DUP4 PUSH2 0x3740 JUMP JUMPDEST SWAP2 POP PUSH2 0x302F DUP3 PUSH2 0x3C0A JUMP JUMPDEST PUSH1 0x40 DUP3 ADD SWAP1 POP SWAP2 SWAP1 POP JUMP JUMPDEST PUSH1 0x0 PUSH2 0x3047 PUSH1 0x18 DUP4 PUSH2 0x3740 JUMP JUMPDEST SWAP2 POP PUSH2 0x3052 DUP3 PUSH2 0x3C59 JUMP JUMPDEST PUSH1 0x20 DUP3 ADD SWAP1 POP SWAP2 SWAP1 POP JUMP JUMPDEST PUSH1 0x0 PUSH2 0x306A PUSH1 0x44 DUP4 PUSH2 0x3740 JUMP JUMPDEST SWAP2 POP PUSH2 0x3075 DUP3 PUSH2 0x3C82 JUMP JUMPDEST PUSH1 0x60 DUP3 ADD SWAP1 POP SWAP2 SWAP1 POP JUMP JUMPDEST PUSH1 0x0 PUSH2 0x308D PUSH1 0x1F DUP4 PUSH2 0x3740 JUMP JUMPDEST SWAP2 POP PUSH2 0x3098 DUP3 PUSH2 0x3CF7 JUMP JUMPDEST PUSH1 0x20 DUP3 ADD SWAP1 POP SWAP2 SWAP1 POP JUMP JUMPDEST PUSH1 0x40 DUP3 ADD PUSH1 0x0 DUP3 ADD MLOAD PUSH2 0x30B9 PUSH1 0x0 DUP6 ADD DUP3 PUSH2 0x2CF3 JUMP JUMPDEST POP PUSH1 0x20 DUP3 ADD MLOAD PUSH2 0x30CC PUSH1 0x20 DUP6 ADD DUP3 PUSH2 0x3261 JUMP JUMPDEST POP POP POP POP JUMP JUMPDEST PUSH1 0x40 DUP3 ADD PUSH1 0x0 DUP3 ADD MLOAD PUSH2 0x30E8 PUSH1 0x0 DUP6 ADD DUP3 PUSH2 0x2CF3 JUMP JUMPDEST POP PUSH1 0x20 DUP3 ADD MLOAD PUSH2 0x30FB PUSH1 0x20 DUP6 ADD DUP3 PUSH2 0x3261 JUMP JUMPDEST POP POP POP POP JUMP JUMPDEST PUSH1 0x0 PUSH2 0x100 DUP4 ADD PUSH1 0x0 DUP4 ADD MLOAD PUSH2 0x311A PUSH1 0x0 DUP7 ADD DUP3 PUSH2 0x3261 JUMP JUMPDEST POP PUSH1 0x20 DUP4 ADD MLOAD PUSH2 0x312D PUSH1 0x20 DUP7 ADD DUP3 PUSH2 0x2CF3 JUMP JUMPDEST POP PUSH1 0x40 DUP4 ADD MLOAD PUSH2 0x3140 PUSH1 0x40 DUP7 ADD DUP3 PUSH2 0x2CF3 JUMP JUMPDEST POP PUSH1 0x60 DUP4 ADD MLOAD PUSH2 0x3153 PUSH1 0x60 DUP7 ADD DUP3 PUSH2 0x3261 JUMP JUMPDEST POP PUSH1 0x80 DUP4 ADD MLOAD PUSH2 0x3166 PUSH1 0x80 DUP7 ADD DUP3 PUSH2 0x3261 JUMP JUMPDEST POP PUSH1 0xA0 DUP4 ADD MLOAD PUSH2 0x3179 PUSH1 0xA0 DUP7 ADD DUP3 PUSH2 0x3261 JUMP JUMPDEST POP PUSH1 0xC0 DUP4 ADD MLOAD PUSH2 0x318C PUSH1 0xC0 DUP7 ADD DUP3 PUSH2 0x3261 JUMP JUMPDEST POP PUSH1 0xE0 DUP4 ADD MLOAD DUP5 DUP3 SUB PUSH1 0xE0 DUP7 ADD MSTORE PUSH2 0x31A4 DUP3 DUP3 PUSH2 0x2E24 JUMP JUMPDEST SWAP2 POP POP DUP1 SWAP2 POP POP SWAP3 SWAP2 POP POP JUMP JUMPDEST PUSH1 0x0 PUSH2 0x100 DUP4 ADD PUSH1 0x0 DUP4 ADD MLOAD PUSH2 0x31CA PUSH1 0x0 DUP7 ADD DUP3 PUSH2 0x3261 JUMP JUMPDEST POP PUSH1 0x20 DUP4 ADD MLOAD PUSH2 0x31DD PUSH1 0x20 DUP7 ADD DUP3 PUSH2 0x2CF3 JUMP JUMPDEST POP PUSH1 0x40 DUP4 ADD MLOAD PUSH2 0x31F0 PUSH1 0x40 DUP7 ADD DUP3 PUSH2 0x2CF3 JUMP JUMPDEST POP PUSH1 0x60 DUP4 ADD MLOAD PUSH2 0x3203 PUSH1 0x60 DUP7 ADD DUP3 PUSH2 0x3261 JUMP JUMPDEST POP PUSH1 0x80 DUP4 ADD MLOAD PUSH2 0x3216 PUSH1 0x80 DUP7 ADD DUP3 PUSH2 0x3261 JUMP JUMPDEST POP PUSH1 0xA0 DUP4 ADD MLOAD PUSH2 0x3229 PUSH1 0xA0 DUP7 ADD DUP3 PUSH2 0x3261 JUMP JUMPDEST POP PUSH1 0xC0 DUP4 ADD MLOAD PUSH2 0x323C PUSH1 0xC0 DUP7 ADD DUP3 PUSH2 0x3261 JUMP JUMPDEST POP PUSH1 0xE0 DUP4 ADD MLOAD DUP5 DUP3 SUB PUSH1 0xE0 DUP7 ADD MSTORE PUSH2 0x3254 DUP3 DUP3 PUSH2 0x2E24 JUMP JUMPDEST SWAP2 POP POP DUP1 SWAP2 POP POP SWAP3 SWAP2 POP POP JUMP JUMPDEST PUSH2 0x326A DUP2 PUSH2 0x3819 JUMP JUMPDEST DUP3 MSTORE POP POP JUMP JUMPDEST PUSH2 0x3279 DUP2 PUSH2 0x3819 JUMP JUMPDEST DUP3 MSTORE POP POP JUMP JUMPDEST PUSH1 0x0 PUSH2 0x328B DUP3 DUP5 PUSH2 0x2DF3 JUMP JUMPDEST SWAP2 POP DUP2 SWAP1 POP SWAP3 SWAP2 POP POP JUMP JUMPDEST PUSH1 0x0 PUSH1 0x20 DUP3 ADD SWAP1 POP PUSH2 0x32AB PUSH1 0x0 DUP4 ADD DUP5 PUSH2 0x2D02 JUMP JUMPDEST SWAP3 SWAP2 POP POP JUMP JUMPDEST PUSH1 0x0 PUSH1 0x60 DUP3 ADD SWAP1 POP PUSH2 0x32C6 PUSH1 0x0 DUP4 ADD DUP7 PUSH2 0x2D02 JUMP JUMPDEST PUSH2 0x32D3 PUSH1 0x20 DUP4 ADD DUP6 PUSH2 0x2D02 JUMP JUMPDEST PUSH2 0x32E0 PUSH1 0x40 DUP4 ADD DUP5 PUSH2 0x3270 JUMP JUMPDEST SWAP5 SWAP4 POP POP POP POP JUMP JUMPDEST PUSH1 0x0 PUSH1 0x80 DUP3 ADD SWAP1 POP PUSH2 0x32FD PUSH1 0x0 DUP4 ADD DUP8 PUSH2 0x2D02 JUMP JUMPDEST PUSH2 0x330A PUSH1 0x20 DUP4 ADD DUP7 PUSH2 0x2D02 JUMP JUMPDEST PUSH2 0x3317 PUSH1 0x40 DUP4 ADD DUP6 PUSH2 0x3270 JUMP JUMPDEST PUSH2 0x3324 PUSH1 0x60 DUP4 ADD DUP5 PUSH2 0x3270 JUMP JUMPDEST SWAP6 SWAP5 POP POP POP POP POP JUMP JUMPDEST PUSH1 0x0 PUSH1 0x40 DUP3 ADD SWAP1 POP PUSH2 0x3342 PUSH1 0x0 DUP4 ADD DUP6 PUSH2 0x2D02 JUMP JUMPDEST PUSH2 0x334F PUSH1 0x20 DUP4 ADD DUP5 PUSH2 0x3270 JUMP JUMPDEST SWAP4 SWAP3 POP POP POP JUMP JUMPDEST PUSH1 0x0 PUSH1 0x20 DUP3 ADD SWAP1 POP DUP2 DUP2 SUB PUSH1 0x0 DUP4 ADD MSTORE PUSH2 0x3370 DUP2 DUP5 PUSH2 0x2D11 JUMP JUMPDEST SWAP1 POP SWAP3 SWAP2 POP POP JUMP JUMPDEST PUSH1 0x0 PUSH1 0x20 DUP3 ADD SWAP1 POP DUP2 DUP2 SUB PUSH1 0x0 DUP4 ADD MSTORE PUSH2 0x3392 DUP2 DUP5 PUSH2 0x2D6F JUMP JUMPDEST SWAP1 POP SWAP3 SWAP2 POP POP JUMP JUMPDEST PUSH1 0x0 PUSH1 0x20 DUP3 ADD SWAP1 POP PUSH2 0x33AF PUSH1 0x0 DUP4 ADD DUP5 PUSH2 0x2DE4 JUMP JUMPDEST SWAP3 SWAP2 POP POP JUMP JUMPDEST PUSH1 0x0 PUSH1 0x20 DUP3 ADD SWAP1 POP DUP2 DUP2 SUB PUSH1 0x0 DUP4 ADD MSTORE PUSH2 0x33CF DUP2 DUP5 PUSH2 0x2E5D JUMP JUMPDEST SWAP1 POP SWAP3 SWAP2 POP POP JUMP JUMPDEST PUSH1 0x0 PUSH1 0x20 DUP3 ADD SWAP1 POP DUP2 DUP2 SUB PUSH1 0x0 DUP4 ADD MSTORE PUSH2 0x33F0 DUP2 PUSH2 0x2E96 JUMP JUMPDEST SWAP1 POP SWAP2 SWAP1 POP JUMP JUMPDEST PUSH1 0x0 PUSH1 0x20 DUP3 ADD SWAP1 POP DUP2 DUP2 SUB PUSH1 0x0 DUP4 ADD MSTORE PUSH2 0x3410 DUP2 PUSH2 0x2EB9 JUMP JUMPDEST SWAP1 POP SWAP2 SWAP1 POP JUMP JUMPDEST PUSH1 0x0 PUSH1 0x20 DUP3 ADD SWAP1 POP DUP2 DUP2 SUB PUSH1 0x0 DUP4 ADD MSTORE PUSH2 0x3430 DUP2 PUSH2 0x2EDC JUMP JUMPDEST SWAP1 POP SWAP2 SWAP1 POP JUMP JUMPDEST PUSH1 0x0 PUSH1 0x20 DUP3 ADD SWAP1 POP DUP2 DUP2 SUB PUSH1 0x0 DUP4 ADD MSTORE PUSH2 0x3450 DUP2 PUSH2 0x2EFF JUMP JUMPDEST SWAP1 POP SWAP2 SWAP1 POP JUMP JUMPDEST PUSH1 0x0 PUSH1 0x20 DUP3 ADD SWAP1 POP DUP2 DUP2 SUB PUSH1 0x0 DUP4 ADD MSTORE PUSH2 0x3470 DUP2 PUSH2 0x2F22 JUMP JUMPDEST SWAP1 POP SWAP2 SWAP1 POP JUMP JUMPDEST PUSH1 0x0 PUSH1 0x20 DUP3 ADD SWAP1 POP DUP2 DUP2 SUB PUSH1 0x0 DUP4 ADD MSTORE PUSH2 0x3490 DUP2 PUSH2 0x2F45 JUMP JUMPDEST SWAP1 POP SWAP2 SWAP1 POP JUMP JUMPDEST PUSH1 0x0 PUSH1 0x20 DUP3 ADD SWAP1 POP DUP2 DUP2 SUB PUSH1 0x0 DUP4 ADD MSTORE PUSH2 0x34B0 DUP2 PUSH2 0x2F68 JUMP JUMPDEST SWAP1 POP SWAP2 SWAP1 POP JUMP JUMPDEST PUSH1 0x0 PUSH1 0x20 DUP3 ADD SWAP1 POP DUP2 DUP2 SUB PUSH1 0x0 DUP4 ADD MSTORE PUSH2 0x34D0 DUP2 PUSH2 0x2F8B JUMP JUMPDEST SWAP1 POP SWAP2 SWAP1 POP JUMP JUMPDEST PUSH1 0x0 PUSH1 0x20 DUP3 ADD SWAP1 POP DUP2 DUP2 SUB PUSH1 0x0 DUP4 ADD MSTORE PUSH2 0x34F0 DUP2 PUSH2 0x2FAE JUMP JUMPDEST SWAP1 POP SWAP2 SWAP1 POP JUMP JUMPDEST PUSH1 0x0 PUSH1 0x20 DUP3 ADD SWAP1 POP DUP2 DUP2 SUB PUSH1 0x0 DUP4 ADD MSTORE PUSH2 0x3510 DUP2 PUSH2 0x2FD1 JUMP JUMPDEST SWAP1 POP SWAP2 SWAP1 POP JUMP JUMPDEST PUSH1 0x0 PUSH1 0x20 DUP3 ADD SWAP1 POP DUP2 DUP2 SUB PUSH1 0x0 DUP4 ADD MSTORE PUSH2 0x3530 DUP2 PUSH2 0x2FF4 JUMP JUMPDEST SWAP1 POP SWAP2 SWAP1 POP JUMP JUMPDEST PUSH1 0x0 PUSH1 0x20 DUP3 ADD SWAP1 POP DUP2 DUP2 SUB PUSH1 0x0 DUP4 ADD MSTORE PUSH2 0x3550 DUP2 PUSH2 0x3017 JUMP JUMPDEST SWAP1 POP SWAP2 SWAP1 POP JUMP JUMPDEST PUSH1 0x0 PUSH1 0x20 DUP3 ADD SWAP1 POP DUP2 DUP2 SUB PUSH1 0x0 DUP4 ADD MSTORE PUSH2 0x3570 DUP2 PUSH2 0x303A JUMP JUMPDEST SWAP1 POP SWAP2 SWAP1 POP JUMP JUMPDEST PUSH1 0x0 PUSH1 0x20 DUP3 ADD SWAP1 POP DUP2 DUP2 SUB PUSH1 0x0 DUP4 ADD MSTORE PUSH2 0x3590 DUP2 PUSH2 0x305D JUMP JUMPDEST SWAP1 POP SWAP2 SWAP1 POP JUMP JUMPDEST PUSH1 0x0 PUSH1 0x20 DUP3 ADD SWAP1 POP DUP2 DUP2 SUB PUSH1 0x0 DUP4 ADD MSTORE PUSH2 0x35B0 DUP2 PUSH2 0x3080 JUMP JUMPDEST SWAP1 POP SWAP2 SWAP1 POP JUMP JUMPDEST PUSH1 0x0 PUSH1 0x40 DUP3 ADD SWAP1 POP PUSH2 0x35CC PUSH1 0x0 DUP4 ADD DUP5 PUSH2 0x30D2 JUMP JUMPDEST SWAP3 SWAP2 POP POP JUMP JUMPDEST PUSH1 0x0 PUSH1 0x20 DUP3 ADD SWAP1 POP DUP2 DUP2 SUB PUSH1 0x0 DUP4 ADD MSTORE PUSH2 0x35EC DUP2 DUP5 PUSH2 0x31B1 JUMP JUMPDEST SWAP1 POP SWAP3 SWAP2 POP POP JUMP JUMPDEST PUSH1 0x0 PUSH1 0x20 DUP3 ADD SWAP1 POP PUSH2 0x3609 PUSH1 0x0 DUP4 ADD DUP5 PUSH2 0x3270 JUMP JUMPDEST SWAP3 SWAP2 POP POP JUMP JUMPDEST PUSH1 0x0 PUSH1 0x60 DUP3 ADD SWAP1 POP PUSH2 0x3624 PUSH1 0x0 DUP4 ADD DUP7 PUSH2 0x3270 JUMP JUMPDEST PUSH2 0x3631 PUSH1 0x20 DUP4 ADD DUP6 PUSH2 0x2D02 JUMP JUMPDEST PUSH2 0x363E PUSH1 0x40 DUP4 ADD DUP5 PUSH2 0x2D02 JUMP JUMPDEST SWAP5 SWAP4 POP POP POP POP JUMP JUMPDEST PUSH1 0x0 PUSH2 0x3650 PUSH2 0x3661 JUMP JUMPDEST SWAP1 POP PUSH2 0x365C DUP3 DUP3 PUSH2 0x3897 JUMP JUMPDEST SWAP2 SWAP1 POP JUMP JUMPDEST PUSH1 0x0 PUSH1 0x40 MLOAD SWAP1 POP SWAP1 JUMP JUMPDEST PUSH1 0x0 PUSH8 0xFFFFFFFFFFFFFFFF DUP3 GT ISZERO PUSH2 0x3686 JUMPI PUSH2 0x3685 PUSH2 0x396F JUMP JUMPDEST JUMPDEST PUSH2 0x368F DUP3 PUSH2 0x399E JUMP JUMPDEST SWAP1 POP PUSH1 0x20 DUP2 ADD SWAP1 POP SWAP2 SWAP1 POP JUMP JUMPDEST PUSH1 0x0 DUP2 SWAP1 POP PUSH1 0x20 DUP3 ADD SWAP1 POP SWAP2 SWAP1 POP JUMP JUMPDEST PUSH1 0x0 DUP2 SWAP1 POP PUSH1 0x20 DUP3 ADD SWAP1 POP SWAP2 SWAP1 POP JUMP JUMPDEST PUSH1 0x0 DUP2 MLOAD SWAP1 POP SWAP2 SWAP1 POP JUMP JUMPDEST PUSH1 0x0 DUP2 MLOAD SWAP1 POP SWAP2 SWAP1 POP JUMP JUMPDEST PUSH1 0x0 DUP2 MLOAD SWAP1 POP SWAP2 SWAP1 POP JUMP JUMPDEST PUSH1 0x0 DUP2 MLOAD SWAP1 POP SWAP2 SWAP1 POP JUMP JUMPDEST PUSH1 0x0 PUSH1 0x20 DUP3 ADD SWAP1 POP SWAP2 SWAP1 POP JUMP JUMPDEST PUSH1 0x0 PUSH1 0x20 DUP3 ADD SWAP1 POP SWAP2 SWAP1 POP JUMP JUMPDEST PUSH1 0x0 DUP3 DUP3 MSTORE PUSH1 0x20 DUP3 ADD SWAP1 POP SWAP3 SWAP2 POP POP JUMP JUMPDEST PUSH1 0x0 DUP3 DUP3 MSTORE PUSH1 0x20 DUP3 ADD SWAP1 POP SWAP3 SWAP2 POP POP JUMP JUMPDEST PUSH1 0x0 DUP2 SWAP1 POP SWAP3 SWAP2 POP POP JUMP JUMPDEST PUSH1 0x0 DUP3 DUP3 MSTORE PUSH1 0x20 DUP3 ADD SWAP1 POP SWAP3 SWAP2 POP POP JUMP JUMPDEST PUSH1 0x0 DUP3 DUP3 MSTORE PUSH1 0x20 DUP3 ADD SWAP1 POP SWAP3 SWAP2 POP POP JUMP JUMPDEST PUSH1 0x0 PUSH2 0x375C DUP3 PUSH2 0x3819 JUMP JUMPDEST SWAP2 POP PUSH2 0x3767 DUP4 PUSH2 0x3819 JUMP JUMPDEST SWAP3 POP DUP3 PUSH32 0xFFFFFFFFFFFFFFFFFFFFFFFFFFFFFFFFFFFFFFFFFFFFFFFFFFFFFFFFFFFFFFFF SUB DUP3 GT ISZERO PUSH2 0x379C JUMPI PUSH2 0x379B PUSH2 0x3911 JUMP JUMPDEST JUMPDEST DUP3 DUP3 ADD SWAP1 POP SWAP3 SWAP2 POP POP JUMP JUMPDEST PUSH1 0x0 PUSH2 0x37B2 DUP3 PUSH2 0x3819 JUMP JUMPDEST SWAP2 POP PUSH2 0x37BD DUP4 PUSH2 0x3819 JUMP JUMPDEST SWAP3 POP DUP3 DUP3 LT ISZERO PUSH2 0x37D0 JUMPI PUSH2 0x37CF PUSH2 0x3911 JUMP JUMPDEST JUMPDEST DUP3 DUP3 SUB SWAP1 POP SWAP3 SWAP2 POP POP JUMP JUMPDEST PUSH1 0x0 PUSH2 0x37E6 DUP3 PUSH2 0x37F9 JUMP JUMPDEST SWAP1 POP SWAP2 SWAP1 POP JUMP JUMPDEST PUSH1 0x0 DUP2 ISZERO ISZERO SWAP1 POP SWAP2 SWAP1 POP JUMP JUMPDEST PUSH1 0x0 PUSH20 0xFFFFFFFFFFFFFFFFFFFFFFFFFFFFFFFFFFFFFFFF DUP3 AND SWAP1 POP SWAP2 SWAP1 POP JUMP JUMPDEST PUSH1 0x0 DUP2 SWAP1 POP SWAP2 SWAP1 POP JUMP JUMPDEST DUP3 DUP2 DUP4 CALLDATACOPY PUSH1 0x0 DUP4 DUP4 ADD MSTORE POP POP POP JUMP JUMPDEST PUSH1 0x0 JUMPDEST DUP4 DUP2 LT ISZERO PUSH2 0x3850 JUMPI DUP1 DUP3 ADD MLOAD DUP2 DUP5 ADD MSTORE PUSH1 0x20 DUP2 ADD SWAP1 POP PUSH2 0x3835 JUMP JUMPDEST DUP4 DUP2 GT ISZERO PUSH2 0x385F JUMPI PUSH1 0x0 DUP5 DUP5 ADD MSTORE JUMPDEST POP POP POP POP JUMP JUMPDEST PUSH1 0x0 PUSH1 0x2 DUP3 DIV SWAP1 POP PUSH1 0x1 DUP3 AND DUP1 PUSH2 0x387D JUMPI PUSH1 0x7F DUP3 AND SWAP2 POP JUMPDEST PUSH1 0x20 DUP3 LT DUP2 EQ ISZERO PUSH2 0x3891 JUMPI PUSH2 0x3890 PUSH2 0x3940 JUMP JUMPDEST JUMPDEST POP SWAP2 SWAP1 POP JUMP JUMPDEST PUSH2 0x38A0 DUP3 PUSH2 0x399E JUMP JUMPDEST DUP2 ADD DUP2 DUP2 LT PUSH8 0xFFFFFFFFFFFFFFFF DUP3 GT OR ISZERO PUSH2 0x38BF JUMPI PUSH2 0x38BE PUSH2 0x396F JUMP JUMPDEST JUMPDEST DUP1 PUSH1 0x40 MSTORE POP POP POP JUMP JUMPDEST PUSH1 0x0 PUSH2 0x38D3 DUP3 PUSH2 0x3819 JUMP JUMPDEST SWAP2 POP PUSH32 0xFFFFFFFFFFFFFFFFFFFFFFFFFFFFFFFFFFFFFFFFFFFFFFFFFFFFFFFFFFFFFFFF DUP3 EQ ISZERO PUSH2 0x3906 JUMPI PUSH2 0x3905 PUSH2 0x3911 JUMP JUMPDEST JUMPDEST PUSH1 0x1 DUP3 ADD SWAP1 POP SWAP2 SWAP1 POP JUMP JUMPDEST PUSH32 0x4E487B7100000000000000000000000000000000000000000000000000000000 PUSH1 0x0 MSTORE PUSH1 0x11 PUSH1 0x4 MSTORE PUSH1 0x24 PUSH1 0x0 REVERT JUMPDEST PUSH32 0x4E487B7100000000000000000000000000000000000000000000000000000000 PUSH1 0x0 MSTORE PUSH1 0x22 PUSH1 0x4 MSTORE PUSH1 0x24 PUSH1 0x0 REVERT JUMPDEST PUSH32 0x4E487B7100000000000000000000000000000000000000000000000000000000 PUSH1 0x0 MSTORE PUSH1 0x41 PUSH1 0x4 MSTORE PUSH1 0x24 PUSH1 0x0 REVERT JUMPDEST PUSH1 0x0 PUSH1 0x1F NOT PUSH1 0x1F DUP4 ADD AND SWAP1 POP SWAP2 SWAP1 POP JUMP JUMPDEST PUSH32 0x4C6F636B2077617320756E6C6F636B6564000000000000000000000000000000 PUSH1 0x0 DUP3 ADD MSTORE POP JUMP JUMPDEST PUSH32 0x556E6C6F636B20646174652073686F756C6420626520696E2074686520667574 PUSH1 0x0 DUP3 ADD MSTORE PUSH32 0x7572650000000000000000000000000000000000000000000000000000000000 PUSH1 0x20 DUP3 ADD MSTORE POP JUMP JUMPDEST PUSH32 0x496E76616C696420696E64657800000000000000000000000000000000000000 PUSH1 0x0 DUP3 ADD MSTORE POP JUMP JUMPDEST PUSH32 0x416464726573733A20696E73756666696369656E742062616C616E636520666F PUSH1 0x0 DUP3 ADD MSTORE PUSH32 0x722063616C6C0000000000000000000000000000000000000000000000000000 PUSH1 0x20 DUP3 ADD MSTORE POP JUMP JUMPDEST PUSH32 0x596F7520617265206E6F7420746865206F776E6572206F662074686973206C6F PUSH1 0x0 DUP3 ADD MSTORE PUSH32 0x636B000000000000000000000000000000000000000000000000000000000000 PUSH1 0x20 DUP3 ADD MSTORE POP JUMP JUMPDEST PUSH32 0x5061757361626C653A2070617573656400000000000000000000000000000000 PUSH1 0x0 DUP3 ADD MSTORE POP JUMP JUMPDEST PUSH32 0x496E76616C6964206C6F636B2069640000000000000000000000000000000000 PUSH1 0x0 DUP3 ADD MSTORE POP JUMP JUMPDEST PUSH32 0x416D6F756E742073686F756C642062652067726561746572207468616E203000 PUSH1 0x0 DUP3 ADD MSTORE POP JUMP JUMPDEST PUSH32 0x4E6F7468696E6720746F20756E6C6F636B000000000000000000000000000000 PUSH1 0x0 DUP3 ADD MSTORE POP JUMP JUMPDEST PUSH32 0x416464726573733A2063616C6C20746F206E6F6E2D636F6E7472616374000000 PUSH1 0x0 DUP3 ADD MSTORE POP JUMP JUMPDEST PUSH32 0x4E657720616D6F756E742073686F756C64206E6F74206265206C657373207468 PUSH1 0x0 DUP3 ADD MSTORE PUSH32 0x616E2063757272656E7420616D6F756E74000000000000000000000000000000 PUSH1 0x20 DUP3 ADD MSTORE POP JUMP JUMPDEST PUSH32 0x5361666545524332303A204552433230206F7065726174696F6E20646964206E PUSH1 0x0 DUP3 ADD MSTORE PUSH32 0x6F74207375636365656400000000000000000000000000000000000000000000 PUSH1 0x20 DUP3 ADD MSTORE POP JUMP JUMPDEST PUSH32 0x4974206973206E6F742074696D6520746F20756E6C6F636B0000000000000000 PUSH1 0x0 DUP3 ADD MSTORE POP JUMP JUMPDEST PUSH32 0x4E657720756E6C6F636B2074696D652073686F756C64206E6F74206265206265 PUSH1 0x0 DUP3 ADD MSTORE PUSH32 0x666F7265206F6C6420756E6C6F636B2074696D65206F722063757272656E7420 PUSH1 0x20 DUP3 ADD MSTORE PUSH32 0x74696D6500000000000000000000000000000000000000000000000000000000 PUSH1 0x40 DUP3 ADD MSTORE POP JUMP JUMPDEST PUSH32 0x4E6F7420656E6F75676820746F6B656E20776173207472616E73666572656400 PUSH1 0x0 DUP3 ADD MSTORE POP JUMP JUMPDEST PUSH2 0x3D29 DUP2 PUSH2 0x37DB JUMP JUMPDEST DUP2 EQ PUSH2 0x3D34 JUMPI PUSH1 0x0 DUP1 REVERT JUMPDEST POP JUMP JUMPDEST PUSH2 0x3D40 DUP2 PUSH2 0x37ED JUMP JUMPDEST DUP2 EQ PUSH2 0x3D4B JUMPI PUSH1 0x0 DUP1 REVERT JUMPDEST POP JUMP JUMPDEST PUSH2 0x3D57 DUP2 PUSH2 0x3819 JUMP JUMPDEST DUP2 EQ PUSH2 0x3D62 JUMPI PUSH1 0x0 DUP1 REVERT JUMPDEST POP JUMP INVALID LOG2 PUSH5 0x6970667358 0x22 SLT KECCAK256 0xE4 0xD2 0xE6 STATICCALL DUP7 PUSH18 0x955F9AB928068F2EF40F797815A3B60940D5 SWAP4 0xEC 0xBF 0xBD SSTORE 0x4C 0x2D 0xAC PUSH5 0x736F6C6343 STOP ADDMOD DIV STOP CALLER "
				},
				"gasEstimates": {
					"creation": {
						"codeDepositCost": "3154200",
						"executionCost": "24350",
						"totalCost": "3178550"
					},
					"external": {
						"allNormalTokenLockedCount()": "1333",
						"cumulativeLockInfo(address)": "infinite",
						"editLock(uint256,uint256,uint256)": "infinite",
						"editLockDescription(uint256,string)": "infinite",
						"getCumulativeNormalTokenLockInfo(uint256,uint256)": "infinite",
						"getCumulativeNormalTokenLockInfoAt(uint256)": "infinite",
						"getLockAt(uint256)": "infinite",
						"getLockById(uint256)": "infinite",
						"getLocksForToken(address,uint256,uint256)": "infinite",
						"getTotalLockCount()": "1255",
						"lock(address,address,uint256,uint256,string)": "infinite",
						"normalLockCountForUser(address)": "1735",
						"normalLockForUserAtIndex(address,uint256)": "infinite",
						"normalLocksForUser(address)": "infinite",
						"paused()": "1224",
						"renounceLockOwnership(uint256)": "infinite",
						"transferLockOwnership(uint256,address)": "infinite",
						"unlock(uint256)": "infinite"
					},
					"internal": {
						"_createLock(address,address,uint256,uint256,string memory)": "infinite",
						"_getActualIndex(uint256)": "infinite",
						"_lockNormalToken(address,address,uint256,uint256,string memory)": "infinite",
						"_normalUnlock(struct PinkLock02.Lock storage pointer)": "infinite",
						"_registerLock(address,address,uint256,uint256,string memory)": "infinite",
						"_safeTransferFromEnsureExactAmount(address,address,address,uint256)": "infinite"
					}
				},
				"methodIdentifiers": {
					"allNormalTokenLockedCount()": "475831c8",
					"cumulativeLockInfo(address)": "e1444fd6",
					"editLock(uint256,uint256,uint256)": "b3b9aa48",
					"editLockDescription(uint256,string)": "d3cac885",
					"getCumulativeNormalTokenLockInfo(uint256,uint256)": "76c12822",
					"getCumulativeNormalTokenLockInfoAt(uint256)": "7e6706d3",
					"getLockAt(uint256)": "0d4f581a",
					"getLockById(uint256)": "08f12470",
					"getLocksForToken(address,uint256,uint256)": "332f26d7",
					"getTotalLockCount()": "fd981c66",
					"lock(address,address,uint256,uint256,string)": "97b1d73a",
					"normalLockCountForUser(address)": "eb80bdae",
					"normalLockForUserAtIndex(address,uint256)": "618df7a3",
					"normalLocksForUser(address)": "da1d8cff",
					"paused()": "5c975abb",
					"renounceLockOwnership(uint256)": "a57e3141",
					"transferLockOwnership(uint256,address)": "5a04fb69",
					"unlock(uint256)": "6198e339"
				}
			},
			"storageLayout": {
				"storage": [
					{
						"astId": 66,
						"contract": "pinkLockV2(NormalLock).sol:PinkLock02",
						"label": "_paused",
						"offset": 0,
						"slot": "0",
						"type": "t_bool"
					},
					{
						"astId": 1526,
						"contract": "pinkLockV2(NormalLock).sol:PinkLock02",
						"label": "_locks",
						"offset": 0,
						"slot": "1",
						"type": "t_array(t_struct(Lock)1517_storage)dyn_storage"
					},
					{
						"astId": 1531,
						"contract": "pinkLockV2(NormalLock).sol:PinkLock02",
						"label": "_userNormalLockIds",
						"offset": 0,
						"slot": "2",
						"type": "t_mapping(t_address,t_struct(UintSet)637_storage)"
					},
					{
						"astId": 1534,
						"contract": "pinkLockV2(NormalLock).sol:PinkLock02",
						"label": "_normalLockedTokens",
						"offset": 0,
						"slot": "3",
						"type": "t_struct(AddressSet)480_storage"
					},
					{
						"astId": 1539,
						"contract": "pinkLockV2(NormalLock).sol:PinkLock02",
						"label": "cumulativeLockInfo",
						"offset": 0,
						"slot": "5",
						"type": "t_mapping(t_address,t_struct(CumulativeLockInfo)1522_storage)"
					},
					{
						"astId": 1544,
						"contract": "pinkLockV2(NormalLock).sol:PinkLock02",
						"label": "_tokenToLockIds",
						"offset": 0,
						"slot": "6",
						"type": "t_mapping(t_address,t_struct(UintSet)637_storage)"
					}
				],
				"types": {
					"t_address": {
						"encoding": "inplace",
						"label": "address",
						"numberOfBytes": "20"
					},
					"t_array(t_bytes32)dyn_storage": {
						"base": "t_bytes32",
						"encoding": "dynamic_array",
						"label": "bytes32[]",
						"numberOfBytes": "32"
					},
					"t_array(t_struct(Lock)1517_storage)dyn_storage": {
						"base": "t_struct(Lock)1517_storage",
						"encoding": "dynamic_array",
						"label": "struct PinkLock02.Lock[]",
						"numberOfBytes": "32"
					},
					"t_bool": {
						"encoding": "inplace",
						"label": "bool",
						"numberOfBytes": "1"
					},
					"t_bytes32": {
						"encoding": "inplace",
						"label": "bytes32",
						"numberOfBytes": "32"
					},
					"t_mapping(t_address,t_struct(CumulativeLockInfo)1522_storage)": {
						"encoding": "mapping",
						"key": "t_address",
						"label": "mapping(address => struct PinkLock02.CumulativeLockInfo)",
						"numberOfBytes": "32",
						"value": "t_struct(CumulativeLockInfo)1522_storage"
					},
					"t_mapping(t_address,t_struct(UintSet)637_storage)": {
						"encoding": "mapping",
						"key": "t_address",
						"label": "mapping(address => struct EnumerableSet.UintSet)",
						"numberOfBytes": "32",
						"value": "t_struct(UintSet)637_storage"
					},
					"t_mapping(t_bytes32,t_uint256)": {
						"encoding": "mapping",
						"key": "t_bytes32",
						"label": "mapping(bytes32 => uint256)",
						"numberOfBytes": "32",
						"value": "t_uint256"
					},
					"t_string_storage": {
						"encoding": "bytes",
						"label": "string",
						"numberOfBytes": "32"
					},
					"t_struct(AddressSet)480_storage": {
						"encoding": "inplace",
						"label": "struct EnumerableSet.AddressSet",
						"members": [
							{
								"astId": 479,
								"contract": "pinkLockV2(NormalLock).sol:PinkLock02",
								"label": "_inner",
								"offset": 0,
								"slot": "0",
								"type": "t_struct(Set)165_storage"
							}
						],
						"numberOfBytes": "64"
					},
					"t_struct(CumulativeLockInfo)1522_storage": {
						"encoding": "inplace",
						"label": "struct PinkLock02.CumulativeLockInfo",
						"members": [
							{
								"astId": 1519,
								"contract": "pinkLockV2(NormalLock).sol:PinkLock02",
								"label": "token",
								"offset": 0,
								"slot": "0",
								"type": "t_address"
							},
							{
								"astId": 1521,
								"contract": "pinkLockV2(NormalLock).sol:PinkLock02",
								"label": "amount",
								"offset": 0,
								"slot": "1",
								"type": "t_uint256"
							}
						],
						"numberOfBytes": "64"
					},
					"t_struct(Lock)1517_storage": {
						"encoding": "inplace",
						"label": "struct PinkLock02.Lock",
						"members": [
							{
								"astId": 1502,
								"contract": "pinkLockV2(NormalLock).sol:PinkLock02",
								"label": "id",
								"offset": 0,
								"slot": "0",
								"type": "t_uint256"
							},
							{
								"astId": 1504,
								"contract": "pinkLockV2(NormalLock).sol:PinkLock02",
								"label": "token",
								"offset": 0,
								"slot": "1",
								"type": "t_address"
							},
							{
								"astId": 1506,
								"contract": "pinkLockV2(NormalLock).sol:PinkLock02",
								"label": "owner",
								"offset": 0,
								"slot": "2",
								"type": "t_address"
							},
							{
								"astId": 1508,
								"contract": "pinkLockV2(NormalLock).sol:PinkLock02",
								"label": "amount",
								"offset": 0,
								"slot": "3",
								"type": "t_uint256"
							},
							{
								"astId": 1510,
								"contract": "pinkLockV2(NormalLock).sol:PinkLock02",
								"label": "lockDate",
								"offset": 0,
								"slot": "4",
								"type": "t_uint256"
							},
							{
								"astId": 1512,
								"contract": "pinkLockV2(NormalLock).sol:PinkLock02",
								"label": "unlockDate",
								"offset": 0,
								"slot": "5",
								"type": "t_uint256"
							},
							{
								"astId": 1514,
								"contract": "pinkLockV2(NormalLock).sol:PinkLock02",
								"label": "unlockedAmount",
								"offset": 0,
								"slot": "6",
								"type": "t_uint256"
							},
							{
								"astId": 1516,
								"contract": "pinkLockV2(NormalLock).sol:PinkLock02",
								"label": "description",
								"offset": 0,
								"slot": "7",
								"type": "t_string_storage"
							}
						],
						"numberOfBytes": "256"
					},
					"t_struct(Set)165_storage": {
						"encoding": "inplace",
						"label": "struct EnumerableSet.Set",
						"members": [
							{
								"astId": 160,
								"contract": "pinkLockV2(NormalLock).sol:PinkLock02",
								"label": "_values",
								"offset": 0,
								"slot": "0",
								"type": "t_array(t_bytes32)dyn_storage"
							},
							{
								"astId": 164,
								"contract": "pinkLockV2(NormalLock).sol:PinkLock02",
								"label": "_indexes",
								"offset": 0,
								"slot": "1",
								"type": "t_mapping(t_bytes32,t_uint256)"
							}
						],
						"numberOfBytes": "64"
					},
					"t_struct(UintSet)637_storage": {
						"encoding": "inplace",
						"label": "struct EnumerableSet.UintSet",
						"members": [
							{
								"astId": 636,
								"contract": "pinkLockV2(NormalLock).sol:PinkLock02",
								"label": "_inner",
								"offset": 0,
								"slot": "0",
								"type": "t_struct(Set)165_storage"
							}
						],
						"numberOfBytes": "64"
					},
					"t_uint256": {
						"encoding": "inplace",
						"label": "uint256",
						"numberOfBytes": "32"
					}
				}
			},
			"userdoc": {
				"kind": "user",
				"methods": {},
				"version": 1
			}
		}
	}
}