{
	"pinkLockV2(NormalLock).sol": {
		"PinkLock_NormalLock": {
			"abi": [
				{
					"anonymous": false,
					"inputs": [
						{
							"indexed": true,
							"internalType": "uint256",
							"name": "id",
							"type": "uint256"
						},
						{
							"indexed": false,
							"internalType": "address",
							"name": "token",
							"type": "address"
						},
						{
							"indexed": false,
							"internalType": "address",
							"name": "owner",
							"type": "address"
						},
						{
							"indexed": false,
							"internalType": "uint256",
							"name": "amount",
							"type": "uint256"
						},
						{
							"indexed": false,
							"internalType": "uint256",
							"name": "unlockDate",
							"type": "uint256"
						}
					],
					"name": "LockAdded",
					"type": "event"
				},
				{
					"anonymous": false,
					"inputs": [
						{
							"indexed": false,
							"internalType": "uint256",
							"name": "lockId",
							"type": "uint256"
						}
					],
					"name": "LockDescriptionChanged",
					"type": "event"
				},
				{
					"anonymous": false,
					"inputs": [
						{
							"indexed": false,
							"internalType": "uint256",
							"name": "lockId",
							"type": "uint256"
						},
						{
							"indexed": false,
							"internalType": "address",
							"name": "owner",
							"type": "address"
						},
						{
							"indexed": false,
							"internalType": "address",
							"name": "newOwner",
							"type": "address"
						}
					],
					"name": "LockOwnerChanged",
					"type": "event"
				},
				{
					"anonymous": false,
					"inputs": [
						{
							"indexed": true,
							"internalType": "uint256",
							"name": "id",
							"type": "uint256"
						},
						{
							"indexed": false,
							"internalType": "address",
							"name": "token",
							"type": "address"
						},
						{
							"indexed": false,
							"internalType": "address",
							"name": "owner",
							"type": "address"
						},
						{
							"indexed": false,
							"internalType": "uint256",
							"name": "amount",
							"type": "uint256"
						},
						{
							"indexed": false,
							"internalType": "uint256",
							"name": "unlockedAt",
							"type": "uint256"
						}
					],
					"name": "LockRemoved",
					"type": "event"
				},
				{
					"anonymous": false,
					"inputs": [
						{
							"indexed": true,
							"internalType": "uint256",
							"name": "id",
							"type": "uint256"
						},
						{
							"indexed": false,
							"internalType": "address",
							"name": "token",
							"type": "address"
						},
						{
							"indexed": false,
							"internalType": "address",
							"name": "owner",
							"type": "address"
						},
						{
							"indexed": false,
							"internalType": "uint256",
							"name": "newAmount",
							"type": "uint256"
						},
						{
							"indexed": false,
							"internalType": "uint256",
							"name": "newUnlockDate",
							"type": "uint256"
						}
					],
					"name": "LockUpdated",
					"type": "event"
				},
				{
					"anonymous": false,
					"inputs": [
						{
							"indexed": false,
							"internalType": "address",
							"name": "account",
							"type": "address"
						}
					],
					"name": "Paused",
					"type": "event"
				},
				{
					"anonymous": false,
					"inputs": [
						{
							"indexed": false,
							"internalType": "address",
							"name": "account",
							"type": "address"
						}
					],
					"name": "Unpaused",
					"type": "event"
				},
				{
					"inputs": [],
					"name": "allNormalTokenLockedCount",
					"outputs": [
						{
							"internalType": "uint256",
							"name": "",
							"type": "uint256"
						}
					],
					"stateMutability": "view",
					"type": "function"
				},
				{
					"inputs": [
						{
							"internalType": "address",
							"name": "",
							"type": "address"
						}
					],
					"name": "cumulativeLockInfo",
					"outputs": [
						{
							"internalType": "address",
							"name": "token",
							"type": "address"
						},
						{
							"internalType": "uint256",
							"name": "amount",
							"type": "uint256"
						}
					],
					"stateMutability": "view",
					"type": "function"
				},
				{
					"inputs": [
						{
							"internalType": "uint256",
							"name": "lockId",
							"type": "uint256"
						},
						{
							"internalType": "uint256",
							"name": "newAmount",
							"type": "uint256"
						},
						{
							"internalType": "uint256",
							"name": "newUnlockDate",
							"type": "uint256"
						}
					],
					"name": "editLock",
					"outputs": [],
					"stateMutability": "nonpayable",
					"type": "function"
				},
				{
					"inputs": [
						{
							"internalType": "uint256",
							"name": "lockId",
							"type": "uint256"
						},
						{
							"internalType": "string",
							"name": "description",
							"type": "string"
						}
					],
					"name": "editLockDescription",
					"outputs": [],
					"stateMutability": "nonpayable",
					"type": "function"
				},
				{
					"inputs": [
						{
							"internalType": "uint256",
							"name": "start",
							"type": "uint256"
						},
						{
							"internalType": "uint256",
							"name": "end",
							"type": "uint256"
						}
					],
					"name": "getCumulativeNormalTokenLockInfo",
					"outputs": [
						{
							"components": [
								{
									"internalType": "address",
									"name": "token",
									"type": "address"
								},
								{
									"internalType": "uint256",
									"name": "amount",
									"type": "uint256"
								}
							],
							"internalType": "struct PinkLock_NormalLock.CumulativeLockInfo[]",
							"name": "",
							"type": "tuple[]"
						}
					],
					"stateMutability": "view",
					"type": "function"
				},
				{
					"inputs": [
						{
							"internalType": "uint256",
							"name": "index",
							"type": "uint256"
						}
					],
					"name": "getCumulativeNormalTokenLockInfoAt",
					"outputs": [
						{
							"components": [
								{
									"internalType": "address",
									"name": "token",
									"type": "address"
								},
								{
									"internalType": "uint256",
									"name": "amount",
									"type": "uint256"
								}
							],
							"internalType": "struct PinkLock_NormalLock.CumulativeLockInfo",
							"name": "",
							"type": "tuple"
						}
					],
					"stateMutability": "view",
					"type": "function"
				},
				{
					"inputs": [
						{
							"internalType": "uint256",
							"name": "index",
							"type": "uint256"
						}
					],
					"name": "getLockAt",
					"outputs": [
						{
							"components": [
								{
									"internalType": "uint256",
									"name": "id",
									"type": "uint256"
								},
								{
									"internalType": "address",
									"name": "token",
									"type": "address"
								},
								{
									"internalType": "address",
									"name": "owner",
									"type": "address"
								},
								{
									"internalType": "uint256",
									"name": "amount",
									"type": "uint256"
								},
								{
									"internalType": "uint256",
									"name": "lockDate",
									"type": "uint256"
								},
								{
									"internalType": "uint256",
									"name": "unlockDate",
									"type": "uint256"
								},
								{
									"internalType": "uint256",
									"name": "unlockedAmount",
									"type": "uint256"
								},
								{
									"internalType": "string",
									"name": "description",
									"type": "string"
								}
							],
							"internalType": "struct PinkLock_NormalLock.Lock",
							"name": "",
							"type": "tuple"
						}
					],
					"stateMutability": "view",
					"type": "function"
				},
				{
					"inputs": [
						{
							"internalType": "uint256",
							"name": "lockId",
							"type": "uint256"
						}
					],
					"name": "getLockById",
					"outputs": [
						{
							"components": [
								{
									"internalType": "uint256",
									"name": "id",
									"type": "uint256"
								},
								{
									"internalType": "address",
									"name": "token",
									"type": "address"
								},
								{
									"internalType": "address",
									"name": "owner",
									"type": "address"
								},
								{
									"internalType": "uint256",
									"name": "amount",
									"type": "uint256"
								},
								{
									"internalType": "uint256",
									"name": "lockDate",
									"type": "uint256"
								},
								{
									"internalType": "uint256",
									"name": "unlockDate",
									"type": "uint256"
								},
								{
									"internalType": "uint256",
									"name": "unlockedAmount",
									"type": "uint256"
								},
								{
									"internalType": "string",
									"name": "description",
									"type": "string"
								}
							],
							"internalType": "struct PinkLock_NormalLock.Lock",
							"name": "",
							"type": "tuple"
						}
					],
					"stateMutability": "view",
					"type": "function"
				},
				{
					"inputs": [
						{
							"internalType": "address",
							"name": "token",
							"type": "address"
						},
						{
							"internalType": "uint256",
							"name": "start",
							"type": "uint256"
						},
						{
							"internalType": "uint256",
							"name": "end",
							"type": "uint256"
						}
					],
					"name": "getLocksForToken",
					"outputs": [
						{
							"components": [
								{
									"internalType": "uint256",
									"name": "id",
									"type": "uint256"
								},
								{
									"internalType": "address",
									"name": "token",
									"type": "address"
								},
								{
									"internalType": "address",
									"name": "owner",
									"type": "address"
								},
								{
									"internalType": "uint256",
									"name": "amount",
									"type": "uint256"
								},
								{
									"internalType": "uint256",
									"name": "lockDate",
									"type": "uint256"
								},
								{
									"internalType": "uint256",
									"name": "unlockDate",
									"type": "uint256"
								},
								{
									"internalType": "uint256",
									"name": "unlockedAmount",
									"type": "uint256"
								},
								{
									"internalType": "string",
									"name": "description",
									"type": "string"
								}
							],
							"internalType": "struct PinkLock_NormalLock.Lock[]",
							"name": "",
							"type": "tuple[]"
						}
					],
					"stateMutability": "view",
					"type": "function"
				},
				{
					"inputs": [],
					"name": "getTotalLockCount",
					"outputs": [
						{
							"internalType": "uint256",
							"name": "",
							"type": "uint256"
						}
					],
					"stateMutability": "view",
					"type": "function"
				},
				{
					"inputs": [
						{
							"internalType": "address",
							"name": "owner",
							"type": "address"
						},
						{
							"internalType": "address",
							"name": "token",
							"type": "address"
						},
						{
							"internalType": "uint256",
							"name": "amount",
							"type": "uint256"
						},
						{
							"internalType": "uint256",
							"name": "unlockDate",
							"type": "uint256"
						},
						{
							"internalType": "string",
							"name": "description",
							"type": "string"
						}
					],
					"name": "lock",
					"outputs": [
						{
							"internalType": "uint256",
							"name": "id",
							"type": "uint256"
						}
					],
					"stateMutability": "nonpayable",
					"type": "function"
				},
				{
					"inputs": [
						{
							"internalType": "address",
							"name": "user",
							"type": "address"
						}
					],
					"name": "normalLockCountForUser",
					"outputs": [
						{
							"internalType": "uint256",
							"name": "",
							"type": "uint256"
						}
					],
					"stateMutability": "view",
					"type": "function"
				},
				{
					"inputs": [
						{
							"internalType": "address",
							"name": "user",
							"type": "address"
						},
						{
							"internalType": "uint256",
							"name": "index",
							"type": "uint256"
						}
					],
					"name": "normalLockForUserAtIndex",
					"outputs": [
						{
							"components": [
								{
									"internalType": "uint256",
									"name": "id",
									"type": "uint256"
								},
								{
									"internalType": "address",
									"name": "token",
									"type": "address"
								},
								{
									"internalType": "address",
									"name": "owner",
									"type": "address"
								},
								{
									"internalType": "uint256",
									"name": "amount",
									"type": "uint256"
								},
								{
									"internalType": "uint256",
									"name": "lockDate",
									"type": "uint256"
								},
								{
									"internalType": "uint256",
									"name": "unlockDate",
									"type": "uint256"
								},
								{
									"internalType": "uint256",
									"name": "unlockedAmount",
									"type": "uint256"
								},
								{
									"internalType": "string",
									"name": "description",
									"type": "string"
								}
							],
							"internalType": "struct PinkLock_NormalLock.Lock",
							"name": "",
							"type": "tuple"
						}
					],
					"stateMutability": "view",
					"type": "function"
				},
				{
					"inputs": [
						{
							"internalType": "address",
							"name": "user",
							"type": "address"
						}
					],
					"name": "normalLocksForUser",
					"outputs": [
						{
							"components": [
								{
									"internalType": "uint256",
									"name": "id",
									"type": "uint256"
								},
								{
									"internalType": "address",
									"name": "token",
									"type": "address"
								},
								{
									"internalType": "address",
									"name": "owner",
									"type": "address"
								},
								{
									"internalType": "uint256",
									"name": "amount",
									"type": "uint256"
								},
								{
									"internalType": "uint256",
									"name": "lockDate",
									"type": "uint256"
								},
								{
									"internalType": "uint256",
									"name": "unlockDate",
									"type": "uint256"
								},
								{
									"internalType": "uint256",
									"name": "unlockedAmount",
									"type": "uint256"
								},
								{
									"internalType": "string",
									"name": "description",
									"type": "string"
								}
							],
							"internalType": "struct PinkLock_NormalLock.Lock[]",
							"name": "",
							"type": "tuple[]"
						}
					],
					"stateMutability": "view",
					"type": "function"
				},
				{
					"inputs": [],
					"name": "paused",
					"outputs": [
						{
							"internalType": "bool",
							"name": "",
							"type": "bool"
						}
					],
					"stateMutability": "view",
					"type": "function"
				},
				{
					"inputs": [
						{
							"internalType": "uint256",
							"name": "lockId",
							"type": "uint256"
						}
					],
					"name": "renounceLockOwnership",
					"outputs": [],
					"stateMutability": "nonpayable",
					"type": "function"
				},
				{
					"inputs": [
						{
							"internalType": "uint256",
							"name": "lockId",
							"type": "uint256"
						},
						{
							"internalType": "address",
							"name": "newOwner",
							"type": "address"
						}
					],
					"name": "transferLockOwnership",
					"outputs": [],
					"stateMutability": "nonpayable",
					"type": "function"
				},
				{
					"inputs": [
						{
							"internalType": "uint256",
							"name": "lockId",
							"type": "uint256"
						}
					],
					"name": "unlock",
					"outputs": [],
					"stateMutability": "nonpayable",
					"type": "function"
				}
			],
			"devdoc": {
				"kind": "dev",
				"methods": {
					"paused()": {
						"details": "Returns true if the contract is paused, and false otherwise."
					}
				},
				"version": 1
			},
			"evm": {
				"assembly": "    /* \"pinkLockV2(NormalLock).sol\":36584:48896  contract PinkLock_NormalLock is IPinkLock, Pausable {\r... */\n  mstore(0x40, 0x80)\n  callvalue\n  dup1\n  iszero\n  tag_1\n  jumpi\n  0x00\n  dup1\n  revert\ntag_1:\n  pop\n    /* \"pinkLockV2(NormalLock).sol\":2399:2404  false */\n  0x00\n    /* \"pinkLockV2(NormalLock).sol\":2389:2396  _paused */\n  dup1\n  0x00\n    /* \"pinkLockV2(NormalLock).sol\":2389:2404  _paused = false */\n  0x0100\n  exp\n  dup2\n  sload\n  dup2\n  0xff\n  mul\n  not\n  and\n  swap1\n  dup4\n  iszero\n  iszero\n  mul\n  or\n  swap1\n  sstore\n  pop\n    /* \"pinkLockV2(NormalLock).sol\":36584:48896  contract PinkLock_NormalLock is IPinkLock, Pausable {\r... */\n  dataSize(sub_0)\n  dup1\n  dataOffset(sub_0)\n  0x00\n  codecopy\n  0x00\n  return\nstop\n\nsub_0: assembly {\n        /* \"pinkLockV2(NormalLock).sol\":36584:48896  contract PinkLock_NormalLock is IPinkLock, Pausable {\r... */\n      mstore(0x40, 0x80)\n      callvalue\n      dup1\n      iszero\n      tag_1\n      jumpi\n      0x00\n      dup1\n      revert\n    tag_1:\n      pop\n      jumpi(tag_2, lt(calldatasize, 0x04))\n      shr(0xe0, calldataload(0x00))\n      dup1\n      0x7e6706d3\n      gt\n      tag_21\n      jumpi\n      dup1\n      0xd3cac885\n      gt\n      tag_22\n      jumpi\n      dup1\n      0xd3cac885\n      eq\n      tag_16\n      jumpi\n      dup1\n      0xda1d8cff\n      eq\n      tag_17\n      jumpi\n      dup1\n      0xe1444fd6\n      eq\n      tag_18\n      jumpi\n      dup1\n      0xeb80bdae\n      eq\n      tag_19\n      jumpi\n      dup1\n      0xfd981c66\n      eq\n      tag_20\n      jumpi\n      jump(tag_2)\n    tag_22:\n      dup1\n      0x7e6706d3\n      eq\n      tag_12\n      jumpi\n      dup1\n      0x97b1d73a\n      eq\n      tag_13\n      jumpi\n      dup1\n      0xa57e3141\n      eq\n      tag_14\n      jumpi\n      dup1\n      0xb3b9aa48\n      eq\n      tag_15\n      jumpi\n      jump(tag_2)\n    tag_21:\n      dup1\n      0x5a04fb69\n      gt\n      tag_23\n      jumpi\n      dup1\n      0x5a04fb69\n      eq\n      tag_7\n      jumpi\n      dup1\n      0x5c975abb\n      eq\n      tag_8\n      jumpi\n      dup1\n      0x618df7a3\n      eq\n      tag_9\n      jumpi\n      dup1\n      0x6198e339\n      eq\n      tag_10\n      jumpi\n      dup1\n      0x76c12822\n      eq\n      tag_11\n      jumpi\n      jump(tag_2)\n    tag_23:\n      dup1\n      0x08f12470\n      eq\n      tag_3\n      jumpi\n      dup1\n      0x0d4f581a\n      eq\n      tag_4\n      jumpi\n      dup1\n      0x332f26d7\n      eq\n      tag_5\n      jumpi\n      dup1\n      0x475831c8\n      eq\n      tag_6\n      jumpi\n    tag_2:\n      0x00\n      dup1\n      revert\n        /* \"pinkLockV2(NormalLock).sol\":46027:46155  function getLockById(uint256 lockId) public view returns (Lock memory) {\r... */\n    tag_3:\n      tag_24\n      0x04\n      dup1\n      calldatasize\n      sub\n      dup2\n      add\n      swap1\n      tag_25\n      swap2\n      swap1\n      tag_26\n      jump\t// in\n    tag_25:\n      tag_27\n      jump\t// in\n    tag_24:\n      mload(0x40)\n      tag_28\n      swap2\n      swap1\n      tag_29\n      jump\t// in\n    tag_28:\n      mload(0x40)\n      dup1\n      swap2\n      sub\n      swap1\n      return\n        /* \"pinkLockV2(NormalLock).sol\":45910:46019  function getLockAt(uint256 index) external view returns (Lock memory) {\r... */\n    tag_4:\n      tag_30\n      0x04\n      dup1\n      calldatasize\n      sub\n      dup2\n      add\n      swap1\n      tag_31\n      swap2\n      swap1\n      tag_26\n      jump\t// in\n    tag_31:\n      tag_32\n      jump\t// in\n    tag_30:\n      mload(0x40)\n      tag_33\n      swap2\n      swap1\n      tag_29\n      jump\t// in\n    tag_33:\n      mload(0x40)\n      dup1\n      swap2\n      sub\n      swap1\n      return\n        /* \"pinkLockV2(NormalLock).sol\":48060:48649  function getLocksForToken(\r... */\n    tag_5:\n      tag_34\n      0x04\n      dup1\n      calldatasize\n      sub\n      dup2\n      add\n      swap1\n      tag_35\n      swap2\n      swap1\n      tag_36\n      jump\t// in\n    tag_35:\n      tag_37\n      jump\t// in\n    tag_34:\n      mload(0x40)\n      tag_38\n      swap2\n      swap1\n      tag_39\n      jump\t// in\n    tag_38:\n      mload(0x40)\n      dup1\n      swap2\n      sub\n      swap1\n      return\n        /* \"pinkLockV2(NormalLock).sol\":46163:46284  function allNormalTokenLockedCount() public view returns (uint256) {\r... */\n    tag_6:\n      tag_40\n      tag_41\n      jump\t// in\n    tag_40:\n      mload(0x40)\n      tag_42\n      swap2\n      swap1\n      tag_43\n      jump\t// in\n    tag_42:\n      mload(0x40)\n      dup1\n      swap2\n      sub\n      swap1\n      return\n        /* \"pinkLockV2(NormalLock).sol\":44210:44776  function transferLockOwnership(uint256 lockId, address newOwner)\r... */\n    tag_7:\n      tag_44\n      0x04\n      dup1\n      calldatasize\n      sub\n      dup2\n      add\n      swap1\n      tag_45\n      swap2\n      swap1\n      tag_46\n      jump\t// in\n    tag_45:\n      tag_47\n      jump\t// in\n    tag_44:\n      stop\n        /* \"pinkLockV2(NormalLock).sol\":3038:3124  function paused() public view virtual returns (bool) {\r... */\n    tag_8:\n      tag_48\n      tag_49\n      jump\t// in\n    tag_48:\n      mload(0x40)\n      tag_50\n      swap2\n      swap1\n      tag_51\n      jump\t// in\n    tag_50:\n      mload(0x40)\n      dup1\n      swap2\n      sub\n      swap1\n      return\n        /* \"pinkLockV2(NormalLock).sol\":47775:48052  function normalLockForUserAtIndex(address user, uint256 index)\r... */\n    tag_9:\n      tag_52\n      0x04\n      dup1\n      calldatasize\n      sub\n      dup2\n      add\n      swap1\n      tag_53\n      swap2\n      swap1\n      tag_54\n      jump\t// in\n    tag_53:\n      tag_55\n      jump\t// in\n    tag_52:\n      mload(0x40)\n      tag_56\n      swap2\n      swap1\n      tag_29\n      jump\t// in\n    tag_56:\n      mload(0x40)\n      dup1\n      swap2\n      sub\n      swap1\n      return\n        /* \"pinkLockV2(NormalLock).sol\":40675:40970  function unlock(uint256 lockId) external override validLock(lockId) {\r... */\n    tag_10:\n      tag_57\n      0x04\n      dup1\n      calldatasize\n      sub\n      dup2\n      add\n      swap1\n      tag_58\n      swap2\n      swap1\n      tag_26\n      jump\t// in\n    tag_58:\n      tag_59\n      jump\t// in\n    tag_57:\n      stop\n        /* \"pinkLockV2(NormalLock).sol\":46516:47187  function getCumulativeNormalTokenLockInfo(uint256 start, uint256 end)\r... */\n    tag_11:\n      tag_60\n      0x04\n      dup1\n      calldatasize\n      sub\n      dup2\n      add\n      swap1\n      tag_61\n      swap2\n      swap1\n      tag_62\n      jump\t// in\n    tag_61:\n      tag_63\n      jump\t// in\n    tag_60:\n      mload(0x40)\n      tag_64\n      swap2\n      swap1\n      tag_65\n      jump\t// in\n    tag_64:\n      mload(0x40)\n      dup1\n      swap2\n      sub\n      swap1\n      return\n        /* \"pinkLockV2(NormalLock).sol\":46292:46508  function getCumulativeNormalTokenLockInfoAt(uint256 index)\r... */\n    tag_12:\n      tag_66\n      0x04\n      dup1\n      calldatasize\n      sub\n      dup2\n      add\n      swap1\n      tag_67\n      swap2\n      swap1\n      tag_26\n      jump\t// in\n    tag_67:\n      tag_68\n      jump\t// in\n    tag_66:\n      mload(0x40)\n      tag_69\n      swap2\n      swap1\n      tag_70\n      jump\t// in\n    tag_69:\n      mload(0x40)\n      dup1\n      swap2\n      sub\n      swap1\n      return\n        /* \"pinkLockV2(NormalLock).sol\":38190:38968  function lock(\r... */\n    tag_13:\n      tag_71\n      0x04\n      dup1\n      calldatasize\n      sub\n      dup2\n      add\n      swap1\n      tag_72\n      swap2\n      swap1\n      tag_73\n      jump\t// in\n    tag_72:\n      tag_74\n      jump\t// in\n    tag_71:\n      mload(0x40)\n      tag_75\n      swap2\n      swap1\n      tag_43\n      jump\t// in\n    tag_75:\n      mload(0x40)\n      dup1\n      swap2\n      sub\n      swap1\n      return\n        /* \"pinkLockV2(NormalLock).sol\":44784:44900  function renounceLockOwnership(uint256 lockId) external {\r... */\n    tag_14:\n      tag_76\n      0x04\n      dup1\n      calldatasize\n      sub\n      dup2\n      add\n      swap1\n      tag_77\n      swap2\n      swap1\n      tag_26\n      jump\t// in\n    tag_77:\n      tag_78\n      jump\t// in\n    tag_76:\n      stop\n        /* \"pinkLockV2(NormalLock).sol\":42115:43789  function editLock(\r... */\n    tag_15:\n      tag_79\n      0x04\n      dup1\n      calldatasize\n      sub\n      dup2\n      add\n      swap1\n      tag_80\n      swap2\n      swap1\n      tag_81\n      jump\t// in\n    tag_80:\n      tag_82\n      jump\t// in\n    tag_79:\n      stop\n        /* \"pinkLockV2(NormalLock).sol\":43797:44202  function editLockDescription(uint256 lockId, string memory description)\r... */\n    tag_16:\n      tag_83\n      0x04\n      dup1\n      calldatasize\n      sub\n      dup2\n      add\n      swap1\n      tag_84\n      swap2\n      swap1\n      tag_85\n      jump\t// in\n    tag_84:\n      tag_86\n      jump\t// in\n    tag_83:\n      stop\n        /* \"pinkLockV2(NormalLock).sol\":47370:47767  function normalLocksForUser(address user)\r... */\n    tag_17:\n      tag_87\n      0x04\n      dup1\n      calldatasize\n      sub\n      dup2\n      add\n      swap1\n      tag_88\n      swap2\n      swap1\n      tag_89\n      jump\t// in\n    tag_88:\n      tag_90\n      jump\t// in\n    tag_87:\n      mload(0x40)\n      tag_91\n      swap2\n      swap1\n      tag_39\n      jump\t// in\n    tag_91:\n      mload(0x40)\n      dup1\n      swap2\n      sub\n      swap1\n      return\n        /* \"pinkLockV2(NormalLock).sol\":37321:37385  mapping(address => CumulativeLockInfo) public cumulativeLockInfo */\n    tag_18:\n      tag_92\n      0x04\n      dup1\n      calldatasize\n      sub\n      dup2\n      add\n      swap1\n      tag_93\n      swap2\n      swap1\n      tag_89\n      jump\t// in\n    tag_93:\n      tag_94\n      jump\t// in\n    tag_92:\n      mload(0x40)\n      tag_95\n      swap3\n      swap2\n      swap1\n      tag_96\n      jump\t// in\n    tag_95:\n      mload(0x40)\n      dup1\n      swap2\n      sub\n      swap1\n      return\n        /* \"pinkLockV2(NormalLock).sol\":47195:47362  function normalLockCountForUser(address user)\r... */\n    tag_19:\n      tag_97\n      0x04\n      dup1\n      calldatasize\n      sub\n      dup2\n      add\n      swap1\n      tag_98\n      swap2\n      swap1\n      tag_89\n      jump\t// in\n    tag_98:\n      tag_99\n      jump\t// in\n    tag_97:\n      mload(0x40)\n      tag_100\n      swap2\n      swap1\n      tag_43\n      jump\t// in\n    tag_100:\n      mload(0x40)\n      dup1\n      swap2\n      sub\n      swap1\n      return\n        /* \"pinkLockV2(NormalLock).sol\":45714:45902  function getTotalLockCount() external view returns (uint256) {\r... */\n    tag_20:\n      tag_101\n      tag_102\n      jump\t// in\n    tag_101:\n      mload(0x40)\n      tag_103\n      swap2\n      swap1\n      tag_43\n      jump\t// in\n    tag_103:\n      mload(0x40)\n      dup1\n      swap2\n      sub\n      swap1\n      return\n        /* \"pinkLockV2(NormalLock).sol\":46027:46155  function getLockById(uint256 lockId) public view returns (Lock memory) {\r... */\n    tag_27:\n        /* \"pinkLockV2(NormalLock).sol\":46085:46096  Lock memory */\n      tag_104\n      tag_105\n      jump\t// in\n    tag_104:\n        /* \"pinkLockV2(NormalLock).sol\":46116:46122  _locks */\n      0x01\n        /* \"pinkLockV2(NormalLock).sol\":46123:46146  _getActualIndex(lockId) */\n      tag_107\n        /* \"pinkLockV2(NormalLock).sol\":46139:46145  lockId */\n      dup4\n        /* \"pinkLockV2(NormalLock).sol\":46123:46138  _getActualIndex */\n      tag_108\n        /* \"pinkLockV2(NormalLock).sol\":46123:46146  _getActualIndex(lockId) */\n      jump\t// in\n    tag_107:\n        /* \"pinkLockV2(NormalLock).sol\":46116:46147  _locks[_getActualIndex(lockId)] */\n      dup2\n      sload\n      dup2\n      lt\n      tag_109\n      jumpi\n      mstore(0x00, 0x4e487b7100000000000000000000000000000000000000000000000000000000)\n      mstore(0x04, 0x32)\n      revert(0x00, 0x24)\n    tag_109:\n      swap1\n      0x00\n      mstore\n      keccak256(0x00, 0x20)\n      swap1\n      0x08\n      mul\n      add\n        /* \"pinkLockV2(NormalLock).sol\":46109:46147  return _locks[_getActualIndex(lockId)] */\n      mload(0x40)\n      dup1\n      0x0100\n      add\n      0x40\n      mstore\n      swap1\n      dup2\n      0x00\n      dup3\n      add\n      sload\n      dup2\n      mstore\n      0x20\n      add\n      0x01\n      dup3\n      add\n      0x00\n      swap1\n      sload\n      swap1\n      0x0100\n      exp\n      swap1\n      div\n      0xffffffffffffffffffffffffffffffffffffffff\n      and\n      0xffffffffffffffffffffffffffffffffffffffff\n      and\n      0xffffffffffffffffffffffffffffffffffffffff\n      and\n      dup2\n      mstore\n      0x20\n      add\n      0x02\n      dup3\n      add\n      0x00\n      swap1\n      sload\n      swap1\n      0x0100\n      exp\n      swap1\n      div\n      0xffffffffffffffffffffffffffffffffffffffff\n      and\n      0xffffffffffffffffffffffffffffffffffffffff\n      and\n      0xffffffffffffffffffffffffffffffffffffffff\n      and\n      dup2\n      mstore\n      0x20\n      add\n      0x03\n      dup3\n      add\n      sload\n      dup2\n      mstore\n      0x20\n      add\n      0x04\n      dup3\n      add\n      sload\n      dup2\n      mstore\n      0x20\n      add\n      0x05\n      dup3\n      add\n      sload\n      dup2\n      mstore\n      0x20\n      add\n      0x06\n      dup3\n      add\n      sload\n      dup2\n      mstore\n      0x20\n      add\n      0x07\n      dup3\n      add\n      dup1\n      sload\n      tag_111\n      swap1\n      tag_112\n      jump\t// in\n    tag_111:\n      dup1\n      0x1f\n      add\n      0x20\n      dup1\n      swap2\n      div\n      mul\n      0x20\n      add\n      mload(0x40)\n      swap1\n      dup2\n      add\n      0x40\n      mstore\n      dup1\n      swap3\n      swap2\n      swap1\n      dup2\n      dup2\n      mstore\n      0x20\n      add\n      dup3\n      dup1\n      sload\n      tag_113\n      swap1\n      tag_112\n      jump\t// in\n    tag_113:\n      dup1\n      iszero\n      tag_114\n      jumpi\n      dup1\n      0x1f\n      lt\n      tag_115\n      jumpi\n      0x0100\n      dup1\n      dup4\n      sload\n      div\n      mul\n      dup4\n      mstore\n      swap2\n      0x20\n      add\n      swap2\n      jump(tag_114)\n    tag_115:\n      dup3\n      add\n      swap2\n      swap1\n      0x00\n      mstore\n      keccak256(0x00, 0x20)\n      swap1\n    tag_116:\n      dup2\n      sload\n      dup2\n      mstore\n      swap1\n      0x01\n      add\n      swap1\n      0x20\n      add\n      dup1\n      dup4\n      gt\n      tag_116\n      jumpi\n      dup3\n      swap1\n      sub\n      0x1f\n      and\n      dup3\n      add\n      swap2\n    tag_114:\n      pop\n      pop\n      pop\n      pop\n      pop\n      dup2\n      mstore\n      pop\n      pop\n      swap1\n      pop\n        /* \"pinkLockV2(NormalLock).sol\":46027:46155  function getLockById(uint256 lockId) public view returns (Lock memory) {\r... */\n      swap2\n      swap1\n      pop\n      jump\t// out\n        /* \"pinkLockV2(NormalLock).sol\":45910:46019  function getLockAt(uint256 index) external view returns (Lock memory) {\r... */\n    tag_32:\n        /* \"pinkLockV2(NormalLock).sol\":45967:45978  Lock memory */\n      tag_117\n      tag_105\n      jump\t// in\n    tag_117:\n        /* \"pinkLockV2(NormalLock).sol\":45998:46004  _locks */\n      0x01\n        /* \"pinkLockV2(NormalLock).sol\":46005:46010  index */\n      dup3\n        /* \"pinkLockV2(NormalLock).sol\":45998:46011  _locks[index] */\n      dup2\n      sload\n      dup2\n      lt\n      tag_119\n      jumpi\n      mstore(0x00, 0x4e487b7100000000000000000000000000000000000000000000000000000000)\n      mstore(0x04, 0x32)\n      revert(0x00, 0x24)\n    tag_119:\n      swap1\n      0x00\n      mstore\n      keccak256(0x00, 0x20)\n      swap1\n      0x08\n      mul\n      add\n        /* \"pinkLockV2(NormalLock).sol\":45991:46011  return _locks[index] */\n      mload(0x40)\n      dup1\n      0x0100\n      add\n      0x40\n      mstore\n      swap1\n      dup2\n      0x00\n      dup3\n      add\n      sload\n      dup2\n      mstore\n      0x20\n      add\n      0x01\n      dup3\n      add\n      0x00\n      swap1\n      sload\n      swap1\n      0x0100\n      exp\n      swap1\n      div\n      0xffffffffffffffffffffffffffffffffffffffff\n      and\n      0xffffffffffffffffffffffffffffffffffffffff\n      and\n      0xffffffffffffffffffffffffffffffffffffffff\n      and\n      dup2\n      mstore\n      0x20\n      add\n      0x02\n      dup3\n      add\n      0x00\n      swap1\n      sload\n      swap1\n      0x0100\n      exp\n      swap1\n      div\n      0xffffffffffffffffffffffffffffffffffffffff\n      and\n      0xffffffffffffffffffffffffffffffffffffffff\n      and\n      0xffffffffffffffffffffffffffffffffffffffff\n      and\n      dup2\n      mstore\n      0x20\n      add\n      0x03\n      dup3\n      add\n      sload\n      dup2\n      mstore\n      0x20\n      add\n      0x04\n      dup3\n      add\n      sload\n      dup2\n      mstore\n      0x20\n      add\n      0x05\n      dup3\n      add\n      sload\n      dup2\n      mstore\n      0x20\n      add\n      0x06\n      dup3\n      add\n      sload\n      dup2\n      mstore\n      0x20\n      add\n      0x07\n      dup3\n      add\n      dup1\n      sload\n      tag_121\n      swap1\n      tag_112\n      jump\t// in\n    tag_121:\n      dup1\n      0x1f\n      add\n      0x20\n      dup1\n      swap2\n      div\n      mul\n      0x20\n      add\n      mload(0x40)\n      swap1\n      dup2\n      add\n      0x40\n      mstore\n      dup1\n      swap3\n      swap2\n      swap1\n      dup2\n      dup2\n      mstore\n      0x20\n      add\n      dup3\n      dup1\n      sload\n      tag_122\n      swap1\n      tag_112\n      jump\t// in\n    tag_122:\n      dup1\n      iszero\n      tag_123\n      jumpi\n      dup1\n      0x1f\n      lt\n      tag_124\n      jumpi\n      0x0100\n      dup1\n      dup4\n      sload\n      div\n      mul\n      dup4\n      mstore\n      swap2\n      0x20\n      add\n      swap2\n      jump(tag_123)\n    tag_124:\n      dup3\n      add\n      swap2\n      swap1\n      0x00\n      mstore\n      keccak256(0x00, 0x20)\n      swap1\n    tag_125:\n      dup2\n      sload\n      dup2\n      mstore\n      swap1\n      0x01\n      add\n      swap1\n      0x20\n      add\n      dup1\n      dup4\n      gt\n      tag_125\n      jumpi\n      dup3\n      swap1\n      sub\n      0x1f\n      and\n      dup3\n      add\n      swap2\n    tag_123:\n      pop\n      pop\n      pop\n      pop\n      pop\n      dup2\n      mstore\n      pop\n      pop\n      swap1\n      pop\n        /* \"pinkLockV2(NormalLock).sol\":45910:46019  function getLockAt(uint256 index) external view returns (Lock memory) {\r... */\n      swap2\n      swap1\n      pop\n      jump\t// out\n        /* \"pinkLockV2(NormalLock).sol\":48060:48649  function getLocksForToken(\r... */\n    tag_37:\n        /* \"pinkLockV2(NormalLock).sol\":48184:48197  Lock[] memory */\n      0x60\n        /* \"pinkLockV2(NormalLock).sol\":48221:48252  _tokenToLockIds[token].length() */\n      tag_127\n        /* \"pinkLockV2(NormalLock).sol\":48221:48236  _tokenToLockIds */\n      0x06\n        /* \"pinkLockV2(NormalLock).sol\":48221:48243  _tokenToLockIds[token] */\n      0x00\n        /* \"pinkLockV2(NormalLock).sol\":48237:48242  token */\n      dup7\n        /* \"pinkLockV2(NormalLock).sol\":48221:48243  _tokenToLockIds[token] */\n      0xffffffffffffffffffffffffffffffffffffffff\n      and\n      0xffffffffffffffffffffffffffffffffffffffff\n      and\n      dup2\n      mstore\n      0x20\n      add\n      swap1\n      dup2\n      mstore\n      0x20\n      add\n      0x00\n      keccak256\n        /* \"pinkLockV2(NormalLock).sol\":48221:48250  _tokenToLockIds[token].length */\n      tag_128\n        /* \"pinkLockV2(NormalLock).sol\":48221:48252  _tokenToLockIds[token].length() */\n      jump\t// in\n    tag_127:\n        /* \"pinkLockV2(NormalLock).sol\":48214:48217  end */\n      dup3\n        /* \"pinkLockV2(NormalLock).sol\":48214:48252  end >= _tokenToLockIds[token].length() */\n      lt\n        /* \"pinkLockV2(NormalLock).sol\":48210:48322  if (end >= _tokenToLockIds[token].length()) {\r... */\n      tag_129\n      jumpi\n        /* \"pinkLockV2(NormalLock).sol\":48309:48310  1 */\n      0x01\n        /* \"pinkLockV2(NormalLock).sol\":48275:48306  _tokenToLockIds[token].length() */\n      tag_130\n        /* \"pinkLockV2(NormalLock).sol\":48275:48290  _tokenToLockIds */\n      0x06\n        /* \"pinkLockV2(NormalLock).sol\":48275:48297  _tokenToLockIds[token] */\n      0x00\n        /* \"pinkLockV2(NormalLock).sol\":48291:48296  token */\n      dup8\n        /* \"pinkLockV2(NormalLock).sol\":48275:48297  _tokenToLockIds[token] */\n      0xffffffffffffffffffffffffffffffffffffffff\n      and\n      0xffffffffffffffffffffffffffffffffffffffff\n      and\n      dup2\n      mstore\n      0x20\n      add\n      swap1\n      dup2\n      mstore\n      0x20\n      add\n      0x00\n      keccak256\n        /* \"pinkLockV2(NormalLock).sol\":48275:48304  _tokenToLockIds[token].length */\n      tag_128\n        /* \"pinkLockV2(NormalLock).sol\":48275:48306  _tokenToLockIds[token].length() */\n      jump\t// in\n    tag_130:\n        /* \"pinkLockV2(NormalLock).sol\":48275:48310  _tokenToLockIds[token].length() - 1 */\n      tag_131\n      swap2\n      swap1\n      tag_132\n      jump\t// in\n    tag_131:\n        /* \"pinkLockV2(NormalLock).sol\":48269:48310  end = _tokenToLockIds[token].length() - 1 */\n      swap2\n      pop\n        /* \"pinkLockV2(NormalLock).sol\":48210:48322  if (end >= _tokenToLockIds[token].length()) {\r... */\n    tag_129:\n        /* \"pinkLockV2(NormalLock).sol\":48332:48346  uint256 length */\n      0x00\n        /* \"pinkLockV2(NormalLock).sol\":48363:48364  1 */\n      0x01\n        /* \"pinkLockV2(NormalLock).sol\":48355:48360  start */\n      dup5\n        /* \"pinkLockV2(NormalLock).sol\":48349:48352  end */\n      dup5\n        /* \"pinkLockV2(NormalLock).sol\":48349:48360  end - start */\n      tag_133\n      swap2\n      swap1\n      tag_132\n      jump\t// in\n    tag_133:\n        /* \"pinkLockV2(NormalLock).sol\":48349:48364  end - start + 1 */\n      tag_134\n      swap2\n      swap1\n      tag_135\n      jump\t// in\n    tag_134:\n        /* \"pinkLockV2(NormalLock).sol\":48332:48364  uint256 length = end - start + 1 */\n      swap1\n      pop\n        /* \"pinkLockV2(NormalLock).sol\":48375:48394  Lock[] memory locks */\n      0x00\n        /* \"pinkLockV2(NormalLock).sol\":48408:48414  length */\n      dup2\n        /* \"pinkLockV2(NormalLock).sol\":48397:48415  new Lock[](length) */\n      0xffffffffffffffff\n      dup2\n      gt\n      iszero\n      tag_136\n      jumpi\n      mstore(0x00, 0x4e487b7100000000000000000000000000000000000000000000000000000000)\n      mstore(0x04, 0x41)\n      revert(0x00, 0x24)\n    tag_136:\n      mload(0x40)\n      swap1\n      dup1\n      dup3\n      mstore\n      dup1\n      0x20\n      mul\n      0x20\n      add\n      dup3\n      add\n      0x40\n      mstore\n      dup1\n      iszero\n      tag_137\n      jumpi\n      dup2\n      0x20\n      add\n    tag_138:\n      tag_139\n      tag_105\n      jump\t// in\n    tag_139:\n      dup2\n      mstore\n      0x20\n      add\n      swap1\n      0x01\n      swap1\n      sub\n      swap1\n      dup2\n      tag_138\n      jumpi\n      swap1\n      pop\n    tag_137:\n      pop\n        /* \"pinkLockV2(NormalLock).sol\":48375:48415  Lock[] memory locks = new Lock[](length) */\n      swap1\n      pop\n        /* \"pinkLockV2(NormalLock).sol\":48426:48446  uint256 currentIndex */\n      0x00\n        /* \"pinkLockV2(NormalLock).sol\":48466:48475  uint256 i */\n      dup1\n        /* \"pinkLockV2(NormalLock).sol\":48478:48483  start */\n      dup7\n        /* \"pinkLockV2(NormalLock).sol\":48466:48483  uint256 i = start */\n      swap1\n      pop\n        /* \"pinkLockV2(NormalLock).sol\":48461:48619  for (uint256 i = start; i <= end; i++) {\r... */\n    tag_140:\n        /* \"pinkLockV2(NormalLock).sol\":48490:48493  end */\n      dup6\n        /* \"pinkLockV2(NormalLock).sol\":48485:48486  i */\n      dup2\n        /* \"pinkLockV2(NormalLock).sol\":48485:48493  i <= end */\n      gt\n        /* \"pinkLockV2(NormalLock).sol\":48461:48619  for (uint256 i = start; i <= end; i++) {\r... */\n      tag_141\n      jumpi\n        /* \"pinkLockV2(NormalLock).sol\":48537:48578  getLockById(_tokenToLockIds[token].at(i)) */\n      tag_143\n        /* \"pinkLockV2(NormalLock).sol\":48549:48577  _tokenToLockIds[token].at(i) */\n      tag_144\n        /* \"pinkLockV2(NormalLock).sol\":48575:48576  i */\n      dup3\n        /* \"pinkLockV2(NormalLock).sol\":48549:48564  _tokenToLockIds */\n      0x06\n        /* \"pinkLockV2(NormalLock).sol\":48549:48571  _tokenToLockIds[token] */\n      0x00\n        /* \"pinkLockV2(NormalLock).sol\":48565:48570  token */\n      dup13\n        /* \"pinkLockV2(NormalLock).sol\":48549:48571  _tokenToLockIds[token] */\n      0xffffffffffffffffffffffffffffffffffffffff\n      and\n      0xffffffffffffffffffffffffffffffffffffffff\n      and\n      dup2\n      mstore\n      0x20\n      add\n      swap1\n      dup2\n      mstore\n      0x20\n      add\n      0x00\n      keccak256\n        /* \"pinkLockV2(NormalLock).sol\":48549:48574  _tokenToLockIds[token].at */\n      tag_145\n      swap1\n        /* \"pinkLockV2(NormalLock).sol\":48549:48577  _tokenToLockIds[token].at(i) */\n      swap2\n      swap1\n      0xffffffff\n      and\n      jump\t// in\n    tag_144:\n        /* \"pinkLockV2(NormalLock).sol\":48537:48548  getLockById */\n      tag_27\n        /* \"pinkLockV2(NormalLock).sol\":48537:48578  getLockById(_tokenToLockIds[token].at(i)) */\n      jump\t// in\n    tag_143:\n        /* \"pinkLockV2(NormalLock).sol\":48515:48520  locks */\n      dup4\n        /* \"pinkLockV2(NormalLock).sol\":48521:48533  currentIndex */\n      dup4\n        /* \"pinkLockV2(NormalLock).sol\":48515:48534  locks[currentIndex] */\n      dup2\n      mload\n      dup2\n      lt\n      tag_146\n      jumpi\n      mstore(0x00, 0x4e487b7100000000000000000000000000000000000000000000000000000000)\n      mstore(0x04, 0x32)\n      revert(0x00, 0x24)\n    tag_146:\n      0x20\n      mul\n      0x20\n      add\n      add\n        /* \"pinkLockV2(NormalLock).sol\":48515:48578  locks[currentIndex] = getLockById(_tokenToLockIds[token].at(i)) */\n      dup2\n      swap1\n      mstore\n      pop\n        /* \"pinkLockV2(NormalLock).sol\":48593:48607  currentIndex++ */\n      dup2\n      dup1\n      tag_147\n      swap1\n      tag_148\n      jump\t// in\n    tag_147:\n      swap3\n      pop\n      pop\n        /* \"pinkLockV2(NormalLock).sol\":48495:48498  i++ */\n      dup1\n      dup1\n      tag_149\n      swap1\n      tag_148\n      jump\t// in\n    tag_149:\n      swap2\n      pop\n      pop\n        /* \"pinkLockV2(NormalLock).sol\":48461:48619  for (uint256 i = start; i <= end; i++) {\r... */\n      jump(tag_140)\n    tag_141:\n      pop\n        /* \"pinkLockV2(NormalLock).sol\":48636:48641  locks */\n      dup2\n        /* \"pinkLockV2(NormalLock).sol\":48629:48641  return locks */\n      swap4\n      pop\n      pop\n      pop\n      pop\n        /* \"pinkLockV2(NormalLock).sol\":48060:48649  function getLocksForToken(\r... */\n      swap4\n      swap3\n      pop\n      pop\n      pop\n      jump\t// out\n        /* \"pinkLockV2(NormalLock).sol\":46163:46284  function allNormalTokenLockedCount() public view returns (uint256) {\r... */\n    tag_41:\n        /* \"pinkLockV2(NormalLock).sol\":46221:46228  uint256 */\n      0x00\n        /* \"pinkLockV2(NormalLock).sol\":46248:46276  _normalLockedTokens.length() */\n      tag_151\n        /* \"pinkLockV2(NormalLock).sol\":46248:46267  _normalLockedTokens */\n      0x03\n        /* \"pinkLockV2(NormalLock).sol\":46248:46274  _normalLockedTokens.length */\n      tag_152\n        /* \"pinkLockV2(NormalLock).sol\":46248:46276  _normalLockedTokens.length() */\n      jump\t// in\n    tag_151:\n        /* \"pinkLockV2(NormalLock).sol\":46241:46276  return _normalLockedTokens.length() */\n      swap1\n      pop\n        /* \"pinkLockV2(NormalLock).sol\":46163:46284  function allNormalTokenLockedCount() public view returns (uint256) {\r... */\n      swap1\n      jump\t// out\n        /* \"pinkLockV2(NormalLock).sol\":44210:44776  function transferLockOwnership(uint256 lockId, address newOwner)\r... */\n    tag_47:\n        /* \"pinkLockV2(NormalLock).sol\":44310:44316  lockId */\n      dup2\n        /* \"pinkLockV2(NormalLock).sol\":38139:38162  _getActualIndex(lockId) */\n      tag_154\n        /* \"pinkLockV2(NormalLock).sol\":38155:38161  lockId */\n      dup2\n        /* \"pinkLockV2(NormalLock).sol\":38139:38154  _getActualIndex */\n      tag_108\n        /* \"pinkLockV2(NormalLock).sol\":38139:38162  _getActualIndex(lockId) */\n      jump\t// in\n    tag_154:\n      pop\n        /* \"pinkLockV2(NormalLock).sol\":44334:44355  Lock storage userLock */\n      0x00\n        /* \"pinkLockV2(NormalLock).sol\":44358:44364  _locks */\n      0x01\n        /* \"pinkLockV2(NormalLock).sol\":44365:44371  lockId */\n      dup5\n        /* \"pinkLockV2(NormalLock).sol\":44358:44372  _locks[lockId] */\n      dup2\n      sload\n      dup2\n      lt\n      tag_156\n      jumpi\n      mstore(0x00, 0x4e487b7100000000000000000000000000000000000000000000000000000000)\n      mstore(0x04, 0x32)\n      revert(0x00, 0x24)\n    tag_156:\n      swap1\n      0x00\n      mstore\n      keccak256(0x00, 0x20)\n      swap1\n      0x08\n      mul\n      add\n        /* \"pinkLockV2(NormalLock).sol\":44334:44372  Lock storage userLock = _locks[lockId] */\n      swap1\n      pop\n        /* \"pinkLockV2(NormalLock).sol\":44395:44415  address currentOwner */\n      0x00\n        /* \"pinkLockV2(NormalLock).sol\":44418:44426  userLock */\n      dup2\n        /* \"pinkLockV2(NormalLock).sol\":44418:44432  userLock.owner */\n      0x02\n      add\n      0x00\n      swap1\n      sload\n      swap1\n      0x0100\n      exp\n      swap1\n      div\n      0xffffffffffffffffffffffffffffffffffffffff\n      and\n        /* \"pinkLockV2(NormalLock).sol\":44395:44432  address currentOwner = userLock.owner */\n      swap1\n      pop\n        /* \"pinkLockV2(NormalLock).sol\":44481:44491  msg.sender */\n      caller\n        /* \"pinkLockV2(NormalLock).sol\":44465:44491  currentOwner == msg.sender */\n      0xffffffffffffffffffffffffffffffffffffffff\n      and\n        /* \"pinkLockV2(NormalLock).sol\":44465:44477  currentOwner */\n      dup2\n        /* \"pinkLockV2(NormalLock).sol\":44465:44491  currentOwner == msg.sender */\n      0xffffffffffffffffffffffffffffffffffffffff\n      and\n      eq\n        /* \"pinkLockV2(NormalLock).sol\":44443:44553  require(\r... */\n      tag_158\n      jumpi\n      mload(0x40)\n      0x08c379a000000000000000000000000000000000000000000000000000000000\n      dup2\n      mstore\n      0x04\n      add\n      tag_159\n      swap1\n      tag_160\n      jump\t// in\n    tag_159:\n      mload(0x40)\n      dup1\n      swap2\n      sub\n      swap1\n      revert\n    tag_158:\n        /* \"pinkLockV2(NormalLock).sol\":44583:44591  newOwner */\n      dup4\n        /* \"pinkLockV2(NormalLock).sol\":44566:44574  userLock */\n      dup3\n        /* \"pinkLockV2(NormalLock).sol\":44566:44580  userLock.owner */\n      0x02\n      add\n      0x00\n        /* \"pinkLockV2(NormalLock).sol\":44566:44591  userLock.owner = newOwner */\n      0x0100\n      exp\n      dup2\n      sload\n      dup2\n      0xffffffffffffffffffffffffffffffffffffffff\n      mul\n      not\n      and\n      swap1\n      dup4\n      0xffffffffffffffffffffffffffffffffffffffff\n      and\n      mul\n      or\n      swap1\n      sstore\n      pop\n        /* \"pinkLockV2(NormalLock).sol\":44604:44651  _userNormalLockIds[currentOwner].remove(lockId) */\n      tag_161\n        /* \"pinkLockV2(NormalLock).sol\":44644:44650  lockId */\n      dup6\n        /* \"pinkLockV2(NormalLock).sol\":44604:44622  _userNormalLockIds */\n      0x02\n        /* \"pinkLockV2(NormalLock).sol\":44604:44636  _userNormalLockIds[currentOwner] */\n      0x00\n        /* \"pinkLockV2(NormalLock).sol\":44623:44635  currentOwner */\n      dup5\n        /* \"pinkLockV2(NormalLock).sol\":44604:44636  _userNormalLockIds[currentOwner] */\n      0xffffffffffffffffffffffffffffffffffffffff\n      and\n      0xffffffffffffffffffffffffffffffffffffffff\n      and\n      dup2\n      mstore\n      0x20\n      add\n      swap1\n      dup2\n      mstore\n      0x20\n      add\n      0x00\n      keccak256\n        /* \"pinkLockV2(NormalLock).sol\":44604:44643  _userNormalLockIds[currentOwner].remove */\n      tag_162\n      swap1\n        /* \"pinkLockV2(NormalLock).sol\":44604:44651  _userNormalLockIds[currentOwner].remove(lockId) */\n      swap2\n      swap1\n      0xffffffff\n      and\n      jump\t// in\n    tag_161:\n      pop\n        /* \"pinkLockV2(NormalLock).sol\":44662:44702  _userNormalLockIds[newOwner].add(lockId) */\n      tag_163\n        /* \"pinkLockV2(NormalLock).sol\":44695:44701  lockId */\n      dup6\n        /* \"pinkLockV2(NormalLock).sol\":44662:44680  _userNormalLockIds */\n      0x02\n        /* \"pinkLockV2(NormalLock).sol\":44662:44690  _userNormalLockIds[newOwner] */\n      0x00\n        /* \"pinkLockV2(NormalLock).sol\":44681:44689  newOwner */\n      dup8\n        /* \"pinkLockV2(NormalLock).sol\":44662:44690  _userNormalLockIds[newOwner] */\n      0xffffffffffffffffffffffffffffffffffffffff\n      and\n      0xffffffffffffffffffffffffffffffffffffffff\n      and\n      dup2\n      mstore\n      0x20\n      add\n      swap1\n      dup2\n      mstore\n      0x20\n      add\n      0x00\n      keccak256\n        /* \"pinkLockV2(NormalLock).sol\":44662:44694  _userNormalLockIds[newOwner].add */\n      tag_164\n      swap1\n        /* \"pinkLockV2(NormalLock).sol\":44662:44702  _userNormalLockIds[newOwner].add(lockId) */\n      swap2\n      swap1\n      0xffffffff\n      and\n      jump\t// in\n    tag_163:\n      pop\n        /* \"pinkLockV2(NormalLock).sol\":44720:44768  LockOwnerChanged(lockId, currentOwner, newOwner) */\n      0x9075ad040756c0d8743a1fed927066a92c4755071615bf61e04b17583d961caf\n        /* \"pinkLockV2(NormalLock).sol\":44737:44743  lockId */\n      dup6\n        /* \"pinkLockV2(NormalLock).sol\":44745:44757  currentOwner */\n      dup3\n        /* \"pinkLockV2(NormalLock).sol\":44759:44767  newOwner */\n      dup7\n        /* \"pinkLockV2(NormalLock).sol\":44720:44768  LockOwnerChanged(lockId, currentOwner, newOwner) */\n      mload(0x40)\n      tag_165\n      swap4\n      swap3\n      swap2\n      swap1\n      tag_166\n      jump\t// in\n    tag_165:\n      mload(0x40)\n      dup1\n      swap2\n      sub\n      swap1\n      log1\n        /* \"pinkLockV2(NormalLock).sol\":38173:38174  _ */\n      pop\n      pop\n        /* \"pinkLockV2(NormalLock).sol\":44210:44776  function transferLockOwnership(uint256 lockId, address newOwner)\r... */\n      pop\n      pop\n      pop\n      jump\t// out\n        /* \"pinkLockV2(NormalLock).sol\":3038:3124  function paused() public view virtual returns (bool) {\r... */\n    tag_49:\n        /* \"pinkLockV2(NormalLock).sol\":3085:3089  bool */\n      0x00\n        /* \"pinkLockV2(NormalLock).sol\":3109:3116  _paused */\n      dup1\n      0x00\n      swap1\n      sload\n      swap1\n      0x0100\n      exp\n      swap1\n      div\n      0xff\n      and\n        /* \"pinkLockV2(NormalLock).sol\":3102:3116  return _paused */\n      swap1\n      pop\n        /* \"pinkLockV2(NormalLock).sol\":3038:3124  function paused() public view virtual returns (bool) {\r... */\n      swap1\n      jump\t// out\n        /* \"pinkLockV2(NormalLock).sol\":47775:48052  function normalLockForUserAtIndex(address user, uint256 index)\r... */\n    tag_55:\n        /* \"pinkLockV2(NormalLock).sol\":47888:47899  Lock memory */\n      tag_168\n      tag_105\n      jump\t// in\n    tag_168:\n        /* \"pinkLockV2(NormalLock).sol\":47956:47961  index */\n      dup2\n        /* \"pinkLockV2(NormalLock).sol\":47925:47953  normalLockCountForUser(user) */\n      tag_170\n        /* \"pinkLockV2(NormalLock).sol\":47948:47952  user */\n      dup5\n        /* \"pinkLockV2(NormalLock).sol\":47925:47947  normalLockCountForUser */\n      tag_99\n        /* \"pinkLockV2(NormalLock).sol\":47925:47953  normalLockCountForUser(user) */\n      jump\t// in\n    tag_170:\n        /* \"pinkLockV2(NormalLock).sol\":47925:47961  normalLockCountForUser(user) > index */\n      gt\n        /* \"pinkLockV2(NormalLock).sol\":47917:47979  require(normalLockCountForUser(user) > index, \"Invalid index\") */\n      tag_171\n      jumpi\n      mload(0x40)\n      0x08c379a000000000000000000000000000000000000000000000000000000000\n      dup2\n      mstore\n      0x04\n      add\n      tag_172\n      swap1\n      tag_173\n      jump\t// in\n    tag_172:\n      mload(0x40)\n      dup1\n      swap2\n      sub\n      swap1\n      revert\n    tag_171:\n        /* \"pinkLockV2(NormalLock).sol\":47997:48044  getLockById(_userNormalLockIds[user].at(index)) */\n      tag_174\n        /* \"pinkLockV2(NormalLock).sol\":48009:48043  _userNormalLockIds[user].at(index) */\n      tag_175\n        /* \"pinkLockV2(NormalLock).sol\":48037:48042  index */\n      dup4\n        /* \"pinkLockV2(NormalLock).sol\":48009:48027  _userNormalLockIds */\n      0x02\n        /* \"pinkLockV2(NormalLock).sol\":48009:48033  _userNormalLockIds[user] */\n      0x00\n        /* \"pinkLockV2(NormalLock).sol\":48028:48032  user */\n      dup8\n        /* \"pinkLockV2(NormalLock).sol\":48009:48033  _userNormalLockIds[user] */\n      0xffffffffffffffffffffffffffffffffffffffff\n      and\n      0xffffffffffffffffffffffffffffffffffffffff\n      and\n      dup2\n      mstore\n      0x20\n      add\n      swap1\n      dup2\n      mstore\n      0x20\n      add\n      0x00\n      keccak256\n        /* \"pinkLockV2(NormalLock).sol\":48009:48036  _userNormalLockIds[user].at */\n      tag_145\n      swap1\n        /* \"pinkLockV2(NormalLock).sol\":48009:48043  _userNormalLockIds[user].at(index) */\n      swap2\n      swap1\n      0xffffffff\n      and\n      jump\t// in\n    tag_175:\n        /* \"pinkLockV2(NormalLock).sol\":47997:48008  getLockById */\n      tag_27\n        /* \"pinkLockV2(NormalLock).sol\":47997:48044  getLockById(_userNormalLockIds[user].at(index)) */\n      jump\t// in\n    tag_174:\n        /* \"pinkLockV2(NormalLock).sol\":47990:48044  return getLockById(_userNormalLockIds[user].at(index)) */\n      swap1\n      pop\n        /* \"pinkLockV2(NormalLock).sol\":47775:48052  function normalLockForUserAtIndex(address user, uint256 index)\r... */\n      swap3\n      swap2\n      pop\n      pop\n      jump\t// out\n        /* \"pinkLockV2(NormalLock).sol\":40675:40970  function unlock(uint256 lockId) external override validLock(lockId) {\r... */\n    tag_59:\n        /* \"pinkLockV2(NormalLock).sol\":40735:40741  lockId */\n      dup1\n        /* \"pinkLockV2(NormalLock).sol\":38139:38162  _getActualIndex(lockId) */\n      tag_177\n        /* \"pinkLockV2(NormalLock).sol\":38155:38161  lockId */\n      dup2\n        /* \"pinkLockV2(NormalLock).sol\":38139:38154  _getActualIndex */\n      tag_108\n        /* \"pinkLockV2(NormalLock).sol\":38139:38162  _getActualIndex(lockId) */\n      jump\t// in\n    tag_177:\n      pop\n        /* \"pinkLockV2(NormalLock).sol\":40754:40775  Lock storage userLock */\n      0x00\n        /* \"pinkLockV2(NormalLock).sol\":40778:40784  _locks */\n      0x01\n        /* \"pinkLockV2(NormalLock).sol\":40785:40791  lockId */\n      dup4\n        /* \"pinkLockV2(NormalLock).sol\":40778:40792  _locks[lockId] */\n      dup2\n      sload\n      dup2\n      lt\n      tag_179\n      jumpi\n      mstore(0x00, 0x4e487b7100000000000000000000000000000000000000000000000000000000)\n      mstore(0x04, 0x32)\n      revert(0x00, 0x24)\n    tag_179:\n      swap1\n      0x00\n      mstore\n      keccak256(0x00, 0x20)\n      swap1\n      0x08\n      mul\n      add\n        /* \"pinkLockV2(NormalLock).sol\":40754:40792  Lock storage userLock = _locks[lockId] */\n      swap1\n      pop\n        /* \"pinkLockV2(NormalLock).sol\":40856:40866  msg.sender */\n      caller\n        /* \"pinkLockV2(NormalLock).sol\":40838:40866  userLock.owner == msg.sender */\n      0xffffffffffffffffffffffffffffffffffffffff\n      and\n        /* \"pinkLockV2(NormalLock).sol\":40838:40846  userLock */\n      dup2\n        /* \"pinkLockV2(NormalLock).sol\":40838:40852  userLock.owner */\n      0x02\n      add\n      0x00\n      swap1\n      sload\n      swap1\n      0x0100\n      exp\n      swap1\n      div\n      0xffffffffffffffffffffffffffffffffffffffff\n      and\n        /* \"pinkLockV2(NormalLock).sol\":40838:40866  userLock.owner == msg.sender */\n      0xffffffffffffffffffffffffffffffffffffffff\n      and\n      eq\n        /* \"pinkLockV2(NormalLock).sol\":40816:40928  require(\r... */\n      tag_181\n      jumpi\n      mload(0x40)\n      0x08c379a000000000000000000000000000000000000000000000000000000000\n      dup2\n      mstore\n      0x04\n      add\n      tag_182\n      swap1\n      tag_160\n      jump\t// in\n    tag_182:\n      mload(0x40)\n      dup1\n      swap2\n      sub\n      swap1\n      revert\n    tag_181:\n        /* \"pinkLockV2(NormalLock).sol\":40939:40962  _normalUnlock(userLock) */\n      tag_183\n        /* \"pinkLockV2(NormalLock).sol\":40953:40961  userLock */\n      dup2\n        /* \"pinkLockV2(NormalLock).sol\":40939:40952  _normalUnlock */\n      tag_184\n        /* \"pinkLockV2(NormalLock).sol\":40939:40962  _normalUnlock(userLock) */\n      jump\t// in\n    tag_183:\n        /* \"pinkLockV2(NormalLock).sol\":38173:38174  _ */\n      pop\n        /* \"pinkLockV2(NormalLock).sol\":40675:40970  function unlock(uint256 lockId) external override validLock(lockId) {\r... */\n      pop\n      pop\n      jump\t// out\n        /* \"pinkLockV2(NormalLock).sol\":46516:47187  function getCumulativeNormalTokenLockInfo(uint256 start, uint256 end)\r... */\n    tag_63:\n        /* \"pinkLockV2(NormalLock).sol\":46636:46663  CumulativeLockInfo[] memory */\n      0x60\n        /* \"pinkLockV2(NormalLock).sol\":46692:46720  _normalLockedTokens.length() */\n      tag_186\n        /* \"pinkLockV2(NormalLock).sol\":46692:46711  _normalLockedTokens */\n      0x03\n        /* \"pinkLockV2(NormalLock).sol\":46692:46718  _normalLockedTokens.length */\n      tag_152\n        /* \"pinkLockV2(NormalLock).sol\":46692:46720  _normalLockedTokens.length() */\n      jump\t// in\n    tag_186:\n        /* \"pinkLockV2(NormalLock).sol\":46685:46688  end */\n      dup3\n        /* \"pinkLockV2(NormalLock).sol\":46685:46720  end >= _normalLockedTokens.length() */\n      lt\n        /* \"pinkLockV2(NormalLock).sol\":46681:46787  if (end >= _normalLockedTokens.length()) {\r... */\n      tag_187\n      jumpi\n        /* \"pinkLockV2(NormalLock).sol\":46774:46775  1 */\n      0x01\n        /* \"pinkLockV2(NormalLock).sol\":46743:46771  _normalLockedTokens.length() */\n      tag_188\n        /* \"pinkLockV2(NormalLock).sol\":46743:46762  _normalLockedTokens */\n      0x03\n        /* \"pinkLockV2(NormalLock).sol\":46743:46769  _normalLockedTokens.length */\n      tag_152\n        /* \"pinkLockV2(NormalLock).sol\":46743:46771  _normalLockedTokens.length() */\n      jump\t// in\n    tag_188:\n        /* \"pinkLockV2(NormalLock).sol\":46743:46775  _normalLockedTokens.length() - 1 */\n      tag_189\n      swap2\n      swap1\n      tag_132\n      jump\t// in\n    tag_189:\n        /* \"pinkLockV2(NormalLock).sol\":46737:46775  end = _normalLockedTokens.length() - 1 */\n      swap2\n      pop\n        /* \"pinkLockV2(NormalLock).sol\":46681:46787  if (end >= _normalLockedTokens.length()) {\r... */\n    tag_187:\n        /* \"pinkLockV2(NormalLock).sol\":46797:46811  uint256 length */\n      0x00\n        /* \"pinkLockV2(NormalLock).sol\":46828:46829  1 */\n      0x01\n        /* \"pinkLockV2(NormalLock).sol\":46820:46825  start */\n      dup5\n        /* \"pinkLockV2(NormalLock).sol\":46814:46817  end */\n      dup5\n        /* \"pinkLockV2(NormalLock).sol\":46814:46825  end - start */\n      tag_190\n      swap2\n      swap1\n      tag_132\n      jump\t// in\n    tag_190:\n        /* \"pinkLockV2(NormalLock).sol\":46814:46829  end - start + 1 */\n      tag_191\n      swap2\n      swap1\n      tag_135\n      jump\t// in\n    tag_191:\n        /* \"pinkLockV2(NormalLock).sol\":46797:46829  uint256 length = end - start + 1 */\n      swap1\n      pop\n        /* \"pinkLockV2(NormalLock).sol\":46840:46876  CumulativeLockInfo[] memory lockInfo */\n      0x00\n        /* \"pinkLockV2(NormalLock).sol\":46904:46910  length */\n      dup2\n        /* \"pinkLockV2(NormalLock).sol\":46879:46911  new CumulativeLockInfo[](length) */\n      0xffffffffffffffff\n      dup2\n      gt\n      iszero\n      tag_192\n      jumpi\n      mstore(0x00, 0x4e487b7100000000000000000000000000000000000000000000000000000000)\n      mstore(0x04, 0x41)\n      revert(0x00, 0x24)\n    tag_192:\n      mload(0x40)\n      swap1\n      dup1\n      dup3\n      mstore\n      dup1\n      0x20\n      mul\n      0x20\n      add\n      dup3\n      add\n      0x40\n      mstore\n      dup1\n      iszero\n      tag_193\n      jumpi\n      dup2\n      0x20\n      add\n    tag_194:\n      tag_195\n      tag_196\n      jump\t// in\n    tag_195:\n      dup2\n      mstore\n      0x20\n      add\n      swap1\n      0x01\n      swap1\n      sub\n      swap1\n      dup2\n      tag_194\n      jumpi\n      swap1\n      pop\n    tag_193:\n      pop\n        /* \"pinkLockV2(NormalLock).sol\":46840:46911  CumulativeLockInfo[] memory lockInfo = new CumulativeLockInfo[](length) */\n      swap1\n      pop\n        /* \"pinkLockV2(NormalLock).sol\":46922:46942  uint256 currentIndex */\n      0x00\n        /* \"pinkLockV2(NormalLock).sol\":46962:46971  uint256 i */\n      dup1\n        /* \"pinkLockV2(NormalLock).sol\":46974:46979  start */\n      dup7\n        /* \"pinkLockV2(NormalLock).sol\":46962:46979  uint256 i = start */\n      swap1\n      pop\n        /* \"pinkLockV2(NormalLock).sol\":46957:47154  for (uint256 i = start; i <= end; i++) {\r... */\n    tag_197:\n        /* \"pinkLockV2(NormalLock).sol\":46986:46989  end */\n      dup6\n        /* \"pinkLockV2(NormalLock).sol\":46981:46982  i */\n      dup2\n        /* \"pinkLockV2(NormalLock).sol\":46981:46989  i <= end */\n      gt\n        /* \"pinkLockV2(NormalLock).sol\":46957:47154  for (uint256 i = start; i <= end; i++) {\r... */\n      tag_198\n      jumpi\n        /* \"pinkLockV2(NormalLock).sol\":47036:47054  cumulativeLockInfo */\n      0x05\n        /* \"pinkLockV2(NormalLock).sol\":47036:47113  cumulativeLockInfo[\r... */\n      0x00\n        /* \"pinkLockV2(NormalLock).sol\":47073:47098  _normalLockedTokens.at(i) */\n      tag_200\n        /* \"pinkLockV2(NormalLock).sol\":47096:47097  i */\n      dup4\n        /* \"pinkLockV2(NormalLock).sol\":47073:47092  _normalLockedTokens */\n      0x03\n        /* \"pinkLockV2(NormalLock).sol\":47073:47095  _normalLockedTokens.at */\n      tag_201\n      swap1\n        /* \"pinkLockV2(NormalLock).sol\":47073:47098  _normalLockedTokens.at(i) */\n      swap2\n      swap1\n      0xffffffff\n      and\n      jump\t// in\n    tag_200:\n        /* \"pinkLockV2(NormalLock).sol\":47036:47113  cumulativeLockInfo[\r... */\n      0xffffffffffffffffffffffffffffffffffffffff\n      and\n      0xffffffffffffffffffffffffffffffffffffffff\n      and\n      dup2\n      mstore\n      0x20\n      add\n      swap1\n      dup2\n      mstore\n      0x20\n      add\n      0x00\n      keccak256\n        /* \"pinkLockV2(NormalLock).sol\":47011:47113  lockInfo[currentIndex] = cumulativeLockInfo[\r... */\n      mload(0x40)\n      dup1\n      0x40\n      add\n      0x40\n      mstore\n      swap1\n      dup2\n      0x00\n      dup3\n      add\n      0x00\n      swap1\n      sload\n      swap1\n      0x0100\n      exp\n      swap1\n      div\n      0xffffffffffffffffffffffffffffffffffffffff\n      and\n      0xffffffffffffffffffffffffffffffffffffffff\n      and\n      0xffffffffffffffffffffffffffffffffffffffff\n      and\n      dup2\n      mstore\n      0x20\n      add\n      0x01\n      dup3\n      add\n      sload\n      dup2\n      mstore\n      pop\n      pop\n        /* \"pinkLockV2(NormalLock).sol\":47011:47019  lockInfo */\n      dup4\n        /* \"pinkLockV2(NormalLock).sol\":47020:47032  currentIndex */\n      dup4\n        /* \"pinkLockV2(NormalLock).sol\":47011:47033  lockInfo[currentIndex] */\n      dup2\n      mload\n      dup2\n      lt\n      tag_202\n      jumpi\n      mstore(0x00, 0x4e487b7100000000000000000000000000000000000000000000000000000000)\n      mstore(0x04, 0x32)\n      revert(0x00, 0x24)\n    tag_202:\n      0x20\n      mul\n      0x20\n      add\n      add\n        /* \"pinkLockV2(NormalLock).sol\":47011:47113  lockInfo[currentIndex] = cumulativeLockInfo[\r... */\n      dup2\n      swap1\n      mstore\n      pop\n        /* \"pinkLockV2(NormalLock).sol\":47128:47142  currentIndex++ */\n      dup2\n      dup1\n      tag_203\n      swap1\n      tag_148\n      jump\t// in\n    tag_203:\n      swap3\n      pop\n      pop\n        /* \"pinkLockV2(NormalLock).sol\":46991:46994  i++ */\n      dup1\n      dup1\n      tag_204\n      swap1\n      tag_148\n      jump\t// in\n    tag_204:\n      swap2\n      pop\n      pop\n        /* \"pinkLockV2(NormalLock).sol\":46957:47154  for (uint256 i = start; i <= end; i++) {\r... */\n      jump(tag_197)\n    tag_198:\n      pop\n        /* \"pinkLockV2(NormalLock).sol\":47171:47179  lockInfo */\n      dup2\n        /* \"pinkLockV2(NormalLock).sol\":47164:47179  return lockInfo */\n      swap4\n      pop\n      pop\n      pop\n      pop\n        /* \"pinkLockV2(NormalLock).sol\":46516:47187  function getCumulativeNormalTokenLockInfo(uint256 start, uint256 end)\r... */\n      swap3\n      swap2\n      pop\n      pop\n      jump\t// out\n        /* \"pinkLockV2(NormalLock).sol\":46292:46508  function getCumulativeNormalTokenLockInfoAt(uint256 index)\r... */\n    tag_68:\n        /* \"pinkLockV2(NormalLock).sol\":46401:46426  CumulativeLockInfo memory */\n      tag_205\n      tag_196\n      jump\t// in\n    tag_205:\n        /* \"pinkLockV2(NormalLock).sol\":46451:46469  cumulativeLockInfo */\n      0x05\n        /* \"pinkLockV2(NormalLock).sol\":46451:46500  cumulativeLockInfo[_normalLockedTokens.at(index)] */\n      0x00\n        /* \"pinkLockV2(NormalLock).sol\":46470:46499  _normalLockedTokens.at(index) */\n      tag_207\n        /* \"pinkLockV2(NormalLock).sol\":46493:46498  index */\n      dup5\n        /* \"pinkLockV2(NormalLock).sol\":46470:46489  _normalLockedTokens */\n      0x03\n        /* \"pinkLockV2(NormalLock).sol\":46470:46492  _normalLockedTokens.at */\n      tag_201\n      swap1\n        /* \"pinkLockV2(NormalLock).sol\":46470:46499  _normalLockedTokens.at(index) */\n      swap2\n      swap1\n      0xffffffff\n      and\n      jump\t// in\n    tag_207:\n        /* \"pinkLockV2(NormalLock).sol\":46451:46500  cumulativeLockInfo[_normalLockedTokens.at(index)] */\n      0xffffffffffffffffffffffffffffffffffffffff\n      and\n      0xffffffffffffffffffffffffffffffffffffffff\n      and\n      dup2\n      mstore\n      0x20\n      add\n      swap1\n      dup2\n      mstore\n      0x20\n      add\n      0x00\n      keccak256\n        /* \"pinkLockV2(NormalLock).sol\":46444:46500  return cumulativeLockInfo[_normalLockedTokens.at(index)] */\n      mload(0x40)\n      dup1\n      0x40\n      add\n      0x40\n      mstore\n      swap1\n      dup2\n      0x00\n      dup3\n      add\n      0x00\n      swap1\n      sload\n      swap1\n      0x0100\n      exp\n      swap1\n      div\n      0xffffffffffffffffffffffffffffffffffffffff\n      and\n      0xffffffffffffffffffffffffffffffffffffffff\n      and\n      0xffffffffffffffffffffffffffffffffffffffff\n      and\n      dup2\n      mstore\n      0x20\n      add\n      0x01\n      dup3\n      add\n      sload\n      dup2\n      mstore\n      pop\n      pop\n      swap1\n      pop\n        /* \"pinkLockV2(NormalLock).sol\":46292:46508  function getCumulativeNormalTokenLockInfoAt(uint256 index)\r... */\n      swap2\n      swap1\n      pop\n      jump\t// out\n        /* \"pinkLockV2(NormalLock).sol\":38190:38968  function lock(\r... */\n    tag_74:\n        /* \"pinkLockV2(NormalLock).sol\":38376:38386  uint256 id */\n      0x00\n        /* \"pinkLockV2(NormalLock).sol\":38434:38449  block.timestamp */\n      timestamp\n        /* \"pinkLockV2(NormalLock).sol\":38421:38431  unlockDate */\n      dup4\n        /* \"pinkLockV2(NormalLock).sol\":38421:38449  unlockDate > block.timestamp */\n      gt\n        /* \"pinkLockV2(NormalLock).sol\":38399:38512  require(\r... */\n      tag_209\n      jumpi\n      mload(0x40)\n      0x08c379a000000000000000000000000000000000000000000000000000000000\n      dup2\n      mstore\n      0x04\n      add\n      tag_210\n      swap1\n      tag_211\n      jump\t// in\n    tag_210:\n      mload(0x40)\n      dup1\n      swap2\n      sub\n      swap1\n      revert\n    tag_209:\n        /* \"pinkLockV2(NormalLock).sol\":38540:38541  0 */\n      0x00\n        /* \"pinkLockV2(NormalLock).sol\":38531:38537  amount */\n      dup5\n        /* \"pinkLockV2(NormalLock).sol\":38531:38541  amount > 0 */\n      gt\n        /* \"pinkLockV2(NormalLock).sol\":38523:38577  require(amount > 0, \"Amount should be greater than 0\") */\n      tag_212\n      jumpi\n      mload(0x40)\n      0x08c379a000000000000000000000000000000000000000000000000000000000\n      dup2\n      mstore\n      0x04\n      add\n      tag_213\n      swap1\n      tag_214\n      jump\t// in\n    tag_213:\n      mload(0x40)\n      dup1\n      swap2\n      sub\n      swap1\n      revert\n    tag_212:\n        /* \"pinkLockV2(NormalLock).sol\":38593:38727  _createLock(\r... */\n      tag_215\n        /* \"pinkLockV2(NormalLock).sol\":38619:38624  owner */\n      dup7\n        /* \"pinkLockV2(NormalLock).sol\":38639:38644  token */\n      dup7\n        /* \"pinkLockV2(NormalLock).sol\":38659:38665  amount */\n      dup7\n        /* \"pinkLockV2(NormalLock).sol\":38680:38690  unlockDate */\n      dup7\n        /* \"pinkLockV2(NormalLock).sol\":38705:38716  description */\n      dup7\n        /* \"pinkLockV2(NormalLock).sol\":38593:38604  _createLock */\n      tag_216\n        /* \"pinkLockV2(NormalLock).sol\":38593:38727  _createLock(\r... */\n      jump\t// in\n    tag_215:\n        /* \"pinkLockV2(NormalLock).sol\":38588:38727  id = _createLock(\r... */\n      swap1\n      pop\n        /* \"pinkLockV2(NormalLock).sol\":38738:38877  _safeTransferFromEnsureExactAmount(\r... */\n      tag_217\n        /* \"pinkLockV2(NormalLock).sol\":38787:38792  token */\n      dup6\n        /* \"pinkLockV2(NormalLock).sol\":38807:38817  msg.sender */\n      caller\n        /* \"pinkLockV2(NormalLock).sol\":38840:38844  this */\n      address\n        /* \"pinkLockV2(NormalLock).sol\":38860:38866  amount */\n      dup8\n        /* \"pinkLockV2(NormalLock).sol\":38738:38772  _safeTransferFromEnsureExactAmount */\n      tag_218\n        /* \"pinkLockV2(NormalLock).sol\":38738:38877  _safeTransferFromEnsureExactAmount(\r... */\n      jump\t// in\n    tag_217:\n        /* \"pinkLockV2(NormalLock).sol\":38903:38905  id */\n      dup1\n        /* \"pinkLockV2(NormalLock).sol\":38893:38940  LockAdded(id, token, owner, amount, unlockDate) */\n      0x694af1cc8727cdd0afbdd53d9b87b69248bd490224e9dd090e788546506e076f\n        /* \"pinkLockV2(NormalLock).sol\":38907:38912  token */\n      dup7\n        /* \"pinkLockV2(NormalLock).sol\":38914:38919  owner */\n      dup9\n        /* \"pinkLockV2(NormalLock).sol\":38921:38927  amount */\n      dup8\n        /* \"pinkLockV2(NormalLock).sol\":38929:38939  unlockDate */\n      dup8\n        /* \"pinkLockV2(NormalLock).sol\":38893:38940  LockAdded(id, token, owner, amount, unlockDate) */\n      mload(0x40)\n      tag_219\n      swap5\n      swap4\n      swap3\n      swap2\n      swap1\n      tag_220\n      jump\t// in\n    tag_219:\n      mload(0x40)\n      dup1\n      swap2\n      sub\n      swap1\n      log2\n        /* \"pinkLockV2(NormalLock).sol\":38190:38968  function lock(\r... */\n      swap6\n      swap5\n      pop\n      pop\n      pop\n      pop\n      pop\n      jump\t// out\n        /* \"pinkLockV2(NormalLock).sol\":44784:44900  function renounceLockOwnership(uint256 lockId) external {\r... */\n    tag_78:\n        /* \"pinkLockV2(NormalLock).sol\":44851:44892  transferLockOwnership(lockId, address(0)) */\n      tag_222\n        /* \"pinkLockV2(NormalLock).sol\":44873:44879  lockId */\n      dup2\n        /* \"pinkLockV2(NormalLock).sol\":44889:44890  0 */\n      0x00\n        /* \"pinkLockV2(NormalLock).sol\":44851:44872  transferLockOwnership */\n      tag_47\n        /* \"pinkLockV2(NormalLock).sol\":44851:44892  transferLockOwnership(lockId, address(0)) */\n      jump\t// in\n    tag_222:\n        /* \"pinkLockV2(NormalLock).sol\":44784:44900  function renounceLockOwnership(uint256 lockId) external {\r... */\n      pop\n      jump\t// out\n        /* \"pinkLockV2(NormalLock).sol\":42115:43789  function editLock(\r... */\n    tag_82:\n        /* \"pinkLockV2(NormalLock).sol\":42253:42259  lockId */\n      dup3\n        /* \"pinkLockV2(NormalLock).sol\":38139:38162  _getActualIndex(lockId) */\n      tag_224\n        /* \"pinkLockV2(NormalLock).sol\":38155:38161  lockId */\n      dup2\n        /* \"pinkLockV2(NormalLock).sol\":38139:38154  _getActualIndex */\n      tag_108\n        /* \"pinkLockV2(NormalLock).sol\":38139:38162  _getActualIndex(lockId) */\n      jump\t// in\n    tag_224:\n      pop\n        /* \"pinkLockV2(NormalLock).sol\":42272:42293  Lock storage userLock */\n      0x00\n        /* \"pinkLockV2(NormalLock).sol\":42296:42302  _locks */\n      0x01\n        /* \"pinkLockV2(NormalLock).sol\":42303:42309  lockId */\n      dup6\n        /* \"pinkLockV2(NormalLock).sol\":42296:42310  _locks[lockId] */\n      dup2\n      sload\n      dup2\n      lt\n      tag_226\n      jumpi\n      mstore(0x00, 0x4e487b7100000000000000000000000000000000000000000000000000000000)\n      mstore(0x04, 0x32)\n      revert(0x00, 0x24)\n    tag_226:\n      swap1\n      0x00\n      mstore\n      keccak256(0x00, 0x20)\n      swap1\n      0x08\n      mul\n      add\n        /* \"pinkLockV2(NormalLock).sol\":42272:42310  Lock storage userLock = _locks[lockId] */\n      swap1\n      pop\n        /* \"pinkLockV2(NormalLock).sol\":42372:42382  msg.sender */\n      caller\n        /* \"pinkLockV2(NormalLock).sol\":42354:42382  userLock.owner == msg.sender */\n      0xffffffffffffffffffffffffffffffffffffffff\n      and\n        /* \"pinkLockV2(NormalLock).sol\":42354:42362  userLock */\n      dup2\n        /* \"pinkLockV2(NormalLock).sol\":42354:42368  userLock.owner */\n      0x02\n      add\n      0x00\n      swap1\n      sload\n      swap1\n      0x0100\n      exp\n      swap1\n      div\n      0xffffffffffffffffffffffffffffffffffffffff\n      and\n        /* \"pinkLockV2(NormalLock).sol\":42354:42382  userLock.owner == msg.sender */\n      0xffffffffffffffffffffffffffffffffffffffff\n      and\n      eq\n        /* \"pinkLockV2(NormalLock).sol\":42332:42444  require(\r... */\n      tag_228\n      jumpi\n      mload(0x40)\n      0x08c379a000000000000000000000000000000000000000000000000000000000\n      dup2\n      mstore\n      0x04\n      add\n      tag_229\n      swap1\n      tag_160\n      jump\t// in\n    tag_229:\n      mload(0x40)\n      dup1\n      swap2\n      sub\n      swap1\n      revert\n    tag_228:\n        /* \"pinkLockV2(NormalLock).sol\":42490:42491  0 */\n      0x00\n        /* \"pinkLockV2(NormalLock).sol\":42463:42471  userLock */\n      dup2\n        /* \"pinkLockV2(NormalLock).sol\":42463:42486  userLock.unlockedAmount */\n      0x06\n      add\n      sload\n        /* \"pinkLockV2(NormalLock).sol\":42463:42491  userLock.unlockedAmount == 0 */\n      eq\n        /* \"pinkLockV2(NormalLock).sol\":42455:42513  require(userLock.unlockedAmount == 0, \"Lock was unlocked\") */\n      tag_230\n      jumpi\n      mload(0x40)\n      0x08c379a000000000000000000000000000000000000000000000000000000000\n      dup2\n      mstore\n      0x04\n      add\n      tag_231\n      swap1\n      tag_232\n      jump\t// in\n    tag_231:\n      mload(0x40)\n      dup1\n      swap2\n      sub\n      swap1\n      revert\n    tag_230:\n        /* \"pinkLockV2(NormalLock).sol\":42546:42547  0 */\n      0x00\n        /* \"pinkLockV2(NormalLock).sol\":42530:42543  newUnlockDate */\n      dup4\n        /* \"pinkLockV2(NormalLock).sol\":42530:42547  newUnlockDate > 0 */\n      gt\n        /* \"pinkLockV2(NormalLock).sol\":42526:42848  if (newUnlockDate > 0) {\r... */\n      iszero\n      tag_233\n      jumpi\n        /* \"pinkLockV2(NormalLock).sol\":42607:42615  userLock */\n      dup1\n        /* \"pinkLockV2(NormalLock).sol\":42607:42626  userLock.unlockDate */\n      0x05\n      add\n      sload\n        /* \"pinkLockV2(NormalLock).sol\":42590:42603  newUnlockDate */\n      dup4\n        /* \"pinkLockV2(NormalLock).sol\":42590:42626  newUnlockDate >= userLock.unlockDate */\n      lt\n      iszero\n        /* \"pinkLockV2(NormalLock).sol\":42590:42682  newUnlockDate >= userLock.unlockDate &&\r... */\n      dup1\n      iszero\n      tag_234\n      jumpi\n      pop\n        /* \"pinkLockV2(NormalLock).sol\":42667:42682  block.timestamp */\n      timestamp\n        /* \"pinkLockV2(NormalLock).sol\":42651:42664  newUnlockDate */\n      dup4\n        /* \"pinkLockV2(NormalLock).sol\":42651:42682  newUnlockDate > block.timestamp */\n      gt\n        /* \"pinkLockV2(NormalLock).sol\":42590:42682  newUnlockDate >= userLock.unlockDate &&\r... */\n    tag_234:\n        /* \"pinkLockV2(NormalLock).sol\":42564:42786  require(\r... */\n      tag_235\n      jumpi\n      mload(0x40)\n      0x08c379a000000000000000000000000000000000000000000000000000000000\n      dup2\n      mstore\n      0x04\n      add\n      tag_236\n      swap1\n      tag_237\n      jump\t// in\n    tag_236:\n      mload(0x40)\n      dup1\n      swap2\n      sub\n      swap1\n      revert\n    tag_235:\n        /* \"pinkLockV2(NormalLock).sol\":42823:42836  newUnlockDate */\n      dup3\n        /* \"pinkLockV2(NormalLock).sol\":42801:42809  userLock */\n      dup2\n        /* \"pinkLockV2(NormalLock).sol\":42801:42820  userLock.unlockDate */\n      0x05\n      add\n        /* \"pinkLockV2(NormalLock).sol\":42801:42836  userLock.unlockDate = newUnlockDate */\n      dup2\n      swap1\n      sstore\n      pop\n        /* \"pinkLockV2(NormalLock).sol\":42526:42848  if (newUnlockDate > 0) {\r... */\n    tag_233:\n        /* \"pinkLockV2(NormalLock).sol\":42876:42877  0 */\n      0x00\n        /* \"pinkLockV2(NormalLock).sol\":42864:42873  newAmount */\n      dup5\n        /* \"pinkLockV2(NormalLock).sol\":42864:42877  newAmount > 0 */\n      gt\n        /* \"pinkLockV2(NormalLock).sol\":42860:43594  if (newAmount > 0) {\r... */\n      iszero\n      tag_238\n      jumpi\n        /* \"pinkLockV2(NormalLock).sol\":42933:42941  userLock */\n      dup1\n        /* \"pinkLockV2(NormalLock).sol\":42933:42948  userLock.amount */\n      0x03\n      add\n      sload\n        /* \"pinkLockV2(NormalLock).sol\":42920:42929  newAmount */\n      dup5\n        /* \"pinkLockV2(NormalLock).sol\":42920:42948  newAmount >= userLock.amount */\n      lt\n      iszero\n        /* \"pinkLockV2(NormalLock).sol\":42894:43033  require(\r... */\n      tag_239\n      jumpi\n      mload(0x40)\n      0x08c379a000000000000000000000000000000000000000000000000000000000\n      dup2\n      mstore\n      0x04\n      add\n      tag_240\n      swap1\n      tag_241\n      jump\t// in\n    tag_240:\n      mload(0x40)\n      dup1\n      swap2\n      sub\n      swap1\n      revert\n    tag_239:\n        /* \"pinkLockV2(NormalLock).sol\":43050:43062  uint256 diff */\n      0x00\n        /* \"pinkLockV2(NormalLock).sol\":43077:43085  userLock */\n      dup2\n        /* \"pinkLockV2(NormalLock).sol\":43077:43092  userLock.amount */\n      0x03\n      add\n      sload\n        /* \"pinkLockV2(NormalLock).sol\":43065:43074  newAmount */\n      dup6\n        /* \"pinkLockV2(NormalLock).sol\":43065:43092  newAmount - userLock.amount */\n      tag_242\n      swap2\n      swap1\n      tag_132\n      jump\t// in\n    tag_242:\n        /* \"pinkLockV2(NormalLock).sol\":43050:43092  uint256 diff = newAmount - userLock.amount */\n      swap1\n      pop\n        /* \"pinkLockV2(NormalLock).sol\":43120:43121  0 */\n      0x00\n        /* \"pinkLockV2(NormalLock).sol\":43113:43117  diff */\n      dup2\n        /* \"pinkLockV2(NormalLock).sol\":43113:43121  diff > 0 */\n      gt\n        /* \"pinkLockV2(NormalLock).sol\":43109:43583  if (diff > 0) {\r... */\n      iszero\n      tag_243\n      jumpi\n        /* \"pinkLockV2(NormalLock).sol\":43160:43169  newAmount */\n      dup5\n        /* \"pinkLockV2(NormalLock).sol\":43142:43150  userLock */\n      dup3\n        /* \"pinkLockV2(NormalLock).sol\":43142:43157  userLock.amount */\n      0x03\n      add\n        /* \"pinkLockV2(NormalLock).sol\":43142:43169  userLock.amount = newAmount */\n      dup2\n      swap1\n      sstore\n      pop\n        /* \"pinkLockV2(NormalLock).sol\":43188:43224  CumulativeLockInfo storage tokenInfo */\n      0x00\n        /* \"pinkLockV2(NormalLock).sol\":43227:43245  cumulativeLockInfo */\n      0x05\n        /* \"pinkLockV2(NormalLock).sol\":43227:43301  cumulativeLockInfo[\r... */\n      0x00\n        /* \"pinkLockV2(NormalLock).sol\":43268:43276  userLock */\n      dup5\n        /* \"pinkLockV2(NormalLock).sol\":43268:43282  userLock.token */\n      0x01\n      add\n      0x00\n      swap1\n      sload\n      swap1\n      0x0100\n      exp\n      swap1\n      div\n      0xffffffffffffffffffffffffffffffffffffffff\n      and\n        /* \"pinkLockV2(NormalLock).sol\":43227:43301  cumulativeLockInfo[\r... */\n      0xffffffffffffffffffffffffffffffffffffffff\n      and\n      0xffffffffffffffffffffffffffffffffffffffff\n      and\n      dup2\n      mstore\n      0x20\n      add\n      swap1\n      dup2\n      mstore\n      0x20\n      add\n      0x00\n      keccak256\n        /* \"pinkLockV2(NormalLock).sol\":43188:43301  CumulativeLockInfo storage tokenInfo = cumulativeLockInfo[\r... */\n      swap1\n      pop\n        /* \"pinkLockV2(NormalLock).sol\":43358:43362  diff */\n      dup2\n        /* \"pinkLockV2(NormalLock).sol\":43339:43348  tokenInfo */\n      dup2\n        /* \"pinkLockV2(NormalLock).sol\":43339:43355  tokenInfo.amount */\n      0x01\n      add\n      sload\n        /* \"pinkLockV2(NormalLock).sol\":43339:43362  tokenInfo.amount + diff */\n      tag_244\n      swap2\n      swap1\n      tag_135\n      jump\t// in\n    tag_244:\n        /* \"pinkLockV2(NormalLock).sol\":43320:43329  tokenInfo */\n      dup2\n        /* \"pinkLockV2(NormalLock).sol\":43320:43336  tokenInfo.amount */\n      0x01\n      add\n        /* \"pinkLockV2(NormalLock).sol\":43320:43362  tokenInfo.amount = tokenInfo.amount + diff */\n      dup2\n      swap1\n      sstore\n      pop\n        /* \"pinkLockV2(NormalLock).sol\":43381:43567  _safeTransferFromEnsureExactAmount(\r... */\n      tag_245\n        /* \"pinkLockV2(NormalLock).sol\":43438:43446  userLock */\n      dup4\n        /* \"pinkLockV2(NormalLock).sol\":43438:43452  userLock.token */\n      0x01\n      add\n      0x00\n      swap1\n      sload\n      swap1\n      0x0100\n      exp\n      swap1\n      div\n      0xffffffffffffffffffffffffffffffffffffffff\n      and\n        /* \"pinkLockV2(NormalLock).sol\":43475:43485  msg.sender */\n      caller\n        /* \"pinkLockV2(NormalLock).sol\":43516:43520  this */\n      address\n        /* \"pinkLockV2(NormalLock).sol\":43544:43548  diff */\n      dup6\n        /* \"pinkLockV2(NormalLock).sol\":43381:43415  _safeTransferFromEnsureExactAmount */\n      tag_218\n        /* \"pinkLockV2(NormalLock).sol\":43381:43567  _safeTransferFromEnsureExactAmount(\r... */\n      jump\t// in\n    tag_245:\n        /* \"pinkLockV2(NormalLock).sol\":43109:43583  if (diff > 0) {\r... */\n      pop\n    tag_243:\n        /* \"pinkLockV2(NormalLock).sol\":42860:43594  if (newAmount > 0) {\r... */\n      pop\n    tag_238:\n        /* \"pinkLockV2(NormalLock).sol\":43637:43645  userLock */\n      dup1\n        /* \"pinkLockV2(NormalLock).sol\":43637:43648  userLock.id */\n      0x00\n      add\n      sload\n        /* \"pinkLockV2(NormalLock).sol\":43611:43781  LockUpdated(\r... */\n      0xa8b26360df8d5e154ffa5a8a7e894e85f781acfbbef0b744fb9551d8fd0fd36c\n        /* \"pinkLockV2(NormalLock).sol\":43663:43671  userLock */\n      dup3\n        /* \"pinkLockV2(NormalLock).sol\":43663:43677  userLock.token */\n      0x01\n      add\n      0x00\n      swap1\n      sload\n      swap1\n      0x0100\n      exp\n      swap1\n      div\n      0xffffffffffffffffffffffffffffffffffffffff\n      and\n        /* \"pinkLockV2(NormalLock).sol\":43692:43700  userLock */\n      dup4\n        /* \"pinkLockV2(NormalLock).sol\":43692:43706  userLock.owner */\n      0x02\n      add\n      0x00\n      swap1\n      sload\n      swap1\n      0x0100\n      exp\n      swap1\n      div\n      0xffffffffffffffffffffffffffffffffffffffff\n      and\n        /* \"pinkLockV2(NormalLock).sol\":43721:43729  userLock */\n      dup5\n        /* \"pinkLockV2(NormalLock).sol\":43721:43736  userLock.amount */\n      0x03\n      add\n      sload\n        /* \"pinkLockV2(NormalLock).sol\":43751:43759  userLock */\n      dup6\n        /* \"pinkLockV2(NormalLock).sol\":43751:43770  userLock.unlockDate */\n      0x05\n      add\n      sload\n        /* \"pinkLockV2(NormalLock).sol\":43611:43781  LockUpdated(\r... */\n      mload(0x40)\n      tag_246\n      swap5\n      swap4\n      swap3\n      swap2\n      swap1\n      tag_220\n      jump\t// in\n    tag_246:\n      mload(0x40)\n      dup1\n      swap2\n      sub\n      swap1\n      log2\n        /* \"pinkLockV2(NormalLock).sol\":38173:38174  _ */\n      pop\n        /* \"pinkLockV2(NormalLock).sol\":42115:43789  function editLock(\r... */\n      pop\n      pop\n      pop\n      pop\n      jump\t// out\n        /* \"pinkLockV2(NormalLock).sol\":43797:44202  function editLockDescription(uint256 lockId, string memory description)\r... */\n    tag_86:\n        /* \"pinkLockV2(NormalLock).sol\":43906:43912  lockId */\n      dup2\n        /* \"pinkLockV2(NormalLock).sol\":38139:38162  _getActualIndex(lockId) */\n      tag_248\n        /* \"pinkLockV2(NormalLock).sol\":38155:38161  lockId */\n      dup2\n        /* \"pinkLockV2(NormalLock).sol\":38139:38154  _getActualIndex */\n      tag_108\n        /* \"pinkLockV2(NormalLock).sol\":38139:38162  _getActualIndex(lockId) */\n      jump\t// in\n    tag_248:\n      pop\n        /* \"pinkLockV2(NormalLock).sol\":43930:43951  Lock storage userLock */\n      0x00\n        /* \"pinkLockV2(NormalLock).sol\":43954:43960  _locks */\n      0x01\n        /* \"pinkLockV2(NormalLock).sol\":43961:43967  lockId */\n      dup5\n        /* \"pinkLockV2(NormalLock).sol\":43954:43968  _locks[lockId] */\n      dup2\n      sload\n      dup2\n      lt\n      tag_250\n      jumpi\n      mstore(0x00, 0x4e487b7100000000000000000000000000000000000000000000000000000000)\n      mstore(0x04, 0x32)\n      revert(0x00, 0x24)\n    tag_250:\n      swap1\n      0x00\n      mstore\n      keccak256(0x00, 0x20)\n      swap1\n      0x08\n      mul\n      add\n        /* \"pinkLockV2(NormalLock).sol\":43930:43968  Lock storage userLock = _locks[lockId] */\n      swap1\n      pop\n        /* \"pinkLockV2(NormalLock).sol\":44031:44041  msg.sender */\n      caller\n        /* \"pinkLockV2(NormalLock).sol\":44013:44041  userLock.owner == msg.sender */\n      0xffffffffffffffffffffffffffffffffffffffff\n      and\n        /* \"pinkLockV2(NormalLock).sol\":44013:44021  userLock */\n      dup2\n        /* \"pinkLockV2(NormalLock).sol\":44013:44027  userLock.owner */\n      0x02\n      add\n      0x00\n      swap1\n      sload\n      swap1\n      0x0100\n      exp\n      swap1\n      div\n      0xffffffffffffffffffffffffffffffffffffffff\n      and\n        /* \"pinkLockV2(NormalLock).sol\":44013:44041  userLock.owner == msg.sender */\n      0xffffffffffffffffffffffffffffffffffffffff\n      and\n      eq\n        /* \"pinkLockV2(NormalLock).sol\":43991:44103  require(\r... */\n      tag_252\n      jumpi\n      mload(0x40)\n      0x08c379a000000000000000000000000000000000000000000000000000000000\n      dup2\n      mstore\n      0x04\n      add\n      tag_253\n      swap1\n      tag_160\n      jump\t// in\n    tag_253:\n      mload(0x40)\n      dup1\n      swap2\n      sub\n      swap1\n      revert\n    tag_252:\n        /* \"pinkLockV2(NormalLock).sol\":44137:44148  description */\n      dup3\n        /* \"pinkLockV2(NormalLock).sol\":44114:44122  userLock */\n      dup2\n        /* \"pinkLockV2(NormalLock).sol\":44114:44134  userLock.description */\n      0x07\n      add\n        /* \"pinkLockV2(NormalLock).sol\":44114:44148  userLock.description = description */\n      swap1\n      dup1\n      mload\n      swap1\n      0x20\n      add\n      swap1\n      tag_254\n      swap3\n      swap2\n      swap1\n      tag_255\n      jump\t// in\n    tag_254:\n      pop\n        /* \"pinkLockV2(NormalLock).sol\":44164:44194  LockDescriptionChanged(lockId) */\n      0xe4a1120fd509c50aec65802fd3c3c9a4b72bf746fe9a552396185c6de928e8aa\n        /* \"pinkLockV2(NormalLock).sol\":44187:44193  lockId */\n      dup5\n        /* \"pinkLockV2(NormalLock).sol\":44164:44194  LockDescriptionChanged(lockId) */\n      mload(0x40)\n      tag_256\n      swap2\n      swap1\n      tag_43\n      jump\t// in\n    tag_256:\n      mload(0x40)\n      dup1\n      swap2\n      sub\n      swap1\n      log1\n        /* \"pinkLockV2(NormalLock).sol\":38173:38174  _ */\n      pop\n        /* \"pinkLockV2(NormalLock).sol\":43797:44202  function editLockDescription(uint256 lockId, string memory description)\r... */\n      pop\n      pop\n      pop\n      jump\t// out\n        /* \"pinkLockV2(NormalLock).sol\":47370:47767  function normalLocksForUser(address user)\r... */\n    tag_90:\n        /* \"pinkLockV2(NormalLock).sol\":47462:47475  Lock[] memory */\n      0x60\n        /* \"pinkLockV2(NormalLock).sol\":47493:47507  uint256 length */\n      0x00\n        /* \"pinkLockV2(NormalLock).sol\":47510:47543  _userNormalLockIds[user].length() */\n      tag_258\n        /* \"pinkLockV2(NormalLock).sol\":47510:47528  _userNormalLockIds */\n      0x02\n        /* \"pinkLockV2(NormalLock).sol\":47510:47534  _userNormalLockIds[user] */\n      0x00\n        /* \"pinkLockV2(NormalLock).sol\":47529:47533  user */\n      dup6\n        /* \"pinkLockV2(NormalLock).sol\":47510:47534  _userNormalLockIds[user] */\n      0xffffffffffffffffffffffffffffffffffffffff\n      and\n      0xffffffffffffffffffffffffffffffffffffffff\n      and\n      dup2\n      mstore\n      0x20\n      add\n      swap1\n      dup2\n      mstore\n      0x20\n      add\n      0x00\n      keccak256\n        /* \"pinkLockV2(NormalLock).sol\":47510:47541  _userNormalLockIds[user].length */\n      tag_128\n        /* \"pinkLockV2(NormalLock).sol\":47510:47543  _userNormalLockIds[user].length() */\n      jump\t// in\n    tag_258:\n        /* \"pinkLockV2(NormalLock).sol\":47493:47543  uint256 length = _userNormalLockIds[user].length() */\n      swap1\n      pop\n        /* \"pinkLockV2(NormalLock).sol\":47554:47577  Lock[] memory userLocks */\n      0x00\n        /* \"pinkLockV2(NormalLock).sol\":47591:47597  length */\n      dup2\n        /* \"pinkLockV2(NormalLock).sol\":47580:47598  new Lock[](length) */\n      0xffffffffffffffff\n      dup2\n      gt\n      iszero\n      tag_259\n      jumpi\n      mstore(0x00, 0x4e487b7100000000000000000000000000000000000000000000000000000000)\n      mstore(0x04, 0x41)\n      revert(0x00, 0x24)\n    tag_259:\n      mload(0x40)\n      swap1\n      dup1\n      dup3\n      mstore\n      dup1\n      0x20\n      mul\n      0x20\n      add\n      dup3\n      add\n      0x40\n      mstore\n      dup1\n      iszero\n      tag_260\n      jumpi\n      dup2\n      0x20\n      add\n    tag_261:\n      tag_262\n      tag_105\n      jump\t// in\n    tag_262:\n      dup2\n      mstore\n      0x20\n      add\n      swap1\n      0x01\n      swap1\n      sub\n      swap1\n      dup2\n      tag_261\n      jumpi\n      swap1\n      pop\n    tag_260:\n      pop\n        /* \"pinkLockV2(NormalLock).sol\":47554:47598  Lock[] memory userLocks = new Lock[](length) */\n      swap1\n      pop\n        /* \"pinkLockV2(NormalLock).sol\":47616:47625  uint256 i */\n      0x00\n        /* \"pinkLockV2(NormalLock).sol\":47611:47733  for (uint256 i = 0; i < length; i++) {\r... */\n    tag_263:\n        /* \"pinkLockV2(NormalLock).sol\":47635:47641  length */\n      dup3\n        /* \"pinkLockV2(NormalLock).sol\":47631:47632  i */\n      dup2\n        /* \"pinkLockV2(NormalLock).sol\":47631:47641  i < length */\n      lt\n        /* \"pinkLockV2(NormalLock).sol\":47611:47733  for (uint256 i = 0; i < length; i++) {\r... */\n      iszero\n      tag_264\n      jumpi\n        /* \"pinkLockV2(NormalLock).sol\":47678:47721  getLockById(_userNormalLockIds[user].at(i)) */\n      tag_266\n        /* \"pinkLockV2(NormalLock).sol\":47690:47720  _userNormalLockIds[user].at(i) */\n      tag_267\n        /* \"pinkLockV2(NormalLock).sol\":47718:47719  i */\n      dup3\n        /* \"pinkLockV2(NormalLock).sol\":47690:47708  _userNormalLockIds */\n      0x02\n        /* \"pinkLockV2(NormalLock).sol\":47690:47714  _userNormalLockIds[user] */\n      0x00\n        /* \"pinkLockV2(NormalLock).sol\":47709:47713  user */\n      dup10\n        /* \"pinkLockV2(NormalLock).sol\":47690:47714  _userNormalLockIds[user] */\n      0xffffffffffffffffffffffffffffffffffffffff\n      and\n      0xffffffffffffffffffffffffffffffffffffffff\n      and\n      dup2\n      mstore\n      0x20\n      add\n      swap1\n      dup2\n      mstore\n      0x20\n      add\n      0x00\n      keccak256\n        /* \"pinkLockV2(NormalLock).sol\":47690:47717  _userNormalLockIds[user].at */\n      tag_145\n      swap1\n        /* \"pinkLockV2(NormalLock).sol\":47690:47720  _userNormalLockIds[user].at(i) */\n      swap2\n      swap1\n      0xffffffff\n      and\n      jump\t// in\n    tag_267:\n        /* \"pinkLockV2(NormalLock).sol\":47678:47689  getLockById */\n      tag_27\n        /* \"pinkLockV2(NormalLock).sol\":47678:47721  getLockById(_userNormalLockIds[user].at(i)) */\n      jump\t// in\n    tag_266:\n        /* \"pinkLockV2(NormalLock).sol\":47663:47672  userLocks */\n      dup3\n        /* \"pinkLockV2(NormalLock).sol\":47673:47674  i */\n      dup3\n        /* \"pinkLockV2(NormalLock).sol\":47663:47675  userLocks[i] */\n      dup2\n      mload\n      dup2\n      lt\n      tag_268\n      jumpi\n      mstore(0x00, 0x4e487b7100000000000000000000000000000000000000000000000000000000)\n      mstore(0x04, 0x32)\n      revert(0x00, 0x24)\n    tag_268:\n      0x20\n      mul\n      0x20\n      add\n      add\n        /* \"pinkLockV2(NormalLock).sol\":47663:47721  userLocks[i] = getLockById(_userNormalLockIds[user].at(i)) */\n      dup2\n      swap1\n      mstore\n      pop\n        /* \"pinkLockV2(NormalLock).sol\":47643:47646  i++ */\n      dup1\n      dup1\n      tag_269\n      swap1\n      tag_148\n      jump\t// in\n    tag_269:\n      swap2\n      pop\n      pop\n        /* \"pinkLockV2(NormalLock).sol\":47611:47733  for (uint256 i = 0; i < length; i++) {\r... */\n      jump(tag_263)\n    tag_264:\n      pop\n        /* \"pinkLockV2(NormalLock).sol\":47750:47759  userLocks */\n      dup1\n        /* \"pinkLockV2(NormalLock).sol\":47743:47759  return userLocks */\n      swap3\n      pop\n      pop\n      pop\n        /* \"pinkLockV2(NormalLock).sol\":47370:47767  function normalLocksForUser(address user)\r... */\n      swap2\n      swap1\n      pop\n      jump\t// out\n        /* \"pinkLockV2(NormalLock).sol\":37321:37385  mapping(address => CumulativeLockInfo) public cumulativeLockInfo */\n    tag_94:\n      mstore(0x20, 0x05)\n      dup1\n      0x00\n      mstore\n      keccak256(0x00, 0x40)\n      0x00\n      swap2\n      pop\n      swap1\n      pop\n      dup1\n      0x00\n      add\n      0x00\n      swap1\n      sload\n      swap1\n      0x0100\n      exp\n      swap1\n      div\n      0xffffffffffffffffffffffffffffffffffffffff\n      and\n      swap1\n      dup1\n      0x01\n      add\n      sload\n      swap1\n      pop\n      dup3\n      jump\t// out\n        /* \"pinkLockV2(NormalLock).sol\":47195:47362  function normalLockCountForUser(address user)\r... */\n    tag_99:\n        /* \"pinkLockV2(NormalLock).sol\":47289:47296  uint256 */\n      0x00\n        /* \"pinkLockV2(NormalLock).sol\":47321:47354  _userNormalLockIds[user].length() */\n      tag_271\n        /* \"pinkLockV2(NormalLock).sol\":47321:47339  _userNormalLockIds */\n      0x02\n        /* \"pinkLockV2(NormalLock).sol\":47321:47345  _userNormalLockIds[user] */\n      0x00\n        /* \"pinkLockV2(NormalLock).sol\":47340:47344  user */\n      dup5\n        /* \"pinkLockV2(NormalLock).sol\":47321:47345  _userNormalLockIds[user] */\n      0xffffffffffffffffffffffffffffffffffffffff\n      and\n      0xffffffffffffffffffffffffffffffffffffffff\n      and\n      dup2\n      mstore\n      0x20\n      add\n      swap1\n      dup2\n      mstore\n      0x20\n      add\n      0x00\n      keccak256\n        /* \"pinkLockV2(NormalLock).sol\":47321:47352  _userNormalLockIds[user].length */\n      tag_128\n        /* \"pinkLockV2(NormalLock).sol\":47321:47354  _userNormalLockIds[user].length() */\n      jump\t// in\n    tag_271:\n        /* \"pinkLockV2(NormalLock).sol\":47314:47354  return _userNormalLockIds[user].length() */\n      swap1\n      pop\n        /* \"pinkLockV2(NormalLock).sol\":47195:47362  function normalLockCountForUser(address user)\r... */\n      swap2\n      swap1\n      pop\n      jump\t// out\n        /* \"pinkLockV2(NormalLock).sol\":45714:45902  function getTotalLockCount() external view returns (uint256) {\r... */\n    tag_102:\n        /* \"pinkLockV2(NormalLock).sol\":45766:45773  uint256 */\n      0x00\n        /* \"pinkLockV2(NormalLock).sol\":45881:45887  _locks */\n      0x01\n        /* \"pinkLockV2(NormalLock).sol\":45881:45894  _locks.length */\n      dup1\n      sload\n      swap1\n      pop\n        /* \"pinkLockV2(NormalLock).sol\":45874:45894  return _locks.length */\n      swap1\n      pop\n        /* \"pinkLockV2(NormalLock).sol\":45714:45902  function getTotalLockCount() external view returns (uint256) {\r... */\n      swap1\n      jump\t// out\n        /* \"pinkLockV2(NormalLock).sol\":48657:48893  function _getActualIndex(uint256 lockId) internal view returns (uint256) {\r... */\n    tag_108:\n        /* \"pinkLockV2(NormalLock).sol\":48721:48728  uint256 */\n      0x00\n        /* \"pinkLockV2(NormalLock).sol\":48751:48770  uint256 actualIndex */\n      dup1\n        /* \"pinkLockV2(NormalLock).sol\":48773:48779  lockId */\n      dup3\n        /* \"pinkLockV2(NormalLock).sol\":48751:48779  uint256 actualIndex = lockId */\n      swap1\n      pop\n        /* \"pinkLockV2(NormalLock).sol\":48823:48829  _locks */\n      0x01\n        /* \"pinkLockV2(NormalLock).sol\":48823:48836  _locks.length */\n      dup1\n      sload\n      swap1\n      pop\n        /* \"pinkLockV2(NormalLock).sol\":48809:48820  actualIndex */\n      dup2\n        /* \"pinkLockV2(NormalLock).sol\":48809:48836  actualIndex < _locks.length */\n      lt\n        /* \"pinkLockV2(NormalLock).sol\":48801:48856  require(actualIndex < _locks.length, \"Invalid lock id\") */\n      tag_274\n      jumpi\n      mload(0x40)\n      0x08c379a000000000000000000000000000000000000000000000000000000000\n      dup2\n      mstore\n      0x04\n      add\n      tag_275\n      swap1\n      tag_276\n      jump\t// in\n    tag_275:\n      mload(0x40)\n      dup1\n      swap2\n      sub\n      swap1\n      revert\n    tag_274:\n        /* \"pinkLockV2(NormalLock).sol\":48874:48885  actualIndex */\n      dup1\n        /* \"pinkLockV2(NormalLock).sol\":48867:48885  return actualIndex */\n      swap2\n      pop\n      pop\n        /* \"pinkLockV2(NormalLock).sol\":48657:48893  function _getActualIndex(uint256 lockId) internal view returns (uint256) {\r... */\n      swap2\n      swap1\n      pop\n      jump\t// out\n        /* \"pinkLockV2(NormalLock).sol\":15923:16037  function length(UintSet storage set) internal view returns (uint256) {\r... */\n    tag_128:\n        /* \"pinkLockV2(NormalLock).sol\":15983:15990  uint256 */\n      0x00\n        /* \"pinkLockV2(NormalLock).sol\":16010:16029  _length(set._inner) */\n      tag_278\n        /* \"pinkLockV2(NormalLock).sol\":16018:16021  set */\n      dup3\n        /* \"pinkLockV2(NormalLock).sol\":16018:16028  set._inner */\n      0x00\n      add\n        /* \"pinkLockV2(NormalLock).sol\":16010:16017  _length */\n      tag_279\n        /* \"pinkLockV2(NormalLock).sol\":16010:16029  _length(set._inner) */\n      jump\t// in\n    tag_278:\n        /* \"pinkLockV2(NormalLock).sol\":16003:16029  return _length(set._inner) */\n      swap1\n      pop\n        /* \"pinkLockV2(NormalLock).sol\":15923:16037  function length(UintSet storage set) internal view returns (uint256) {\r... */\n      swap2\n      swap1\n      pop\n      jump\t// out\n        /* \"pinkLockV2(NormalLock).sol\":16391:16528  function at(UintSet storage set, uint256 index) internal view returns (uint256) {\r... */\n    tag_145:\n        /* \"pinkLockV2(NormalLock).sol\":16462:16469  uint256 */\n      0x00\n        /* \"pinkLockV2(NormalLock).sol\":16497:16519  _at(set._inner, index) */\n      tag_281\n        /* \"pinkLockV2(NormalLock).sol\":16501:16504  set */\n      dup4\n        /* \"pinkLockV2(NormalLock).sol\":16501:16511  set._inner */\n      0x00\n      add\n        /* \"pinkLockV2(NormalLock).sol\":16513:16518  index */\n      dup4\n        /* \"pinkLockV2(NormalLock).sol\":16497:16500  _at */\n      tag_282\n        /* \"pinkLockV2(NormalLock).sol\":16497:16519  _at(set._inner, index) */\n      jump\t// in\n    tag_281:\n        /* \"pinkLockV2(NormalLock).sol\":16489:16520  uint256(_at(set._inner, index)) */\n      0x00\n      shr\n        /* \"pinkLockV2(NormalLock).sol\":16482:16520  return uint256(_at(set._inner, index)) */\n      swap1\n      pop\n        /* \"pinkLockV2(NormalLock).sol\":16391:16528  function at(UintSet storage set, uint256 index) internal view returns (uint256) {\r... */\n      swap3\n      swap2\n      pop\n      pop\n      jump\t// out\n        /* \"pinkLockV2(NormalLock).sol\":13424:13541  function length(AddressSet storage set) internal view returns (uint256) {\r... */\n    tag_152:\n        /* \"pinkLockV2(NormalLock).sol\":13487:13494  uint256 */\n      0x00\n        /* \"pinkLockV2(NormalLock).sol\":13514:13533  _length(set._inner) */\n      tag_284\n        /* \"pinkLockV2(NormalLock).sol\":13522:13525  set */\n      dup3\n        /* \"pinkLockV2(NormalLock).sol\":13522:13532  set._inner */\n      0x00\n      add\n        /* \"pinkLockV2(NormalLock).sol\":13514:13521  _length */\n      tag_279\n        /* \"pinkLockV2(NormalLock).sol\":13514:13533  _length(set._inner) */\n      jump\t// in\n    tag_284:\n        /* \"pinkLockV2(NormalLock).sol\":13507:13533  return _length(set._inner) */\n      swap1\n      pop\n        /* \"pinkLockV2(NormalLock).sol\":13424:13541  function length(AddressSet storage set) internal view returns (uint256) {\r... */\n      swap2\n      swap1\n      pop\n      jump\t// out\n        /* \"pinkLockV2(NormalLock).sol\":15468:15605  function remove(UintSet storage set, uint256 value) internal returns (bool) {\r... */\n    tag_162:\n        /* \"pinkLockV2(NormalLock).sol\":15538:15542  bool */\n      0x00\n        /* \"pinkLockV2(NormalLock).sol\":15562:15597  _remove(set._inner, bytes32(value)) */\n      tag_286\n        /* \"pinkLockV2(NormalLock).sol\":15570:15573  set */\n      dup4\n        /* \"pinkLockV2(NormalLock).sol\":15570:15580  set._inner */\n      0x00\n      add\n        /* \"pinkLockV2(NormalLock).sol\":15590:15595  value */\n      dup4\n        /* \"pinkLockV2(NormalLock).sol\":15582:15596  bytes32(value) */\n      0x00\n      shl\n        /* \"pinkLockV2(NormalLock).sol\":15562:15569  _remove */\n      tag_287\n        /* \"pinkLockV2(NormalLock).sol\":15562:15597  _remove(set._inner, bytes32(value)) */\n      jump\t// in\n    tag_286:\n        /* \"pinkLockV2(NormalLock).sol\":15555:15597  return _remove(set._inner, bytes32(value)) */\n      swap1\n      pop\n        /* \"pinkLockV2(NormalLock).sol\":15468:15605  function remove(UintSet storage set, uint256 value) internal returns (bool) {\r... */\n      swap3\n      swap2\n      pop\n      pop\n      jump\t// out\n        /* \"pinkLockV2(NormalLock).sol\":15161:15292  function add(UintSet storage set, uint256 value) internal returns (bool) {\r... */\n    tag_164:\n        /* \"pinkLockV2(NormalLock).sol\":15228:15232  bool */\n      0x00\n        /* \"pinkLockV2(NormalLock).sol\":15252:15284  _add(set._inner, bytes32(value)) */\n      tag_289\n        /* \"pinkLockV2(NormalLock).sol\":15257:15260  set */\n      dup4\n        /* \"pinkLockV2(NormalLock).sol\":15257:15267  set._inner */\n      0x00\n      add\n        /* \"pinkLockV2(NormalLock).sol\":15277:15282  value */\n      dup4\n        /* \"pinkLockV2(NormalLock).sol\":15269:15283  bytes32(value) */\n      0x00\n      shl\n        /* \"pinkLockV2(NormalLock).sol\":15252:15256  _add */\n      tag_290\n        /* \"pinkLockV2(NormalLock).sol\":15252:15284  _add(set._inner, bytes32(value)) */\n      jump\t// in\n    tag_289:\n        /* \"pinkLockV2(NormalLock).sol\":15245:15284  return _add(set._inner, bytes32(value)) */\n      swap1\n      pop\n        /* \"pinkLockV2(NormalLock).sol\":15161:15292  function add(UintSet storage set, uint256 value) internal returns (bool) {\r... */\n      swap3\n      swap2\n      pop\n      pop\n      jump\t// out\n        /* \"pinkLockV2(NormalLock).sol\":40978:42107  function _normalUnlock(Lock storage userLock) internal {\r... */\n    tag_184:\n        /* \"pinkLockV2(NormalLock).sol\":41085:41093  userLock */\n      dup1\n        /* \"pinkLockV2(NormalLock).sol\":41085:41104  userLock.unlockDate */\n      0x05\n      add\n      sload\n        /* \"pinkLockV2(NormalLock).sol\":41066:41081  block.timestamp */\n      timestamp\n        /* \"pinkLockV2(NormalLock).sol\":41066:41104  block.timestamp >= userLock.unlockDate */\n      lt\n      iszero\n        /* \"pinkLockV2(NormalLock).sol\":41044:41156  require(\r... */\n      tag_292\n      jumpi\n      mload(0x40)\n      0x08c379a000000000000000000000000000000000000000000000000000000000\n      dup2\n      mstore\n      0x04\n      add\n      tag_293\n      swap1\n      tag_294\n      jump\t// in\n    tag_293:\n      mload(0x40)\n      dup1\n      swap2\n      sub\n      swap1\n      revert\n    tag_292:\n        /* \"pinkLockV2(NormalLock).sol\":41202:41203  0 */\n      0x00\n        /* \"pinkLockV2(NormalLock).sol\":41175:41183  userLock */\n      dup2\n        /* \"pinkLockV2(NormalLock).sol\":41175:41198  userLock.unlockedAmount */\n      0x06\n      add\n      sload\n        /* \"pinkLockV2(NormalLock).sol\":41175:41203  userLock.unlockedAmount == 0 */\n      eq\n        /* \"pinkLockV2(NormalLock).sol\":41167:41225  require(userLock.unlockedAmount == 0, \"Nothing to unlock\") */\n      tag_295\n      jumpi\n      mload(0x40)\n      0x08c379a000000000000000000000000000000000000000000000000000000000\n      dup2\n      mstore\n      0x04\n      add\n      tag_296\n      swap1\n      tag_297\n      jump\t// in\n    tag_296:\n      mload(0x40)\n      dup1\n      swap2\n      sub\n      swap1\n      revert\n    tag_295:\n        /* \"pinkLockV2(NormalLock).sol\":41238:41274  CumulativeLockInfo storage tokenInfo */\n      0x00\n        /* \"pinkLockV2(NormalLock).sol\":41277:41295  cumulativeLockInfo */\n      0x05\n        /* \"pinkLockV2(NormalLock).sol\":41277:41335  cumulativeLockInfo[\r... */\n      0x00\n        /* \"pinkLockV2(NormalLock).sol\":41310:41318  userLock */\n      dup4\n        /* \"pinkLockV2(NormalLock).sol\":41310:41324  userLock.token */\n      0x01\n      add\n      0x00\n      swap1\n      sload\n      swap1\n      0x0100\n      exp\n      swap1\n      div\n      0xffffffffffffffffffffffffffffffffffffffff\n      and\n        /* \"pinkLockV2(NormalLock).sol\":41277:41335  cumulativeLockInfo[\r... */\n      0xffffffffffffffffffffffffffffffffffffffff\n      and\n      0xffffffffffffffffffffffffffffffffffffffff\n      and\n      dup2\n      mstore\n      0x20\n      add\n      swap1\n      dup2\n      mstore\n      0x20\n      add\n      0x00\n      keccak256\n        /* \"pinkLockV2(NormalLock).sol\":41238:41335  CumulativeLockInfo storage tokenInfo = cumulativeLockInfo[\r... */\n      swap1\n      pop\n        /* \"pinkLockV2(NormalLock).sol\":41346:41396  _userNormalLockIds[msg.sender].remove(userLock.id) */\n      tag_298\n        /* \"pinkLockV2(NormalLock).sol\":41384:41392  userLock */\n      dup3\n        /* \"pinkLockV2(NormalLock).sol\":41384:41395  userLock.id */\n      0x00\n      add\n      sload\n        /* \"pinkLockV2(NormalLock).sol\":41346:41364  _userNormalLockIds */\n      0x02\n        /* \"pinkLockV2(NormalLock).sol\":41346:41376  _userNormalLockIds[msg.sender] */\n      0x00\n        /* \"pinkLockV2(NormalLock).sol\":41365:41375  msg.sender */\n      caller\n        /* \"pinkLockV2(NormalLock).sol\":41346:41376  _userNormalLockIds[msg.sender] */\n      0xffffffffffffffffffffffffffffffffffffffff\n      and\n      0xffffffffffffffffffffffffffffffffffffffff\n      and\n      dup2\n      mstore\n      0x20\n      add\n      swap1\n      dup2\n      mstore\n      0x20\n      add\n      0x00\n      keccak256\n        /* \"pinkLockV2(NormalLock).sol\":41346:41383  _userNormalLockIds[msg.sender].remove */\n      tag_162\n      swap1\n        /* \"pinkLockV2(NormalLock).sol\":41346:41396  _userNormalLockIds[msg.sender].remove(userLock.id) */\n      swap2\n      swap1\n      0xffffffff\n      and\n      jump\t// in\n    tag_298:\n      pop\n        /* \"pinkLockV2(NormalLock).sol\":41409:41429  uint256 unlockAmount */\n      0x00\n        /* \"pinkLockV2(NormalLock).sol\":41432:41440  userLock */\n      dup3\n        /* \"pinkLockV2(NormalLock).sol\":41432:41447  userLock.amount */\n      0x03\n      add\n      sload\n        /* \"pinkLockV2(NormalLock).sol\":41409:41447  uint256 unlockAmount = userLock.amount */\n      swap1\n      pop\n        /* \"pinkLockV2(NormalLock).sol\":41484:41496  unlockAmount */\n      dup1\n        /* \"pinkLockV2(NormalLock).sol\":41464:41473  tokenInfo */\n      dup3\n        /* \"pinkLockV2(NormalLock).sol\":41464:41480  tokenInfo.amount */\n      0x01\n      add\n      sload\n        /* \"pinkLockV2(NormalLock).sol\":41464:41496  tokenInfo.amount <= unlockAmount */\n      gt\n        /* \"pinkLockV2(NormalLock).sol\":41460:41628  if (tokenInfo.amount <= unlockAmount) {\r... */\n      tag_299\n      jumpi\n        /* \"pinkLockV2(NormalLock).sol\":41532:41533  0 */\n      0x00\n        /* \"pinkLockV2(NormalLock).sol\":41513:41522  tokenInfo */\n      dup3\n        /* \"pinkLockV2(NormalLock).sol\":41513:41529  tokenInfo.amount */\n      0x01\n      add\n        /* \"pinkLockV2(NormalLock).sol\":41513:41533  tokenInfo.amount = 0 */\n      dup2\n      swap1\n      sstore\n      pop\n        /* \"pinkLockV2(NormalLock).sol\":41460:41628  if (tokenInfo.amount <= unlockAmount) {\r... */\n      jump(tag_300)\n    tag_299:\n        /* \"pinkLockV2(NormalLock).sol\":41604:41616  unlockAmount */\n      dup1\n        /* \"pinkLockV2(NormalLock).sol\":41585:41594  tokenInfo */\n      dup3\n        /* \"pinkLockV2(NormalLock).sol\":41585:41601  tokenInfo.amount */\n      0x01\n      add\n      sload\n        /* \"pinkLockV2(NormalLock).sol\":41585:41616  tokenInfo.amount - unlockAmount */\n      tag_301\n      swap2\n      swap1\n      tag_132\n      jump\t// in\n    tag_301:\n        /* \"pinkLockV2(NormalLock).sol\":41566:41575  tokenInfo */\n      dup3\n        /* \"pinkLockV2(NormalLock).sol\":41566:41582  tokenInfo.amount */\n      0x01\n      add\n        /* \"pinkLockV2(NormalLock).sol\":41566:41616  tokenInfo.amount = tokenInfo.amount - unlockAmount */\n      dup2\n      swap1\n      sstore\n      pop\n        /* \"pinkLockV2(NormalLock).sol\":41460:41628  if (tokenInfo.amount <= unlockAmount) {\r... */\n    tag_300:\n        /* \"pinkLockV2(NormalLock).sol\":41664:41665  0 */\n      0x00\n        /* \"pinkLockV2(NormalLock).sol\":41644:41653  tokenInfo */\n      dup3\n        /* \"pinkLockV2(NormalLock).sol\":41644:41660  tokenInfo.amount */\n      0x01\n      add\n      sload\n        /* \"pinkLockV2(NormalLock).sol\":41644:41665  tokenInfo.amount == 0 */\n      eq\n        /* \"pinkLockV2(NormalLock).sol\":41640:41736  if (tokenInfo.amount == 0) {\r... */\n      iszero\n      tag_302\n      jumpi\n        /* \"pinkLockV2(NormalLock).sol\":41682:41724  _normalLockedTokens.remove(userLock.token) */\n      tag_303\n        /* \"pinkLockV2(NormalLock).sol\":41709:41717  userLock */\n      dup4\n        /* \"pinkLockV2(NormalLock).sol\":41709:41723  userLock.token */\n      0x01\n      add\n      0x00\n      swap1\n      sload\n      swap1\n      0x0100\n      exp\n      swap1\n      div\n      0xffffffffffffffffffffffffffffffffffffffff\n      and\n        /* \"pinkLockV2(NormalLock).sol\":41682:41701  _normalLockedTokens */\n      0x03\n        /* \"pinkLockV2(NormalLock).sol\":41682:41708  _normalLockedTokens.remove */\n      tag_304\n      swap1\n        /* \"pinkLockV2(NormalLock).sol\":41682:41724  _normalLockedTokens.remove(userLock.token) */\n      swap2\n      swap1\n      0xffffffff\n      and\n      jump\t// in\n    tag_303:\n      pop\n        /* \"pinkLockV2(NormalLock).sol\":41640:41736  if (tokenInfo.amount == 0) {\r... */\n    tag_302:\n        /* \"pinkLockV2(NormalLock).sol\":41772:41784  unlockAmount */\n      dup1\n        /* \"pinkLockV2(NormalLock).sol\":41746:41754  userLock */\n      dup4\n        /* \"pinkLockV2(NormalLock).sol\":41746:41769  userLock.unlockedAmount */\n      0x06\n      add\n        /* \"pinkLockV2(NormalLock).sol\":41746:41784  userLock.unlockedAmount = unlockAmount */\n      dup2\n      swap1\n      sstore\n      pop\n        /* \"pinkLockV2(NormalLock).sol\":41797:41848  _tokenToLockIds[userLock.token].remove(userLock.id) */\n      tag_305\n        /* \"pinkLockV2(NormalLock).sol\":41836:41844  userLock */\n      dup4\n        /* \"pinkLockV2(NormalLock).sol\":41836:41847  userLock.id */\n      0x00\n      add\n      sload\n        /* \"pinkLockV2(NormalLock).sol\":41797:41812  _tokenToLockIds */\n      0x06\n        /* \"pinkLockV2(NormalLock).sol\":41797:41828  _tokenToLockIds[userLock.token] */\n      0x00\n        /* \"pinkLockV2(NormalLock).sol\":41813:41821  userLock */\n      dup7\n        /* \"pinkLockV2(NormalLock).sol\":41813:41827  userLock.token */\n      0x01\n      add\n      0x00\n      swap1\n      sload\n      swap1\n      0x0100\n      exp\n      swap1\n      div\n      0xffffffffffffffffffffffffffffffffffffffff\n      and\n        /* \"pinkLockV2(NormalLock).sol\":41797:41828  _tokenToLockIds[userLock.token] */\n      0xffffffffffffffffffffffffffffffffffffffff\n      and\n      0xffffffffffffffffffffffffffffffffffffffff\n      and\n      dup2\n      mstore\n      0x20\n      add\n      swap1\n      dup2\n      mstore\n      0x20\n      add\n      0x00\n      keccak256\n        /* \"pinkLockV2(NormalLock).sol\":41797:41835  _tokenToLockIds[userLock.token].remove */\n      tag_162\n      swap1\n        /* \"pinkLockV2(NormalLock).sol\":41797:41848  _tokenToLockIds[userLock.token].remove(userLock.id) */\n      swap2\n      swap1\n      0xffffffff\n      and\n      jump\t// in\n    tag_305:\n      pop\n        /* \"pinkLockV2(NormalLock).sol\":41861:41922  IERC20(userLock.token).safeTransfer(msg.sender, unlockAmount) */\n      tag_306\n        /* \"pinkLockV2(NormalLock).sol\":41897:41907  msg.sender */\n      caller\n        /* \"pinkLockV2(NormalLock).sol\":41909:41921  unlockAmount */\n      dup3\n        /* \"pinkLockV2(NormalLock).sol\":41868:41876  userLock */\n      dup6\n        /* \"pinkLockV2(NormalLock).sol\":41868:41882  userLock.token */\n      0x01\n      add\n      0x00\n      swap1\n      sload\n      swap1\n      0x0100\n      exp\n      swap1\n      div\n      0xffffffffffffffffffffffffffffffffffffffff\n      and\n        /* \"pinkLockV2(NormalLock).sol\":41861:41896  IERC20(userLock.token).safeTransfer */\n      0xffffffffffffffffffffffffffffffffffffffff\n      and\n      tag_307\n      swap1\n        /* \"pinkLockV2(NormalLock).sol\":41861:41922  IERC20(userLock.token).safeTransfer(msg.sender, unlockAmount) */\n      swap3\n      swap2\n      swap1\n      0xffffffff\n      and\n      jump\t// in\n    tag_306:\n        /* \"pinkLockV2(NormalLock).sol\":41966:41974  userLock */\n      dup3\n        /* \"pinkLockV2(NormalLock).sol\":41966:41977  userLock.id */\n      0x00\n      add\n      sload\n        /* \"pinkLockV2(NormalLock).sol\":41940:42099  LockRemoved(\r... */\n      0xc6532367992b32e42a62dd89fc3574876d97d081a263aa6e030f34b79b7e6e8b\n        /* \"pinkLockV2(NormalLock).sol\":41992:42000  userLock */\n      dup5\n        /* \"pinkLockV2(NormalLock).sol\":41992:42006  userLock.token */\n      0x01\n      add\n      0x00\n      swap1\n      sload\n      swap1\n      0x0100\n      exp\n      swap1\n      div\n      0xffffffffffffffffffffffffffffffffffffffff\n      and\n        /* \"pinkLockV2(NormalLock).sol\":42021:42031  msg.sender */\n      caller\n        /* \"pinkLockV2(NormalLock).sol\":42046:42058  unlockAmount */\n      dup5\n        /* \"pinkLockV2(NormalLock).sol\":42073:42088  block.timestamp */\n      timestamp\n        /* \"pinkLockV2(NormalLock).sol\":41940:42099  LockRemoved(\r... */\n      mload(0x40)\n      tag_308\n      swap5\n      swap4\n      swap3\n      swap2\n      swap1\n      tag_220\n      jump\t// in\n    tag_308:\n      mload(0x40)\n      dup1\n      swap2\n      sub\n      swap1\n      log2\n        /* \"pinkLockV2(NormalLock).sol\":40978:42107  function _normalUnlock(Lock storage userLock) internal {\r... */\n      pop\n      pop\n      pop\n      jump\t// out\n        /* \"pinkLockV2(NormalLock).sol\":13895:14053  function at(AddressSet storage set, uint256 index) internal view returns (address) {\r... */\n    tag_201:\n        /* \"pinkLockV2(NormalLock).sol\":13969:13976  address */\n      0x00\n        /* \"pinkLockV2(NormalLock).sol\":14020:14042  _at(set._inner, index) */\n      tag_310\n        /* \"pinkLockV2(NormalLock).sol\":14024:14027  set */\n      dup4\n        /* \"pinkLockV2(NormalLock).sol\":14024:14034  set._inner */\n      0x00\n      add\n        /* \"pinkLockV2(NormalLock).sol\":14036:14041  index */\n      dup4\n        /* \"pinkLockV2(NormalLock).sol\":14020:14023  _at */\n      tag_282\n        /* \"pinkLockV2(NormalLock).sol\":14020:14042  _at(set._inner, index) */\n      jump\t// in\n    tag_310:\n        /* \"pinkLockV2(NormalLock).sol\":14012:14043  uint256(_at(set._inner, index)) */\n      0x00\n      shr\n        /* \"pinkLockV2(NormalLock).sol\":13989:14045  return address(uint160(uint256(_at(set._inner, index)))) */\n      swap1\n      pop\n        /* \"pinkLockV2(NormalLock).sol\":13895:14053  function at(AddressSet storage set, uint256 index) internal view returns (address) {\r... */\n      swap3\n      swap2\n      pop\n      pop\n      jump\t// out\n        /* \"pinkLockV2(NormalLock).sol\":38976:39355  function _createLock(\r... */\n    tag_216:\n        /* \"pinkLockV2(NormalLock).sol\":39160:39170  uint256 id */\n      0x00\n        /* \"pinkLockV2(NormalLock).sol\":39188:39327  _lockNormalToken(\r... */\n      tag_312\n        /* \"pinkLockV2(NormalLock).sol\":39219:39224  owner */\n      dup7\n        /* \"pinkLockV2(NormalLock).sol\":39239:39244  token */\n      dup7\n        /* \"pinkLockV2(NormalLock).sol\":39259:39265  amount */\n      dup7\n        /* \"pinkLockV2(NormalLock).sol\":39280:39290  unlockDate */\n      dup7\n        /* \"pinkLockV2(NormalLock).sol\":39305:39316  description */\n      dup7\n        /* \"pinkLockV2(NormalLock).sol\":39188:39204  _lockNormalToken */\n      tag_313\n        /* \"pinkLockV2(NormalLock).sol\":39188:39327  _lockNormalToken(\r... */\n      jump\t// in\n    tag_312:\n        /* \"pinkLockV2(NormalLock).sol\":39183:39327  id = _lockNormalToken(\r... */\n      swap1\n      pop\n        /* \"pinkLockV2(NormalLock).sol\":38976:39355  function _createLock(\r... */\n      swap6\n      swap5\n      pop\n      pop\n      pop\n      pop\n      pop\n      jump\t// out\n        /* \"pinkLockV2(NormalLock).sol\":44908:45439  function _safeTransferFromEnsureExactAmount(\r... */\n    tag_218:\n        /* \"pinkLockV2(NormalLock).sol\":45081:45108  uint256 oldRecipientBalance */\n      0x00\n        /* \"pinkLockV2(NormalLock).sol\":45118:45123  token */\n      dup5\n        /* \"pinkLockV2(NormalLock).sol\":45111:45134  IERC20(token).balanceOf */\n      0xffffffffffffffffffffffffffffffffffffffff\n      and\n      0x70a08231\n        /* \"pinkLockV2(NormalLock).sol\":45135:45144  recipient */\n      dup5\n        /* \"pinkLockV2(NormalLock).sol\":45111:45145  IERC20(token).balanceOf(recipient) */\n      mload(0x40)\n      dup3\n      0xffffffff\n      and\n      0xe0\n      shl\n      dup2\n      mstore\n      0x04\n      add\n      tag_315\n      swap2\n      swap1\n      tag_316\n      jump\t// in\n    tag_315:\n      0x20\n      mload(0x40)\n      dup1\n      dup4\n      sub\n      dup2\n      dup7\n      dup1\n      extcodesize\n      iszero\n      dup1\n      iszero\n      tag_317\n      jumpi\n      0x00\n      dup1\n      revert\n    tag_317:\n      pop\n      gas\n      staticcall\n      iszero\n      dup1\n      iszero\n      tag_319\n      jumpi\n      returndatasize\n      0x00\n      dup1\n      returndatacopy\n      revert(0x00, returndatasize)\n    tag_319:\n      pop\n      pop\n      pop\n      pop\n      mload(0x40)\n      returndatasize\n      not(0x1f)\n      0x1f\n      dup3\n      add\n      and\n      dup3\n      add\n      dup1\n      0x40\n      mstore\n      pop\n      dup2\n      add\n      swap1\n      tag_320\n      swap2\n      swap1\n      tag_321\n      jump\t// in\n    tag_320:\n        /* \"pinkLockV2(NormalLock).sol\":45081:45145  uint256 oldRecipientBalance = IERC20(token).balanceOf(recipient) */\n      swap1\n      pop\n        /* \"pinkLockV2(NormalLock).sol\":45156:45213  IERC20(token).safeTransferFrom(sender, recipient, amount) */\n      tag_322\n        /* \"pinkLockV2(NormalLock).sol\":45187:45193  sender */\n      dup5\n        /* \"pinkLockV2(NormalLock).sol\":45195:45204  recipient */\n      dup5\n        /* \"pinkLockV2(NormalLock).sol\":45206:45212  amount */\n      dup5\n        /* \"pinkLockV2(NormalLock).sol\":45163:45168  token */\n      dup9\n        /* \"pinkLockV2(NormalLock).sol\":45156:45186  IERC20(token).safeTransferFrom */\n      0xffffffffffffffffffffffffffffffffffffffff\n      and\n      tag_323\n      swap1\n        /* \"pinkLockV2(NormalLock).sol\":45156:45213  IERC20(token).safeTransferFrom(sender, recipient, amount) */\n      swap4\n      swap3\n      swap2\n      swap1\n      0xffffffff\n      and\n      jump\t// in\n    tag_322:\n        /* \"pinkLockV2(NormalLock).sol\":45224:45251  uint256 newRecipientBalance */\n      0x00\n        /* \"pinkLockV2(NormalLock).sol\":45261:45266  token */\n      dup6\n        /* \"pinkLockV2(NormalLock).sol\":45254:45277  IERC20(token).balanceOf */\n      0xffffffffffffffffffffffffffffffffffffffff\n      and\n      0x70a08231\n        /* \"pinkLockV2(NormalLock).sol\":45278:45287  recipient */\n      dup6\n        /* \"pinkLockV2(NormalLock).sol\":45254:45288  IERC20(token).balanceOf(recipient) */\n      mload(0x40)\n      dup3\n      0xffffffff\n      and\n      0xe0\n      shl\n      dup2\n      mstore\n      0x04\n      add\n      tag_324\n      swap2\n      swap1\n      tag_316\n      jump\t// in\n    tag_324:\n      0x20\n      mload(0x40)\n      dup1\n      dup4\n      sub\n      dup2\n      dup7\n      dup1\n      extcodesize\n      iszero\n      dup1\n      iszero\n      tag_325\n      jumpi\n      0x00\n      dup1\n      revert\n    tag_325:\n      pop\n      gas\n      staticcall\n      iszero\n      dup1\n      iszero\n      tag_327\n      jumpi\n      returndatasize\n      0x00\n      dup1\n      returndatacopy\n      revert(0x00, returndatasize)\n    tag_327:\n      pop\n      pop\n      pop\n      pop\n      mload(0x40)\n      returndatasize\n      not(0x1f)\n      0x1f\n      dup3\n      add\n      and\n      dup3\n      add\n      dup1\n      0x40\n      mstore\n      pop\n      dup2\n      add\n      swap1\n      tag_328\n      swap2\n      swap1\n      tag_321\n      jump\t// in\n    tag_328:\n        /* \"pinkLockV2(NormalLock).sol\":45224:45288  uint256 newRecipientBalance = IERC20(token).balanceOf(recipient) */\n      swap1\n      pop\n        /* \"pinkLockV2(NormalLock).sol\":45366:45372  amount */\n      dup3\n        /* \"pinkLockV2(NormalLock).sol\":45343:45362  oldRecipientBalance */\n      dup3\n        /* \"pinkLockV2(NormalLock).sol\":45321:45340  newRecipientBalance */\n      dup3\n        /* \"pinkLockV2(NormalLock).sol\":45321:45362  newRecipientBalance - oldRecipientBalance */\n      tag_329\n      swap2\n      swap1\n      tag_132\n      jump\t// in\n    tag_329:\n        /* \"pinkLockV2(NormalLock).sol\":45321:45372  newRecipientBalance - oldRecipientBalance == amount */\n      eq\n        /* \"pinkLockV2(NormalLock).sol\":45299:45431  require(\r... */\n      tag_330\n      jumpi\n      mload(0x40)\n      0x08c379a000000000000000000000000000000000000000000000000000000000\n      dup2\n      mstore\n      0x04\n      add\n      tag_331\n      swap1\n      tag_332\n      jump\t// in\n    tag_331:\n      mload(0x40)\n      dup1\n      swap2\n      sub\n      swap1\n      revert\n    tag_330:\n        /* \"pinkLockV2(NormalLock).sol\":44908:45439  function _safeTransferFromEnsureExactAmount(\r... */\n      pop\n      pop\n      pop\n      pop\n      pop\n      pop\n      jump\t// out\n        /* \"pinkLockV2(NormalLock).sol\":8641:8750  function _length(Set storage set) private view returns (uint256) {\r... */\n    tag_279:\n        /* \"pinkLockV2(NormalLock).sol\":8697:8704  uint256 */\n      0x00\n        /* \"pinkLockV2(NormalLock).sol\":8724:8727  set */\n      dup2\n        /* \"pinkLockV2(NormalLock).sol\":8724:8735  set._values */\n      0x00\n      add\n        /* \"pinkLockV2(NormalLock).sol\":8724:8742  set._values.length */\n      dup1\n      sload\n      swap1\n      pop\n        /* \"pinkLockV2(NormalLock).sol\":8717:8742  return set._values.length */\n      swap1\n      pop\n        /* \"pinkLockV2(NormalLock).sol\":8641:8750  function _length(Set storage set) private view returns (uint256) {\r... */\n      swap2\n      swap1\n      pop\n      jump\t// out\n        /* \"pinkLockV2(NormalLock).sol\":9104:9224  function _at(Set storage set, uint256 index) private view returns (bytes32) {\r... */\n    tag_282:\n        /* \"pinkLockV2(NormalLock).sol\":9171:9178  bytes32 */\n      0x00\n        /* \"pinkLockV2(NormalLock).sol\":9198:9201  set */\n      dup3\n        /* \"pinkLockV2(NormalLock).sol\":9198:9209  set._values */\n      0x00\n      add\n        /* \"pinkLockV2(NormalLock).sol\":9210:9215  index */\n      dup3\n        /* \"pinkLockV2(NormalLock).sol\":9198:9216  set._values[index] */\n      dup2\n      sload\n      dup2\n      lt\n      tag_335\n      jumpi\n      mstore(0x00, 0x4e487b7100000000000000000000000000000000000000000000000000000000)\n      mstore(0x04, 0x32)\n      revert(0x00, 0x24)\n    tag_335:\n      swap1\n      0x00\n      mstore\n      keccak256(0x00, 0x20)\n      add\n      sload\n        /* \"pinkLockV2(NormalLock).sol\":9191:9216  return set._values[index] */\n      swap1\n      pop\n        /* \"pinkLockV2(NormalLock).sol\":9104:9224  function _at(Set storage set, uint256 index) private view returns (bytes32) {\r... */\n      swap3\n      swap2\n      pop\n      pop\n      jump\t// out\n        /* \"pinkLockV2(NormalLock).sol\":6920:8340  function _remove(Set storage set, bytes32 value) private returns (bool) {\r... */\n    tag_287:\n        /* \"pinkLockV2(NormalLock).sol\":6986:6990  bool */\n      0x00\n        /* \"pinkLockV2(NormalLock).sol\":7104:7122  uint256 valueIndex */\n      dup1\n        /* \"pinkLockV2(NormalLock).sol\":7125:7128  set */\n      dup4\n        /* \"pinkLockV2(NormalLock).sol\":7125:7137  set._indexes */\n      0x01\n      add\n        /* \"pinkLockV2(NormalLock).sol\":7125:7144  set._indexes[value] */\n      0x00\n        /* \"pinkLockV2(NormalLock).sol\":7138:7143  value */\n      dup5\n        /* \"pinkLockV2(NormalLock).sol\":7125:7144  set._indexes[value] */\n      dup2\n      mstore\n      0x20\n      add\n      swap1\n      dup2\n      mstore\n      0x20\n      add\n      0x00\n      keccak256\n      sload\n        /* \"pinkLockV2(NormalLock).sol\":7104:7144  uint256 valueIndex = set._indexes[value] */\n      swap1\n      pop\n        /* \"pinkLockV2(NormalLock).sol\":7175:7176  0 */\n      0x00\n        /* \"pinkLockV2(NormalLock).sol\":7161:7171  valueIndex */\n      dup2\n        /* \"pinkLockV2(NormalLock).sol\":7161:7176  valueIndex != 0 */\n      eq\n        /* \"pinkLockV2(NormalLock).sol\":7157:8333  if (valueIndex != 0) {\r... */\n      tag_338\n      jumpi\n        /* \"pinkLockV2(NormalLock).sol\":7536:7557  uint256 toDeleteIndex */\n      0x00\n        /* \"pinkLockV2(NormalLock).sol\":7573:7574  1 */\n      0x01\n        /* \"pinkLockV2(NormalLock).sol\":7560:7570  valueIndex */\n      dup3\n        /* \"pinkLockV2(NormalLock).sol\":7560:7574  valueIndex - 1 */\n      tag_339\n      swap2\n      swap1\n      tag_132\n      jump\t// in\n    tag_339:\n        /* \"pinkLockV2(NormalLock).sol\":7536:7574  uint256 toDeleteIndex = valueIndex - 1 */\n      swap1\n      pop\n        /* \"pinkLockV2(NormalLock).sol\":7589:7606  uint256 lastIndex */\n      0x00\n        /* \"pinkLockV2(NormalLock).sol\":7630:7631  1 */\n      0x01\n        /* \"pinkLockV2(NormalLock).sol\":7609:7612  set */\n      dup7\n        /* \"pinkLockV2(NormalLock).sol\":7609:7620  set._values */\n      0x00\n      add\n        /* \"pinkLockV2(NormalLock).sol\":7609:7627  set._values.length */\n      dup1\n      sload\n      swap1\n      pop\n        /* \"pinkLockV2(NormalLock).sol\":7609:7631  set._values.length - 1 */\n      tag_340\n      swap2\n      swap1\n      tag_132\n      jump\t// in\n    tag_340:\n        /* \"pinkLockV2(NormalLock).sol\":7589:7631  uint256 lastIndex = set._values.length - 1 */\n      swap1\n      pop\n        /* \"pinkLockV2(NormalLock).sol\":7665:7678  toDeleteIndex */\n      dup2\n        /* \"pinkLockV2(NormalLock).sol\":7652:7661  lastIndex */\n      dup2\n        /* \"pinkLockV2(NormalLock).sol\":7652:7678  lastIndex != toDeleteIndex */\n      eq\n        /* \"pinkLockV2(NormalLock).sol\":7648:8053  if (lastIndex != toDeleteIndex) {\r... */\n      tag_341\n      jumpi\n        /* \"pinkLockV2(NormalLock).sol\":7699:7716  bytes32 lastValue */\n      0x00\n        /* \"pinkLockV2(NormalLock).sol\":7719:7722  set */\n      dup7\n        /* \"pinkLockV2(NormalLock).sol\":7719:7730  set._values */\n      0x00\n      add\n        /* \"pinkLockV2(NormalLock).sol\":7731:7740  lastIndex */\n      dup3\n        /* \"pinkLockV2(NormalLock).sol\":7719:7741  set._values[lastIndex] */\n      dup2\n      sload\n      dup2\n      lt\n      tag_342\n      jumpi\n      mstore(0x00, 0x4e487b7100000000000000000000000000000000000000000000000000000000)\n      mstore(0x04, 0x32)\n      revert(0x00, 0x24)\n    tag_342:\n      swap1\n      0x00\n      mstore\n      keccak256(0x00, 0x20)\n      add\n      sload\n        /* \"pinkLockV2(NormalLock).sol\":7699:7741  bytes32 lastValue = set._values[lastIndex] */\n      swap1\n      pop\n        /* \"pinkLockV2(NormalLock).sol\":7873:7882  lastValue */\n      dup1\n        /* \"pinkLockV2(NormalLock).sol\":7844:7847  set */\n      dup8\n        /* \"pinkLockV2(NormalLock).sol\":7844:7855  set._values */\n      0x00\n      add\n        /* \"pinkLockV2(NormalLock).sol\":7856:7869  toDeleteIndex */\n      dup5\n        /* \"pinkLockV2(NormalLock).sol\":7844:7870  set._values[toDeleteIndex] */\n      dup2\n      sload\n      dup2\n      lt\n      tag_344\n      jumpi\n      mstore(0x00, 0x4e487b7100000000000000000000000000000000000000000000000000000000)\n      mstore(0x04, 0x32)\n      revert(0x00, 0x24)\n    tag_344:\n      swap1\n      0x00\n      mstore\n      keccak256(0x00, 0x20)\n      add\n        /* \"pinkLockV2(NormalLock).sol\":7844:7882  set._values[toDeleteIndex] = lastValue */\n      dup2\n      swap1\n      sstore\n      pop\n        /* \"pinkLockV2(NormalLock).sol\":7984:7994  valueIndex */\n      dup4\n        /* \"pinkLockV2(NormalLock).sol\":7958:7961  set */\n      dup8\n        /* \"pinkLockV2(NormalLock).sol\":7958:7970  set._indexes */\n      0x01\n      add\n        /* \"pinkLockV2(NormalLock).sol\":7958:7981  set._indexes[lastValue] */\n      0x00\n        /* \"pinkLockV2(NormalLock).sol\":7971:7980  lastValue */\n      dup4\n        /* \"pinkLockV2(NormalLock).sol\":7958:7981  set._indexes[lastValue] */\n      dup2\n      mstore\n      0x20\n      add\n      swap1\n      dup2\n      mstore\n      0x20\n      add\n      0x00\n      keccak256\n        /* \"pinkLockV2(NormalLock).sol\":7958:7994  set._indexes[lastValue] = valueIndex */\n      dup2\n      swap1\n      sstore\n      pop\n        /* \"pinkLockV2(NormalLock).sol\":7648:8053  if (lastIndex != toDeleteIndex) {\r... */\n      pop\n    tag_341:\n        /* \"pinkLockV2(NormalLock).sol\":8134:8137  set */\n      dup6\n        /* \"pinkLockV2(NormalLock).sol\":8134:8145  set._values */\n      0x00\n      add\n        /* \"pinkLockV2(NormalLock).sol\":8134:8151  set._values.pop() */\n      dup1\n      sload\n      dup1\n      tag_346\n      jumpi\n      mstore(0x00, 0x4e487b7100000000000000000000000000000000000000000000000000000000)\n      mstore(0x04, 0x31)\n      revert(0x00, 0x24)\n    tag_346:\n      0x01\n      swap1\n      sub\n      dup2\n      dup2\n      swap1\n      0x00\n      mstore\n      keccak256(0x00, 0x20)\n      add\n      0x00\n      swap1\n      sstore\n      swap1\n      sstore\n        /* \"pinkLockV2(NormalLock).sol\":8229:8232  set */\n      dup6\n        /* \"pinkLockV2(NormalLock).sol\":8229:8241  set._indexes */\n      0x01\n      add\n        /* \"pinkLockV2(NormalLock).sol\":8229:8248  set._indexes[value] */\n      0x00\n        /* \"pinkLockV2(NormalLock).sol\":8242:8247  value */\n      dup7\n        /* \"pinkLockV2(NormalLock).sol\":8229:8248  set._indexes[value] */\n      dup2\n      mstore\n      0x20\n      add\n      swap1\n      dup2\n      mstore\n      0x20\n      add\n      0x00\n      keccak256\n        /* \"pinkLockV2(NormalLock).sol\":8222:8248  delete set._indexes[value] */\n      0x00\n      swap1\n      sstore\n        /* \"pinkLockV2(NormalLock).sol\":8272:8276  true */\n      0x01\n        /* \"pinkLockV2(NormalLock).sol\":8265:8276  return true */\n      swap4\n      pop\n      pop\n      pop\n      pop\n      jump(tag_337)\n        /* \"pinkLockV2(NormalLock).sol\":7157:8333  if (valueIndex != 0) {\r... */\n    tag_338:\n        /* \"pinkLockV2(NormalLock).sol\":8316:8321  false */\n      0x00\n        /* \"pinkLockV2(NormalLock).sol\":8309:8321  return false */\n      swap2\n      pop\n      pop\n        /* \"pinkLockV2(NormalLock).sol\":6920:8340  function _remove(Set storage set, bytes32 value) private returns (bool) {\r... */\n    tag_337:\n      swap3\n      swap2\n      pop\n      pop\n      jump\t// out\n        /* \"pinkLockV2(NormalLock).sol\":6330:6744  function _add(Set storage set, bytes32 value) private returns (bool) {\r... */\n    tag_290:\n        /* \"pinkLockV2(NormalLock).sol\":6393:6397  bool */\n      0x00\n        /* \"pinkLockV2(NormalLock).sol\":6415:6436  _contains(set, value) */\n      tag_350\n        /* \"pinkLockV2(NormalLock).sol\":6425:6428  set */\n      dup4\n        /* \"pinkLockV2(NormalLock).sol\":6430:6435  value */\n      dup4\n        /* \"pinkLockV2(NormalLock).sol\":6415:6424  _contains */\n      tag_351\n        /* \"pinkLockV2(NormalLock).sol\":6415:6436  _contains(set, value) */\n      jump\t// in\n    tag_350:\n        /* \"pinkLockV2(NormalLock).sol\":6410:6737  if (!_contains(set, value)) {\r... */\n      tag_352\n      jumpi\n        /* \"pinkLockV2(NormalLock).sol\":6453:6456  set */\n      dup3\n        /* \"pinkLockV2(NormalLock).sol\":6453:6464  set._values */\n      0x00\n      add\n        /* \"pinkLockV2(NormalLock).sol\":6470:6475  value */\n      dup3\n        /* \"pinkLockV2(NormalLock).sol\":6453:6476  set._values.push(value) */\n      swap1\n      dup1\n      0x01\n      dup2\n      sload\n      add\n      dup1\n      dup3\n      sstore\n      dup1\n      swap2\n      pop\n      pop\n      0x01\n      swap1\n      sub\n      swap1\n      0x00\n      mstore\n      keccak256(0x00, 0x20)\n      add\n      0x00\n      swap1\n      swap2\n      swap1\n      swap2\n      swap1\n      swap2\n      pop\n      sstore\n        /* \"pinkLockV2(NormalLock).sol\":6636:6639  set */\n      dup3\n        /* \"pinkLockV2(NormalLock).sol\":6636:6647  set._values */\n      0x00\n      add\n        /* \"pinkLockV2(NormalLock).sol\":6636:6654  set._values.length */\n      dup1\n      sload\n      swap1\n      pop\n        /* \"pinkLockV2(NormalLock).sol\":6614:6617  set */\n      dup4\n        /* \"pinkLockV2(NormalLock).sol\":6614:6626  set._indexes */\n      0x01\n      add\n        /* \"pinkLockV2(NormalLock).sol\":6614:6633  set._indexes[value] */\n      0x00\n        /* \"pinkLockV2(NormalLock).sol\":6627:6632  value */\n      dup5\n        /* \"pinkLockV2(NormalLock).sol\":6614:6633  set._indexes[value] */\n      dup2\n      mstore\n      0x20\n      add\n      swap1\n      dup2\n      mstore\n      0x20\n      add\n      0x00\n      keccak256\n        /* \"pinkLockV2(NormalLock).sol\":6614:6654  set._indexes[value] = set._values.length */\n      dup2\n      swap1\n      sstore\n      pop\n        /* \"pinkLockV2(NormalLock).sol\":6676:6680  true */\n      0x01\n        /* \"pinkLockV2(NormalLock).sol\":6669:6680  return true */\n      swap1\n      pop\n      jump(tag_349)\n        /* \"pinkLockV2(NormalLock).sol\":6410:6737  if (!_contains(set, value)) {\r... */\n    tag_352:\n        /* \"pinkLockV2(NormalLock).sol\":6720:6725  false */\n      0x00\n        /* \"pinkLockV2(NormalLock).sol\":6713:6725  return false */\n      swap1\n      pop\n        /* \"pinkLockV2(NormalLock).sol\":6330:6744  function _add(Set storage set, bytes32 value) private returns (bool) {\r... */\n    tag_349:\n      swap3\n      swap2\n      pop\n      pop\n      jump\t// out\n        /* \"pinkLockV2(NormalLock).sol\":12927:13085  function remove(AddressSet storage set, address value) internal returns (bool) {\r... */\n    tag_304:\n        /* \"pinkLockV2(NormalLock).sol\":13000:13004  bool */\n      0x00\n        /* \"pinkLockV2(NormalLock).sol\":13024:13077  _remove(set._inner, bytes32(uint256(uint160(value)))) */\n      tag_356\n        /* \"pinkLockV2(NormalLock).sol\":13032:13035  set */\n      dup4\n        /* \"pinkLockV2(NormalLock).sol\":13032:13042  set._inner */\n      0x00\n      add\n        /* \"pinkLockV2(NormalLock).sol\":13068:13073  value */\n      dup4\n        /* \"pinkLockV2(NormalLock).sol\":13052:13075  uint256(uint160(value)) */\n      0xffffffffffffffffffffffffffffffffffffffff\n      and\n        /* \"pinkLockV2(NormalLock).sol\":13044:13076  bytes32(uint256(uint160(value))) */\n      0x00\n      shl\n        /* \"pinkLockV2(NormalLock).sol\":13024:13031  _remove */\n      tag_287\n        /* \"pinkLockV2(NormalLock).sol\":13024:13077  _remove(set._inner, bytes32(uint256(uint160(value)))) */\n      jump\t// in\n    tag_356:\n        /* \"pinkLockV2(NormalLock).sol\":13017:13077  return _remove(set._inner, bytes32(uint256(uint160(value)))) */\n      swap1\n      pop\n        /* \"pinkLockV2(NormalLock).sol\":12927:13085  function remove(AddressSet storage set, address value) internal returns (bool) {\r... */\n      swap3\n      swap2\n      pop\n      pop\n      jump\t// out\n        /* \"pinkLockV2(NormalLock).sol\":32790:33001  function safeTransfer(\r... */\n    tag_307:\n        /* \"pinkLockV2(NormalLock).sol\":32907:32993  _callOptionalReturn(token, abi.encodeWithSelector(token.transfer.selector, to, value)) */\n      tag_358\n        /* \"pinkLockV2(NormalLock).sol\":32927:32932  token */\n      dup4\n        /* \"pinkLockV2(NormalLock).sol\":32957:32980  token.transfer.selector */\n      shl(0xe0, 0xa9059cbb)\n        /* \"pinkLockV2(NormalLock).sol\":32982:32984  to */\n      dup5\n        /* \"pinkLockV2(NormalLock).sol\":32986:32991  value */\n      dup5\n        /* \"pinkLockV2(NormalLock).sol\":32934:32992  abi.encodeWithSelector(token.transfer.selector, to, value) */\n      add(0x24, mload(0x40))\n      tag_359\n      swap3\n      swap2\n      swap1\n      tag_96\n      jump\t// in\n    tag_359:\n      mload(0x40)\n      0x20\n      dup2\n      dup4\n      sub\n      sub\n      dup2\n      mstore\n      swap1\n      0x40\n      mstore\n      swap1\n      not(0xffffffffffffffffffffffffffffffffffffffffffffffffffffffff)\n      and\n      0x20\n      dup3\n      add\n      dup1\n      mload\n      0xffffffffffffffffffffffffffffffffffffffffffffffffffffffff\n      dup4\n      dup2\n      dup4\n      and\n      or\n      dup4\n      mstore\n      pop\n      pop\n      pop\n      pop\n        /* \"pinkLockV2(NormalLock).sol\":32907:32926  _callOptionalReturn */\n      tag_360\n        /* \"pinkLockV2(NormalLock).sol\":32907:32993  _callOptionalReturn(token, abi.encodeWithSelector(token.transfer.selector, to, value)) */\n      jump\t// in\n    tag_358:\n        /* \"pinkLockV2(NormalLock).sol\":32790:33001  function safeTransfer(\r... */\n      pop\n      pop\n      pop\n      jump\t// out\n        /* \"pinkLockV2(NormalLock).sol\":39363:40078  function _lockNormalToken(\r... */\n    tag_313:\n        /* \"pinkLockV2(NormalLock).sol\":39551:39561  uint256 id */\n      0x00\n        /* \"pinkLockV2(NormalLock).sol\":39579:39715  _registerLock(\r... */\n      tag_362\n        /* \"pinkLockV2(NormalLock).sol\":39607:39612  owner */\n      dup7\n        /* \"pinkLockV2(NormalLock).sol\":39627:39632  token */\n      dup7\n        /* \"pinkLockV2(NormalLock).sol\":39647:39653  amount */\n      dup7\n        /* \"pinkLockV2(NormalLock).sol\":39668:39678  unlockDate */\n      dup7\n        /* \"pinkLockV2(NormalLock).sol\":39693:39704  description */\n      dup7\n        /* \"pinkLockV2(NormalLock).sol\":39579:39592  _registerLock */\n      tag_363\n        /* \"pinkLockV2(NormalLock).sol\":39579:39715  _registerLock(\r... */\n      jump\t// in\n    tag_362:\n        /* \"pinkLockV2(NormalLock).sol\":39574:39715  id = _registerLock(\r... */\n      swap1\n      pop\n        /* \"pinkLockV2(NormalLock).sol\":39726:39759  _userNormalLockIds[owner].add(id) */\n      tag_364\n        /* \"pinkLockV2(NormalLock).sol\":39756:39758  id */\n      dup2\n        /* \"pinkLockV2(NormalLock).sol\":39726:39744  _userNormalLockIds */\n      0x02\n        /* \"pinkLockV2(NormalLock).sol\":39726:39751  _userNormalLockIds[owner] */\n      0x00\n        /* \"pinkLockV2(NormalLock).sol\":39745:39750  owner */\n      dup10\n        /* \"pinkLockV2(NormalLock).sol\":39726:39751  _userNormalLockIds[owner] */\n      0xffffffffffffffffffffffffffffffffffffffff\n      and\n      0xffffffffffffffffffffffffffffffffffffffff\n      and\n      dup2\n      mstore\n      0x20\n      add\n      swap1\n      dup2\n      mstore\n      0x20\n      add\n      0x00\n      keccak256\n        /* \"pinkLockV2(NormalLock).sol\":39726:39755  _userNormalLockIds[owner].add */\n      tag_164\n      swap1\n        /* \"pinkLockV2(NormalLock).sol\":39726:39759  _userNormalLockIds[owner].add(id) */\n      swap2\n      swap1\n      0xffffffff\n      and\n      jump\t// in\n    tag_364:\n      pop\n        /* \"pinkLockV2(NormalLock).sol\":39770:39800  _normalLockedTokens.add(token) */\n      tag_365\n        /* \"pinkLockV2(NormalLock).sol\":39794:39799  token */\n      dup6\n        /* \"pinkLockV2(NormalLock).sol\":39770:39789  _normalLockedTokens */\n      0x03\n        /* \"pinkLockV2(NormalLock).sol\":39770:39793  _normalLockedTokens.add */\n      tag_366\n      swap1\n        /* \"pinkLockV2(NormalLock).sol\":39770:39800  _normalLockedTokens.add(token) */\n      swap2\n      swap1\n      0xffffffff\n      and\n      jump\t// in\n    tag_365:\n      pop\n        /* \"pinkLockV2(NormalLock).sol\":39813:39849  CumulativeLockInfo storage tokenInfo */\n      0x00\n        /* \"pinkLockV2(NormalLock).sol\":39852:39870  cumulativeLockInfo */\n      0x05\n        /* \"pinkLockV2(NormalLock).sol\":39852:39877  cumulativeLockInfo[token] */\n      0x00\n        /* \"pinkLockV2(NormalLock).sol\":39871:39876  token */\n      dup8\n        /* \"pinkLockV2(NormalLock).sol\":39852:39877  cumulativeLockInfo[token] */\n      0xffffffffffffffffffffffffffffffffffffffff\n      and\n      0xffffffffffffffffffffffffffffffffffffffff\n      and\n      dup2\n      mstore\n      0x20\n      add\n      swap1\n      dup2\n      mstore\n      0x20\n      add\n      0x00\n      keccak256\n        /* \"pinkLockV2(NormalLock).sol\":39813:39877  CumulativeLockInfo storage tokenInfo = cumulativeLockInfo[token] */\n      swap1\n      pop\n        /* \"pinkLockV2(NormalLock).sol\":39919:39920  0 */\n      0x00\n        /* \"pinkLockV2(NormalLock).sol\":39892:39921  tokenInfo.token == address(0) */\n      0xffffffffffffffffffffffffffffffffffffffff\n      and\n        /* \"pinkLockV2(NormalLock).sol\":39892:39901  tokenInfo */\n      dup2\n        /* \"pinkLockV2(NormalLock).sol\":39892:39907  tokenInfo.token */\n      0x00\n      add\n      0x00\n      swap1\n      sload\n      swap1\n      0x0100\n      exp\n      swap1\n      div\n      0xffffffffffffffffffffffffffffffffffffffff\n      and\n        /* \"pinkLockV2(NormalLock).sol\":39892:39921  tokenInfo.token == address(0) */\n      0xffffffffffffffffffffffffffffffffffffffff\n      and\n      eq\n        /* \"pinkLockV2(NormalLock).sol\":39888:39973  if (tokenInfo.token == address(0)) {\r... */\n      iszero\n      tag_367\n      jumpi\n        /* \"pinkLockV2(NormalLock).sol\":39956:39961  token */\n      dup6\n        /* \"pinkLockV2(NormalLock).sol\":39938:39947  tokenInfo */\n      dup2\n        /* \"pinkLockV2(NormalLock).sol\":39938:39953  tokenInfo.token */\n      0x00\n      add\n      0x00\n        /* \"pinkLockV2(NormalLock).sol\":39938:39961  tokenInfo.token = token */\n      0x0100\n      exp\n      dup2\n      sload\n      dup2\n      0xffffffffffffffffffffffffffffffffffffffff\n      mul\n      not\n      and\n      swap1\n      dup4\n      0xffffffffffffffffffffffffffffffffffffffff\n      and\n      mul\n      or\n      swap1\n      sstore\n      pop\n        /* \"pinkLockV2(NormalLock).sol\":39888:39973  if (tokenInfo.token == address(0)) {\r... */\n    tag_367:\n        /* \"pinkLockV2(NormalLock).sol\":40021:40027  amount */\n      dup5\n        /* \"pinkLockV2(NormalLock).sol\":40002:40011  tokenInfo */\n      dup2\n        /* \"pinkLockV2(NormalLock).sol\":40002:40018  tokenInfo.amount */\n      0x01\n      add\n      sload\n        /* \"pinkLockV2(NormalLock).sol\":40002:40027  tokenInfo.amount + amount */\n      tag_368\n      swap2\n      swap1\n      tag_135\n      jump\t// in\n    tag_368:\n        /* \"pinkLockV2(NormalLock).sol\":39983:39992  tokenInfo */\n      dup2\n        /* \"pinkLockV2(NormalLock).sol\":39983:39999  tokenInfo.amount */\n      0x01\n      add\n        /* \"pinkLockV2(NormalLock).sol\":39983:40027  tokenInfo.amount = tokenInfo.amount + amount */\n      dup2\n      swap1\n      sstore\n      pop\n        /* \"pinkLockV2(NormalLock).sol\":40040:40070  _tokenToLockIds[token].add(id) */\n      tag_369\n        /* \"pinkLockV2(NormalLock).sol\":40067:40069  id */\n      dup3\n        /* \"pinkLockV2(NormalLock).sol\":40040:40055  _tokenToLockIds */\n      0x06\n        /* \"pinkLockV2(NormalLock).sol\":40040:40062  _tokenToLockIds[token] */\n      0x00\n        /* \"pinkLockV2(NormalLock).sol\":40056:40061  token */\n      dup10\n        /* \"pinkLockV2(NormalLock).sol\":40040:40062  _tokenToLockIds[token] */\n      0xffffffffffffffffffffffffffffffffffffffff\n      and\n      0xffffffffffffffffffffffffffffffffffffffff\n      and\n      dup2\n      mstore\n      0x20\n      add\n      swap1\n      dup2\n      mstore\n      0x20\n      add\n      0x00\n      keccak256\n        /* \"pinkLockV2(NormalLock).sol\":40040:40066  _tokenToLockIds[token].add */\n      tag_164\n      swap1\n        /* \"pinkLockV2(NormalLock).sol\":40040:40070  _tokenToLockIds[token].add(id) */\n      swap2\n      swap1\n      0xffffffff\n      and\n      jump\t// in\n    tag_369:\n      pop\n        /* \"pinkLockV2(NormalLock).sol\":39363:40078  function _lockNormalToken(\r... */\n      pop\n      swap6\n      swap5\n      pop\n      pop\n      pop\n      pop\n      pop\n      jump\t// out\n        /* \"pinkLockV2(NormalLock).sol\":33009:33257  function safeTransferFrom(\r... */\n    tag_323:\n        /* \"pinkLockV2(NormalLock).sol\":33153:33249  _callOptionalReturn(token, abi.encodeWithSelector(token.transferFrom.selector, from, to, value)) */\n      tag_371\n        /* \"pinkLockV2(NormalLock).sol\":33173:33178  token */\n      dup5\n        /* \"pinkLockV2(NormalLock).sol\":33203:33230  token.transferFrom.selector */\n      shl(0xe0, 0x23b872dd)\n        /* \"pinkLockV2(NormalLock).sol\":33232:33236  from */\n      dup6\n        /* \"pinkLockV2(NormalLock).sol\":33238:33240  to */\n      dup6\n        /* \"pinkLockV2(NormalLock).sol\":33242:33247  value */\n      dup6\n        /* \"pinkLockV2(NormalLock).sol\":33180:33248  abi.encodeWithSelector(token.transferFrom.selector, from, to, value) */\n      add(0x24, mload(0x40))\n      tag_372\n      swap4\n      swap3\n      swap2\n      swap1\n      tag_373\n      jump\t// in\n    tag_372:\n      mload(0x40)\n      0x20\n      dup2\n      dup4\n      sub\n      sub\n      dup2\n      mstore\n      swap1\n      0x40\n      mstore\n      swap1\n      not(0xffffffffffffffffffffffffffffffffffffffffffffffffffffffff)\n      and\n      0x20\n      dup3\n      add\n      dup1\n      mload\n      0xffffffffffffffffffffffffffffffffffffffffffffffffffffffff\n      dup4\n      dup2\n      dup4\n      and\n      or\n      dup4\n      mstore\n      pop\n      pop\n      pop\n      pop\n        /* \"pinkLockV2(NormalLock).sol\":33153:33172  _callOptionalReturn */\n      tag_360\n        /* \"pinkLockV2(NormalLock).sol\":33153:33249  _callOptionalReturn(token, abi.encodeWithSelector(token.transferFrom.selector, from, to, value)) */\n      jump\t// in\n    tag_371:\n        /* \"pinkLockV2(NormalLock).sol\":33009:33257  function safeTransferFrom(\r... */\n      pop\n      pop\n      pop\n      pop\n      jump\t// out\n        /* \"pinkLockV2(NormalLock).sol\":8426:8555  function _contains(Set storage set, bytes32 value) private view returns (bool) {\r... */\n    tag_351:\n        /* \"pinkLockV2(NormalLock).sol\":8499:8503  bool */\n      0x00\n        /* \"pinkLockV2(NormalLock).sol\":8546:8547  0 */\n      dup1\n        /* \"pinkLockV2(NormalLock).sol\":8523:8526  set */\n      dup4\n        /* \"pinkLockV2(NormalLock).sol\":8523:8535  set._indexes */\n      0x01\n      add\n        /* \"pinkLockV2(NormalLock).sol\":8523:8542  set._indexes[value] */\n      0x00\n        /* \"pinkLockV2(NormalLock).sol\":8536:8541  value */\n      dup5\n        /* \"pinkLockV2(NormalLock).sol\":8523:8542  set._indexes[value] */\n      dup2\n      mstore\n      0x20\n      add\n      swap1\n      dup2\n      mstore\n      0x20\n      add\n      0x00\n      keccak256\n      sload\n        /* \"pinkLockV2(NormalLock).sol\":8523:8547  set._indexes[value] != 0 */\n      eq\n      iszero\n        /* \"pinkLockV2(NormalLock).sol\":8516:8547  return set._indexes[value] != 0 */\n      swap1\n      pop\n        /* \"pinkLockV2(NormalLock).sol\":8426:8555  function _contains(Set storage set, bytes32 value) private view returns (bool) {\r... */\n      swap3\n      swap2\n      pop\n      pop\n      jump\t// out\n        /* \"pinkLockV2(NormalLock).sol\":35857:36573  function _callOptionalReturn(IERC20 token, bytes memory data) private {\r... */\n    tag_360:\n        /* \"pinkLockV2(NormalLock).sol\":36281:36304  bytes memory returndata */\n      0x00\n        /* \"pinkLockV2(NormalLock).sol\":36307:36376  address(token).functionCall(data, \"SafeERC20: low-level call failed\") */\n      tag_376\n        /* \"pinkLockV2(NormalLock).sol\":36335:36339  data */\n      dup3\n        /* \"pinkLockV2(NormalLock).sol\":36307:36376  address(token).functionCall(data, \"SafeERC20: low-level call failed\") */\n      mload(0x40)\n      dup1\n      0x40\n      add\n      0x40\n      mstore\n      dup1\n      0x20\n      dup2\n      mstore\n      0x20\n      add\n      0x5361666545524332303a206c6f772d6c6576656c2063616c6c206661696c6564\n      dup2\n      mstore\n      pop\n        /* \"pinkLockV2(NormalLock).sol\":36315:36320  token */\n      dup6\n        /* \"pinkLockV2(NormalLock).sol\":36307:36334  address(token).functionCall */\n      0xffffffffffffffffffffffffffffffffffffffff\n      and\n      tag_377\n      swap1\n        /* \"pinkLockV2(NormalLock).sol\":36307:36376  address(token).functionCall(data, \"SafeERC20: low-level call failed\") */\n      swap3\n      swap2\n      swap1\n      0xffffffff\n      and\n      jump\t// in\n    tag_376:\n        /* \"pinkLockV2(NormalLock).sol\":36281:36376  bytes memory returndata = address(token).functionCall(data, \"SafeERC20: low-level call failed\") */\n      swap1\n      pop\n        /* \"pinkLockV2(NormalLock).sol\":36411:36412  0 */\n      0x00\n        /* \"pinkLockV2(NormalLock).sol\":36391:36401  returndata */\n      dup2\n        /* \"pinkLockV2(NormalLock).sol\":36391:36408  returndata.length */\n      mload\n        /* \"pinkLockV2(NormalLock).sol\":36391:36412  returndata.length > 0 */\n      gt\n        /* \"pinkLockV2(NormalLock).sol\":36387:36566  if (returndata.length > 0) {\r... */\n      iszero\n      tag_378\n      jumpi\n        /* \"pinkLockV2(NormalLock).sol\":36488:36498  returndata */\n      dup1\n        /* \"pinkLockV2(NormalLock).sol\":36477:36507  abi.decode(returndata, (bool)) */\n      dup1\n      0x20\n      add\n      swap1\n      mload\n      dup2\n      add\n      swap1\n      tag_379\n      swap2\n      swap1\n      tag_380\n      jump\t// in\n    tag_379:\n        /* \"pinkLockV2(NormalLock).sol\":36469:36554  require(abi.decode(returndata, (bool)), \"SafeERC20: ERC20 operation did not succeed\") */\n      tag_381\n      jumpi\n      mload(0x40)\n      0x08c379a000000000000000000000000000000000000000000000000000000000\n      dup2\n      mstore\n      0x04\n      add\n      tag_382\n      swap1\n      tag_383\n      jump\t// in\n    tag_382:\n      mload(0x40)\n      dup1\n      swap2\n      sub\n      swap1\n      revert\n    tag_381:\n        /* \"pinkLockV2(NormalLock).sol\":36387:36566  if (returndata.length > 0) {\r... */\n    tag_378:\n        /* \"pinkLockV2(NormalLock).sol\":35857:36573  function _callOptionalReturn(IERC20 token, bytes memory data) private {\r... */\n      pop\n      pop\n      pop\n      jump\t// out\n        /* \"pinkLockV2(NormalLock).sol\":40086:40667  function _registerLock(\r... */\n    tag_363:\n        /* \"pinkLockV2(NormalLock).sol\":40285:40295  uint256 id */\n      0x00\n        /* \"pinkLockV2(NormalLock).sol\":2643:2662  _requireNotPaused() */\n      tag_385\n        /* \"pinkLockV2(NormalLock).sol\":2643:2660  _requireNotPaused */\n      tag_386\n        /* \"pinkLockV2(NormalLock).sol\":2643:2662  _requireNotPaused() */\n      jump\t// in\n    tag_385:\n        /* \"pinkLockV2(NormalLock).sol\":40313:40319  _locks */\n      0x01\n        /* \"pinkLockV2(NormalLock).sol\":40313:40326  _locks.length */\n      dup1\n      sload\n      swap1\n      pop\n        /* \"pinkLockV2(NormalLock).sol\":40308:40326  id = _locks.length */\n      swap1\n      pop\n        /* \"pinkLockV2(NormalLock).sol\":40337:40356  Lock memory newLock */\n      0x00\n        /* \"pinkLockV2(NormalLock).sol\":40359:40628  Lock({\r... */\n      mload(0x40)\n      dup1\n      0x0100\n      add\n      0x40\n      mstore\n      dup1\n        /* \"pinkLockV2(NormalLock).sol\":40383:40385  id */\n      dup4\n        /* \"pinkLockV2(NormalLock).sol\":40359:40628  Lock({\r... */\n      dup2\n      mstore\n      0x20\n      add\n        /* \"pinkLockV2(NormalLock).sol\":40407:40412  token */\n      dup8\n        /* \"pinkLockV2(NormalLock).sol\":40359:40628  Lock({\r... */\n      0xffffffffffffffffffffffffffffffffffffffff\n      and\n      dup2\n      mstore\n      0x20\n      add\n        /* \"pinkLockV2(NormalLock).sol\":40434:40439  owner */\n      dup9\n        /* \"pinkLockV2(NormalLock).sol\":40359:40628  Lock({\r... */\n      0xffffffffffffffffffffffffffffffffffffffff\n      and\n      dup2\n      mstore\n      0x20\n      add\n        /* \"pinkLockV2(NormalLock).sol\":40462:40468  amount */\n      dup7\n        /* \"pinkLockV2(NormalLock).sol\":40359:40628  Lock({\r... */\n      dup2\n      mstore\n      0x20\n      add\n        /* \"pinkLockV2(NormalLock).sol\":40493:40508  block.timestamp */\n      timestamp\n        /* \"pinkLockV2(NormalLock).sol\":40359:40628  Lock({\r... */\n      dup2\n      mstore\n      0x20\n      add\n        /* \"pinkLockV2(NormalLock).sol\":40535:40545  unlockDate */\n      dup6\n        /* \"pinkLockV2(NormalLock).sol\":40359:40628  Lock({\r... */\n      dup2\n      mstore\n      0x20\n      add\n        /* \"pinkLockV2(NormalLock).sol\":40576:40577  0 */\n      0x00\n        /* \"pinkLockV2(NormalLock).sol\":40359:40628  Lock({\r... */\n      dup2\n      mstore\n      0x20\n      add\n        /* \"pinkLockV2(NormalLock).sol\":40605:40616  description */\n      dup5\n        /* \"pinkLockV2(NormalLock).sol\":40359:40628  Lock({\r... */\n      dup2\n      mstore\n      pop\n        /* \"pinkLockV2(NormalLock).sol\":40337:40628  Lock memory newLock = Lock({\r... */\n      swap1\n      pop\n        /* \"pinkLockV2(NormalLock).sol\":40639:40645  _locks */\n      0x01\n        /* \"pinkLockV2(NormalLock).sol\":40651:40658  newLock */\n      dup2\n        /* \"pinkLockV2(NormalLock).sol\":40639:40659  _locks.push(newLock) */\n      swap1\n      dup1\n      0x01\n      dup2\n      sload\n      add\n      dup1\n      dup3\n      sstore\n      dup1\n      swap2\n      pop\n      pop\n      0x01\n      swap1\n      sub\n      swap1\n      0x00\n      mstore\n      keccak256(0x00, 0x20)\n      swap1\n      0x08\n      mul\n      add\n      0x00\n      swap1\n      swap2\n      swap1\n      swap2\n      swap1\n      swap2\n      pop\n      0x00\n      dup3\n      add\n      mload\n      dup2\n      0x00\n      add\n      sstore\n      0x20\n      dup3\n      add\n      mload\n      dup2\n      0x01\n      add\n      exp(0x0100, 0x00)\n      dup2\n      sload\n      dup2\n      0xffffffffffffffffffffffffffffffffffffffff\n      mul\n      not\n      and\n      swap1\n      dup4\n      0xffffffffffffffffffffffffffffffffffffffff\n      and\n      mul\n      or\n      swap1\n      sstore\n      pop\n      0x40\n      dup3\n      add\n      mload\n      dup2\n      0x02\n      add\n      exp(0x0100, 0x00)\n      dup2\n      sload\n      dup2\n      0xffffffffffffffffffffffffffffffffffffffff\n      mul\n      not\n      and\n      swap1\n      dup4\n      0xffffffffffffffffffffffffffffffffffffffff\n      and\n      mul\n      or\n      swap1\n      sstore\n      pop\n      0x60\n      dup3\n      add\n      mload\n      dup2\n      0x03\n      add\n      sstore\n      0x80\n      dup3\n      add\n      mload\n      dup2\n      0x04\n      add\n      sstore\n      0xa0\n      dup3\n      add\n      mload\n      dup2\n      0x05\n      add\n      sstore\n      0xc0\n      dup3\n      add\n      mload\n      dup2\n      0x06\n      add\n      sstore\n      0xe0\n      dup3\n      add\n      mload\n      dup2\n      0x07\n      add\n      swap1\n      dup1\n      mload\n      swap1\n      0x20\n      add\n      swap1\n      tag_389\n      swap3\n      swap2\n      swap1\n      tag_255\n      jump\t// in\n    tag_389:\n      pop\n      pop\n      pop\n        /* \"pinkLockV2(NormalLock).sol\":2673:2674  _ */\n      pop\n        /* \"pinkLockV2(NormalLock).sol\":40086:40667  function _registerLock(\r... */\n      swap6\n      swap5\n      pop\n      pop\n      pop\n      pop\n      pop\n      jump\t// out\n        /* \"pinkLockV2(NormalLock).sol\":12599:12751  function add(AddressSet storage set, address value) internal returns (bool) {\r... */\n    tag_366:\n        /* \"pinkLockV2(NormalLock).sol\":12669:12673  bool */\n      0x00\n        /* \"pinkLockV2(NormalLock).sol\":12693:12743  _add(set._inner, bytes32(uint256(uint160(value)))) */\n      tag_391\n        /* \"pinkLockV2(NormalLock).sol\":12698:12701  set */\n      dup4\n        /* \"pinkLockV2(NormalLock).sol\":12698:12708  set._inner */\n      0x00\n      add\n        /* \"pinkLockV2(NormalLock).sol\":12734:12739  value */\n      dup4\n        /* \"pinkLockV2(NormalLock).sol\":12718:12741  uint256(uint160(value)) */\n      0xffffffffffffffffffffffffffffffffffffffff\n      and\n        /* \"pinkLockV2(NormalLock).sol\":12710:12742  bytes32(uint256(uint160(value))) */\n      0x00\n      shl\n        /* \"pinkLockV2(NormalLock).sol\":12693:12697  _add */\n      tag_290\n        /* \"pinkLockV2(NormalLock).sol\":12693:12743  _add(set._inner, bytes32(uint256(uint160(value)))) */\n      jump\t// in\n    tag_391:\n        /* \"pinkLockV2(NormalLock).sol\":12686:12743  return _add(set._inner, bytes32(uint256(uint160(value)))) */\n      swap1\n      pop\n        /* \"pinkLockV2(NormalLock).sol\":12599:12751  function add(AddressSet storage set, address value) internal returns (bool) {\r... */\n      swap3\n      swap2\n      pop\n      pop\n      jump\t// out\n        /* \"pinkLockV2(NormalLock).sol\":26635:26864  function functionCall(\r... */\n    tag_377:\n        /* \"pinkLockV2(NormalLock).sol\":26772:26784  bytes memory */\n      0x60\n        /* \"pinkLockV2(NormalLock).sol\":26804:26856  functionCallWithValue(target, data, 0, errorMessage) */\n      tag_393\n        /* \"pinkLockV2(NormalLock).sol\":26826:26832  target */\n      dup5\n        /* \"pinkLockV2(NormalLock).sol\":26834:26838  data */\n      dup5\n        /* \"pinkLockV2(NormalLock).sol\":26840:26841  0 */\n      0x00\n        /* \"pinkLockV2(NormalLock).sol\":26843:26855  errorMessage */\n      dup6\n        /* \"pinkLockV2(NormalLock).sol\":26804:26825  functionCallWithValue */\n      tag_394\n        /* \"pinkLockV2(NormalLock).sol\":26804:26856  functionCallWithValue(target, data, 0, errorMessage) */\n      jump\t// in\n    tag_393:\n        /* \"pinkLockV2(NormalLock).sol\":26797:26856  return functionCallWithValue(target, data, 0, errorMessage) */\n      swap1\n      pop\n        /* \"pinkLockV2(NormalLock).sol\":26635:26864  function functionCall(\r... */\n      swap4\n      swap3\n      pop\n      pop\n      pop\n      jump\t// out\n        /* \"pinkLockV2(NormalLock).sol\":3197:3305  function _requireNotPaused() internal view virtual {\r... */\n    tag_386:\n        /* \"pinkLockV2(NormalLock).sol\":3268:3276  paused() */\n      tag_396\n        /* \"pinkLockV2(NormalLock).sol\":3268:3274  paused */\n      tag_49\n        /* \"pinkLockV2(NormalLock).sol\":3268:3276  paused() */\n      jump\t// in\n    tag_396:\n        /* \"pinkLockV2(NormalLock).sol\":3267:3276  !paused() */\n      iszero\n        /* \"pinkLockV2(NormalLock).sol\":3259:3297  require(!paused(), \"Pausable: paused\") */\n      tag_397\n      jumpi\n      mload(0x40)\n      0x08c379a000000000000000000000000000000000000000000000000000000000\n      dup2\n      mstore\n      0x04\n      add\n      tag_398\n      swap1\n      tag_399\n      jump\t// in\n    tag_398:\n      mload(0x40)\n      dup1\n      swap2\n      sub\n      swap1\n      revert\n    tag_397:\n        /* \"pinkLockV2(NormalLock).sol\":3197:3305  function _requireNotPaused() internal view virtual {\r... */\n      jump\t// out\n        /* \"pinkLockV2(NormalLock).sol\":27755:28210  function functionCallWithValue(\r... */\n    tag_394:\n        /* \"pinkLockV2(NormalLock).sol\":27925:27937  bytes memory */\n      0x60\n        /* \"pinkLockV2(NormalLock).sol\":27983:27988  value */\n      dup3\n        /* \"pinkLockV2(NormalLock).sol\":27958:27979  address(this).balance */\n      selfbalance\n        /* \"pinkLockV2(NormalLock).sol\":27958:27988  address(this).balance >= value */\n      lt\n      iszero\n        /* \"pinkLockV2(NormalLock).sol\":27950:28031  require(address(this).balance >= value, \"Address: insufficient balance for call\") */\n      tag_401\n      jumpi\n      mload(0x40)\n      0x08c379a000000000000000000000000000000000000000000000000000000000\n      dup2\n      mstore\n      0x04\n      add\n      tag_402\n      swap1\n      tag_403\n      jump\t// in\n    tag_402:\n      mload(0x40)\n      dup1\n      swap2\n      sub\n      swap1\n      revert\n    tag_401:\n        /* \"pinkLockV2(NormalLock).sol\":28043:28055  bool success */\n      0x00\n        /* \"pinkLockV2(NormalLock).sol\":28057:28080  bytes memory returndata */\n      dup1\n        /* \"pinkLockV2(NormalLock).sol\":28084:28090  target */\n      dup7\n        /* \"pinkLockV2(NormalLock).sol\":28084:28095  target.call */\n      0xffffffffffffffffffffffffffffffffffffffff\n      and\n        /* \"pinkLockV2(NormalLock).sol\":28103:28108  value */\n      dup6\n        /* \"pinkLockV2(NormalLock).sol\":28110:28114  data */\n      dup8\n        /* \"pinkLockV2(NormalLock).sol\":28084:28115  target.call{value: value}(data) */\n      mload(0x40)\n      tag_404\n      swap2\n      swap1\n      tag_405\n      jump\t// in\n    tag_404:\n      0x00\n      mload(0x40)\n      dup1\n      dup4\n      sub\n      dup2\n      dup6\n      dup8\n      gas\n      call\n      swap3\n      pop\n      pop\n      pop\n      returndatasize\n      dup1\n      0x00\n      dup2\n      eq\n      tag_408\n      jumpi\n      mload(0x40)\n      swap2\n      pop\n      and(add(returndatasize, 0x3f), not(0x1f))\n      dup3\n      add\n      0x40\n      mstore\n      returndatasize\n      dup3\n      mstore\n      returndatasize\n      0x00\n      0x20\n      dup5\n      add\n      returndatacopy\n      jump(tag_407)\n    tag_408:\n      0x60\n      swap2\n      pop\n    tag_407:\n      pop\n        /* \"pinkLockV2(NormalLock).sol\":28042:28115  (bool success, bytes memory returndata) = target.call{value: value}(data) */\n      swap2\n      pop\n      swap2\n      pop\n        /* \"pinkLockV2(NormalLock).sol\":28133:28202  verifyCallResultFromTarget(target, success, returndata, errorMessage) */\n      tag_409\n        /* \"pinkLockV2(NormalLock).sol\":28160:28166  target */\n      dup8\n        /* \"pinkLockV2(NormalLock).sol\":28168:28175  success */\n      dup4\n        /* \"pinkLockV2(NormalLock).sol\":28177:28187  returndata */\n      dup4\n        /* \"pinkLockV2(NormalLock).sol\":28189:28201  errorMessage */\n      dup8\n        /* \"pinkLockV2(NormalLock).sol\":28133:28159  verifyCallResultFromTarget */\n      tag_410\n        /* \"pinkLockV2(NormalLock).sol\":28133:28202  verifyCallResultFromTarget(target, success, returndata, errorMessage) */\n      jump\t// in\n    tag_409:\n        /* \"pinkLockV2(NormalLock).sol\":28126:28202  return verifyCallResultFromTarget(target, success, returndata, errorMessage) */\n      swap3\n      pop\n      pop\n      pop\n        /* \"pinkLockV2(NormalLock).sol\":27755:28210  function functionCallWithValue(\r... */\n      swap5\n      swap4\n      pop\n      pop\n      pop\n      pop\n      jump\t// out\n        /* \"pinkLockV2(NormalLock).sol\":30328:30972  function verifyCallResultFromTarget(\r... */\n    tag_410:\n        /* \"pinkLockV2(NormalLock).sol\":30513:30525  bytes memory */\n      0x60\n        /* \"pinkLockV2(NormalLock).sol\":30542:30549  success */\n      dup4\n        /* \"pinkLockV2(NormalLock).sol\":30538:30965  if (success) {\r... */\n      iszero\n      tag_412\n      jumpi\n        /* \"pinkLockV2(NormalLock).sol\":30591:30592  0 */\n      0x00\n        /* \"pinkLockV2(NormalLock).sol\":30570:30580  returndata */\n      dup4\n        /* \"pinkLockV2(NormalLock).sol\":30570:30587  returndata.length */\n      mload\n        /* \"pinkLockV2(NormalLock).sol\":30570:30592  returndata.length == 0 */\n      eq\n        /* \"pinkLockV2(NormalLock).sol\":30566:30856  if (returndata.length == 0) {\r... */\n      iszero\n      tag_413\n      jumpi\n        /* \"pinkLockV2(NormalLock).sol\":30788:30806  isContract(target) */\n      tag_414\n        /* \"pinkLockV2(NormalLock).sol\":30799:30805  target */\n      dup6\n        /* \"pinkLockV2(NormalLock).sol\":30788:30798  isContract */\n      tag_415\n        /* \"pinkLockV2(NormalLock).sol\":30788:30806  isContract(target) */\n      jump\t// in\n    tag_414:\n        /* \"pinkLockV2(NormalLock).sol\":30780:30840  require(isContract(target), \"Address: call to non-contract\") */\n      tag_416\n      jumpi\n      mload(0x40)\n      0x08c379a000000000000000000000000000000000000000000000000000000000\n      dup2\n      mstore\n      0x04\n      add\n      tag_417\n      swap1\n      tag_418\n      jump\t// in\n    tag_417:\n      mload(0x40)\n      dup1\n      swap2\n      sub\n      swap1\n      revert\n    tag_416:\n        /* \"pinkLockV2(NormalLock).sol\":30566:30856  if (returndata.length == 0) {\r... */\n    tag_413:\n        /* \"pinkLockV2(NormalLock).sol\":30877:30887  returndata */\n      dup3\n        /* \"pinkLockV2(NormalLock).sol\":30870:30887  return returndata */\n      swap1\n      pop\n      jump(tag_411)\n        /* \"pinkLockV2(NormalLock).sol\":30538:30965  if (success) {\r... */\n    tag_412:\n        /* \"pinkLockV2(NormalLock).sol\":30920:30953  _revert(returndata, errorMessage) */\n      tag_420\n        /* \"pinkLockV2(NormalLock).sol\":30928:30938  returndata */\n      dup4\n        /* \"pinkLockV2(NormalLock).sol\":30940:30952  errorMessage */\n      dup4\n        /* \"pinkLockV2(NormalLock).sol\":30920:30927  _revert */\n      tag_421\n        /* \"pinkLockV2(NormalLock).sol\":30920:30953  _revert(returndata, errorMessage) */\n      jump\t// in\n    tag_420:\n        /* \"pinkLockV2(NormalLock).sol\":30328:30972  function verifyCallResultFromTarget(\r... */\n    tag_411:\n      swap5\n      swap4\n      pop\n      pop\n      pop\n      pop\n      jump\t// out\n        /* \"pinkLockV2(NormalLock).sol\":23878:24204  function isContract(address account) internal view returns (bool) {\r... */\n    tag_415:\n        /* \"pinkLockV2(NormalLock).sol\":23938:23942  bool */\n      0x00\n        /* \"pinkLockV2(NormalLock).sol\":24195:24196  0 */\n      dup1\n        /* \"pinkLockV2(NormalLock).sol\":24173:24180  account */\n      dup3\n        /* \"pinkLockV2(NormalLock).sol\":24173:24192  account.code.length */\n      0xffffffffffffffffffffffffffffffffffffffff\n      and\n      extcodesize\n        /* \"pinkLockV2(NormalLock).sol\":24173:24196  account.code.length > 0 */\n      gt\n        /* \"pinkLockV2(NormalLock).sol\":24166:24196  return account.code.length > 0 */\n      swap1\n      pop\n        /* \"pinkLockV2(NormalLock).sol\":23878:24204  function isContract(address account) internal view returns (bool) {\r... */\n      swap2\n      swap1\n      pop\n      jump\t// out\n        /* \"pinkLockV2(NormalLock).sol\":31514:32066  function _revert(bytes memory returndata, string memory errorMessage) private pure {\r... */\n    tag_421:\n        /* \"pinkLockV2(NormalLock).sol\":31695:31696  0 */\n      0x00\n        /* \"pinkLockV2(NormalLock).sol\":31675:31685  returndata */\n      dup3\n        /* \"pinkLockV2(NormalLock).sol\":31675:31692  returndata.length */\n      mload\n        /* \"pinkLockV2(NormalLock).sol\":31675:31696  returndata.length > 0 */\n      gt\n        /* \"pinkLockV2(NormalLock).sol\":31671:32059  if (returndata.length > 0) {\r... */\n      iszero\n      tag_424\n      jumpi\n        /* \"pinkLockV2(NormalLock).sol\":31907:31917  returndata */\n      dup2\n        /* \"pinkLockV2(NormalLock).sol\":31901:31918  mload(returndata) */\n      mload\n        /* \"pinkLockV2(NormalLock).sol\":31964:31979  returndata_size */\n      dup1\n        /* \"pinkLockV2(NormalLock).sol\":31951:31961  returndata */\n      dup4\n        /* \"pinkLockV2(NormalLock).sol\":31947:31949  32 */\n      0x20\n        /* \"pinkLockV2(NormalLock).sol\":31943:31962  add(32, returndata) */\n      add\n        /* \"pinkLockV2(NormalLock).sol\":31936:31980  revert(add(32, returndata), returndata_size) */\n      revert\n        /* \"pinkLockV2(NormalLock).sol\":31859:31995  {\r... */\n    tag_424:\n        /* \"pinkLockV2(NormalLock).sol\":32034:32046  errorMessage */\n      dup1\n        /* \"pinkLockV2(NormalLock).sol\":32027:32047  revert(errorMessage) */\n      mload(0x40)\n      0x08c379a000000000000000000000000000000000000000000000000000000000\n      dup2\n      mstore\n      0x04\n      add\n      tag_426\n      swap2\n      swap1\n      tag_427\n      jump\t// in\n    tag_426:\n      mload(0x40)\n      dup1\n      swap2\n      sub\n      swap1\n      revert\n    tag_105:\n      mload(0x40)\n      dup1\n      0x0100\n      add\n      0x40\n      mstore\n      dup1\n      0x00\n      dup2\n      mstore\n      0x20\n      add\n      and(0xffffffffffffffffffffffffffffffffffffffff, 0x00)\n      dup2\n      mstore\n      0x20\n      add\n      and(0xffffffffffffffffffffffffffffffffffffffff, 0x00)\n      dup2\n      mstore\n      0x20\n      add\n      0x00\n      dup2\n      mstore\n      0x20\n      add\n      0x00\n      dup2\n      mstore\n      0x20\n      add\n      0x00\n      dup2\n      mstore\n      0x20\n      add\n      0x00\n      dup2\n      mstore\n      0x20\n      add\n      0x60\n      dup2\n      mstore\n      pop\n      swap1\n      jump\t// out\n    tag_196:\n      mload(0x40)\n      dup1\n      0x40\n      add\n      0x40\n      mstore\n      dup1\n      and(0xffffffffffffffffffffffffffffffffffffffff, 0x00)\n      dup2\n      mstore\n      0x20\n      add\n      0x00\n      dup2\n      mstore\n      pop\n      swap1\n      jump\t// out\n    tag_255:\n      dup3\n      dup1\n      sload\n      tag_428\n      swap1\n      tag_112\n      jump\t// in\n    tag_428:\n      swap1\n      0x00\n      mstore\n      keccak256(0x00, 0x20)\n      swap1\n      0x1f\n      add\n      0x20\n      swap1\n      div\n      dup2\n      add\n      swap3\n      dup3\n      tag_430\n      jumpi\n      0x00\n      dup6\n      sstore\n      jump(tag_429)\n    tag_430:\n      dup3\n      0x1f\n      lt\n      tag_431\n      jumpi\n      dup1\n      mload\n      not(0xff)\n      and\n      dup4\n      dup1\n      add\n      or\n      dup6\n      sstore\n      jump(tag_429)\n    tag_431:\n      dup3\n      dup1\n      add\n      0x01\n      add\n      dup6\n      sstore\n      dup3\n      iszero\n      tag_429\n      jumpi\n      swap2\n      dup3\n      add\n    tag_432:\n      dup3\n      dup2\n      gt\n      iszero\n      tag_433\n      jumpi\n      dup3\n      mload\n      dup3\n      sstore\n      swap2\n      0x20\n      add\n      swap2\n      swap1\n      0x01\n      add\n      swap1\n      jump(tag_432)\n    tag_433:\n    tag_429:\n      pop\n      swap1\n      pop\n      tag_434\n      swap2\n      swap1\n      tag_435\n      jump\t// in\n    tag_434:\n      pop\n      swap1\n      jump\t// out\n    tag_435:\n    tag_436:\n      dup1\n      dup3\n      gt\n      iszero\n      tag_437\n      jumpi\n      0x00\n      dup2\n      0x00\n      swap1\n      sstore\n      pop\n      0x01\n      add\n      jump(tag_436)\n    tag_437:\n      pop\n      swap1\n      jump\t// out\n        /* \"#utility.yul\":7:352   */\n    tag_439:\n        /* \"#utility.yul\":85:90   */\n      0x00\n        /* \"#utility.yul\":110:176   */\n      tag_441\n        /* \"#utility.yul\":126:175   */\n      tag_442\n        /* \"#utility.yul\":168:174   */\n      dup5\n        /* \"#utility.yul\":126:175   */\n      tag_443\n      jump\t// in\n    tag_442:\n        /* \"#utility.yul\":110:176   */\n      tag_444\n      jump\t// in\n    tag_441:\n        /* \"#utility.yul\":101:176   */\n      swap1\n      pop\n        /* \"#utility.yul\":199:205   */\n      dup3\n        /* \"#utility.yul\":192:197   */\n      dup2\n        /* \"#utility.yul\":185:206   */\n      mstore\n        /* \"#utility.yul\":237:241   */\n      0x20\n        /* \"#utility.yul\":230:235   */\n      dup2\n        /* \"#utility.yul\":226:242   */\n      add\n        /* \"#utility.yul\":275:278   */\n      dup5\n        /* \"#utility.yul\":266:272   */\n      dup5\n        /* \"#utility.yul\":261:264   */\n      dup5\n        /* \"#utility.yul\":257:273   */\n      add\n        /* \"#utility.yul\":254:279   */\n      gt\n        /* \"#utility.yul\":251:253   */\n      iszero\n      tag_445\n      jumpi\n        /* \"#utility.yul\":292:293   */\n      0x00\n        /* \"#utility.yul\":289:290   */\n      dup1\n        /* \"#utility.yul\":282:294   */\n      revert\n        /* \"#utility.yul\":251:253   */\n    tag_445:\n        /* \"#utility.yul\":305:346   */\n      tag_446\n        /* \"#utility.yul\":339:345   */\n      dup5\n        /* \"#utility.yul\":334:337   */\n      dup3\n        /* \"#utility.yul\":329:332   */\n      dup6\n        /* \"#utility.yul\":305:346   */\n      tag_447\n      jump\t// in\n    tag_446:\n        /* \"#utility.yul\":91:352   */\n      pop\n      swap4\n      swap3\n      pop\n      pop\n      pop\n      jump\t// out\n        /* \"#utility.yul\":358:497   */\n    tag_448:\n        /* \"#utility.yul\":404:409   */\n      0x00\n        /* \"#utility.yul\":442:448   */\n      dup2\n        /* \"#utility.yul\":429:449   */\n      calldataload\n        /* \"#utility.yul\":420:449   */\n      swap1\n      pop\n        /* \"#utility.yul\":458:491   */\n      tag_450\n        /* \"#utility.yul\":485:490   */\n      dup2\n        /* \"#utility.yul\":458:491   */\n      tag_451\n      jump\t// in\n    tag_450:\n        /* \"#utility.yul\":410:497   */\n      swap3\n      swap2\n      pop\n      pop\n      jump\t// out\n        /* \"#utility.yul\":503:640   */\n    tag_452:\n        /* \"#utility.yul\":557:562   */\n      0x00\n        /* \"#utility.yul\":588:594   */\n      dup2\n        /* \"#utility.yul\":582:595   */\n      mload\n        /* \"#utility.yul\":573:595   */\n      swap1\n      pop\n        /* \"#utility.yul\":604:634   */\n      tag_454\n        /* \"#utility.yul\":628:633   */\n      dup2\n        /* \"#utility.yul\":604:634   */\n      tag_455\n      jump\t// in\n    tag_454:\n        /* \"#utility.yul\":563:640   */\n      swap3\n      swap2\n      pop\n      pop\n      jump\t// out\n        /* \"#utility.yul\":660:933   */\n    tag_456:\n        /* \"#utility.yul\":716:721   */\n      0x00\n        /* \"#utility.yul\":765:768   */\n      dup3\n        /* \"#utility.yul\":758:762   */\n      0x1f\n        /* \"#utility.yul\":750:756   */\n      dup4\n        /* \"#utility.yul\":746:763   */\n      add\n        /* \"#utility.yul\":742:769   */\n      slt\n        /* \"#utility.yul\":732:734   */\n      tag_458\n      jumpi\n        /* \"#utility.yul\":783:784   */\n      0x00\n        /* \"#utility.yul\":780:781   */\n      dup1\n        /* \"#utility.yul\":773:785   */\n      revert\n        /* \"#utility.yul\":732:734   */\n    tag_458:\n        /* \"#utility.yul\":823:829   */\n      dup2\n        /* \"#utility.yul\":810:830   */\n      calldataload\n        /* \"#utility.yul\":848:927   */\n      tag_459\n        /* \"#utility.yul\":923:926   */\n      dup5\n        /* \"#utility.yul\":915:921   */\n      dup3\n        /* \"#utility.yul\":908:912   */\n      0x20\n        /* \"#utility.yul\":900:906   */\n      dup7\n        /* \"#utility.yul\":896:913   */\n      add\n        /* \"#utility.yul\":848:927   */\n      tag_439\n      jump\t// in\n    tag_459:\n        /* \"#utility.yul\":839:927   */\n      swap2\n      pop\n        /* \"#utility.yul\":722:933   */\n      pop\n      swap3\n      swap2\n      pop\n      pop\n      jump\t// out\n        /* \"#utility.yul\":939:1078   */\n    tag_460:\n        /* \"#utility.yul\":985:990   */\n      0x00\n        /* \"#utility.yul\":1023:1029   */\n      dup2\n        /* \"#utility.yul\":1010:1030   */\n      calldataload\n        /* \"#utility.yul\":1001:1030   */\n      swap1\n      pop\n        /* \"#utility.yul\":1039:1072   */\n      tag_462\n        /* \"#utility.yul\":1066:1071   */\n      dup2\n        /* \"#utility.yul\":1039:1072   */\n      tag_463\n      jump\t// in\n    tag_462:\n        /* \"#utility.yul\":991:1078   */\n      swap3\n      swap2\n      pop\n      pop\n      jump\t// out\n        /* \"#utility.yul\":1084:1227   */\n    tag_464:\n        /* \"#utility.yul\":1141:1146   */\n      0x00\n        /* \"#utility.yul\":1172:1178   */\n      dup2\n        /* \"#utility.yul\":1166:1179   */\n      mload\n        /* \"#utility.yul\":1157:1179   */\n      swap1\n      pop\n        /* \"#utility.yul\":1188:1221   */\n      tag_466\n        /* \"#utility.yul\":1215:1220   */\n      dup2\n        /* \"#utility.yul\":1188:1221   */\n      tag_463\n      jump\t// in\n    tag_466:\n        /* \"#utility.yul\":1147:1227   */\n      swap3\n      swap2\n      pop\n      pop\n      jump\t// out\n        /* \"#utility.yul\":1233:1495   */\n    tag_89:\n        /* \"#utility.yul\":1292:1298   */\n      0x00\n        /* \"#utility.yul\":1341:1343   */\n      0x20\n        /* \"#utility.yul\":1329:1338   */\n      dup3\n        /* \"#utility.yul\":1320:1327   */\n      dup5\n        /* \"#utility.yul\":1316:1339   */\n      sub\n        /* \"#utility.yul\":1312:1344   */\n      slt\n        /* \"#utility.yul\":1309:1311   */\n      iszero\n      tag_468\n      jumpi\n        /* \"#utility.yul\":1357:1358   */\n      0x00\n        /* \"#utility.yul\":1354:1355   */\n      dup1\n        /* \"#utility.yul\":1347:1359   */\n      revert\n        /* \"#utility.yul\":1309:1311   */\n    tag_468:\n        /* \"#utility.yul\":1400:1401   */\n      0x00\n        /* \"#utility.yul\":1425:1478   */\n      tag_469\n        /* \"#utility.yul\":1470:1477   */\n      dup5\n        /* \"#utility.yul\":1461:1467   */\n      dup3\n        /* \"#utility.yul\":1450:1459   */\n      dup6\n        /* \"#utility.yul\":1446:1468   */\n      add\n        /* \"#utility.yul\":1425:1478   */\n      tag_448\n      jump\t// in\n    tag_469:\n        /* \"#utility.yul\":1415:1478   */\n      swap2\n      pop\n        /* \"#utility.yul\":1371:1488   */\n      pop\n        /* \"#utility.yul\":1299:1495   */\n      swap3\n      swap2\n      pop\n      pop\n      jump\t// out\n        /* \"#utility.yul\":1501:2458   */\n    tag_73:\n        /* \"#utility.yul\":1606:1612   */\n      0x00\n        /* \"#utility.yul\":1614:1620   */\n      dup1\n        /* \"#utility.yul\":1622:1628   */\n      0x00\n        /* \"#utility.yul\":1630:1636   */\n      dup1\n        /* \"#utility.yul\":1638:1644   */\n      0x00\n        /* \"#utility.yul\":1687:1690   */\n      0xa0\n        /* \"#utility.yul\":1675:1684   */\n      dup7\n        /* \"#utility.yul\":1666:1673   */\n      dup9\n        /* \"#utility.yul\":1662:1685   */\n      sub\n        /* \"#utility.yul\":1658:1691   */\n      slt\n        /* \"#utility.yul\":1655:1657   */\n      iszero\n      tag_471\n      jumpi\n        /* \"#utility.yul\":1704:1705   */\n      0x00\n        /* \"#utility.yul\":1701:1702   */\n      dup1\n        /* \"#utility.yul\":1694:1706   */\n      revert\n        /* \"#utility.yul\":1655:1657   */\n    tag_471:\n        /* \"#utility.yul\":1747:1748   */\n      0x00\n        /* \"#utility.yul\":1772:1825   */\n      tag_472\n        /* \"#utility.yul\":1817:1824   */\n      dup9\n        /* \"#utility.yul\":1808:1814   */\n      dup3\n        /* \"#utility.yul\":1797:1806   */\n      dup10\n        /* \"#utility.yul\":1793:1815   */\n      add\n        /* \"#utility.yul\":1772:1825   */\n      tag_448\n      jump\t// in\n    tag_472:\n        /* \"#utility.yul\":1762:1825   */\n      swap6\n      pop\n        /* \"#utility.yul\":1718:1835   */\n      pop\n        /* \"#utility.yul\":1874:1876   */\n      0x20\n        /* \"#utility.yul\":1900:1953   */\n      tag_473\n        /* \"#utility.yul\":1945:1952   */\n      dup9\n        /* \"#utility.yul\":1936:1942   */\n      dup3\n        /* \"#utility.yul\":1925:1934   */\n      dup10\n        /* \"#utility.yul\":1921:1943   */\n      add\n        /* \"#utility.yul\":1900:1953   */\n      tag_448\n      jump\t// in\n    tag_473:\n        /* \"#utility.yul\":1890:1953   */\n      swap5\n      pop\n        /* \"#utility.yul\":1845:1963   */\n      pop\n        /* \"#utility.yul\":2002:2004   */\n      0x40\n        /* \"#utility.yul\":2028:2081   */\n      tag_474\n        /* \"#utility.yul\":2073:2080   */\n      dup9\n        /* \"#utility.yul\":2064:2070   */\n      dup3\n        /* \"#utility.yul\":2053:2062   */\n      dup10\n        /* \"#utility.yul\":2049:2071   */\n      add\n        /* \"#utility.yul\":2028:2081   */\n      tag_460\n      jump\t// in\n    tag_474:\n        /* \"#utility.yul\":2018:2081   */\n      swap4\n      pop\n        /* \"#utility.yul\":1973:2091   */\n      pop\n        /* \"#utility.yul\":2130:2132   */\n      0x60\n        /* \"#utility.yul\":2156:2209   */\n      tag_475\n        /* \"#utility.yul\":2201:2208   */\n      dup9\n        /* \"#utility.yul\":2192:2198   */\n      dup3\n        /* \"#utility.yul\":2181:2190   */\n      dup10\n        /* \"#utility.yul\":2177:2199   */\n      add\n        /* \"#utility.yul\":2156:2209   */\n      tag_460\n      jump\t// in\n    tag_475:\n        /* \"#utility.yul\":2146:2209   */\n      swap3\n      pop\n        /* \"#utility.yul\":2101:2219   */\n      pop\n        /* \"#utility.yul\":2286:2289   */\n      0x80\n        /* \"#utility.yul\":2275:2284   */\n      dup7\n        /* \"#utility.yul\":2271:2290   */\n      add\n        /* \"#utility.yul\":2258:2291   */\n      calldataload\n        /* \"#utility.yul\":2318:2336   */\n      0xffffffffffffffff\n        /* \"#utility.yul\":2310:2316   */\n      dup2\n        /* \"#utility.yul\":2307:2337   */\n      gt\n        /* \"#utility.yul\":2304:2306   */\n      iszero\n      tag_476\n      jumpi\n        /* \"#utility.yul\":2350:2351   */\n      0x00\n        /* \"#utility.yul\":2347:2348   */\n      dup1\n        /* \"#utility.yul\":2340:2352   */\n      revert\n        /* \"#utility.yul\":2304:2306   */\n    tag_476:\n        /* \"#utility.yul\":2378:2441   */\n      tag_477\n        /* \"#utility.yul\":2433:2440   */\n      dup9\n        /* \"#utility.yul\":2424:2430   */\n      dup3\n        /* \"#utility.yul\":2413:2422   */\n      dup10\n        /* \"#utility.yul\":2409:2431   */\n      add\n        /* \"#utility.yul\":2378:2441   */\n      tag_456\n      jump\t// in\n    tag_477:\n        /* \"#utility.yul\":2368:2441   */\n      swap2\n      pop\n        /* \"#utility.yul\":2229:2451   */\n      pop\n        /* \"#utility.yul\":1645:2458   */\n      swap3\n      swap6\n      pop\n      swap3\n      swap6\n      swap1\n      swap4\n      pop\n      jump\t// out\n        /* \"#utility.yul\":2464:2871   */\n    tag_54:\n        /* \"#utility.yul\":2532:2538   */\n      0x00\n        /* \"#utility.yul\":2540:2546   */\n      dup1\n        /* \"#utility.yul\":2589:2591   */\n      0x40\n        /* \"#utility.yul\":2577:2586   */\n      dup4\n        /* \"#utility.yul\":2568:2575   */\n      dup6\n        /* \"#utility.yul\":2564:2587   */\n      sub\n        /* \"#utility.yul\":2560:2592   */\n      slt\n        /* \"#utility.yul\":2557:2559   */\n      iszero\n      tag_479\n      jumpi\n        /* \"#utility.yul\":2605:2606   */\n      0x00\n        /* \"#utility.yul\":2602:2603   */\n      dup1\n        /* \"#utility.yul\":2595:2607   */\n      revert\n        /* \"#utility.yul\":2557:2559   */\n    tag_479:\n        /* \"#utility.yul\":2648:2649   */\n      0x00\n        /* \"#utility.yul\":2673:2726   */\n      tag_480\n        /* \"#utility.yul\":2718:2725   */\n      dup6\n        /* \"#utility.yul\":2709:2715   */\n      dup3\n        /* \"#utility.yul\":2698:2707   */\n      dup7\n        /* \"#utility.yul\":2694:2716   */\n      add\n        /* \"#utility.yul\":2673:2726   */\n      tag_448\n      jump\t// in\n    tag_480:\n        /* \"#utility.yul\":2663:2726   */\n      swap3\n      pop\n        /* \"#utility.yul\":2619:2736   */\n      pop\n        /* \"#utility.yul\":2775:2777   */\n      0x20\n        /* \"#utility.yul\":2801:2854   */\n      tag_481\n        /* \"#utility.yul\":2846:2853   */\n      dup6\n        /* \"#utility.yul\":2837:2843   */\n      dup3\n        /* \"#utility.yul\":2826:2835   */\n      dup7\n        /* \"#utility.yul\":2822:2844   */\n      add\n        /* \"#utility.yul\":2801:2854   */\n      tag_460\n      jump\t// in\n    tag_481:\n        /* \"#utility.yul\":2791:2854   */\n      swap2\n      pop\n        /* \"#utility.yul\":2746:2864   */\n      pop\n        /* \"#utility.yul\":2547:2871   */\n      swap3\n      pop\n      swap3\n      swap1\n      pop\n      jump\t// out\n        /* \"#utility.yul\":2877:3429   */\n    tag_36:\n        /* \"#utility.yul\":2954:2960   */\n      0x00\n        /* \"#utility.yul\":2962:2968   */\n      dup1\n        /* \"#utility.yul\":2970:2976   */\n      0x00\n        /* \"#utility.yul\":3019:3021   */\n      0x60\n        /* \"#utility.yul\":3007:3016   */\n      dup5\n        /* \"#utility.yul\":2998:3005   */\n      dup7\n        /* \"#utility.yul\":2994:3017   */\n      sub\n        /* \"#utility.yul\":2990:3022   */\n      slt\n        /* \"#utility.yul\":2987:2989   */\n      iszero\n      tag_483\n      jumpi\n        /* \"#utility.yul\":3035:3036   */\n      0x00\n        /* \"#utility.yul\":3032:3033   */\n      dup1\n        /* \"#utility.yul\":3025:3037   */\n      revert\n        /* \"#utility.yul\":2987:2989   */\n    tag_483:\n        /* \"#utility.yul\":3078:3079   */\n      0x00\n        /* \"#utility.yul\":3103:3156   */\n      tag_484\n        /* \"#utility.yul\":3148:3155   */\n      dup7\n        /* \"#utility.yul\":3139:3145   */\n      dup3\n        /* \"#utility.yul\":3128:3137   */\n      dup8\n        /* \"#utility.yul\":3124:3146   */\n      add\n        /* \"#utility.yul\":3103:3156   */\n      tag_448\n      jump\t// in\n    tag_484:\n        /* \"#utility.yul\":3093:3156   */\n      swap4\n      pop\n        /* \"#utility.yul\":3049:3166   */\n      pop\n        /* \"#utility.yul\":3205:3207   */\n      0x20\n        /* \"#utility.yul\":3231:3284   */\n      tag_485\n        /* \"#utility.yul\":3276:3283   */\n      dup7\n        /* \"#utility.yul\":3267:3273   */\n      dup3\n        /* \"#utility.yul\":3256:3265   */\n      dup8\n        /* \"#utility.yul\":3252:3274   */\n      add\n        /* \"#utility.yul\":3231:3284   */\n      tag_460\n      jump\t// in\n    tag_485:\n        /* \"#utility.yul\":3221:3284   */\n      swap3\n      pop\n        /* \"#utility.yul\":3176:3294   */\n      pop\n        /* \"#utility.yul\":3333:3335   */\n      0x40\n        /* \"#utility.yul\":3359:3412   */\n      tag_486\n        /* \"#utility.yul\":3404:3411   */\n      dup7\n        /* \"#utility.yul\":3395:3401   */\n      dup3\n        /* \"#utility.yul\":3384:3393   */\n      dup8\n        /* \"#utility.yul\":3380:3402   */\n      add\n        /* \"#utility.yul\":3359:3412   */\n      tag_460\n      jump\t// in\n    tag_486:\n        /* \"#utility.yul\":3349:3412   */\n      swap2\n      pop\n        /* \"#utility.yul\":3304:3422   */\n      pop\n        /* \"#utility.yul\":2977:3429   */\n      swap3\n      pop\n      swap3\n      pop\n      swap3\n      jump\t// out\n        /* \"#utility.yul\":3435:3713   */\n    tag_380:\n        /* \"#utility.yul\":3502:3508   */\n      0x00\n        /* \"#utility.yul\":3551:3553   */\n      0x20\n        /* \"#utility.yul\":3539:3548   */\n      dup3\n        /* \"#utility.yul\":3530:3537   */\n      dup5\n        /* \"#utility.yul\":3526:3549   */\n      sub\n        /* \"#utility.yul\":3522:3554   */\n      slt\n        /* \"#utility.yul\":3519:3521   */\n      iszero\n      tag_488\n      jumpi\n        /* \"#utility.yul\":3567:3568   */\n      0x00\n        /* \"#utility.yul\":3564:3565   */\n      dup1\n        /* \"#utility.yul\":3557:3569   */\n      revert\n        /* \"#utility.yul\":3519:3521   */\n    tag_488:\n        /* \"#utility.yul\":3610:3611   */\n      0x00\n        /* \"#utility.yul\":3635:3696   */\n      tag_489\n        /* \"#utility.yul\":3688:3695   */\n      dup5\n        /* \"#utility.yul\":3679:3685   */\n      dup3\n        /* \"#utility.yul\":3668:3677   */\n      dup6\n        /* \"#utility.yul\":3664:3686   */\n      add\n        /* \"#utility.yul\":3635:3696   */\n      tag_452\n      jump\t// in\n    tag_489:\n        /* \"#utility.yul\":3625:3696   */\n      swap2\n      pop\n        /* \"#utility.yul\":3581:3706   */\n      pop\n        /* \"#utility.yul\":3509:3713   */\n      swap3\n      swap2\n      pop\n      pop\n      jump\t// out\n        /* \"#utility.yul\":3719:3981   */\n    tag_26:\n        /* \"#utility.yul\":3778:3784   */\n      0x00\n        /* \"#utility.yul\":3827:3829   */\n      0x20\n        /* \"#utility.yul\":3815:3824   */\n      dup3\n        /* \"#utility.yul\":3806:3813   */\n      dup5\n        /* \"#utility.yul\":3802:3825   */\n      sub\n        /* \"#utility.yul\":3798:3830   */\n      slt\n        /* \"#utility.yul\":3795:3797   */\n      iszero\n      tag_491\n      jumpi\n        /* \"#utility.yul\":3843:3844   */\n      0x00\n        /* \"#utility.yul\":3840:3841   */\n      dup1\n        /* \"#utility.yul\":3833:3845   */\n      revert\n        /* \"#utility.yul\":3795:3797   */\n    tag_491:\n        /* \"#utility.yul\":3886:3887   */\n      0x00\n        /* \"#utility.yul\":3911:3964   */\n      tag_492\n        /* \"#utility.yul\":3956:3963   */\n      dup5\n        /* \"#utility.yul\":3947:3953   */\n      dup3\n        /* \"#utility.yul\":3936:3945   */\n      dup6\n        /* \"#utility.yul\":3932:3954   */\n      add\n        /* \"#utility.yul\":3911:3964   */\n      tag_460\n      jump\t// in\n    tag_492:\n        /* \"#utility.yul\":3901:3964   */\n      swap2\n      pop\n        /* \"#utility.yul\":3857:3974   */\n      pop\n        /* \"#utility.yul\":3785:3981   */\n      swap3\n      swap2\n      pop\n      pop\n      jump\t// out\n        /* \"#utility.yul\":3987:4271   */\n    tag_321:\n        /* \"#utility.yul\":4057:4063   */\n      0x00\n        /* \"#utility.yul\":4106:4108   */\n      0x20\n        /* \"#utility.yul\":4094:4103   */\n      dup3\n        /* \"#utility.yul\":4085:4092   */\n      dup5\n        /* \"#utility.yul\":4081:4104   */\n      sub\n        /* \"#utility.yul\":4077:4109   */\n      slt\n        /* \"#utility.yul\":4074:4076   */\n      iszero\n      tag_494\n      jumpi\n        /* \"#utility.yul\":4122:4123   */\n      0x00\n        /* \"#utility.yul\":4119:4120   */\n      dup1\n        /* \"#utility.yul\":4112:4124   */\n      revert\n        /* \"#utility.yul\":4074:4076   */\n    tag_494:\n        /* \"#utility.yul\":4165:4166   */\n      0x00\n        /* \"#utility.yul\":4190:4254   */\n      tag_495\n        /* \"#utility.yul\":4246:4253   */\n      dup5\n        /* \"#utility.yul\":4237:4243   */\n      dup3\n        /* \"#utility.yul\":4226:4235   */\n      dup6\n        /* \"#utility.yul\":4222:4244   */\n      add\n        /* \"#utility.yul\":4190:4254   */\n      tag_464\n      jump\t// in\n    tag_495:\n        /* \"#utility.yul\":4180:4254   */\n      swap2\n      pop\n        /* \"#utility.yul\":4136:4264   */\n      pop\n        /* \"#utility.yul\":4064:4271   */\n      swap3\n      swap2\n      pop\n      pop\n      jump\t// out\n        /* \"#utility.yul\":4277:4684   */\n    tag_46:\n        /* \"#utility.yul\":4345:4351   */\n      0x00\n        /* \"#utility.yul\":4353:4359   */\n      dup1\n        /* \"#utility.yul\":4402:4404   */\n      0x40\n        /* \"#utility.yul\":4390:4399   */\n      dup4\n        /* \"#utility.yul\":4381:4388   */\n      dup6\n        /* \"#utility.yul\":4377:4400   */\n      sub\n        /* \"#utility.yul\":4373:4405   */\n      slt\n        /* \"#utility.yul\":4370:4372   */\n      iszero\n      tag_497\n      jumpi\n        /* \"#utility.yul\":4418:4419   */\n      0x00\n        /* \"#utility.yul\":4415:4416   */\n      dup1\n        /* \"#utility.yul\":4408:4420   */\n      revert\n        /* \"#utility.yul\":4370:4372   */\n    tag_497:\n        /* \"#utility.yul\":4461:4462   */\n      0x00\n        /* \"#utility.yul\":4486:4539   */\n      tag_498\n        /* \"#utility.yul\":4531:4538   */\n      dup6\n        /* \"#utility.yul\":4522:4528   */\n      dup3\n        /* \"#utility.yul\":4511:4520   */\n      dup7\n        /* \"#utility.yul\":4507:4529   */\n      add\n        /* \"#utility.yul\":4486:4539   */\n      tag_460\n      jump\t// in\n    tag_498:\n        /* \"#utility.yul\":4476:4539   */\n      swap3\n      pop\n        /* \"#utility.yul\":4432:4549   */\n      pop\n        /* \"#utility.yul\":4588:4590   */\n      0x20\n        /* \"#utility.yul\":4614:4667   */\n      tag_499\n        /* \"#utility.yul\":4659:4666   */\n      dup6\n        /* \"#utility.yul\":4650:4656   */\n      dup3\n        /* \"#utility.yul\":4639:4648   */\n      dup7\n        /* \"#utility.yul\":4635:4657   */\n      add\n        /* \"#utility.yul\":4614:4667   */\n      tag_448\n      jump\t// in\n    tag_499:\n        /* \"#utility.yul\":4604:4667   */\n      swap2\n      pop\n        /* \"#utility.yul\":4559:4677   */\n      pop\n        /* \"#utility.yul\":4360:4684   */\n      swap3\n      pop\n      swap3\n      swap1\n      pop\n      jump\t// out\n        /* \"#utility.yul\":4690:5210   */\n    tag_85:\n        /* \"#utility.yul\":4768:4774   */\n      0x00\n        /* \"#utility.yul\":4776:4782   */\n      dup1\n        /* \"#utility.yul\":4825:4827   */\n      0x40\n        /* \"#utility.yul\":4813:4822   */\n      dup4\n        /* \"#utility.yul\":4804:4811   */\n      dup6\n        /* \"#utility.yul\":4800:4823   */\n      sub\n        /* \"#utility.yul\":4796:4828   */\n      slt\n        /* \"#utility.yul\":4793:4795   */\n      iszero\n      tag_501\n      jumpi\n        /* \"#utility.yul\":4841:4842   */\n      0x00\n        /* \"#utility.yul\":4838:4839   */\n      dup1\n        /* \"#utility.yul\":4831:4843   */\n      revert\n        /* \"#utility.yul\":4793:4795   */\n    tag_501:\n        /* \"#utility.yul\":4884:4885   */\n      0x00\n        /* \"#utility.yul\":4909:4962   */\n      tag_502\n        /* \"#utility.yul\":4954:4961   */\n      dup6\n        /* \"#utility.yul\":4945:4951   */\n      dup3\n        /* \"#utility.yul\":4934:4943   */\n      dup7\n        /* \"#utility.yul\":4930:4952   */\n      add\n        /* \"#utility.yul\":4909:4962   */\n      tag_460\n      jump\t// in\n    tag_502:\n        /* \"#utility.yul\":4899:4962   */\n      swap3\n      pop\n        /* \"#utility.yul\":4855:4972   */\n      pop\n        /* \"#utility.yul\":5039:5041   */\n      0x20\n        /* \"#utility.yul\":5028:5037   */\n      dup4\n        /* \"#utility.yul\":5024:5042   */\n      add\n        /* \"#utility.yul\":5011:5043   */\n      calldataload\n        /* \"#utility.yul\":5070:5088   */\n      0xffffffffffffffff\n        /* \"#utility.yul\":5062:5068   */\n      dup2\n        /* \"#utility.yul\":5059:5089   */\n      gt\n        /* \"#utility.yul\":5056:5058   */\n      iszero\n      tag_503\n      jumpi\n        /* \"#utility.yul\":5102:5103   */\n      0x00\n        /* \"#utility.yul\":5099:5100   */\n      dup1\n        /* \"#utility.yul\":5092:5104   */\n      revert\n        /* \"#utility.yul\":5056:5058   */\n    tag_503:\n        /* \"#utility.yul\":5130:5193   */\n      tag_504\n        /* \"#utility.yul\":5185:5192   */\n      dup6\n        /* \"#utility.yul\":5176:5182   */\n      dup3\n        /* \"#utility.yul\":5165:5174   */\n      dup7\n        /* \"#utility.yul\":5161:5183   */\n      add\n        /* \"#utility.yul\":5130:5193   */\n      tag_456\n      jump\t// in\n    tag_504:\n        /* \"#utility.yul\":5120:5193   */\n      swap2\n      pop\n        /* \"#utility.yul\":4982:5203   */\n      pop\n        /* \"#utility.yul\":4783:5210   */\n      swap3\n      pop\n      swap3\n      swap1\n      pop\n      jump\t// out\n        /* \"#utility.yul\":5216:5623   */\n    tag_62:\n        /* \"#utility.yul\":5284:5290   */\n      0x00\n        /* \"#utility.yul\":5292:5298   */\n      dup1\n        /* \"#utility.yul\":5341:5343   */\n      0x40\n        /* \"#utility.yul\":5329:5338   */\n      dup4\n        /* \"#utility.yul\":5320:5327   */\n      dup6\n        /* \"#utility.yul\":5316:5339   */\n      sub\n        /* \"#utility.yul\":5312:5344   */\n      slt\n        /* \"#utility.yul\":5309:5311   */\n      iszero\n      tag_506\n      jumpi\n        /* \"#utility.yul\":5357:5358   */\n      0x00\n        /* \"#utility.yul\":5354:5355   */\n      dup1\n        /* \"#utility.yul\":5347:5359   */\n      revert\n        /* \"#utility.yul\":5309:5311   */\n    tag_506:\n        /* \"#utility.yul\":5400:5401   */\n      0x00\n        /* \"#utility.yul\":5425:5478   */\n      tag_507\n        /* \"#utility.yul\":5470:5477   */\n      dup6\n        /* \"#utility.yul\":5461:5467   */\n      dup3\n        /* \"#utility.yul\":5450:5459   */\n      dup7\n        /* \"#utility.yul\":5446:5468   */\n      add\n        /* \"#utility.yul\":5425:5478   */\n      tag_460\n      jump\t// in\n    tag_507:\n        /* \"#utility.yul\":5415:5478   */\n      swap3\n      pop\n        /* \"#utility.yul\":5371:5488   */\n      pop\n        /* \"#utility.yul\":5527:5529   */\n      0x20\n        /* \"#utility.yul\":5553:5606   */\n      tag_508\n        /* \"#utility.yul\":5598:5605   */\n      dup6\n        /* \"#utility.yul\":5589:5595   */\n      dup3\n        /* \"#utility.yul\":5578:5587   */\n      dup7\n        /* \"#utility.yul\":5574:5596   */\n      add\n        /* \"#utility.yul\":5553:5606   */\n      tag_460\n      jump\t// in\n    tag_508:\n        /* \"#utility.yul\":5543:5606   */\n      swap2\n      pop\n        /* \"#utility.yul\":5498:5616   */\n      pop\n        /* \"#utility.yul\":5299:5623   */\n      swap3\n      pop\n      swap3\n      swap1\n      pop\n      jump\t// out\n        /* \"#utility.yul\":5629:6181   */\n    tag_81:\n        /* \"#utility.yul\":5706:5712   */\n      0x00\n        /* \"#utility.yul\":5714:5720   */\n      dup1\n        /* \"#utility.yul\":5722:5728   */\n      0x00\n        /* \"#utility.yul\":5771:5773   */\n      0x60\n        /* \"#utility.yul\":5759:5768   */\n      dup5\n        /* \"#utility.yul\":5750:5757   */\n      dup7\n        /* \"#utility.yul\":5746:5769   */\n      sub\n        /* \"#utility.yul\":5742:5774   */\n      slt\n        /* \"#utility.yul\":5739:5741   */\n      iszero\n      tag_510\n      jumpi\n        /* \"#utility.yul\":5787:5788   */\n      0x00\n        /* \"#utility.yul\":5784:5785   */\n      dup1\n        /* \"#utility.yul\":5777:5789   */\n      revert\n        /* \"#utility.yul\":5739:5741   */\n    tag_510:\n        /* \"#utility.yul\":5830:5831   */\n      0x00\n        /* \"#utility.yul\":5855:5908   */\n      tag_511\n        /* \"#utility.yul\":5900:5907   */\n      dup7\n        /* \"#utility.yul\":5891:5897   */\n      dup3\n        /* \"#utility.yul\":5880:5889   */\n      dup8\n        /* \"#utility.yul\":5876:5898   */\n      add\n        /* \"#utility.yul\":5855:5908   */\n      tag_460\n      jump\t// in\n    tag_511:\n        /* \"#utility.yul\":5845:5908   */\n      swap4\n      pop\n        /* \"#utility.yul\":5801:5918   */\n      pop\n        /* \"#utility.yul\":5957:5959   */\n      0x20\n        /* \"#utility.yul\":5983:6036   */\n      tag_512\n        /* \"#utility.yul\":6028:6035   */\n      dup7\n        /* \"#utility.yul\":6019:6025   */\n      dup3\n        /* \"#utility.yul\":6008:6017   */\n      dup8\n        /* \"#utility.yul\":6004:6026   */\n      add\n        /* \"#utility.yul\":5983:6036   */\n      tag_460\n      jump\t// in\n    tag_512:\n        /* \"#utility.yul\":5973:6036   */\n      swap3\n      pop\n        /* \"#utility.yul\":5928:6046   */\n      pop\n        /* \"#utility.yul\":6085:6087   */\n      0x40\n        /* \"#utility.yul\":6111:6164   */\n      tag_513\n        /* \"#utility.yul\":6156:6163   */\n      dup7\n        /* \"#utility.yul\":6147:6153   */\n      dup3\n        /* \"#utility.yul\":6136:6145   */\n      dup8\n        /* \"#utility.yul\":6132:6154   */\n      add\n        /* \"#utility.yul\":6111:6164   */\n      tag_460\n      jump\t// in\n    tag_513:\n        /* \"#utility.yul\":6101:6164   */\n      swap2\n      pop\n        /* \"#utility.yul\":6056:6174   */\n      pop\n        /* \"#utility.yul\":5729:6181   */\n      swap3\n      pop\n      swap3\n      pop\n      swap3\n      jump\t// out\n        /* \"#utility.yul\":6187:6510   */\n    tag_514:\n        /* \"#utility.yul\":6328:6338   */\n      0x00\n        /* \"#utility.yul\":6349:6467   */\n      tag_516\n        /* \"#utility.yul\":6463:6466   */\n      dup4\n        /* \"#utility.yul\":6455:6461   */\n      dup4\n        /* \"#utility.yul\":6349:6467   */\n      tag_517\n      jump\t// in\n    tag_516:\n        /* \"#utility.yul\":6499:6503   */\n      0x40\n        /* \"#utility.yul\":6494:6497   */\n      dup4\n        /* \"#utility.yul\":6490:6504   */\n      add\n        /* \"#utility.yul\":6476:6504   */\n      swap1\n      pop\n        /* \"#utility.yul\":6339:6510   */\n      swap3\n      swap2\n      pop\n      pop\n      jump\t// out\n        /* \"#utility.yul\":6516:6760   */\n    tag_518:\n        /* \"#utility.yul\":6629:6639   */\n      0x00\n        /* \"#utility.yul\":6664:6754   */\n      tag_520\n        /* \"#utility.yul\":6750:6753   */\n      dup4\n        /* \"#utility.yul\":6742:6748   */\n      dup4\n        /* \"#utility.yul\":6664:6754   */\n      tag_521\n      jump\t// in\n    tag_520:\n        /* \"#utility.yul\":6650:6754   */\n      swap1\n      pop\n        /* \"#utility.yul\":6640:6760   */\n      swap3\n      swap2\n      pop\n      pop\n      jump\t// out\n        /* \"#utility.yul\":6766:6874   */\n    tag_522:\n        /* \"#utility.yul\":6843:6867   */\n      tag_524\n        /* \"#utility.yul\":6861:6866   */\n      dup2\n        /* \"#utility.yul\":6843:6867   */\n      tag_525\n      jump\t// in\n    tag_524:\n        /* \"#utility.yul\":6838:6841   */\n      dup3\n        /* \"#utility.yul\":6831:6868   */\n      mstore\n        /* \"#utility.yul\":6821:6874   */\n      pop\n      pop\n      jump\t// out\n        /* \"#utility.yul\":6880:6998   */\n    tag_526:\n        /* \"#utility.yul\":6967:6991   */\n      tag_528\n        /* \"#utility.yul\":6985:6990   */\n      dup2\n        /* \"#utility.yul\":6967:6991   */\n      tag_525\n      jump\t// in\n    tag_528:\n        /* \"#utility.yul\":6962:6965   */\n      dup3\n        /* \"#utility.yul\":6955:6992   */\n      mstore\n        /* \"#utility.yul\":6945:6998   */\n      pop\n      pop\n      jump\t// out\n        /* \"#utility.yul\":7110:8130   */\n    tag_529:\n        /* \"#utility.yul\":7301:7304   */\n      0x00\n        /* \"#utility.yul\":7330:7420   */\n      tag_531\n        /* \"#utility.yul\":7414:7419   */\n      dup3\n        /* \"#utility.yul\":7330:7420   */\n      tag_532\n      jump\t// in\n    tag_531:\n        /* \"#utility.yul\":7436:7558   */\n      tag_533\n        /* \"#utility.yul\":7551:7557   */\n      dup2\n        /* \"#utility.yul\":7546:7549   */\n      dup6\n        /* \"#utility.yul\":7436:7558   */\n      tag_534\n      jump\t// in\n    tag_533:\n        /* \"#utility.yul\":7429:7558   */\n      swap4\n      pop\n        /* \"#utility.yul\":7582:7674   */\n      tag_535\n        /* \"#utility.yul\":7668:7673   */\n      dup4\n        /* \"#utility.yul\":7582:7674   */\n      tag_536\n      jump\t// in\n    tag_535:\n        /* \"#utility.yul\":7697:7704   */\n      dup1\n        /* \"#utility.yul\":7728:7729   */\n      0x00\n        /* \"#utility.yul\":7713:8105   */\n    tag_537:\n        /* \"#utility.yul\":7738:7744   */\n      dup4\n        /* \"#utility.yul\":7735:7736   */\n      dup2\n        /* \"#utility.yul\":7732:7745   */\n      lt\n        /* \"#utility.yul\":7713:8105   */\n      iszero\n      tag_539\n      jumpi\n        /* \"#utility.yul\":7814:7820   */\n      dup2\n        /* \"#utility.yul\":7808:7821   */\n      mload\n        /* \"#utility.yul\":7841:7976   */\n      tag_540\n        /* \"#utility.yul\":7972:7975   */\n      dup9\n        /* \"#utility.yul\":7957:7970   */\n      dup3\n        /* \"#utility.yul\":7841:7976   */\n      tag_514\n      jump\t// in\n    tag_540:\n        /* \"#utility.yul\":7834:7976   */\n      swap8\n      pop\n        /* \"#utility.yul\":7999:8095   */\n      tag_541\n        /* \"#utility.yul\":8088:8094   */\n      dup4\n        /* \"#utility.yul\":7999:8095   */\n      tag_542\n      jump\t// in\n    tag_541:\n        /* \"#utility.yul\":7989:8095   */\n      swap3\n      pop\n        /* \"#utility.yul\":7773:8105   */\n      pop\n        /* \"#utility.yul\":7760:7761   */\n      0x01\n        /* \"#utility.yul\":7757:7758   */\n      dup2\n        /* \"#utility.yul\":7753:7762   */\n      add\n        /* \"#utility.yul\":7748:7762   */\n      swap1\n      pop\n        /* \"#utility.yul\":7713:8105   */\n      jump(tag_537)\n    tag_539:\n        /* \"#utility.yul\":7717:7731   */\n      pop\n        /* \"#utility.yul\":8121:8124   */\n      dup6\n        /* \"#utility.yul\":8114:8124   */\n      swap4\n      pop\n        /* \"#utility.yul\":7306:8130   */\n      pop\n      pop\n      pop\n      swap3\n      swap2\n      pop\n      pop\n      jump\t// out\n        /* \"#utility.yul\":8214:9301   */\n    tag_543:\n        /* \"#utility.yul\":8377:8380   */\n      0x00\n        /* \"#utility.yul\":8406:8482   */\n      tag_545\n        /* \"#utility.yul\":8476:8481   */\n      dup3\n        /* \"#utility.yul\":8406:8482   */\n      tag_546\n      jump\t// in\n    tag_545:\n        /* \"#utility.yul\":8498:8606   */\n      tag_547\n        /* \"#utility.yul\":8599:8605   */\n      dup2\n        /* \"#utility.yul\":8594:8597   */\n      dup6\n        /* \"#utility.yul\":8498:8606   */\n      tag_548\n      jump\t// in\n    tag_547:\n        /* \"#utility.yul\":8491:8606   */\n      swap4\n      pop\n        /* \"#utility.yul\":8632:8635   */\n      dup4\n        /* \"#utility.yul\":8677:8681   */\n      0x20\n        /* \"#utility.yul\":8669:8675   */\n      dup3\n        /* \"#utility.yul\":8665:8682   */\n      mul\n        /* \"#utility.yul\":8660:8663   */\n      dup6\n        /* \"#utility.yul\":8656:8683   */\n      add\n        /* \"#utility.yul\":8707:8785   */\n      tag_549\n        /* \"#utility.yul\":8779:8784   */\n      dup6\n        /* \"#utility.yul\":8707:8785   */\n      tag_550\n      jump\t// in\n    tag_549:\n        /* \"#utility.yul\":8808:8815   */\n      dup1\n        /* \"#utility.yul\":8839:8840   */\n      0x00\n        /* \"#utility.yul\":8824:9256   */\n    tag_551:\n        /* \"#utility.yul\":8849:8855   */\n      dup6\n        /* \"#utility.yul\":8846:8847   */\n      dup2\n        /* \"#utility.yul\":8843:8856   */\n      lt\n        /* \"#utility.yul\":8824:9256   */\n      iszero\n      tag_553\n      jumpi\n        /* \"#utility.yul\":8920:8929   */\n      dup5\n        /* \"#utility.yul\":8914:8918   */\n      dup5\n        /* \"#utility.yul\":8910:8930   */\n      sub\n        /* \"#utility.yul\":8905:8908   */\n      dup10\n        /* \"#utility.yul\":8898:8931   */\n      mstore\n        /* \"#utility.yul\":8971:8977   */\n      dup2\n        /* \"#utility.yul\":8965:8978   */\n      mload\n        /* \"#utility.yul\":8999:9107   */\n      tag_554\n        /* \"#utility.yul\":9102:9106   */\n      dup6\n        /* \"#utility.yul\":9087:9100   */\n      dup3\n        /* \"#utility.yul\":8999:9107   */\n      tag_518\n      jump\t// in\n    tag_554:\n        /* \"#utility.yul\":8991:9107   */\n      swap5\n      pop\n        /* \"#utility.yul\":9130:9212   */\n      tag_555\n        /* \"#utility.yul\":9205:9211   */\n      dup4\n        /* \"#utility.yul\":9130:9212   */\n      tag_556\n      jump\t// in\n    tag_555:\n        /* \"#utility.yul\":9120:9212   */\n      swap3\n      pop\n        /* \"#utility.yul\":9241:9245   */\n      0x20\n        /* \"#utility.yul\":9236:9239   */\n      dup11\n        /* \"#utility.yul\":9232:9246   */\n      add\n        /* \"#utility.yul\":9225:9246   */\n      swap10\n      pop\n        /* \"#utility.yul\":8884:9256   */\n      pop\n        /* \"#utility.yul\":8871:8872   */\n      0x01\n        /* \"#utility.yul\":8868:8869   */\n      dup2\n        /* \"#utility.yul\":8864:8873   */\n      add\n        /* \"#utility.yul\":8859:8873   */\n      swap1\n      pop\n        /* \"#utility.yul\":8824:9256   */\n      jump(tag_551)\n    tag_553:\n        /* \"#utility.yul\":8828:8842   */\n      pop\n        /* \"#utility.yul\":9272:9276   */\n      dup3\n        /* \"#utility.yul\":9265:9276   */\n      swap8\n      pop\n        /* \"#utility.yul\":9292:9295   */\n      dup8\n        /* \"#utility.yul\":9285:9295   */\n      swap6\n      pop\n        /* \"#utility.yul\":8382:9301   */\n      pop\n      pop\n      pop\n      pop\n      pop\n      swap3\n      swap2\n      pop\n      pop\n      jump\t// out\n        /* \"#utility.yul\":9307:9416   */\n    tag_557:\n        /* \"#utility.yul\":9388:9409   */\n      tag_559\n        /* \"#utility.yul\":9403:9408   */\n      dup2\n        /* \"#utility.yul\":9388:9409   */\n      tag_560\n      jump\t// in\n    tag_559:\n        /* \"#utility.yul\":9383:9386   */\n      dup3\n        /* \"#utility.yul\":9376:9410   */\n      mstore\n        /* \"#utility.yul\":9366:9416   */\n      pop\n      pop\n      jump\t// out\n        /* \"#utility.yul\":9422:9795   */\n    tag_561:\n        /* \"#utility.yul\":9526:9529   */\n      0x00\n        /* \"#utility.yul\":9554:9592   */\n      tag_563\n        /* \"#utility.yul\":9586:9591   */\n      dup3\n        /* \"#utility.yul\":9554:9592   */\n      tag_564\n      jump\t// in\n    tag_563:\n        /* \"#utility.yul\":9608:9696   */\n      tag_565\n        /* \"#utility.yul\":9689:9695   */\n      dup2\n        /* \"#utility.yul\":9684:9687   */\n      dup6\n        /* \"#utility.yul\":9608:9696   */\n      tag_566\n      jump\t// in\n    tag_565:\n        /* \"#utility.yul\":9601:9696   */\n      swap4\n      pop\n        /* \"#utility.yul\":9705:9757   */\n      tag_567\n        /* \"#utility.yul\":9750:9756   */\n      dup2\n        /* \"#utility.yul\":9745:9748   */\n      dup6\n        /* \"#utility.yul\":9738:9742   */\n      0x20\n        /* \"#utility.yul\":9731:9736   */\n      dup7\n        /* \"#utility.yul\":9727:9743   */\n      add\n        /* \"#utility.yul\":9705:9757   */\n      tag_568\n      jump\t// in\n    tag_567:\n        /* \"#utility.yul\":9782:9788   */\n      dup1\n        /* \"#utility.yul\":9777:9780   */\n      dup5\n        /* \"#utility.yul\":9773:9789   */\n      add\n        /* \"#utility.yul\":9766:9789   */\n      swap2\n      pop\n        /* \"#utility.yul\":9530:9795   */\n      pop\n      swap3\n      swap2\n      pop\n      pop\n      jump\t// out\n        /* \"#utility.yul\":9801:10145   */\n    tag_569:\n        /* \"#utility.yul\":9879:9882   */\n      0x00\n        /* \"#utility.yul\":9907:9946   */\n      tag_571\n        /* \"#utility.yul\":9940:9945   */\n      dup3\n        /* \"#utility.yul\":9907:9946   */\n      tag_572\n      jump\t// in\n    tag_571:\n        /* \"#utility.yul\":9962:10023   */\n      tag_573\n        /* \"#utility.yul\":10016:10022   */\n      dup2\n        /* \"#utility.yul\":10011:10014   */\n      dup6\n        /* \"#utility.yul\":9962:10023   */\n      tag_574\n      jump\t// in\n    tag_573:\n        /* \"#utility.yul\":9955:10023   */\n      swap4\n      pop\n        /* \"#utility.yul\":10032:10084   */\n      tag_575\n        /* \"#utility.yul\":10077:10083   */\n      dup2\n        /* \"#utility.yul\":10072:10075   */\n      dup6\n        /* \"#utility.yul\":10065:10069   */\n      0x20\n        /* \"#utility.yul\":10058:10063   */\n      dup7\n        /* \"#utility.yul\":10054:10070   */\n      add\n        /* \"#utility.yul\":10032:10084   */\n      tag_568\n      jump\t// in\n    tag_575:\n        /* \"#utility.yul\":10109:10138   */\n      tag_576\n        /* \"#utility.yul\":10131:10137   */\n      dup2\n        /* \"#utility.yul\":10109:10138   */\n      tag_577\n      jump\t// in\n    tag_576:\n        /* \"#utility.yul\":10104:10107   */\n      dup5\n        /* \"#utility.yul\":10100:10139   */\n      add\n        /* \"#utility.yul\":10093:10139   */\n      swap2\n      pop\n        /* \"#utility.yul\":9883:10145   */\n      pop\n      swap3\n      swap2\n      pop\n      pop\n      jump\t// out\n        /* \"#utility.yul\":10151:10515   */\n    tag_578:\n        /* \"#utility.yul\":10239:10242   */\n      0x00\n        /* \"#utility.yul\":10267:10306   */\n      tag_580\n        /* \"#utility.yul\":10300:10305   */\n      dup3\n        /* \"#utility.yul\":10267:10306   */\n      tag_572\n      jump\t// in\n    tag_580:\n        /* \"#utility.yul\":10322:10393   */\n      tag_581\n        /* \"#utility.yul\":10386:10392   */\n      dup2\n        /* \"#utility.yul\":10381:10384   */\n      dup6\n        /* \"#utility.yul\":10322:10393   */\n      tag_582\n      jump\t// in\n    tag_581:\n        /* \"#utility.yul\":10315:10393   */\n      swap4\n      pop\n        /* \"#utility.yul\":10402:10454   */\n      tag_583\n        /* \"#utility.yul\":10447:10453   */\n      dup2\n        /* \"#utility.yul\":10442:10445   */\n      dup6\n        /* \"#utility.yul\":10435:10439   */\n      0x20\n        /* \"#utility.yul\":10428:10433   */\n      dup7\n        /* \"#utility.yul\":10424:10440   */\n      add\n        /* \"#utility.yul\":10402:10454   */\n      tag_568\n      jump\t// in\n    tag_583:\n        /* \"#utility.yul\":10479:10508   */\n      tag_584\n        /* \"#utility.yul\":10501:10507   */\n      dup2\n        /* \"#utility.yul\":10479:10508   */\n      tag_577\n      jump\t// in\n    tag_584:\n        /* \"#utility.yul\":10474:10477   */\n      dup5\n        /* \"#utility.yul\":10470:10509   */\n      add\n        /* \"#utility.yul\":10463:10509   */\n      swap2\n      pop\n        /* \"#utility.yul\":10243:10515   */\n      pop\n      swap3\n      swap2\n      pop\n      pop\n      jump\t// out\n        /* \"#utility.yul\":10521:10887   */\n    tag_585:\n        /* \"#utility.yul\":10663:10666   */\n      0x00\n        /* \"#utility.yul\":10684:10751   */\n      tag_587\n        /* \"#utility.yul\":10748:10750   */\n      0x11\n        /* \"#utility.yul\":10743:10746   */\n      dup4\n        /* \"#utility.yul\":10684:10751   */\n      tag_582\n      jump\t// in\n    tag_587:\n        /* \"#utility.yul\":10677:10751   */\n      swap2\n      pop\n        /* \"#utility.yul\":10760:10853   */\n      tag_588\n        /* \"#utility.yul\":10849:10852   */\n      dup3\n        /* \"#utility.yul\":10760:10853   */\n      tag_589\n      jump\t// in\n    tag_588:\n        /* \"#utility.yul\":10878:10880   */\n      0x20\n        /* \"#utility.yul\":10873:10876   */\n      dup3\n        /* \"#utility.yul\":10869:10881   */\n      add\n        /* \"#utility.yul\":10862:10881   */\n      swap1\n      pop\n        /* \"#utility.yul\":10667:10887   */\n      swap2\n      swap1\n      pop\n      jump\t// out\n        /* \"#utility.yul\":10893:11259   */\n    tag_590:\n        /* \"#utility.yul\":11035:11038   */\n      0x00\n        /* \"#utility.yul\":11056:11123   */\n      tag_592\n        /* \"#utility.yul\":11120:11122   */\n      0x23\n        /* \"#utility.yul\":11115:11118   */\n      dup4\n        /* \"#utility.yul\":11056:11123   */\n      tag_582\n      jump\t// in\n    tag_592:\n        /* \"#utility.yul\":11049:11123   */\n      swap2\n      pop\n        /* \"#utility.yul\":11132:11225   */\n      tag_593\n        /* \"#utility.yul\":11221:11224   */\n      dup3\n        /* \"#utility.yul\":11132:11225   */\n      tag_594\n      jump\t// in\n    tag_593:\n        /* \"#utility.yul\":11250:11252   */\n      0x40\n        /* \"#utility.yul\":11245:11248   */\n      dup3\n        /* \"#utility.yul\":11241:11253   */\n      add\n        /* \"#utility.yul\":11234:11253   */\n      swap1\n      pop\n        /* \"#utility.yul\":11039:11259   */\n      swap2\n      swap1\n      pop\n      jump\t// out\n        /* \"#utility.yul\":11265:11631   */\n    tag_595:\n        /* \"#utility.yul\":11407:11410   */\n      0x00\n        /* \"#utility.yul\":11428:11495   */\n      tag_597\n        /* \"#utility.yul\":11492:11494   */\n      0x0d\n        /* \"#utility.yul\":11487:11490   */\n      dup4\n        /* \"#utility.yul\":11428:11495   */\n      tag_582\n      jump\t// in\n    tag_597:\n        /* \"#utility.yul\":11421:11495   */\n      swap2\n      pop\n        /* \"#utility.yul\":11504:11597   */\n      tag_598\n        /* \"#utility.yul\":11593:11596   */\n      dup3\n        /* \"#utility.yul\":11504:11597   */\n      tag_599\n      jump\t// in\n    tag_598:\n        /* \"#utility.yul\":11622:11624   */\n      0x20\n        /* \"#utility.yul\":11617:11620   */\n      dup3\n        /* \"#utility.yul\":11613:11625   */\n      add\n        /* \"#utility.yul\":11606:11625   */\n      swap1\n      pop\n        /* \"#utility.yul\":11411:11631   */\n      swap2\n      swap1\n      pop\n      jump\t// out\n        /* \"#utility.yul\":11637:12003   */\n    tag_600:\n        /* \"#utility.yul\":11779:11782   */\n      0x00\n        /* \"#utility.yul\":11800:11867   */\n      tag_602\n        /* \"#utility.yul\":11864:11866   */\n      0x26\n        /* \"#utility.yul\":11859:11862   */\n      dup4\n        /* \"#utility.yul\":11800:11867   */\n      tag_582\n      jump\t// in\n    tag_602:\n        /* \"#utility.yul\":11793:11867   */\n      swap2\n      pop\n        /* \"#utility.yul\":11876:11969   */\n      tag_603\n        /* \"#utility.yul\":11965:11968   */\n      dup3\n        /* \"#utility.yul\":11876:11969   */\n      tag_604\n      jump\t// in\n    tag_603:\n        /* \"#utility.yul\":11994:11996   */\n      0x40\n        /* \"#utility.yul\":11989:11992   */\n      dup3\n        /* \"#utility.yul\":11985:11997   */\n      add\n        /* \"#utility.yul\":11978:11997   */\n      swap1\n      pop\n        /* \"#utility.yul\":11783:12003   */\n      swap2\n      swap1\n      pop\n      jump\t// out\n        /* \"#utility.yul\":12009:12375   */\n    tag_605:\n        /* \"#utility.yul\":12151:12154   */\n      0x00\n        /* \"#utility.yul\":12172:12239   */\n      tag_607\n        /* \"#utility.yul\":12236:12238   */\n      0x22\n        /* \"#utility.yul\":12231:12234   */\n      dup4\n        /* \"#utility.yul\":12172:12239   */\n      tag_582\n      jump\t// in\n    tag_607:\n        /* \"#utility.yul\":12165:12239   */\n      swap2\n      pop\n        /* \"#utility.yul\":12248:12341   */\n      tag_608\n        /* \"#utility.yul\":12337:12340   */\n      dup3\n        /* \"#utility.yul\":12248:12341   */\n      tag_609\n      jump\t// in\n    tag_608:\n        /* \"#utility.yul\":12366:12368   */\n      0x40\n        /* \"#utility.yul\":12361:12364   */\n      dup3\n        /* \"#utility.yul\":12357:12369   */\n      add\n        /* \"#utility.yul\":12350:12369   */\n      swap1\n      pop\n        /* \"#utility.yul\":12155:12375   */\n      swap2\n      swap1\n      pop\n      jump\t// out\n        /* \"#utility.yul\":12381:12747   */\n    tag_610:\n        /* \"#utility.yul\":12523:12526   */\n      0x00\n        /* \"#utility.yul\":12544:12611   */\n      tag_612\n        /* \"#utility.yul\":12608:12610   */\n      0x10\n        /* \"#utility.yul\":12603:12606   */\n      dup4\n        /* \"#utility.yul\":12544:12611   */\n      tag_582\n      jump\t// in\n    tag_612:\n        /* \"#utility.yul\":12537:12611   */\n      swap2\n      pop\n        /* \"#utility.yul\":12620:12713   */\n      tag_613\n        /* \"#utility.yul\":12709:12712   */\n      dup3\n        /* \"#utility.yul\":12620:12713   */\n      tag_614\n      jump\t// in\n    tag_613:\n        /* \"#utility.yul\":12738:12740   */\n      0x20\n        /* \"#utility.yul\":12733:12736   */\n      dup3\n        /* \"#utility.yul\":12729:12741   */\n      add\n        /* \"#utility.yul\":12722:12741   */\n      swap1\n      pop\n        /* \"#utility.yul\":12527:12747   */\n      swap2\n      swap1\n      pop\n      jump\t// out\n        /* \"#utility.yul\":12753:13119   */\n    tag_615:\n        /* \"#utility.yul\":12895:12898   */\n      0x00\n        /* \"#utility.yul\":12916:12983   */\n      tag_617\n        /* \"#utility.yul\":12980:12982   */\n      0x0f\n        /* \"#utility.yul\":12975:12978   */\n      dup4\n        /* \"#utility.yul\":12916:12983   */\n      tag_582\n      jump\t// in\n    tag_617:\n        /* \"#utility.yul\":12909:12983   */\n      swap2\n      pop\n        /* \"#utility.yul\":12992:13085   */\n      tag_618\n        /* \"#utility.yul\":13081:13084   */\n      dup3\n        /* \"#utility.yul\":12992:13085   */\n      tag_619\n      jump\t// in\n    tag_618:\n        /* \"#utility.yul\":13110:13112   */\n      0x20\n        /* \"#utility.yul\":13105:13108   */\n      dup3\n        /* \"#utility.yul\":13101:13113   */\n      add\n        /* \"#utility.yul\":13094:13113   */\n      swap1\n      pop\n        /* \"#utility.yul\":12899:13119   */\n      swap2\n      swap1\n      pop\n      jump\t// out\n        /* \"#utility.yul\":13125:13491   */\n    tag_620:\n        /* \"#utility.yul\":13267:13270   */\n      0x00\n        /* \"#utility.yul\":13288:13355   */\n      tag_622\n        /* \"#utility.yul\":13352:13354   */\n      0x1f\n        /* \"#utility.yul\":13347:13350   */\n      dup4\n        /* \"#utility.yul\":13288:13355   */\n      tag_582\n      jump\t// in\n    tag_622:\n        /* \"#utility.yul\":13281:13355   */\n      swap2\n      pop\n        /* \"#utility.yul\":13364:13457   */\n      tag_623\n        /* \"#utility.yul\":13453:13456   */\n      dup3\n        /* \"#utility.yul\":13364:13457   */\n      tag_624\n      jump\t// in\n    tag_623:\n        /* \"#utility.yul\":13482:13484   */\n      0x20\n        /* \"#utility.yul\":13477:13480   */\n      dup3\n        /* \"#utility.yul\":13473:13485   */\n      add\n        /* \"#utility.yul\":13466:13485   */\n      swap1\n      pop\n        /* \"#utility.yul\":13271:13491   */\n      swap2\n      swap1\n      pop\n      jump\t// out\n        /* \"#utility.yul\":13497:13863   */\n    tag_625:\n        /* \"#utility.yul\":13639:13642   */\n      0x00\n        /* \"#utility.yul\":13660:13727   */\n      tag_627\n        /* \"#utility.yul\":13724:13726   */\n      0x11\n        /* \"#utility.yul\":13719:13722   */\n      dup4\n        /* \"#utility.yul\":13660:13727   */\n      tag_582\n      jump\t// in\n    tag_627:\n        /* \"#utility.yul\":13653:13727   */\n      swap2\n      pop\n        /* \"#utility.yul\":13736:13829   */\n      tag_628\n        /* \"#utility.yul\":13825:13828   */\n      dup3\n        /* \"#utility.yul\":13736:13829   */\n      tag_629\n      jump\t// in\n    tag_628:\n        /* \"#utility.yul\":13854:13856   */\n      0x20\n        /* \"#utility.yul\":13849:13852   */\n      dup3\n        /* \"#utility.yul\":13845:13857   */\n      add\n        /* \"#utility.yul\":13838:13857   */\n      swap1\n      pop\n        /* \"#utility.yul\":13643:13863   */\n      swap2\n      swap1\n      pop\n      jump\t// out\n        /* \"#utility.yul\":13869:14235   */\n    tag_630:\n        /* \"#utility.yul\":14011:14014   */\n      0x00\n        /* \"#utility.yul\":14032:14099   */\n      tag_632\n        /* \"#utility.yul\":14096:14098   */\n      0x1d\n        /* \"#utility.yul\":14091:14094   */\n      dup4\n        /* \"#utility.yul\":14032:14099   */\n      tag_582\n      jump\t// in\n    tag_632:\n        /* \"#utility.yul\":14025:14099   */\n      swap2\n      pop\n        /* \"#utility.yul\":14108:14201   */\n      tag_633\n        /* \"#utility.yul\":14197:14200   */\n      dup3\n        /* \"#utility.yul\":14108:14201   */\n      tag_634\n      jump\t// in\n    tag_633:\n        /* \"#utility.yul\":14226:14228   */\n      0x20\n        /* \"#utility.yul\":14221:14224   */\n      dup3\n        /* \"#utility.yul\":14217:14229   */\n      add\n        /* \"#utility.yul\":14210:14229   */\n      swap1\n      pop\n        /* \"#utility.yul\":14015:14235   */\n      swap2\n      swap1\n      pop\n      jump\t// out\n        /* \"#utility.yul\":14241:14607   */\n    tag_635:\n        /* \"#utility.yul\":14383:14386   */\n      0x00\n        /* \"#utility.yul\":14404:14471   */\n      tag_637\n        /* \"#utility.yul\":14468:14470   */\n      0x31\n        /* \"#utility.yul\":14463:14466   */\n      dup4\n        /* \"#utility.yul\":14404:14471   */\n      tag_582\n      jump\t// in\n    tag_637:\n        /* \"#utility.yul\":14397:14471   */\n      swap2\n      pop\n        /* \"#utility.yul\":14480:14573   */\n      tag_638\n        /* \"#utility.yul\":14569:14572   */\n      dup3\n        /* \"#utility.yul\":14480:14573   */\n      tag_639\n      jump\t// in\n    tag_638:\n        /* \"#utility.yul\":14598:14600   */\n      0x40\n        /* \"#utility.yul\":14593:14596   */\n      dup3\n        /* \"#utility.yul\":14589:14601   */\n      add\n        /* \"#utility.yul\":14582:14601   */\n      swap1\n      pop\n        /* \"#utility.yul\":14387:14607   */\n      swap2\n      swap1\n      pop\n      jump\t// out\n        /* \"#utility.yul\":14613:14979   */\n    tag_640:\n        /* \"#utility.yul\":14755:14758   */\n      0x00\n        /* \"#utility.yul\":14776:14843   */\n      tag_642\n        /* \"#utility.yul\":14840:14842   */\n      0x2a\n        /* \"#utility.yul\":14835:14838   */\n      dup4\n        /* \"#utility.yul\":14776:14843   */\n      tag_582\n      jump\t// in\n    tag_642:\n        /* \"#utility.yul\":14769:14843   */\n      swap2\n      pop\n        /* \"#utility.yul\":14852:14945   */\n      tag_643\n        /* \"#utility.yul\":14941:14944   */\n      dup3\n        /* \"#utility.yul\":14852:14945   */\n      tag_644\n      jump\t// in\n    tag_643:\n        /* \"#utility.yul\":14970:14972   */\n      0x40\n        /* \"#utility.yul\":14965:14968   */\n      dup3\n        /* \"#utility.yul\":14961:14973   */\n      add\n        /* \"#utility.yul\":14954:14973   */\n      swap1\n      pop\n        /* \"#utility.yul\":14759:14979   */\n      swap2\n      swap1\n      pop\n      jump\t// out\n        /* \"#utility.yul\":14985:15351   */\n    tag_645:\n        /* \"#utility.yul\":15127:15130   */\n      0x00\n        /* \"#utility.yul\":15148:15215   */\n      tag_647\n        /* \"#utility.yul\":15212:15214   */\n      0x18\n        /* \"#utility.yul\":15207:15210   */\n      dup4\n        /* \"#utility.yul\":15148:15215   */\n      tag_582\n      jump\t// in\n    tag_647:\n        /* \"#utility.yul\":15141:15215   */\n      swap2\n      pop\n        /* \"#utility.yul\":15224:15317   */\n      tag_648\n        /* \"#utility.yul\":15313:15316   */\n      dup3\n        /* \"#utility.yul\":15224:15317   */\n      tag_649\n      jump\t// in\n    tag_648:\n        /* \"#utility.yul\":15342:15344   */\n      0x20\n        /* \"#utility.yul\":15337:15340   */\n      dup3\n        /* \"#utility.yul\":15333:15345   */\n      add\n        /* \"#utility.yul\":15326:15345   */\n      swap1\n      pop\n        /* \"#utility.yul\":15131:15351   */\n      swap2\n      swap1\n      pop\n      jump\t// out\n        /* \"#utility.yul\":15357:15723   */\n    tag_650:\n        /* \"#utility.yul\":15499:15502   */\n      0x00\n        /* \"#utility.yul\":15520:15587   */\n      tag_652\n        /* \"#utility.yul\":15584:15586   */\n      0x44\n        /* \"#utility.yul\":15579:15582   */\n      dup4\n        /* \"#utility.yul\":15520:15587   */\n      tag_582\n      jump\t// in\n    tag_652:\n        /* \"#utility.yul\":15513:15587   */\n      swap2\n      pop\n        /* \"#utility.yul\":15596:15689   */\n      tag_653\n        /* \"#utility.yul\":15685:15688   */\n      dup3\n        /* \"#utility.yul\":15596:15689   */\n      tag_654\n      jump\t// in\n    tag_653:\n        /* \"#utility.yul\":15714:15716   */\n      0x60\n        /* \"#utility.yul\":15709:15712   */\n      dup3\n        /* \"#utility.yul\":15705:15717   */\n      add\n        /* \"#utility.yul\":15698:15717   */\n      swap1\n      pop\n        /* \"#utility.yul\":15503:15723   */\n      swap2\n      swap1\n      pop\n      jump\t// out\n        /* \"#utility.yul\":15729:16095   */\n    tag_655:\n        /* \"#utility.yul\":15871:15874   */\n      0x00\n        /* \"#utility.yul\":15892:15959   */\n      tag_657\n        /* \"#utility.yul\":15956:15958   */\n      0x1f\n        /* \"#utility.yul\":15951:15954   */\n      dup4\n        /* \"#utility.yul\":15892:15959   */\n      tag_582\n      jump\t// in\n    tag_657:\n        /* \"#utility.yul\":15885:15959   */\n      swap2\n      pop\n        /* \"#utility.yul\":15968:16061   */\n      tag_658\n        /* \"#utility.yul\":16057:16060   */\n      dup3\n        /* \"#utility.yul\":15968:16061   */\n      tag_659\n      jump\t// in\n    tag_658:\n        /* \"#utility.yul\":16086:16088   */\n      0x20\n        /* \"#utility.yul\":16081:16084   */\n      dup3\n        /* \"#utility.yul\":16077:16089   */\n      add\n        /* \"#utility.yul\":16070:16089   */\n      swap1\n      pop\n        /* \"#utility.yul\":15875:16095   */\n      swap2\n      swap1\n      pop\n      jump\t// out\n        /* \"#utility.yul\":16203:16725   */\n    tag_517:\n        /* \"#utility.yul\":16362:16366   */\n      0x40\n        /* \"#utility.yul\":16357:16360   */\n      dup3\n        /* \"#utility.yul\":16353:16367   */\n      add\n        /* \"#utility.yul\":16450:16454   */\n      0x00\n        /* \"#utility.yul\":16443:16448   */\n      dup3\n        /* \"#utility.yul\":16439:16455   */\n      add\n        /* \"#utility.yul\":16433:16456   */\n      mload\n        /* \"#utility.yul\":16469:16532   */\n      tag_661\n        /* \"#utility.yul\":16526:16530   */\n      0x00\n        /* \"#utility.yul\":16521:16524   */\n      dup6\n        /* \"#utility.yul\":16517:16531   */\n      add\n        /* \"#utility.yul\":16503:16515   */\n      dup3\n        /* \"#utility.yul\":16469:16532   */\n      tag_522\n      jump\t// in\n    tag_661:\n        /* \"#utility.yul\":16377:16542   */\n      pop\n        /* \"#utility.yul\":16626:16630   */\n      0x20\n        /* \"#utility.yul\":16619:16624   */\n      dup3\n        /* \"#utility.yul\":16615:16631   */\n      add\n        /* \"#utility.yul\":16609:16632   */\n      mload\n        /* \"#utility.yul\":16645:16708   */\n      tag_662\n        /* \"#utility.yul\":16702:16706   */\n      0x20\n        /* \"#utility.yul\":16697:16700   */\n      dup6\n        /* \"#utility.yul\":16693:16707   */\n      add\n        /* \"#utility.yul\":16679:16691   */\n      dup3\n        /* \"#utility.yul\":16645:16708   */\n      tag_663\n      jump\t// in\n    tag_662:\n        /* \"#utility.yul\":16552:16718   */\n      pop\n        /* \"#utility.yul\":16331:16725   */\n      pop\n      pop\n      pop\n      jump\t// out\n        /* \"#utility.yul\":16833:17365   */\n    tag_664:\n        /* \"#utility.yul\":17002:17006   */\n      0x40\n        /* \"#utility.yul\":16997:17000   */\n      dup3\n        /* \"#utility.yul\":16993:17007   */\n      add\n        /* \"#utility.yul\":17090:17094   */\n      0x00\n        /* \"#utility.yul\":17083:17088   */\n      dup3\n        /* \"#utility.yul\":17079:17095   */\n      add\n        /* \"#utility.yul\":17073:17096   */\n      mload\n        /* \"#utility.yul\":17109:17172   */\n      tag_666\n        /* \"#utility.yul\":17166:17170   */\n      0x00\n        /* \"#utility.yul\":17161:17164   */\n      dup6\n        /* \"#utility.yul\":17157:17171   */\n      add\n        /* \"#utility.yul\":17143:17155   */\n      dup3\n        /* \"#utility.yul\":17109:17172   */\n      tag_522\n      jump\t// in\n    tag_666:\n        /* \"#utility.yul\":17017:17182   */\n      pop\n        /* \"#utility.yul\":17266:17270   */\n      0x20\n        /* \"#utility.yul\":17259:17264   */\n      dup3\n        /* \"#utility.yul\":17255:17271   */\n      add\n        /* \"#utility.yul\":17249:17272   */\n      mload\n        /* \"#utility.yul\":17285:17348   */\n      tag_667\n        /* \"#utility.yul\":17342:17346   */\n      0x20\n        /* \"#utility.yul\":17337:17340   */\n      dup6\n        /* \"#utility.yul\":17333:17347   */\n      add\n        /* \"#utility.yul\":17319:17331   */\n      dup3\n        /* \"#utility.yul\":17285:17348   */\n      tag_663\n      jump\t// in\n    tag_667:\n        /* \"#utility.yul\":17192:17358   */\n      pop\n        /* \"#utility.yul\":16971:17365   */\n      pop\n      pop\n      pop\n      jump\t// out\n        /* \"#utility.yul\":17445:19110   */\n    tag_521:\n        /* \"#utility.yul\":17548:17551   */\n      0x00\n        /* \"#utility.yul\":17584:17590   */\n      0x0100\n        /* \"#utility.yul\":17579:17582   */\n      dup4\n        /* \"#utility.yul\":17575:17591   */\n      add\n        /* \"#utility.yul\":17671:17675   */\n      0x00\n        /* \"#utility.yul\":17664:17669   */\n      dup4\n        /* \"#utility.yul\":17660:17676   */\n      add\n        /* \"#utility.yul\":17654:17677   */\n      mload\n        /* \"#utility.yul\":17690:17753   */\n      tag_669\n        /* \"#utility.yul\":17747:17751   */\n      0x00\n        /* \"#utility.yul\":17742:17745   */\n      dup7\n        /* \"#utility.yul\":17738:17752   */\n      add\n        /* \"#utility.yul\":17724:17736   */\n      dup3\n        /* \"#utility.yul\":17690:17753   */\n      tag_663\n      jump\t// in\n    tag_669:\n        /* \"#utility.yul\":17601:17763   */\n      pop\n        /* \"#utility.yul\":17846:17850   */\n      0x20\n        /* \"#utility.yul\":17839:17844   */\n      dup4\n        /* \"#utility.yul\":17835:17851   */\n      add\n        /* \"#utility.yul\":17829:17852   */\n      mload\n        /* \"#utility.yul\":17865:17928   */\n      tag_670\n        /* \"#utility.yul\":17922:17926   */\n      0x20\n        /* \"#utility.yul\":17917:17920   */\n      dup7\n        /* \"#utility.yul\":17913:17927   */\n      add\n        /* \"#utility.yul\":17899:17911   */\n      dup3\n        /* \"#utility.yul\":17865:17928   */\n      tag_522\n      jump\t// in\n    tag_670:\n        /* \"#utility.yul\":17773:17938   */\n      pop\n        /* \"#utility.yul\":18021:18025   */\n      0x40\n        /* \"#utility.yul\":18014:18019   */\n      dup4\n        /* \"#utility.yul\":18010:18026   */\n      add\n        /* \"#utility.yul\":18004:18027   */\n      mload\n        /* \"#utility.yul\":18040:18103   */\n      tag_671\n        /* \"#utility.yul\":18097:18101   */\n      0x40\n        /* \"#utility.yul\":18092:18095   */\n      dup7\n        /* \"#utility.yul\":18088:18102   */\n      add\n        /* \"#utility.yul\":18074:18086   */\n      dup3\n        /* \"#utility.yul\":18040:18103   */\n      tag_522\n      jump\t// in\n    tag_671:\n        /* \"#utility.yul\":17948:18113   */\n      pop\n        /* \"#utility.yul\":18197:18201   */\n      0x60\n        /* \"#utility.yul\":18190:18195   */\n      dup4\n        /* \"#utility.yul\":18186:18202   */\n      add\n        /* \"#utility.yul\":18180:18203   */\n      mload\n        /* \"#utility.yul\":18216:18279   */\n      tag_672\n        /* \"#utility.yul\":18273:18277   */\n      0x60\n        /* \"#utility.yul\":18268:18271   */\n      dup7\n        /* \"#utility.yul\":18264:18278   */\n      add\n        /* \"#utility.yul\":18250:18262   */\n      dup3\n        /* \"#utility.yul\":18216:18279   */\n      tag_663\n      jump\t// in\n    tag_672:\n        /* \"#utility.yul\":18123:18289   */\n      pop\n        /* \"#utility.yul\":18375:18379   */\n      0x80\n        /* \"#utility.yul\":18368:18373   */\n      dup4\n        /* \"#utility.yul\":18364:18380   */\n      add\n        /* \"#utility.yul\":18358:18381   */\n      mload\n        /* \"#utility.yul\":18394:18457   */\n      tag_673\n        /* \"#utility.yul\":18451:18455   */\n      0x80\n        /* \"#utility.yul\":18446:18449   */\n      dup7\n        /* \"#utility.yul\":18442:18456   */\n      add\n        /* \"#utility.yul\":18428:18440   */\n      dup3\n        /* \"#utility.yul\":18394:18457   */\n      tag_663\n      jump\t// in\n    tag_673:\n        /* \"#utility.yul\":18299:18467   */\n      pop\n        /* \"#utility.yul\":18555:18559   */\n      0xa0\n        /* \"#utility.yul\":18548:18553   */\n      dup4\n        /* \"#utility.yul\":18544:18560   */\n      add\n        /* \"#utility.yul\":18538:18561   */\n      mload\n        /* \"#utility.yul\":18574:18637   */\n      tag_674\n        /* \"#utility.yul\":18631:18635   */\n      0xa0\n        /* \"#utility.yul\":18626:18629   */\n      dup7\n        /* \"#utility.yul\":18622:18636   */\n      add\n        /* \"#utility.yul\":18608:18620   */\n      dup3\n        /* \"#utility.yul\":18574:18637   */\n      tag_663\n      jump\t// in\n    tag_674:\n        /* \"#utility.yul\":18477:18647   */\n      pop\n        /* \"#utility.yul\":18739:18743   */\n      0xc0\n        /* \"#utility.yul\":18732:18737   */\n      dup4\n        /* \"#utility.yul\":18728:18744   */\n      add\n        /* \"#utility.yul\":18722:18745   */\n      mload\n        /* \"#utility.yul\":18758:18821   */\n      tag_675\n        /* \"#utility.yul\":18815:18819   */\n      0xc0\n        /* \"#utility.yul\":18810:18813   */\n      dup7\n        /* \"#utility.yul\":18806:18820   */\n      add\n        /* \"#utility.yul\":18792:18804   */\n      dup3\n        /* \"#utility.yul\":18758:18821   */\n      tag_663\n      jump\t// in\n    tag_675:\n        /* \"#utility.yul\":18657:18831   */\n      pop\n        /* \"#utility.yul\":18920:18924   */\n      0xe0\n        /* \"#utility.yul\":18913:18918   */\n      dup4\n        /* \"#utility.yul\":18909:18925   */\n      add\n        /* \"#utility.yul\":18903:18926   */\n      mload\n        /* \"#utility.yul\":18973:18976   */\n      dup5\n        /* \"#utility.yul\":18967:18971   */\n      dup3\n        /* \"#utility.yul\":18963:18977   */\n      sub\n        /* \"#utility.yul\":18956:18960   */\n      0xe0\n        /* \"#utility.yul\":18951:18954   */\n      dup7\n        /* \"#utility.yul\":18947:18961   */\n      add\n        /* \"#utility.yul\":18940:18978   */\n      mstore\n        /* \"#utility.yul\":18999:19072   */\n      tag_676\n        /* \"#utility.yul\":19067:19071   */\n      dup3\n        /* \"#utility.yul\":19053:19065   */\n      dup3\n        /* \"#utility.yul\":18999:19072   */\n      tag_569\n      jump\t// in\n    tag_676:\n        /* \"#utility.yul\":18991:19072   */\n      swap2\n      pop\n        /* \"#utility.yul\":18841:19083   */\n      pop\n        /* \"#utility.yul\":19100:19104   */\n      dup1\n        /* \"#utility.yul\":19093:19104   */\n      swap2\n      pop\n        /* \"#utility.yul\":17553:19110   */\n      pop\n      swap3\n      swap2\n      pop\n      pop\n      jump\t// out\n        /* \"#utility.yul\":19190:20865   */\n    tag_677:\n        /* \"#utility.yul\":19303:19306   */\n      0x00\n        /* \"#utility.yul\":19339:19345   */\n      0x0100\n        /* \"#utility.yul\":19334:19337   */\n      dup4\n        /* \"#utility.yul\":19330:19346   */\n      add\n        /* \"#utility.yul\":19426:19430   */\n      0x00\n        /* \"#utility.yul\":19419:19424   */\n      dup4\n        /* \"#utility.yul\":19415:19431   */\n      add\n        /* \"#utility.yul\":19409:19432   */\n      mload\n        /* \"#utility.yul\":19445:19508   */\n      tag_679\n        /* \"#utility.yul\":19502:19506   */\n      0x00\n        /* \"#utility.yul\":19497:19500   */\n      dup7\n        /* \"#utility.yul\":19493:19507   */\n      add\n        /* \"#utility.yul\":19479:19491   */\n      dup3\n        /* \"#utility.yul\":19445:19508   */\n      tag_663\n      jump\t// in\n    tag_679:\n        /* \"#utility.yul\":19356:19518   */\n      pop\n        /* \"#utility.yul\":19601:19605   */\n      0x20\n        /* \"#utility.yul\":19594:19599   */\n      dup4\n        /* \"#utility.yul\":19590:19606   */\n      add\n        /* \"#utility.yul\":19584:19607   */\n      mload\n        /* \"#utility.yul\":19620:19683   */\n      tag_680\n        /* \"#utility.yul\":19677:19681   */\n      0x20\n        /* \"#utility.yul\":19672:19675   */\n      dup7\n        /* \"#utility.yul\":19668:19682   */\n      add\n        /* \"#utility.yul\":19654:19666   */\n      dup3\n        /* \"#utility.yul\":19620:19683   */\n      tag_522\n      jump\t// in\n    tag_680:\n        /* \"#utility.yul\":19528:19693   */\n      pop\n        /* \"#utility.yul\":19776:19780   */\n      0x40\n        /* \"#utility.yul\":19769:19774   */\n      dup4\n        /* \"#utility.yul\":19765:19781   */\n      add\n        /* \"#utility.yul\":19759:19782   */\n      mload\n        /* \"#utility.yul\":19795:19858   */\n      tag_681\n        /* \"#utility.yul\":19852:19856   */\n      0x40\n        /* \"#utility.yul\":19847:19850   */\n      dup7\n        /* \"#utility.yul\":19843:19857   */\n      add\n        /* \"#utility.yul\":19829:19841   */\n      dup3\n        /* \"#utility.yul\":19795:19858   */\n      tag_522\n      jump\t// in\n    tag_681:\n        /* \"#utility.yul\":19703:19868   */\n      pop\n        /* \"#utility.yul\":19952:19956   */\n      0x60\n        /* \"#utility.yul\":19945:19950   */\n      dup4\n        /* \"#utility.yul\":19941:19957   */\n      add\n        /* \"#utility.yul\":19935:19958   */\n      mload\n        /* \"#utility.yul\":19971:20034   */\n      tag_682\n        /* \"#utility.yul\":20028:20032   */\n      0x60\n        /* \"#utility.yul\":20023:20026   */\n      dup7\n        /* \"#utility.yul\":20019:20033   */\n      add\n        /* \"#utility.yul\":20005:20017   */\n      dup3\n        /* \"#utility.yul\":19971:20034   */\n      tag_663\n      jump\t// in\n    tag_682:\n        /* \"#utility.yul\":19878:20044   */\n      pop\n        /* \"#utility.yul\":20130:20134   */\n      0x80\n        /* \"#utility.yul\":20123:20128   */\n      dup4\n        /* \"#utility.yul\":20119:20135   */\n      add\n        /* \"#utility.yul\":20113:20136   */\n      mload\n        /* \"#utility.yul\":20149:20212   */\n      tag_683\n        /* \"#utility.yul\":20206:20210   */\n      0x80\n        /* \"#utility.yul\":20201:20204   */\n      dup7\n        /* \"#utility.yul\":20197:20211   */\n      add\n        /* \"#utility.yul\":20183:20195   */\n      dup3\n        /* \"#utility.yul\":20149:20212   */\n      tag_663\n      jump\t// in\n    tag_683:\n        /* \"#utility.yul\":20054:20222   */\n      pop\n        /* \"#utility.yul\":20310:20314   */\n      0xa0\n        /* \"#utility.yul\":20303:20308   */\n      dup4\n        /* \"#utility.yul\":20299:20315   */\n      add\n        /* \"#utility.yul\":20293:20316   */\n      mload\n        /* \"#utility.yul\":20329:20392   */\n      tag_684\n        /* \"#utility.yul\":20386:20390   */\n      0xa0\n        /* \"#utility.yul\":20381:20384   */\n      dup7\n        /* \"#utility.yul\":20377:20391   */\n      add\n        /* \"#utility.yul\":20363:20375   */\n      dup3\n        /* \"#utility.yul\":20329:20392   */\n      tag_663\n      jump\t// in\n    tag_684:\n        /* \"#utility.yul\":20232:20402   */\n      pop\n        /* \"#utility.yul\":20494:20498   */\n      0xc0\n        /* \"#utility.yul\":20487:20492   */\n      dup4\n        /* \"#utility.yul\":20483:20499   */\n      add\n        /* \"#utility.yul\":20477:20500   */\n      mload\n        /* \"#utility.yul\":20513:20576   */\n      tag_685\n        /* \"#utility.yul\":20570:20574   */\n      0xc0\n        /* \"#utility.yul\":20565:20568   */\n      dup7\n        /* \"#utility.yul\":20561:20575   */\n      add\n        /* \"#utility.yul\":20547:20559   */\n      dup3\n        /* \"#utility.yul\":20513:20576   */\n      tag_663\n      jump\t// in\n    tag_685:\n        /* \"#utility.yul\":20412:20586   */\n      pop\n        /* \"#utility.yul\":20675:20679   */\n      0xe0\n        /* \"#utility.yul\":20668:20673   */\n      dup4\n        /* \"#utility.yul\":20664:20680   */\n      add\n        /* \"#utility.yul\":20658:20681   */\n      mload\n        /* \"#utility.yul\":20728:20731   */\n      dup5\n        /* \"#utility.yul\":20722:20726   */\n      dup3\n        /* \"#utility.yul\":20718:20732   */\n      sub\n        /* \"#utility.yul\":20711:20715   */\n      0xe0\n        /* \"#utility.yul\":20706:20709   */\n      dup7\n        /* \"#utility.yul\":20702:20716   */\n      add\n        /* \"#utility.yul\":20695:20733   */\n      mstore\n        /* \"#utility.yul\":20754:20827   */\n      tag_686\n        /* \"#utility.yul\":20822:20826   */\n      dup3\n        /* \"#utility.yul\":20808:20820   */\n      dup3\n        /* \"#utility.yul\":20754:20827   */\n      tag_569\n      jump\t// in\n    tag_686:\n        /* \"#utility.yul\":20746:20827   */\n      swap2\n      pop\n        /* \"#utility.yul\":20596:20838   */\n      pop\n        /* \"#utility.yul\":20855:20859   */\n      dup1\n        /* \"#utility.yul\":20848:20859   */\n      swap2\n      pop\n        /* \"#utility.yul\":19308:20865   */\n      pop\n      swap3\n      swap2\n      pop\n      pop\n      jump\t// out\n        /* \"#utility.yul\":20871:20979   */\n    tag_663:\n        /* \"#utility.yul\":20948:20972   */\n      tag_688\n        /* \"#utility.yul\":20966:20971   */\n      dup2\n        /* \"#utility.yul\":20948:20972   */\n      tag_689\n      jump\t// in\n    tag_688:\n        /* \"#utility.yul\":20943:20946   */\n      dup3\n        /* \"#utility.yul\":20936:20973   */\n      mstore\n        /* \"#utility.yul\":20926:20979   */\n      pop\n      pop\n      jump\t// out\n        /* \"#utility.yul\":20985:21103   */\n    tag_690:\n        /* \"#utility.yul\":21072:21096   */\n      tag_692\n        /* \"#utility.yul\":21090:21095   */\n      dup2\n        /* \"#utility.yul\":21072:21096   */\n      tag_689\n      jump\t// in\n    tag_692:\n        /* \"#utility.yul\":21067:21070   */\n      dup3\n        /* \"#utility.yul\":21060:21097   */\n      mstore\n        /* \"#utility.yul\":21050:21103   */\n      pop\n      pop\n      jump\t// out\n        /* \"#utility.yul\":21109:21380   */\n    tag_405:\n        /* \"#utility.yul\":21239:21242   */\n      0x00\n        /* \"#utility.yul\":21261:21354   */\n      tag_694\n        /* \"#utility.yul\":21350:21353   */\n      dup3\n        /* \"#utility.yul\":21341:21347   */\n      dup5\n        /* \"#utility.yul\":21261:21354   */\n      tag_561\n      jump\t// in\n    tag_694:\n        /* \"#utility.yul\":21254:21354   */\n      swap2\n      pop\n        /* \"#utility.yul\":21371:21374   */\n      dup2\n        /* \"#utility.yul\":21364:21374   */\n      swap1\n      pop\n        /* \"#utility.yul\":21243:21380   */\n      swap3\n      swap2\n      pop\n      pop\n      jump\t// out\n        /* \"#utility.yul\":21386:21608   */\n    tag_316:\n        /* \"#utility.yul\":21479:21483   */\n      0x00\n        /* \"#utility.yul\":21517:21519   */\n      0x20\n        /* \"#utility.yul\":21506:21515   */\n      dup3\n        /* \"#utility.yul\":21502:21520   */\n      add\n        /* \"#utility.yul\":21494:21520   */\n      swap1\n      pop\n        /* \"#utility.yul\":21530:21601   */\n      tag_696\n        /* \"#utility.yul\":21598:21599   */\n      0x00\n        /* \"#utility.yul\":21587:21596   */\n      dup4\n        /* \"#utility.yul\":21583:21600   */\n      add\n        /* \"#utility.yul\":21574:21580   */\n      dup5\n        /* \"#utility.yul\":21530:21601   */\n      tag_526\n      jump\t// in\n    tag_696:\n        /* \"#utility.yul\":21484:21608   */\n      swap3\n      swap2\n      pop\n      pop\n      jump\t// out\n        /* \"#utility.yul\":21614:22056   */\n    tag_373:\n        /* \"#utility.yul\":21763:21767   */\n      0x00\n        /* \"#utility.yul\":21801:21803   */\n      0x60\n        /* \"#utility.yul\":21790:21799   */\n      dup3\n        /* \"#utility.yul\":21786:21804   */\n      add\n        /* \"#utility.yul\":21778:21804   */\n      swap1\n      pop\n        /* \"#utility.yul\":21814:21885   */\n      tag_698\n        /* \"#utility.yul\":21882:21883   */\n      0x00\n        /* \"#utility.yul\":21871:21880   */\n      dup4\n        /* \"#utility.yul\":21867:21884   */\n      add\n        /* \"#utility.yul\":21858:21864   */\n      dup7\n        /* \"#utility.yul\":21814:21885   */\n      tag_526\n      jump\t// in\n    tag_698:\n        /* \"#utility.yul\":21895:21967   */\n      tag_699\n        /* \"#utility.yul\":21963:21965   */\n      0x20\n        /* \"#utility.yul\":21952:21961   */\n      dup4\n        /* \"#utility.yul\":21948:21966   */\n      add\n        /* \"#utility.yul\":21939:21945   */\n      dup6\n        /* \"#utility.yul\":21895:21967   */\n      tag_526\n      jump\t// in\n    tag_699:\n        /* \"#utility.yul\":21977:22049   */\n      tag_700\n        /* \"#utility.yul\":22045:22047   */\n      0x40\n        /* \"#utility.yul\":22034:22043   */\n      dup4\n        /* \"#utility.yul\":22030:22048   */\n      add\n        /* \"#utility.yul\":22021:22027   */\n      dup5\n        /* \"#utility.yul\":21977:22049   */\n      tag_690\n      jump\t// in\n    tag_700:\n        /* \"#utility.yul\":21768:22056   */\n      swap5\n      swap4\n      pop\n      pop\n      pop\n      pop\n      jump\t// out\n        /* \"#utility.yul\":22062:22615   */\n    tag_220:\n        /* \"#utility.yul\":22239:22243   */\n      0x00\n        /* \"#utility.yul\":22277:22280   */\n      0x80\n        /* \"#utility.yul\":22266:22275   */\n      dup3\n        /* \"#utility.yul\":22262:22281   */\n      add\n        /* \"#utility.yul\":22254:22281   */\n      swap1\n      pop\n        /* \"#utility.yul\":22291:22362   */\n      tag_702\n        /* \"#utility.yul\":22359:22360   */\n      0x00\n        /* \"#utility.yul\":22348:22357   */\n      dup4\n        /* \"#utility.yul\":22344:22361   */\n      add\n        /* \"#utility.yul\":22335:22341   */\n      dup8\n        /* \"#utility.yul\":22291:22362   */\n      tag_526\n      jump\t// in\n    tag_702:\n        /* \"#utility.yul\":22372:22444   */\n      tag_703\n        /* \"#utility.yul\":22440:22442   */\n      0x20\n        /* \"#utility.yul\":22429:22438   */\n      dup4\n        /* \"#utility.yul\":22425:22443   */\n      add\n        /* \"#utility.yul\":22416:22422   */\n      dup7\n        /* \"#utility.yul\":22372:22444   */\n      tag_526\n      jump\t// in\n    tag_703:\n        /* \"#utility.yul\":22454:22526   */\n      tag_704\n        /* \"#utility.yul\":22522:22524   */\n      0x40\n        /* \"#utility.yul\":22511:22520   */\n      dup4\n        /* \"#utility.yul\":22507:22525   */\n      add\n        /* \"#utility.yul\":22498:22504   */\n      dup6\n        /* \"#utility.yul\":22454:22526   */\n      tag_690\n      jump\t// in\n    tag_704:\n        /* \"#utility.yul\":22536:22608   */\n      tag_705\n        /* \"#utility.yul\":22604:22606   */\n      0x60\n        /* \"#utility.yul\":22593:22602   */\n      dup4\n        /* \"#utility.yul\":22589:22607   */\n      add\n        /* \"#utility.yul\":22580:22586   */\n      dup5\n        /* \"#utility.yul\":22536:22608   */\n      tag_690\n      jump\t// in\n    tag_705:\n        /* \"#utility.yul\":22244:22615   */\n      swap6\n      swap5\n      pop\n      pop\n      pop\n      pop\n      pop\n      jump\t// out\n        /* \"#utility.yul\":22621:22953   */\n    tag_96:\n        /* \"#utility.yul\":22742:22746   */\n      0x00\n        /* \"#utility.yul\":22780:22782   */\n      0x40\n        /* \"#utility.yul\":22769:22778   */\n      dup3\n        /* \"#utility.yul\":22765:22783   */\n      add\n        /* \"#utility.yul\":22757:22783   */\n      swap1\n      pop\n        /* \"#utility.yul\":22793:22864   */\n      tag_707\n        /* \"#utility.yul\":22861:22862   */\n      0x00\n        /* \"#utility.yul\":22850:22859   */\n      dup4\n        /* \"#utility.yul\":22846:22863   */\n      add\n        /* \"#utility.yul\":22837:22843   */\n      dup6\n        /* \"#utility.yul\":22793:22864   */\n      tag_526\n      jump\t// in\n    tag_707:\n        /* \"#utility.yul\":22874:22946   */\n      tag_708\n        /* \"#utility.yul\":22942:22944   */\n      0x20\n        /* \"#utility.yul\":22931:22940   */\n      dup4\n        /* \"#utility.yul\":22927:22945   */\n      add\n        /* \"#utility.yul\":22918:22924   */\n      dup5\n        /* \"#utility.yul\":22874:22946   */\n      tag_690\n      jump\t// in\n    tag_708:\n        /* \"#utility.yul\":22747:22953   */\n      swap4\n      swap3\n      pop\n      pop\n      pop\n      jump\t// out\n        /* \"#utility.yul\":22959:23476   */\n    tag_65:\n        /* \"#utility.yul\":23174:23178   */\n      0x00\n        /* \"#utility.yul\":23212:23214   */\n      0x20\n        /* \"#utility.yul\":23201:23210   */\n      dup3\n        /* \"#utility.yul\":23197:23215   */\n      add\n        /* \"#utility.yul\":23189:23215   */\n      swap1\n      pop\n        /* \"#utility.yul\":23261:23270   */\n      dup2\n        /* \"#utility.yul\":23255:23259   */\n      dup2\n        /* \"#utility.yul\":23251:23271   */\n      sub\n        /* \"#utility.yul\":23247:23248   */\n      0x00\n        /* \"#utility.yul\":23236:23245   */\n      dup4\n        /* \"#utility.yul\":23232:23249   */\n      add\n        /* \"#utility.yul\":23225:23272   */\n      mstore\n        /* \"#utility.yul\":23289:23469   */\n      tag_710\n        /* \"#utility.yul\":23464:23468   */\n      dup2\n        /* \"#utility.yul\":23455:23461   */\n      dup5\n        /* \"#utility.yul\":23289:23469   */\n      tag_529\n      jump\t// in\n    tag_710:\n        /* \"#utility.yul\":23281:23469   */\n      swap1\n      pop\n        /* \"#utility.yul\":23179:23476   */\n      swap3\n      swap2\n      pop\n      pop\n      jump\t// out\n        /* \"#utility.yul\":23482:23943   */\n    tag_39:\n        /* \"#utility.yul\":23669:23673   */\n      0x00\n        /* \"#utility.yul\":23707:23709   */\n      0x20\n        /* \"#utility.yul\":23696:23705   */\n      dup3\n        /* \"#utility.yul\":23692:23710   */\n      add\n        /* \"#utility.yul\":23684:23710   */\n      swap1\n      pop\n        /* \"#utility.yul\":23756:23765   */\n      dup2\n        /* \"#utility.yul\":23750:23754   */\n      dup2\n        /* \"#utility.yul\":23746:23766   */\n      sub\n        /* \"#utility.yul\":23742:23743   */\n      0x00\n        /* \"#utility.yul\":23731:23740   */\n      dup4\n        /* \"#utility.yul\":23727:23744   */\n      add\n        /* \"#utility.yul\":23720:23767   */\n      mstore\n        /* \"#utility.yul\":23784:23936   */\n      tag_712\n        /* \"#utility.yul\":23931:23935   */\n      dup2\n        /* \"#utility.yul\":23922:23928   */\n      dup5\n        /* \"#utility.yul\":23784:23936   */\n      tag_543\n      jump\t// in\n    tag_712:\n        /* \"#utility.yul\":23776:23936   */\n      swap1\n      pop\n        /* \"#utility.yul\":23674:23943   */\n      swap3\n      swap2\n      pop\n      pop\n      jump\t// out\n        /* \"#utility.yul\":23949:24159   */\n    tag_51:\n        /* \"#utility.yul\":24036:24040   */\n      0x00\n        /* \"#utility.yul\":24074:24076   */\n      0x20\n        /* \"#utility.yul\":24063:24072   */\n      dup3\n        /* \"#utility.yul\":24059:24077   */\n      add\n        /* \"#utility.yul\":24051:24077   */\n      swap1\n      pop\n        /* \"#utility.yul\":24087:24152   */\n      tag_714\n        /* \"#utility.yul\":24149:24150   */\n      0x00\n        /* \"#utility.yul\":24138:24147   */\n      dup4\n        /* \"#utility.yul\":24134:24151   */\n      add\n        /* \"#utility.yul\":24125:24131   */\n      dup5\n        /* \"#utility.yul\":24087:24152   */\n      tag_557\n      jump\t// in\n    tag_714:\n        /* \"#utility.yul\":24041:24159   */\n      swap3\n      swap2\n      pop\n      pop\n      jump\t// out\n        /* \"#utility.yul\":24165:24478   */\n    tag_427:\n        /* \"#utility.yul\":24278:24282   */\n      0x00\n        /* \"#utility.yul\":24316:24318   */\n      0x20\n        /* \"#utility.yul\":24305:24314   */\n      dup3\n        /* \"#utility.yul\":24301:24319   */\n      add\n        /* \"#utility.yul\":24293:24319   */\n      swap1\n      pop\n        /* \"#utility.yul\":24365:24374   */\n      dup2\n        /* \"#utility.yul\":24359:24363   */\n      dup2\n        /* \"#utility.yul\":24355:24375   */\n      sub\n        /* \"#utility.yul\":24351:24352   */\n      0x00\n        /* \"#utility.yul\":24340:24349   */\n      dup4\n        /* \"#utility.yul\":24336:24353   */\n      add\n        /* \"#utility.yul\":24329:24376   */\n      mstore\n        /* \"#utility.yul\":24393:24471   */\n      tag_716\n        /* \"#utility.yul\":24466:24470   */\n      dup2\n        /* \"#utility.yul\":24457:24463   */\n      dup5\n        /* \"#utility.yul\":24393:24471   */\n      tag_578\n      jump\t// in\n    tag_716:\n        /* \"#utility.yul\":24385:24471   */\n      swap1\n      pop\n        /* \"#utility.yul\":24283:24478   */\n      swap3\n      swap2\n      pop\n      pop\n      jump\t// out\n        /* \"#utility.yul\":24484:24903   */\n    tag_232:\n        /* \"#utility.yul\":24650:24654   */\n      0x00\n        /* \"#utility.yul\":24688:24690   */\n      0x20\n        /* \"#utility.yul\":24677:24686   */\n      dup3\n        /* \"#utility.yul\":24673:24691   */\n      add\n        /* \"#utility.yul\":24665:24691   */\n      swap1\n      pop\n        /* \"#utility.yul\":24737:24746   */\n      dup2\n        /* \"#utility.yul\":24731:24735   */\n      dup2\n        /* \"#utility.yul\":24727:24747   */\n      sub\n        /* \"#utility.yul\":24723:24724   */\n      0x00\n        /* \"#utility.yul\":24712:24721   */\n      dup4\n        /* \"#utility.yul\":24708:24725   */\n      add\n        /* \"#utility.yul\":24701:24748   */\n      mstore\n        /* \"#utility.yul\":24765:24896   */\n      tag_718\n        /* \"#utility.yul\":24891:24895   */\n      dup2\n        /* \"#utility.yul\":24765:24896   */\n      tag_585\n      jump\t// in\n    tag_718:\n        /* \"#utility.yul\":24757:24896   */\n      swap1\n      pop\n        /* \"#utility.yul\":24655:24903   */\n      swap2\n      swap1\n      pop\n      jump\t// out\n        /* \"#utility.yul\":24909:25328   */\n    tag_211:\n        /* \"#utility.yul\":25075:25079   */\n      0x00\n        /* \"#utility.yul\":25113:25115   */\n      0x20\n        /* \"#utility.yul\":25102:25111   */\n      dup3\n        /* \"#utility.yul\":25098:25116   */\n      add\n        /* \"#utility.yul\":25090:25116   */\n      swap1\n      pop\n        /* \"#utility.yul\":25162:25171   */\n      dup2\n        /* \"#utility.yul\":25156:25160   */\n      dup2\n        /* \"#utility.yul\":25152:25172   */\n      sub\n        /* \"#utility.yul\":25148:25149   */\n      0x00\n        /* \"#utility.yul\":25137:25146   */\n      dup4\n        /* \"#utility.yul\":25133:25150   */\n      add\n        /* \"#utility.yul\":25126:25173   */\n      mstore\n        /* \"#utility.yul\":25190:25321   */\n      tag_720\n        /* \"#utility.yul\":25316:25320   */\n      dup2\n        /* \"#utility.yul\":25190:25321   */\n      tag_590\n      jump\t// in\n    tag_720:\n        /* \"#utility.yul\":25182:25321   */\n      swap1\n      pop\n        /* \"#utility.yul\":25080:25328   */\n      swap2\n      swap1\n      pop\n      jump\t// out\n        /* \"#utility.yul\":25334:25753   */\n    tag_173:\n        /* \"#utility.yul\":25500:25504   */\n      0x00\n        /* \"#utility.yul\":25538:25540   */\n      0x20\n        /* \"#utility.yul\":25527:25536   */\n      dup3\n        /* \"#utility.yul\":25523:25541   */\n      add\n        /* \"#utility.yul\":25515:25541   */\n      swap1\n      pop\n        /* \"#utility.yul\":25587:25596   */\n      dup2\n        /* \"#utility.yul\":25581:25585   */\n      dup2\n        /* \"#utility.yul\":25577:25597   */\n      sub\n        /* \"#utility.yul\":25573:25574   */\n      0x00\n        /* \"#utility.yul\":25562:25571   */\n      dup4\n        /* \"#utility.yul\":25558:25575   */\n      add\n        /* \"#utility.yul\":25551:25598   */\n      mstore\n        /* \"#utility.yul\":25615:25746   */\n      tag_722\n        /* \"#utility.yul\":25741:25745   */\n      dup2\n        /* \"#utility.yul\":25615:25746   */\n      tag_595\n      jump\t// in\n    tag_722:\n        /* \"#utility.yul\":25607:25746   */\n      swap1\n      pop\n        /* \"#utility.yul\":25505:25753   */\n      swap2\n      swap1\n      pop\n      jump\t// out\n        /* \"#utility.yul\":25759:26178   */\n    tag_403:\n        /* \"#utility.yul\":25925:25929   */\n      0x00\n        /* \"#utility.yul\":25963:25965   */\n      0x20\n        /* \"#utility.yul\":25952:25961   */\n      dup3\n        /* \"#utility.yul\":25948:25966   */\n      add\n        /* \"#utility.yul\":25940:25966   */\n      swap1\n      pop\n        /* \"#utility.yul\":26012:26021   */\n      dup2\n        /* \"#utility.yul\":26006:26010   */\n      dup2\n        /* \"#utility.yul\":26002:26022   */\n      sub\n        /* \"#utility.yul\":25998:25999   */\n      0x00\n        /* \"#utility.yul\":25987:25996   */\n      dup4\n        /* \"#utility.yul\":25983:26000   */\n      add\n        /* \"#utility.yul\":25976:26023   */\n      mstore\n        /* \"#utility.yul\":26040:26171   */\n      tag_724\n        /* \"#utility.yul\":26166:26170   */\n      dup2\n        /* \"#utility.yul\":26040:26171   */\n      tag_600\n      jump\t// in\n    tag_724:\n        /* \"#utility.yul\":26032:26171   */\n      swap1\n      pop\n        /* \"#utility.yul\":25930:26178   */\n      swap2\n      swap1\n      pop\n      jump\t// out\n        /* \"#utility.yul\":26184:26603   */\n    tag_160:\n        /* \"#utility.yul\":26350:26354   */\n      0x00\n        /* \"#utility.yul\":26388:26390   */\n      0x20\n        /* \"#utility.yul\":26377:26386   */\n      dup3\n        /* \"#utility.yul\":26373:26391   */\n      add\n        /* \"#utility.yul\":26365:26391   */\n      swap1\n      pop\n        /* \"#utility.yul\":26437:26446   */\n      dup2\n        /* \"#utility.yul\":26431:26435   */\n      dup2\n        /* \"#utility.yul\":26427:26447   */\n      sub\n        /* \"#utility.yul\":26423:26424   */\n      0x00\n        /* \"#utility.yul\":26412:26421   */\n      dup4\n        /* \"#utility.yul\":26408:26425   */\n      add\n        /* \"#utility.yul\":26401:26448   */\n      mstore\n        /* \"#utility.yul\":26465:26596   */\n      tag_726\n        /* \"#utility.yul\":26591:26595   */\n      dup2\n        /* \"#utility.yul\":26465:26596   */\n      tag_605\n      jump\t// in\n    tag_726:\n        /* \"#utility.yul\":26457:26596   */\n      swap1\n      pop\n        /* \"#utility.yul\":26355:26603   */\n      swap2\n      swap1\n      pop\n      jump\t// out\n        /* \"#utility.yul\":26609:27028   */\n    tag_399:\n        /* \"#utility.yul\":26775:26779   */\n      0x00\n        /* \"#utility.yul\":26813:26815   */\n      0x20\n        /* \"#utility.yul\":26802:26811   */\n      dup3\n        /* \"#utility.yul\":26798:26816   */\n      add\n        /* \"#utility.yul\":26790:26816   */\n      swap1\n      pop\n        /* \"#utility.yul\":26862:26871   */\n      dup2\n        /* \"#utility.yul\":26856:26860   */\n      dup2\n        /* \"#utility.yul\":26852:26872   */\n      sub\n        /* \"#utility.yul\":26848:26849   */\n      0x00\n        /* \"#utility.yul\":26837:26846   */\n      dup4\n        /* \"#utility.yul\":26833:26850   */\n      add\n        /* \"#utility.yul\":26826:26873   */\n      mstore\n        /* \"#utility.yul\":26890:27021   */\n      tag_728\n        /* \"#utility.yul\":27016:27020   */\n      dup2\n        /* \"#utility.yul\":26890:27021   */\n      tag_610\n      jump\t// in\n    tag_728:\n        /* \"#utility.yul\":26882:27021   */\n      swap1\n      pop\n        /* \"#utility.yul\":26780:27028   */\n      swap2\n      swap1\n      pop\n      jump\t// out\n        /* \"#utility.yul\":27034:27453   */\n    tag_276:\n        /* \"#utility.yul\":27200:27204   */\n      0x00\n        /* \"#utility.yul\":27238:27240   */\n      0x20\n        /* \"#utility.yul\":27227:27236   */\n      dup3\n        /* \"#utility.yul\":27223:27241   */\n      add\n        /* \"#utility.yul\":27215:27241   */\n      swap1\n      pop\n        /* \"#utility.yul\":27287:27296   */\n      dup2\n        /* \"#utility.yul\":27281:27285   */\n      dup2\n        /* \"#utility.yul\":27277:27297   */\n      sub\n        /* \"#utility.yul\":27273:27274   */\n      0x00\n        /* \"#utility.yul\":27262:27271   */\n      dup4\n        /* \"#utility.yul\":27258:27275   */\n      add\n        /* \"#utility.yul\":27251:27298   */\n      mstore\n        /* \"#utility.yul\":27315:27446   */\n      tag_730\n        /* \"#utility.yul\":27441:27445   */\n      dup2\n        /* \"#utility.yul\":27315:27446   */\n      tag_615\n      jump\t// in\n    tag_730:\n        /* \"#utility.yul\":27307:27446   */\n      swap1\n      pop\n        /* \"#utility.yul\":27205:27453   */\n      swap2\n      swap1\n      pop\n      jump\t// out\n        /* \"#utility.yul\":27459:27878   */\n    tag_214:\n        /* \"#utility.yul\":27625:27629   */\n      0x00\n        /* \"#utility.yul\":27663:27665   */\n      0x20\n        /* \"#utility.yul\":27652:27661   */\n      dup3\n        /* \"#utility.yul\":27648:27666   */\n      add\n        /* \"#utility.yul\":27640:27666   */\n      swap1\n      pop\n        /* \"#utility.yul\":27712:27721   */\n      dup2\n        /* \"#utility.yul\":27706:27710   */\n      dup2\n        /* \"#utility.yul\":27702:27722   */\n      sub\n        /* \"#utility.yul\":27698:27699   */\n      0x00\n        /* \"#utility.yul\":27687:27696   */\n      dup4\n        /* \"#utility.yul\":27683:27700   */\n      add\n        /* \"#utility.yul\":27676:27723   */\n      mstore\n        /* \"#utility.yul\":27740:27871   */\n      tag_732\n        /* \"#utility.yul\":27866:27870   */\n      dup2\n        /* \"#utility.yul\":27740:27871   */\n      tag_620\n      jump\t// in\n    tag_732:\n        /* \"#utility.yul\":27732:27871   */\n      swap1\n      pop\n        /* \"#utility.yul\":27630:27878   */\n      swap2\n      swap1\n      pop\n      jump\t// out\n        /* \"#utility.yul\":27884:28303   */\n    tag_297:\n        /* \"#utility.yul\":28050:28054   */\n      0x00\n        /* \"#utility.yul\":28088:28090   */\n      0x20\n        /* \"#utility.yul\":28077:28086   */\n      dup3\n        /* \"#utility.yul\":28073:28091   */\n      add\n        /* \"#utility.yul\":28065:28091   */\n      swap1\n      pop\n        /* \"#utility.yul\":28137:28146   */\n      dup2\n        /* \"#utility.yul\":28131:28135   */\n      dup2\n        /* \"#utility.yul\":28127:28147   */\n      sub\n        /* \"#utility.yul\":28123:28124   */\n      0x00\n        /* \"#utility.yul\":28112:28121   */\n      dup4\n        /* \"#utility.yul\":28108:28125   */\n      add\n        /* \"#utility.yul\":28101:28148   */\n      mstore\n        /* \"#utility.yul\":28165:28296   */\n      tag_734\n        /* \"#utility.yul\":28291:28295   */\n      dup2\n        /* \"#utility.yul\":28165:28296   */\n      tag_625\n      jump\t// in\n    tag_734:\n        /* \"#utility.yul\":28157:28296   */\n      swap1\n      pop\n        /* \"#utility.yul\":28055:28303   */\n      swap2\n      swap1\n      pop\n      jump\t// out\n        /* \"#utility.yul\":28309:28728   */\n    tag_418:\n        /* \"#utility.yul\":28475:28479   */\n      0x00\n        /* \"#utility.yul\":28513:28515   */\n      0x20\n        /* \"#utility.yul\":28502:28511   */\n      dup3\n        /* \"#utility.yul\":28498:28516   */\n      add\n        /* \"#utility.yul\":28490:28516   */\n      swap1\n      pop\n        /* \"#utility.yul\":28562:28571   */\n      dup2\n        /* \"#utility.yul\":28556:28560   */\n      dup2\n        /* \"#utility.yul\":28552:28572   */\n      sub\n        /* \"#utility.yul\":28548:28549   */\n      0x00\n        /* \"#utility.yul\":28537:28546   */\n      dup4\n        /* \"#utility.yul\":28533:28550   */\n      add\n        /* \"#utility.yul\":28526:28573   */\n      mstore\n        /* \"#utility.yul\":28590:28721   */\n      tag_736\n        /* \"#utility.yul\":28716:28720   */\n      dup2\n        /* \"#utility.yul\":28590:28721   */\n      tag_630\n      jump\t// in\n    tag_736:\n        /* \"#utility.yul\":28582:28721   */\n      swap1\n      pop\n        /* \"#utility.yul\":28480:28728   */\n      swap2\n      swap1\n      pop\n      jump\t// out\n        /* \"#utility.yul\":28734:29153   */\n    tag_241:\n        /* \"#utility.yul\":28900:28904   */\n      0x00\n        /* \"#utility.yul\":28938:28940   */\n      0x20\n        /* \"#utility.yul\":28927:28936   */\n      dup3\n        /* \"#utility.yul\":28923:28941   */\n      add\n        /* \"#utility.yul\":28915:28941   */\n      swap1\n      pop\n        /* \"#utility.yul\":28987:28996   */\n      dup2\n        /* \"#utility.yul\":28981:28985   */\n      dup2\n        /* \"#utility.yul\":28977:28997   */\n      sub\n        /* \"#utility.yul\":28973:28974   */\n      0x00\n        /* \"#utility.yul\":28962:28971   */\n      dup4\n        /* \"#utility.yul\":28958:28975   */\n      add\n        /* \"#utility.yul\":28951:28998   */\n      mstore\n        /* \"#utility.yul\":29015:29146   */\n      tag_738\n        /* \"#utility.yul\":29141:29145   */\n      dup2\n        /* \"#utility.yul\":29015:29146   */\n      tag_635\n      jump\t// in\n    tag_738:\n        /* \"#utility.yul\":29007:29146   */\n      swap1\n      pop\n        /* \"#utility.yul\":28905:29153   */\n      swap2\n      swap1\n      pop\n      jump\t// out\n        /* \"#utility.yul\":29159:29578   */\n    tag_383:\n        /* \"#utility.yul\":29325:29329   */\n      0x00\n        /* \"#utility.yul\":29363:29365   */\n      0x20\n        /* \"#utility.yul\":29352:29361   */\n      dup3\n        /* \"#utility.yul\":29348:29366   */\n      add\n        /* \"#utility.yul\":29340:29366   */\n      swap1\n      pop\n        /* \"#utility.yul\":29412:29421   */\n      dup2\n        /* \"#utility.yul\":29406:29410   */\n      dup2\n        /* \"#utility.yul\":29402:29422   */\n      sub\n        /* \"#utility.yul\":29398:29399   */\n      0x00\n        /* \"#utility.yul\":29387:29396   */\n      dup4\n        /* \"#utility.yul\":29383:29400   */\n      add\n        /* \"#utility.yul\":29376:29423   */\n      mstore\n        /* \"#utility.yul\":29440:29571   */\n      tag_740\n        /* \"#utility.yul\":29566:29570   */\n      dup2\n        /* \"#utility.yul\":29440:29571   */\n      tag_640\n      jump\t// in\n    tag_740:\n        /* \"#utility.yul\":29432:29571   */\n      swap1\n      pop\n        /* \"#utility.yul\":29330:29578   */\n      swap2\n      swap1\n      pop\n      jump\t// out\n        /* \"#utility.yul\":29584:30003   */\n    tag_294:\n        /* \"#utility.yul\":29750:29754   */\n      0x00\n        /* \"#utility.yul\":29788:29790   */\n      0x20\n        /* \"#utility.yul\":29777:29786   */\n      dup3\n        /* \"#utility.yul\":29773:29791   */\n      add\n        /* \"#utility.yul\":29765:29791   */\n      swap1\n      pop\n        /* \"#utility.yul\":29837:29846   */\n      dup2\n        /* \"#utility.yul\":29831:29835   */\n      dup2\n        /* \"#utility.yul\":29827:29847   */\n      sub\n        /* \"#utility.yul\":29823:29824   */\n      0x00\n        /* \"#utility.yul\":29812:29821   */\n      dup4\n        /* \"#utility.yul\":29808:29825   */\n      add\n        /* \"#utility.yul\":29801:29848   */\n      mstore\n        /* \"#utility.yul\":29865:29996   */\n      tag_742\n        /* \"#utility.yul\":29991:29995   */\n      dup2\n        /* \"#utility.yul\":29865:29996   */\n      tag_645\n      jump\t// in\n    tag_742:\n        /* \"#utility.yul\":29857:29996   */\n      swap1\n      pop\n        /* \"#utility.yul\":29755:30003   */\n      swap2\n      swap1\n      pop\n      jump\t// out\n        /* \"#utility.yul\":30009:30428   */\n    tag_237:\n        /* \"#utility.yul\":30175:30179   */\n      0x00\n        /* \"#utility.yul\":30213:30215   */\n      0x20\n        /* \"#utility.yul\":30202:30211   */\n      dup3\n        /* \"#utility.yul\":30198:30216   */\n      add\n        /* \"#utility.yul\":30190:30216   */\n      swap1\n      pop\n        /* \"#utility.yul\":30262:30271   */\n      dup2\n        /* \"#utility.yul\":30256:30260   */\n      dup2\n        /* \"#utility.yul\":30252:30272   */\n      sub\n        /* \"#utility.yul\":30248:30249   */\n      0x00\n        /* \"#utility.yul\":30237:30246   */\n      dup4\n        /* \"#utility.yul\":30233:30250   */\n      add\n        /* \"#utility.yul\":30226:30273   */\n      mstore\n        /* \"#utility.yul\":30290:30421   */\n      tag_744\n        /* \"#utility.yul\":30416:30420   */\n      dup2\n        /* \"#utility.yul\":30290:30421   */\n      tag_650\n      jump\t// in\n    tag_744:\n        /* \"#utility.yul\":30282:30421   */\n      swap1\n      pop\n        /* \"#utility.yul\":30180:30428   */\n      swap2\n      swap1\n      pop\n      jump\t// out\n        /* \"#utility.yul\":30434:30853   */\n    tag_332:\n        /* \"#utility.yul\":30600:30604   */\n      0x00\n        /* \"#utility.yul\":30638:30640   */\n      0x20\n        /* \"#utility.yul\":30627:30636   */\n      dup3\n        /* \"#utility.yul\":30623:30641   */\n      add\n        /* \"#utility.yul\":30615:30641   */\n      swap1\n      pop\n        /* \"#utility.yul\":30687:30696   */\n      dup2\n        /* \"#utility.yul\":30681:30685   */\n      dup2\n        /* \"#utility.yul\":30677:30697   */\n      sub\n        /* \"#utility.yul\":30673:30674   */\n      0x00\n        /* \"#utility.yul\":30662:30671   */\n      dup4\n        /* \"#utility.yul\":30658:30675   */\n      add\n        /* \"#utility.yul\":30651:30698   */\n      mstore\n        /* \"#utility.yul\":30715:30846   */\n      tag_746\n        /* \"#utility.yul\":30841:30845   */\n      dup2\n        /* \"#utility.yul\":30715:30846   */\n      tag_655\n      jump\t// in\n    tag_746:\n        /* \"#utility.yul\":30707:30846   */\n      swap1\n      pop\n        /* \"#utility.yul\":30605:30853   */\n      swap2\n      swap1\n      pop\n      jump\t// out\n        /* \"#utility.yul\":30859:31225   */\n    tag_70:\n        /* \"#utility.yul\":31024:31028   */\n      0x00\n        /* \"#utility.yul\":31062:31064   */\n      0x40\n        /* \"#utility.yul\":31051:31060   */\n      dup3\n        /* \"#utility.yul\":31047:31065   */\n      add\n        /* \"#utility.yul\":31039:31065   */\n      swap1\n      pop\n        /* \"#utility.yul\":31075:31218   */\n      tag_748\n        /* \"#utility.yul\":31215:31216   */\n      0x00\n        /* \"#utility.yul\":31204:31213   */\n      dup4\n        /* \"#utility.yul\":31200:31217   */\n      add\n        /* \"#utility.yul\":31191:31197   */\n      dup5\n        /* \"#utility.yul\":31075:31218   */\n      tag_664\n      jump\t// in\n    tag_748:\n        /* \"#utility.yul\":31029:31225   */\n      swap3\n      swap2\n      pop\n      pop\n      jump\t// out\n        /* \"#utility.yul\":31231:31592   */\n    tag_29:\n        /* \"#utility.yul\":31368:31372   */\n      0x00\n        /* \"#utility.yul\":31406:31408   */\n      0x20\n        /* \"#utility.yul\":31395:31404   */\n      dup3\n        /* \"#utility.yul\":31391:31409   */\n      add\n        /* \"#utility.yul\":31383:31409   */\n      swap1\n      pop\n        /* \"#utility.yul\":31455:31464   */\n      dup2\n        /* \"#utility.yul\":31449:31453   */\n      dup2\n        /* \"#utility.yul\":31445:31465   */\n      sub\n        /* \"#utility.yul\":31441:31442   */\n      0x00\n        /* \"#utility.yul\":31430:31439   */\n      dup4\n        /* \"#utility.yul\":31426:31443   */\n      add\n        /* \"#utility.yul\":31419:31466   */\n      mstore\n        /* \"#utility.yul\":31483:31585   */\n      tag_750\n        /* \"#utility.yul\":31580:31584   */\n      dup2\n        /* \"#utility.yul\":31571:31577   */\n      dup5\n        /* \"#utility.yul\":31483:31585   */\n      tag_677\n      jump\t// in\n    tag_750:\n        /* \"#utility.yul\":31475:31585   */\n      swap1\n      pop\n        /* \"#utility.yul\":31373:31592   */\n      swap3\n      swap2\n      pop\n      pop\n      jump\t// out\n        /* \"#utility.yul\":31598:31820   */\n    tag_43:\n        /* \"#utility.yul\":31691:31695   */\n      0x00\n        /* \"#utility.yul\":31729:31731   */\n      0x20\n        /* \"#utility.yul\":31718:31727   */\n      dup3\n        /* \"#utility.yul\":31714:31732   */\n      add\n        /* \"#utility.yul\":31706:31732   */\n      swap1\n      pop\n        /* \"#utility.yul\":31742:31813   */\n      tag_752\n        /* \"#utility.yul\":31810:31811   */\n      0x00\n        /* \"#utility.yul\":31799:31808   */\n      dup4\n        /* \"#utility.yul\":31795:31812   */\n      add\n        /* \"#utility.yul\":31786:31792   */\n      dup5\n        /* \"#utility.yul\":31742:31813   */\n      tag_690\n      jump\t// in\n    tag_752:\n        /* \"#utility.yul\":31696:31820   */\n      swap3\n      swap2\n      pop\n      pop\n      jump\t// out\n        /* \"#utility.yul\":31826:32268   */\n    tag_166:\n        /* \"#utility.yul\":31975:31979   */\n      0x00\n        /* \"#utility.yul\":32013:32015   */\n      0x60\n        /* \"#utility.yul\":32002:32011   */\n      dup3\n        /* \"#utility.yul\":31998:32016   */\n      add\n        /* \"#utility.yul\":31990:32016   */\n      swap1\n      pop\n        /* \"#utility.yul\":32026:32097   */\n      tag_754\n        /* \"#utility.yul\":32094:32095   */\n      0x00\n        /* \"#utility.yul\":32083:32092   */\n      dup4\n        /* \"#utility.yul\":32079:32096   */\n      add\n        /* \"#utility.yul\":32070:32076   */\n      dup7\n        /* \"#utility.yul\":32026:32097   */\n      tag_690\n      jump\t// in\n    tag_754:\n        /* \"#utility.yul\":32107:32179   */\n      tag_755\n        /* \"#utility.yul\":32175:32177   */\n      0x20\n        /* \"#utility.yul\":32164:32173   */\n      dup4\n        /* \"#utility.yul\":32160:32178   */\n      add\n        /* \"#utility.yul\":32151:32157   */\n      dup6\n        /* \"#utility.yul\":32107:32179   */\n      tag_526\n      jump\t// in\n    tag_755:\n        /* \"#utility.yul\":32189:32261   */\n      tag_756\n        /* \"#utility.yul\":32257:32259   */\n      0x40\n        /* \"#utility.yul\":32246:32255   */\n      dup4\n        /* \"#utility.yul\":32242:32260   */\n      add\n        /* \"#utility.yul\":32233:32239   */\n      dup5\n        /* \"#utility.yul\":32189:32261   */\n      tag_526\n      jump\t// in\n    tag_756:\n        /* \"#utility.yul\":31980:32268   */\n      swap5\n      swap4\n      pop\n      pop\n      pop\n      pop\n      jump\t// out\n        /* \"#utility.yul\":32274:32403   */\n    tag_444:\n        /* \"#utility.yul\":32308:32314   */\n      0x00\n        /* \"#utility.yul\":32335:32355   */\n      tag_758\n      tag_759\n      jump\t// in\n    tag_758:\n        /* \"#utility.yul\":32325:32355   */\n      swap1\n      pop\n        /* \"#utility.yul\":32364:32397   */\n      tag_760\n        /* \"#utility.yul\":32392:32396   */\n      dup3\n        /* \"#utility.yul\":32384:32390   */\n      dup3\n        /* \"#utility.yul\":32364:32397   */\n      tag_761\n      jump\t// in\n    tag_760:\n        /* \"#utility.yul\":32315:32403   */\n      swap2\n      swap1\n      pop\n      jump\t// out\n        /* \"#utility.yul\":32409:32484   */\n    tag_759:\n        /* \"#utility.yul\":32442:32448   */\n      0x00\n        /* \"#utility.yul\":32475:32477   */\n      0x40\n        /* \"#utility.yul\":32469:32478   */\n      mload\n        /* \"#utility.yul\":32459:32478   */\n      swap1\n      pop\n        /* \"#utility.yul\":32449:32484   */\n      swap1\n      jump\t// out\n        /* \"#utility.yul\":32490:32798   */\n    tag_443:\n        /* \"#utility.yul\":32552:32556   */\n      0x00\n        /* \"#utility.yul\":32642:32660   */\n      0xffffffffffffffff\n        /* \"#utility.yul\":32634:32640   */\n      dup3\n        /* \"#utility.yul\":32631:32661   */\n      gt\n        /* \"#utility.yul\":32628:32630   */\n      iszero\n      tag_764\n      jumpi\n        /* \"#utility.yul\":32664:32682   */\n      tag_765\n      tag_766\n      jump\t// in\n    tag_765:\n        /* \"#utility.yul\":32628:32630   */\n    tag_764:\n        /* \"#utility.yul\":32702:32731   */\n      tag_767\n        /* \"#utility.yul\":32724:32730   */\n      dup3\n        /* \"#utility.yul\":32702:32731   */\n      tag_577\n      jump\t// in\n    tag_767:\n        /* \"#utility.yul\":32694:32731   */\n      swap1\n      pop\n        /* \"#utility.yul\":32786:32790   */\n      0x20\n        /* \"#utility.yul\":32780:32784   */\n      dup2\n        /* \"#utility.yul\":32776:32791   */\n      add\n        /* \"#utility.yul\":32768:32791   */\n      swap1\n      pop\n        /* \"#utility.yul\":32557:32798   */\n      swap2\n      swap1\n      pop\n      jump\t// out\n        /* \"#utility.yul\":32804:32972   */\n    tag_536:\n        /* \"#utility.yul\":32907:32911   */\n      0x00\n        /* \"#utility.yul\":32930:32933   */\n      dup2\n        /* \"#utility.yul\":32922:32933   */\n      swap1\n      pop\n        /* \"#utility.yul\":32960:32964   */\n      0x20\n        /* \"#utility.yul\":32955:32958   */\n      dup3\n        /* \"#utility.yul\":32951:32965   */\n      add\n        /* \"#utility.yul\":32943:32965   */\n      swap1\n      pop\n        /* \"#utility.yul\":32912:32972   */\n      swap2\n      swap1\n      pop\n      jump\t// out\n        /* \"#utility.yul\":32978:33132   */\n    tag_550:\n        /* \"#utility.yul\":33067:33071   */\n      0x00\n        /* \"#utility.yul\":33090:33093   */\n      dup2\n        /* \"#utility.yul\":33082:33093   */\n      swap1\n      pop\n        /* \"#utility.yul\":33120:33124   */\n      0x20\n        /* \"#utility.yul\":33115:33118   */\n      dup3\n        /* \"#utility.yul\":33111:33125   */\n      add\n        /* \"#utility.yul\":33103:33125   */\n      swap1\n      pop\n        /* \"#utility.yul\":33072:33132   */\n      swap2\n      swap1\n      pop\n      jump\t// out\n        /* \"#utility.yul\":33138:33288   */\n    tag_532:\n        /* \"#utility.yul\":33241:33247   */\n      0x00\n        /* \"#utility.yul\":33275:33280   */\n      dup2\n        /* \"#utility.yul\":33269:33281   */\n      mload\n        /* \"#utility.yul\":33259:33281   */\n      swap1\n      pop\n        /* \"#utility.yul\":33248:33288   */\n      swap2\n      swap1\n      pop\n      jump\t// out\n        /* \"#utility.yul\":33294:33430   */\n    tag_546:\n        /* \"#utility.yul\":33383:33389   */\n      0x00\n        /* \"#utility.yul\":33417:33422   */\n      dup2\n        /* \"#utility.yul\":33411:33423   */\n      mload\n        /* \"#utility.yul\":33401:33423   */\n      swap1\n      pop\n        /* \"#utility.yul\":33390:33430   */\n      swap2\n      swap1\n      pop\n      jump\t// out\n        /* \"#utility.yul\":33436:33534   */\n    tag_564:\n        /* \"#utility.yul\":33487:33493   */\n      0x00\n        /* \"#utility.yul\":33521:33526   */\n      dup2\n        /* \"#utility.yul\":33515:33527   */\n      mload\n        /* \"#utility.yul\":33505:33527   */\n      swap1\n      pop\n        /* \"#utility.yul\":33494:33534   */\n      swap2\n      swap1\n      pop\n      jump\t// out\n        /* \"#utility.yul\":33540:33639   */\n    tag_572:\n        /* \"#utility.yul\":33592:33598   */\n      0x00\n        /* \"#utility.yul\":33626:33631   */\n      dup2\n        /* \"#utility.yul\":33620:33632   */\n      mload\n        /* \"#utility.yul\":33610:33632   */\n      swap1\n      pop\n        /* \"#utility.yul\":33599:33639   */\n      swap2\n      swap1\n      pop\n      jump\t// out\n        /* \"#utility.yul\":33645:33794   */\n    tag_542:\n        /* \"#utility.yul\":33751:33755   */\n      0x00\n        /* \"#utility.yul\":33783:33787   */\n      0x20\n        /* \"#utility.yul\":33778:33781   */\n      dup3\n        /* \"#utility.yul\":33774:33788   */\n      add\n        /* \"#utility.yul\":33766:33788   */\n      swap1\n      pop\n        /* \"#utility.yul\":33756:33794   */\n      swap2\n      swap1\n      pop\n      jump\t// out\n        /* \"#utility.yul\":33800:33935   */\n    tag_556:\n        /* \"#utility.yul\":33892:33896   */\n      0x00\n        /* \"#utility.yul\":33924:33928   */\n      0x20\n        /* \"#utility.yul\":33919:33922   */\n      dup3\n        /* \"#utility.yul\":33915:33929   */\n      add\n        /* \"#utility.yul\":33907:33929   */\n      swap1\n      pop\n        /* \"#utility.yul\":33897:33935   */\n      swap2\n      swap1\n      pop\n      jump\t// out\n        /* \"#utility.yul\":33941:34161   */\n    tag_534:\n        /* \"#utility.yul\":34076:34087   */\n      0x00\n        /* \"#utility.yul\":34110:34116   */\n      dup3\n        /* \"#utility.yul\":34105:34108   */\n      dup3\n        /* \"#utility.yul\":34098:34117   */\n      mstore\n        /* \"#utility.yul\":34150:34154   */\n      0x20\n        /* \"#utility.yul\":34145:34148   */\n      dup3\n        /* \"#utility.yul\":34141:34155   */\n      add\n        /* \"#utility.yul\":34126:34155   */\n      swap1\n      pop\n        /* \"#utility.yul\":34088:34161   */\n      swap3\n      swap2\n      pop\n      pop\n      jump\t// out\n        /* \"#utility.yul\":34167:34373   */\n    tag_548:\n        /* \"#utility.yul\":34288:34299   */\n      0x00\n        /* \"#utility.yul\":34322:34328   */\n      dup3\n        /* \"#utility.yul\":34317:34320   */\n      dup3\n        /* \"#utility.yul\":34310:34329   */\n      mstore\n        /* \"#utility.yul\":34362:34366   */\n      0x20\n        /* \"#utility.yul\":34357:34360   */\n      dup3\n        /* \"#utility.yul\":34353:34367   */\n      add\n        /* \"#utility.yul\":34338:34367   */\n      swap1\n      pop\n        /* \"#utility.yul\":34300:34373   */\n      swap3\n      swap2\n      pop\n      pop\n      jump\t// out\n        /* \"#utility.yul\":34379:34526   */\n    tag_566:\n        /* \"#utility.yul\":34480:34491   */\n      0x00\n        /* \"#utility.yul\":34517:34520   */\n      dup2\n        /* \"#utility.yul\":34502:34520   */\n      swap1\n      pop\n        /* \"#utility.yul\":34492:34526   */\n      swap3\n      swap2\n      pop\n      pop\n      jump\t// out\n        /* \"#utility.yul\":34532:34691   */\n    tag_574:\n        /* \"#utility.yul\":34606:34617   */\n      0x00\n        /* \"#utility.yul\":34640:34646   */\n      dup3\n        /* \"#utility.yul\":34635:34638   */\n      dup3\n        /* \"#utility.yul\":34628:34647   */\n      mstore\n        /* \"#utility.yul\":34680:34684   */\n      0x20\n        /* \"#utility.yul\":34675:34678   */\n      dup3\n        /* \"#utility.yul\":34671:34685   */\n      add\n        /* \"#utility.yul\":34656:34685   */\n      swap1\n      pop\n        /* \"#utility.yul\":34618:34691   */\n      swap3\n      swap2\n      pop\n      pop\n      jump\t// out\n        /* \"#utility.yul\":34697:34866   */\n    tag_582:\n        /* \"#utility.yul\":34781:34792   */\n      0x00\n        /* \"#utility.yul\":34815:34821   */\n      dup3\n        /* \"#utility.yul\":34810:34813   */\n      dup3\n        /* \"#utility.yul\":34803:34822   */\n      mstore\n        /* \"#utility.yul\":34855:34859   */\n      0x20\n        /* \"#utility.yul\":34850:34853   */\n      dup3\n        /* \"#utility.yul\":34846:34860   */\n      add\n        /* \"#utility.yul\":34831:34860   */\n      swap1\n      pop\n        /* \"#utility.yul\":34793:34866   */\n      swap3\n      swap2\n      pop\n      pop\n      jump\t// out\n        /* \"#utility.yul\":34872:35177   */\n    tag_135:\n        /* \"#utility.yul\":34912:34915   */\n      0x00\n        /* \"#utility.yul\":34931:34951   */\n      tag_782\n        /* \"#utility.yul\":34949:34950   */\n      dup3\n        /* \"#utility.yul\":34931:34951   */\n      tag_689\n      jump\t// in\n    tag_782:\n        /* \"#utility.yul\":34926:34951   */\n      swap2\n      pop\n        /* \"#utility.yul\":34965:34985   */\n      tag_783\n        /* \"#utility.yul\":34983:34984   */\n      dup4\n        /* \"#utility.yul\":34965:34985   */\n      tag_689\n      jump\t// in\n    tag_783:\n        /* \"#utility.yul\":34960:34985   */\n      swap3\n      pop\n        /* \"#utility.yul\":35119:35120   */\n      dup3\n        /* \"#utility.yul\":35051:35117   */\n      0xffffffffffffffffffffffffffffffffffffffffffffffffffffffffffffffff\n        /* \"#utility.yul\":35047:35121   */\n      sub\n        /* \"#utility.yul\":35044:35045   */\n      dup3\n        /* \"#utility.yul\":35041:35122   */\n      gt\n        /* \"#utility.yul\":35038:35040   */\n      iszero\n      tag_784\n      jumpi\n        /* \"#utility.yul\":35125:35143   */\n      tag_785\n      tag_786\n      jump\t// in\n    tag_785:\n        /* \"#utility.yul\":35038:35040   */\n    tag_784:\n        /* \"#utility.yul\":35169:35170   */\n      dup3\n        /* \"#utility.yul\":35166:35167   */\n      dup3\n        /* \"#utility.yul\":35162:35171   */\n      add\n        /* \"#utility.yul\":35155:35171   */\n      swap1\n      pop\n        /* \"#utility.yul\":34916:35177   */\n      swap3\n      swap2\n      pop\n      pop\n      jump\t// out\n        /* \"#utility.yul\":35183:35374   */\n    tag_132:\n        /* \"#utility.yul\":35223:35227   */\n      0x00\n        /* \"#utility.yul\":35243:35263   */\n      tag_788\n        /* \"#utility.yul\":35261:35262   */\n      dup3\n        /* \"#utility.yul\":35243:35263   */\n      tag_689\n      jump\t// in\n    tag_788:\n        /* \"#utility.yul\":35238:35263   */\n      swap2\n      pop\n        /* \"#utility.yul\":35277:35297   */\n      tag_789\n        /* \"#utility.yul\":35295:35296   */\n      dup4\n        /* \"#utility.yul\":35277:35297   */\n      tag_689\n      jump\t// in\n    tag_789:\n        /* \"#utility.yul\":35272:35297   */\n      swap3\n      pop\n        /* \"#utility.yul\":35316:35317   */\n      dup3\n        /* \"#utility.yul\":35313:35314   */\n      dup3\n        /* \"#utility.yul\":35310:35318   */\n      lt\n        /* \"#utility.yul\":35307:35309   */\n      iszero\n      tag_790\n      jumpi\n        /* \"#utility.yul\":35321:35339   */\n      tag_791\n      tag_786\n      jump\t// in\n    tag_791:\n        /* \"#utility.yul\":35307:35309   */\n    tag_790:\n        /* \"#utility.yul\":35366:35367   */\n      dup3\n        /* \"#utility.yul\":35363:35364   */\n      dup3\n        /* \"#utility.yul\":35359:35368   */\n      sub\n        /* \"#utility.yul\":35351:35368   */\n      swap1\n      pop\n        /* \"#utility.yul\":35228:35374   */\n      swap3\n      swap2\n      pop\n      pop\n      jump\t// out\n        /* \"#utility.yul\":35380:35476   */\n    tag_525:\n        /* \"#utility.yul\":35417:35424   */\n      0x00\n        /* \"#utility.yul\":35446:35470   */\n      tag_793\n        /* \"#utility.yul\":35464:35469   */\n      dup3\n        /* \"#utility.yul\":35446:35470   */\n      tag_794\n      jump\t// in\n    tag_793:\n        /* \"#utility.yul\":35435:35470   */\n      swap1\n      pop\n        /* \"#utility.yul\":35425:35476   */\n      swap2\n      swap1\n      pop\n      jump\t// out\n        /* \"#utility.yul\":35482:35572   */\n    tag_560:\n        /* \"#utility.yul\":35516:35523   */\n      0x00\n        /* \"#utility.yul\":35559:35564   */\n      dup2\n        /* \"#utility.yul\":35552:35565   */\n      iszero\n        /* \"#utility.yul\":35545:35566   */\n      iszero\n        /* \"#utility.yul\":35534:35566   */\n      swap1\n      pop\n        /* \"#utility.yul\":35524:35572   */\n      swap2\n      swap1\n      pop\n      jump\t// out\n        /* \"#utility.yul\":35578:35704   */\n    tag_794:\n        /* \"#utility.yul\":35615:35622   */\n      0x00\n        /* \"#utility.yul\":35655:35697   */\n      0xffffffffffffffffffffffffffffffffffffffff\n        /* \"#utility.yul\":35648:35653   */\n      dup3\n        /* \"#utility.yul\":35644:35698   */\n      and\n        /* \"#utility.yul\":35633:35698   */\n      swap1\n      pop\n        /* \"#utility.yul\":35623:35704   */\n      swap2\n      swap1\n      pop\n      jump\t// out\n        /* \"#utility.yul\":35710:35787   */\n    tag_689:\n        /* \"#utility.yul\":35747:35754   */\n      0x00\n        /* \"#utility.yul\":35776:35781   */\n      dup2\n        /* \"#utility.yul\":35765:35781   */\n      swap1\n      pop\n        /* \"#utility.yul\":35755:35787   */\n      swap2\n      swap1\n      pop\n      jump\t// out\n        /* \"#utility.yul\":35793:35947   */\n    tag_447:\n        /* \"#utility.yul\":35877:35883   */\n      dup3\n        /* \"#utility.yul\":35872:35875   */\n      dup2\n        /* \"#utility.yul\":35867:35870   */\n      dup4\n        /* \"#utility.yul\":35854:35884   */\n      calldatacopy\n        /* \"#utility.yul\":35939:35940   */\n      0x00\n        /* \"#utility.yul\":35930:35936   */\n      dup4\n        /* \"#utility.yul\":35925:35928   */\n      dup4\n        /* \"#utility.yul\":35921:35937   */\n      add\n        /* \"#utility.yul\":35914:35941   */\n      mstore\n        /* \"#utility.yul\":35844:35947   */\n      pop\n      pop\n      pop\n      jump\t// out\n        /* \"#utility.yul\":35953:36260   */\n    tag_568:\n        /* \"#utility.yul\":36021:36022   */\n      0x00\n        /* \"#utility.yul\":36031:36144   */\n    tag_800:\n        /* \"#utility.yul\":36045:36051   */\n      dup4\n        /* \"#utility.yul\":36042:36043   */\n      dup2\n        /* \"#utility.yul\":36039:36052   */\n      lt\n        /* \"#utility.yul\":36031:36144   */\n      iszero\n      tag_802\n      jumpi\n        /* \"#utility.yul\":36130:36131   */\n      dup1\n        /* \"#utility.yul\":36125:36128   */\n      dup3\n        /* \"#utility.yul\":36121:36132   */\n      add\n        /* \"#utility.yul\":36115:36133   */\n      mload\n        /* \"#utility.yul\":36111:36112   */\n      dup2\n        /* \"#utility.yul\":36106:36109   */\n      dup5\n        /* \"#utility.yul\":36102:36113   */\n      add\n        /* \"#utility.yul\":36095:36134   */\n      mstore\n        /* \"#utility.yul\":36067:36069   */\n      0x20\n        /* \"#utility.yul\":36064:36065   */\n      dup2\n        /* \"#utility.yul\":36060:36070   */\n      add\n        /* \"#utility.yul\":36055:36070   */\n      swap1\n      pop\n        /* \"#utility.yul\":36031:36144   */\n      jump(tag_800)\n    tag_802:\n        /* \"#utility.yul\":36162:36168   */\n      dup4\n        /* \"#utility.yul\":36159:36160   */\n      dup2\n        /* \"#utility.yul\":36156:36169   */\n      gt\n        /* \"#utility.yul\":36153:36155   */\n      iszero\n      tag_803\n      jumpi\n        /* \"#utility.yul\":36242:36243   */\n      0x00\n        /* \"#utility.yul\":36233:36239   */\n      dup5\n        /* \"#utility.yul\":36228:36231   */\n      dup5\n        /* \"#utility.yul\":36224:36240   */\n      add\n        /* \"#utility.yul\":36217:36244   */\n      mstore\n        /* \"#utility.yul\":36153:36155   */\n    tag_803:\n        /* \"#utility.yul\":36002:36260   */\n      pop\n      pop\n      pop\n      pop\n      jump\t// out\n        /* \"#utility.yul\":36266:36586   */\n    tag_112:\n        /* \"#utility.yul\":36310:36316   */\n      0x00\n        /* \"#utility.yul\":36347:36348   */\n      0x02\n        /* \"#utility.yul\":36341:36345   */\n      dup3\n        /* \"#utility.yul\":36337:36349   */\n      div\n        /* \"#utility.yul\":36327:36349   */\n      swap1\n      pop\n        /* \"#utility.yul\":36394:36395   */\n      0x01\n        /* \"#utility.yul\":36388:36392   */\n      dup3\n        /* \"#utility.yul\":36384:36396   */\n      and\n        /* \"#utility.yul\":36415:36433   */\n      dup1\n        /* \"#utility.yul\":36405:36407   */\n      tag_805\n      jumpi\n        /* \"#utility.yul\":36471:36475   */\n      0x7f\n        /* \"#utility.yul\":36463:36469   */\n      dup3\n        /* \"#utility.yul\":36459:36476   */\n      and\n        /* \"#utility.yul\":36449:36476   */\n      swap2\n      pop\n        /* \"#utility.yul\":36405:36407   */\n    tag_805:\n        /* \"#utility.yul\":36533:36535   */\n      0x20\n        /* \"#utility.yul\":36525:36531   */\n      dup3\n        /* \"#utility.yul\":36522:36536   */\n      lt\n        /* \"#utility.yul\":36502:36520   */\n      dup2\n        /* \"#utility.yul\":36499:36537   */\n      eq\n        /* \"#utility.yul\":36496:36498   */\n      iszero\n      tag_806\n      jumpi\n        /* \"#utility.yul\":36552:36570   */\n      tag_807\n      tag_808\n      jump\t// in\n    tag_807:\n        /* \"#utility.yul\":36496:36498   */\n    tag_806:\n        /* \"#utility.yul\":36317:36586   */\n      pop\n      swap2\n      swap1\n      pop\n      jump\t// out\n        /* \"#utility.yul\":36592:36873   */\n    tag_761:\n        /* \"#utility.yul\":36675:36702   */\n      tag_810\n        /* \"#utility.yul\":36697:36701   */\n      dup3\n        /* \"#utility.yul\":36675:36702   */\n      tag_577\n      jump\t// in\n    tag_810:\n        /* \"#utility.yul\":36667:36673   */\n      dup2\n        /* \"#utility.yul\":36663:36703   */\n      add\n        /* \"#utility.yul\":36805:36811   */\n      dup2\n        /* \"#utility.yul\":36793:36803   */\n      dup2\n        /* \"#utility.yul\":36790:36812   */\n      lt\n        /* \"#utility.yul\":36769:36787   */\n      0xffffffffffffffff\n        /* \"#utility.yul\":36757:36767   */\n      dup3\n        /* \"#utility.yul\":36754:36788   */\n      gt\n        /* \"#utility.yul\":36751:36813   */\n      or\n        /* \"#utility.yul\":36748:36750   */\n      iszero\n      tag_811\n      jumpi\n        /* \"#utility.yul\":36816:36834   */\n      tag_812\n      tag_766\n      jump\t// in\n    tag_812:\n        /* \"#utility.yul\":36748:36750   */\n    tag_811:\n        /* \"#utility.yul\":36856:36866   */\n      dup1\n        /* \"#utility.yul\":36852:36854   */\n      0x40\n        /* \"#utility.yul\":36845:36867   */\n      mstore\n        /* \"#utility.yul\":36635:36873   */\n      pop\n      pop\n      pop\n      jump\t// out\n        /* \"#utility.yul\":36879:37112   */\n    tag_148:\n        /* \"#utility.yul\":36918:36921   */\n      0x00\n        /* \"#utility.yul\":36941:36965   */\n      tag_814\n        /* \"#utility.yul\":36959:36964   */\n      dup3\n        /* \"#utility.yul\":36941:36965   */\n      tag_689\n      jump\t// in\n    tag_814:\n        /* \"#utility.yul\":36932:36965   */\n      swap2\n      pop\n        /* \"#utility.yul\":36987:37053   */\n      0xffffffffffffffffffffffffffffffffffffffffffffffffffffffffffffffff\n        /* \"#utility.yul\":36980:36985   */\n      dup3\n        /* \"#utility.yul\":36977:37054   */\n      eq\n        /* \"#utility.yul\":36974:36976   */\n      iszero\n      tag_815\n      jumpi\n        /* \"#utility.yul\":37057:37075   */\n      tag_816\n      tag_786\n      jump\t// in\n    tag_816:\n        /* \"#utility.yul\":36974:36976   */\n    tag_815:\n        /* \"#utility.yul\":37104:37105   */\n      0x01\n        /* \"#utility.yul\":37097:37102   */\n      dup3\n        /* \"#utility.yul\":37093:37106   */\n      add\n        /* \"#utility.yul\":37086:37106   */\n      swap1\n      pop\n        /* \"#utility.yul\":36922:37112   */\n      swap2\n      swap1\n      pop\n      jump\t// out\n        /* \"#utility.yul\":37118:37298   */\n    tag_786:\n        /* \"#utility.yul\":37166:37243   */\n      0x4e487b7100000000000000000000000000000000000000000000000000000000\n        /* \"#utility.yul\":37163:37164   */\n      0x00\n        /* \"#utility.yul\":37156:37244   */\n      mstore\n        /* \"#utility.yul\":37263:37267   */\n      0x11\n        /* \"#utility.yul\":37260:37261   */\n      0x04\n        /* \"#utility.yul\":37253:37268   */\n      mstore\n        /* \"#utility.yul\":37287:37291   */\n      0x24\n        /* \"#utility.yul\":37284:37285   */\n      0x00\n        /* \"#utility.yul\":37277:37292   */\n      revert\n        /* \"#utility.yul\":37304:37484   */\n    tag_808:\n        /* \"#utility.yul\":37352:37429   */\n      0x4e487b7100000000000000000000000000000000000000000000000000000000\n        /* \"#utility.yul\":37349:37350   */\n      0x00\n        /* \"#utility.yul\":37342:37430   */\n      mstore\n        /* \"#utility.yul\":37449:37453   */\n      0x22\n        /* \"#utility.yul\":37446:37447   */\n      0x04\n        /* \"#utility.yul\":37439:37454   */\n      mstore\n        /* \"#utility.yul\":37473:37477   */\n      0x24\n        /* \"#utility.yul\":37470:37471   */\n      0x00\n        /* \"#utility.yul\":37463:37478   */\n      revert\n        /* \"#utility.yul\":37490:37670   */\n    tag_766:\n        /* \"#utility.yul\":37538:37615   */\n      0x4e487b7100000000000000000000000000000000000000000000000000000000\n        /* \"#utility.yul\":37535:37536   */\n      0x00\n        /* \"#utility.yul\":37528:37616   */\n      mstore\n        /* \"#utility.yul\":37635:37639   */\n      0x41\n        /* \"#utility.yul\":37632:37633   */\n      0x04\n        /* \"#utility.yul\":37625:37640   */\n      mstore\n        /* \"#utility.yul\":37659:37663   */\n      0x24\n        /* \"#utility.yul\":37656:37657   */\n      0x00\n        /* \"#utility.yul\":37649:37664   */\n      revert\n        /* \"#utility.yul\":37676:37778   */\n    tag_577:\n        /* \"#utility.yul\":37717:37723   */\n      0x00\n        /* \"#utility.yul\":37768:37770   */\n      0x1f\n        /* \"#utility.yul\":37764:37771   */\n      not\n        /* \"#utility.yul\":37759:37761   */\n      0x1f\n        /* \"#utility.yul\":37752:37757   */\n      dup4\n        /* \"#utility.yul\":37748:37762   */\n      add\n        /* \"#utility.yul\":37744:37772   */\n      and\n        /* \"#utility.yul\":37734:37772   */\n      swap1\n      pop\n        /* \"#utility.yul\":37724:37778   */\n      swap2\n      swap1\n      pop\n      jump\t// out\n        /* \"#utility.yul\":37784:37951   */\n    tag_589:\n        /* \"#utility.yul\":37924:37943   */\n      0x4c6f636b2077617320756e6c6f636b6564000000000000000000000000000000\n        /* \"#utility.yul\":37920:37921   */\n      0x00\n        /* \"#utility.yul\":37912:37918   */\n      dup3\n        /* \"#utility.yul\":37908:37922   */\n      add\n        /* \"#utility.yul\":37901:37944   */\n      mstore\n        /* \"#utility.yul\":37890:37951   */\n      pop\n      jump\t// out\n        /* \"#utility.yul\":37957:38179   */\n    tag_594:\n        /* \"#utility.yul\":38097:38131   */\n      0x556e6c6f636b20646174652073686f756c6420626520696e2074686520667574\n        /* \"#utility.yul\":38093:38094   */\n      0x00\n        /* \"#utility.yul\":38085:38091   */\n      dup3\n        /* \"#utility.yul\":38081:38095   */\n      add\n        /* \"#utility.yul\":38074:38132   */\n      mstore\n        /* \"#utility.yul\":38166:38171   */\n      0x7572650000000000000000000000000000000000000000000000000000000000\n        /* \"#utility.yul\":38161:38163   */\n      0x20\n        /* \"#utility.yul\":38153:38159   */\n      dup3\n        /* \"#utility.yul\":38149:38164   */\n      add\n        /* \"#utility.yul\":38142:38172   */\n      mstore\n        /* \"#utility.yul\":38063:38179   */\n      pop\n      jump\t// out\n        /* \"#utility.yul\":38185:38348   */\n    tag_599:\n        /* \"#utility.yul\":38325:38340   */\n      0x496e76616c696420696e64657800000000000000000000000000000000000000\n        /* \"#utility.yul\":38321:38322   */\n      0x00\n        /* \"#utility.yul\":38313:38319   */\n      dup3\n        /* \"#utility.yul\":38309:38323   */\n      add\n        /* \"#utility.yul\":38302:38341   */\n      mstore\n        /* \"#utility.yul\":38291:38348   */\n      pop\n      jump\t// out\n        /* \"#utility.yul\":38354:38579   */\n    tag_604:\n        /* \"#utility.yul\":38494:38528   */\n      0x416464726573733a20696e73756666696369656e742062616c616e636520666f\n        /* \"#utility.yul\":38490:38491   */\n      0x00\n        /* \"#utility.yul\":38482:38488   */\n      dup3\n        /* \"#utility.yul\":38478:38492   */\n      add\n        /* \"#utility.yul\":38471:38529   */\n      mstore\n        /* \"#utility.yul\":38563:38571   */\n      0x722063616c6c0000000000000000000000000000000000000000000000000000\n        /* \"#utility.yul\":38558:38560   */\n      0x20\n        /* \"#utility.yul\":38550:38556   */\n      dup3\n        /* \"#utility.yul\":38546:38561   */\n      add\n        /* \"#utility.yul\":38539:38572   */\n      mstore\n        /* \"#utility.yul\":38460:38579   */\n      pop\n      jump\t// out\n        /* \"#utility.yul\":38585:38806   */\n    tag_609:\n        /* \"#utility.yul\":38725:38759   */\n      0x596f7520617265206e6f7420746865206f776e6572206f662074686973206c6f\n        /* \"#utility.yul\":38721:38722   */\n      0x00\n        /* \"#utility.yul\":38713:38719   */\n      dup3\n        /* \"#utility.yul\":38709:38723   */\n      add\n        /* \"#utility.yul\":38702:38760   */\n      mstore\n        /* \"#utility.yul\":38794:38798   */\n      0x636b000000000000000000000000000000000000000000000000000000000000\n        /* \"#utility.yul\":38789:38791   */\n      0x20\n        /* \"#utility.yul\":38781:38787   */\n      dup3\n        /* \"#utility.yul\":38777:38792   */\n      add\n        /* \"#utility.yul\":38770:38799   */\n      mstore\n        /* \"#utility.yul\":38691:38806   */\n      pop\n      jump\t// out\n        /* \"#utility.yul\":38812:38978   */\n    tag_614:\n        /* \"#utility.yul\":38952:38970   */\n      0x5061757361626c653a2070617573656400000000000000000000000000000000\n        /* \"#utility.yul\":38948:38949   */\n      0x00\n        /* \"#utility.yul\":38940:38946   */\n      dup3\n        /* \"#utility.yul\":38936:38950   */\n      add\n        /* \"#utility.yul\":38929:38971   */\n      mstore\n        /* \"#utility.yul\":38918:38978   */\n      pop\n      jump\t// out\n        /* \"#utility.yul\":38984:39149   */\n    tag_619:\n        /* \"#utility.yul\":39124:39141   */\n      0x496e76616c6964206c6f636b2069640000000000000000000000000000000000\n        /* \"#utility.yul\":39120:39121   */\n      0x00\n        /* \"#utility.yul\":39112:39118   */\n      dup3\n        /* \"#utility.yul\":39108:39122   */\n      add\n        /* \"#utility.yul\":39101:39142   */\n      mstore\n        /* \"#utility.yul\":39090:39149   */\n      pop\n      jump\t// out\n        /* \"#utility.yul\":39155:39336   */\n    tag_624:\n        /* \"#utility.yul\":39295:39328   */\n      0x416d6f756e742073686f756c642062652067726561746572207468616e203000\n        /* \"#utility.yul\":39291:39292   */\n      0x00\n        /* \"#utility.yul\":39283:39289   */\n      dup3\n        /* \"#utility.yul\":39279:39293   */\n      add\n        /* \"#utility.yul\":39272:39329   */\n      mstore\n        /* \"#utility.yul\":39261:39336   */\n      pop\n      jump\t// out\n        /* \"#utility.yul\":39342:39509   */\n    tag_629:\n        /* \"#utility.yul\":39482:39501   */\n      0x4e6f7468696e6720746f20756e6c6f636b000000000000000000000000000000\n        /* \"#utility.yul\":39478:39479   */\n      0x00\n        /* \"#utility.yul\":39470:39476   */\n      dup3\n        /* \"#utility.yul\":39466:39480   */\n      add\n        /* \"#utility.yul\":39459:39502   */\n      mstore\n        /* \"#utility.yul\":39448:39509   */\n      pop\n      jump\t// out\n        /* \"#utility.yul\":39515:39694   */\n    tag_634:\n        /* \"#utility.yul\":39655:39686   */\n      0x416464726573733a2063616c6c20746f206e6f6e2d636f6e7472616374000000\n        /* \"#utility.yul\":39651:39652   */\n      0x00\n        /* \"#utility.yul\":39643:39649   */\n      dup3\n        /* \"#utility.yul\":39639:39653   */\n      add\n        /* \"#utility.yul\":39632:39687   */\n      mstore\n        /* \"#utility.yul\":39621:39694   */\n      pop\n      jump\t// out\n        /* \"#utility.yul\":39700:39936   */\n    tag_639:\n        /* \"#utility.yul\":39840:39874   */\n      0x4e657720616d6f756e742073686f756c64206e6f74206265206c657373207468\n        /* \"#utility.yul\":39836:39837   */\n      0x00\n        /* \"#utility.yul\":39828:39834   */\n      dup3\n        /* \"#utility.yul\":39824:39838   */\n      add\n        /* \"#utility.yul\":39817:39875   */\n      mstore\n        /* \"#utility.yul\":39909:39928   */\n      0x616e2063757272656e7420616d6f756e74000000000000000000000000000000\n        /* \"#utility.yul\":39904:39906   */\n      0x20\n        /* \"#utility.yul\":39896:39902   */\n      dup3\n        /* \"#utility.yul\":39892:39907   */\n      add\n        /* \"#utility.yul\":39885:39929   */\n      mstore\n        /* \"#utility.yul\":39806:39936   */\n      pop\n      jump\t// out\n        /* \"#utility.yul\":39942:40171   */\n    tag_644:\n        /* \"#utility.yul\":40082:40116   */\n      0x5361666545524332303a204552433230206f7065726174696f6e20646964206e\n        /* \"#utility.yul\":40078:40079   */\n      0x00\n        /* \"#utility.yul\":40070:40076   */\n      dup3\n        /* \"#utility.yul\":40066:40080   */\n      add\n        /* \"#utility.yul\":40059:40117   */\n      mstore\n        /* \"#utility.yul\":40151:40163   */\n      0x6f74207375636365656400000000000000000000000000000000000000000000\n        /* \"#utility.yul\":40146:40148   */\n      0x20\n        /* \"#utility.yul\":40138:40144   */\n      dup3\n        /* \"#utility.yul\":40134:40149   */\n      add\n        /* \"#utility.yul\":40127:40164   */\n      mstore\n        /* \"#utility.yul\":40048:40171   */\n      pop\n      jump\t// out\n        /* \"#utility.yul\":40177:40351   */\n    tag_649:\n        /* \"#utility.yul\":40317:40343   */\n      0x4974206973206e6f742074696d6520746f20756e6c6f636b0000000000000000\n        /* \"#utility.yul\":40313:40314   */\n      0x00\n        /* \"#utility.yul\":40305:40311   */\n      dup3\n        /* \"#utility.yul\":40301:40315   */\n      add\n        /* \"#utility.yul\":40294:40344   */\n      mstore\n        /* \"#utility.yul\":40283:40351   */\n      pop\n      jump\t// out\n        /* \"#utility.yul\":40357:40649   */\n    tag_654:\n        /* \"#utility.yul\":40497:40531   */\n      0x4e657720756e6c6f636b2074696d652073686f756c64206e6f74206265206265\n        /* \"#utility.yul\":40493:40494   */\n      0x00\n        /* \"#utility.yul\":40485:40491   */\n      dup3\n        /* \"#utility.yul\":40481:40495   */\n      add\n        /* \"#utility.yul\":40474:40532   */\n      mstore\n        /* \"#utility.yul\":40566:40600   */\n      0x666f7265206f6c6420756e6c6f636b2074696d65206f722063757272656e7420\n        /* \"#utility.yul\":40561:40563   */\n      0x20\n        /* \"#utility.yul\":40553:40559   */\n      dup3\n        /* \"#utility.yul\":40549:40564   */\n      add\n        /* \"#utility.yul\":40542:40601   */\n      mstore\n        /* \"#utility.yul\":40635:40641   */\n      0x74696d6500000000000000000000000000000000000000000000000000000000\n        /* \"#utility.yul\":40630:40632   */\n      0x40\n        /* \"#utility.yul\":40622:40628   */\n      dup3\n        /* \"#utility.yul\":40618:40633   */\n      add\n        /* \"#utility.yul\":40611:40642   */\n      mstore\n        /* \"#utility.yul\":40463:40649   */\n      pop\n      jump\t// out\n        /* \"#utility.yul\":40655:40836   */\n    tag_659:\n        /* \"#utility.yul\":40795:40828   */\n      0x4e6f7420656e6f75676820746f6b656e20776173207472616e73666572656400\n        /* \"#utility.yul\":40791:40792   */\n      0x00\n        /* \"#utility.yul\":40783:40789   */\n      dup3\n        /* \"#utility.yul\":40779:40793   */\n      add\n        /* \"#utility.yul\":40772:40829   */\n      mstore\n        /* \"#utility.yul\":40761:40836   */\n      pop\n      jump\t// out\n        /* \"#utility.yul\":40842:40964   */\n    tag_451:\n        /* \"#utility.yul\":40915:40939   */\n      tag_837\n        /* \"#utility.yul\":40933:40938   */\n      dup2\n        /* \"#utility.yul\":40915:40939   */\n      tag_525\n      jump\t// in\n    tag_837:\n        /* \"#utility.yul\":40908:40913   */\n      dup2\n        /* \"#utility.yul\":40905:40940   */\n      eq\n        /* \"#utility.yul\":40895:40897   */\n      tag_838\n      jumpi\n        /* \"#utility.yul\":40954:40955   */\n      0x00\n        /* \"#utility.yul\":40951:40952   */\n      dup1\n        /* \"#utility.yul\":40944:40956   */\n      revert\n        /* \"#utility.yul\":40895:40897   */\n    tag_838:\n        /* \"#utility.yul\":40885:40964   */\n      pop\n      jump\t// out\n        /* \"#utility.yul\":40970:41086   */\n    tag_455:\n        /* \"#utility.yul\":41040:41061   */\n      tag_840\n        /* \"#utility.yul\":41055:41060   */\n      dup2\n        /* \"#utility.yul\":41040:41061   */\n      tag_560\n      jump\t// in\n    tag_840:\n        /* \"#utility.yul\":41033:41038   */\n      dup2\n        /* \"#utility.yul\":41030:41062   */\n      eq\n        /* \"#utility.yul\":41020:41022   */\n      tag_841\n      jumpi\n        /* \"#utility.yul\":41076:41077   */\n      0x00\n        /* \"#utility.yul\":41073:41074   */\n      dup1\n        /* \"#utility.yul\":41066:41078   */\n      revert\n        /* \"#utility.yul\":41020:41022   */\n    tag_841:\n        /* \"#utility.yul\":41010:41086   */\n      pop\n      jump\t// out\n        /* \"#utility.yul\":41092:41214   */\n    tag_463:\n        /* \"#utility.yul\":41165:41189   */\n      tag_843\n        /* \"#utility.yul\":41183:41188   */\n      dup2\n        /* \"#utility.yul\":41165:41189   */\n      tag_689\n      jump\t// in\n    tag_843:\n        /* \"#utility.yul\":41158:41163   */\n      dup2\n        /* \"#utility.yul\":41155:41190   */\n      eq\n        /* \"#utility.yul\":41145:41147   */\n      tag_844\n      jumpi\n        /* \"#utility.yul\":41204:41205   */\n      0x00\n        /* \"#utility.yul\":41201:41202   */\n      dup1\n        /* \"#utility.yul\":41194:41206   */\n      revert\n        /* \"#utility.yul\":41145:41147   */\n    tag_844:\n        /* \"#utility.yul\":41135:41214   */\n      pop\n      jump\t// out\n\n    auxdata: 0xa2646970667358221220daf66d299942a0eae7eb556ca79633b1e5066e1f7cb3958f05f86086fed5283c64736f6c63430008040033\n}\n",
				"bytecode": {
					"linkReferences": {},
					"object": "608060405234801561001057600080fd5b5060008060006101000a81548160ff021916908315150217905550613d9b8061003a6000396000f3fe608060405234801561001057600080fd5b50600436106101165760003560e01c80637e6706d3116100a2578063d3cac88511610071578063d3cac88514610317578063da1d8cff14610333578063e1444fd614610363578063eb80bdae14610394578063fd981c66146103c457610116565b80637e6706d31461027f57806397b1d73a146102af578063a57e3141146102df578063b3b9aa48146102fb57610116565b80635a04fb69116100e95780635a04fb69146101c95780635c975abb146101e5578063618df7a3146102035780636198e3391461023357806376c128221461024f57610116565b806308f124701461011b5780630d4f581a1461014b578063332f26d71461017b578063475831c8146101ab575b600080fd5b61013560048036038101906101309190612b5a565b6103e2565b60405161014291906135d2565b60405180910390f35b61016560048036038101906101609190612b5a565b6105bd565b60405161017291906135d2565b60405180910390f35b61019560048036038101906101909190612ae2565b610790565b6040516101a29190613378565b60405180910390f35b6101b36109a9565b6040516101c091906135f4565b60405180910390f35b6101e360048036038101906101de9190612bac565b6109ba565b005b6101ed610bd1565b6040516101fa919061339a565b60405180910390f35b61021d60048036038101906102189190612aa6565b610be7565b60405161022a91906135d2565b60405180910390f35b61024d60048036038101906102489190612b5a565b610c9a565b005b61026960048036038101906102649190612c3c565b610d91565b6040516102769190613356565b60405180910390f35b61029960048036038101906102949190612b5a565b610f93565b6040516102a691906135b7565b60405180910390f35b6102c960048036038101906102c49190612a17565b61105f565b6040516102d691906135f4565b60405180910390f35b6102f960048036038101906102f49190612b5a565b611148565b005b61031560048036038101906103109190612c78565b611156565b005b610331600480360381019061032c9190612be8565b6114ad565b005b61034d600480360381019061034891906129ee565b6115ec565b60405161035a9190613378565b60405180910390f35b61037d600480360381019061037891906129ee565b61177d565b60405161038b92919061332d565b60405180910390f35b6103ae60048036038101906103a991906129ee565b6117c1565b6040516103bb91906135f4565b60405180910390f35b6103cc611811565b6040516103d991906135f4565b60405180910390f35b6103ea6127ee565b60016103f58361181e565b8154811061042c577f4e487b7100000000000000000000000000000000000000000000000000000000600052603260045260246000fd5b906000526020600020906008020160405180610100016040529081600082015481526020016001820160009054906101000a900473ffffffffffffffffffffffffffffffffffffffff1673ffffffffffffffffffffffffffffffffffffffff1673ffffffffffffffffffffffffffffffffffffffff1681526020016002820160009054906101000a900473ffffffffffffffffffffffffffffffffffffffff1673ffffffffffffffffffffffffffffffffffffffff1673ffffffffffffffffffffffffffffffffffffffff1681526020016003820154815260200160048201548152602001600582015481526020016006820154815260200160078201805461053490613865565b80601f016020809104026020016040519081016040528092919081815260200182805461056090613865565b80156105ad5780601f10610582576101008083540402835291602001916105ad565b820191906000526020600020905b81548152906001019060200180831161059057829003601f168201915b5050505050815250509050919050565b6105c56127ee565b600182815481106105ff577f4e487b7100000000000000000000000000000000000000000000000000000000600052603260045260246000fd5b906000526020600020906008020160405180610100016040529081600082015481526020016001820160009054906101000a900473ffffffffffffffffffffffffffffffffffffffff1673ffffffffffffffffffffffffffffffffffffffff1673ffffffffffffffffffffffffffffffffffffffff1681526020016002820160009054906101000a900473ffffffffffffffffffffffffffffffffffffffff1673ffffffffffffffffffffffffffffffffffffffff1673ffffffffffffffffffffffffffffffffffffffff1681526020016003820154815260200160048201548152602001600582015481526020016006820154815260200160078201805461070790613865565b80601f016020809104026020016040519081016040528092919081815260200182805461073390613865565b80156107805780601f1061075557610100808354040283529160200191610780565b820191906000526020600020905b81548152906001019060200180831161076357829003601f168201915b5050505050815250509050919050565b60606107d9600660008673ffffffffffffffffffffffffffffffffffffffff1673ffffffffffffffffffffffffffffffffffffffff168152602001908152602001600020611874565b8210610835576001610828600660008773ffffffffffffffffffffffffffffffffffffffff1673ffffffffffffffffffffffffffffffffffffffff168152602001908152602001600020611874565b61083291906137a7565b91505b60006001848461084591906137a7565b61084f9190613751565b905060008167ffffffffffffffff811115610893577f4e487b7100000000000000000000000000000000000000000000000000000000600052604160045260246000fd5b6040519080825280602002602001820160405280156108cc57816020015b6108b96127ee565b8152602001906001900390816108b15790505b5090506000808690505b85811161099b5761093661093182600660008c73ffffffffffffffffffffffffffffffffffffffff1673ffffffffffffffffffffffffffffffffffffffff16815260200190815260200160002061188990919063ffffffff16565b6103e2565b83838151811061096f577f4e487b7100000000000000000000000000000000000000000000000000000000600052603260045260246000fd5b60200260200101819052508180610985906138c8565b9250508080610993906138c8565b9150506108d6565b508193505050509392505050565b60006109b560036118a3565b905090565b816109c48161181e565b50600060018481548110610a01577f4e487b7100000000000000000000000000000000000000000000000000000000600052603260045260246000fd5b9060005260206000209060080201905060008160020160009054906101000a900473ffffffffffffffffffffffffffffffffffffffff1690503373ffffffffffffffffffffffffffffffffffffffff168173ffffffffffffffffffffffffffffffffffffffff1614610aa8576040517f08c379a0000000000000000000000000000000000000000000000000000000008152600401610a9f90613457565b60405180910390fd5b838260020160006101000a81548173ffffffffffffffffffffffffffffffffffffffff021916908373ffffffffffffffffffffffffffffffffffffffff160217905550610b3c85600260008473ffffffffffffffffffffffffffffffffffffffff1673ffffffffffffffffffffffffffffffffffffffff1681526020019081526020016000206118b890919063ffffffff16565b50610b8e85600260008773ffffffffffffffffffffffffffffffffffffffff1673ffffffffffffffffffffffffffffffffffffffff1681526020019081526020016000206118d290919063ffffffff16565b507f9075ad040756c0d8743a1fed927066a92c4755071615bf61e04b17583d961caf858286604051610bc29392919061360f565b60405180910390a15050505050565b60008060009054906101000a900460ff16905090565b610bef6127ee565b81610bf9846117c1565b11610c39576040517f08c379a0000000000000000000000000000000000000000000000000000000008152600401610c3090613417565b60405180910390fd5b610c92610c8d83600260008773ffffffffffffffffffffffffffffffffffffffff1673ffffffffffffffffffffffffffffffffffffffff16815260200190815260200160002061188990919063ffffffff16565b6103e2565b905092915050565b80610ca48161181e565b50600060018381548110610ce1577f4e487b7100000000000000000000000000000000000000000000000000000000600052603260045260246000fd5b906000526020600020906008020190503373ffffffffffffffffffffffffffffffffffffffff168160020160009054906101000a900473ffffffffffffffffffffffffffffffffffffffff1673ffffffffffffffffffffffffffffffffffffffff1614610d83576040517f08c379a0000000000000000000000000000000000000000000000000000000008152600401610d7a90613457565b60405180910390fd5b610d8c816118ec565b505050565b6060610d9d60036118a3565b8210610dbc576001610daf60036118a3565b610db991906137a7565b91505b600060018484610dcc91906137a7565b610dd69190613751565b905060008167ffffffffffffffff811115610e1a577f4e487b7100000000000000000000000000000000000000000000000000000000600052604160045260246000fd5b604051908082528060200260200182016040528015610e5357816020015b610e4061285f565b815260200190600190039081610e385790505b5090506000808690505b858111610f865760056000610e7c836003611bf790919063ffffffff16565b73ffffffffffffffffffffffffffffffffffffffff1673ffffffffffffffffffffffffffffffffffffffff1681526020019081526020016000206040518060400160405290816000820160009054906101000a900473ffffffffffffffffffffffffffffffffffffffff1673ffffffffffffffffffffffffffffffffffffffff1673ffffffffffffffffffffffffffffffffffffffff168152602001600182015481525050838381518110610f5a577f4e487b7100000000000000000000000000000000000000000000000000000000600052603260045260246000fd5b60200260200101819052508180610f70906138c8565b9250508080610f7e906138c8565b915050610e5d565b5081935050505092915050565b610f9b61285f565b60056000610fb3846003611bf790919063ffffffff16565b73ffffffffffffffffffffffffffffffffffffffff1673ffffffffffffffffffffffffffffffffffffffff1681526020019081526020016000206040518060400160405290816000820160009054906101000a900473ffffffffffffffffffffffffffffffffffffffff1673ffffffffffffffffffffffffffffffffffffffff1673ffffffffffffffffffffffffffffffffffffffff1681526020016001820154815250509050919050565b60004283116110a3576040517f08c379a000000000000000000000000000000000000000000000000000000000815260040161109a906133f7565b60405180910390fd5b600084116110e6576040517f08c379a00000000000000000000000000000000000000000000000000000000081526004016110dd906134b7565b60405180910390fd5b6110f38686868686611c11565b905061110185333087611c2b565b807f694af1cc8727cdd0afbdd53d9b87b69248bd490224e9dd090e788546506e076f8688878760405161113794939291906132e8565b60405180910390a295945050505050565b6111538160006109ba565b50565b826111608161181e565b5060006001858154811061119d577f4e487b7100000000000000000000000000000000000000000000000000000000600052603260045260246000fd5b906000526020600020906008020190503373ffffffffffffffffffffffffffffffffffffffff168160020160009054906101000a900473ffffffffffffffffffffffffffffffffffffffff1673ffffffffffffffffffffffffffffffffffffffff161461123f576040517f08c379a000000000000000000000000000000000000000000000000000000000815260040161123690613457565b60405180910390fd5b6000816006015414611286576040517f08c379a000000000000000000000000000000000000000000000000000000000815260040161127d906133d7565b60405180910390fd5b60008311156112eb57806005015483101580156112a257504283115b6112e1576040517f08c379a00000000000000000000000000000000000000000000000000000000081526004016112d890613577565b60405180910390fd5b8281600501819055505b600084111561141457806003015484101561133b576040517f08c379a000000000000000000000000000000000000000000000000000000000815260040161133290613517565b60405180910390fd5b600081600301548561134d91906137a7565b90506000811115611412578482600301819055506000600560008460010160009054906101000a900473ffffffffffffffffffffffffffffffffffffffff1673ffffffffffffffffffffffffffffffffffffffff1673ffffffffffffffffffffffffffffffffffffffff16815260200190815260200160002090508181600101546113d89190613751565b81600101819055506114108360010160009054906101000a900473ffffffffffffffffffffffffffffffffffffffff16333085611c2b565b505b505b80600001547fa8b26360df8d5e154ffa5a8a7e894e85f781acfbbef0b744fb9551d8fd0fd36c8260010160009054906101000a900473ffffffffffffffffffffffffffffffffffffffff168360020160009054906101000a900473ffffffffffffffffffffffffffffffffffffffff168460030154856005015460405161149e94939291906132e8565b60405180910390a25050505050565b816114b78161181e565b506000600184815481106114f4577f4e487b7100000000000000000000000000000000000000000000000000000000600052603260045260246000fd5b906000526020600020906008020190503373ffffffffffffffffffffffffffffffffffffffff168160020160009054906101000a900473ffffffffffffffffffffffffffffffffffffffff1673ffffffffffffffffffffffffffffffffffffffff1614611596576040517f08c379a000000000000000000000000000000000000000000000000000000000815260040161158d90613457565b60405180910390fd5b828160070190805190602001906115ae92919061288f565b507fe4a1120fd509c50aec65802fd3c3c9a4b72bf746fe9a552396185c6de928e8aa846040516115de91906135f4565b60405180910390a150505050565b60606000611637600260008573ffffffffffffffffffffffffffffffffffffffff1673ffffffffffffffffffffffffffffffffffffffff168152602001908152602001600020611874565b905060008167ffffffffffffffff81111561167b577f4e487b7100000000000000000000000000000000000000000000000000000000600052604160045260246000fd5b6040519080825280602002602001820160405280156116b457816020015b6116a16127ee565b8152602001906001900390816116995790505b50905060005b828110156117725761171b61171682600260008973ffffffffffffffffffffffffffffffffffffffff1673ffffffffffffffffffffffffffffffffffffffff16815260200190815260200160002061188990919063ffffffff16565b6103e2565b828281518110611754577f4e487b7100000000000000000000000000000000000000000000000000000000600052603260045260246000fd5b6020026020010181905250808061176a906138c8565b9150506116ba565b508092505050919050565b60056020528060005260406000206000915090508060000160009054906101000a900473ffffffffffffffffffffffffffffffffffffffff16908060010154905082565b600061180a600260008473ffffffffffffffffffffffffffffffffffffffff1673ffffffffffffffffffffffffffffffffffffffff168152602001908152602001600020611874565b9050919050565b6000600180549050905090565b600080829050600180549050811061186b576040517f08c379a000000000000000000000000000000000000000000000000000000000815260040161186290613497565b60405180910390fd5b80915050919050565b600061188282600001611dc7565b9050919050565b60006118988360000183611dd8565b60001c905092915050565b60006118b182600001611dc7565b9050919050565b60006118ca836000018360001b611e29565b905092915050565b60006118e4836000018360001b611faf565b905092915050565b8060050154421015611933576040517f08c379a000000000000000000000000000000000000000000000000000000000815260040161192a90613557565b60405180910390fd5b600081600601541461197a576040517f08c379a0000000000000000000000000000000000000000000000000000000008152600401611971906134d7565b60405180910390fd5b6000600560008360010160009054906101000a900473ffffffffffffffffffffffffffffffffffffffff1673ffffffffffffffffffffffffffffffffffffffff1673ffffffffffffffffffffffffffffffffffffffff1681526020019081526020016000209050611a368260000154600260003373ffffffffffffffffffffffffffffffffffffffff1673ffffffffffffffffffffffffffffffffffffffff1681526020019081526020016000206118b890919063ffffffff16565b5060008260030154905080826001015411611a5a5760008260010181905550611a73565b808260010154611a6a91906137a7565b82600101819055505b600082600101541415611aba57611ab88360010160009054906101000a900473ffffffffffffffffffffffffffffffffffffffff16600361201f90919063ffffffff16565b505b808360060181905550611b3c8360000154600660008660010160009054906101000a900473ffffffffffffffffffffffffffffffffffffffff1673ffffffffffffffffffffffffffffffffffffffff1673ffffffffffffffffffffffffffffffffffffffff1681526020019081526020016000206118b890919063ffffffff16565b50611b8c33828560010160009054906101000a900473ffffffffffffffffffffffffffffffffffffffff1673ffffffffffffffffffffffffffffffffffffffff1661204f9092919063ffffffff16565b82600001547fc6532367992b32e42a62dd89fc3574876d97d081a263aa6e030f34b79b7e6e8b8460010160009054906101000a900473ffffffffffffffffffffffffffffffffffffffff16338442604051611bea94939291906132e8565b60405180910390a2505050565b6000611c068360000183611dd8565b60001c905092915050565b6000611c2086868686866120d5565b905095945050505050565b60008473ffffffffffffffffffffffffffffffffffffffff166370a08231846040518263ffffffff1660e01b8152600401611c669190613296565b60206040518083038186803b158015611c7e57600080fd5b505afa158015611c92573d6000803e3d6000fd5b505050506040513d601f19601f82011682018060405250810190611cb69190612b83565b9050611ce58484848873ffffffffffffffffffffffffffffffffffffffff166122a1909392919063ffffffff16565b60008573ffffffffffffffffffffffffffffffffffffffff166370a08231856040518263ffffffff1660e01b8152600401611d209190613296565b60206040518083038186803b158015611d3857600080fd5b505afa158015611d4c573d6000803e3d6000fd5b505050506040513d601f19601f82011682018060405250810190611d709190612b83565b9050828282611d7f91906137a7565b14611dbf576040517f08c379a0000000000000000000000000000000000000000000000000000000008152600401611db690613597565b60405180910390fd5b505050505050565b600081600001805490509050919050565b6000826000018281548110611e16577f4e487b7100000000000000000000000000000000000000000000000000000000600052603260045260246000fd5b9060005260206000200154905092915050565b60008083600101600084815260200190815260200160002054905060008114611fa3576000600182611e5b91906137a7565b9050600060018660000180549050611e7391906137a7565b9050818114611f2e576000866000018281548110611eba577f4e487b7100000000000000000000000000000000000000000000000000000000600052603260045260246000fd5b9060005260206000200154905080876000018481548110611f04577f4e487b7100000000000000000000000000000000000000000000000000000000600052603260045260246000fd5b90600052602060002001819055508387600101600083815260200190815260200160002081905550505b85600001805480611f68577f4e487b7100000000000000000000000000000000000000000000000000000000600052603160045260246000fd5b600190038181906000526020600020016000905590558560010160008681526020019081526020016000206000905560019350505050611fa9565b60009150505b92915050565b6000611fbb838361232a565b612014578260000182908060018154018082558091505060019003906000526020600020016000909190919091505582600001805490508360010160008481526020019081526020016000208190555060019050612019565b600090505b92915050565b6000612047836000018373ffffffffffffffffffffffffffffffffffffffff1660001b611e29565b905092915050565b6120d08363a9059cbb60e01b848460405160240161206e92919061332d565b604051602081830303815290604052907bffffffffffffffffffffffffffffffffffffffffffffffffffffffff19166020820180517bffffffffffffffffffffffffffffffffffffffffffffffffffffffff838183161783525050505061234d565b505050565b60006120e48686868686612414565b905061213781600260008973ffffffffffffffffffffffffffffffffffffffff1673ffffffffffffffffffffffffffffffffffffffff1681526020019081526020016000206118d290919063ffffffff16565b5061214c8560036125a690919063ffffffff16565b506000600560008773ffffffffffffffffffffffffffffffffffffffff1673ffffffffffffffffffffffffffffffffffffffff1681526020019081526020016000209050600073ffffffffffffffffffffffffffffffffffffffff168160000160009054906101000a900473ffffffffffffffffffffffffffffffffffffffff1673ffffffffffffffffffffffffffffffffffffffff16141561222d57858160000160006101000a81548173ffffffffffffffffffffffffffffffffffffffff021916908373ffffffffffffffffffffffffffffffffffffffff1602179055505b84816001015461223d9190613751565b816001018190555061229682600660008973ffffffffffffffffffffffffffffffffffffffff1673ffffffffffffffffffffffffffffffffffffffff1681526020019081526020016000206118d290919063ffffffff16565b505095945050505050565b612324846323b872dd60e01b8585856040516024016122c2939291906132b1565b604051602081830303815290604052907bffffffffffffffffffffffffffffffffffffffffffffffffffffffff19166020820180517bffffffffffffffffffffffffffffffffffffffffffffffffffffffff838183161783525050505061234d565b50505050565b600080836001016000848152602001908152602001600020541415905092915050565b60006123af826040518060400160405280602081526020017f5361666545524332303a206c6f772d6c6576656c2063616c6c206661696c65648152508573ffffffffffffffffffffffffffffffffffffffff166125d69092919063ffffffff16565b905060008151111561240f57808060200190518101906123cf9190612b31565b61240e576040517f08c379a000000000000000000000000000000000000000000000000000000000815260040161240590613537565b60405180910390fd5b5b505050565b600061241e6125ee565b600180549050905060006040518061010001604052808381526020018773ffffffffffffffffffffffffffffffffffffffff1681526020018873ffffffffffffffffffffffffffffffffffffffff1681526020018681526020014281526020018581526020016000815260200184815250905060018190806001815401808255809150506001900390600052602060002090600802016000909190919091506000820151816000015560208201518160010160006101000a81548173ffffffffffffffffffffffffffffffffffffffff021916908373ffffffffffffffffffffffffffffffffffffffff16021790555060408201518160020160006101000a81548173ffffffffffffffffffffffffffffffffffffffff021916908373ffffffffffffffffffffffffffffffffffffffff160217905550606082015181600301556080820151816004015560a0820151816005015560c0820151816006015560e082015181600701908051906020019061259992919061288f565b5050505095945050505050565b60006125ce836000018373ffffffffffffffffffffffffffffffffffffffff1660001b611faf565b905092915050565b60606125e58484600085612638565b90509392505050565b6125f6610bd1565b15612636576040517f08c379a000000000000000000000000000000000000000000000000000000000815260040161262d90613477565b60405180910390fd5b565b60608247101561267d576040517f08c379a000000000000000000000000000000000000000000000000000000000815260040161267490613437565b60405180910390fd5b6000808673ffffffffffffffffffffffffffffffffffffffff1685876040516126a6919061327f565b60006040518083038185875af1925050503d80600081146126e3576040519150601f19603f3d011682016040523d82523d6000602084013e6126e8565b606091505b50915091506126f987838387612705565b92505050949350505050565b6060831561276857600083511415612760576127208561277b565b61275f576040517f08c379a0000000000000000000000000000000000000000000000000000000008152600401612756906134f7565b60405180910390fd5b5b829050612773565b612772838361279e565b5b949350505050565b6000808273ffffffffffffffffffffffffffffffffffffffff163b119050919050565b6000825111156127b15781518083602001fd5b806040517f08c379a00000000000000000000000000000000000000000000000000000000081526004016127e591906133b5565b60405180910390fd5b60405180610100016040528060008152602001600073ffffffffffffffffffffffffffffffffffffffff168152602001600073ffffffffffffffffffffffffffffffffffffffff16815260200160008152602001600081526020016000815260200160008152602001606081525090565b6040518060400160405280600073ffffffffffffffffffffffffffffffffffffffff168152602001600081525090565b82805461289b90613865565b90600052602060002090601f0160209004810192826128bd5760008555612904565b82601f106128d657805160ff1916838001178555612904565b82800160010185558215612904579182015b828111156129035782518255916020019190600101906128e8565b5b5090506129119190612915565b5090565b5b8082111561292e576000816000905550600101612916565b5090565b60006129456129408461366b565b613646565b90508281526020810184848401111561295d57600080fd5b612968848285613823565b509392505050565b60008135905061297f81613d20565b92915050565b60008151905061299481613d37565b92915050565b600082601f8301126129ab57600080fd5b81356129bb848260208601612932565b91505092915050565b6000813590506129d381613d4e565b92915050565b6000815190506129e881613d4e565b92915050565b600060208284031215612a0057600080fd5b6000612a0e84828501612970565b91505092915050565b600080600080600060a08688031215612a2f57600080fd5b6000612a3d88828901612970565b9550506020612a4e88828901612970565b9450506040612a5f888289016129c4565b9350506060612a70888289016129c4565b925050608086013567ffffffffffffffff811115612a8d57600080fd5b612a998882890161299a565b9150509295509295909350565b60008060408385031215612ab957600080fd5b6000612ac785828601612970565b9250506020612ad8858286016129c4565b9150509250929050565b600080600060608486031215612af757600080fd5b6000612b0586828701612970565b9350506020612b16868287016129c4565b9250506040612b27868287016129c4565b9150509250925092565b600060208284031215612b4357600080fd5b6000612b5184828501612985565b91505092915050565b600060208284031215612b6c57600080fd5b6000612b7a848285016129c4565b91505092915050565b600060208284031215612b9557600080fd5b6000612ba3848285016129d9565b91505092915050565b60008060408385031215612bbf57600080fd5b6000612bcd858286016129c4565b9250506020612bde85828601612970565b9150509250929050565b60008060408385031215612bfb57600080fd5b6000612c09858286016129c4565b925050602083013567ffffffffffffffff811115612c2657600080fd5b612c328582860161299a565b9150509250929050565b60008060408385031215612c4f57600080fd5b6000612c5d858286016129c4565b9250506020612c6e858286016129c4565b9150509250929050565b600080600060608486031215612c8d57600080fd5b6000612c9b868287016129c4565b9350506020612cac868287016129c4565b9250506040612cbd868287016129c4565b9150509250925092565b6000612cd383836130a3565b60408301905092915050565b6000612ceb8383613101565b905092915050565b612cfc816137db565b82525050565b612d0b816137db565b82525050565b6000612d1c826136bc565b612d268185613702565b9350612d318361369c565b8060005b83811015612d62578151612d498882612cc7565b9750612d54836136e8565b925050600181019050612d35565b5085935050505092915050565b6000612d7a826136c7565b612d848185613713565b935083602082028501612d96856136ac565b8060005b85811015612dd25784840389528151612db38582612cdf565b9450612dbe836136f5565b925060208a01995050600181019050612d9a565b50829750879550505050505092915050565b612ded816137ed565b82525050565b6000612dfe826136d2565b612e088185613724565b9350612e18818560208601613832565b80840191505092915050565b6000612e2f826136dd565b612e39818561372f565b9350612e49818560208601613832565b612e528161399e565b840191505092915050565b6000612e68826136dd565b612e728185613740565b9350612e82818560208601613832565b612e8b8161399e565b840191505092915050565b6000612ea3601183613740565b9150612eae826139af565b602082019050919050565b6000612ec6602383613740565b9150612ed1826139d8565b604082019050919050565b6000612ee9600d83613740565b9150612ef482613a27565b602082019050919050565b6000612f0c602683613740565b9150612f1782613a50565b604082019050919050565b6000612f2f602283613740565b9150612f3a82613a9f565b604082019050919050565b6000612f52601083613740565b9150612f5d82613aee565b602082019050919050565b6000612f75600f83613740565b9150612f8082613b17565b602082019050919050565b6000612f98601f83613740565b9150612fa382613b40565b602082019050919050565b6000612fbb601183613740565b9150612fc682613b69565b602082019050919050565b6000612fde601d83613740565b9150612fe982613b92565b602082019050919050565b6000613001603183613740565b915061300c82613bbb565b604082019050919050565b6000613024602a83613740565b915061302f82613c0a565b604082019050919050565b6000613047601883613740565b915061305282613c59565b602082019050919050565b600061306a604483613740565b915061307582613c82565b606082019050919050565b600061308d601f83613740565b915061309882613cf7565b602082019050919050565b6040820160008201516130b96000850182612cf3565b5060208201516130cc6020850182613261565b50505050565b6040820160008201516130e86000850182612cf3565b5060208201516130fb6020850182613261565b50505050565b60006101008301600083015161311a6000860182613261565b50602083015161312d6020860182612cf3565b5060408301516131406040860182612cf3565b5060608301516131536060860182613261565b5060808301516131666080860182613261565b5060a083015161317960a0860182613261565b5060c083015161318c60c0860182613261565b5060e083015184820360e08601526131a48282612e24565b9150508091505092915050565b6000610100830160008301516131ca6000860182613261565b5060208301516131dd6020860182612cf3565b5060408301516131f06040860182612cf3565b5060608301516132036060860182613261565b5060808301516132166080860182613261565b5060a083015161322960a0860182613261565b5060c083015161323c60c0860182613261565b5060e083015184820360e08601526132548282612e24565b9150508091505092915050565b61326a81613819565b82525050565b61327981613819565b82525050565b600061328b8284612df3565b915081905092915050565b60006020820190506132ab6000830184612d02565b92915050565b60006060820190506132c66000830186612d02565b6132d36020830185612d02565b6132e06040830184613270565b949350505050565b60006080820190506132fd6000830187612d02565b61330a6020830186612d02565b6133176040830185613270565b6133246060830184613270565b95945050505050565b60006040820190506133426000830185612d02565b61334f6020830184613270565b9392505050565b600060208201905081810360008301526133708184612d11565b905092915050565b600060208201905081810360008301526133928184612d6f565b905092915050565b60006020820190506133af6000830184612de4565b92915050565b600060208201905081810360008301526133cf8184612e5d565b905092915050565b600060208201905081810360008301526133f081612e96565b9050919050565b6000602082019050818103600083015261341081612eb9565b9050919050565b6000602082019050818103600083015261343081612edc565b9050919050565b6000602082019050818103600083015261345081612eff565b9050919050565b6000602082019050818103600083015261347081612f22565b9050919050565b6000602082019050818103600083015261349081612f45565b9050919050565b600060208201905081810360008301526134b081612f68565b9050919050565b600060208201905081810360008301526134d081612f8b565b9050919050565b600060208201905081810360008301526134f081612fae565b9050919050565b6000602082019050818103600083015261351081612fd1565b9050919050565b6000602082019050818103600083015261353081612ff4565b9050919050565b6000602082019050818103600083015261355081613017565b9050919050565b600060208201905081810360008301526135708161303a565b9050919050565b600060208201905081810360008301526135908161305d565b9050919050565b600060208201905081810360008301526135b081613080565b9050919050565b60006040820190506135cc60008301846130d2565b92915050565b600060208201905081810360008301526135ec81846131b1565b905092915050565b60006020820190506136096000830184613270565b92915050565b60006060820190506136246000830186613270565b6136316020830185612d02565b61363e6040830184612d02565b949350505050565b6000613650613661565b905061365c8282613897565b919050565b6000604051905090565b600067ffffffffffffffff8211156136865761368561396f565b5b61368f8261399e565b9050602081019050919050565b6000819050602082019050919050565b6000819050602082019050919050565b600081519050919050565b600081519050919050565b600081519050919050565b600081519050919050565b6000602082019050919050565b6000602082019050919050565b600082825260208201905092915050565b600082825260208201905092915050565b600081905092915050565b600082825260208201905092915050565b600082825260208201905092915050565b600061375c82613819565b915061376783613819565b9250827fffffffffffffffffffffffffffffffffffffffffffffffffffffffffffffffff0382111561379c5761379b613911565b5b828201905092915050565b60006137b282613819565b91506137bd83613819565b9250828210156137d0576137cf613911565b5b828203905092915050565b60006137e6826137f9565b9050919050565b60008115159050919050565b600073ffffffffffffffffffffffffffffffffffffffff82169050919050565b6000819050919050565b82818337600083830152505050565b60005b83811015613850578082015181840152602081019050613835565b8381111561385f576000848401525b50505050565b6000600282049050600182168061387d57607f821691505b6020821081141561389157613890613940565b5b50919050565b6138a08261399e565b810181811067ffffffffffffffff821117156138bf576138be61396f565b5b80604052505050565b60006138d382613819565b91507fffffffffffffffffffffffffffffffffffffffffffffffffffffffffffffffff82141561390657613905613911565b5b600182019050919050565b7f4e487b7100000000000000000000000000000000000000000000000000000000600052601160045260246000fd5b7f4e487b7100000000000000000000000000000000000000000000000000000000600052602260045260246000fd5b7f4e487b7100000000000000000000000000000000000000000000000000000000600052604160045260246000fd5b6000601f19601f8301169050919050565b7f4c6f636b2077617320756e6c6f636b6564000000000000000000000000000000600082015250565b7f556e6c6f636b20646174652073686f756c6420626520696e207468652066757460008201527f7572650000000000000000000000000000000000000000000000000000000000602082015250565b7f496e76616c696420696e64657800000000000000000000000000000000000000600082015250565b7f416464726573733a20696e73756666696369656e742062616c616e636520666f60008201527f722063616c6c0000000000000000000000000000000000000000000000000000602082015250565b7f596f7520617265206e6f7420746865206f776e6572206f662074686973206c6f60008201527f636b000000000000000000000000000000000000000000000000000000000000602082015250565b7f5061757361626c653a2070617573656400000000000000000000000000000000600082015250565b7f496e76616c6964206c6f636b2069640000000000000000000000000000000000600082015250565b7f416d6f756e742073686f756c642062652067726561746572207468616e203000600082015250565b7f4e6f7468696e6720746f20756e6c6f636b000000000000000000000000000000600082015250565b7f416464726573733a2063616c6c20746f206e6f6e2d636f6e7472616374000000600082015250565b7f4e657720616d6f756e742073686f756c64206e6f74206265206c65737320746860008201527f616e2063757272656e7420616d6f756e74000000000000000000000000000000602082015250565b7f5361666545524332303a204552433230206f7065726174696f6e20646964206e60008201527f6f74207375636365656400000000000000000000000000000000000000000000602082015250565b7f4974206973206e6f742074696d6520746f20756e6c6f636b0000000000000000600082015250565b7f4e657720756e6c6f636b2074696d652073686f756c64206e6f7420626520626560008201527f666f7265206f6c6420756e6c6f636b2074696d65206f722063757272656e742060208201527f74696d6500000000000000000000000000000000000000000000000000000000604082015250565b7f4e6f7420656e6f75676820746f6b656e20776173207472616e73666572656400600082015250565b613d29816137db565b8114613d3457600080fd5b50565b613d40816137ed565b8114613d4b57600080fd5b50565b613d5781613819565b8114613d6257600080fd5b5056fea2646970667358221220daf66d299942a0eae7eb556ca79633b1e5066e1f7cb3958f05f86086fed5283c64736f6c63430008040033",
					"opcodes": "PUSH1 0x80 PUSH1 0x40 MSTORE CALLVALUE DUP1 ISZERO PUSH2 0x10 JUMPI PUSH1 0x0 DUP1 REVERT JUMPDEST POP PUSH1 0x0 DUP1 PUSH1 0x0 PUSH2 0x100 EXP DUP2 SLOAD DUP2 PUSH1 0xFF MUL NOT AND SWAP1 DUP4 ISZERO ISZERO MUL OR SWAP1 SSTORE POP PUSH2 0x3D9B DUP1 PUSH2 0x3A PUSH1 0x0 CODECOPY PUSH1 0x0 RETURN INVALID PUSH1 0x80 PUSH1 0x40 MSTORE CALLVALUE DUP1 ISZERO PUSH2 0x10 JUMPI PUSH1 0x0 DUP1 REVERT JUMPDEST POP PUSH1 0x4 CALLDATASIZE LT PUSH2 0x116 JUMPI PUSH1 0x0 CALLDATALOAD PUSH1 0xE0 SHR DUP1 PUSH4 0x7E6706D3 GT PUSH2 0xA2 JUMPI DUP1 PUSH4 0xD3CAC885 GT PUSH2 0x71 JUMPI DUP1 PUSH4 0xD3CAC885 EQ PUSH2 0x317 JUMPI DUP1 PUSH4 0xDA1D8CFF EQ PUSH2 0x333 JUMPI DUP1 PUSH4 0xE1444FD6 EQ PUSH2 0x363 JUMPI DUP1 PUSH4 0xEB80BDAE EQ PUSH2 0x394 JUMPI DUP1 PUSH4 0xFD981C66 EQ PUSH2 0x3C4 JUMPI PUSH2 0x116 JUMP JUMPDEST DUP1 PUSH4 0x7E6706D3 EQ PUSH2 0x27F JUMPI DUP1 PUSH4 0x97B1D73A EQ PUSH2 0x2AF JUMPI DUP1 PUSH4 0xA57E3141 EQ PUSH2 0x2DF JUMPI DUP1 PUSH4 0xB3B9AA48 EQ PUSH2 0x2FB JUMPI PUSH2 0x116 JUMP JUMPDEST DUP1 PUSH4 0x5A04FB69 GT PUSH2 0xE9 JUMPI DUP1 PUSH4 0x5A04FB69 EQ PUSH2 0x1C9 JUMPI DUP1 PUSH4 0x5C975ABB EQ PUSH2 0x1E5 JUMPI DUP1 PUSH4 0x618DF7A3 EQ PUSH2 0x203 JUMPI DUP1 PUSH4 0x6198E339 EQ PUSH2 0x233 JUMPI DUP1 PUSH4 0x76C12822 EQ PUSH2 0x24F JUMPI PUSH2 0x116 JUMP JUMPDEST DUP1 PUSH4 0x8F12470 EQ PUSH2 0x11B JUMPI DUP1 PUSH4 0xD4F581A EQ PUSH2 0x14B JUMPI DUP1 PUSH4 0x332F26D7 EQ PUSH2 0x17B JUMPI DUP1 PUSH4 0x475831C8 EQ PUSH2 0x1AB JUMPI JUMPDEST PUSH1 0x0 DUP1 REVERT JUMPDEST PUSH2 0x135 PUSH1 0x4 DUP1 CALLDATASIZE SUB DUP2 ADD SWAP1 PUSH2 0x130 SWAP2 SWAP1 PUSH2 0x2B5A JUMP JUMPDEST PUSH2 0x3E2 JUMP JUMPDEST PUSH1 0x40 MLOAD PUSH2 0x142 SWAP2 SWAP1 PUSH2 0x35D2 JUMP JUMPDEST PUSH1 0x40 MLOAD DUP1 SWAP2 SUB SWAP1 RETURN JUMPDEST PUSH2 0x165 PUSH1 0x4 DUP1 CALLDATASIZE SUB DUP2 ADD SWAP1 PUSH2 0x160 SWAP2 SWAP1 PUSH2 0x2B5A JUMP JUMPDEST PUSH2 0x5BD JUMP JUMPDEST PUSH1 0x40 MLOAD PUSH2 0x172 SWAP2 SWAP1 PUSH2 0x35D2 JUMP JUMPDEST PUSH1 0x40 MLOAD DUP1 SWAP2 SUB SWAP1 RETURN JUMPDEST PUSH2 0x195 PUSH1 0x4 DUP1 CALLDATASIZE SUB DUP2 ADD SWAP1 PUSH2 0x190 SWAP2 SWAP1 PUSH2 0x2AE2 JUMP JUMPDEST PUSH2 0x790 JUMP JUMPDEST PUSH1 0x40 MLOAD PUSH2 0x1A2 SWAP2 SWAP1 PUSH2 0x3378 JUMP JUMPDEST PUSH1 0x40 MLOAD DUP1 SWAP2 SUB SWAP1 RETURN JUMPDEST PUSH2 0x1B3 PUSH2 0x9A9 JUMP JUMPDEST PUSH1 0x40 MLOAD PUSH2 0x1C0 SWAP2 SWAP1 PUSH2 0x35F4 JUMP JUMPDEST PUSH1 0x40 MLOAD DUP1 SWAP2 SUB SWAP1 RETURN JUMPDEST PUSH2 0x1E3 PUSH1 0x4 DUP1 CALLDATASIZE SUB DUP2 ADD SWAP1 PUSH2 0x1DE SWAP2 SWAP1 PUSH2 0x2BAC JUMP JUMPDEST PUSH2 0x9BA JUMP JUMPDEST STOP JUMPDEST PUSH2 0x1ED PUSH2 0xBD1 JUMP JUMPDEST PUSH1 0x40 MLOAD PUSH2 0x1FA SWAP2 SWAP1 PUSH2 0x339A JUMP JUMPDEST PUSH1 0x40 MLOAD DUP1 SWAP2 SUB SWAP1 RETURN JUMPDEST PUSH2 0x21D PUSH1 0x4 DUP1 CALLDATASIZE SUB DUP2 ADD SWAP1 PUSH2 0x218 SWAP2 SWAP1 PUSH2 0x2AA6 JUMP JUMPDEST PUSH2 0xBE7 JUMP JUMPDEST PUSH1 0x40 MLOAD PUSH2 0x22A SWAP2 SWAP1 PUSH2 0x35D2 JUMP JUMPDEST PUSH1 0x40 MLOAD DUP1 SWAP2 SUB SWAP1 RETURN JUMPDEST PUSH2 0x24D PUSH1 0x4 DUP1 CALLDATASIZE SUB DUP2 ADD SWAP1 PUSH2 0x248 SWAP2 SWAP1 PUSH2 0x2B5A JUMP JUMPDEST PUSH2 0xC9A JUMP JUMPDEST STOP JUMPDEST PUSH2 0x269 PUSH1 0x4 DUP1 CALLDATASIZE SUB DUP2 ADD SWAP1 PUSH2 0x264 SWAP2 SWAP1 PUSH2 0x2C3C JUMP JUMPDEST PUSH2 0xD91 JUMP JUMPDEST PUSH1 0x40 MLOAD PUSH2 0x276 SWAP2 SWAP1 PUSH2 0x3356 JUMP JUMPDEST PUSH1 0x40 MLOAD DUP1 SWAP2 SUB SWAP1 RETURN JUMPDEST PUSH2 0x299 PUSH1 0x4 DUP1 CALLDATASIZE SUB DUP2 ADD SWAP1 PUSH2 0x294 SWAP2 SWAP1 PUSH2 0x2B5A JUMP JUMPDEST PUSH2 0xF93 JUMP JUMPDEST PUSH1 0x40 MLOAD PUSH2 0x2A6 SWAP2 SWAP1 PUSH2 0x35B7 JUMP JUMPDEST PUSH1 0x40 MLOAD DUP1 SWAP2 SUB SWAP1 RETURN JUMPDEST PUSH2 0x2C9 PUSH1 0x4 DUP1 CALLDATASIZE SUB DUP2 ADD SWAP1 PUSH2 0x2C4 SWAP2 SWAP1 PUSH2 0x2A17 JUMP JUMPDEST PUSH2 0x105F JUMP JUMPDEST PUSH1 0x40 MLOAD PUSH2 0x2D6 SWAP2 SWAP1 PUSH2 0x35F4 JUMP JUMPDEST PUSH1 0x40 MLOAD DUP1 SWAP2 SUB SWAP1 RETURN JUMPDEST PUSH2 0x2F9 PUSH1 0x4 DUP1 CALLDATASIZE SUB DUP2 ADD SWAP1 PUSH2 0x2F4 SWAP2 SWAP1 PUSH2 0x2B5A JUMP JUMPDEST PUSH2 0x1148 JUMP JUMPDEST STOP JUMPDEST PUSH2 0x315 PUSH1 0x4 DUP1 CALLDATASIZE SUB DUP2 ADD SWAP1 PUSH2 0x310 SWAP2 SWAP1 PUSH2 0x2C78 JUMP JUMPDEST PUSH2 0x1156 JUMP JUMPDEST STOP JUMPDEST PUSH2 0x331 PUSH1 0x4 DUP1 CALLDATASIZE SUB DUP2 ADD SWAP1 PUSH2 0x32C SWAP2 SWAP1 PUSH2 0x2BE8 JUMP JUMPDEST PUSH2 0x14AD JUMP JUMPDEST STOP JUMPDEST PUSH2 0x34D PUSH1 0x4 DUP1 CALLDATASIZE SUB DUP2 ADD SWAP1 PUSH2 0x348 SWAP2 SWAP1 PUSH2 0x29EE JUMP JUMPDEST PUSH2 0x15EC JUMP JUMPDEST PUSH1 0x40 MLOAD PUSH2 0x35A SWAP2 SWAP1 PUSH2 0x3378 JUMP JUMPDEST PUSH1 0x40 MLOAD DUP1 SWAP2 SUB SWAP1 RETURN JUMPDEST PUSH2 0x37D PUSH1 0x4 DUP1 CALLDATASIZE SUB DUP2 ADD SWAP1 PUSH2 0x378 SWAP2 SWAP1 PUSH2 0x29EE JUMP JUMPDEST PUSH2 0x177D JUMP JUMPDEST PUSH1 0x40 MLOAD PUSH2 0x38B SWAP3 SWAP2 SWAP1 PUSH2 0x332D JUMP JUMPDEST PUSH1 0x40 MLOAD DUP1 SWAP2 SUB SWAP1 RETURN JUMPDEST PUSH2 0x3AE PUSH1 0x4 DUP1 CALLDATASIZE SUB DUP2 ADD SWAP1 PUSH2 0x3A9 SWAP2 SWAP1 PUSH2 0x29EE JUMP JUMPDEST PUSH2 0x17C1 JUMP JUMPDEST PUSH1 0x40 MLOAD PUSH2 0x3BB SWAP2 SWAP1 PUSH2 0x35F4 JUMP JUMPDEST PUSH1 0x40 MLOAD DUP1 SWAP2 SUB SWAP1 RETURN JUMPDEST PUSH2 0x3CC PUSH2 0x1811 JUMP JUMPDEST PUSH1 0x40 MLOAD PUSH2 0x3D9 SWAP2 SWAP1 PUSH2 0x35F4 JUMP JUMPDEST PUSH1 0x40 MLOAD DUP1 SWAP2 SUB SWAP1 RETURN JUMPDEST PUSH2 0x3EA PUSH2 0x27EE JUMP JUMPDEST PUSH1 0x1 PUSH2 0x3F5 DUP4 PUSH2 0x181E JUMP JUMPDEST DUP2 SLOAD DUP2 LT PUSH2 0x42C JUMPI PUSH32 0x4E487B7100000000000000000000000000000000000000000000000000000000 PUSH1 0x0 MSTORE PUSH1 0x32 PUSH1 0x4 MSTORE PUSH1 0x24 PUSH1 0x0 REVERT JUMPDEST SWAP1 PUSH1 0x0 MSTORE PUSH1 0x20 PUSH1 0x0 KECCAK256 SWAP1 PUSH1 0x8 MUL ADD PUSH1 0x40 MLOAD DUP1 PUSH2 0x100 ADD PUSH1 0x40 MSTORE SWAP1 DUP2 PUSH1 0x0 DUP3 ADD SLOAD DUP2 MSTORE PUSH1 0x20 ADD PUSH1 0x1 DUP3 ADD PUSH1 0x0 SWAP1 SLOAD SWAP1 PUSH2 0x100 EXP SWAP1 DIV PUSH20 0xFFFFFFFFFFFFFFFFFFFFFFFFFFFFFFFFFFFFFFFF AND PUSH20 0xFFFFFFFFFFFFFFFFFFFFFFFFFFFFFFFFFFFFFFFF AND PUSH20 0xFFFFFFFFFFFFFFFFFFFFFFFFFFFFFFFFFFFFFFFF AND DUP2 MSTORE PUSH1 0x20 ADD PUSH1 0x2 DUP3 ADD PUSH1 0x0 SWAP1 SLOAD SWAP1 PUSH2 0x100 EXP SWAP1 DIV PUSH20 0xFFFFFFFFFFFFFFFFFFFFFFFFFFFFFFFFFFFFFFFF AND PUSH20 0xFFFFFFFFFFFFFFFFFFFFFFFFFFFFFFFFFFFFFFFF AND PUSH20 0xFFFFFFFFFFFFFFFFFFFFFFFFFFFFFFFFFFFFFFFF AND DUP2 MSTORE PUSH1 0x20 ADD PUSH1 0x3 DUP3 ADD SLOAD DUP2 MSTORE PUSH1 0x20 ADD PUSH1 0x4 DUP3 ADD SLOAD DUP2 MSTORE PUSH1 0x20 ADD PUSH1 0x5 DUP3 ADD SLOAD DUP2 MSTORE PUSH1 0x20 ADD PUSH1 0x6 DUP3 ADD SLOAD DUP2 MSTORE PUSH1 0x20 ADD PUSH1 0x7 DUP3 ADD DUP1 SLOAD PUSH2 0x534 SWAP1 PUSH2 0x3865 JUMP JUMPDEST DUP1 PUSH1 0x1F ADD PUSH1 0x20 DUP1 SWAP2 DIV MUL PUSH1 0x20 ADD PUSH1 0x40 MLOAD SWAP1 DUP2 ADD PUSH1 0x40 MSTORE DUP1 SWAP3 SWAP2 SWAP1 DUP2 DUP2 MSTORE PUSH1 0x20 ADD DUP3 DUP1 SLOAD PUSH2 0x560 SWAP1 PUSH2 0x3865 JUMP JUMPDEST DUP1 ISZERO PUSH2 0x5AD JUMPI DUP1 PUSH1 0x1F LT PUSH2 0x582 JUMPI PUSH2 0x100 DUP1 DUP4 SLOAD DIV MUL DUP4 MSTORE SWAP2 PUSH1 0x20 ADD SWAP2 PUSH2 0x5AD JUMP JUMPDEST DUP3 ADD SWAP2 SWAP1 PUSH1 0x0 MSTORE PUSH1 0x20 PUSH1 0x0 KECCAK256 SWAP1 JUMPDEST DUP2 SLOAD DUP2 MSTORE SWAP1 PUSH1 0x1 ADD SWAP1 PUSH1 0x20 ADD DUP1 DUP4 GT PUSH2 0x590 JUMPI DUP3 SWAP1 SUB PUSH1 0x1F AND DUP3 ADD SWAP2 JUMPDEST POP POP POP POP POP DUP2 MSTORE POP POP SWAP1 POP SWAP2 SWAP1 POP JUMP JUMPDEST PUSH2 0x5C5 PUSH2 0x27EE JUMP JUMPDEST PUSH1 0x1 DUP3 DUP2 SLOAD DUP2 LT PUSH2 0x5FF JUMPI PUSH32 0x4E487B7100000000000000000000000000000000000000000000000000000000 PUSH1 0x0 MSTORE PUSH1 0x32 PUSH1 0x4 MSTORE PUSH1 0x24 PUSH1 0x0 REVERT JUMPDEST SWAP1 PUSH1 0x0 MSTORE PUSH1 0x20 PUSH1 0x0 KECCAK256 SWAP1 PUSH1 0x8 MUL ADD PUSH1 0x40 MLOAD DUP1 PUSH2 0x100 ADD PUSH1 0x40 MSTORE SWAP1 DUP2 PUSH1 0x0 DUP3 ADD SLOAD DUP2 MSTORE PUSH1 0x20 ADD PUSH1 0x1 DUP3 ADD PUSH1 0x0 SWAP1 SLOAD SWAP1 PUSH2 0x100 EXP SWAP1 DIV PUSH20 0xFFFFFFFFFFFFFFFFFFFFFFFFFFFFFFFFFFFFFFFF AND PUSH20 0xFFFFFFFFFFFFFFFFFFFFFFFFFFFFFFFFFFFFFFFF AND PUSH20 0xFFFFFFFFFFFFFFFFFFFFFFFFFFFFFFFFFFFFFFFF AND DUP2 MSTORE PUSH1 0x20 ADD PUSH1 0x2 DUP3 ADD PUSH1 0x0 SWAP1 SLOAD SWAP1 PUSH2 0x100 EXP SWAP1 DIV PUSH20 0xFFFFFFFFFFFFFFFFFFFFFFFFFFFFFFFFFFFFFFFF AND PUSH20 0xFFFFFFFFFFFFFFFFFFFFFFFFFFFFFFFFFFFFFFFF AND PUSH20 0xFFFFFFFFFFFFFFFFFFFFFFFFFFFFFFFFFFFFFFFF AND DUP2 MSTORE PUSH1 0x20 ADD PUSH1 0x3 DUP3 ADD SLOAD DUP2 MSTORE PUSH1 0x20 ADD PUSH1 0x4 DUP3 ADD SLOAD DUP2 MSTORE PUSH1 0x20 ADD PUSH1 0x5 DUP3 ADD SLOAD DUP2 MSTORE PUSH1 0x20 ADD PUSH1 0x6 DUP3 ADD SLOAD DUP2 MSTORE PUSH1 0x20 ADD PUSH1 0x7 DUP3 ADD DUP1 SLOAD PUSH2 0x707 SWAP1 PUSH2 0x3865 JUMP JUMPDEST DUP1 PUSH1 0x1F ADD PUSH1 0x20 DUP1 SWAP2 DIV MUL PUSH1 0x20 ADD PUSH1 0x40 MLOAD SWAP1 DUP2 ADD PUSH1 0x40 MSTORE DUP1 SWAP3 SWAP2 SWAP1 DUP2 DUP2 MSTORE PUSH1 0x20 ADD DUP3 DUP1 SLOAD PUSH2 0x733 SWAP1 PUSH2 0x3865 JUMP JUMPDEST DUP1 ISZERO PUSH2 0x780 JUMPI DUP1 PUSH1 0x1F LT PUSH2 0x755 JUMPI PUSH2 0x100 DUP1 DUP4 SLOAD DIV MUL DUP4 MSTORE SWAP2 PUSH1 0x20 ADD SWAP2 PUSH2 0x780 JUMP JUMPDEST DUP3 ADD SWAP2 SWAP1 PUSH1 0x0 MSTORE PUSH1 0x20 PUSH1 0x0 KECCAK256 SWAP1 JUMPDEST DUP2 SLOAD DUP2 MSTORE SWAP1 PUSH1 0x1 ADD SWAP1 PUSH1 0x20 ADD DUP1 DUP4 GT PUSH2 0x763 JUMPI DUP3 SWAP1 SUB PUSH1 0x1F AND DUP3 ADD SWAP2 JUMPDEST POP POP POP POP POP DUP2 MSTORE POP POP SWAP1 POP SWAP2 SWAP1 POP JUMP JUMPDEST PUSH1 0x60 PUSH2 0x7D9 PUSH1 0x6 PUSH1 0x0 DUP7 PUSH20 0xFFFFFFFFFFFFFFFFFFFFFFFFFFFFFFFFFFFFFFFF AND PUSH20 0xFFFFFFFFFFFFFFFFFFFFFFFFFFFFFFFFFFFFFFFF AND DUP2 MSTORE PUSH1 0x20 ADD SWAP1 DUP2 MSTORE PUSH1 0x20 ADD PUSH1 0x0 KECCAK256 PUSH2 0x1874 JUMP JUMPDEST DUP3 LT PUSH2 0x835 JUMPI PUSH1 0x1 PUSH2 0x828 PUSH1 0x6 PUSH1 0x0 DUP8 PUSH20 0xFFFFFFFFFFFFFFFFFFFFFFFFFFFFFFFFFFFFFFFF AND PUSH20 0xFFFFFFFFFFFFFFFFFFFFFFFFFFFFFFFFFFFFFFFF AND DUP2 MSTORE PUSH1 0x20 ADD SWAP1 DUP2 MSTORE PUSH1 0x20 ADD PUSH1 0x0 KECCAK256 PUSH2 0x1874 JUMP JUMPDEST PUSH2 0x832 SWAP2 SWAP1 PUSH2 0x37A7 JUMP JUMPDEST SWAP2 POP JUMPDEST PUSH1 0x0 PUSH1 0x1 DUP5 DUP5 PUSH2 0x845 SWAP2 SWAP1 PUSH2 0x37A7 JUMP JUMPDEST PUSH2 0x84F SWAP2 SWAP1 PUSH2 0x3751 JUMP JUMPDEST SWAP1 POP PUSH1 0x0 DUP2 PUSH8 0xFFFFFFFFFFFFFFFF DUP2 GT ISZERO PUSH2 0x893 JUMPI PUSH32 0x4E487B7100000000000000000000000000000000000000000000000000000000 PUSH1 0x0 MSTORE PUSH1 0x41 PUSH1 0x4 MSTORE PUSH1 0x24 PUSH1 0x0 REVERT JUMPDEST PUSH1 0x40 MLOAD SWAP1 DUP1 DUP3 MSTORE DUP1 PUSH1 0x20 MUL PUSH1 0x20 ADD DUP3 ADD PUSH1 0x40 MSTORE DUP1 ISZERO PUSH2 0x8CC JUMPI DUP2 PUSH1 0x20 ADD JUMPDEST PUSH2 0x8B9 PUSH2 0x27EE JUMP JUMPDEST DUP2 MSTORE PUSH1 0x20 ADD SWAP1 PUSH1 0x1 SWAP1 SUB SWAP1 DUP2 PUSH2 0x8B1 JUMPI SWAP1 POP JUMPDEST POP SWAP1 POP PUSH1 0x0 DUP1 DUP7 SWAP1 POP JUMPDEST DUP6 DUP2 GT PUSH2 0x99B JUMPI PUSH2 0x936 PUSH2 0x931 DUP3 PUSH1 0x6 PUSH1 0x0 DUP13 PUSH20 0xFFFFFFFFFFFFFFFFFFFFFFFFFFFFFFFFFFFFFFFF AND PUSH20 0xFFFFFFFFFFFFFFFFFFFFFFFFFFFFFFFFFFFFFFFF AND DUP2 MSTORE PUSH1 0x20 ADD SWAP1 DUP2 MSTORE PUSH1 0x20 ADD PUSH1 0x0 KECCAK256 PUSH2 0x1889 SWAP1 SWAP2 SWAP1 PUSH4 0xFFFFFFFF AND JUMP JUMPDEST PUSH2 0x3E2 JUMP JUMPDEST DUP4 DUP4 DUP2 MLOAD DUP2 LT PUSH2 0x96F JUMPI PUSH32 0x4E487B7100000000000000000000000000000000000000000000000000000000 PUSH1 0x0 MSTORE PUSH1 0x32 PUSH1 0x4 MSTORE PUSH1 0x24 PUSH1 0x0 REVERT JUMPDEST PUSH1 0x20 MUL PUSH1 0x20 ADD ADD DUP2 SWAP1 MSTORE POP DUP2 DUP1 PUSH2 0x985 SWAP1 PUSH2 0x38C8 JUMP JUMPDEST SWAP3 POP POP DUP1 DUP1 PUSH2 0x993 SWAP1 PUSH2 0x38C8 JUMP JUMPDEST SWAP2 POP POP PUSH2 0x8D6 JUMP JUMPDEST POP DUP2 SWAP4 POP POP POP POP SWAP4 SWAP3 POP POP POP JUMP JUMPDEST PUSH1 0x0 PUSH2 0x9B5 PUSH1 0x3 PUSH2 0x18A3 JUMP JUMPDEST SWAP1 POP SWAP1 JUMP JUMPDEST DUP2 PUSH2 0x9C4 DUP2 PUSH2 0x181E JUMP JUMPDEST POP PUSH1 0x0 PUSH1 0x1 DUP5 DUP2 SLOAD DUP2 LT PUSH2 0xA01 JUMPI PUSH32 0x4E487B7100000000000000000000000000000000000000000000000000000000 PUSH1 0x0 MSTORE PUSH1 0x32 PUSH1 0x4 MSTORE PUSH1 0x24 PUSH1 0x0 REVERT JUMPDEST SWAP1 PUSH1 0x0 MSTORE PUSH1 0x20 PUSH1 0x0 KECCAK256 SWAP1 PUSH1 0x8 MUL ADD SWAP1 POP PUSH1 0x0 DUP2 PUSH1 0x2 ADD PUSH1 0x0 SWAP1 SLOAD SWAP1 PUSH2 0x100 EXP SWAP1 DIV PUSH20 0xFFFFFFFFFFFFFFFFFFFFFFFFFFFFFFFFFFFFFFFF AND SWAP1 POP CALLER PUSH20 0xFFFFFFFFFFFFFFFFFFFFFFFFFFFFFFFFFFFFFFFF AND DUP2 PUSH20 0xFFFFFFFFFFFFFFFFFFFFFFFFFFFFFFFFFFFFFFFF AND EQ PUSH2 0xAA8 JUMPI PUSH1 0x40 MLOAD PUSH32 0x8C379A000000000000000000000000000000000000000000000000000000000 DUP2 MSTORE PUSH1 0x4 ADD PUSH2 0xA9F SWAP1 PUSH2 0x3457 JUMP JUMPDEST PUSH1 0x40 MLOAD DUP1 SWAP2 SUB SWAP1 REVERT JUMPDEST DUP4 DUP3 PUSH1 0x2 ADD PUSH1 0x0 PUSH2 0x100 EXP DUP2 SLOAD DUP2 PUSH20 0xFFFFFFFFFFFFFFFFFFFFFFFFFFFFFFFFFFFFFFFF MUL NOT AND SWAP1 DUP4 PUSH20 0xFFFFFFFFFFFFFFFFFFFFFFFFFFFFFFFFFFFFFFFF AND MUL OR SWAP1 SSTORE POP PUSH2 0xB3C DUP6 PUSH1 0x2 PUSH1 0x0 DUP5 PUSH20 0xFFFFFFFFFFFFFFFFFFFFFFFFFFFFFFFFFFFFFFFF AND PUSH20 0xFFFFFFFFFFFFFFFFFFFFFFFFFFFFFFFFFFFFFFFF AND DUP2 MSTORE PUSH1 0x20 ADD SWAP1 DUP2 MSTORE PUSH1 0x20 ADD PUSH1 0x0 KECCAK256 PUSH2 0x18B8 SWAP1 SWAP2 SWAP1 PUSH4 0xFFFFFFFF AND JUMP JUMPDEST POP PUSH2 0xB8E DUP6 PUSH1 0x2 PUSH1 0x0 DUP8 PUSH20 0xFFFFFFFFFFFFFFFFFFFFFFFFFFFFFFFFFFFFFFFF AND PUSH20 0xFFFFFFFFFFFFFFFFFFFFFFFFFFFFFFFFFFFFFFFF AND DUP2 MSTORE PUSH1 0x20 ADD SWAP1 DUP2 MSTORE PUSH1 0x20 ADD PUSH1 0x0 KECCAK256 PUSH2 0x18D2 SWAP1 SWAP2 SWAP1 PUSH4 0xFFFFFFFF AND JUMP JUMPDEST POP PUSH32 0x9075AD040756C0D8743A1FED927066A92C4755071615BF61E04B17583D961CAF DUP6 DUP3 DUP7 PUSH1 0x40 MLOAD PUSH2 0xBC2 SWAP4 SWAP3 SWAP2 SWAP1 PUSH2 0x360F JUMP JUMPDEST PUSH1 0x40 MLOAD DUP1 SWAP2 SUB SWAP1 LOG1 POP POP POP POP POP JUMP JUMPDEST PUSH1 0x0 DUP1 PUSH1 0x0 SWAP1 SLOAD SWAP1 PUSH2 0x100 EXP SWAP1 DIV PUSH1 0xFF AND SWAP1 POP SWAP1 JUMP JUMPDEST PUSH2 0xBEF PUSH2 0x27EE JUMP JUMPDEST DUP2 PUSH2 0xBF9 DUP5 PUSH2 0x17C1 JUMP JUMPDEST GT PUSH2 0xC39 JUMPI PUSH1 0x40 MLOAD PUSH32 0x8C379A000000000000000000000000000000000000000000000000000000000 DUP2 MSTORE PUSH1 0x4 ADD PUSH2 0xC30 SWAP1 PUSH2 0x3417 JUMP JUMPDEST PUSH1 0x40 MLOAD DUP1 SWAP2 SUB SWAP1 REVERT JUMPDEST PUSH2 0xC92 PUSH2 0xC8D DUP4 PUSH1 0x2 PUSH1 0x0 DUP8 PUSH20 0xFFFFFFFFFFFFFFFFFFFFFFFFFFFFFFFFFFFFFFFF AND PUSH20 0xFFFFFFFFFFFFFFFFFFFFFFFFFFFFFFFFFFFFFFFF AND DUP2 MSTORE PUSH1 0x20 ADD SWAP1 DUP2 MSTORE PUSH1 0x20 ADD PUSH1 0x0 KECCAK256 PUSH2 0x1889 SWAP1 SWAP2 SWAP1 PUSH4 0xFFFFFFFF AND JUMP JUMPDEST PUSH2 0x3E2 JUMP JUMPDEST SWAP1 POP SWAP3 SWAP2 POP POP JUMP JUMPDEST DUP1 PUSH2 0xCA4 DUP2 PUSH2 0x181E JUMP JUMPDEST POP PUSH1 0x0 PUSH1 0x1 DUP4 DUP2 SLOAD DUP2 LT PUSH2 0xCE1 JUMPI PUSH32 0x4E487B7100000000000000000000000000000000000000000000000000000000 PUSH1 0x0 MSTORE PUSH1 0x32 PUSH1 0x4 MSTORE PUSH1 0x24 PUSH1 0x0 REVERT JUMPDEST SWAP1 PUSH1 0x0 MSTORE PUSH1 0x20 PUSH1 0x0 KECCAK256 SWAP1 PUSH1 0x8 MUL ADD SWAP1 POP CALLER PUSH20 0xFFFFFFFFFFFFFFFFFFFFFFFFFFFFFFFFFFFFFFFF AND DUP2 PUSH1 0x2 ADD PUSH1 0x0 SWAP1 SLOAD SWAP1 PUSH2 0x100 EXP SWAP1 DIV PUSH20 0xFFFFFFFFFFFFFFFFFFFFFFFFFFFFFFFFFFFFFFFF AND PUSH20 0xFFFFFFFFFFFFFFFFFFFFFFFFFFFFFFFFFFFFFFFF AND EQ PUSH2 0xD83 JUMPI PUSH1 0x40 MLOAD PUSH32 0x8C379A000000000000000000000000000000000000000000000000000000000 DUP2 MSTORE PUSH1 0x4 ADD PUSH2 0xD7A SWAP1 PUSH2 0x3457 JUMP JUMPDEST PUSH1 0x40 MLOAD DUP1 SWAP2 SUB SWAP1 REVERT JUMPDEST PUSH2 0xD8C DUP2 PUSH2 0x18EC JUMP JUMPDEST POP POP POP JUMP JUMPDEST PUSH1 0x60 PUSH2 0xD9D PUSH1 0x3 PUSH2 0x18A3 JUMP JUMPDEST DUP3 LT PUSH2 0xDBC JUMPI PUSH1 0x1 PUSH2 0xDAF PUSH1 0x3 PUSH2 0x18A3 JUMP JUMPDEST PUSH2 0xDB9 SWAP2 SWAP1 PUSH2 0x37A7 JUMP JUMPDEST SWAP2 POP JUMPDEST PUSH1 0x0 PUSH1 0x1 DUP5 DUP5 PUSH2 0xDCC SWAP2 SWAP1 PUSH2 0x37A7 JUMP JUMPDEST PUSH2 0xDD6 SWAP2 SWAP1 PUSH2 0x3751 JUMP JUMPDEST SWAP1 POP PUSH1 0x0 DUP2 PUSH8 0xFFFFFFFFFFFFFFFF DUP2 GT ISZERO PUSH2 0xE1A JUMPI PUSH32 0x4E487B7100000000000000000000000000000000000000000000000000000000 PUSH1 0x0 MSTORE PUSH1 0x41 PUSH1 0x4 MSTORE PUSH1 0x24 PUSH1 0x0 REVERT JUMPDEST PUSH1 0x40 MLOAD SWAP1 DUP1 DUP3 MSTORE DUP1 PUSH1 0x20 MUL PUSH1 0x20 ADD DUP3 ADD PUSH1 0x40 MSTORE DUP1 ISZERO PUSH2 0xE53 JUMPI DUP2 PUSH1 0x20 ADD JUMPDEST PUSH2 0xE40 PUSH2 0x285F JUMP JUMPDEST DUP2 MSTORE PUSH1 0x20 ADD SWAP1 PUSH1 0x1 SWAP1 SUB SWAP1 DUP2 PUSH2 0xE38 JUMPI SWAP1 POP JUMPDEST POP SWAP1 POP PUSH1 0x0 DUP1 DUP7 SWAP1 POP JUMPDEST DUP6 DUP2 GT PUSH2 0xF86 JUMPI PUSH1 0x5 PUSH1 0x0 PUSH2 0xE7C DUP4 PUSH1 0x3 PUSH2 0x1BF7 SWAP1 SWAP2 SWAP1 PUSH4 0xFFFFFFFF AND JUMP JUMPDEST PUSH20 0xFFFFFFFFFFFFFFFFFFFFFFFFFFFFFFFFFFFFFFFF AND PUSH20 0xFFFFFFFFFFFFFFFFFFFFFFFFFFFFFFFFFFFFFFFF AND DUP2 MSTORE PUSH1 0x20 ADD SWAP1 DUP2 MSTORE PUSH1 0x20 ADD PUSH1 0x0 KECCAK256 PUSH1 0x40 MLOAD DUP1 PUSH1 0x40 ADD PUSH1 0x40 MSTORE SWAP1 DUP2 PUSH1 0x0 DUP3 ADD PUSH1 0x0 SWAP1 SLOAD SWAP1 PUSH2 0x100 EXP SWAP1 DIV PUSH20 0xFFFFFFFFFFFFFFFFFFFFFFFFFFFFFFFFFFFFFFFF AND PUSH20 0xFFFFFFFFFFFFFFFFFFFFFFFFFFFFFFFFFFFFFFFF AND PUSH20 0xFFFFFFFFFFFFFFFFFFFFFFFFFFFFFFFFFFFFFFFF AND DUP2 MSTORE PUSH1 0x20 ADD PUSH1 0x1 DUP3 ADD SLOAD DUP2 MSTORE POP POP DUP4 DUP4 DUP2 MLOAD DUP2 LT PUSH2 0xF5A JUMPI PUSH32 0x4E487B7100000000000000000000000000000000000000000000000000000000 PUSH1 0x0 MSTORE PUSH1 0x32 PUSH1 0x4 MSTORE PUSH1 0x24 PUSH1 0x0 REVERT JUMPDEST PUSH1 0x20 MUL PUSH1 0x20 ADD ADD DUP2 SWAP1 MSTORE POP DUP2 DUP1 PUSH2 0xF70 SWAP1 PUSH2 0x38C8 JUMP JUMPDEST SWAP3 POP POP DUP1 DUP1 PUSH2 0xF7E SWAP1 PUSH2 0x38C8 JUMP JUMPDEST SWAP2 POP POP PUSH2 0xE5D JUMP JUMPDEST POP DUP2 SWAP4 POP POP POP POP SWAP3 SWAP2 POP POP JUMP JUMPDEST PUSH2 0xF9B PUSH2 0x285F JUMP JUMPDEST PUSH1 0x5 PUSH1 0x0 PUSH2 0xFB3 DUP5 PUSH1 0x3 PUSH2 0x1BF7 SWAP1 SWAP2 SWAP1 PUSH4 0xFFFFFFFF AND JUMP JUMPDEST PUSH20 0xFFFFFFFFFFFFFFFFFFFFFFFFFFFFFFFFFFFFFFFF AND PUSH20 0xFFFFFFFFFFFFFFFFFFFFFFFFFFFFFFFFFFFFFFFF AND DUP2 MSTORE PUSH1 0x20 ADD SWAP1 DUP2 MSTORE PUSH1 0x20 ADD PUSH1 0x0 KECCAK256 PUSH1 0x40 MLOAD DUP1 PUSH1 0x40 ADD PUSH1 0x40 MSTORE SWAP1 DUP2 PUSH1 0x0 DUP3 ADD PUSH1 0x0 SWAP1 SLOAD SWAP1 PUSH2 0x100 EXP SWAP1 DIV PUSH20 0xFFFFFFFFFFFFFFFFFFFFFFFFFFFFFFFFFFFFFFFF AND PUSH20 0xFFFFFFFFFFFFFFFFFFFFFFFFFFFFFFFFFFFFFFFF AND PUSH20 0xFFFFFFFFFFFFFFFFFFFFFFFFFFFFFFFFFFFFFFFF AND DUP2 MSTORE PUSH1 0x20 ADD PUSH1 0x1 DUP3 ADD SLOAD DUP2 MSTORE POP POP SWAP1 POP SWAP2 SWAP1 POP JUMP JUMPDEST PUSH1 0x0 TIMESTAMP DUP4 GT PUSH2 0x10A3 JUMPI PUSH1 0x40 MLOAD PUSH32 0x8C379A000000000000000000000000000000000000000000000000000000000 DUP2 MSTORE PUSH1 0x4 ADD PUSH2 0x109A SWAP1 PUSH2 0x33F7 JUMP JUMPDEST PUSH1 0x40 MLOAD DUP1 SWAP2 SUB SWAP1 REVERT JUMPDEST PUSH1 0x0 DUP5 GT PUSH2 0x10E6 JUMPI PUSH1 0x40 MLOAD PUSH32 0x8C379A000000000000000000000000000000000000000000000000000000000 DUP2 MSTORE PUSH1 0x4 ADD PUSH2 0x10DD SWAP1 PUSH2 0x34B7 JUMP JUMPDEST PUSH1 0x40 MLOAD DUP1 SWAP2 SUB SWAP1 REVERT JUMPDEST PUSH2 0x10F3 DUP7 DUP7 DUP7 DUP7 DUP7 PUSH2 0x1C11 JUMP JUMPDEST SWAP1 POP PUSH2 0x1101 DUP6 CALLER ADDRESS DUP8 PUSH2 0x1C2B JUMP JUMPDEST DUP1 PUSH32 0x694AF1CC8727CDD0AFBDD53D9B87B69248BD490224E9DD090E788546506E076F DUP7 DUP9 DUP8 DUP8 PUSH1 0x40 MLOAD PUSH2 0x1137 SWAP5 SWAP4 SWAP3 SWAP2 SWAP1 PUSH2 0x32E8 JUMP JUMPDEST PUSH1 0x40 MLOAD DUP1 SWAP2 SUB SWAP1 LOG2 SWAP6 SWAP5 POP POP POP POP POP JUMP JUMPDEST PUSH2 0x1153 DUP2 PUSH1 0x0 PUSH2 0x9BA JUMP JUMPDEST POP JUMP JUMPDEST DUP3 PUSH2 0x1160 DUP2 PUSH2 0x181E JUMP JUMPDEST POP PUSH1 0x0 PUSH1 0x1 DUP6 DUP2 SLOAD DUP2 LT PUSH2 0x119D JUMPI PUSH32 0x4E487B7100000000000000000000000000000000000000000000000000000000 PUSH1 0x0 MSTORE PUSH1 0x32 PUSH1 0x4 MSTORE PUSH1 0x24 PUSH1 0x0 REVERT JUMPDEST SWAP1 PUSH1 0x0 MSTORE PUSH1 0x20 PUSH1 0x0 KECCAK256 SWAP1 PUSH1 0x8 MUL ADD SWAP1 POP CALLER PUSH20 0xFFFFFFFFFFFFFFFFFFFFFFFFFFFFFFFFFFFFFFFF AND DUP2 PUSH1 0x2 ADD PUSH1 0x0 SWAP1 SLOAD SWAP1 PUSH2 0x100 EXP SWAP1 DIV PUSH20 0xFFFFFFFFFFFFFFFFFFFFFFFFFFFFFFFFFFFFFFFF AND PUSH20 0xFFFFFFFFFFFFFFFFFFFFFFFFFFFFFFFFFFFFFFFF AND EQ PUSH2 0x123F JUMPI PUSH1 0x40 MLOAD PUSH32 0x8C379A000000000000000000000000000000000000000000000000000000000 DUP2 MSTORE PUSH1 0x4 ADD PUSH2 0x1236 SWAP1 PUSH2 0x3457 JUMP JUMPDEST PUSH1 0x40 MLOAD DUP1 SWAP2 SUB SWAP1 REVERT JUMPDEST PUSH1 0x0 DUP2 PUSH1 0x6 ADD SLOAD EQ PUSH2 0x1286 JUMPI PUSH1 0x40 MLOAD PUSH32 0x8C379A000000000000000000000000000000000000000000000000000000000 DUP2 MSTORE PUSH1 0x4 ADD PUSH2 0x127D SWAP1 PUSH2 0x33D7 JUMP JUMPDEST PUSH1 0x40 MLOAD DUP1 SWAP2 SUB SWAP1 REVERT JUMPDEST PUSH1 0x0 DUP4 GT ISZERO PUSH2 0x12EB JUMPI DUP1 PUSH1 0x5 ADD SLOAD DUP4 LT ISZERO DUP1 ISZERO PUSH2 0x12A2 JUMPI POP TIMESTAMP DUP4 GT JUMPDEST PUSH2 0x12E1 JUMPI PUSH1 0x40 MLOAD PUSH32 0x8C379A000000000000000000000000000000000000000000000000000000000 DUP2 MSTORE PUSH1 0x4 ADD PUSH2 0x12D8 SWAP1 PUSH2 0x3577 JUMP JUMPDEST PUSH1 0x40 MLOAD DUP1 SWAP2 SUB SWAP1 REVERT JUMPDEST DUP3 DUP2 PUSH1 0x5 ADD DUP2 SWAP1 SSTORE POP JUMPDEST PUSH1 0x0 DUP5 GT ISZERO PUSH2 0x1414 JUMPI DUP1 PUSH1 0x3 ADD SLOAD DUP5 LT ISZERO PUSH2 0x133B JUMPI PUSH1 0x40 MLOAD PUSH32 0x8C379A000000000000000000000000000000000000000000000000000000000 DUP2 MSTORE PUSH1 0x4 ADD PUSH2 0x1332 SWAP1 PUSH2 0x3517 JUMP JUMPDEST PUSH1 0x40 MLOAD DUP1 SWAP2 SUB SWAP1 REVERT JUMPDEST PUSH1 0x0 DUP2 PUSH1 0x3 ADD SLOAD DUP6 PUSH2 0x134D SWAP2 SWAP1 PUSH2 0x37A7 JUMP JUMPDEST SWAP1 POP PUSH1 0x0 DUP2 GT ISZERO PUSH2 0x1412 JUMPI DUP5 DUP3 PUSH1 0x3 ADD DUP2 SWAP1 SSTORE POP PUSH1 0x0 PUSH1 0x5 PUSH1 0x0 DUP5 PUSH1 0x1 ADD PUSH1 0x0 SWAP1 SLOAD SWAP1 PUSH2 0x100 EXP SWAP1 DIV PUSH20 0xFFFFFFFFFFFFFFFFFFFFFFFFFFFFFFFFFFFFFFFF AND PUSH20 0xFFFFFFFFFFFFFFFFFFFFFFFFFFFFFFFFFFFFFFFF AND PUSH20 0xFFFFFFFFFFFFFFFFFFFFFFFFFFFFFFFFFFFFFFFF AND DUP2 MSTORE PUSH1 0x20 ADD SWAP1 DUP2 MSTORE PUSH1 0x20 ADD PUSH1 0x0 KECCAK256 SWAP1 POP DUP2 DUP2 PUSH1 0x1 ADD SLOAD PUSH2 0x13D8 SWAP2 SWAP1 PUSH2 0x3751 JUMP JUMPDEST DUP2 PUSH1 0x1 ADD DUP2 SWAP1 SSTORE POP PUSH2 0x1410 DUP4 PUSH1 0x1 ADD PUSH1 0x0 SWAP1 SLOAD SWAP1 PUSH2 0x100 EXP SWAP1 DIV PUSH20 0xFFFFFFFFFFFFFFFFFFFFFFFFFFFFFFFFFFFFFFFF AND CALLER ADDRESS DUP6 PUSH2 0x1C2B JUMP JUMPDEST POP JUMPDEST POP JUMPDEST DUP1 PUSH1 0x0 ADD SLOAD PUSH32 0xA8B26360DF8D5E154FFA5A8A7E894E85F781ACFBBEF0B744FB9551D8FD0FD36C DUP3 PUSH1 0x1 ADD PUSH1 0x0 SWAP1 SLOAD SWAP1 PUSH2 0x100 EXP SWAP1 DIV PUSH20 0xFFFFFFFFFFFFFFFFFFFFFFFFFFFFFFFFFFFFFFFF AND DUP4 PUSH1 0x2 ADD PUSH1 0x0 SWAP1 SLOAD SWAP1 PUSH2 0x100 EXP SWAP1 DIV PUSH20 0xFFFFFFFFFFFFFFFFFFFFFFFFFFFFFFFFFFFFFFFF AND DUP5 PUSH1 0x3 ADD SLOAD DUP6 PUSH1 0x5 ADD SLOAD PUSH1 0x40 MLOAD PUSH2 0x149E SWAP5 SWAP4 SWAP3 SWAP2 SWAP1 PUSH2 0x32E8 JUMP JUMPDEST PUSH1 0x40 MLOAD DUP1 SWAP2 SUB SWAP1 LOG2 POP POP POP POP POP JUMP JUMPDEST DUP2 PUSH2 0x14B7 DUP2 PUSH2 0x181E JUMP JUMPDEST POP PUSH1 0x0 PUSH1 0x1 DUP5 DUP2 SLOAD DUP2 LT PUSH2 0x14F4 JUMPI PUSH32 0x4E487B7100000000000000000000000000000000000000000000000000000000 PUSH1 0x0 MSTORE PUSH1 0x32 PUSH1 0x4 MSTORE PUSH1 0x24 PUSH1 0x0 REVERT JUMPDEST SWAP1 PUSH1 0x0 MSTORE PUSH1 0x20 PUSH1 0x0 KECCAK256 SWAP1 PUSH1 0x8 MUL ADD SWAP1 POP CALLER PUSH20 0xFFFFFFFFFFFFFFFFFFFFFFFFFFFFFFFFFFFFFFFF AND DUP2 PUSH1 0x2 ADD PUSH1 0x0 SWAP1 SLOAD SWAP1 PUSH2 0x100 EXP SWAP1 DIV PUSH20 0xFFFFFFFFFFFFFFFFFFFFFFFFFFFFFFFFFFFFFFFF AND PUSH20 0xFFFFFFFFFFFFFFFFFFFFFFFFFFFFFFFFFFFFFFFF AND EQ PUSH2 0x1596 JUMPI PUSH1 0x40 MLOAD PUSH32 0x8C379A000000000000000000000000000000000000000000000000000000000 DUP2 MSTORE PUSH1 0x4 ADD PUSH2 0x158D SWAP1 PUSH2 0x3457 JUMP JUMPDEST PUSH1 0x40 MLOAD DUP1 SWAP2 SUB SWAP1 REVERT JUMPDEST DUP3 DUP2 PUSH1 0x7 ADD SWAP1 DUP1 MLOAD SWAP1 PUSH1 0x20 ADD SWAP1 PUSH2 0x15AE SWAP3 SWAP2 SWAP1 PUSH2 0x288F JUMP JUMPDEST POP PUSH32 0xE4A1120FD509C50AEC65802FD3C3C9A4B72BF746FE9A552396185C6DE928E8AA DUP5 PUSH1 0x40 MLOAD PUSH2 0x15DE SWAP2 SWAP1 PUSH2 0x35F4 JUMP JUMPDEST PUSH1 0x40 MLOAD DUP1 SWAP2 SUB SWAP1 LOG1 POP POP POP POP JUMP JUMPDEST PUSH1 0x60 PUSH1 0x0 PUSH2 0x1637 PUSH1 0x2 PUSH1 0x0 DUP6 PUSH20 0xFFFFFFFFFFFFFFFFFFFFFFFFFFFFFFFFFFFFFFFF AND PUSH20 0xFFFFFFFFFFFFFFFFFFFFFFFFFFFFFFFFFFFFFFFF AND DUP2 MSTORE PUSH1 0x20 ADD SWAP1 DUP2 MSTORE PUSH1 0x20 ADD PUSH1 0x0 KECCAK256 PUSH2 0x1874 JUMP JUMPDEST SWAP1 POP PUSH1 0x0 DUP2 PUSH8 0xFFFFFFFFFFFFFFFF DUP2 GT ISZERO PUSH2 0x167B JUMPI PUSH32 0x4E487B7100000000000000000000000000000000000000000000000000000000 PUSH1 0x0 MSTORE PUSH1 0x41 PUSH1 0x4 MSTORE PUSH1 0x24 PUSH1 0x0 REVERT JUMPDEST PUSH1 0x40 MLOAD SWAP1 DUP1 DUP3 MSTORE DUP1 PUSH1 0x20 MUL PUSH1 0x20 ADD DUP3 ADD PUSH1 0x40 MSTORE DUP1 ISZERO PUSH2 0x16B4 JUMPI DUP2 PUSH1 0x20 ADD JUMPDEST PUSH2 0x16A1 PUSH2 0x27EE JUMP JUMPDEST DUP2 MSTORE PUSH1 0x20 ADD SWAP1 PUSH1 0x1 SWAP1 SUB SWAP1 DUP2 PUSH2 0x1699 JUMPI SWAP1 POP JUMPDEST POP SWAP1 POP PUSH1 0x0 JUMPDEST DUP3 DUP2 LT ISZERO PUSH2 0x1772 JUMPI PUSH2 0x171B PUSH2 0x1716 DUP3 PUSH1 0x2 PUSH1 0x0 DUP10 PUSH20 0xFFFFFFFFFFFFFFFFFFFFFFFFFFFFFFFFFFFFFFFF AND PUSH20 0xFFFFFFFFFFFFFFFFFFFFFFFFFFFFFFFFFFFFFFFF AND DUP2 MSTORE PUSH1 0x20 ADD SWAP1 DUP2 MSTORE PUSH1 0x20 ADD PUSH1 0x0 KECCAK256 PUSH2 0x1889 SWAP1 SWAP2 SWAP1 PUSH4 0xFFFFFFFF AND JUMP JUMPDEST PUSH2 0x3E2 JUMP JUMPDEST DUP3 DUP3 DUP2 MLOAD DUP2 LT PUSH2 0x1754 JUMPI PUSH32 0x4E487B7100000000000000000000000000000000000000000000000000000000 PUSH1 0x0 MSTORE PUSH1 0x32 PUSH1 0x4 MSTORE PUSH1 0x24 PUSH1 0x0 REVERT JUMPDEST PUSH1 0x20 MUL PUSH1 0x20 ADD ADD DUP2 SWAP1 MSTORE POP DUP1 DUP1 PUSH2 0x176A SWAP1 PUSH2 0x38C8 JUMP JUMPDEST SWAP2 POP POP PUSH2 0x16BA JUMP JUMPDEST POP DUP1 SWAP3 POP POP POP SWAP2 SWAP1 POP JUMP JUMPDEST PUSH1 0x5 PUSH1 0x20 MSTORE DUP1 PUSH1 0x0 MSTORE PUSH1 0x40 PUSH1 0x0 KECCAK256 PUSH1 0x0 SWAP2 POP SWAP1 POP DUP1 PUSH1 0x0 ADD PUSH1 0x0 SWAP1 SLOAD SWAP1 PUSH2 0x100 EXP SWAP1 DIV PUSH20 0xFFFFFFFFFFFFFFFFFFFFFFFFFFFFFFFFFFFFFFFF AND SWAP1 DUP1 PUSH1 0x1 ADD SLOAD SWAP1 POP DUP3 JUMP JUMPDEST PUSH1 0x0 PUSH2 0x180A PUSH1 0x2 PUSH1 0x0 DUP5 PUSH20 0xFFFFFFFFFFFFFFFFFFFFFFFFFFFFFFFFFFFFFFFF AND PUSH20 0xFFFFFFFFFFFFFFFFFFFFFFFFFFFFFFFFFFFFFFFF AND DUP2 MSTORE PUSH1 0x20 ADD SWAP1 DUP2 MSTORE PUSH1 0x20 ADD PUSH1 0x0 KECCAK256 PUSH2 0x1874 JUMP JUMPDEST SWAP1 POP SWAP2 SWAP1 POP JUMP JUMPDEST PUSH1 0x0 PUSH1 0x1 DUP1 SLOAD SWAP1 POP SWAP1 POP SWAP1 JUMP JUMPDEST PUSH1 0x0 DUP1 DUP3 SWAP1 POP PUSH1 0x1 DUP1 SLOAD SWAP1 POP DUP2 LT PUSH2 0x186B JUMPI PUSH1 0x40 MLOAD PUSH32 0x8C379A000000000000000000000000000000000000000000000000000000000 DUP2 MSTORE PUSH1 0x4 ADD PUSH2 0x1862 SWAP1 PUSH2 0x3497 JUMP JUMPDEST PUSH1 0x40 MLOAD DUP1 SWAP2 SUB SWAP1 REVERT JUMPDEST DUP1 SWAP2 POP POP SWAP2 SWAP1 POP JUMP JUMPDEST PUSH1 0x0 PUSH2 0x1882 DUP3 PUSH1 0x0 ADD PUSH2 0x1DC7 JUMP JUMPDEST SWAP1 POP SWAP2 SWAP1 POP JUMP JUMPDEST PUSH1 0x0 PUSH2 0x1898 DUP4 PUSH1 0x0 ADD DUP4 PUSH2 0x1DD8 JUMP JUMPDEST PUSH1 0x0 SHR SWAP1 POP SWAP3 SWAP2 POP POP JUMP JUMPDEST PUSH1 0x0 PUSH2 0x18B1 DUP3 PUSH1 0x0 ADD PUSH2 0x1DC7 JUMP JUMPDEST SWAP1 POP SWAP2 SWAP1 POP JUMP JUMPDEST PUSH1 0x0 PUSH2 0x18CA DUP4 PUSH1 0x0 ADD DUP4 PUSH1 0x0 SHL PUSH2 0x1E29 JUMP JUMPDEST SWAP1 POP SWAP3 SWAP2 POP POP JUMP JUMPDEST PUSH1 0x0 PUSH2 0x18E4 DUP4 PUSH1 0x0 ADD DUP4 PUSH1 0x0 SHL PUSH2 0x1FAF JUMP JUMPDEST SWAP1 POP SWAP3 SWAP2 POP POP JUMP JUMPDEST DUP1 PUSH1 0x5 ADD SLOAD TIMESTAMP LT ISZERO PUSH2 0x1933 JUMPI PUSH1 0x40 MLOAD PUSH32 0x8C379A000000000000000000000000000000000000000000000000000000000 DUP2 MSTORE PUSH1 0x4 ADD PUSH2 0x192A SWAP1 PUSH2 0x3557 JUMP JUMPDEST PUSH1 0x40 MLOAD DUP1 SWAP2 SUB SWAP1 REVERT JUMPDEST PUSH1 0x0 DUP2 PUSH1 0x6 ADD SLOAD EQ PUSH2 0x197A JUMPI PUSH1 0x40 MLOAD PUSH32 0x8C379A000000000000000000000000000000000000000000000000000000000 DUP2 MSTORE PUSH1 0x4 ADD PUSH2 0x1971 SWAP1 PUSH2 0x34D7 JUMP JUMPDEST PUSH1 0x40 MLOAD DUP1 SWAP2 SUB SWAP1 REVERT JUMPDEST PUSH1 0x0 PUSH1 0x5 PUSH1 0x0 DUP4 PUSH1 0x1 ADD PUSH1 0x0 SWAP1 SLOAD SWAP1 PUSH2 0x100 EXP SWAP1 DIV PUSH20 0xFFFFFFFFFFFFFFFFFFFFFFFFFFFFFFFFFFFFFFFF AND PUSH20 0xFFFFFFFFFFFFFFFFFFFFFFFFFFFFFFFFFFFFFFFF AND PUSH20 0xFFFFFFFFFFFFFFFFFFFFFFFFFFFFFFFFFFFFFFFF AND DUP2 MSTORE PUSH1 0x20 ADD SWAP1 DUP2 MSTORE PUSH1 0x20 ADD PUSH1 0x0 KECCAK256 SWAP1 POP PUSH2 0x1A36 DUP3 PUSH1 0x0 ADD SLOAD PUSH1 0x2 PUSH1 0x0 CALLER PUSH20 0xFFFFFFFFFFFFFFFFFFFFFFFFFFFFFFFFFFFFFFFF AND PUSH20 0xFFFFFFFFFFFFFFFFFFFFFFFFFFFFFFFFFFFFFFFF AND DUP2 MSTORE PUSH1 0x20 ADD SWAP1 DUP2 MSTORE PUSH1 0x20 ADD PUSH1 0x0 KECCAK256 PUSH2 0x18B8 SWAP1 SWAP2 SWAP1 PUSH4 0xFFFFFFFF AND JUMP JUMPDEST POP PUSH1 0x0 DUP3 PUSH1 0x3 ADD SLOAD SWAP1 POP DUP1 DUP3 PUSH1 0x1 ADD SLOAD GT PUSH2 0x1A5A JUMPI PUSH1 0x0 DUP3 PUSH1 0x1 ADD DUP2 SWAP1 SSTORE POP PUSH2 0x1A73 JUMP JUMPDEST DUP1 DUP3 PUSH1 0x1 ADD SLOAD PUSH2 0x1A6A SWAP2 SWAP1 PUSH2 0x37A7 JUMP JUMPDEST DUP3 PUSH1 0x1 ADD DUP2 SWAP1 SSTORE POP JUMPDEST PUSH1 0x0 DUP3 PUSH1 0x1 ADD SLOAD EQ ISZERO PUSH2 0x1ABA JUMPI PUSH2 0x1AB8 DUP4 PUSH1 0x1 ADD PUSH1 0x0 SWAP1 SLOAD SWAP1 PUSH2 0x100 EXP SWAP1 DIV PUSH20 0xFFFFFFFFFFFFFFFFFFFFFFFFFFFFFFFFFFFFFFFF AND PUSH1 0x3 PUSH2 0x201F SWAP1 SWAP2 SWAP1 PUSH4 0xFFFFFFFF AND JUMP JUMPDEST POP JUMPDEST DUP1 DUP4 PUSH1 0x6 ADD DUP2 SWAP1 SSTORE POP PUSH2 0x1B3C DUP4 PUSH1 0x0 ADD SLOAD PUSH1 0x6 PUSH1 0x0 DUP7 PUSH1 0x1 ADD PUSH1 0x0 SWAP1 SLOAD SWAP1 PUSH2 0x100 EXP SWAP1 DIV PUSH20 0xFFFFFFFFFFFFFFFFFFFFFFFFFFFFFFFFFFFFFFFF AND PUSH20 0xFFFFFFFFFFFFFFFFFFFFFFFFFFFFFFFFFFFFFFFF AND PUSH20 0xFFFFFFFFFFFFFFFFFFFFFFFFFFFFFFFFFFFFFFFF AND DUP2 MSTORE PUSH1 0x20 ADD SWAP1 DUP2 MSTORE PUSH1 0x20 ADD PUSH1 0x0 KECCAK256 PUSH2 0x18B8 SWAP1 SWAP2 SWAP1 PUSH4 0xFFFFFFFF AND JUMP JUMPDEST POP PUSH2 0x1B8C CALLER DUP3 DUP6 PUSH1 0x1 ADD PUSH1 0x0 SWAP1 SLOAD SWAP1 PUSH2 0x100 EXP SWAP1 DIV PUSH20 0xFFFFFFFFFFFFFFFFFFFFFFFFFFFFFFFFFFFFFFFF AND PUSH20 0xFFFFFFFFFFFFFFFFFFFFFFFFFFFFFFFFFFFFFFFF AND PUSH2 0x204F SWAP1 SWAP3 SWAP2 SWAP1 PUSH4 0xFFFFFFFF AND JUMP JUMPDEST DUP3 PUSH1 0x0 ADD SLOAD PUSH32 0xC6532367992B32E42A62DD89FC3574876D97D081A263AA6E030F34B79B7E6E8B DUP5 PUSH1 0x1 ADD PUSH1 0x0 SWAP1 SLOAD SWAP1 PUSH2 0x100 EXP SWAP1 DIV PUSH20 0xFFFFFFFFFFFFFFFFFFFFFFFFFFFFFFFFFFFFFFFF AND CALLER DUP5 TIMESTAMP PUSH1 0x40 MLOAD PUSH2 0x1BEA SWAP5 SWAP4 SWAP3 SWAP2 SWAP1 PUSH2 0x32E8 JUMP JUMPDEST PUSH1 0x40 MLOAD DUP1 SWAP2 SUB SWAP1 LOG2 POP POP POP JUMP JUMPDEST PUSH1 0x0 PUSH2 0x1C06 DUP4 PUSH1 0x0 ADD DUP4 PUSH2 0x1DD8 JUMP JUMPDEST PUSH1 0x0 SHR SWAP1 POP SWAP3 SWAP2 POP POP JUMP JUMPDEST PUSH1 0x0 PUSH2 0x1C20 DUP7 DUP7 DUP7 DUP7 DUP7 PUSH2 0x20D5 JUMP JUMPDEST SWAP1 POP SWAP6 SWAP5 POP POP POP POP POP JUMP JUMPDEST PUSH1 0x0 DUP5 PUSH20 0xFFFFFFFFFFFFFFFFFFFFFFFFFFFFFFFFFFFFFFFF AND PUSH4 0x70A08231 DUP5 PUSH1 0x40 MLOAD DUP3 PUSH4 0xFFFFFFFF AND PUSH1 0xE0 SHL DUP2 MSTORE PUSH1 0x4 ADD PUSH2 0x1C66 SWAP2 SWAP1 PUSH2 0x3296 JUMP JUMPDEST PUSH1 0x20 PUSH1 0x40 MLOAD DUP1 DUP4 SUB DUP2 DUP7 DUP1 EXTCODESIZE ISZERO DUP1 ISZERO PUSH2 0x1C7E JUMPI PUSH1 0x0 DUP1 REVERT JUMPDEST POP GAS STATICCALL ISZERO DUP1 ISZERO PUSH2 0x1C92 JUMPI RETURNDATASIZE PUSH1 0x0 DUP1 RETURNDATACOPY RETURNDATASIZE PUSH1 0x0 REVERT JUMPDEST POP POP POP POP PUSH1 0x40 MLOAD RETURNDATASIZE PUSH1 0x1F NOT PUSH1 0x1F DUP3 ADD AND DUP3 ADD DUP1 PUSH1 0x40 MSTORE POP DUP2 ADD SWAP1 PUSH2 0x1CB6 SWAP2 SWAP1 PUSH2 0x2B83 JUMP JUMPDEST SWAP1 POP PUSH2 0x1CE5 DUP5 DUP5 DUP5 DUP9 PUSH20 0xFFFFFFFFFFFFFFFFFFFFFFFFFFFFFFFFFFFFFFFF AND PUSH2 0x22A1 SWAP1 SWAP4 SWAP3 SWAP2 SWAP1 PUSH4 0xFFFFFFFF AND JUMP JUMPDEST PUSH1 0x0 DUP6 PUSH20 0xFFFFFFFFFFFFFFFFFFFFFFFFFFFFFFFFFFFFFFFF AND PUSH4 0x70A08231 DUP6 PUSH1 0x40 MLOAD DUP3 PUSH4 0xFFFFFFFF AND PUSH1 0xE0 SHL DUP2 MSTORE PUSH1 0x4 ADD PUSH2 0x1D20 SWAP2 SWAP1 PUSH2 0x3296 JUMP JUMPDEST PUSH1 0x20 PUSH1 0x40 MLOAD DUP1 DUP4 SUB DUP2 DUP7 DUP1 EXTCODESIZE ISZERO DUP1 ISZERO PUSH2 0x1D38 JUMPI PUSH1 0x0 DUP1 REVERT JUMPDEST POP GAS STATICCALL ISZERO DUP1 ISZERO PUSH2 0x1D4C JUMPI RETURNDATASIZE PUSH1 0x0 DUP1 RETURNDATACOPY RETURNDATASIZE PUSH1 0x0 REVERT JUMPDEST POP POP POP POP PUSH1 0x40 MLOAD RETURNDATASIZE PUSH1 0x1F NOT PUSH1 0x1F DUP3 ADD AND DUP3 ADD DUP1 PUSH1 0x40 MSTORE POP DUP2 ADD SWAP1 PUSH2 0x1D70 SWAP2 SWAP1 PUSH2 0x2B83 JUMP JUMPDEST SWAP1 POP DUP3 DUP3 DUP3 PUSH2 0x1D7F SWAP2 SWAP1 PUSH2 0x37A7 JUMP JUMPDEST EQ PUSH2 0x1DBF JUMPI PUSH1 0x40 MLOAD PUSH32 0x8C379A000000000000000000000000000000000000000000000000000000000 DUP2 MSTORE PUSH1 0x4 ADD PUSH2 0x1DB6 SWAP1 PUSH2 0x3597 JUMP JUMPDEST PUSH1 0x40 MLOAD DUP1 SWAP2 SUB SWAP1 REVERT JUMPDEST POP POP POP POP POP POP JUMP JUMPDEST PUSH1 0x0 DUP2 PUSH1 0x0 ADD DUP1 SLOAD SWAP1 POP SWAP1 POP SWAP2 SWAP1 POP JUMP JUMPDEST PUSH1 0x0 DUP3 PUSH1 0x0 ADD DUP3 DUP2 SLOAD DUP2 LT PUSH2 0x1E16 JUMPI PUSH32 0x4E487B7100000000000000000000000000000000000000000000000000000000 PUSH1 0x0 MSTORE PUSH1 0x32 PUSH1 0x4 MSTORE PUSH1 0x24 PUSH1 0x0 REVERT JUMPDEST SWAP1 PUSH1 0x0 MSTORE PUSH1 0x20 PUSH1 0x0 KECCAK256 ADD SLOAD SWAP1 POP SWAP3 SWAP2 POP POP JUMP JUMPDEST PUSH1 0x0 DUP1 DUP4 PUSH1 0x1 ADD PUSH1 0x0 DUP5 DUP2 MSTORE PUSH1 0x20 ADD SWAP1 DUP2 MSTORE PUSH1 0x20 ADD PUSH1 0x0 KECCAK256 SLOAD SWAP1 POP PUSH1 0x0 DUP2 EQ PUSH2 0x1FA3 JUMPI PUSH1 0x0 PUSH1 0x1 DUP3 PUSH2 0x1E5B SWAP2 SWAP1 PUSH2 0x37A7 JUMP JUMPDEST SWAP1 POP PUSH1 0x0 PUSH1 0x1 DUP7 PUSH1 0x0 ADD DUP1 SLOAD SWAP1 POP PUSH2 0x1E73 SWAP2 SWAP1 PUSH2 0x37A7 JUMP JUMPDEST SWAP1 POP DUP2 DUP2 EQ PUSH2 0x1F2E JUMPI PUSH1 0x0 DUP7 PUSH1 0x0 ADD DUP3 DUP2 SLOAD DUP2 LT PUSH2 0x1EBA JUMPI PUSH32 0x4E487B7100000000000000000000000000000000000000000000000000000000 PUSH1 0x0 MSTORE PUSH1 0x32 PUSH1 0x4 MSTORE PUSH1 0x24 PUSH1 0x0 REVERT JUMPDEST SWAP1 PUSH1 0x0 MSTORE PUSH1 0x20 PUSH1 0x0 KECCAK256 ADD SLOAD SWAP1 POP DUP1 DUP8 PUSH1 0x0 ADD DUP5 DUP2 SLOAD DUP2 LT PUSH2 0x1F04 JUMPI PUSH32 0x4E487B7100000000000000000000000000000000000000000000000000000000 PUSH1 0x0 MSTORE PUSH1 0x32 PUSH1 0x4 MSTORE PUSH1 0x24 PUSH1 0x0 REVERT JUMPDEST SWAP1 PUSH1 0x0 MSTORE PUSH1 0x20 PUSH1 0x0 KECCAK256 ADD DUP2 SWAP1 SSTORE POP DUP4 DUP8 PUSH1 0x1 ADD PUSH1 0x0 DUP4 DUP2 MSTORE PUSH1 0x20 ADD SWAP1 DUP2 MSTORE PUSH1 0x20 ADD PUSH1 0x0 KECCAK256 DUP2 SWAP1 SSTORE POP POP JUMPDEST DUP6 PUSH1 0x0 ADD DUP1 SLOAD DUP1 PUSH2 0x1F68 JUMPI PUSH32 0x4E487B7100000000000000000000000000000000000000000000000000000000 PUSH1 0x0 MSTORE PUSH1 0x31 PUSH1 0x4 MSTORE PUSH1 0x24 PUSH1 0x0 REVERT JUMPDEST PUSH1 0x1 SWAP1 SUB DUP2 DUP2 SWAP1 PUSH1 0x0 MSTORE PUSH1 0x20 PUSH1 0x0 KECCAK256 ADD PUSH1 0x0 SWAP1 SSTORE SWAP1 SSTORE DUP6 PUSH1 0x1 ADD PUSH1 0x0 DUP7 DUP2 MSTORE PUSH1 0x20 ADD SWAP1 DUP2 MSTORE PUSH1 0x20 ADD PUSH1 0x0 KECCAK256 PUSH1 0x0 SWAP1 SSTORE PUSH1 0x1 SWAP4 POP POP POP POP PUSH2 0x1FA9 JUMP JUMPDEST PUSH1 0x0 SWAP2 POP POP JUMPDEST SWAP3 SWAP2 POP POP JUMP JUMPDEST PUSH1 0x0 PUSH2 0x1FBB DUP4 DUP4 PUSH2 0x232A JUMP JUMPDEST PUSH2 0x2014 JUMPI DUP3 PUSH1 0x0 ADD DUP3 SWAP1 DUP1 PUSH1 0x1 DUP2 SLOAD ADD DUP1 DUP3 SSTORE DUP1 SWAP2 POP POP PUSH1 0x1 SWAP1 SUB SWAP1 PUSH1 0x0 MSTORE PUSH1 0x20 PUSH1 0x0 KECCAK256 ADD PUSH1 0x0 SWAP1 SWAP2 SWAP1 SWAP2 SWAP1 SWAP2 POP SSTORE DUP3 PUSH1 0x0 ADD DUP1 SLOAD SWAP1 POP DUP4 PUSH1 0x1 ADD PUSH1 0x0 DUP5 DUP2 MSTORE PUSH1 0x20 ADD SWAP1 DUP2 MSTORE PUSH1 0x20 ADD PUSH1 0x0 KECCAK256 DUP2 SWAP1 SSTORE POP PUSH1 0x1 SWAP1 POP PUSH2 0x2019 JUMP JUMPDEST PUSH1 0x0 SWAP1 POP JUMPDEST SWAP3 SWAP2 POP POP JUMP JUMPDEST PUSH1 0x0 PUSH2 0x2047 DUP4 PUSH1 0x0 ADD DUP4 PUSH20 0xFFFFFFFFFFFFFFFFFFFFFFFFFFFFFFFFFFFFFFFF AND PUSH1 0x0 SHL PUSH2 0x1E29 JUMP JUMPDEST SWAP1 POP SWAP3 SWAP2 POP POP JUMP JUMPDEST PUSH2 0x20D0 DUP4 PUSH4 0xA9059CBB PUSH1 0xE0 SHL DUP5 DUP5 PUSH1 0x40 MLOAD PUSH1 0x24 ADD PUSH2 0x206E SWAP3 SWAP2 SWAP1 PUSH2 0x332D JUMP JUMPDEST PUSH1 0x40 MLOAD PUSH1 0x20 DUP2 DUP4 SUB SUB DUP2 MSTORE SWAP1 PUSH1 0x40 MSTORE SWAP1 PUSH28 0xFFFFFFFFFFFFFFFFFFFFFFFFFFFFFFFFFFFFFFFFFFFFFFFFFFFFFFFF NOT AND PUSH1 0x20 DUP3 ADD DUP1 MLOAD PUSH28 0xFFFFFFFFFFFFFFFFFFFFFFFFFFFFFFFFFFFFFFFFFFFFFFFFFFFFFFFF DUP4 DUP2 DUP4 AND OR DUP4 MSTORE POP POP POP POP PUSH2 0x234D JUMP JUMPDEST POP POP POP JUMP JUMPDEST PUSH1 0x0 PUSH2 0x20E4 DUP7 DUP7 DUP7 DUP7 DUP7 PUSH2 0x2414 JUMP JUMPDEST SWAP1 POP PUSH2 0x2137 DUP2 PUSH1 0x2 PUSH1 0x0 DUP10 PUSH20 0xFFFFFFFFFFFFFFFFFFFFFFFFFFFFFFFFFFFFFFFF AND PUSH20 0xFFFFFFFFFFFFFFFFFFFFFFFFFFFFFFFFFFFFFFFF AND DUP2 MSTORE PUSH1 0x20 ADD SWAP1 DUP2 MSTORE PUSH1 0x20 ADD PUSH1 0x0 KECCAK256 PUSH2 0x18D2 SWAP1 SWAP2 SWAP1 PUSH4 0xFFFFFFFF AND JUMP JUMPDEST POP PUSH2 0x214C DUP6 PUSH1 0x3 PUSH2 0x25A6 SWAP1 SWAP2 SWAP1 PUSH4 0xFFFFFFFF AND JUMP JUMPDEST POP PUSH1 0x0 PUSH1 0x5 PUSH1 0x0 DUP8 PUSH20 0xFFFFFFFFFFFFFFFFFFFFFFFFFFFFFFFFFFFFFFFF AND PUSH20 0xFFFFFFFFFFFFFFFFFFFFFFFFFFFFFFFFFFFFFFFF AND DUP2 MSTORE PUSH1 0x20 ADD SWAP1 DUP2 MSTORE PUSH1 0x20 ADD PUSH1 0x0 KECCAK256 SWAP1 POP PUSH1 0x0 PUSH20 0xFFFFFFFFFFFFFFFFFFFFFFFFFFFFFFFFFFFFFFFF AND DUP2 PUSH1 0x0 ADD PUSH1 0x0 SWAP1 SLOAD SWAP1 PUSH2 0x100 EXP SWAP1 DIV PUSH20 0xFFFFFFFFFFFFFFFFFFFFFFFFFFFFFFFFFFFFFFFF AND PUSH20 0xFFFFFFFFFFFFFFFFFFFFFFFFFFFFFFFFFFFFFFFF AND EQ ISZERO PUSH2 0x222D JUMPI DUP6 DUP2 PUSH1 0x0 ADD PUSH1 0x0 PUSH2 0x100 EXP DUP2 SLOAD DUP2 PUSH20 0xFFFFFFFFFFFFFFFFFFFFFFFFFFFFFFFFFFFFFFFF MUL NOT AND SWAP1 DUP4 PUSH20 0xFFFFFFFFFFFFFFFFFFFFFFFFFFFFFFFFFFFFFFFF AND MUL OR SWAP1 SSTORE POP JUMPDEST DUP5 DUP2 PUSH1 0x1 ADD SLOAD PUSH2 0x223D SWAP2 SWAP1 PUSH2 0x3751 JUMP JUMPDEST DUP2 PUSH1 0x1 ADD DUP2 SWAP1 SSTORE POP PUSH2 0x2296 DUP3 PUSH1 0x6 PUSH1 0x0 DUP10 PUSH20 0xFFFFFFFFFFFFFFFFFFFFFFFFFFFFFFFFFFFFFFFF AND PUSH20 0xFFFFFFFFFFFFFFFFFFFFFFFFFFFFFFFFFFFFFFFF AND DUP2 MSTORE PUSH1 0x20 ADD SWAP1 DUP2 MSTORE PUSH1 0x20 ADD PUSH1 0x0 KECCAK256 PUSH2 0x18D2 SWAP1 SWAP2 SWAP1 PUSH4 0xFFFFFFFF AND JUMP JUMPDEST POP POP SWAP6 SWAP5 POP POP POP POP POP JUMP JUMPDEST PUSH2 0x2324 DUP5 PUSH4 0x23B872DD PUSH1 0xE0 SHL DUP6 DUP6 DUP6 PUSH1 0x40 MLOAD PUSH1 0x24 ADD PUSH2 0x22C2 SWAP4 SWAP3 SWAP2 SWAP1 PUSH2 0x32B1 JUMP JUMPDEST PUSH1 0x40 MLOAD PUSH1 0x20 DUP2 DUP4 SUB SUB DUP2 MSTORE SWAP1 PUSH1 0x40 MSTORE SWAP1 PUSH28 0xFFFFFFFFFFFFFFFFFFFFFFFFFFFFFFFFFFFFFFFFFFFFFFFFFFFFFFFF NOT AND PUSH1 0x20 DUP3 ADD DUP1 MLOAD PUSH28 0xFFFFFFFFFFFFFFFFFFFFFFFFFFFFFFFFFFFFFFFFFFFFFFFFFFFFFFFF DUP4 DUP2 DUP4 AND OR DUP4 MSTORE POP POP POP POP PUSH2 0x234D JUMP JUMPDEST POP POP POP POP JUMP JUMPDEST PUSH1 0x0 DUP1 DUP4 PUSH1 0x1 ADD PUSH1 0x0 DUP5 DUP2 MSTORE PUSH1 0x20 ADD SWAP1 DUP2 MSTORE PUSH1 0x20 ADD PUSH1 0x0 KECCAK256 SLOAD EQ ISZERO SWAP1 POP SWAP3 SWAP2 POP POP JUMP JUMPDEST PUSH1 0x0 PUSH2 0x23AF DUP3 PUSH1 0x40 MLOAD DUP1 PUSH1 0x40 ADD PUSH1 0x40 MSTORE DUP1 PUSH1 0x20 DUP2 MSTORE PUSH1 0x20 ADD PUSH32 0x5361666545524332303A206C6F772D6C6576656C2063616C6C206661696C6564 DUP2 MSTORE POP DUP6 PUSH20 0xFFFFFFFFFFFFFFFFFFFFFFFFFFFFFFFFFFFFFFFF AND PUSH2 0x25D6 SWAP1 SWAP3 SWAP2 SWAP1 PUSH4 0xFFFFFFFF AND JUMP JUMPDEST SWAP1 POP PUSH1 0x0 DUP2 MLOAD GT ISZERO PUSH2 0x240F JUMPI DUP1 DUP1 PUSH1 0x20 ADD SWAP1 MLOAD DUP2 ADD SWAP1 PUSH2 0x23CF SWAP2 SWAP1 PUSH2 0x2B31 JUMP JUMPDEST PUSH2 0x240E JUMPI PUSH1 0x40 MLOAD PUSH32 0x8C379A000000000000000000000000000000000000000000000000000000000 DUP2 MSTORE PUSH1 0x4 ADD PUSH2 0x2405 SWAP1 PUSH2 0x3537 JUMP JUMPDEST PUSH1 0x40 MLOAD DUP1 SWAP2 SUB SWAP1 REVERT JUMPDEST JUMPDEST POP POP POP JUMP JUMPDEST PUSH1 0x0 PUSH2 0x241E PUSH2 0x25EE JUMP JUMPDEST PUSH1 0x1 DUP1 SLOAD SWAP1 POP SWAP1 POP PUSH1 0x0 PUSH1 0x40 MLOAD DUP1 PUSH2 0x100 ADD PUSH1 0x40 MSTORE DUP1 DUP4 DUP2 MSTORE PUSH1 0x20 ADD DUP8 PUSH20 0xFFFFFFFFFFFFFFFFFFFFFFFFFFFFFFFFFFFFFFFF AND DUP2 MSTORE PUSH1 0x20 ADD DUP9 PUSH20 0xFFFFFFFFFFFFFFFFFFFFFFFFFFFFFFFFFFFFFFFF AND DUP2 MSTORE PUSH1 0x20 ADD DUP7 DUP2 MSTORE PUSH1 0x20 ADD TIMESTAMP DUP2 MSTORE PUSH1 0x20 ADD DUP6 DUP2 MSTORE PUSH1 0x20 ADD PUSH1 0x0 DUP2 MSTORE PUSH1 0x20 ADD DUP5 DUP2 MSTORE POP SWAP1 POP PUSH1 0x1 DUP2 SWAP1 DUP1 PUSH1 0x1 DUP2 SLOAD ADD DUP1 DUP3 SSTORE DUP1 SWAP2 POP POP PUSH1 0x1 SWAP1 SUB SWAP1 PUSH1 0x0 MSTORE PUSH1 0x20 PUSH1 0x0 KECCAK256 SWAP1 PUSH1 0x8 MUL ADD PUSH1 0x0 SWAP1 SWAP2 SWAP1 SWAP2 SWAP1 SWAP2 POP PUSH1 0x0 DUP3 ADD MLOAD DUP2 PUSH1 0x0 ADD SSTORE PUSH1 0x20 DUP3 ADD MLOAD DUP2 PUSH1 0x1 ADD PUSH1 0x0 PUSH2 0x100 EXP DUP2 SLOAD DUP2 PUSH20 0xFFFFFFFFFFFFFFFFFFFFFFFFFFFFFFFFFFFFFFFF MUL NOT AND SWAP1 DUP4 PUSH20 0xFFFFFFFFFFFFFFFFFFFFFFFFFFFFFFFFFFFFFFFF AND MUL OR SWAP1 SSTORE POP PUSH1 0x40 DUP3 ADD MLOAD DUP2 PUSH1 0x2 ADD PUSH1 0x0 PUSH2 0x100 EXP DUP2 SLOAD DUP2 PUSH20 0xFFFFFFFFFFFFFFFFFFFFFFFFFFFFFFFFFFFFFFFF MUL NOT AND SWAP1 DUP4 PUSH20 0xFFFFFFFFFFFFFFFFFFFFFFFFFFFFFFFFFFFFFFFF AND MUL OR SWAP1 SSTORE POP PUSH1 0x60 DUP3 ADD MLOAD DUP2 PUSH1 0x3 ADD SSTORE PUSH1 0x80 DUP3 ADD MLOAD DUP2 PUSH1 0x4 ADD SSTORE PUSH1 0xA0 DUP3 ADD MLOAD DUP2 PUSH1 0x5 ADD SSTORE PUSH1 0xC0 DUP3 ADD MLOAD DUP2 PUSH1 0x6 ADD SSTORE PUSH1 0xE0 DUP3 ADD MLOAD DUP2 PUSH1 0x7 ADD SWAP1 DUP1 MLOAD SWAP1 PUSH1 0x20 ADD SWAP1 PUSH2 0x2599 SWAP3 SWAP2 SWAP1 PUSH2 0x288F JUMP JUMPDEST POP POP POP POP SWAP6 SWAP5 POP POP POP POP POP JUMP JUMPDEST PUSH1 0x0 PUSH2 0x25CE DUP4 PUSH1 0x0 ADD DUP4 PUSH20 0xFFFFFFFFFFFFFFFFFFFFFFFFFFFFFFFFFFFFFFFF AND PUSH1 0x0 SHL PUSH2 0x1FAF JUMP JUMPDEST SWAP1 POP SWAP3 SWAP2 POP POP JUMP JUMPDEST PUSH1 0x60 PUSH2 0x25E5 DUP5 DUP5 PUSH1 0x0 DUP6 PUSH2 0x2638 JUMP JUMPDEST SWAP1 POP SWAP4 SWAP3 POP POP POP JUMP JUMPDEST PUSH2 0x25F6 PUSH2 0xBD1 JUMP JUMPDEST ISZERO PUSH2 0x2636 JUMPI PUSH1 0x40 MLOAD PUSH32 0x8C379A000000000000000000000000000000000000000000000000000000000 DUP2 MSTORE PUSH1 0x4 ADD PUSH2 0x262D SWAP1 PUSH2 0x3477 JUMP JUMPDEST PUSH1 0x40 MLOAD DUP1 SWAP2 SUB SWAP1 REVERT JUMPDEST JUMP JUMPDEST PUSH1 0x60 DUP3 SELFBALANCE LT ISZERO PUSH2 0x267D JUMPI PUSH1 0x40 MLOAD PUSH32 0x8C379A000000000000000000000000000000000000000000000000000000000 DUP2 MSTORE PUSH1 0x4 ADD PUSH2 0x2674 SWAP1 PUSH2 0x3437 JUMP JUMPDEST PUSH1 0x40 MLOAD DUP1 SWAP2 SUB SWAP1 REVERT JUMPDEST PUSH1 0x0 DUP1 DUP7 PUSH20 0xFFFFFFFFFFFFFFFFFFFFFFFFFFFFFFFFFFFFFFFF AND DUP6 DUP8 PUSH1 0x40 MLOAD PUSH2 0x26A6 SWAP2 SWAP1 PUSH2 0x327F JUMP JUMPDEST PUSH1 0x0 PUSH1 0x40 MLOAD DUP1 DUP4 SUB DUP2 DUP6 DUP8 GAS CALL SWAP3 POP POP POP RETURNDATASIZE DUP1 PUSH1 0x0 DUP2 EQ PUSH2 0x26E3 JUMPI PUSH1 0x40 MLOAD SWAP2 POP PUSH1 0x1F NOT PUSH1 0x3F RETURNDATASIZE ADD AND DUP3 ADD PUSH1 0x40 MSTORE RETURNDATASIZE DUP3 MSTORE RETURNDATASIZE PUSH1 0x0 PUSH1 0x20 DUP5 ADD RETURNDATACOPY PUSH2 0x26E8 JUMP JUMPDEST PUSH1 0x60 SWAP2 POP JUMPDEST POP SWAP2 POP SWAP2 POP PUSH2 0x26F9 DUP8 DUP4 DUP4 DUP8 PUSH2 0x2705 JUMP JUMPDEST SWAP3 POP POP POP SWAP5 SWAP4 POP POP POP POP JUMP JUMPDEST PUSH1 0x60 DUP4 ISZERO PUSH2 0x2768 JUMPI PUSH1 0x0 DUP4 MLOAD EQ ISZERO PUSH2 0x2760 JUMPI PUSH2 0x2720 DUP6 PUSH2 0x277B JUMP JUMPDEST PUSH2 0x275F JUMPI PUSH1 0x40 MLOAD PUSH32 0x8C379A000000000000000000000000000000000000000000000000000000000 DUP2 MSTORE PUSH1 0x4 ADD PUSH2 0x2756 SWAP1 PUSH2 0x34F7 JUMP JUMPDEST PUSH1 0x40 MLOAD DUP1 SWAP2 SUB SWAP1 REVERT JUMPDEST JUMPDEST DUP3 SWAP1 POP PUSH2 0x2773 JUMP JUMPDEST PUSH2 0x2772 DUP4 DUP4 PUSH2 0x279E JUMP JUMPDEST JUMPDEST SWAP5 SWAP4 POP POP POP POP JUMP JUMPDEST PUSH1 0x0 DUP1 DUP3 PUSH20 0xFFFFFFFFFFFFFFFFFFFFFFFFFFFFFFFFFFFFFFFF AND EXTCODESIZE GT SWAP1 POP SWAP2 SWAP1 POP JUMP JUMPDEST PUSH1 0x0 DUP3 MLOAD GT ISZERO PUSH2 0x27B1 JUMPI DUP2 MLOAD DUP1 DUP4 PUSH1 0x20 ADD REVERT JUMPDEST DUP1 PUSH1 0x40 MLOAD PUSH32 0x8C379A000000000000000000000000000000000000000000000000000000000 DUP2 MSTORE PUSH1 0x4 ADD PUSH2 0x27E5 SWAP2 SWAP1 PUSH2 0x33B5 JUMP JUMPDEST PUSH1 0x40 MLOAD DUP1 SWAP2 SUB SWAP1 REVERT JUMPDEST PUSH1 0x40 MLOAD DUP1 PUSH2 0x100 ADD PUSH1 0x40 MSTORE DUP1 PUSH1 0x0 DUP2 MSTORE PUSH1 0x20 ADD PUSH1 0x0 PUSH20 0xFFFFFFFFFFFFFFFFFFFFFFFFFFFFFFFFFFFFFFFF AND DUP2 MSTORE PUSH1 0x20 ADD PUSH1 0x0 PUSH20 0xFFFFFFFFFFFFFFFFFFFFFFFFFFFFFFFFFFFFFFFF AND DUP2 MSTORE PUSH1 0x20 ADD PUSH1 0x0 DUP2 MSTORE PUSH1 0x20 ADD PUSH1 0x0 DUP2 MSTORE PUSH1 0x20 ADD PUSH1 0x0 DUP2 MSTORE PUSH1 0x20 ADD PUSH1 0x0 DUP2 MSTORE PUSH1 0x20 ADD PUSH1 0x60 DUP2 MSTORE POP SWAP1 JUMP JUMPDEST PUSH1 0x40 MLOAD DUP1 PUSH1 0x40 ADD PUSH1 0x40 MSTORE DUP1 PUSH1 0x0 PUSH20 0xFFFFFFFFFFFFFFFFFFFFFFFFFFFFFFFFFFFFFFFF AND DUP2 MSTORE PUSH1 0x20 ADD PUSH1 0x0 DUP2 MSTORE POP SWAP1 JUMP JUMPDEST DUP3 DUP1 SLOAD PUSH2 0x289B SWAP1 PUSH2 0x3865 JUMP JUMPDEST SWAP1 PUSH1 0x0 MSTORE PUSH1 0x20 PUSH1 0x0 KECCAK256 SWAP1 PUSH1 0x1F ADD PUSH1 0x20 SWAP1 DIV DUP2 ADD SWAP3 DUP3 PUSH2 0x28BD JUMPI PUSH1 0x0 DUP6 SSTORE PUSH2 0x2904 JUMP JUMPDEST DUP3 PUSH1 0x1F LT PUSH2 0x28D6 JUMPI DUP1 MLOAD PUSH1 0xFF NOT AND DUP4 DUP1 ADD OR DUP6 SSTORE PUSH2 0x2904 JUMP JUMPDEST DUP3 DUP1 ADD PUSH1 0x1 ADD DUP6 SSTORE DUP3 ISZERO PUSH2 0x2904 JUMPI SWAP2 DUP3 ADD JUMPDEST DUP3 DUP2 GT ISZERO PUSH2 0x2903 JUMPI DUP3 MLOAD DUP3 SSTORE SWAP2 PUSH1 0x20 ADD SWAP2 SWAP1 PUSH1 0x1 ADD SWAP1 PUSH2 0x28E8 JUMP JUMPDEST JUMPDEST POP SWAP1 POP PUSH2 0x2911 SWAP2 SWAP1 PUSH2 0x2915 JUMP JUMPDEST POP SWAP1 JUMP JUMPDEST JUMPDEST DUP1 DUP3 GT ISZERO PUSH2 0x292E JUMPI PUSH1 0x0 DUP2 PUSH1 0x0 SWAP1 SSTORE POP PUSH1 0x1 ADD PUSH2 0x2916 JUMP JUMPDEST POP SWAP1 JUMP JUMPDEST PUSH1 0x0 PUSH2 0x2945 PUSH2 0x2940 DUP5 PUSH2 0x366B JUMP JUMPDEST PUSH2 0x3646 JUMP JUMPDEST SWAP1 POP DUP3 DUP2 MSTORE PUSH1 0x20 DUP2 ADD DUP5 DUP5 DUP5 ADD GT ISZERO PUSH2 0x295D JUMPI PUSH1 0x0 DUP1 REVERT JUMPDEST PUSH2 0x2968 DUP5 DUP3 DUP6 PUSH2 0x3823 JUMP JUMPDEST POP SWAP4 SWAP3 POP POP POP JUMP JUMPDEST PUSH1 0x0 DUP2 CALLDATALOAD SWAP1 POP PUSH2 0x297F DUP2 PUSH2 0x3D20 JUMP JUMPDEST SWAP3 SWAP2 POP POP JUMP JUMPDEST PUSH1 0x0 DUP2 MLOAD SWAP1 POP PUSH2 0x2994 DUP2 PUSH2 0x3D37 JUMP JUMPDEST SWAP3 SWAP2 POP POP JUMP JUMPDEST PUSH1 0x0 DUP3 PUSH1 0x1F DUP4 ADD SLT PUSH2 0x29AB JUMPI PUSH1 0x0 DUP1 REVERT JUMPDEST DUP2 CALLDATALOAD PUSH2 0x29BB DUP5 DUP3 PUSH1 0x20 DUP7 ADD PUSH2 0x2932 JUMP JUMPDEST SWAP2 POP POP SWAP3 SWAP2 POP POP JUMP JUMPDEST PUSH1 0x0 DUP2 CALLDATALOAD SWAP1 POP PUSH2 0x29D3 DUP2 PUSH2 0x3D4E JUMP JUMPDEST SWAP3 SWAP2 POP POP JUMP JUMPDEST PUSH1 0x0 DUP2 MLOAD SWAP1 POP PUSH2 0x29E8 DUP2 PUSH2 0x3D4E JUMP JUMPDEST SWAP3 SWAP2 POP POP JUMP JUMPDEST PUSH1 0x0 PUSH1 0x20 DUP3 DUP5 SUB SLT ISZERO PUSH2 0x2A00 JUMPI PUSH1 0x0 DUP1 REVERT JUMPDEST PUSH1 0x0 PUSH2 0x2A0E DUP5 DUP3 DUP6 ADD PUSH2 0x2970 JUMP JUMPDEST SWAP2 POP POP SWAP3 SWAP2 POP POP JUMP JUMPDEST PUSH1 0x0 DUP1 PUSH1 0x0 DUP1 PUSH1 0x0 PUSH1 0xA0 DUP7 DUP9 SUB SLT ISZERO PUSH2 0x2A2F JUMPI PUSH1 0x0 DUP1 REVERT JUMPDEST PUSH1 0x0 PUSH2 0x2A3D DUP9 DUP3 DUP10 ADD PUSH2 0x2970 JUMP JUMPDEST SWAP6 POP POP PUSH1 0x20 PUSH2 0x2A4E DUP9 DUP3 DUP10 ADD PUSH2 0x2970 JUMP JUMPDEST SWAP5 POP POP PUSH1 0x40 PUSH2 0x2A5F DUP9 DUP3 DUP10 ADD PUSH2 0x29C4 JUMP JUMPDEST SWAP4 POP POP PUSH1 0x60 PUSH2 0x2A70 DUP9 DUP3 DUP10 ADD PUSH2 0x29C4 JUMP JUMPDEST SWAP3 POP POP PUSH1 0x80 DUP7 ADD CALLDATALOAD PUSH8 0xFFFFFFFFFFFFFFFF DUP2 GT ISZERO PUSH2 0x2A8D JUMPI PUSH1 0x0 DUP1 REVERT JUMPDEST PUSH2 0x2A99 DUP9 DUP3 DUP10 ADD PUSH2 0x299A JUMP JUMPDEST SWAP2 POP POP SWAP3 SWAP6 POP SWAP3 SWAP6 SWAP1 SWAP4 POP JUMP JUMPDEST PUSH1 0x0 DUP1 PUSH1 0x40 DUP4 DUP6 SUB SLT ISZERO PUSH2 0x2AB9 JUMPI PUSH1 0x0 DUP1 REVERT JUMPDEST PUSH1 0x0 PUSH2 0x2AC7 DUP6 DUP3 DUP7 ADD PUSH2 0x2970 JUMP JUMPDEST SWAP3 POP POP PUSH1 0x20 PUSH2 0x2AD8 DUP6 DUP3 DUP7 ADD PUSH2 0x29C4 JUMP JUMPDEST SWAP2 POP POP SWAP3 POP SWAP3 SWAP1 POP JUMP JUMPDEST PUSH1 0x0 DUP1 PUSH1 0x0 PUSH1 0x60 DUP5 DUP7 SUB SLT ISZERO PUSH2 0x2AF7 JUMPI PUSH1 0x0 DUP1 REVERT JUMPDEST PUSH1 0x0 PUSH2 0x2B05 DUP7 DUP3 DUP8 ADD PUSH2 0x2970 JUMP JUMPDEST SWAP4 POP POP PUSH1 0x20 PUSH2 0x2B16 DUP7 DUP3 DUP8 ADD PUSH2 0x29C4 JUMP JUMPDEST SWAP3 POP POP PUSH1 0x40 PUSH2 0x2B27 DUP7 DUP3 DUP8 ADD PUSH2 0x29C4 JUMP JUMPDEST SWAP2 POP POP SWAP3 POP SWAP3 POP SWAP3 JUMP JUMPDEST PUSH1 0x0 PUSH1 0x20 DUP3 DUP5 SUB SLT ISZERO PUSH2 0x2B43 JUMPI PUSH1 0x0 DUP1 REVERT JUMPDEST PUSH1 0x0 PUSH2 0x2B51 DUP5 DUP3 DUP6 ADD PUSH2 0x2985 JUMP JUMPDEST SWAP2 POP POP SWAP3 SWAP2 POP POP JUMP JUMPDEST PUSH1 0x0 PUSH1 0x20 DUP3 DUP5 SUB SLT ISZERO PUSH2 0x2B6C JUMPI PUSH1 0x0 DUP1 REVERT JUMPDEST PUSH1 0x0 PUSH2 0x2B7A DUP5 DUP3 DUP6 ADD PUSH2 0x29C4 JUMP JUMPDEST SWAP2 POP POP SWAP3 SWAP2 POP POP JUMP JUMPDEST PUSH1 0x0 PUSH1 0x20 DUP3 DUP5 SUB SLT ISZERO PUSH2 0x2B95 JUMPI PUSH1 0x0 DUP1 REVERT JUMPDEST PUSH1 0x0 PUSH2 0x2BA3 DUP5 DUP3 DUP6 ADD PUSH2 0x29D9 JUMP JUMPDEST SWAP2 POP POP SWAP3 SWAP2 POP POP JUMP JUMPDEST PUSH1 0x0 DUP1 PUSH1 0x40 DUP4 DUP6 SUB SLT ISZERO PUSH2 0x2BBF JUMPI PUSH1 0x0 DUP1 REVERT JUMPDEST PUSH1 0x0 PUSH2 0x2BCD DUP6 DUP3 DUP7 ADD PUSH2 0x29C4 JUMP JUMPDEST SWAP3 POP POP PUSH1 0x20 PUSH2 0x2BDE DUP6 DUP3 DUP7 ADD PUSH2 0x2970 JUMP JUMPDEST SWAP2 POP POP SWAP3 POP SWAP3 SWAP1 POP JUMP JUMPDEST PUSH1 0x0 DUP1 PUSH1 0x40 DUP4 DUP6 SUB SLT ISZERO PUSH2 0x2BFB JUMPI PUSH1 0x0 DUP1 REVERT JUMPDEST PUSH1 0x0 PUSH2 0x2C09 DUP6 DUP3 DUP7 ADD PUSH2 0x29C4 JUMP JUMPDEST SWAP3 POP POP PUSH1 0x20 DUP4 ADD CALLDATALOAD PUSH8 0xFFFFFFFFFFFFFFFF DUP2 GT ISZERO PUSH2 0x2C26 JUMPI PUSH1 0x0 DUP1 REVERT JUMPDEST PUSH2 0x2C32 DUP6 DUP3 DUP7 ADD PUSH2 0x299A JUMP JUMPDEST SWAP2 POP POP SWAP3 POP SWAP3 SWAP1 POP JUMP JUMPDEST PUSH1 0x0 DUP1 PUSH1 0x40 DUP4 DUP6 SUB SLT ISZERO PUSH2 0x2C4F JUMPI PUSH1 0x0 DUP1 REVERT JUMPDEST PUSH1 0x0 PUSH2 0x2C5D DUP6 DUP3 DUP7 ADD PUSH2 0x29C4 JUMP JUMPDEST SWAP3 POP POP PUSH1 0x20 PUSH2 0x2C6E DUP6 DUP3 DUP7 ADD PUSH2 0x29C4 JUMP JUMPDEST SWAP2 POP POP SWAP3 POP SWAP3 SWAP1 POP JUMP JUMPDEST PUSH1 0x0 DUP1 PUSH1 0x0 PUSH1 0x60 DUP5 DUP7 SUB SLT ISZERO PUSH2 0x2C8D JUMPI PUSH1 0x0 DUP1 REVERT JUMPDEST PUSH1 0x0 PUSH2 0x2C9B DUP7 DUP3 DUP8 ADD PUSH2 0x29C4 JUMP JUMPDEST SWAP4 POP POP PUSH1 0x20 PUSH2 0x2CAC DUP7 DUP3 DUP8 ADD PUSH2 0x29C4 JUMP JUMPDEST SWAP3 POP POP PUSH1 0x40 PUSH2 0x2CBD DUP7 DUP3 DUP8 ADD PUSH2 0x29C4 JUMP JUMPDEST SWAP2 POP POP SWAP3 POP SWAP3 POP SWAP3 JUMP JUMPDEST PUSH1 0x0 PUSH2 0x2CD3 DUP4 DUP4 PUSH2 0x30A3 JUMP JUMPDEST PUSH1 0x40 DUP4 ADD SWAP1 POP SWAP3 SWAP2 POP POP JUMP JUMPDEST PUSH1 0x0 PUSH2 0x2CEB DUP4 DUP4 PUSH2 0x3101 JUMP JUMPDEST SWAP1 POP SWAP3 SWAP2 POP POP JUMP JUMPDEST PUSH2 0x2CFC DUP2 PUSH2 0x37DB JUMP JUMPDEST DUP3 MSTORE POP POP JUMP JUMPDEST PUSH2 0x2D0B DUP2 PUSH2 0x37DB JUMP JUMPDEST DUP3 MSTORE POP POP JUMP JUMPDEST PUSH1 0x0 PUSH2 0x2D1C DUP3 PUSH2 0x36BC JUMP JUMPDEST PUSH2 0x2D26 DUP2 DUP6 PUSH2 0x3702 JUMP JUMPDEST SWAP4 POP PUSH2 0x2D31 DUP4 PUSH2 0x369C JUMP JUMPDEST DUP1 PUSH1 0x0 JUMPDEST DUP4 DUP2 LT ISZERO PUSH2 0x2D62 JUMPI DUP2 MLOAD PUSH2 0x2D49 DUP9 DUP3 PUSH2 0x2CC7 JUMP JUMPDEST SWAP8 POP PUSH2 0x2D54 DUP4 PUSH2 0x36E8 JUMP JUMPDEST SWAP3 POP POP PUSH1 0x1 DUP2 ADD SWAP1 POP PUSH2 0x2D35 JUMP JUMPDEST POP DUP6 SWAP4 POP POP POP POP SWAP3 SWAP2 POP POP JUMP JUMPDEST PUSH1 0x0 PUSH2 0x2D7A DUP3 PUSH2 0x36C7 JUMP JUMPDEST PUSH2 0x2D84 DUP2 DUP6 PUSH2 0x3713 JUMP JUMPDEST SWAP4 POP DUP4 PUSH1 0x20 DUP3 MUL DUP6 ADD PUSH2 0x2D96 DUP6 PUSH2 0x36AC JUMP JUMPDEST DUP1 PUSH1 0x0 JUMPDEST DUP6 DUP2 LT ISZERO PUSH2 0x2DD2 JUMPI DUP5 DUP5 SUB DUP10 MSTORE DUP2 MLOAD PUSH2 0x2DB3 DUP6 DUP3 PUSH2 0x2CDF JUMP JUMPDEST SWAP5 POP PUSH2 0x2DBE DUP4 PUSH2 0x36F5 JUMP JUMPDEST SWAP3 POP PUSH1 0x20 DUP11 ADD SWAP10 POP POP PUSH1 0x1 DUP2 ADD SWAP1 POP PUSH2 0x2D9A JUMP JUMPDEST POP DUP3 SWAP8 POP DUP8 SWAP6 POP POP POP POP POP POP SWAP3 SWAP2 POP POP JUMP JUMPDEST PUSH2 0x2DED DUP2 PUSH2 0x37ED JUMP JUMPDEST DUP3 MSTORE POP POP JUMP JUMPDEST PUSH1 0x0 PUSH2 0x2DFE DUP3 PUSH2 0x36D2 JUMP JUMPDEST PUSH2 0x2E08 DUP2 DUP6 PUSH2 0x3724 JUMP JUMPDEST SWAP4 POP PUSH2 0x2E18 DUP2 DUP6 PUSH1 0x20 DUP7 ADD PUSH2 0x3832 JUMP JUMPDEST DUP1 DUP5 ADD SWAP2 POP POP SWAP3 SWAP2 POP POP JUMP JUMPDEST PUSH1 0x0 PUSH2 0x2E2F DUP3 PUSH2 0x36DD JUMP JUMPDEST PUSH2 0x2E39 DUP2 DUP6 PUSH2 0x372F JUMP JUMPDEST SWAP4 POP PUSH2 0x2E49 DUP2 DUP6 PUSH1 0x20 DUP7 ADD PUSH2 0x3832 JUMP JUMPDEST PUSH2 0x2E52 DUP2 PUSH2 0x399E JUMP JUMPDEST DUP5 ADD SWAP2 POP POP SWAP3 SWAP2 POP POP JUMP JUMPDEST PUSH1 0x0 PUSH2 0x2E68 DUP3 PUSH2 0x36DD JUMP JUMPDEST PUSH2 0x2E72 DUP2 DUP6 PUSH2 0x3740 JUMP JUMPDEST SWAP4 POP PUSH2 0x2E82 DUP2 DUP6 PUSH1 0x20 DUP7 ADD PUSH2 0x3832 JUMP JUMPDEST PUSH2 0x2E8B DUP2 PUSH2 0x399E JUMP JUMPDEST DUP5 ADD SWAP2 POP POP SWAP3 SWAP2 POP POP JUMP JUMPDEST PUSH1 0x0 PUSH2 0x2EA3 PUSH1 0x11 DUP4 PUSH2 0x3740 JUMP JUMPDEST SWAP2 POP PUSH2 0x2EAE DUP3 PUSH2 0x39AF JUMP JUMPDEST PUSH1 0x20 DUP3 ADD SWAP1 POP SWAP2 SWAP1 POP JUMP JUMPDEST PUSH1 0x0 PUSH2 0x2EC6 PUSH1 0x23 DUP4 PUSH2 0x3740 JUMP JUMPDEST SWAP2 POP PUSH2 0x2ED1 DUP3 PUSH2 0x39D8 JUMP JUMPDEST PUSH1 0x40 DUP3 ADD SWAP1 POP SWAP2 SWAP1 POP JUMP JUMPDEST PUSH1 0x0 PUSH2 0x2EE9 PUSH1 0xD DUP4 PUSH2 0x3740 JUMP JUMPDEST SWAP2 POP PUSH2 0x2EF4 DUP3 PUSH2 0x3A27 JUMP JUMPDEST PUSH1 0x20 DUP3 ADD SWAP1 POP SWAP2 SWAP1 POP JUMP JUMPDEST PUSH1 0x0 PUSH2 0x2F0C PUSH1 0x26 DUP4 PUSH2 0x3740 JUMP JUMPDEST SWAP2 POP PUSH2 0x2F17 DUP3 PUSH2 0x3A50 JUMP JUMPDEST PUSH1 0x40 DUP3 ADD SWAP1 POP SWAP2 SWAP1 POP JUMP JUMPDEST PUSH1 0x0 PUSH2 0x2F2F PUSH1 0x22 DUP4 PUSH2 0x3740 JUMP JUMPDEST SWAP2 POP PUSH2 0x2F3A DUP3 PUSH2 0x3A9F JUMP JUMPDEST PUSH1 0x40 DUP3 ADD SWAP1 POP SWAP2 SWAP1 POP JUMP JUMPDEST PUSH1 0x0 PUSH2 0x2F52 PUSH1 0x10 DUP4 PUSH2 0x3740 JUMP JUMPDEST SWAP2 POP PUSH2 0x2F5D DUP3 PUSH2 0x3AEE JUMP JUMPDEST PUSH1 0x20 DUP3 ADD SWAP1 POP SWAP2 SWAP1 POP JUMP JUMPDEST PUSH1 0x0 PUSH2 0x2F75 PUSH1 0xF DUP4 PUSH2 0x3740 JUMP JUMPDEST SWAP2 POP PUSH2 0x2F80 DUP3 PUSH2 0x3B17 JUMP JUMPDEST PUSH1 0x20 DUP3 ADD SWAP1 POP SWAP2 SWAP1 POP JUMP JUMPDEST PUSH1 0x0 PUSH2 0x2F98 PUSH1 0x1F DUP4 PUSH2 0x3740 JUMP JUMPDEST SWAP2 POP PUSH2 0x2FA3 DUP3 PUSH2 0x3B40 JUMP JUMPDEST PUSH1 0x20 DUP3 ADD SWAP1 POP SWAP2 SWAP1 POP JUMP JUMPDEST PUSH1 0x0 PUSH2 0x2FBB PUSH1 0x11 DUP4 PUSH2 0x3740 JUMP JUMPDEST SWAP2 POP PUSH2 0x2FC6 DUP3 PUSH2 0x3B69 JUMP JUMPDEST PUSH1 0x20 DUP3 ADD SWAP1 POP SWAP2 SWAP1 POP JUMP JUMPDEST PUSH1 0x0 PUSH2 0x2FDE PUSH1 0x1D DUP4 PUSH2 0x3740 JUMP JUMPDEST SWAP2 POP PUSH2 0x2FE9 DUP3 PUSH2 0x3B92 JUMP JUMPDEST PUSH1 0x20 DUP3 ADD SWAP1 POP SWAP2 SWAP1 POP JUMP JUMPDEST PUSH1 0x0 PUSH2 0x3001 PUSH1 0x31 DUP4 PUSH2 0x3740 JUMP JUMPDEST SWAP2 POP PUSH2 0x300C DUP3 PUSH2 0x3BBB JUMP JUMPDEST PUSH1 0x40 DUP3 ADD SWAP1 POP SWAP2 SWAP1 POP JUMP JUMPDEST PUSH1 0x0 PUSH2 0x3024 PUSH1 0x2A DUP4 PUSH2 0x3740 JUMP JUMPDEST SWAP2 POP PUSH2 0x302F DUP3 PUSH2 0x3C0A JUMP JUMPDEST PUSH1 0x40 DUP3 ADD SWAP1 POP SWAP2 SWAP1 POP JUMP JUMPDEST PUSH1 0x0 PUSH2 0x3047 PUSH1 0x18 DUP4 PUSH2 0x3740 JUMP JUMPDEST SWAP2 POP PUSH2 0x3052 DUP3 PUSH2 0x3C59 JUMP JUMPDEST PUSH1 0x20 DUP3 ADD SWAP1 POP SWAP2 SWAP1 POP JUMP JUMPDEST PUSH1 0x0 PUSH2 0x306A PUSH1 0x44 DUP4 PUSH2 0x3740 JUMP JUMPDEST SWAP2 POP PUSH2 0x3075 DUP3 PUSH2 0x3C82 JUMP JUMPDEST PUSH1 0x60 DUP3 ADD SWAP1 POP SWAP2 SWAP1 POP JUMP JUMPDEST PUSH1 0x0 PUSH2 0x308D PUSH1 0x1F DUP4 PUSH2 0x3740 JUMP JUMPDEST SWAP2 POP PUSH2 0x3098 DUP3 PUSH2 0x3CF7 JUMP JUMPDEST PUSH1 0x20 DUP3 ADD SWAP1 POP SWAP2 SWAP1 POP JUMP JUMPDEST PUSH1 0x40 DUP3 ADD PUSH1 0x0 DUP3 ADD MLOAD PUSH2 0x30B9 PUSH1 0x0 DUP6 ADD DUP3 PUSH2 0x2CF3 JUMP JUMPDEST POP PUSH1 0x20 DUP3 ADD MLOAD PUSH2 0x30CC PUSH1 0x20 DUP6 ADD DUP3 PUSH2 0x3261 JUMP JUMPDEST POP POP POP POP JUMP JUMPDEST PUSH1 0x40 DUP3 ADD PUSH1 0x0 DUP3 ADD MLOAD PUSH2 0x30E8 PUSH1 0x0 DUP6 ADD DUP3 PUSH2 0x2CF3 JUMP JUMPDEST POP PUSH1 0x20 DUP3 ADD MLOAD PUSH2 0x30FB PUSH1 0x20 DUP6 ADD DUP3 PUSH2 0x3261 JUMP JUMPDEST POP POP POP POP JUMP JUMPDEST PUSH1 0x0 PUSH2 0x100 DUP4 ADD PUSH1 0x0 DUP4 ADD MLOAD PUSH2 0x311A PUSH1 0x0 DUP7 ADD DUP3 PUSH2 0x3261 JUMP JUMPDEST POP PUSH1 0x20 DUP4 ADD MLOAD PUSH2 0x312D PUSH1 0x20 DUP7 ADD DUP3 PUSH2 0x2CF3 JUMP JUMPDEST POP PUSH1 0x40 DUP4 ADD MLOAD PUSH2 0x3140 PUSH1 0x40 DUP7 ADD DUP3 PUSH2 0x2CF3 JUMP JUMPDEST POP PUSH1 0x60 DUP4 ADD MLOAD PUSH2 0x3153 PUSH1 0x60 DUP7 ADD DUP3 PUSH2 0x3261 JUMP JUMPDEST POP PUSH1 0x80 DUP4 ADD MLOAD PUSH2 0x3166 PUSH1 0x80 DUP7 ADD DUP3 PUSH2 0x3261 JUMP JUMPDEST POP PUSH1 0xA0 DUP4 ADD MLOAD PUSH2 0x3179 PUSH1 0xA0 DUP7 ADD DUP3 PUSH2 0x3261 JUMP JUMPDEST POP PUSH1 0xC0 DUP4 ADD MLOAD PUSH2 0x318C PUSH1 0xC0 DUP7 ADD DUP3 PUSH2 0x3261 JUMP JUMPDEST POP PUSH1 0xE0 DUP4 ADD MLOAD DUP5 DUP3 SUB PUSH1 0xE0 DUP7 ADD MSTORE PUSH2 0x31A4 DUP3 DUP3 PUSH2 0x2E24 JUMP JUMPDEST SWAP2 POP POP DUP1 SWAP2 POP POP SWAP3 SWAP2 POP POP JUMP JUMPDEST PUSH1 0x0 PUSH2 0x100 DUP4 ADD PUSH1 0x0 DUP4 ADD MLOAD PUSH2 0x31CA PUSH1 0x0 DUP7 ADD DUP3 PUSH2 0x3261 JUMP JUMPDEST POP PUSH1 0x20 DUP4 ADD MLOAD PUSH2 0x31DD PUSH1 0x20 DUP7 ADD DUP3 PUSH2 0x2CF3 JUMP JUMPDEST POP PUSH1 0x40 DUP4 ADD MLOAD PUSH2 0x31F0 PUSH1 0x40 DUP7 ADD DUP3 PUSH2 0x2CF3 JUMP JUMPDEST POP PUSH1 0x60 DUP4 ADD MLOAD PUSH2 0x3203 PUSH1 0x60 DUP7 ADD DUP3 PUSH2 0x3261 JUMP JUMPDEST POP PUSH1 0x80 DUP4 ADD MLOAD PUSH2 0x3216 PUSH1 0x80 DUP7 ADD DUP3 PUSH2 0x3261 JUMP JUMPDEST POP PUSH1 0xA0 DUP4 ADD MLOAD PUSH2 0x3229 PUSH1 0xA0 DUP7 ADD DUP3 PUSH2 0x3261 JUMP JUMPDEST POP PUSH1 0xC0 DUP4 ADD MLOAD PUSH2 0x323C PUSH1 0xC0 DUP7 ADD DUP3 PUSH2 0x3261 JUMP JUMPDEST POP PUSH1 0xE0 DUP4 ADD MLOAD DUP5 DUP3 SUB PUSH1 0xE0 DUP7 ADD MSTORE PUSH2 0x3254 DUP3 DUP3 PUSH2 0x2E24 JUMP JUMPDEST SWAP2 POP POP DUP1 SWAP2 POP POP SWAP3 SWAP2 POP POP JUMP JUMPDEST PUSH2 0x326A DUP2 PUSH2 0x3819 JUMP JUMPDEST DUP3 MSTORE POP POP JUMP JUMPDEST PUSH2 0x3279 DUP2 PUSH2 0x3819 JUMP JUMPDEST DUP3 MSTORE POP POP JUMP JUMPDEST PUSH1 0x0 PUSH2 0x328B DUP3 DUP5 PUSH2 0x2DF3 JUMP JUMPDEST SWAP2 POP DUP2 SWAP1 POP SWAP3 SWAP2 POP POP JUMP JUMPDEST PUSH1 0x0 PUSH1 0x20 DUP3 ADD SWAP1 POP PUSH2 0x32AB PUSH1 0x0 DUP4 ADD DUP5 PUSH2 0x2D02 JUMP JUMPDEST SWAP3 SWAP2 POP POP JUMP JUMPDEST PUSH1 0x0 PUSH1 0x60 DUP3 ADD SWAP1 POP PUSH2 0x32C6 PUSH1 0x0 DUP4 ADD DUP7 PUSH2 0x2D02 JUMP JUMPDEST PUSH2 0x32D3 PUSH1 0x20 DUP4 ADD DUP6 PUSH2 0x2D02 JUMP JUMPDEST PUSH2 0x32E0 PUSH1 0x40 DUP4 ADD DUP5 PUSH2 0x3270 JUMP JUMPDEST SWAP5 SWAP4 POP POP POP POP JUMP JUMPDEST PUSH1 0x0 PUSH1 0x80 DUP3 ADD SWAP1 POP PUSH2 0x32FD PUSH1 0x0 DUP4 ADD DUP8 PUSH2 0x2D02 JUMP JUMPDEST PUSH2 0x330A PUSH1 0x20 DUP4 ADD DUP7 PUSH2 0x2D02 JUMP JUMPDEST PUSH2 0x3317 PUSH1 0x40 DUP4 ADD DUP6 PUSH2 0x3270 JUMP JUMPDEST PUSH2 0x3324 PUSH1 0x60 DUP4 ADD DUP5 PUSH2 0x3270 JUMP JUMPDEST SWAP6 SWAP5 POP POP POP POP POP JUMP JUMPDEST PUSH1 0x0 PUSH1 0x40 DUP3 ADD SWAP1 POP PUSH2 0x3342 PUSH1 0x0 DUP4 ADD DUP6 PUSH2 0x2D02 JUMP JUMPDEST PUSH2 0x334F PUSH1 0x20 DUP4 ADD DUP5 PUSH2 0x3270 JUMP JUMPDEST SWAP4 SWAP3 POP POP POP JUMP JUMPDEST PUSH1 0x0 PUSH1 0x20 DUP3 ADD SWAP1 POP DUP2 DUP2 SUB PUSH1 0x0 DUP4 ADD MSTORE PUSH2 0x3370 DUP2 DUP5 PUSH2 0x2D11 JUMP JUMPDEST SWAP1 POP SWAP3 SWAP2 POP POP JUMP JUMPDEST PUSH1 0x0 PUSH1 0x20 DUP3 ADD SWAP1 POP DUP2 DUP2 SUB PUSH1 0x0 DUP4 ADD MSTORE PUSH2 0x3392 DUP2 DUP5 PUSH2 0x2D6F JUMP JUMPDEST SWAP1 POP SWAP3 SWAP2 POP POP JUMP JUMPDEST PUSH1 0x0 PUSH1 0x20 DUP3 ADD SWAP1 POP PUSH2 0x33AF PUSH1 0x0 DUP4 ADD DUP5 PUSH2 0x2DE4 JUMP JUMPDEST SWAP3 SWAP2 POP POP JUMP JUMPDEST PUSH1 0x0 PUSH1 0x20 DUP3 ADD SWAP1 POP DUP2 DUP2 SUB PUSH1 0x0 DUP4 ADD MSTORE PUSH2 0x33CF DUP2 DUP5 PUSH2 0x2E5D JUMP JUMPDEST SWAP1 POP SWAP3 SWAP2 POP POP JUMP JUMPDEST PUSH1 0x0 PUSH1 0x20 DUP3 ADD SWAP1 POP DUP2 DUP2 SUB PUSH1 0x0 DUP4 ADD MSTORE PUSH2 0x33F0 DUP2 PUSH2 0x2E96 JUMP JUMPDEST SWAP1 POP SWAP2 SWAP1 POP JUMP JUMPDEST PUSH1 0x0 PUSH1 0x20 DUP3 ADD SWAP1 POP DUP2 DUP2 SUB PUSH1 0x0 DUP4 ADD MSTORE PUSH2 0x3410 DUP2 PUSH2 0x2EB9 JUMP JUMPDEST SWAP1 POP SWAP2 SWAP1 POP JUMP JUMPDEST PUSH1 0x0 PUSH1 0x20 DUP3 ADD SWAP1 POP DUP2 DUP2 SUB PUSH1 0x0 DUP4 ADD MSTORE PUSH2 0x3430 DUP2 PUSH2 0x2EDC JUMP JUMPDEST SWAP1 POP SWAP2 SWAP1 POP JUMP JUMPDEST PUSH1 0x0 PUSH1 0x20 DUP3 ADD SWAP1 POP DUP2 DUP2 SUB PUSH1 0x0 DUP4 ADD MSTORE PUSH2 0x3450 DUP2 PUSH2 0x2EFF JUMP JUMPDEST SWAP1 POP SWAP2 SWAP1 POP JUMP JUMPDEST PUSH1 0x0 PUSH1 0x20 DUP3 ADD SWAP1 POP DUP2 DUP2 SUB PUSH1 0x0 DUP4 ADD MSTORE PUSH2 0x3470 DUP2 PUSH2 0x2F22 JUMP JUMPDEST SWAP1 POP SWAP2 SWAP1 POP JUMP JUMPDEST PUSH1 0x0 PUSH1 0x20 DUP3 ADD SWAP1 POP DUP2 DUP2 SUB PUSH1 0x0 DUP4 ADD MSTORE PUSH2 0x3490 DUP2 PUSH2 0x2F45 JUMP JUMPDEST SWAP1 POP SWAP2 SWAP1 POP JUMP JUMPDEST PUSH1 0x0 PUSH1 0x20 DUP3 ADD SWAP1 POP DUP2 DUP2 SUB PUSH1 0x0 DUP4 ADD MSTORE PUSH2 0x34B0 DUP2 PUSH2 0x2F68 JUMP JUMPDEST SWAP1 POP SWAP2 SWAP1 POP JUMP JUMPDEST PUSH1 0x0 PUSH1 0x20 DUP3 ADD SWAP1 POP DUP2 DUP2 SUB PUSH1 0x0 DUP4 ADD MSTORE PUSH2 0x34D0 DUP2 PUSH2 0x2F8B JUMP JUMPDEST SWAP1 POP SWAP2 SWAP1 POP JUMP JUMPDEST PUSH1 0x0 PUSH1 0x20 DUP3 ADD SWAP1 POP DUP2 DUP2 SUB PUSH1 0x0 DUP4 ADD MSTORE PUSH2 0x34F0 DUP2 PUSH2 0x2FAE JUMP JUMPDEST SWAP1 POP SWAP2 SWAP1 POP JUMP JUMPDEST PUSH1 0x0 PUSH1 0x20 DUP3 ADD SWAP1 POP DUP2 DUP2 SUB PUSH1 0x0 DUP4 ADD MSTORE PUSH2 0x3510 DUP2 PUSH2 0x2FD1 JUMP JUMPDEST SWAP1 POP SWAP2 SWAP1 POP JUMP JUMPDEST PUSH1 0x0 PUSH1 0x20 DUP3 ADD SWAP1 POP DUP2 DUP2 SUB PUSH1 0x0 DUP4 ADD MSTORE PUSH2 0x3530 DUP2 PUSH2 0x2FF4 JUMP JUMPDEST SWAP1 POP SWAP2 SWAP1 POP JUMP JUMPDEST PUSH1 0x0 PUSH1 0x20 DUP3 ADD SWAP1 POP DUP2 DUP2 SUB PUSH1 0x0 DUP4 ADD MSTORE PUSH2 0x3550 DUP2 PUSH2 0x3017 JUMP JUMPDEST SWAP1 POP SWAP2 SWAP1 POP JUMP JUMPDEST PUSH1 0x0 PUSH1 0x20 DUP3 ADD SWAP1 POP DUP2 DUP2 SUB PUSH1 0x0 DUP4 ADD MSTORE PUSH2 0x3570 DUP2 PUSH2 0x303A JUMP JUMPDEST SWAP1 POP SWAP2 SWAP1 POP JUMP JUMPDEST PUSH1 0x0 PUSH1 0x20 DUP3 ADD SWAP1 POP DUP2 DUP2 SUB PUSH1 0x0 DUP4 ADD MSTORE PUSH2 0x3590 DUP2 PUSH2 0x305D JUMP JUMPDEST SWAP1 POP SWAP2 SWAP1 POP JUMP JUMPDEST PUSH1 0x0 PUSH1 0x20 DUP3 ADD SWAP1 POP DUP2 DUP2 SUB PUSH1 0x0 DUP4 ADD MSTORE PUSH2 0x35B0 DUP2 PUSH2 0x3080 JUMP JUMPDEST SWAP1 POP SWAP2 SWAP1 POP JUMP JUMPDEST PUSH1 0x0 PUSH1 0x40 DUP3 ADD SWAP1 POP PUSH2 0x35CC PUSH1 0x0 DUP4 ADD DUP5 PUSH2 0x30D2 JUMP JUMPDEST SWAP3 SWAP2 POP POP JUMP JUMPDEST PUSH1 0x0 PUSH1 0x20 DUP3 ADD SWAP1 POP DUP2 DUP2 SUB PUSH1 0x0 DUP4 ADD MSTORE PUSH2 0x35EC DUP2 DUP5 PUSH2 0x31B1 JUMP JUMPDEST SWAP1 POP SWAP3 SWAP2 POP POP JUMP JUMPDEST PUSH1 0x0 PUSH1 0x20 DUP3 ADD SWAP1 POP PUSH2 0x3609 PUSH1 0x0 DUP4 ADD DUP5 PUSH2 0x3270 JUMP JUMPDEST SWAP3 SWAP2 POP POP JUMP JUMPDEST PUSH1 0x0 PUSH1 0x60 DUP3 ADD SWAP1 POP PUSH2 0x3624 PUSH1 0x0 DUP4 ADD DUP7 PUSH2 0x3270 JUMP JUMPDEST PUSH2 0x3631 PUSH1 0x20 DUP4 ADD DUP6 PUSH2 0x2D02 JUMP JUMPDEST PUSH2 0x363E PUSH1 0x40 DUP4 ADD DUP5 PUSH2 0x2D02 JUMP JUMPDEST SWAP5 SWAP4 POP POP POP POP JUMP JUMPDEST PUSH1 0x0 PUSH2 0x3650 PUSH2 0x3661 JUMP JUMPDEST SWAP1 POP PUSH2 0x365C DUP3 DUP3 PUSH2 0x3897 JUMP JUMPDEST SWAP2 SWAP1 POP JUMP JUMPDEST PUSH1 0x0 PUSH1 0x40 MLOAD SWAP1 POP SWAP1 JUMP JUMPDEST PUSH1 0x0 PUSH8 0xFFFFFFFFFFFFFFFF DUP3 GT ISZERO PUSH2 0x3686 JUMPI PUSH2 0x3685 PUSH2 0x396F JUMP JUMPDEST JUMPDEST PUSH2 0x368F DUP3 PUSH2 0x399E JUMP JUMPDEST SWAP1 POP PUSH1 0x20 DUP2 ADD SWAP1 POP SWAP2 SWAP1 POP JUMP JUMPDEST PUSH1 0x0 DUP2 SWAP1 POP PUSH1 0x20 DUP3 ADD SWAP1 POP SWAP2 SWAP1 POP JUMP JUMPDEST PUSH1 0x0 DUP2 SWAP1 POP PUSH1 0x20 DUP3 ADD SWAP1 POP SWAP2 SWAP1 POP JUMP JUMPDEST PUSH1 0x0 DUP2 MLOAD SWAP1 POP SWAP2 SWAP1 POP JUMP JUMPDEST PUSH1 0x0 DUP2 MLOAD SWAP1 POP SWAP2 SWAP1 POP JUMP JUMPDEST PUSH1 0x0 DUP2 MLOAD SWAP1 POP SWAP2 SWAP1 POP JUMP JUMPDEST PUSH1 0x0 DUP2 MLOAD SWAP1 POP SWAP2 SWAP1 POP JUMP JUMPDEST PUSH1 0x0 PUSH1 0x20 DUP3 ADD SWAP1 POP SWAP2 SWAP1 POP JUMP JUMPDEST PUSH1 0x0 PUSH1 0x20 DUP3 ADD SWAP1 POP SWAP2 SWAP1 POP JUMP JUMPDEST PUSH1 0x0 DUP3 DUP3 MSTORE PUSH1 0x20 DUP3 ADD SWAP1 POP SWAP3 SWAP2 POP POP JUMP JUMPDEST PUSH1 0x0 DUP3 DUP3 MSTORE PUSH1 0x20 DUP3 ADD SWAP1 POP SWAP3 SWAP2 POP POP JUMP JUMPDEST PUSH1 0x0 DUP2 SWAP1 POP SWAP3 SWAP2 POP POP JUMP JUMPDEST PUSH1 0x0 DUP3 DUP3 MSTORE PUSH1 0x20 DUP3 ADD SWAP1 POP SWAP3 SWAP2 POP POP JUMP JUMPDEST PUSH1 0x0 DUP3 DUP3 MSTORE PUSH1 0x20 DUP3 ADD SWAP1 POP SWAP3 SWAP2 POP POP JUMP JUMPDEST PUSH1 0x0 PUSH2 0x375C DUP3 PUSH2 0x3819 JUMP JUMPDEST SWAP2 POP PUSH2 0x3767 DUP4 PUSH2 0x3819 JUMP JUMPDEST SWAP3 POP DUP3 PUSH32 0xFFFFFFFFFFFFFFFFFFFFFFFFFFFFFFFFFFFFFFFFFFFFFFFFFFFFFFFFFFFFFFFF SUB DUP3 GT ISZERO PUSH2 0x379C JUMPI PUSH2 0x379B PUSH2 0x3911 JUMP JUMPDEST JUMPDEST DUP3 DUP3 ADD SWAP1 POP SWAP3 SWAP2 POP POP JUMP JUMPDEST PUSH1 0x0 PUSH2 0x37B2 DUP3 PUSH2 0x3819 JUMP JUMPDEST SWAP2 POP PUSH2 0x37BD DUP4 PUSH2 0x3819 JUMP JUMPDEST SWAP3 POP DUP3 DUP3 LT ISZERO PUSH2 0x37D0 JUMPI PUSH2 0x37CF PUSH2 0x3911 JUMP JUMPDEST JUMPDEST DUP3 DUP3 SUB SWAP1 POP SWAP3 SWAP2 POP POP JUMP JUMPDEST PUSH1 0x0 PUSH2 0x37E6 DUP3 PUSH2 0x37F9 JUMP JUMPDEST SWAP1 POP SWAP2 SWAP1 POP JUMP JUMPDEST PUSH1 0x0 DUP2 ISZERO ISZERO SWAP1 POP SWAP2 SWAP1 POP JUMP JUMPDEST PUSH1 0x0 PUSH20 0xFFFFFFFFFFFFFFFFFFFFFFFFFFFFFFFFFFFFFFFF DUP3 AND SWAP1 POP SWAP2 SWAP1 POP JUMP JUMPDEST PUSH1 0x0 DUP2 SWAP1 POP SWAP2 SWAP1 POP JUMP JUMPDEST DUP3 DUP2 DUP4 CALLDATACOPY PUSH1 0x0 DUP4 DUP4 ADD MSTORE POP POP POP JUMP JUMPDEST PUSH1 0x0 JUMPDEST DUP4 DUP2 LT ISZERO PUSH2 0x3850 JUMPI DUP1 DUP3 ADD MLOAD DUP2 DUP5 ADD MSTORE PUSH1 0x20 DUP2 ADD SWAP1 POP PUSH2 0x3835 JUMP JUMPDEST DUP4 DUP2 GT ISZERO PUSH2 0x385F JUMPI PUSH1 0x0 DUP5 DUP5 ADD MSTORE JUMPDEST POP POP POP POP JUMP JUMPDEST PUSH1 0x0 PUSH1 0x2 DUP3 DIV SWAP1 POP PUSH1 0x1 DUP3 AND DUP1 PUSH2 0x387D JUMPI PUSH1 0x7F DUP3 AND SWAP2 POP JUMPDEST PUSH1 0x20 DUP3 LT DUP2 EQ ISZERO PUSH2 0x3891 JUMPI PUSH2 0x3890 PUSH2 0x3940 JUMP JUMPDEST JUMPDEST POP SWAP2 SWAP1 POP JUMP JUMPDEST PUSH2 0x38A0 DUP3 PUSH2 0x399E JUMP JUMPDEST DUP2 ADD DUP2 DUP2 LT PUSH8 0xFFFFFFFFFFFFFFFF DUP3 GT OR ISZERO PUSH2 0x38BF JUMPI PUSH2 0x38BE PUSH2 0x396F JUMP JUMPDEST JUMPDEST DUP1 PUSH1 0x40 MSTORE POP POP POP JUMP JUMPDEST PUSH1 0x0 PUSH2 0x38D3 DUP3 PUSH2 0x3819 JUMP JUMPDEST SWAP2 POP PUSH32 0xFFFFFFFFFFFFFFFFFFFFFFFFFFFFFFFFFFFFFFFFFFFFFFFFFFFFFFFFFFFFFFFF DUP3 EQ ISZERO PUSH2 0x3906 JUMPI PUSH2 0x3905 PUSH2 0x3911 JUMP JUMPDEST JUMPDEST PUSH1 0x1 DUP3 ADD SWAP1 POP SWAP2 SWAP1 POP JUMP JUMPDEST PUSH32 0x4E487B7100000000000000000000000000000000000000000000000000000000 PUSH1 0x0 MSTORE PUSH1 0x11 PUSH1 0x4 MSTORE PUSH1 0x24 PUSH1 0x0 REVERT JUMPDEST PUSH32 0x4E487B7100000000000000000000000000000000000000000000000000000000 PUSH1 0x0 MSTORE PUSH1 0x22 PUSH1 0x4 MSTORE PUSH1 0x24 PUSH1 0x0 REVERT JUMPDEST PUSH32 0x4E487B7100000000000000000000000000000000000000000000000000000000 PUSH1 0x0 MSTORE PUSH1 0x41 PUSH1 0x4 MSTORE PUSH1 0x24 PUSH1 0x0 REVERT JUMPDEST PUSH1 0x0 PUSH1 0x1F NOT PUSH1 0x1F DUP4 ADD AND SWAP1 POP SWAP2 SWAP1 POP JUMP JUMPDEST PUSH32 0x4C6F636B2077617320756E6C6F636B6564000000000000000000000000000000 PUSH1 0x0 DUP3 ADD MSTORE POP JUMP JUMPDEST PUSH32 0x556E6C6F636B20646174652073686F756C6420626520696E2074686520667574 PUSH1 0x0 DUP3 ADD MSTORE PUSH32 0x7572650000000000000000000000000000000000000000000000000000000000 PUSH1 0x20 DUP3 ADD MSTORE POP JUMP JUMPDEST PUSH32 0x496E76616C696420696E64657800000000000000000000000000000000000000 PUSH1 0x0 DUP3 ADD MSTORE POP JUMP JUMPDEST PUSH32 0x416464726573733A20696E73756666696369656E742062616C616E636520666F PUSH1 0x0 DUP3 ADD MSTORE PUSH32 0x722063616C6C0000000000000000000000000000000000000000000000000000 PUSH1 0x20 DUP3 ADD MSTORE POP JUMP JUMPDEST PUSH32 0x596F7520617265206E6F7420746865206F776E6572206F662074686973206C6F PUSH1 0x0 DUP3 ADD MSTORE PUSH32 0x636B000000000000000000000000000000000000000000000000000000000000 PUSH1 0x20 DUP3 ADD MSTORE POP JUMP JUMPDEST PUSH32 0x5061757361626C653A2070617573656400000000000000000000000000000000 PUSH1 0x0 DUP3 ADD MSTORE POP JUMP JUMPDEST PUSH32 0x496E76616C6964206C6F636B2069640000000000000000000000000000000000 PUSH1 0x0 DUP3 ADD MSTORE POP JUMP JUMPDEST PUSH32 0x416D6F756E742073686F756C642062652067726561746572207468616E203000 PUSH1 0x0 DUP3 ADD MSTORE POP JUMP JUMPDEST PUSH32 0x4E6F7468696E6720746F20756E6C6F636B000000000000000000000000000000 PUSH1 0x0 DUP3 ADD MSTORE POP JUMP JUMPDEST PUSH32 0x416464726573733A2063616C6C20746F206E6F6E2D636F6E7472616374000000 PUSH1 0x0 DUP3 ADD MSTORE POP JUMP JUMPDEST PUSH32 0x4E657720616D6F756E742073686F756C64206E6F74206265206C657373207468 PUSH1 0x0 DUP3 ADD MSTORE PUSH32 0x616E2063757272656E7420616D6F756E74000000000000000000000000000000 PUSH1 0x20 DUP3 ADD MSTORE POP JUMP JUMPDEST PUSH32 0x5361666545524332303A204552433230206F7065726174696F6E20646964206E PUSH1 0x0 DUP3 ADD MSTORE PUSH32 0x6F74207375636365656400000000000000000000000000000000000000000000 PUSH1 0x20 DUP3 ADD MSTORE POP JUMP JUMPDEST PUSH32 0x4974206973206E6F742074696D6520746F20756E6C6F636B0000000000000000 PUSH1 0x0 DUP3 ADD MSTORE POP JUMP JUMPDEST PUSH32 0x4E657720756E6C6F636B2074696D652073686F756C64206E6F74206265206265 PUSH1 0x0 DUP3 ADD MSTORE PUSH32 0x666F7265206F6C6420756E6C6F636B2074696D65206F722063757272656E7420 PUSH1 0x20 DUP3 ADD MSTORE PUSH32 0x74696D6500000000000000000000000000000000000000000000000000000000 PUSH1 0x40 DUP3 ADD MSTORE POP JUMP JUMPDEST PUSH32 0x4E6F7420656E6F75676820746F6B656E20776173207472616E73666572656400 PUSH1 0x0 DUP3 ADD MSTORE POP JUMP JUMPDEST PUSH2 0x3D29 DUP2 PUSH2 0x37DB JUMP JUMPDEST DUP2 EQ PUSH2 0x3D34 JUMPI PUSH1 0x0 DUP1 REVERT JUMPDEST POP JUMP JUMPDEST PUSH2 0x3D40 DUP2 PUSH2 0x37ED JUMP JUMPDEST DUP2 EQ PUSH2 0x3D4B JUMPI PUSH1 0x0 DUP1 REVERT JUMPDEST POP JUMP JUMPDEST PUSH2 0x3D57 DUP2 PUSH2 0x3819 JUMP JUMPDEST DUP2 EQ PUSH2 0x3D62 JUMPI PUSH1 0x0 DUP1 REVERT JUMPDEST POP JUMP INVALID LOG2 PUSH5 0x6970667358 0x22 SLT KECCAK256 0xDA 0xF6 PUSH14 0x299942A0EAE7EB556CA79633B1E5 MOD PUSH15 0x1F7CB3958F05F86086FED5283C6473 PUSH16 0x6C634300080400330000000000000000 "
				},
				"gasEstimates": {
					"creation": {
						"codeDepositCost": "3154200",
						"executionCost": "24350",
						"totalCost": "3178550"
					},
					"external": {
						"allNormalTokenLockedCount()": "1333",
						"cumulativeLockInfo(address)": "infinite",
						"editLock(uint256,uint256,uint256)": "infinite",
						"editLockDescription(uint256,string)": "infinite",
						"getCumulativeNormalTokenLockInfo(uint256,uint256)": "infinite",
						"getCumulativeNormalTokenLockInfoAt(uint256)": "infinite",
						"getLockAt(uint256)": "infinite",
						"getLockById(uint256)": "infinite",
						"getLocksForToken(address,uint256,uint256)": "infinite",
						"getTotalLockCount()": "1255",
						"lock(address,address,uint256,uint256,string)": "infinite",
						"normalLockCountForUser(address)": "1735",
						"normalLockForUserAtIndex(address,uint256)": "infinite",
						"normalLocksForUser(address)": "infinite",
						"paused()": "1224",
						"renounceLockOwnership(uint256)": "infinite",
						"transferLockOwnership(uint256,address)": "infinite",
						"unlock(uint256)": "infinite"
					},
					"internal": {
						"_createLock(address,address,uint256,uint256,string memory)": "infinite",
						"_getActualIndex(uint256)": "infinite",
						"_lockNormalToken(address,address,uint256,uint256,string memory)": "infinite",
						"_normalUnlock(struct PinkLock_NormalLock.Lock storage pointer)": "infinite",
						"_registerLock(address,address,uint256,uint256,string memory)": "infinite",
						"_safeTransferFromEnsureExactAmount(address,address,address,uint256)": "infinite"
					}
				},
				"methodIdentifiers": {
					"allNormalTokenLockedCount()": "475831c8",
					"cumulativeLockInfo(address)": "e1444fd6",
					"editLock(uint256,uint256,uint256)": "b3b9aa48",
					"editLockDescription(uint256,string)": "d3cac885",
					"getCumulativeNormalTokenLockInfo(uint256,uint256)": "76c12822",
					"getCumulativeNormalTokenLockInfoAt(uint256)": "7e6706d3",
					"getLockAt(uint256)": "0d4f581a",
					"getLockById(uint256)": "08f12470",
					"getLocksForToken(address,uint256,uint256)": "332f26d7",
					"getTotalLockCount()": "fd981c66",
					"lock(address,address,uint256,uint256,string)": "97b1d73a",
					"normalLockCountForUser(address)": "eb80bdae",
					"normalLockForUserAtIndex(address,uint256)": "618df7a3",
					"normalLocksForUser(address)": "da1d8cff",
					"paused()": "5c975abb",
					"renounceLockOwnership(uint256)": "a57e3141",
					"transferLockOwnership(uint256,address)": "5a04fb69",
					"unlock(uint256)": "6198e339"
				}
			},
			"storageLayout": {
				"storage": [
					{
						"astId": 66,
						"contract": "pinkLockV2(NormalLock).sol:PinkLock_NormalLock",
						"label": "_paused",
						"offset": 0,
						"slot": "0",
						"type": "t_bool"
					},
					{
						"astId": 1526,
						"contract": "pinkLockV2(NormalLock).sol:PinkLock_NormalLock",
						"label": "_locks",
						"offset": 0,
						"slot": "1",
						"type": "t_array(t_struct(Lock)1517_storage)dyn_storage"
					},
					{
						"astId": 1531,
						"contract": "pinkLockV2(NormalLock).sol:PinkLock_NormalLock",
						"label": "_userNormalLockIds",
						"offset": 0,
						"slot": "2",
						"type": "t_mapping(t_address,t_struct(UintSet)637_storage)"
					},
					{
						"astId": 1534,
						"contract": "pinkLockV2(NormalLock).sol:PinkLock_NormalLock",
						"label": "_normalLockedTokens",
						"offset": 0,
						"slot": "3",
						"type": "t_struct(AddressSet)480_storage"
					},
					{
						"astId": 1539,
						"contract": "pinkLockV2(NormalLock).sol:PinkLock_NormalLock",
						"label": "cumulativeLockInfo",
						"offset": 0,
						"slot": "5",
						"type": "t_mapping(t_address,t_struct(CumulativeLockInfo)1522_storage)"
					},
					{
						"astId": 1544,
						"contract": "pinkLockV2(NormalLock).sol:PinkLock_NormalLock",
						"label": "_tokenToLockIds",
						"offset": 0,
						"slot": "6",
						"type": "t_mapping(t_address,t_struct(UintSet)637_storage)"
					}
				],
				"types": {
					"t_address": {
						"encoding": "inplace",
						"label": "address",
						"numberOfBytes": "20"
					},
					"t_array(t_bytes32)dyn_storage": {
						"base": "t_bytes32",
						"encoding": "dynamic_array",
						"label": "bytes32[]",
						"numberOfBytes": "32"
					},
					"t_array(t_struct(Lock)1517_storage)dyn_storage": {
						"base": "t_struct(Lock)1517_storage",
						"encoding": "dynamic_array",
						"label": "struct PinkLock_NormalLock.Lock[]",
						"numberOfBytes": "32"
					},
					"t_bool": {
						"encoding": "inplace",
						"label": "bool",
						"numberOfBytes": "1"
					},
					"t_bytes32": {
						"encoding": "inplace",
						"label": "bytes32",
						"numberOfBytes": "32"
					},
					"t_mapping(t_address,t_struct(CumulativeLockInfo)1522_storage)": {
						"encoding": "mapping",
						"key": "t_address",
						"label": "mapping(address => struct PinkLock_NormalLock.CumulativeLockInfo)",
						"numberOfBytes": "32",
						"value": "t_struct(CumulativeLockInfo)1522_storage"
					},
					"t_mapping(t_address,t_struct(UintSet)637_storage)": {
						"encoding": "mapping",
						"key": "t_address",
						"label": "mapping(address => struct EnumerableSet.UintSet)",
						"numberOfBytes": "32",
						"value": "t_struct(UintSet)637_storage"
					},
					"t_mapping(t_bytes32,t_uint256)": {
						"encoding": "mapping",
						"key": "t_bytes32",
						"label": "mapping(bytes32 => uint256)",
						"numberOfBytes": "32",
						"value": "t_uint256"
					},
					"t_string_storage": {
						"encoding": "bytes",
						"label": "string",
						"numberOfBytes": "32"
					},
					"t_struct(AddressSet)480_storage": {
						"encoding": "inplace",
						"label": "struct EnumerableSet.AddressSet",
						"members": [
							{
								"astId": 479,
								"contract": "pinkLockV2(NormalLock).sol:PinkLock_NormalLock",
								"label": "_inner",
								"offset": 0,
								"slot": "0",
								"type": "t_struct(Set)165_storage"
							}
						],
						"numberOfBytes": "64"
					},
					"t_struct(CumulativeLockInfo)1522_storage": {
						"encoding": "inplace",
						"label": "struct PinkLock_NormalLock.CumulativeLockInfo",
						"members": [
							{
								"astId": 1519,
								"contract": "pinkLockV2(NormalLock).sol:PinkLock_NormalLock",
								"label": "token",
								"offset": 0,
								"slot": "0",
								"type": "t_address"
							},
							{
								"astId": 1521,
								"contract": "pinkLockV2(NormalLock).sol:PinkLock_NormalLock",
								"label": "amount",
								"offset": 0,
								"slot": "1",
								"type": "t_uint256"
							}
						],
						"numberOfBytes": "64"
					},
					"t_struct(Lock)1517_storage": {
						"encoding": "inplace",
						"label": "struct PinkLock_NormalLock.Lock",
						"members": [
							{
								"astId": 1502,
								"contract": "pinkLockV2(NormalLock).sol:PinkLock_NormalLock",
								"label": "id",
								"offset": 0,
								"slot": "0",
								"type": "t_uint256"
							},
							{
								"astId": 1504,
								"contract": "pinkLockV2(NormalLock).sol:PinkLock_NormalLock",
								"label": "token",
								"offset": 0,
								"slot": "1",
								"type": "t_address"
							},
							{
								"astId": 1506,
								"contract": "pinkLockV2(NormalLock).sol:PinkLock_NormalLock",
								"label": "owner",
								"offset": 0,
								"slot": "2",
								"type": "t_address"
							},
							{
								"astId": 1508,
								"contract": "pinkLockV2(NormalLock).sol:PinkLock_NormalLock",
								"label": "amount",
								"offset": 0,
								"slot": "3",
								"type": "t_uint256"
							},
							{
								"astId": 1510,
								"contract": "pinkLockV2(NormalLock).sol:PinkLock_NormalLock",
								"label": "lockDate",
								"offset": 0,
								"slot": "4",
								"type": "t_uint256"
							},
							{
								"astId": 1512,
								"contract": "pinkLockV2(NormalLock).sol:PinkLock_NormalLock",
								"label": "unlockDate",
								"offset": 0,
								"slot": "5",
								"type": "t_uint256"
							},
							{
								"astId": 1514,
								"contract": "pinkLockV2(NormalLock).sol:PinkLock_NormalLock",
								"label": "unlockedAmount",
								"offset": 0,
								"slot": "6",
								"type": "t_uint256"
							},
							{
								"astId": 1516,
								"contract": "pinkLockV2(NormalLock).sol:PinkLock_NormalLock",
								"label": "description",
								"offset": 0,
								"slot": "7",
								"type": "t_string_storage"
							}
						],
						"numberOfBytes": "256"
					},
					"t_struct(Set)165_storage": {
						"encoding": "inplace",
						"label": "struct EnumerableSet.Set",
						"members": [
							{
								"astId": 160,
								"contract": "pinkLockV2(NormalLock).sol:PinkLock_NormalLock",
								"label": "_values",
								"offset": 0,
								"slot": "0",
								"type": "t_array(t_bytes32)dyn_storage"
							},
							{
								"astId": 164,
								"contract": "pinkLockV2(NormalLock).sol:PinkLock_NormalLock",
								"label": "_indexes",
								"offset": 0,
								"slot": "1",
								"type": "t_mapping(t_bytes32,t_uint256)"
							}
						],
						"numberOfBytes": "64"
					},
					"t_struct(UintSet)637_storage": {
						"encoding": "inplace",
						"label": "struct EnumerableSet.UintSet",
						"members": [
							{
								"astId": 636,
								"contract": "pinkLockV2(NormalLock).sol:PinkLock_NormalLock",
								"label": "_inner",
								"offset": 0,
								"slot": "0",
								"type": "t_struct(Set)165_storage"
							}
						],
						"numberOfBytes": "64"
					},
					"t_uint256": {
						"encoding": "inplace",
						"label": "uint256",
						"numberOfBytes": "32"
					}
				}
			},
			"userdoc": {
				"kind": "user",
				"methods": {},
				"version": 1
			}
		}
	}
}