{
	"data": {
		"bytecode": {
			"linkReferences": {},
			"object": "608060405234801561001057600080fd5b5060008060006101000a81548160ff021916908315150217905550613d9b8061003a6000396000f3fe608060405234801561001057600080fd5b50600436106101165760003560e01c80637e6706d3116100a2578063d3cac88511610071578063d3cac88514610317578063da1d8cff14610333578063e1444fd614610363578063eb80bdae14610394578063fd981c66146103c457610116565b80637e6706d31461027f57806397b1d73a146102af578063a57e3141146102df578063b3b9aa48146102fb57610116565b80635a04fb69116100e95780635a04fb69146101c95780635c975abb146101e5578063618df7a3146102035780636198e3391461023357806376c128221461024f57610116565b806308f124701461011b5780630d4f581a1461014b578063332f26d71461017b578063475831c8146101ab575b600080fd5b61013560048036038101906101309190612b5a565b6103e2565b60405161014291906135d2565b60405180910390f35b61016560048036038101906101609190612b5a565b6105bd565b60405161017291906135d2565b60405180910390f35b61019560048036038101906101909190612ae2565b610790565b6040516101a29190613378565b60405180910390f35b6101b36109a9565b6040516101c091906135f4565b60405180910390f35b6101e360048036038101906101de9190612bac565b6109ba565b005b6101ed610bd1565b6040516101fa919061339a565b60405180910390f35b61021d60048036038101906102189190612aa6565b610be7565b60405161022a91906135d2565b60405180910390f35b61024d60048036038101906102489190612b5a565b610c9a565b005b61026960048036038101906102649190612c3c565b610d91565b6040516102769190613356565b60405180910390f35b61029960048036038101906102949190612b5a565b610f93565b6040516102a691906135b7565b60405180910390f35b6102c960048036038101906102c49190612a17565b61105f565b6040516102d691906135f4565b60405180910390f35b6102f960048036038101906102f49190612b5a565b611148565b005b61031560048036038101906103109190612c78565b611156565b005b610331600480360381019061032c9190612be8565b6114ad565b005b61034d600480360381019061034891906129ee565b6115ec565b60405161035a9190613378565b60405180910390f35b61037d600480360381019061037891906129ee565b61177d565b60405161038b92919061332d565b60405180910390f35b6103ae60048036038101906103a991906129ee565b6117c1565b6040516103bb91906135f4565b60405180910390f35b6103cc611811565b6040516103d991906135f4565b60405180910390f35b6103ea6127ee565b60016103f58361181e565b8154811061042c577f4e487b7100000000000000000000000000000000000000000000000000000000600052603260045260246000fd5b906000526020600020906008020160405180610100016040529081600082015481526020016001820160009054906101000a900473ffffffffffffffffffffffffffffffffffffffff1673ffffffffffffffffffffffffffffffffffffffff1673ffffffffffffffffffffffffffffffffffffffff1681526020016002820160009054906101000a900473ffffffffffffffffffffffffffffffffffffffff1673ffffffffffffffffffffffffffffffffffffffff1673ffffffffffffffffffffffffffffffffffffffff1681526020016003820154815260200160048201548152602001600582015481526020016006820154815260200160078201805461053490613865565b80601f016020809104026020016040519081016040528092919081815260200182805461056090613865565b80156105ad5780601f10610582576101008083540402835291602001916105ad565b820191906000526020600020905b81548152906001019060200180831161059057829003601f168201915b5050505050815250509050919050565b6105c56127ee565b600182815481106105ff577f4e487b7100000000000000000000000000000000000000000000000000000000600052603260045260246000fd5b906000526020600020906008020160405180610100016040529081600082015481526020016001820160009054906101000a900473ffffffffffffffffffffffffffffffffffffffff1673ffffffffffffffffffffffffffffffffffffffff1673ffffffffffffffffffffffffffffffffffffffff1681526020016002820160009054906101000a900473ffffffffffffffffffffffffffffffffffffffff1673ffffffffffffffffffffffffffffffffffffffff1673ffffffffffffffffffffffffffffffffffffffff1681526020016003820154815260200160048201548152602001600582015481526020016006820154815260200160078201805461070790613865565b80601f016020809104026020016040519081016040528092919081815260200182805461073390613865565b80156107805780601f1061075557610100808354040283529160200191610780565b820191906000526020600020905b81548152906001019060200180831161076357829003601f168201915b5050505050815250509050919050565b60606107d9600660008673ffffffffffffffffffffffffffffffffffffffff1673ffffffffffffffffffffffffffffffffffffffff168152602001908152602001600020611874565b8210610835576001610828600660008773ffffffffffffffffffffffffffffffffffffffff1673ffffffffffffffffffffffffffffffffffffffff168152602001908152602001600020611874565b61083291906137a7565b91505b60006001848461084591906137a7565b61084f9190613751565b905060008167ffffffffffffffff811115610893577f4e487b7100000000000000000000000000000000000000000000000000000000600052604160045260246000fd5b6040519080825280602002602001820160405280156108cc57816020015b6108b96127ee565b8152602001906001900390816108b15790505b5090506000808690505b85811161099b5761093661093182600660008c73ffffffffffffffffffffffffffffffffffffffff1673ffffffffffffffffffffffffffffffffffffffff16815260200190815260200160002061188990919063ffffffff16565b6103e2565b83838151811061096f577f4e487b7100000000000000000000000000000000000000000000000000000000600052603260045260246000fd5b60200260200101819052508180610985906138c8565b9250508080610993906138c8565b9150506108d6565b508193505050509392505050565b60006109b560036118a3565b905090565b816109c48161181e565b50600060018481548110610a01577f4e487b7100000000000000000000000000000000000000000000000000000000600052603260045260246000fd5b9060005260206000209060080201905060008160020160009054906101000a900473ffffffffffffffffffffffffffffffffffffffff1690503373ffffffffffffffffffffffffffffffffffffffff168173ffffffffffffffffffffffffffffffffffffffff1614610aa8576040517f08c379a0000000000000000000000000000000000000000000000000000000008152600401610a9f90613457565b60405180910390fd5b838260020160006101000a81548173ffffffffffffffffffffffffffffffffffffffff021916908373ffffffffffffffffffffffffffffffffffffffff160217905550610b3c85600260008473ffffffffffffffffffffffffffffffffffffffff1673ffffffffffffffffffffffffffffffffffffffff1681526020019081526020016000206118b890919063ffffffff16565b50610b8e85600260008773ffffffffffffffffffffffffffffffffffffffff1673ffffffffffffffffffffffffffffffffffffffff1681526020019081526020016000206118d290919063ffffffff16565b507f9075ad040756c0d8743a1fed927066a92c4755071615bf61e04b17583d961caf858286604051610bc29392919061360f565b60405180910390a15050505050565b60008060009054906101000a900460ff16905090565b610bef6127ee565b81610bf9846117c1565b11610c39576040517f08c379a0000000000000000000000000000000000000000000000000000000008152600401610c3090613417565b60405180910390fd5b610c92610c8d83600260008773ffffffffffffffffffffffffffffffffffffffff1673ffffffffffffffffffffffffffffffffffffffff16815260200190815260200160002061188990919063ffffffff16565b6103e2565b905092915050565b80610ca48161181e565b50600060018381548110610ce1577f4e487b7100000000000000000000000000000000000000000000000000000000600052603260045260246000fd5b906000526020600020906008020190503373ffffffffffffffffffffffffffffffffffffffff168160020160009054906101000a900473ffffffffffffffffffffffffffffffffffffffff1673ffffffffffffffffffffffffffffffffffffffff1614610d83576040517f08c379a0000000000000000000000000000000000000000000000000000000008152600401610d7a90613457565b60405180910390fd5b610d8c816118ec565b505050565b6060610d9d60036118a3565b8210610dbc576001610daf60036118a3565b610db991906137a7565b91505b600060018484610dcc91906137a7565b610dd69190613751565b905060008167ffffffffffffffff811115610e1a577f4e487b7100000000000000000000000000000000000000000000000000000000600052604160045260246000fd5b604051908082528060200260200182016040528015610e5357816020015b610e4061285f565b815260200190600190039081610e385790505b5090506000808690505b858111610f865760056000610e7c836003611bf790919063ffffffff16565b73ffffffffffffffffffffffffffffffffffffffff1673ffffffffffffffffffffffffffffffffffffffff1681526020019081526020016000206040518060400160405290816000820160009054906101000a900473ffffffffffffffffffffffffffffffffffffffff1673ffffffffffffffffffffffffffffffffffffffff1673ffffffffffffffffffffffffffffffffffffffff168152602001600182015481525050838381518110610f5a577f4e487b7100000000000000000000000000000000000000000000000000000000600052603260045260246000fd5b60200260200101819052508180610f70906138c8565b9250508080610f7e906138c8565b915050610e5d565b5081935050505092915050565b610f9b61285f565b60056000610fb3846003611bf790919063ffffffff16565b73ffffffffffffffffffffffffffffffffffffffff1673ffffffffffffffffffffffffffffffffffffffff1681526020019081526020016000206040518060400160405290816000820160009054906101000a900473ffffffffffffffffffffffffffffffffffffffff1673ffffffffffffffffffffffffffffffffffffffff1673ffffffffffffffffffffffffffffffffffffffff1681526020016001820154815250509050919050565b60004283116110a3576040517f08c379a000000000000000000000000000000000000000000000000000000000815260040161109a906133f7565b60405180910390fd5b600084116110e6576040517f08c379a00000000000000000000000000000000000000000000000000000000081526004016110dd906134b7565b60405180910390fd5b6110f38686868686611c11565b905061110185333087611c2b565b807f694af1cc8727cdd0afbdd53d9b87b69248bd490224e9dd090e788546506e076f8688878760405161113794939291906132e8565b60405180910390a295945050505050565b6111538160006109ba565b50565b826111608161181e565b5060006001858154811061119d577f4e487b7100000000000000000000000000000000000000000000000000000000600052603260045260246000fd5b906000526020600020906008020190503373ffffffffffffffffffffffffffffffffffffffff168160020160009054906101000a900473ffffffffffffffffffffffffffffffffffffffff1673ffffffffffffffffffffffffffffffffffffffff161461123f576040517f08c379a000000000000000000000000000000000000000000000000000000000815260040161123690613457565b60405180910390fd5b6000816006015414611286576040517f08c379a000000000000000000000000000000000000000000000000000000000815260040161127d906133d7565b60405180910390fd5b60008311156112eb57806005015483101580156112a257504283115b6112e1576040517f08c379a00000000000000000000000000000000000000000000000000000000081526004016112d890613577565b60405180910390fd5b8281600501819055505b600084111561141457806003015484101561133b576040517f08c379a000000000000000000000000000000000000000000000000000000000815260040161133290613517565b60405180910390fd5b600081600301548561134d91906137a7565b90506000811115611412578482600301819055506000600560008460010160009054906101000a900473ffffffffffffffffffffffffffffffffffffffff1673ffffffffffffffffffffffffffffffffffffffff1673ffffffffffffffffffffffffffffffffffffffff16815260200190815260200160002090508181600101546113d89190613751565b81600101819055506114108360010160009054906101000a900473ffffffffffffffffffffffffffffffffffffffff16333085611c2b565b505b505b80600001547fa8b26360df8d5e154ffa5a8a7e894e85f781acfbbef0b744fb9551d8fd0fd36c8260010160009054906101000a900473ffffffffffffffffffffffffffffffffffffffff168360020160009054906101000a900473ffffffffffffffffffffffffffffffffffffffff168460030154856005015460405161149e94939291906132e8565b60405180910390a25050505050565b816114b78161181e565b506000600184815481106114f4577f4e487b7100000000000000000000000000000000000000000000000000000000600052603260045260246000fd5b906000526020600020906008020190503373ffffffffffffffffffffffffffffffffffffffff168160020160009054906101000a900473ffffffffffffffffffffffffffffffffffffffff1673ffffffffffffffffffffffffffffffffffffffff1614611596576040517f08c379a000000000000000000000000000000000000000000000000000000000815260040161158d90613457565b60405180910390fd5b828160070190805190602001906115ae92919061288f565b507fe4a1120fd509c50aec65802fd3c3c9a4b72bf746fe9a552396185c6de928e8aa846040516115de91906135f4565b60405180910390a150505050565b60606000611637600260008573ffffffffffffffffffffffffffffffffffffffff1673ffffffffffffffffffffffffffffffffffffffff168152602001908152602001600020611874565b905060008167ffffffffffffffff81111561167b577f4e487b7100000000000000000000000000000000000000000000000000000000600052604160045260246000fd5b6040519080825280602002602001820160405280156116b457816020015b6116a16127ee565b8152602001906001900390816116995790505b50905060005b828110156117725761171b61171682600260008973ffffffffffffffffffffffffffffffffffffffff1673ffffffffffffffffffffffffffffffffffffffff16815260200190815260200160002061188990919063ffffffff16565b6103e2565b828281518110611754577f4e487b7100000000000000000000000000000000000000000000000000000000600052603260045260246000fd5b6020026020010181905250808061176a906138c8565b9150506116ba565b508092505050919050565b60056020528060005260406000206000915090508060000160009054906101000a900473ffffffffffffffffffffffffffffffffffffffff16908060010154905082565b600061180a600260008473ffffffffffffffffffffffffffffffffffffffff1673ffffffffffffffffffffffffffffffffffffffff168152602001908152602001600020611874565b9050919050565b6000600180549050905090565b600080829050600180549050811061186b576040517f08c379a000000000000000000000000000000000000000000000000000000000815260040161186290613497565b60405180910390fd5b80915050919050565b600061188282600001611dc7565b9050919050565b60006118988360000183611dd8565b60001c905092915050565b60006118b182600001611dc7565b9050919050565b60006118ca836000018360001b611e29565b905092915050565b60006118e4836000018360001b611faf565b905092915050565b8060050154421015611933576040517f08c379a000000000000000000000000000000000000000000000000000000000815260040161192a90613557565b60405180910390fd5b600081600601541461197a576040517f08c379a0000000000000000000000000000000000000000000000000000000008152600401611971906134d7565b60405180910390fd5b6000600560008360010160009054906101000a900473ffffffffffffffffffffffffffffffffffffffff1673ffffffffffffffffffffffffffffffffffffffff1673ffffffffffffffffffffffffffffffffffffffff1681526020019081526020016000209050611a368260000154600260003373ffffffffffffffffffffffffffffffffffffffff1673ffffffffffffffffffffffffffffffffffffffff1681526020019081526020016000206118b890919063ffffffff16565b5060008260030154905080826001015411611a5a5760008260010181905550611a73565b808260010154611a6a91906137a7565b82600101819055505b600082600101541415611aba57611ab88360010160009054906101000a900473ffffffffffffffffffffffffffffffffffffffff16600361201f90919063ffffffff16565b505b808360060181905550611b3c8360000154600660008660010160009054906101000a900473ffffffffffffffffffffffffffffffffffffffff1673ffffffffffffffffffffffffffffffffffffffff1673ffffffffffffffffffffffffffffffffffffffff1681526020019081526020016000206118b890919063ffffffff16565b50611b8c33828560010160009054906101000a900473ffffffffffffffffffffffffffffffffffffffff1673ffffffffffffffffffffffffffffffffffffffff1661204f9092919063ffffffff16565b82600001547fc6532367992b32e42a62dd89fc3574876d97d081a263aa6e030f34b79b7e6e8b8460010160009054906101000a900473ffffffffffffffffffffffffffffffffffffffff16338442604051611bea94939291906132e8565b60405180910390a2505050565b6000611c068360000183611dd8565b60001c905092915050565b6000611c2086868686866120d5565b905095945050505050565b60008473ffffffffffffffffffffffffffffffffffffffff166370a08231846040518263ffffffff1660e01b8152600401611c669190613296565b60206040518083038186803b158015611c7e57600080fd5b505afa158015611c92573d6000803e3d6000fd5b505050506040513d601f19601f82011682018060405250810190611cb69190612b83565b9050611ce58484848873ffffffffffffffffffffffffffffffffffffffff166122a1909392919063ffffffff16565b60008573ffffffffffffffffffffffffffffffffffffffff166370a08231856040518263ffffffff1660e01b8152600401611d209190613296565b60206040518083038186803b158015611d3857600080fd5b505afa158015611d4c573d6000803e3d6000fd5b505050506040513d601f19601f82011682018060405250810190611d709190612b83565b9050828282611d7f91906137a7565b14611dbf576040517f08c379a0000000000000000000000000000000000000000000000000000000008152600401611db690613597565b60405180910390fd5b505050505050565b600081600001805490509050919050565b6000826000018281548110611e16577f4e487b7100000000000000000000000000000000000000000000000000000000600052603260045260246000fd5b9060005260206000200154905092915050565b60008083600101600084815260200190815260200160002054905060008114611fa3576000600182611e5b91906137a7565b9050600060018660000180549050611e7391906137a7565b9050818114611f2e576000866000018281548110611eba577f4e487b7100000000000000000000000000000000000000000000000000000000600052603260045260246000fd5b9060005260206000200154905080876000018481548110611f04577f4e487b7100000000000000000000000000000000000000000000000000000000600052603260045260246000fd5b90600052602060002001819055508387600101600083815260200190815260200160002081905550505b85600001805480611f68577f4e487b7100000000000000000000000000000000000000000000000000000000600052603160045260246000fd5b600190038181906000526020600020016000905590558560010160008681526020019081526020016000206000905560019350505050611fa9565b60009150505b92915050565b6000611fbb838361232a565b612014578260000182908060018154018082558091505060019003906000526020600020016000909190919091505582600001805490508360010160008481526020019081526020016000208190555060019050612019565b600090505b92915050565b6000612047836000018373ffffffffffffffffffffffffffffffffffffffff1660001b611e29565b905092915050565b6120d08363a9059cbb60e01b848460405160240161206e92919061332d565b604051602081830303815290604052907bffffffffffffffffffffffffffffffffffffffffffffffffffffffff19166020820180517bffffffffffffffffffffffffffffffffffffffffffffffffffffffff838183161783525050505061234d565b505050565b60006120e48686868686612414565b905061213781600260008973ffffffffffffffffffffffffffffffffffffffff1673ffffffffffffffffffffffffffffffffffffffff1681526020019081526020016000206118d290919063ffffffff16565b5061214c8560036125a690919063ffffffff16565b506000600560008773ffffffffffffffffffffffffffffffffffffffff1673ffffffffffffffffffffffffffffffffffffffff1681526020019081526020016000209050600073ffffffffffffffffffffffffffffffffffffffff168160000160009054906101000a900473ffffffffffffffffffffffffffffffffffffffff1673ffffffffffffffffffffffffffffffffffffffff16141561222d57858160000160006101000a81548173ffffffffffffffffffffffffffffffffffffffff021916908373ffffffffffffffffffffffffffffffffffffffff1602179055505b84816001015461223d9190613751565b816001018190555061229682600660008973ffffffffffffffffffffffffffffffffffffffff1673ffffffffffffffffffffffffffffffffffffffff1681526020019081526020016000206118d290919063ffffffff16565b505095945050505050565b612324846323b872dd60e01b8585856040516024016122c2939291906132b1565b604051602081830303815290604052907bffffffffffffffffffffffffffffffffffffffffffffffffffffffff19166020820180517bffffffffffffffffffffffffffffffffffffffffffffffffffffffff838183161783525050505061234d565b50505050565b600080836001016000848152602001908152602001600020541415905092915050565b60006123af826040518060400160405280602081526020017f5361666545524332303a206c6f772d6c6576656c2063616c6c206661696c65648152508573ffffffffffffffffffffffffffffffffffffffff166125d69092919063ffffffff16565b905060008151111561240f57808060200190518101906123cf9190612b31565b61240e576040517f08c379a000000000000000000000000000000000000000000000000000000000815260040161240590613537565b60405180910390fd5b5b505050565b600061241e6125ee565b600180549050905060006040518061010001604052808381526020018773ffffffffffffffffffffffffffffffffffffffff1681526020018873ffffffffffffffffffffffffffffffffffffffff1681526020018681526020014281526020018581526020016000815260200184815250905060018190806001815401808255809150506001900390600052602060002090600802016000909190919091506000820151816000015560208201518160010160006101000a81548173ffffffffffffffffffffffffffffffffffffffff021916908373ffffffffffffffffffffffffffffffffffffffff16021790555060408201518160020160006101000a81548173ffffffffffffffffffffffffffffffffffffffff021916908373ffffffffffffffffffffffffffffffffffffffff160217905550606082015181600301556080820151816004015560a0820151816005015560c0820151816006015560e082015181600701908051906020019061259992919061288f565b5050505095945050505050565b60006125ce836000018373ffffffffffffffffffffffffffffffffffffffff1660001b611faf565b905092915050565b60606125e58484600085612638565b90509392505050565b6125f6610bd1565b15612636576040517f08c379a000000000000000000000000000000000000000000000000000000000815260040161262d90613477565b60405180910390fd5b565b60608247101561267d576040517f08c379a000000000000000000000000000000000000000000000000000000000815260040161267490613437565b60405180910390fd5b6000808673ffffffffffffffffffffffffffffffffffffffff1685876040516126a6919061327f565b60006040518083038185875af1925050503d80600081146126e3576040519150601f19603f3d011682016040523d82523d6000602084013e6126e8565b606091505b50915091506126f987838387612705565b92505050949350505050565b6060831561276857600083511415612760576127208561277b565b61275f576040517f08c379a0000000000000000000000000000000000000000000000000000000008152600401612756906134f7565b60405180910390fd5b5b829050612773565b612772838361279e565b5b949350505050565b6000808273ffffffffffffffffffffffffffffffffffffffff163b119050919050565b6000825111156127b15781518083602001fd5b806040517f08c379a00000000000000000000000000000000000000000000000000000000081526004016127e591906133b5565b60405180910390fd5b60405180610100016040528060008152602001600073ffffffffffffffffffffffffffffffffffffffff168152602001600073ffffffffffffffffffffffffffffffffffffffff16815260200160008152602001600081526020016000815260200160008152602001606081525090565b6040518060400160405280600073ffffffffffffffffffffffffffffffffffffffff168152602001600081525090565b82805461289b90613865565b90600052602060002090601f0160209004810192826128bd5760008555612904565b82601f106128d657805160ff1916838001178555612904565b82800160010185558215612904579182015b828111156129035782518255916020019190600101906128e8565b5b5090506129119190612915565b5090565b5b8082111561292e576000816000905550600101612916565b5090565b60006129456129408461366b565b613646565b90508281526020810184848401111561295d57600080fd5b612968848285613823565b509392505050565b60008135905061297f81613d20565b92915050565b60008151905061299481613d37565b92915050565b600082601f8301126129ab57600080fd5b81356129bb848260208601612932565b91505092915050565b6000813590506129d381613d4e565b92915050565b6000815190506129e881613d4e565b92915050565b600060208284031215612a0057600080fd5b6000612a0e84828501612970565b91505092915050565b600080600080600060a08688031215612a2f57600080fd5b6000612a3d88828901612970565b9550506020612a4e88828901612970565b9450506040612a5f888289016129c4565b9350506060612a70888289016129c4565b925050608086013567ffffffffffffffff811115612a8d57600080fd5b612a998882890161299a565b9150509295509295909350565b60008060408385031215612ab957600080fd5b6000612ac785828601612970565b9250506020612ad8858286016129c4565b9150509250929050565b600080600060608486031215612af757600080fd5b6000612b0586828701612970565b9350506020612b16868287016129c4565b9250506040612b27868287016129c4565b9150509250925092565b600060208284031215612b4357600080fd5b6000612b5184828501612985565b91505092915050565b600060208284031215612b6c57600080fd5b6000612b7a848285016129c4565b91505092915050565b600060208284031215612b9557600080fd5b6000612ba3848285016129d9565b91505092915050565b60008060408385031215612bbf57600080fd5b6000612bcd858286016129c4565b9250506020612bde85828601612970565b9150509250929050565b60008060408385031215612bfb57600080fd5b6000612c09858286016129c4565b925050602083013567ffffffffffffffff811115612c2657600080fd5b612c328582860161299a565b9150509250929050565b60008060408385031215612c4f57600080fd5b6000612c5d858286016129c4565b9250506020612c6e858286016129c4565b9150509250929050565b600080600060608486031215612c8d57600080fd5b6000612c9b868287016129c4565b9350506020612cac868287016129c4565b9250506040612cbd868287016129c4565b9150509250925092565b6000612cd383836130a3565b60408301905092915050565b6000612ceb8383613101565b905092915050565b612cfc816137db565b82525050565b612d0b816137db565b82525050565b6000612d1c826136bc565b612d268185613702565b9350612d318361369c565b8060005b83811015612d62578151612d498882612cc7565b9750612d54836136e8565b925050600181019050612d35565b5085935050505092915050565b6000612d7a826136c7565b612d848185613713565b935083602082028501612d96856136ac565b8060005b85811015612dd25784840389528151612db38582612cdf565b9450612dbe836136f5565b925060208a01995050600181019050612d9a565b50829750879550505050505092915050565b612ded816137ed565b82525050565b6000612dfe826136d2565b612e088185613724565b9350612e18818560208601613832565b80840191505092915050565b6000612e2f826136dd565b612e39818561372f565b9350612e49818560208601613832565b612e528161399e565b840191505092915050565b6000612e68826136dd565b612e728185613740565b9350612e82818560208601613832565b612e8b8161399e565b840191505092915050565b6000612ea3601183613740565b9150612eae826139af565b602082019050919050565b6000612ec6602383613740565b9150612ed1826139d8565b604082019050919050565b6000612ee9600d83613740565b9150612ef482613a27565b602082019050919050565b6000612f0c602683613740565b9150612f1782613a50565b604082019050919050565b6000612f2f602283613740565b9150612f3a82613a9f565b604082019050919050565b6000612f52601083613740565b9150612f5d82613aee565b602082019050919050565b6000612f75600f83613740565b9150612f8082613b17565b602082019050919050565b6000612f98601f83613740565b9150612fa382613b40565b602082019050919050565b6000612fbb601183613740565b9150612fc682613b69565b602082019050919050565b6000612fde601d83613740565b9150612fe982613b92565b602082019050919050565b6000613001603183613740565b915061300c82613bbb565b604082019050919050565b6000613024602a83613740565b915061302f82613c0a565b604082019050919050565b6000613047601883613740565b915061305282613c59565b602082019050919050565b600061306a604483613740565b915061307582613c82565b606082019050919050565b600061308d601f83613740565b915061309882613cf7565b602082019050919050565b6040820160008201516130b96000850182612cf3565b5060208201516130cc6020850182613261565b50505050565b6040820160008201516130e86000850182612cf3565b5060208201516130fb6020850182613261565b50505050565b60006101008301600083015161311a6000860182613261565b50602083015161312d6020860182612cf3565b5060408301516131406040860182612cf3565b5060608301516131536060860182613261565b5060808301516131666080860182613261565b5060a083015161317960a0860182613261565b5060c083015161318c60c0860182613261565b5060e083015184820360e08601526131a48282612e24565b9150508091505092915050565b6000610100830160008301516131ca6000860182613261565b5060208301516131dd6020860182612cf3565b5060408301516131f06040860182612cf3565b5060608301516132036060860182613261565b5060808301516132166080860182613261565b5060a083015161322960a0860182613261565b5060c083015161323c60c0860182613261565b5060e083015184820360e08601526132548282612e24565b9150508091505092915050565b61326a81613819565b82525050565b61327981613819565b82525050565b600061328b8284612df3565b915081905092915050565b60006020820190506132ab6000830184612d02565b92915050565b60006060820190506132c66000830186612d02565b6132d36020830185612d02565b6132e06040830184613270565b949350505050565b60006080820190506132fd6000830187612d02565b61330a6020830186612d02565b6133176040830185613270565b6133246060830184613270565b95945050505050565b60006040820190506133426000830185612d02565b61334f6020830184613270565b9392505050565b600060208201905081810360008301526133708184612d11565b905092915050565b600060208201905081810360008301526133928184612d6f565b905092915050565b60006020820190506133af6000830184612de4565b92915050565b600060208201905081810360008301526133cf8184612e5d565b905092915050565b600060208201905081810360008301526133f081612e96565b9050919050565b6000602082019050818103600083015261341081612eb9565b9050919050565b6000602082019050818103600083015261343081612edc565b9050919050565b6000602082019050818103600083015261345081612eff565b9050919050565b6000602082019050818103600083015261347081612f22565b9050919050565b6000602082019050818103600083015261349081612f45565b9050919050565b600060208201905081810360008301526134b081612f68565b9050919050565b600060208201905081810360008301526134d081612f8b565b9050919050565b600060208201905081810360008301526134f081612fae565b9050919050565b6000602082019050818103600083015261351081612fd1565b9050919050565b6000602082019050818103600083015261353081612ff4565b9050919050565b6000602082019050818103600083015261355081613017565b9050919050565b600060208201905081810360008301526135708161303a565b9050919050565b600060208201905081810360008301526135908161305d565b9050919050565b600060208201905081810360008301526135b081613080565b9050919050565b60006040820190506135cc60008301846130d2565b92915050565b600060208201905081810360008301526135ec81846131b1565b905092915050565b60006020820190506136096000830184613270565b92915050565b60006060820190506136246000830186613270565b6136316020830185612d02565b61363e6040830184612d02565b949350505050565b6000613650613661565b905061365c8282613897565b919050565b6000604051905090565b600067ffffffffffffffff8211156136865761368561396f565b5b61368f8261399e565b9050602081019050919050565b6000819050602082019050919050565b6000819050602082019050919050565b600081519050919050565b600081519050919050565b600081519050919050565b600081519050919050565b6000602082019050919050565b6000602082019050919050565b600082825260208201905092915050565b600082825260208201905092915050565b600081905092915050565b600082825260208201905092915050565b600082825260208201905092915050565b600061375c82613819565b915061376783613819565b9250827fffffffffffffffffffffffffffffffffffffffffffffffffffffffffffffffff0382111561379c5761379b613911565b5b828201905092915050565b60006137b282613819565b91506137bd83613819565b9250828210156137d0576137cf613911565b5b828203905092915050565b60006137e6826137f9565b9050919050565b60008115159050919050565b600073ffffffffffffffffffffffffffffffffffffffff82169050919050565b6000819050919050565b82818337600083830152505050565b60005b83811015613850578082015181840152602081019050613835565b8381111561385f576000848401525b50505050565b6000600282049050600182168061387d57607f821691505b6020821081141561389157613890613940565b5b50919050565b6138a08261399e565b810181811067ffffffffffffffff821117156138bf576138be61396f565b5b80604052505050565b60006138d382613819565b91507fffffffffffffffffffffffffffffffffffffffffffffffffffffffffffffffff82141561390657613905613911565b5b600182019050919050565b7f4e487b7100000000000000000000000000000000000000000000000000000000600052601160045260246000fd5b7f4e487b7100000000000000000000000000000000000000000000000000000000600052602260045260246000fd5b7f4e487b7100000000000000000000000000000000000000000000000000000000600052604160045260246000fd5b6000601f19601f8301169050919050565b7f4c6f636b2077617320756e6c6f636b6564000000000000000000000000000000600082015250565b7f556e6c6f636b20646174652073686f756c6420626520696e207468652066757460008201527f7572650000000000000000000000000000000000000000000000000000000000602082015250565b7f496e76616c696420696e64657800000000000000000000000000000000000000600082015250565b7f416464726573733a20696e73756666696369656e742062616c616e636520666f60008201527f722063616c6c0000000000000000000000000000000000000000000000000000602082015250565b7f596f7520617265206e6f7420746865206f776e6572206f662074686973206c6f60008201527f636b000000000000000000000000000000000000000000000000000000000000602082015250565b7f5061757361626c653a2070617573656400000000000000000000000000000000600082015250565b7f496e76616c6964206c6f636b2069640000000000000000000000000000000000600082015250565b7f416d6f756e742073686f756c642062652067726561746572207468616e203000600082015250565b7f4e6f7468696e6720746f20756e6c6f636b000000000000000000000000000000600082015250565b7f416464726573733a2063616c6c20746f206e6f6e2d636f6e7472616374000000600082015250565b7f4e657720616d6f756e742073686f756c64206e6f74206265206c65737320746860008201527f616e2063757272656e7420616d6f756e74000000000000000000000000000000602082015250565b7f5361666545524332303a204552433230206f7065726174696f6e20646964206e60008201527f6f74207375636365656400000000000000000000000000000000000000000000602082015250565b7f4974206973206e6f742074696d6520746f20756e6c6f636b0000000000000000600082015250565b7f4e657720756e6c6f636b2074696d652073686f756c64206e6f7420626520626560008201527f666f7265206f6c6420756e6c6f636b2074696d65206f722063757272656e742060208201527f74696d6500000000000000000000000000000000000000000000000000000000604082015250565b7f4e6f7420656e6f75676820746f6b656e20776173207472616e73666572656400600082015250565b613d29816137db565b8114613d3457600080fd5b50565b613d40816137ed565b8114613d4b57600080fd5b50565b613d5781613819565b8114613d6257600080fd5b5056fea2646970667358221220daf66d299942a0eae7eb556ca79633b1e5066e1f7cb3958f05f86086fed5283c64736f6c63430008040033",
			"opcodes": "PUSH1 0x80 PUSH1 0x40 MSTORE CALLVALUE DUP1 ISZERO PUSH2 0x10 JUMPI PUSH1 0x0 DUP1 REVERT JUMPDEST POP PUSH1 0x0 DUP1 PUSH1 0x0 PUSH2 0x100 EXP DUP2 SLOAD DUP2 PUSH1 0xFF MUL NOT AND SWAP1 DUP4 ISZERO ISZERO MUL OR SWAP1 SSTORE POP PUSH2 0x3D9B DUP1 PUSH2 0x3A PUSH1 0x0 CODECOPY PUSH1 0x0 RETURN INVALID PUSH1 0x80 PUSH1 0x40 MSTORE CALLVALUE DUP1 ISZERO PUSH2 0x10 JUMPI PUSH1 0x0 DUP1 REVERT JUMPDEST POP PUSH1 0x4 CALLDATASIZE LT PUSH2 0x116 JUMPI PUSH1 0x0 CALLDATALOAD PUSH1 0xE0 SHR DUP1 PUSH4 0x7E6706D3 GT PUSH2 0xA2 JUMPI DUP1 PUSH4 0xD3CAC885 GT PUSH2 0x71 JUMPI DUP1 PUSH4 0xD3CAC885 EQ PUSH2 0x317 JUMPI DUP1 PUSH4 0xDA1D8CFF EQ PUSH2 0x333 JUMPI DUP1 PUSH4 0xE1444FD6 EQ PUSH2 0x363 JUMPI DUP1 PUSH4 0xEB80BDAE EQ PUSH2 0x394 JUMPI DUP1 PUSH4 0xFD981C66 EQ PUSH2 0x3C4 JUMPI PUSH2 0x116 JUMP JUMPDEST DUP1 PUSH4 0x7E6706D3 EQ PUSH2 0x27F JUMPI DUP1 PUSH4 0x97B1D73A EQ PUSH2 0x2AF JUMPI DUP1 PUSH4 0xA57E3141 EQ PUSH2 0x2DF JUMPI DUP1 PUSH4 0xB3B9AA48 EQ PUSH2 0x2FB JUMPI PUSH2 0x116 JUMP JUMPDEST DUP1 PUSH4 0x5A04FB69 GT PUSH2 0xE9 JUMPI DUP1 PUSH4 0x5A04FB69 EQ PUSH2 0x1C9 JUMPI DUP1 PUSH4 0x5C975ABB EQ PUSH2 0x1E5 JUMPI DUP1 PUSH4 0x618DF7A3 EQ PUSH2 0x203 JUMPI DUP1 PUSH4 0x6198E339 EQ PUSH2 0x233 JUMPI DUP1 PUSH4 0x76C12822 EQ PUSH2 0x24F JUMPI PUSH2 0x116 JUMP JUMPDEST DUP1 PUSH4 0x8F12470 EQ PUSH2 0x11B JUMPI DUP1 PUSH4 0xD4F581A EQ PUSH2 0x14B JUMPI DUP1 PUSH4 0x332F26D7 EQ PUSH2 0x17B JUMPI DUP1 PUSH4 0x475831C8 EQ PUSH2 0x1AB JUMPI JUMPDEST PUSH1 0x0 DUP1 REVERT JUMPDEST PUSH2 0x135 PUSH1 0x4 DUP1 CALLDATASIZE SUB DUP2 ADD SWAP1 PUSH2 0x130 SWAP2 SWAP1 PUSH2 0x2B5A JUMP JUMPDEST PUSH2 0x3E2 JUMP JUMPDEST PUSH1 0x40 MLOAD PUSH2 0x142 SWAP2 SWAP1 PUSH2 0x35D2 JUMP JUMPDEST PUSH1 0x40 MLOAD DUP1 SWAP2 SUB SWAP1 RETURN JUMPDEST PUSH2 0x165 PUSH1 0x4 DUP1 CALLDATASIZE SUB DUP2 ADD SWAP1 PUSH2 0x160 SWAP2 SWAP1 PUSH2 0x2B5A JUMP JUMPDEST PUSH2 0x5BD JUMP JUMPDEST PUSH1 0x40 MLOAD PUSH2 0x172 SWAP2 SWAP1 PUSH2 0x35D2 JUMP JUMPDEST PUSH1 0x40 MLOAD DUP1 SWAP2 SUB SWAP1 RETURN JUMPDEST PUSH2 0x195 PUSH1 0x4 DUP1 CALLDATASIZE SUB DUP2 ADD SWAP1 PUSH2 0x190 SWAP2 SWAP1 PUSH2 0x2AE2 JUMP JUMPDEST PUSH2 0x790 JUMP JUMPDEST PUSH1 0x40 MLOAD PUSH2 0x1A2 SWAP2 SWAP1 PUSH2 0x3378 JUMP JUMPDEST PUSH1 0x40 MLOAD DUP1 SWAP2 SUB SWAP1 RETURN JUMPDEST PUSH2 0x1B3 PUSH2 0x9A9 JUMP JUMPDEST PUSH1 0x40 MLOAD PUSH2 0x1C0 SWAP2 SWAP1 PUSH2 0x35F4 JUMP JUMPDEST PUSH1 0x40 MLOAD DUP1 SWAP2 SUB SWAP1 RETURN JUMPDEST PUSH2 0x1E3 PUSH1 0x4 DUP1 CALLDATASIZE SUB DUP2 ADD SWAP1 PUSH2 0x1DE SWAP2 SWAP1 PUSH2 0x2BAC JUMP JUMPDEST PUSH2 0x9BA JUMP JUMPDEST STOP JUMPDEST PUSH2 0x1ED PUSH2 0xBD1 JUMP JUMPDEST PUSH1 0x40 MLOAD PUSH2 0x1FA SWAP2 SWAP1 PUSH2 0x339A JUMP JUMPDEST PUSH1 0x40 MLOAD DUP1 SWAP2 SUB SWAP1 RETURN JUMPDEST PUSH2 0x21D PUSH1 0x4 DUP1 CALLDATASIZE SUB DUP2 ADD SWAP1 PUSH2 0x218 SWAP2 SWAP1 PUSH2 0x2AA6 JUMP JUMPDEST PUSH2 0xBE7 JUMP JUMPDEST PUSH1 0x40 MLOAD PUSH2 0x22A SWAP2 SWAP1 PUSH2 0x35D2 JUMP JUMPDEST PUSH1 0x40 MLOAD DUP1 SWAP2 SUB SWAP1 RETURN JUMPDEST PUSH2 0x24D PUSH1 0x4 DUP1 CALLDATASIZE SUB DUP2 ADD SWAP1 PUSH2 0x248 SWAP2 SWAP1 PUSH2 0x2B5A JUMP JUMPDEST PUSH2 0xC9A JUMP JUMPDEST STOP JUMPDEST PUSH2 0x269 PUSH1 0x4 DUP1 CALLDATASIZE SUB DUP2 ADD SWAP1 PUSH2 0x264 SWAP2 SWAP1 PUSH2 0x2C3C JUMP JUMPDEST PUSH2 0xD91 JUMP JUMPDEST PUSH1 0x40 MLOAD PUSH2 0x276 SWAP2 SWAP1 PUSH2 0x3356 JUMP JUMPDEST PUSH1 0x40 MLOAD DUP1 SWAP2 SUB SWAP1 RETURN JUMPDEST PUSH2 0x299 PUSH1 0x4 DUP1 CALLDATASIZE SUB DUP2 ADD SWAP1 PUSH2 0x294 SWAP2 SWAP1 PUSH2 0x2B5A JUMP JUMPDEST PUSH2 0xF93 JUMP JUMPDEST PUSH1 0x40 MLOAD PUSH2 0x2A6 SWAP2 SWAP1 PUSH2 0x35B7 JUMP JUMPDEST PUSH1 0x40 MLOAD DUP1 SWAP2 SUB SWAP1 RETURN JUMPDEST PUSH2 0x2C9 PUSH1 0x4 DUP1 CALLDATASIZE SUB DUP2 ADD SWAP1 PUSH2 0x2C4 SWAP2 SWAP1 PUSH2 0x2A17 JUMP JUMPDEST PUSH2 0x105F JUMP JUMPDEST PUSH1 0x40 MLOAD PUSH2 0x2D6 SWAP2 SWAP1 PUSH2 0x35F4 JUMP JUMPDEST PUSH1 0x40 MLOAD DUP1 SWAP2 SUB SWAP1 RETURN JUMPDEST PUSH2 0x2F9 PUSH1 0x4 DUP1 CALLDATASIZE SUB DUP2 ADD SWAP1 PUSH2 0x2F4 SWAP2 SWAP1 PUSH2 0x2B5A JUMP JUMPDEST PUSH2 0x1148 JUMP JUMPDEST STOP JUMPDEST PUSH2 0x315 PUSH1 0x4 DUP1 CALLDATASIZE SUB DUP2 ADD SWAP1 PUSH2 0x310 SWAP2 SWAP1 PUSH2 0x2C78 JUMP JUMPDEST PUSH2 0x1156 JUMP JUMPDEST STOP JUMPDEST PUSH2 0x331 PUSH1 0x4 DUP1 CALLDATASIZE SUB DUP2 ADD SWAP1 PUSH2 0x32C SWAP2 SWAP1 PUSH2 0x2BE8 JUMP JUMPDEST PUSH2 0x14AD JUMP JUMPDEST STOP JUMPDEST PUSH2 0x34D PUSH1 0x4 DUP1 CALLDATASIZE SUB DUP2 ADD SWAP1 PUSH2 0x348 SWAP2 SWAP1 PUSH2 0x29EE JUMP JUMPDEST PUSH2 0x15EC JUMP JUMPDEST PUSH1 0x40 MLOAD PUSH2 0x35A SWAP2 SWAP1 PUSH2 0x3378 JUMP JUMPDEST PUSH1 0x40 MLOAD DUP1 SWAP2 SUB SWAP1 RETURN JUMPDEST PUSH2 0x37D PUSH1 0x4 DUP1 CALLDATASIZE SUB DUP2 ADD SWAP1 PUSH2 0x378 SWAP2 SWAP1 PUSH2 0x29EE JUMP JUMPDEST PUSH2 0x177D JUMP JUMPDEST PUSH1 0x40 MLOAD PUSH2 0x38B SWAP3 SWAP2 SWAP1 PUSH2 0x332D JUMP JUMPDEST PUSH1 0x40 MLOAD DUP1 SWAP2 SUB SWAP1 RETURN JUMPDEST PUSH2 0x3AE PUSH1 0x4 DUP1 CALLDATASIZE SUB DUP2 ADD SWAP1 PUSH2 0x3A9 SWAP2 SWAP1 PUSH2 0x29EE JUMP JUMPDEST PUSH2 0x17C1 JUMP JUMPDEST PUSH1 0x40 MLOAD PUSH2 0x3BB SWAP2 SWAP1 PUSH2 0x35F4 JUMP JUMPDEST PUSH1 0x40 MLOAD DUP1 SWAP2 SUB SWAP1 RETURN JUMPDEST PUSH2 0x3CC PUSH2 0x1811 JUMP JUMPDEST PUSH1 0x40 MLOAD PUSH2 0x3D9 SWAP2 SWAP1 PUSH2 0x35F4 JUMP JUMPDEST PUSH1 0x40 MLOAD DUP1 SWAP2 SUB SWAP1 RETURN JUMPDEST PUSH2 0x3EA PUSH2 0x27EE JUMP JUMPDEST PUSH1 0x1 PUSH2 0x3F5 DUP4 PUSH2 0x181E JUMP JUMPDEST DUP2 SLOAD DUP2 LT PUSH2 0x42C JUMPI PUSH32 0x4E487B7100000000000000000000000000000000000000000000000000000000 PUSH1 0x0 MSTORE PUSH1 0x32 PUSH1 0x4 MSTORE PUSH1 0x24 PUSH1 0x0 REVERT JUMPDEST SWAP1 PUSH1 0x0 MSTORE PUSH1 0x20 PUSH1 0x0 KECCAK256 SWAP1 PUSH1 0x8 MUL ADD PUSH1 0x40 MLOAD DUP1 PUSH2 0x100 ADD PUSH1 0x40 MSTORE SWAP1 DUP2 PUSH1 0x0 DUP3 ADD SLOAD DUP2 MSTORE PUSH1 0x20 ADD PUSH1 0x1 DUP3 ADD PUSH1 0x0 SWAP1 SLOAD SWAP1 PUSH2 0x100 EXP SWAP1 DIV PUSH20 0xFFFFFFFFFFFFFFFFFFFFFFFFFFFFFFFFFFFFFFFF AND PUSH20 0xFFFFFFFFFFFFFFFFFFFFFFFFFFFFFFFFFFFFFFFF AND PUSH20 0xFFFFFFFFFFFFFFFFFFFFFFFFFFFFFFFFFFFFFFFF AND DUP2 MSTORE PUSH1 0x20 ADD PUSH1 0x2 DUP3 ADD PUSH1 0x0 SWAP1 SLOAD SWAP1 PUSH2 0x100 EXP SWAP1 DIV PUSH20 0xFFFFFFFFFFFFFFFFFFFFFFFFFFFFFFFFFFFFFFFF AND PUSH20 0xFFFFFFFFFFFFFFFFFFFFFFFFFFFFFFFFFFFFFFFF AND PUSH20 0xFFFFFFFFFFFFFFFFFFFFFFFFFFFFFFFFFFFFFFFF AND DUP2 MSTORE PUSH1 0x20 ADD PUSH1 0x3 DUP3 ADD SLOAD DUP2 MSTORE PUSH1 0x20 ADD PUSH1 0x4 DUP3 ADD SLOAD DUP2 MSTORE PUSH1 0x20 ADD PUSH1 0x5 DUP3 ADD SLOAD DUP2 MSTORE PUSH1 0x20 ADD PUSH1 0x6 DUP3 ADD SLOAD DUP2 MSTORE PUSH1 0x20 ADD PUSH1 0x7 DUP3 ADD DUP1 SLOAD PUSH2 0x534 SWAP1 PUSH2 0x3865 JUMP JUMPDEST DUP1 PUSH1 0x1F ADD PUSH1 0x20 DUP1 SWAP2 DIV MUL PUSH1 0x20 ADD PUSH1 0x40 MLOAD SWAP1 DUP2 ADD PUSH1 0x40 MSTORE DUP1 SWAP3 SWAP2 SWAP1 DUP2 DUP2 MSTORE PUSH1 0x20 ADD DUP3 DUP1 SLOAD PUSH2 0x560 SWAP1 PUSH2 0x3865 JUMP JUMPDEST DUP1 ISZERO PUSH2 0x5AD JUMPI DUP1 PUSH1 0x1F LT PUSH2 0x582 JUMPI PUSH2 0x100 DUP1 DUP4 SLOAD DIV MUL DUP4 MSTORE SWAP2 PUSH1 0x20 ADD SWAP2 PUSH2 0x5AD JUMP JUMPDEST DUP3 ADD SWAP2 SWAP1 PUSH1 0x0 MSTORE PUSH1 0x20 PUSH1 0x0 KECCAK256 SWAP1 JUMPDEST DUP2 SLOAD DUP2 MSTORE SWAP1 PUSH1 0x1 ADD SWAP1 PUSH1 0x20 ADD DUP1 DUP4 GT PUSH2 0x590 JUMPI DUP3 SWAP1 SUB PUSH1 0x1F AND DUP3 ADD SWAP2 JUMPDEST POP POP POP POP POP DUP2 MSTORE POP POP SWAP1 POP SWAP2 SWAP1 POP JUMP JUMPDEST PUSH2 0x5C5 PUSH2 0x27EE JUMP JUMPDEST PUSH1 0x1 DUP3 DUP2 SLOAD DUP2 LT PUSH2 0x5FF JUMPI PUSH32 0x4E487B7100000000000000000000000000000000000000000000000000000000 PUSH1 0x0 MSTORE PUSH1 0x32 PUSH1 0x4 MSTORE PUSH1 0x24 PUSH1 0x0 REVERT JUMPDEST SWAP1 PUSH1 0x0 MSTORE PUSH1 0x20 PUSH1 0x0 KECCAK256 SWAP1 PUSH1 0x8 MUL ADD PUSH1 0x40 MLOAD DUP1 PUSH2 0x100 ADD PUSH1 0x40 MSTORE SWAP1 DUP2 PUSH1 0x0 DUP3 ADD SLOAD DUP2 MSTORE PUSH1 0x20 ADD PUSH1 0x1 DUP3 ADD PUSH1 0x0 SWAP1 SLOAD SWAP1 PUSH2 0x100 EXP SWAP1 DIV PUSH20 0xFFFFFFFFFFFFFFFFFFFFFFFFFFFFFFFFFFFFFFFF AND PUSH20 0xFFFFFFFFFFFFFFFFFFFFFFFFFFFFFFFFFFFFFFFF AND PUSH20 0xFFFFFFFFFFFFFFFFFFFFFFFFFFFFFFFFFFFFFFFF AND DUP2 MSTORE PUSH1 0x20 ADD PUSH1 0x2 DUP3 ADD PUSH1 0x0 SWAP1 SLOAD SWAP1 PUSH2 0x100 EXP SWAP1 DIV PUSH20 0xFFFFFFFFFFFFFFFFFFFFFFFFFFFFFFFFFFFFFFFF AND PUSH20 0xFFFFFFFFFFFFFFFFFFFFFFFFFFFFFFFFFFFFFFFF AND PUSH20 0xFFFFFFFFFFFFFFFFFFFFFFFFFFFFFFFFFFFFFFFF AND DUP2 MSTORE PUSH1 0x20 ADD PUSH1 0x3 DUP3 ADD SLOAD DUP2 MSTORE PUSH1 0x20 ADD PUSH1 0x4 DUP3 ADD SLOAD DUP2 MSTORE PUSH1 0x20 ADD PUSH1 0x5 DUP3 ADD SLOAD DUP2 MSTORE PUSH1 0x20 ADD PUSH1 0x6 DUP3 ADD SLOAD DUP2 MSTORE PUSH1 0x20 ADD PUSH1 0x7 DUP3 ADD DUP1 SLOAD PUSH2 0x707 SWAP1 PUSH2 0x3865 JUMP JUMPDEST DUP1 PUSH1 0x1F ADD PUSH1 0x20 DUP1 SWAP2 DIV MUL PUSH1 0x20 ADD PUSH1 0x40 MLOAD SWAP1 DUP2 ADD PUSH1 0x40 MSTORE DUP1 SWAP3 SWAP2 SWAP1 DUP2 DUP2 MSTORE PUSH1 0x20 ADD DUP3 DUP1 SLOAD PUSH2 0x733 SWAP1 PUSH2 0x3865 JUMP JUMPDEST DUP1 ISZERO PUSH2 0x780 JUMPI DUP1 PUSH1 0x1F LT PUSH2 0x755 JUMPI PUSH2 0x100 DUP1 DUP4 SLOAD DIV MUL DUP4 MSTORE SWAP2 PUSH1 0x20 ADD SWAP2 PUSH2 0x780 JUMP JUMPDEST DUP3 ADD SWAP2 SWAP1 PUSH1 0x0 MSTORE PUSH1 0x20 PUSH1 0x0 KECCAK256 SWAP1 JUMPDEST DUP2 SLOAD DUP2 MSTORE SWAP1 PUSH1 0x1 ADD SWAP1 PUSH1 0x20 ADD DUP1 DUP4 GT PUSH2 0x763 JUMPI DUP3 SWAP1 SUB PUSH1 0x1F AND DUP3 ADD SWAP2 JUMPDEST POP POP POP POP POP DUP2 MSTORE POP POP SWAP1 POP SWAP2 SWAP1 POP JUMP JUMPDEST PUSH1 0x60 PUSH2 0x7D9 PUSH1 0x6 PUSH1 0x0 DUP7 PUSH20 0xFFFFFFFFFFFFFFFFFFFFFFFFFFFFFFFFFFFFFFFF AND PUSH20 0xFFFFFFFFFFFFFFFFFFFFFFFFFFFFFFFFFFFFFFFF AND DUP2 MSTORE PUSH1 0x20 ADD SWAP1 DUP2 MSTORE PUSH1 0x20 ADD PUSH1 0x0 KECCAK256 PUSH2 0x1874 JUMP JUMPDEST DUP3 LT PUSH2 0x835 JUMPI PUSH1 0x1 PUSH2 0x828 PUSH1 0x6 PUSH1 0x0 DUP8 PUSH20 0xFFFFFFFFFFFFFFFFFFFFFFFFFFFFFFFFFFFFFFFF AND PUSH20 0xFFFFFFFFFFFFFFFFFFFFFFFFFFFFFFFFFFFFFFFF AND DUP2 MSTORE PUSH1 0x20 ADD SWAP1 DUP2 MSTORE PUSH1 0x20 ADD PUSH1 0x0 KECCAK256 PUSH2 0x1874 JUMP JUMPDEST PUSH2 0x832 SWAP2 SWAP1 PUSH2 0x37A7 JUMP JUMPDEST SWAP2 POP JUMPDEST PUSH1 0x0 PUSH1 0x1 DUP5 DUP5 PUSH2 0x845 SWAP2 SWAP1 PUSH2 0x37A7 JUMP JUMPDEST PUSH2 0x84F SWAP2 SWAP1 PUSH2 0x3751 JUMP JUMPDEST SWAP1 POP PUSH1 0x0 DUP2 PUSH8 0xFFFFFFFFFFFFFFFF DUP2 GT ISZERO PUSH2 0x893 JUMPI PUSH32 0x4E487B7100000000000000000000000000000000000000000000000000000000 PUSH1 0x0 MSTORE PUSH1 0x41 PUSH1 0x4 MSTORE PUSH1 0x24 PUSH1 0x0 REVERT JUMPDEST PUSH1 0x40 MLOAD SWAP1 DUP1 DUP3 MSTORE DUP1 PUSH1 0x20 MUL PUSH1 0x20 ADD DUP3 ADD PUSH1 0x40 MSTORE DUP1 ISZERO PUSH2 0x8CC JUMPI DUP2 PUSH1 0x20 ADD JUMPDEST PUSH2 0x8B9 PUSH2 0x27EE JUMP JUMPDEST DUP2 MSTORE PUSH1 0x20 ADD SWAP1 PUSH1 0x1 SWAP1 SUB SWAP1 DUP2 PUSH2 0x8B1 JUMPI SWAP1 POP JUMPDEST POP SWAP1 POP PUSH1 0x0 DUP1 DUP7 SWAP1 POP JUMPDEST DUP6 DUP2 GT PUSH2 0x99B JUMPI PUSH2 0x936 PUSH2 0x931 DUP3 PUSH1 0x6 PUSH1 0x0 DUP13 PUSH20 0xFFFFFFFFFFFFFFFFFFFFFFFFFFFFFFFFFFFFFFFF AND PUSH20 0xFFFFFFFFFFFFFFFFFFFFFFFFFFFFFFFFFFFFFFFF AND DUP2 MSTORE PUSH1 0x20 ADD SWAP1 DUP2 MSTORE PUSH1 0x20 ADD PUSH1 0x0 KECCAK256 PUSH2 0x1889 SWAP1 SWAP2 SWAP1 PUSH4 0xFFFFFFFF AND JUMP JUMPDEST PUSH2 0x3E2 JUMP JUMPDEST DUP4 DUP4 DUP2 MLOAD DUP2 LT PUSH2 0x96F JUMPI PUSH32 0x4E487B7100000000000000000000000000000000000000000000000000000000 PUSH1 0x0 MSTORE PUSH1 0x32 PUSH1 0x4 MSTORE PUSH1 0x24 PUSH1 0x0 REVERT JUMPDEST PUSH1 0x20 MUL PUSH1 0x20 ADD ADD DUP2 SWAP1 MSTORE POP DUP2 DUP1 PUSH2 0x985 SWAP1 PUSH2 0x38C8 JUMP JUMPDEST SWAP3 POP POP DUP1 DUP1 PUSH2 0x993 SWAP1 PUSH2 0x38C8 JUMP JUMPDEST SWAP2 POP POP PUSH2 0x8D6 JUMP JUMPDEST POP DUP2 SWAP4 POP POP POP POP SWAP4 SWAP3 POP POP POP JUMP JUMPDEST PUSH1 0x0 PUSH2 0x9B5 PUSH1 0x3 PUSH2 0x18A3 JUMP JUMPDEST SWAP1 POP SWAP1 JUMP JUMPDEST DUP2 PUSH2 0x9C4 DUP2 PUSH2 0x181E JUMP JUMPDEST POP PUSH1 0x0 PUSH1 0x1 DUP5 DUP2 SLOAD DUP2 LT PUSH2 0xA01 JUMPI PUSH32 0x4E487B7100000000000000000000000000000000000000000000000000000000 PUSH1 0x0 MSTORE PUSH1 0x32 PUSH1 0x4 MSTORE PUSH1 0x24 PUSH1 0x0 REVERT JUMPDEST SWAP1 PUSH1 0x0 MSTORE PUSH1 0x20 PUSH1 0x0 KECCAK256 SWAP1 PUSH1 0x8 MUL ADD SWAP1 POP PUSH1 0x0 DUP2 PUSH1 0x2 ADD PUSH1 0x0 SWAP1 SLOAD SWAP1 PUSH2 0x100 EXP SWAP1 DIV PUSH20 0xFFFFFFFFFFFFFFFFFFFFFFFFFFFFFFFFFFFFFFFF AND SWAP1 POP CALLER PUSH20 0xFFFFFFFFFFFFFFFFFFFFFFFFFFFFFFFFFFFFFFFF AND DUP2 PUSH20 0xFFFFFFFFFFFFFFFFFFFFFFFFFFFFFFFFFFFFFFFF AND EQ PUSH2 0xAA8 JUMPI PUSH1 0x40 MLOAD PUSH32 0x8C379A000000000000000000000000000000000000000000000000000000000 DUP2 MSTORE PUSH1 0x4 ADD PUSH2 0xA9F SWAP1 PUSH2 0x3457 JUMP JUMPDEST PUSH1 0x40 MLOAD DUP1 SWAP2 SUB SWAP1 REVERT JUMPDEST DUP4 DUP3 PUSH1 0x2 ADD PUSH1 0x0 PUSH2 0x100 EXP DUP2 SLOAD DUP2 PUSH20 0xFFFFFFFFFFFFFFFFFFFFFFFFFFFFFFFFFFFFFFFF MUL NOT AND SWAP1 DUP4 PUSH20 0xFFFFFFFFFFFFFFFFFFFFFFFFFFFFFFFFFFFFFFFF AND MUL OR SWAP1 SSTORE POP PUSH2 0xB3C DUP6 PUSH1 0x2 PUSH1 0x0 DUP5 PUSH20 0xFFFFFFFFFFFFFFFFFFFFFFFFFFFFFFFFFFFFFFFF AND PUSH20 0xFFFFFFFFFFFFFFFFFFFFFFFFFFFFFFFFFFFFFFFF AND DUP2 MSTORE PUSH1 0x20 ADD SWAP1 DUP2 MSTORE PUSH1 0x20 ADD PUSH1 0x0 KECCAK256 PUSH2 0x18B8 SWAP1 SWAP2 SWAP1 PUSH4 0xFFFFFFFF AND JUMP JUMPDEST POP PUSH2 0xB8E DUP6 PUSH1 0x2 PUSH1 0x0 DUP8 PUSH20 0xFFFFFFFFFFFFFFFFFFFFFFFFFFFFFFFFFFFFFFFF AND PUSH20 0xFFFFFFFFFFFFFFFFFFFFFFFFFFFFFFFFFFFFFFFF AND DUP2 MSTORE PUSH1 0x20 ADD SWAP1 DUP2 MSTORE PUSH1 0x20 ADD PUSH1 0x0 KECCAK256 PUSH2 0x18D2 SWAP1 SWAP2 SWAP1 PUSH4 0xFFFFFFFF AND JUMP JUMPDEST POP PUSH32 0x9075AD040756C0D8743A1FED927066A92C4755071615BF61E04B17583D961CAF DUP6 DUP3 DUP7 PUSH1 0x40 MLOAD PUSH2 0xBC2 SWAP4 SWAP3 SWAP2 SWAP1 PUSH2 0x360F JUMP JUMPDEST PUSH1 0x40 MLOAD DUP1 SWAP2 SUB SWAP1 LOG1 POP POP POP POP POP JUMP JUMPDEST PUSH1 0x0 DUP1 PUSH1 0x0 SWAP1 SLOAD SWAP1 PUSH2 0x100 EXP SWAP1 DIV PUSH1 0xFF AND SWAP1 POP SWAP1 JUMP JUMPDEST PUSH2 0xBEF PUSH2 0x27EE JUMP JUMPDEST DUP2 PUSH2 0xBF9 DUP5 PUSH2 0x17C1 JUMP JUMPDEST GT PUSH2 0xC39 JUMPI PUSH1 0x40 MLOAD PUSH32 0x8C379A000000000000000000000000000000000000000000000000000000000 DUP2 MSTORE PUSH1 0x4 ADD PUSH2 0xC30 SWAP1 PUSH2 0x3417 JUMP JUMPDEST PUSH1 0x40 MLOAD DUP1 SWAP2 SUB SWAP1 REVERT JUMPDEST PUSH2 0xC92 PUSH2 0xC8D DUP4 PUSH1 0x2 PUSH1 0x0 DUP8 PUSH20 0xFFFFFFFFFFFFFFFFFFFFFFFFFFFFFFFFFFFFFFFF AND PUSH20 0xFFFFFFFFFFFFFFFFFFFFFFFFFFFFFFFFFFFFFFFF AND DUP2 MSTORE PUSH1 0x20 ADD SWAP1 DUP2 MSTORE PUSH1 0x20 ADD PUSH1 0x0 KECCAK256 PUSH2 0x1889 SWAP1 SWAP2 SWAP1 PUSH4 0xFFFFFFFF AND JUMP JUMPDEST PUSH2 0x3E2 JUMP JUMPDEST SWAP1 POP SWAP3 SWAP2 POP POP JUMP JUMPDEST DUP1 PUSH2 0xCA4 DUP2 PUSH2 0x181E JUMP JUMPDEST POP PUSH1 0x0 PUSH1 0x1 DUP4 DUP2 SLOAD DUP2 LT PUSH2 0xCE1 JUMPI PUSH32 0x4E487B7100000000000000000000000000000000000000000000000000000000 PUSH1 0x0 MSTORE PUSH1 0x32 PUSH1 0x4 MSTORE PUSH1 0x24 PUSH1 0x0 REVERT JUMPDEST SWAP1 PUSH1 0x0 MSTORE PUSH1 0x20 PUSH1 0x0 KECCAK256 SWAP1 PUSH1 0x8 MUL ADD SWAP1 POP CALLER PUSH20 0xFFFFFFFFFFFFFFFFFFFFFFFFFFFFFFFFFFFFFFFF AND DUP2 PUSH1 0x2 ADD PUSH1 0x0 SWAP1 SLOAD SWAP1 PUSH2 0x100 EXP SWAP1 DIV PUSH20 0xFFFFFFFFFFFFFFFFFFFFFFFFFFFFFFFFFFFFFFFF AND PUSH20 0xFFFFFFFFFFFFFFFFFFFFFFFFFFFFFFFFFFFFFFFF AND EQ PUSH2 0xD83 JUMPI PUSH1 0x40 MLOAD PUSH32 0x8C379A000000000000000000000000000000000000000000000000000000000 DUP2 MSTORE PUSH1 0x4 ADD PUSH2 0xD7A SWAP1 PUSH2 0x3457 JUMP JUMPDEST PUSH1 0x40 MLOAD DUP1 SWAP2 SUB SWAP1 REVERT JUMPDEST PUSH2 0xD8C DUP2 PUSH2 0x18EC JUMP JUMPDEST POP POP POP JUMP JUMPDEST PUSH1 0x60 PUSH2 0xD9D PUSH1 0x3 PUSH2 0x18A3 JUMP JUMPDEST DUP3 LT PUSH2 0xDBC JUMPI PUSH1 0x1 PUSH2 0xDAF PUSH1 0x3 PUSH2 0x18A3 JUMP JUMPDEST PUSH2 0xDB9 SWAP2 SWAP1 PUSH2 0x37A7 JUMP JUMPDEST SWAP2 POP JUMPDEST PUSH1 0x0 PUSH1 0x1 DUP5 DUP5 PUSH2 0xDCC SWAP2 SWAP1 PUSH2 0x37A7 JUMP JUMPDEST PUSH2 0xDD6 SWAP2 SWAP1 PUSH2 0x3751 JUMP JUMPDEST SWAP1 POP PUSH1 0x0 DUP2 PUSH8 0xFFFFFFFFFFFFFFFF DUP2 GT ISZERO PUSH2 0xE1A JUMPI PUSH32 0x4E487B7100000000000000000000000000000000000000000000000000000000 PUSH1 0x0 MSTORE PUSH1 0x41 PUSH1 0x4 MSTORE PUSH1 0x24 PUSH1 0x0 REVERT JUMPDEST PUSH1 0x40 MLOAD SWAP1 DUP1 DUP3 MSTORE DUP1 PUSH1 0x20 MUL PUSH1 0x20 ADD DUP3 ADD PUSH1 0x40 MSTORE DUP1 ISZERO PUSH2 0xE53 JUMPI DUP2 PUSH1 0x20 ADD JUMPDEST PUSH2 0xE40 PUSH2 0x285F JUMP JUMPDEST DUP2 MSTORE PUSH1 0x20 ADD SWAP1 PUSH1 0x1 SWAP1 SUB SWAP1 DUP2 PUSH2 0xE38 JUMPI SWAP1 POP JUMPDEST POP SWAP1 POP PUSH1 0x0 DUP1 DUP7 SWAP1 POP JUMPDEST DUP6 DUP2 GT PUSH2 0xF86 JUMPI PUSH1 0x5 PUSH1 0x0 PUSH2 0xE7C DUP4 PUSH1 0x3 PUSH2 0x1BF7 SWAP1 SWAP2 SWAP1 PUSH4 0xFFFFFFFF AND JUMP JUMPDEST PUSH20 0xFFFFFFFFFFFFFFFFFFFFFFFFFFFFFFFFFFFFFFFF AND PUSH20 0xFFFFFFFFFFFFFFFFFFFFFFFFFFFFFFFFFFFFFFFF AND DUP2 MSTORE PUSH1 0x20 ADD SWAP1 DUP2 MSTORE PUSH1 0x20 ADD PUSH1 0x0 KECCAK256 PUSH1 0x40 MLOAD DUP1 PUSH1 0x40 ADD PUSH1 0x40 MSTORE SWAP1 DUP2 PUSH1 0x0 DUP3 ADD PUSH1 0x0 SWAP1 SLOAD SWAP1 PUSH2 0x100 EXP SWAP1 DIV PUSH20 0xFFFFFFFFFFFFFFFFFFFFFFFFFFFFFFFFFFFFFFFF AND PUSH20 0xFFFFFFFFFFFFFFFFFFFFFFFFFFFFFFFFFFFFFFFF AND PUSH20 0xFFFFFFFFFFFFFFFFFFFFFFFFFFFFFFFFFFFFFFFF AND DUP2 MSTORE PUSH1 0x20 ADD PUSH1 0x1 DUP3 ADD SLOAD DUP2 MSTORE POP POP DUP4 DUP4 DUP2 MLOAD DUP2 LT PUSH2 0xF5A JUMPI PUSH32 0x4E487B7100000000000000000000000000000000000000000000000000000000 PUSH1 0x0 MSTORE PUSH1 0x32 PUSH1 0x4 MSTORE PUSH1 0x24 PUSH1 0x0 REVERT JUMPDEST PUSH1 0x20 MUL PUSH1 0x20 ADD ADD DUP2 SWAP1 MSTORE POP DUP2 DUP1 PUSH2 0xF70 SWAP1 PUSH2 0x38C8 JUMP JUMPDEST SWAP3 POP POP DUP1 DUP1 PUSH2 0xF7E SWAP1 PUSH2 0x38C8 JUMP JUMPDEST SWAP2 POP POP PUSH2 0xE5D JUMP JUMPDEST POP DUP2 SWAP4 POP POP POP POP SWAP3 SWAP2 POP POP JUMP JUMPDEST PUSH2 0xF9B PUSH2 0x285F JUMP JUMPDEST PUSH1 0x5 PUSH1 0x0 PUSH2 0xFB3 DUP5 PUSH1 0x3 PUSH2 0x1BF7 SWAP1 SWAP2 SWAP1 PUSH4 0xFFFFFFFF AND JUMP JUMPDEST PUSH20 0xFFFFFFFFFFFFFFFFFFFFFFFFFFFFFFFFFFFFFFFF AND PUSH20 0xFFFFFFFFFFFFFFFFFFFFFFFFFFFFFFFFFFFFFFFF AND DUP2 MSTORE PUSH1 0x20 ADD SWAP1 DUP2 MSTORE PUSH1 0x20 ADD PUSH1 0x0 KECCAK256 PUSH1 0x40 MLOAD DUP1 PUSH1 0x40 ADD PUSH1 0x40 MSTORE SWAP1 DUP2 PUSH1 0x0 DUP3 ADD PUSH1 0x0 SWAP1 SLOAD SWAP1 PUSH2 0x100 EXP SWAP1 DIV PUSH20 0xFFFFFFFFFFFFFFFFFFFFFFFFFFFFFFFFFFFFFFFF AND PUSH20 0xFFFFFFFFFFFFFFFFFFFFFFFFFFFFFFFFFFFFFFFF AND PUSH20 0xFFFFFFFFFFFFFFFFFFFFFFFFFFFFFFFFFFFFFFFF AND DUP2 MSTORE PUSH1 0x20 ADD PUSH1 0x1 DUP3 ADD SLOAD DUP2 MSTORE POP POP SWAP1 POP SWAP2 SWAP1 POP JUMP JUMPDEST PUSH1 0x0 TIMESTAMP DUP4 GT PUSH2 0x10A3 JUMPI PUSH1 0x40 MLOAD PUSH32 0x8C379A000000000000000000000000000000000000000000000000000000000 DUP2 MSTORE PUSH1 0x4 ADD PUSH2 0x109A SWAP1 PUSH2 0x33F7 JUMP JUMPDEST PUSH1 0x40 MLOAD DUP1 SWAP2 SUB SWAP1 REVERT JUMPDEST PUSH1 0x0 DUP5 GT PUSH2 0x10E6 JUMPI PUSH1 0x40 MLOAD PUSH32 0x8C379A000000000000000000000000000000000000000000000000000000000 DUP2 MSTORE PUSH1 0x4 ADD PUSH2 0x10DD SWAP1 PUSH2 0x34B7 JUMP JUMPDEST PUSH1 0x40 MLOAD DUP1 SWAP2 SUB SWAP1 REVERT JUMPDEST PUSH2 0x10F3 DUP7 DUP7 DUP7 DUP7 DUP7 PUSH2 0x1C11 JUMP JUMPDEST SWAP1 POP PUSH2 0x1101 DUP6 CALLER ADDRESS DUP8 PUSH2 0x1C2B JUMP JUMPDEST DUP1 PUSH32 0x694AF1CC8727CDD0AFBDD53D9B87B69248BD490224E9DD090E788546506E076F DUP7 DUP9 DUP8 DUP8 PUSH1 0x40 MLOAD PUSH2 0x1137 SWAP5 SWAP4 SWAP3 SWAP2 SWAP1 PUSH2 0x32E8 JUMP JUMPDEST PUSH1 0x40 MLOAD DUP1 SWAP2 SUB SWAP1 LOG2 SWAP6 SWAP5 POP POP POP POP POP JUMP JUMPDEST PUSH2 0x1153 DUP2 PUSH1 0x0 PUSH2 0x9BA JUMP JUMPDEST POP JUMP JUMPDEST DUP3 PUSH2 0x1160 DUP2 PUSH2 0x181E JUMP JUMPDEST POP PUSH1 0x0 PUSH1 0x1 DUP6 DUP2 SLOAD DUP2 LT PUSH2 0x119D JUMPI PUSH32 0x4E487B7100000000000000000000000000000000000000000000000000000000 PUSH1 0x0 MSTORE PUSH1 0x32 PUSH1 0x4 MSTORE PUSH1 0x24 PUSH1 0x0 REVERT JUMPDEST SWAP1 PUSH1 0x0 MSTORE PUSH1 0x20 PUSH1 0x0 KECCAK256 SWAP1 PUSH1 0x8 MUL ADD SWAP1 POP CALLER PUSH20 0xFFFFFFFFFFFFFFFFFFFFFFFFFFFFFFFFFFFFFFFF AND DUP2 PUSH1 0x2 ADD PUSH1 0x0 SWAP1 SLOAD SWAP1 PUSH2 0x100 EXP SWAP1 DIV PUSH20 0xFFFFFFFFFFFFFFFFFFFFFFFFFFFFFFFFFFFFFFFF AND PUSH20 0xFFFFFFFFFFFFFFFFFFFFFFFFFFFFFFFFFFFFFFFF AND EQ PUSH2 0x123F JUMPI PUSH1 0x40 MLOAD PUSH32 0x8C379A000000000000000000000000000000000000000000000000000000000 DUP2 MSTORE PUSH1 0x4 ADD PUSH2 0x1236 SWAP1 PUSH2 0x3457 JUMP JUMPDEST PUSH1 0x40 MLOAD DUP1 SWAP2 SUB SWAP1 REVERT JUMPDEST PUSH1 0x0 DUP2 PUSH1 0x6 ADD SLOAD EQ PUSH2 0x1286 JUMPI PUSH1 0x40 MLOAD PUSH32 0x8C379A000000000000000000000000000000000000000000000000000000000 DUP2 MSTORE PUSH1 0x4 ADD PUSH2 0x127D SWAP1 PUSH2 0x33D7 JUMP JUMPDEST PUSH1 0x40 MLOAD DUP1 SWAP2 SUB SWAP1 REVERT JUMPDEST PUSH1 0x0 DUP4 GT ISZERO PUSH2 0x12EB JUMPI DUP1 PUSH1 0x5 ADD SLOAD DUP4 LT ISZERO DUP1 ISZERO PUSH2 0x12A2 JUMPI POP TIMESTAMP DUP4 GT JUMPDEST PUSH2 0x12E1 JUMPI PUSH1 0x40 MLOAD PUSH32 0x8C379A000000000000000000000000000000000000000000000000000000000 DUP2 MSTORE PUSH1 0x4 ADD PUSH2 0x12D8 SWAP1 PUSH2 0x3577 JUMP JUMPDEST PUSH1 0x40 MLOAD DUP1 SWAP2 SUB SWAP1 REVERT JUMPDEST DUP3 DUP2 PUSH1 0x5 ADD DUP2 SWAP1 SSTORE POP JUMPDEST PUSH1 0x0 DUP5 GT ISZERO PUSH2 0x1414 JUMPI DUP1 PUSH1 0x3 ADD SLOAD DUP5 LT ISZERO PUSH2 0x133B JUMPI PUSH1 0x40 MLOAD PUSH32 0x8C379A000000000000000000000000000000000000000000000000000000000 DUP2 MSTORE PUSH1 0x4 ADD PUSH2 0x1332 SWAP1 PUSH2 0x3517 JUMP JUMPDEST PUSH1 0x40 MLOAD DUP1 SWAP2 SUB SWAP1 REVERT JUMPDEST PUSH1 0x0 DUP2 PUSH1 0x3 ADD SLOAD DUP6 PUSH2 0x134D SWAP2 SWAP1 PUSH2 0x37A7 JUMP JUMPDEST SWAP1 POP PUSH1 0x0 DUP2 GT ISZERO PUSH2 0x1412 JUMPI DUP5 DUP3 PUSH1 0x3 ADD DUP2 SWAP1 SSTORE POP PUSH1 0x0 PUSH1 0x5 PUSH1 0x0 DUP5 PUSH1 0x1 ADD PUSH1 0x0 SWAP1 SLOAD SWAP1 PUSH2 0x100 EXP SWAP1 DIV PUSH20 0xFFFFFFFFFFFFFFFFFFFFFFFFFFFFFFFFFFFFFFFF AND PUSH20 0xFFFFFFFFFFFFFFFFFFFFFFFFFFFFFFFFFFFFFFFF AND PUSH20 0xFFFFFFFFFFFFFFFFFFFFFFFFFFFFFFFFFFFFFFFF AND DUP2 MSTORE PUSH1 0x20 ADD SWAP1 DUP2 MSTORE PUSH1 0x20 ADD PUSH1 0x0 KECCAK256 SWAP1 POP DUP2 DUP2 PUSH1 0x1 ADD SLOAD PUSH2 0x13D8 SWAP2 SWAP1 PUSH2 0x3751 JUMP JUMPDEST DUP2 PUSH1 0x1 ADD DUP2 SWAP1 SSTORE POP PUSH2 0x1410 DUP4 PUSH1 0x1 ADD PUSH1 0x0 SWAP1 SLOAD SWAP1 PUSH2 0x100 EXP SWAP1 DIV PUSH20 0xFFFFFFFFFFFFFFFFFFFFFFFFFFFFFFFFFFFFFFFF AND CALLER ADDRESS DUP6 PUSH2 0x1C2B JUMP JUMPDEST POP JUMPDEST POP JUMPDEST DUP1 PUSH1 0x0 ADD SLOAD PUSH32 0xA8B26360DF8D5E154FFA5A8A7E894E85F781ACFBBEF0B744FB9551D8FD0FD36C DUP3 PUSH1 0x1 ADD PUSH1 0x0 SWAP1 SLOAD SWAP1 PUSH2 0x100 EXP SWAP1 DIV PUSH20 0xFFFFFFFFFFFFFFFFFFFFFFFFFFFFFFFFFFFFFFFF AND DUP4 PUSH1 0x2 ADD PUSH1 0x0 SWAP1 SLOAD SWAP1 PUSH2 0x100 EXP SWAP1 DIV PUSH20 0xFFFFFFFFFFFFFFFFFFFFFFFFFFFFFFFFFFFFFFFF AND DUP5 PUSH1 0x3 ADD SLOAD DUP6 PUSH1 0x5 ADD SLOAD PUSH1 0x40 MLOAD PUSH2 0x149E SWAP5 SWAP4 SWAP3 SWAP2 SWAP1 PUSH2 0x32E8 JUMP JUMPDEST PUSH1 0x40 MLOAD DUP1 SWAP2 SUB SWAP1 LOG2 POP POP POP POP POP JUMP JUMPDEST DUP2 PUSH2 0x14B7 DUP2 PUSH2 0x181E JUMP JUMPDEST POP PUSH1 0x0 PUSH1 0x1 DUP5 DUP2 SLOAD DUP2 LT PUSH2 0x14F4 JUMPI PUSH32 0x4E487B7100000000000000000000000000000000000000000000000000000000 PUSH1 0x0 MSTORE PUSH1 0x32 PUSH1 0x4 MSTORE PUSH1 0x24 PUSH1 0x0 REVERT JUMPDEST SWAP1 PUSH1 0x0 MSTORE PUSH1 0x20 PUSH1 0x0 KECCAK256 SWAP1 PUSH1 0x8 MUL ADD SWAP1 POP CALLER PUSH20 0xFFFFFFFFFFFFFFFFFFFFFFFFFFFFFFFFFFFFFFFF AND DUP2 PUSH1 0x2 ADD PUSH1 0x0 SWAP1 SLOAD SWAP1 PUSH2 0x100 EXP SWAP1 DIV PUSH20 0xFFFFFFFFFFFFFFFFFFFFFFFFFFFFFFFFFFFFFFFF AND PUSH20 0xFFFFFFFFFFFFFFFFFFFFFFFFFFFFFFFFFFFFFFFF AND EQ PUSH2 0x1596 JUMPI PUSH1 0x40 MLOAD PUSH32 0x8C379A000000000000000000000000000000000000000000000000000000000 DUP2 MSTORE PUSH1 0x4 ADD PUSH2 0x158D SWAP1 PUSH2 0x3457 JUMP JUMPDEST PUSH1 0x40 MLOAD DUP1 SWAP2 SUB SWAP1 REVERT JUMPDEST DUP3 DUP2 PUSH1 0x7 ADD SWAP1 DUP1 MLOAD SWAP1 PUSH1 0x20 ADD SWAP1 PUSH2 0x15AE SWAP3 SWAP2 SWAP1 PUSH2 0x288F JUMP JUMPDEST POP PUSH32 0xE4A1120FD509C50AEC65802FD3C3C9A4B72BF746FE9A552396185C6DE928E8AA DUP5 PUSH1 0x40 MLOAD PUSH2 0x15DE SWAP2 SWAP1 PUSH2 0x35F4 JUMP JUMPDEST PUSH1 0x40 MLOAD DUP1 SWAP2 SUB SWAP1 LOG1 POP POP POP POP JUMP JUMPDEST PUSH1 0x60 PUSH1 0x0 PUSH2 0x1637 PUSH1 0x2 PUSH1 0x0 DUP6 PUSH20 0xFFFFFFFFFFFFFFFFFFFFFFFFFFFFFFFFFFFFFFFF AND PUSH20 0xFFFFFFFFFFFFFFFFFFFFFFFFFFFFFFFFFFFFFFFF AND DUP2 MSTORE PUSH1 0x20 ADD SWAP1 DUP2 MSTORE PUSH1 0x20 ADD PUSH1 0x0 KECCAK256 PUSH2 0x1874 JUMP JUMPDEST SWAP1 POP PUSH1 0x0 DUP2 PUSH8 0xFFFFFFFFFFFFFFFF DUP2 GT ISZERO PUSH2 0x167B JUMPI PUSH32 0x4E487B7100000000000000000000000000000000000000000000000000000000 PUSH1 0x0 MSTORE PUSH1 0x41 PUSH1 0x4 MSTORE PUSH1 0x24 PUSH1 0x0 REVERT JUMPDEST PUSH1 0x40 MLOAD SWAP1 DUP1 DUP3 MSTORE DUP1 PUSH1 0x20 MUL PUSH1 0x20 ADD DUP3 ADD PUSH1 0x40 MSTORE DUP1 ISZERO PUSH2 0x16B4 JUMPI DUP2 PUSH1 0x20 ADD JUMPDEST PUSH2 0x16A1 PUSH2 0x27EE JUMP JUMPDEST DUP2 MSTORE PUSH1 0x20 ADD SWAP1 PUSH1 0x1 SWAP1 SUB SWAP1 DUP2 PUSH2 0x1699 JUMPI SWAP1 POP JUMPDEST POP SWAP1 POP PUSH1 0x0 JUMPDEST DUP3 DUP2 LT ISZERO PUSH2 0x1772 JUMPI PUSH2 0x171B PUSH2 0x1716 DUP3 PUSH1 0x2 PUSH1 0x0 DUP10 PUSH20 0xFFFFFFFFFFFFFFFFFFFFFFFFFFFFFFFFFFFFFFFF AND PUSH20 0xFFFFFFFFFFFFFFFFFFFFFFFFFFFFFFFFFFFFFFFF AND DUP2 MSTORE PUSH1 0x20 ADD SWAP1 DUP2 MSTORE PUSH1 0x20 ADD PUSH1 0x0 KECCAK256 PUSH2 0x1889 SWAP1 SWAP2 SWAP1 PUSH4 0xFFFFFFFF AND JUMP JUMPDEST PUSH2 0x3E2 JUMP JUMPDEST DUP3 DUP3 DUP2 MLOAD DUP2 LT PUSH2 0x1754 JUMPI PUSH32 0x4E487B7100000000000000000000000000000000000000000000000000000000 PUSH1 0x0 MSTORE PUSH1 0x32 PUSH1 0x4 MSTORE PUSH1 0x24 PUSH1 0x0 REVERT JUMPDEST PUSH1 0x20 MUL PUSH1 0x20 ADD ADD DUP2 SWAP1 MSTORE POP DUP1 DUP1 PUSH2 0x176A SWAP1 PUSH2 0x38C8 JUMP JUMPDEST SWAP2 POP POP PUSH2 0x16BA JUMP JUMPDEST POP DUP1 SWAP3 POP POP POP SWAP2 SWAP1 POP JUMP JUMPDEST PUSH1 0x5 PUSH1 0x20 MSTORE DUP1 PUSH1 0x0 MSTORE PUSH1 0x40 PUSH1 0x0 KECCAK256 PUSH1 0x0 SWAP2 POP SWAP1 POP DUP1 PUSH1 0x0 ADD PUSH1 0x0 SWAP1 SLOAD SWAP1 PUSH2 0x100 EXP SWAP1 DIV PUSH20 0xFFFFFFFFFFFFFFFFFFFFFFFFFFFFFFFFFFFFFFFF AND SWAP1 DUP1 PUSH1 0x1 ADD SLOAD SWAP1 POP DUP3 JUMP JUMPDEST PUSH1 0x0 PUSH2 0x180A PUSH1 0x2 PUSH1 0x0 DUP5 PUSH20 0xFFFFFFFFFFFFFFFFFFFFFFFFFFFFFFFFFFFFFFFF AND PUSH20 0xFFFFFFFFFFFFFFFFFFFFFFFFFFFFFFFFFFFFFFFF AND DUP2 MSTORE PUSH1 0x20 ADD SWAP1 DUP2 MSTORE PUSH1 0x20 ADD PUSH1 0x0 KECCAK256 PUSH2 0x1874 JUMP JUMPDEST SWAP1 POP SWAP2 SWAP1 POP JUMP JUMPDEST PUSH1 0x0 PUSH1 0x1 DUP1 SLOAD SWAP1 POP SWAP1 POP SWAP1 JUMP JUMPDEST PUSH1 0x0 DUP1 DUP3 SWAP1 POP PUSH1 0x1 DUP1 SLOAD SWAP1 POP DUP2 LT PUSH2 0x186B JUMPI PUSH1 0x40 MLOAD PUSH32 0x8C379A000000000000000000000000000000000000000000000000000000000 DUP2 MSTORE PUSH1 0x4 ADD PUSH2 0x1862 SWAP1 PUSH2 0x3497 JUMP JUMPDEST PUSH1 0x40 MLOAD DUP1 SWAP2 SUB SWAP1 REVERT JUMPDEST DUP1 SWAP2 POP POP SWAP2 SWAP1 POP JUMP JUMPDEST PUSH1 0x0 PUSH2 0x1882 DUP3 PUSH1 0x0 ADD PUSH2 0x1DC7 JUMP JUMPDEST SWAP1 POP SWAP2 SWAP1 POP JUMP JUMPDEST PUSH1 0x0 PUSH2 0x1898 DUP4 PUSH1 0x0 ADD DUP4 PUSH2 0x1DD8 JUMP JUMPDEST PUSH1 0x0 SHR SWAP1 POP SWAP3 SWAP2 POP POP JUMP JUMPDEST PUSH1 0x0 PUSH2 0x18B1 DUP3 PUSH1 0x0 ADD PUSH2 0x1DC7 JUMP JUMPDEST SWAP1 POP SWAP2 SWAP1 POP JUMP JUMPDEST PUSH1 0x0 PUSH2 0x18CA DUP4 PUSH1 0x0 ADD DUP4 PUSH1 0x0 SHL PUSH2 0x1E29 JUMP JUMPDEST SWAP1 POP SWAP3 SWAP2 POP POP JUMP JUMPDEST PUSH1 0x0 PUSH2 0x18E4 DUP4 PUSH1 0x0 ADD DUP4 PUSH1 0x0 SHL PUSH2 0x1FAF JUMP JUMPDEST SWAP1 POP SWAP3 SWAP2 POP POP JUMP JUMPDEST DUP1 PUSH1 0x5 ADD SLOAD TIMESTAMP LT ISZERO PUSH2 0x1933 JUMPI PUSH1 0x40 MLOAD PUSH32 0x8C379A000000000000000000000000000000000000000000000000000000000 DUP2 MSTORE PUSH1 0x4 ADD PUSH2 0x192A SWAP1 PUSH2 0x3557 JUMP JUMPDEST PUSH1 0x40 MLOAD DUP1 SWAP2 SUB SWAP1 REVERT JUMPDEST PUSH1 0x0 DUP2 PUSH1 0x6 ADD SLOAD EQ PUSH2 0x197A JUMPI PUSH1 0x40 MLOAD PUSH32 0x8C379A000000000000000000000000000000000000000000000000000000000 DUP2 MSTORE PUSH1 0x4 ADD PUSH2 0x1971 SWAP1 PUSH2 0x34D7 JUMP JUMPDEST PUSH1 0x40 MLOAD DUP1 SWAP2 SUB SWAP1 REVERT JUMPDEST PUSH1 0x0 PUSH1 0x5 PUSH1 0x0 DUP4 PUSH1 0x1 ADD PUSH1 0x0 SWAP1 SLOAD SWAP1 PUSH2 0x100 EXP SWAP1 DIV PUSH20 0xFFFFFFFFFFFFFFFFFFFFFFFFFFFFFFFFFFFFFFFF AND PUSH20 0xFFFFFFFFFFFFFFFFFFFFFFFFFFFFFFFFFFFFFFFF AND PUSH20 0xFFFFFFFFFFFFFFFFFFFFFFFFFFFFFFFFFFFFFFFF AND DUP2 MSTORE PUSH1 0x20 ADD SWAP1 DUP2 MSTORE PUSH1 0x20 ADD PUSH1 0x0 KECCAK256 SWAP1 POP PUSH2 0x1A36 DUP3 PUSH1 0x0 ADD SLOAD PUSH1 0x2 PUSH1 0x0 CALLER PUSH20 0xFFFFFFFFFFFFFFFFFFFFFFFFFFFFFFFFFFFFFFFF AND PUSH20 0xFFFFFFFFFFFFFFFFFFFFFFFFFFFFFFFFFFFFFFFF AND DUP2 MSTORE PUSH1 0x20 ADD SWAP1 DUP2 MSTORE PUSH1 0x20 ADD PUSH1 0x0 KECCAK256 PUSH2 0x18B8 SWAP1 SWAP2 SWAP1 PUSH4 0xFFFFFFFF AND JUMP JUMPDEST POP PUSH1 0x0 DUP3 PUSH1 0x3 ADD SLOAD SWAP1 POP DUP1 DUP3 PUSH1 0x1 ADD SLOAD GT PUSH2 0x1A5A JUMPI PUSH1 0x0 DUP3 PUSH1 0x1 ADD DUP2 SWAP1 SSTORE POP PUSH2 0x1A73 JUMP JUMPDEST DUP1 DUP3 PUSH1 0x1 ADD SLOAD PUSH2 0x1A6A SWAP2 SWAP1 PUSH2 0x37A7 JUMP JUMPDEST DUP3 PUSH1 0x1 ADD DUP2 SWAP1 SSTORE POP JUMPDEST PUSH1 0x0 DUP3 PUSH1 0x1 ADD SLOAD EQ ISZERO PUSH2 0x1ABA JUMPI PUSH2 0x1AB8 DUP4 PUSH1 0x1 ADD PUSH1 0x0 SWAP1 SLOAD SWAP1 PUSH2 0x100 EXP SWAP1 DIV PUSH20 0xFFFFFFFFFFFFFFFFFFFFFFFFFFFFFFFFFFFFFFFF AND PUSH1 0x3 PUSH2 0x201F SWAP1 SWAP2 SWAP1 PUSH4 0xFFFFFFFF AND JUMP JUMPDEST POP JUMPDEST DUP1 DUP4 PUSH1 0x6 ADD DUP2 SWAP1 SSTORE POP PUSH2 0x1B3C DUP4 PUSH1 0x0 ADD SLOAD PUSH1 0x6 PUSH1 0x0 DUP7 PUSH1 0x1 ADD PUSH1 0x0 SWAP1 SLOAD SWAP1 PUSH2 0x100 EXP SWAP1 DIV PUSH20 0xFFFFFFFFFFFFFFFFFFFFFFFFFFFFFFFFFFFFFFFF AND PUSH20 0xFFFFFFFFFFFFFFFFFFFFFFFFFFFFFFFFFFFFFFFF AND PUSH20 0xFFFFFFFFFFFFFFFFFFFFFFFFFFFFFFFFFFFFFFFF AND DUP2 MSTORE PUSH1 0x20 ADD SWAP1 DUP2 MSTORE PUSH1 0x20 ADD PUSH1 0x0 KECCAK256 PUSH2 0x18B8 SWAP1 SWAP2 SWAP1 PUSH4 0xFFFFFFFF AND JUMP JUMPDEST POP PUSH2 0x1B8C CALLER DUP3 DUP6 PUSH1 0x1 ADD PUSH1 0x0 SWAP1 SLOAD SWAP1 PUSH2 0x100 EXP SWAP1 DIV PUSH20 0xFFFFFFFFFFFFFFFFFFFFFFFFFFFFFFFFFFFFFFFF AND PUSH20 0xFFFFFFFFFFFFFFFFFFFFFFFFFFFFFFFFFFFFFFFF AND PUSH2 0x204F SWAP1 SWAP3 SWAP2 SWAP1 PUSH4 0xFFFFFFFF AND JUMP JUMPDEST DUP3 PUSH1 0x0 ADD SLOAD PUSH32 0xC6532367992B32E42A62DD89FC3574876D97D081A263AA6E030F34B79B7E6E8B DUP5 PUSH1 0x1 ADD PUSH1 0x0 SWAP1 SLOAD SWAP1 PUSH2 0x100 EXP SWAP1 DIV PUSH20 0xFFFFFFFFFFFFFFFFFFFFFFFFFFFFFFFFFFFFFFFF AND CALLER DUP5 TIMESTAMP PUSH1 0x40 MLOAD PUSH2 0x1BEA SWAP5 SWAP4 SWAP3 SWAP2 SWAP1 PUSH2 0x32E8 JUMP JUMPDEST PUSH1 0x40 MLOAD DUP1 SWAP2 SUB SWAP1 LOG2 POP POP POP JUMP JUMPDEST PUSH1 0x0 PUSH2 0x1C06 DUP4 PUSH1 0x0 ADD DUP4 PUSH2 0x1DD8 JUMP JUMPDEST PUSH1 0x0 SHR SWAP1 POP SWAP3 SWAP2 POP POP JUMP JUMPDEST PUSH1 0x0 PUSH2 0x1C20 DUP7 DUP7 DUP7 DUP7 DUP7 PUSH2 0x20D5 JUMP JUMPDEST SWAP1 POP SWAP6 SWAP5 POP POP POP POP POP JUMP JUMPDEST PUSH1 0x0 DUP5 PUSH20 0xFFFFFFFFFFFFFFFFFFFFFFFFFFFFFFFFFFFFFFFF AND PUSH4 0x70A08231 DUP5 PUSH1 0x40 MLOAD DUP3 PUSH4 0xFFFFFFFF AND PUSH1 0xE0 SHL DUP2 MSTORE PUSH1 0x4 ADD PUSH2 0x1C66 SWAP2 SWAP1 PUSH2 0x3296 JUMP JUMPDEST PUSH1 0x20 PUSH1 0x40 MLOAD DUP1 DUP4 SUB DUP2 DUP7 DUP1 EXTCODESIZE ISZERO DUP1 ISZERO PUSH2 0x1C7E JUMPI PUSH1 0x0 DUP1 REVERT JUMPDEST POP GAS STATICCALL ISZERO DUP1 ISZERO PUSH2 0x1C92 JUMPI RETURNDATASIZE PUSH1 0x0 DUP1 RETURNDATACOPY RETURNDATASIZE PUSH1 0x0 REVERT JUMPDEST POP POP POP POP PUSH1 0x40 MLOAD RETURNDATASIZE PUSH1 0x1F NOT PUSH1 0x1F DUP3 ADD AND DUP3 ADD DUP1 PUSH1 0x40 MSTORE POP DUP2 ADD SWAP1 PUSH2 0x1CB6 SWAP2 SWAP1 PUSH2 0x2B83 JUMP JUMPDEST SWAP1 POP PUSH2 0x1CE5 DUP5 DUP5 DUP5 DUP9 PUSH20 0xFFFFFFFFFFFFFFFFFFFFFFFFFFFFFFFFFFFFFFFF AND PUSH2 0x22A1 SWAP1 SWAP4 SWAP3 SWAP2 SWAP1 PUSH4 0xFFFFFFFF AND JUMP JUMPDEST PUSH1 0x0 DUP6 PUSH20 0xFFFFFFFFFFFFFFFFFFFFFFFFFFFFFFFFFFFFFFFF AND PUSH4 0x70A08231 DUP6 PUSH1 0x40 MLOAD DUP3 PUSH4 0xFFFFFFFF AND PUSH1 0xE0 SHL DUP2 MSTORE PUSH1 0x4 ADD PUSH2 0x1D20 SWAP2 SWAP1 PUSH2 0x3296 JUMP JUMPDEST PUSH1 0x20 PUSH1 0x40 MLOAD DUP1 DUP4 SUB DUP2 DUP7 DUP1 EXTCODESIZE ISZERO DUP1 ISZERO PUSH2 0x1D38 JUMPI PUSH1 0x0 DUP1 REVERT JUMPDEST POP GAS STATICCALL ISZERO DUP1 ISZERO PUSH2 0x1D4C JUMPI RETURNDATASIZE PUSH1 0x0 DUP1 RETURNDATACOPY RETURNDATASIZE PUSH1 0x0 REVERT JUMPDEST POP POP POP POP PUSH1 0x40 MLOAD RETURNDATASIZE PUSH1 0x1F NOT PUSH1 0x1F DUP3 ADD AND DUP3 ADD DUP1 PUSH1 0x40 MSTORE POP DUP2 ADD SWAP1 PUSH2 0x1D70 SWAP2 SWAP1 PUSH2 0x2B83 JUMP JUMPDEST SWAP1 POP DUP3 DUP3 DUP3 PUSH2 0x1D7F SWAP2 SWAP1 PUSH2 0x37A7 JUMP JUMPDEST EQ PUSH2 0x1DBF JUMPI PUSH1 0x40 MLOAD PUSH32 0x8C379A000000000000000000000000000000000000000000000000000000000 DUP2 MSTORE PUSH1 0x4 ADD PUSH2 0x1DB6 SWAP1 PUSH2 0x3597 JUMP JUMPDEST PUSH1 0x40 MLOAD DUP1 SWAP2 SUB SWAP1 REVERT JUMPDEST POP POP POP POP POP POP JUMP JUMPDEST PUSH1 0x0 DUP2 PUSH1 0x0 ADD DUP1 SLOAD SWAP1 POP SWAP1 POP SWAP2 SWAP1 POP JUMP JUMPDEST PUSH1 0x0 DUP3 PUSH1 0x0 ADD DUP3 DUP2 SLOAD DUP2 LT PUSH2 0x1E16 JUMPI PUSH32 0x4E487B7100000000000000000000000000000000000000000000000000000000 PUSH1 0x0 MSTORE PUSH1 0x32 PUSH1 0x4 MSTORE PUSH1 0x24 PUSH1 0x0 REVERT JUMPDEST SWAP1 PUSH1 0x0 MSTORE PUSH1 0x20 PUSH1 0x0 KECCAK256 ADD SLOAD SWAP1 POP SWAP3 SWAP2 POP POP JUMP JUMPDEST PUSH1 0x0 DUP1 DUP4 PUSH1 0x1 ADD PUSH1 0x0 DUP5 DUP2 MSTORE PUSH1 0x20 ADD SWAP1 DUP2 MSTORE PUSH1 0x20 ADD PUSH1 0x0 KECCAK256 SLOAD SWAP1 POP PUSH1 0x0 DUP2 EQ PUSH2 0x1FA3 JUMPI PUSH1 0x0 PUSH1 0x1 DUP3 PUSH2 0x1E5B SWAP2 SWAP1 PUSH2 0x37A7 JUMP JUMPDEST SWAP1 POP PUSH1 0x0 PUSH1 0x1 DUP7 PUSH1 0x0 ADD DUP1 SLOAD SWAP1 POP PUSH2 0x1E73 SWAP2 SWAP1 PUSH2 0x37A7 JUMP JUMPDEST SWAP1 POP DUP2 DUP2 EQ PUSH2 0x1F2E JUMPI PUSH1 0x0 DUP7 PUSH1 0x0 ADD DUP3 DUP2 SLOAD DUP2 LT PUSH2 0x1EBA JUMPI PUSH32 0x4E487B7100000000000000000000000000000000000000000000000000000000 PUSH1 0x0 MSTORE PUSH1 0x32 PUSH1 0x4 MSTORE PUSH1 0x24 PUSH1 0x0 REVERT JUMPDEST SWAP1 PUSH1 0x0 MSTORE PUSH1 0x20 PUSH1 0x0 KECCAK256 ADD SLOAD SWAP1 POP DUP1 DUP8 PUSH1 0x0 ADD DUP5 DUP2 SLOAD DUP2 LT PUSH2 0x1F04 JUMPI PUSH32 0x4E487B7100000000000000000000000000000000000000000000000000000000 PUSH1 0x0 MSTORE PUSH1 0x32 PUSH1 0x4 MSTORE PUSH1 0x24 PUSH1 0x0 REVERT JUMPDEST SWAP1 PUSH1 0x0 MSTORE PUSH1 0x20 PUSH1 0x0 KECCAK256 ADD DUP2 SWAP1 SSTORE POP DUP4 DUP8 PUSH1 0x1 ADD PUSH1 0x0 DUP4 DUP2 MSTORE PUSH1 0x20 ADD SWAP1 DUP2 MSTORE PUSH1 0x20 ADD PUSH1 0x0 KECCAK256 DUP2 SWAP1 SSTORE POP POP JUMPDEST DUP6 PUSH1 0x0 ADD DUP1 SLOAD DUP1 PUSH2 0x1F68 JUMPI PUSH32 0x4E487B7100000000000000000000000000000000000000000000000000000000 PUSH1 0x0 MSTORE PUSH1 0x31 PUSH1 0x4 MSTORE PUSH1 0x24 PUSH1 0x0 REVERT JUMPDEST PUSH1 0x1 SWAP1 SUB DUP2 DUP2 SWAP1 PUSH1 0x0 MSTORE PUSH1 0x20 PUSH1 0x0 KECCAK256 ADD PUSH1 0x0 SWAP1 SSTORE SWAP1 SSTORE DUP6 PUSH1 0x1 ADD PUSH1 0x0 DUP7 DUP2 MSTORE PUSH1 0x20 ADD SWAP1 DUP2 MSTORE PUSH1 0x20 ADD PUSH1 0x0 KECCAK256 PUSH1 0x0 SWAP1 SSTORE PUSH1 0x1 SWAP4 POP POP POP POP PUSH2 0x1FA9 JUMP JUMPDEST PUSH1 0x0 SWAP2 POP POP JUMPDEST SWAP3 SWAP2 POP POP JUMP JUMPDEST PUSH1 0x0 PUSH2 0x1FBB DUP4 DUP4 PUSH2 0x232A JUMP JUMPDEST PUSH2 0x2014 JUMPI DUP3 PUSH1 0x0 ADD DUP3 SWAP1 DUP1 PUSH1 0x1 DUP2 SLOAD ADD DUP1 DUP3 SSTORE DUP1 SWAP2 POP POP PUSH1 0x1 SWAP1 SUB SWAP1 PUSH1 0x0 MSTORE PUSH1 0x20 PUSH1 0x0 KECCAK256 ADD PUSH1 0x0 SWAP1 SWAP2 SWAP1 SWAP2 SWAP1 SWAP2 POP SSTORE DUP3 PUSH1 0x0 ADD DUP1 SLOAD SWAP1 POP DUP4 PUSH1 0x1 ADD PUSH1 0x0 DUP5 DUP2 MSTORE PUSH1 0x20 ADD SWAP1 DUP2 MSTORE PUSH1 0x20 ADD PUSH1 0x0 KECCAK256 DUP2 SWAP1 SSTORE POP PUSH1 0x1 SWAP1 POP PUSH2 0x2019 JUMP JUMPDEST PUSH1 0x0 SWAP1 POP JUMPDEST SWAP3 SWAP2 POP POP JUMP JUMPDEST PUSH1 0x0 PUSH2 0x2047 DUP4 PUSH1 0x0 ADD DUP4 PUSH20 0xFFFFFFFFFFFFFFFFFFFFFFFFFFFFFFFFFFFFFFFF AND PUSH1 0x0 SHL PUSH2 0x1E29 JUMP JUMPDEST SWAP1 POP SWAP3 SWAP2 POP POP JUMP JUMPDEST PUSH2 0x20D0 DUP4 PUSH4 0xA9059CBB PUSH1 0xE0 SHL DUP5 DUP5 PUSH1 0x40 MLOAD PUSH1 0x24 ADD PUSH2 0x206E SWAP3 SWAP2 SWAP1 PUSH2 0x332D JUMP JUMPDEST PUSH1 0x40 MLOAD PUSH1 0x20 DUP2 DUP4 SUB SUB DUP2 MSTORE SWAP1 PUSH1 0x40 MSTORE SWAP1 PUSH28 0xFFFFFFFFFFFFFFFFFFFFFFFFFFFFFFFFFFFFFFFFFFFFFFFFFFFFFFFF NOT AND PUSH1 0x20 DUP3 ADD DUP1 MLOAD PUSH28 0xFFFFFFFFFFFFFFFFFFFFFFFFFFFFFFFFFFFFFFFFFFFFFFFFFFFFFFFF DUP4 DUP2 DUP4 AND OR DUP4 MSTORE POP POP POP POP PUSH2 0x234D JUMP JUMPDEST POP POP POP JUMP JUMPDEST PUSH1 0x0 PUSH2 0x20E4 DUP7 DUP7 DUP7 DUP7 DUP7 PUSH2 0x2414 JUMP JUMPDEST SWAP1 POP PUSH2 0x2137 DUP2 PUSH1 0x2 PUSH1 0x0 DUP10 PUSH20 0xFFFFFFFFFFFFFFFFFFFFFFFFFFFFFFFFFFFFFFFF AND PUSH20 0xFFFFFFFFFFFFFFFFFFFFFFFFFFFFFFFFFFFFFFFF AND DUP2 MSTORE PUSH1 0x20 ADD SWAP1 DUP2 MSTORE PUSH1 0x20 ADD PUSH1 0x0 KECCAK256 PUSH2 0x18D2 SWAP1 SWAP2 SWAP1 PUSH4 0xFFFFFFFF AND JUMP JUMPDEST POP PUSH2 0x214C DUP6 PUSH1 0x3 PUSH2 0x25A6 SWAP1 SWAP2 SWAP1 PUSH4 0xFFFFFFFF AND JUMP JUMPDEST POP PUSH1 0x0 PUSH1 0x5 PUSH1 0x0 DUP8 PUSH20 0xFFFFFFFFFFFFFFFFFFFFFFFFFFFFFFFFFFFFFFFF AND PUSH20 0xFFFFFFFFFFFFFFFFFFFFFFFFFFFFFFFFFFFFFFFF AND DUP2 MSTORE PUSH1 0x20 ADD SWAP1 DUP2 MSTORE PUSH1 0x20 ADD PUSH1 0x0 KECCAK256 SWAP1 POP PUSH1 0x0 PUSH20 0xFFFFFFFFFFFFFFFFFFFFFFFFFFFFFFFFFFFFFFFF AND DUP2 PUSH1 0x0 ADD PUSH1 0x0 SWAP1 SLOAD SWAP1 PUSH2 0x100 EXP SWAP1 DIV PUSH20 0xFFFFFFFFFFFFFFFFFFFFFFFFFFFFFFFFFFFFFFFF AND PUSH20 0xFFFFFFFFFFFFFFFFFFFFFFFFFFFFFFFFFFFFFFFF AND EQ ISZERO PUSH2 0x222D JUMPI DUP6 DUP2 PUSH1 0x0 ADD PUSH1 0x0 PUSH2 0x100 EXP DUP2 SLOAD DUP2 PUSH20 0xFFFFFFFFFFFFFFFFFFFFFFFFFFFFFFFFFFFFFFFF MUL NOT AND SWAP1 DUP4 PUSH20 0xFFFFFFFFFFFFFFFFFFFFFFFFFFFFFFFFFFFFFFFF AND MUL OR SWAP1 SSTORE POP JUMPDEST DUP5 DUP2 PUSH1 0x1 ADD SLOAD PUSH2 0x223D SWAP2 SWAP1 PUSH2 0x3751 JUMP JUMPDEST DUP2 PUSH1 0x1 ADD DUP2 SWAP1 SSTORE POP PUSH2 0x2296 DUP3 PUSH1 0x6 PUSH1 0x0 DUP10 PUSH20 0xFFFFFFFFFFFFFFFFFFFFFFFFFFFFFFFFFFFFFFFF AND PUSH20 0xFFFFFFFFFFFFFFFFFFFFFFFFFFFFFFFFFFFFFFFF AND DUP2 MSTORE PUSH1 0x20 ADD SWAP1 DUP2 MSTORE PUSH1 0x20 ADD PUSH1 0x0 KECCAK256 PUSH2 0x18D2 SWAP1 SWAP2 SWAP1 PUSH4 0xFFFFFFFF AND JUMP JUMPDEST POP POP SWAP6 SWAP5 POP POP POP POP POP JUMP JUMPDEST PUSH2 0x2324 DUP5 PUSH4 0x23B872DD PUSH1 0xE0 SHL DUP6 DUP6 DUP6 PUSH1 0x40 MLOAD PUSH1 0x24 ADD PUSH2 0x22C2 SWAP4 SWAP3 SWAP2 SWAP1 PUSH2 0x32B1 JUMP JUMPDEST PUSH1 0x40 MLOAD PUSH1 0x20 DUP2 DUP4 SUB SUB DUP2 MSTORE SWAP1 PUSH1 0x40 MSTORE SWAP1 PUSH28 0xFFFFFFFFFFFFFFFFFFFFFFFFFFFFFFFFFFFFFFFFFFFFFFFFFFFFFFFF NOT AND PUSH1 0x20 DUP3 ADD DUP1 MLOAD PUSH28 0xFFFFFFFFFFFFFFFFFFFFFFFFFFFFFFFFFFFFFFFFFFFFFFFFFFFFFFFF DUP4 DUP2 DUP4 AND OR DUP4 MSTORE POP POP POP POP PUSH2 0x234D JUMP JUMPDEST POP POP POP POP JUMP JUMPDEST PUSH1 0x0 DUP1 DUP4 PUSH1 0x1 ADD PUSH1 0x0 DUP5 DUP2 MSTORE PUSH1 0x20 ADD SWAP1 DUP2 MSTORE PUSH1 0x20 ADD PUSH1 0x0 KECCAK256 SLOAD EQ ISZERO SWAP1 POP SWAP3 SWAP2 POP POP JUMP JUMPDEST PUSH1 0x0 PUSH2 0x23AF DUP3 PUSH1 0x40 MLOAD DUP1 PUSH1 0x40 ADD PUSH1 0x40 MSTORE DUP1 PUSH1 0x20 DUP2 MSTORE PUSH1 0x20 ADD PUSH32 0x5361666545524332303A206C6F772D6C6576656C2063616C6C206661696C6564 DUP2 MSTORE POP DUP6 PUSH20 0xFFFFFFFFFFFFFFFFFFFFFFFFFFFFFFFFFFFFFFFF AND PUSH2 0x25D6 SWAP1 SWAP3 SWAP2 SWAP1 PUSH4 0xFFFFFFFF AND JUMP JUMPDEST SWAP1 POP PUSH1 0x0 DUP2 MLOAD GT ISZERO PUSH2 0x240F JUMPI DUP1 DUP1 PUSH1 0x20 ADD SWAP1 MLOAD DUP2 ADD SWAP1 PUSH2 0x23CF SWAP2 SWAP1 PUSH2 0x2B31 JUMP JUMPDEST PUSH2 0x240E JUMPI PUSH1 0x40 MLOAD PUSH32 0x8C379A000000000000000000000000000000000000000000000000000000000 DUP2 MSTORE PUSH1 0x4 ADD PUSH2 0x2405 SWAP1 PUSH2 0x3537 JUMP JUMPDEST PUSH1 0x40 MLOAD DUP1 SWAP2 SUB SWAP1 REVERT JUMPDEST JUMPDEST POP POP POP JUMP JUMPDEST PUSH1 0x0 PUSH2 0x241E PUSH2 0x25EE JUMP JUMPDEST PUSH1 0x1 DUP1 SLOAD SWAP1 POP SWAP1 POP PUSH1 0x0 PUSH1 0x40 MLOAD DUP1 PUSH2 0x100 ADD PUSH1 0x40 MSTORE DUP1 DUP4 DUP2 MSTORE PUSH1 0x20 ADD DUP8 PUSH20 0xFFFFFFFFFFFFFFFFFFFFFFFFFFFFFFFFFFFFFFFF AND DUP2 MSTORE PUSH1 0x20 ADD DUP9 PUSH20 0xFFFFFFFFFFFFFFFFFFFFFFFFFFFFFFFFFFFFFFFF AND DUP2 MSTORE PUSH1 0x20 ADD DUP7 DUP2 MSTORE PUSH1 0x20 ADD TIMESTAMP DUP2 MSTORE PUSH1 0x20 ADD DUP6 DUP2 MSTORE PUSH1 0x20 ADD PUSH1 0x0 DUP2 MSTORE PUSH1 0x20 ADD DUP5 DUP2 MSTORE POP SWAP1 POP PUSH1 0x1 DUP2 SWAP1 DUP1 PUSH1 0x1 DUP2 SLOAD ADD DUP1 DUP3 SSTORE DUP1 SWAP2 POP POP PUSH1 0x1 SWAP1 SUB SWAP1 PUSH1 0x0 MSTORE PUSH1 0x20 PUSH1 0x0 KECCAK256 SWAP1 PUSH1 0x8 MUL ADD PUSH1 0x0 SWAP1 SWAP2 SWAP1 SWAP2 SWAP1 SWAP2 POP PUSH1 0x0 DUP3 ADD MLOAD DUP2 PUSH1 0x0 ADD SSTORE PUSH1 0x20 DUP3 ADD MLOAD DUP2 PUSH1 0x1 ADD PUSH1 0x0 PUSH2 0x100 EXP DUP2 SLOAD DUP2 PUSH20 0xFFFFFFFFFFFFFFFFFFFFFFFFFFFFFFFFFFFFFFFF MUL NOT AND SWAP1 DUP4 PUSH20 0xFFFFFFFFFFFFFFFFFFFFFFFFFFFFFFFFFFFFFFFF AND MUL OR SWAP1 SSTORE POP PUSH1 0x40 DUP3 ADD MLOAD DUP2 PUSH1 0x2 ADD PUSH1 0x0 PUSH2 0x100 EXP DUP2 SLOAD DUP2 PUSH20 0xFFFFFFFFFFFFFFFFFFFFFFFFFFFFFFFFFFFFFFFF MUL NOT AND SWAP1 DUP4 PUSH20 0xFFFFFFFFFFFFFFFFFFFFFFFFFFFFFFFFFFFFFFFF AND MUL OR SWAP1 SSTORE POP PUSH1 0x60 DUP3 ADD MLOAD DUP2 PUSH1 0x3 ADD SSTORE PUSH1 0x80 DUP3 ADD MLOAD DUP2 PUSH1 0x4 ADD SSTORE PUSH1 0xA0 DUP3 ADD MLOAD DUP2 PUSH1 0x5 ADD SSTORE PUSH1 0xC0 DUP3 ADD MLOAD DUP2 PUSH1 0x6 ADD SSTORE PUSH1 0xE0 DUP3 ADD MLOAD DUP2 PUSH1 0x7 ADD SWAP1 DUP1 MLOAD SWAP1 PUSH1 0x20 ADD SWAP1 PUSH2 0x2599 SWAP3 SWAP2 SWAP1 PUSH2 0x288F JUMP JUMPDEST POP POP POP POP SWAP6 SWAP5 POP POP POP POP POP JUMP JUMPDEST PUSH1 0x0 PUSH2 0x25CE DUP4 PUSH1 0x0 ADD DUP4 PUSH20 0xFFFFFFFFFFFFFFFFFFFFFFFFFFFFFFFFFFFFFFFF AND PUSH1 0x0 SHL PUSH2 0x1FAF JUMP JUMPDEST SWAP1 POP SWAP3 SWAP2 POP POP JUMP JUMPDEST PUSH1 0x60 PUSH2 0x25E5 DUP5 DUP5 PUSH1 0x0 DUP6 PUSH2 0x2638 JUMP JUMPDEST SWAP1 POP SWAP4 SWAP3 POP POP POP JUMP JUMPDEST PUSH2 0x25F6 PUSH2 0xBD1 JUMP JUMPDEST ISZERO PUSH2 0x2636 JUMPI PUSH1 0x40 MLOAD PUSH32 0x8C379A000000000000000000000000000000000000000000000000000000000 DUP2 MSTORE PUSH1 0x4 ADD PUSH2 0x262D SWAP1 PUSH2 0x3477 JUMP JUMPDEST PUSH1 0x40 MLOAD DUP1 SWAP2 SUB SWAP1 REVERT JUMPDEST JUMP JUMPDEST PUSH1 0x60 DUP3 SELFBALANCE LT ISZERO PUSH2 0x267D JUMPI PUSH1 0x40 MLOAD PUSH32 0x8C379A000000000000000000000000000000000000000000000000000000000 DUP2 MSTORE PUSH1 0x4 ADD PUSH2 0x2674 SWAP1 PUSH2 0x3437 JUMP JUMPDEST PUSH1 0x40 MLOAD DUP1 SWAP2 SUB SWAP1 REVERT JUMPDEST PUSH1 0x0 DUP1 DUP7 PUSH20 0xFFFFFFFFFFFFFFFFFFFFFFFFFFFFFFFFFFFFFFFF AND DUP6 DUP8 PUSH1 0x40 MLOAD PUSH2 0x26A6 SWAP2 SWAP1 PUSH2 0x327F JUMP JUMPDEST PUSH1 0x0 PUSH1 0x40 MLOAD DUP1 DUP4 SUB DUP2 DUP6 DUP8 GAS CALL SWAP3 POP POP POP RETURNDATASIZE DUP1 PUSH1 0x0 DUP2 EQ PUSH2 0x26E3 JUMPI PUSH1 0x40 MLOAD SWAP2 POP PUSH1 0x1F NOT PUSH1 0x3F RETURNDATASIZE ADD AND DUP3 ADD PUSH1 0x40 MSTORE RETURNDATASIZE DUP3 MSTORE RETURNDATASIZE PUSH1 0x0 PUSH1 0x20 DUP5 ADD RETURNDATACOPY PUSH2 0x26E8 JUMP JUMPDEST PUSH1 0x60 SWAP2 POP JUMPDEST POP SWAP2 POP SWAP2 POP PUSH2 0x26F9 DUP8 DUP4 DUP4 DUP8 PUSH2 0x2705 JUMP JUMPDEST SWAP3 POP POP POP SWAP5 SWAP4 POP POP POP POP JUMP JUMPDEST PUSH1 0x60 DUP4 ISZERO PUSH2 0x2768 JUMPI PUSH1 0x0 DUP4 MLOAD EQ ISZERO PUSH2 0x2760 JUMPI PUSH2 0x2720 DUP6 PUSH2 0x277B JUMP JUMPDEST PUSH2 0x275F JUMPI PUSH1 0x40 MLOAD PUSH32 0x8C379A000000000000000000000000000000000000000000000000000000000 DUP2 MSTORE PUSH1 0x4 ADD PUSH2 0x2756 SWAP1 PUSH2 0x34F7 JUMP JUMPDEST PUSH1 0x40 MLOAD DUP1 SWAP2 SUB SWAP1 REVERT JUMPDEST JUMPDEST DUP3 SWAP1 POP PUSH2 0x2773 JUMP JUMPDEST PUSH2 0x2772 DUP4 DUP4 PUSH2 0x279E JUMP JUMPDEST JUMPDEST SWAP5 SWAP4 POP POP POP POP JUMP JUMPDEST PUSH1 0x0 DUP1 DUP3 PUSH20 0xFFFFFFFFFFFFFFFFFFFFFFFFFFFFFFFFFFFFFFFF AND EXTCODESIZE GT SWAP1 POP SWAP2 SWAP1 POP JUMP JUMPDEST PUSH1 0x0 DUP3 MLOAD GT ISZERO PUSH2 0x27B1 JUMPI DUP2 MLOAD DUP1 DUP4 PUSH1 0x20 ADD REVERT JUMPDEST DUP1 PUSH1 0x40 MLOAD PUSH32 0x8C379A000000000000000000000000000000000000000000000000000000000 DUP2 MSTORE PUSH1 0x4 ADD PUSH2 0x27E5 SWAP2 SWAP1 PUSH2 0x33B5 JUMP JUMPDEST PUSH1 0x40 MLOAD DUP1 SWAP2 SUB SWAP1 REVERT JUMPDEST PUSH1 0x40 MLOAD DUP1 PUSH2 0x100 ADD PUSH1 0x40 MSTORE DUP1 PUSH1 0x0 DUP2 MSTORE PUSH1 0x20 ADD PUSH1 0x0 PUSH20 0xFFFFFFFFFFFFFFFFFFFFFFFFFFFFFFFFFFFFFFFF AND DUP2 MSTORE PUSH1 0x20 ADD PUSH1 0x0 PUSH20 0xFFFFFFFFFFFFFFFFFFFFFFFFFFFFFFFFFFFFFFFF AND DUP2 MSTORE PUSH1 0x20 ADD PUSH1 0x0 DUP2 MSTORE PUSH1 0x20 ADD PUSH1 0x0 DUP2 MSTORE PUSH1 0x20 ADD PUSH1 0x0 DUP2 MSTORE PUSH1 0x20 ADD PUSH1 0x0 DUP2 MSTORE PUSH1 0x20 ADD PUSH1 0x60 DUP2 MSTORE POP SWAP1 JUMP JUMPDEST PUSH1 0x40 MLOAD DUP1 PUSH1 0x40 ADD PUSH1 0x40 MSTORE DUP1 PUSH1 0x0 PUSH20 0xFFFFFFFFFFFFFFFFFFFFFFFFFFFFFFFFFFFFFFFF AND DUP2 MSTORE PUSH1 0x20 ADD PUSH1 0x0 DUP2 MSTORE POP SWAP1 JUMP JUMPDEST DUP3 DUP1 SLOAD PUSH2 0x289B SWAP1 PUSH2 0x3865 JUMP JUMPDEST SWAP1 PUSH1 0x0 MSTORE PUSH1 0x20 PUSH1 0x0 KECCAK256 SWAP1 PUSH1 0x1F ADD PUSH1 0x20 SWAP1 DIV DUP2 ADD SWAP3 DUP3 PUSH2 0x28BD JUMPI PUSH1 0x0 DUP6 SSTORE PUSH2 0x2904 JUMP JUMPDEST DUP3 PUSH1 0x1F LT PUSH2 0x28D6 JUMPI DUP1 MLOAD PUSH1 0xFF NOT AND DUP4 DUP1 ADD OR DUP6 SSTORE PUSH2 0x2904 JUMP JUMPDEST DUP3 DUP1 ADD PUSH1 0x1 ADD DUP6 SSTORE DUP3 ISZERO PUSH2 0x2904 JUMPI SWAP2 DUP3 ADD JUMPDEST DUP3 DUP2 GT ISZERO PUSH2 0x2903 JUMPI DUP3 MLOAD DUP3 SSTORE SWAP2 PUSH1 0x20 ADD SWAP2 SWAP1 PUSH1 0x1 ADD SWAP1 PUSH2 0x28E8 JUMP JUMPDEST JUMPDEST POP SWAP1 POP PUSH2 0x2911 SWAP2 SWAP1 PUSH2 0x2915 JUMP JUMPDEST POP SWAP1 JUMP JUMPDEST JUMPDEST DUP1 DUP3 GT ISZERO PUSH2 0x292E JUMPI PUSH1 0x0 DUP2 PUSH1 0x0 SWAP1 SSTORE POP PUSH1 0x1 ADD PUSH2 0x2916 JUMP JUMPDEST POP SWAP1 JUMP JUMPDEST PUSH1 0x0 PUSH2 0x2945 PUSH2 0x2940 DUP5 PUSH2 0x366B JUMP JUMPDEST PUSH2 0x3646 JUMP JUMPDEST SWAP1 POP DUP3 DUP2 MSTORE PUSH1 0x20 DUP2 ADD DUP5 DUP5 DUP5 ADD GT ISZERO PUSH2 0x295D JUMPI PUSH1 0x0 DUP1 REVERT JUMPDEST PUSH2 0x2968 DUP5 DUP3 DUP6 PUSH2 0x3823 JUMP JUMPDEST POP SWAP4 SWAP3 POP POP POP JUMP JUMPDEST PUSH1 0x0 DUP2 CALLDATALOAD SWAP1 POP PUSH2 0x297F DUP2 PUSH2 0x3D20 JUMP JUMPDEST SWAP3 SWAP2 POP POP JUMP JUMPDEST PUSH1 0x0 DUP2 MLOAD SWAP1 POP PUSH2 0x2994 DUP2 PUSH2 0x3D37 JUMP JUMPDEST SWAP3 SWAP2 POP POP JUMP JUMPDEST PUSH1 0x0 DUP3 PUSH1 0x1F DUP4 ADD SLT PUSH2 0x29AB JUMPI PUSH1 0x0 DUP1 REVERT JUMPDEST DUP2 CALLDATALOAD PUSH2 0x29BB DUP5 DUP3 PUSH1 0x20 DUP7 ADD PUSH2 0x2932 JUMP JUMPDEST SWAP2 POP POP SWAP3 SWAP2 POP POP JUMP JUMPDEST PUSH1 0x0 DUP2 CALLDATALOAD SWAP1 POP PUSH2 0x29D3 DUP2 PUSH2 0x3D4E JUMP JUMPDEST SWAP3 SWAP2 POP POP JUMP JUMPDEST PUSH1 0x0 DUP2 MLOAD SWAP1 POP PUSH2 0x29E8 DUP2 PUSH2 0x3D4E JUMP JUMPDEST SWAP3 SWAP2 POP POP JUMP JUMPDEST PUSH1 0x0 PUSH1 0x20 DUP3 DUP5 SUB SLT ISZERO PUSH2 0x2A00 JUMPI PUSH1 0x0 DUP1 REVERT JUMPDEST PUSH1 0x0 PUSH2 0x2A0E DUP5 DUP3 DUP6 ADD PUSH2 0x2970 JUMP JUMPDEST SWAP2 POP POP SWAP3 SWAP2 POP POP JUMP JUMPDEST PUSH1 0x0 DUP1 PUSH1 0x0 DUP1 PUSH1 0x0 PUSH1 0xA0 DUP7 DUP9 SUB SLT ISZERO PUSH2 0x2A2F JUMPI PUSH1 0x0 DUP1 REVERT JUMPDEST PUSH1 0x0 PUSH2 0x2A3D DUP9 DUP3 DUP10 ADD PUSH2 0x2970 JUMP JUMPDEST SWAP6 POP POP PUSH1 0x20 PUSH2 0x2A4E DUP9 DUP3 DUP10 ADD PUSH2 0x2970 JUMP JUMPDEST SWAP5 POP POP PUSH1 0x40 PUSH2 0x2A5F DUP9 DUP3 DUP10 ADD PUSH2 0x29C4 JUMP JUMPDEST SWAP4 POP POP PUSH1 0x60 PUSH2 0x2A70 DUP9 DUP3 DUP10 ADD PUSH2 0x29C4 JUMP JUMPDEST SWAP3 POP POP PUSH1 0x80 DUP7 ADD CALLDATALOAD PUSH8 0xFFFFFFFFFFFFFFFF DUP2 GT ISZERO PUSH2 0x2A8D JUMPI PUSH1 0x0 DUP1 REVERT JUMPDEST PUSH2 0x2A99 DUP9 DUP3 DUP10 ADD PUSH2 0x299A JUMP JUMPDEST SWAP2 POP POP SWAP3 SWAP6 POP SWAP3 SWAP6 SWAP1 SWAP4 POP JUMP JUMPDEST PUSH1 0x0 DUP1 PUSH1 0x40 DUP4 DUP6 SUB SLT ISZERO PUSH2 0x2AB9 JUMPI PUSH1 0x0 DUP1 REVERT JUMPDEST PUSH1 0x0 PUSH2 0x2AC7 DUP6 DUP3 DUP7 ADD PUSH2 0x2970 JUMP JUMPDEST SWAP3 POP POP PUSH1 0x20 PUSH2 0x2AD8 DUP6 DUP3 DUP7 ADD PUSH2 0x29C4 JUMP JUMPDEST SWAP2 POP POP SWAP3 POP SWAP3 SWAP1 POP JUMP JUMPDEST PUSH1 0x0 DUP1 PUSH1 0x0 PUSH1 0x60 DUP5 DUP7 SUB SLT ISZERO PUSH2 0x2AF7 JUMPI PUSH1 0x0 DUP1 REVERT JUMPDEST PUSH1 0x0 PUSH2 0x2B05 DUP7 DUP3 DUP8 ADD PUSH2 0x2970 JUMP JUMPDEST SWAP4 POP POP PUSH1 0x20 PUSH2 0x2B16 DUP7 DUP3 DUP8 ADD PUSH2 0x29C4 JUMP JUMPDEST SWAP3 POP POP PUSH1 0x40 PUSH2 0x2B27 DUP7 DUP3 DUP8 ADD PUSH2 0x29C4 JUMP JUMPDEST SWAP2 POP POP SWAP3 POP SWAP3 POP SWAP3 JUMP JUMPDEST PUSH1 0x0 PUSH1 0x20 DUP3 DUP5 SUB SLT ISZERO PUSH2 0x2B43 JUMPI PUSH1 0x0 DUP1 REVERT JUMPDEST PUSH1 0x0 PUSH2 0x2B51 DUP5 DUP3 DUP6 ADD PUSH2 0x2985 JUMP JUMPDEST SWAP2 POP POP SWAP3 SWAP2 POP POP JUMP JUMPDEST PUSH1 0x0 PUSH1 0x20 DUP3 DUP5 SUB SLT ISZERO PUSH2 0x2B6C JUMPI PUSH1 0x0 DUP1 REVERT JUMPDEST PUSH1 0x0 PUSH2 0x2B7A DUP5 DUP3 DUP6 ADD PUSH2 0x29C4 JUMP JUMPDEST SWAP2 POP POP SWAP3 SWAP2 POP POP JUMP JUMPDEST PUSH1 0x0 PUSH1 0x20 DUP3 DUP5 SUB SLT ISZERO PUSH2 0x2B95 JUMPI PUSH1 0x0 DUP1 REVERT JUMPDEST PUSH1 0x0 PUSH2 0x2BA3 DUP5 DUP3 DUP6 ADD PUSH2 0x29D9 JUMP JUMPDEST SWAP2 POP POP SWAP3 SWAP2 POP POP JUMP JUMPDEST PUSH1 0x0 DUP1 PUSH1 0x40 DUP4 DUP6 SUB SLT ISZERO PUSH2 0x2BBF JUMPI PUSH1 0x0 DUP1 REVERT JUMPDEST PUSH1 0x0 PUSH2 0x2BCD DUP6 DUP3 DUP7 ADD PUSH2 0x29C4 JUMP JUMPDEST SWAP3 POP POP PUSH1 0x20 PUSH2 0x2BDE DUP6 DUP3 DUP7 ADD PUSH2 0x2970 JUMP JUMPDEST SWAP2 POP POP SWAP3 POP SWAP3 SWAP1 POP JUMP JUMPDEST PUSH1 0x0 DUP1 PUSH1 0x40 DUP4 DUP6 SUB SLT ISZERO PUSH2 0x2BFB JUMPI PUSH1 0x0 DUP1 REVERT JUMPDEST PUSH1 0x0 PUSH2 0x2C09 DUP6 DUP3 DUP7 ADD PUSH2 0x29C4 JUMP JUMPDEST SWAP3 POP POP PUSH1 0x20 DUP4 ADD CALLDATALOAD PUSH8 0xFFFFFFFFFFFFFFFF DUP2 GT ISZERO PUSH2 0x2C26 JUMPI PUSH1 0x0 DUP1 REVERT JUMPDEST PUSH2 0x2C32 DUP6 DUP3 DUP7 ADD PUSH2 0x299A JUMP JUMPDEST SWAP2 POP POP SWAP3 POP SWAP3 SWAP1 POP JUMP JUMPDEST PUSH1 0x0 DUP1 PUSH1 0x40 DUP4 DUP6 SUB SLT ISZERO PUSH2 0x2C4F JUMPI PUSH1 0x0 DUP1 REVERT JUMPDEST PUSH1 0x0 PUSH2 0x2C5D DUP6 DUP3 DUP7 ADD PUSH2 0x29C4 JUMP JUMPDEST SWAP3 POP POP PUSH1 0x20 PUSH2 0x2C6E DUP6 DUP3 DUP7 ADD PUSH2 0x29C4 JUMP JUMPDEST SWAP2 POP POP SWAP3 POP SWAP3 SWAP1 POP JUMP JUMPDEST PUSH1 0x0 DUP1 PUSH1 0x0 PUSH1 0x60 DUP5 DUP7 SUB SLT ISZERO PUSH2 0x2C8D JUMPI PUSH1 0x0 DUP1 REVERT JUMPDEST PUSH1 0x0 PUSH2 0x2C9B DUP7 DUP3 DUP8 ADD PUSH2 0x29C4 JUMP JUMPDEST SWAP4 POP POP PUSH1 0x20 PUSH2 0x2CAC DUP7 DUP3 DUP8 ADD PUSH2 0x29C4 JUMP JUMPDEST SWAP3 POP POP PUSH1 0x40 PUSH2 0x2CBD DUP7 DUP3 DUP8 ADD PUSH2 0x29C4 JUMP JUMPDEST SWAP2 POP POP SWAP3 POP SWAP3 POP SWAP3 JUMP JUMPDEST PUSH1 0x0 PUSH2 0x2CD3 DUP4 DUP4 PUSH2 0x30A3 JUMP JUMPDEST PUSH1 0x40 DUP4 ADD SWAP1 POP SWAP3 SWAP2 POP POP JUMP JUMPDEST PUSH1 0x0 PUSH2 0x2CEB DUP4 DUP4 PUSH2 0x3101 JUMP JUMPDEST SWAP1 POP SWAP3 SWAP2 POP POP JUMP JUMPDEST PUSH2 0x2CFC DUP2 PUSH2 0x37DB JUMP JUMPDEST DUP3 MSTORE POP POP JUMP JUMPDEST PUSH2 0x2D0B DUP2 PUSH2 0x37DB JUMP JUMPDEST DUP3 MSTORE POP POP JUMP JUMPDEST PUSH1 0x0 PUSH2 0x2D1C DUP3 PUSH2 0x36BC JUMP JUMPDEST PUSH2 0x2D26 DUP2 DUP6 PUSH2 0x3702 JUMP JUMPDEST SWAP4 POP PUSH2 0x2D31 DUP4 PUSH2 0x369C JUMP JUMPDEST DUP1 PUSH1 0x0 JUMPDEST DUP4 DUP2 LT ISZERO PUSH2 0x2D62 JUMPI DUP2 MLOAD PUSH2 0x2D49 DUP9 DUP3 PUSH2 0x2CC7 JUMP JUMPDEST SWAP8 POP PUSH2 0x2D54 DUP4 PUSH2 0x36E8 JUMP JUMPDEST SWAP3 POP POP PUSH1 0x1 DUP2 ADD SWAP1 POP PUSH2 0x2D35 JUMP JUMPDEST POP DUP6 SWAP4 POP POP POP POP SWAP3 SWAP2 POP POP JUMP JUMPDEST PUSH1 0x0 PUSH2 0x2D7A DUP3 PUSH2 0x36C7 JUMP JUMPDEST PUSH2 0x2D84 DUP2 DUP6 PUSH2 0x3713 JUMP JUMPDEST SWAP4 POP DUP4 PUSH1 0x20 DUP3 MUL DUP6 ADD PUSH2 0x2D96 DUP6 PUSH2 0x36AC JUMP JUMPDEST DUP1 PUSH1 0x0 JUMPDEST DUP6 DUP2 LT ISZERO PUSH2 0x2DD2 JUMPI DUP5 DUP5 SUB DUP10 MSTORE DUP2 MLOAD PUSH2 0x2DB3 DUP6 DUP3 PUSH2 0x2CDF JUMP JUMPDEST SWAP5 POP PUSH2 0x2DBE DUP4 PUSH2 0x36F5 JUMP JUMPDEST SWAP3 POP PUSH1 0x20 DUP11 ADD SWAP10 POP POP PUSH1 0x1 DUP2 ADD SWAP1 POP PUSH2 0x2D9A JUMP JUMPDEST POP DUP3 SWAP8 POP DUP8 SWAP6 POP POP POP POP POP POP SWAP3 SWAP2 POP POP JUMP JUMPDEST PUSH2 0x2DED DUP2 PUSH2 0x37ED JUMP JUMPDEST DUP3 MSTORE POP POP JUMP JUMPDEST PUSH1 0x0 PUSH2 0x2DFE DUP3 PUSH2 0x36D2 JUMP JUMPDEST PUSH2 0x2E08 DUP2 DUP6 PUSH2 0x3724 JUMP JUMPDEST SWAP4 POP PUSH2 0x2E18 DUP2 DUP6 PUSH1 0x20 DUP7 ADD PUSH2 0x3832 JUMP JUMPDEST DUP1 DUP5 ADD SWAP2 POP POP SWAP3 SWAP2 POP POP JUMP JUMPDEST PUSH1 0x0 PUSH2 0x2E2F DUP3 PUSH2 0x36DD JUMP JUMPDEST PUSH2 0x2E39 DUP2 DUP6 PUSH2 0x372F JUMP JUMPDEST SWAP4 POP PUSH2 0x2E49 DUP2 DUP6 PUSH1 0x20 DUP7 ADD PUSH2 0x3832 JUMP JUMPDEST PUSH2 0x2E52 DUP2 PUSH2 0x399E JUMP JUMPDEST DUP5 ADD SWAP2 POP POP SWAP3 SWAP2 POP POP JUMP JUMPDEST PUSH1 0x0 PUSH2 0x2E68 DUP3 PUSH2 0x36DD JUMP JUMPDEST PUSH2 0x2E72 DUP2 DUP6 PUSH2 0x3740 JUMP JUMPDEST SWAP4 POP PUSH2 0x2E82 DUP2 DUP6 PUSH1 0x20 DUP7 ADD PUSH2 0x3832 JUMP JUMPDEST PUSH2 0x2E8B DUP2 PUSH2 0x399E JUMP JUMPDEST DUP5 ADD SWAP2 POP POP SWAP3 SWAP2 POP POP JUMP JUMPDEST PUSH1 0x0 PUSH2 0x2EA3 PUSH1 0x11 DUP4 PUSH2 0x3740 JUMP JUMPDEST SWAP2 POP PUSH2 0x2EAE DUP3 PUSH2 0x39AF JUMP JUMPDEST PUSH1 0x20 DUP3 ADD SWAP1 POP SWAP2 SWAP1 POP JUMP JUMPDEST PUSH1 0x0 PUSH2 0x2EC6 PUSH1 0x23 DUP4 PUSH2 0x3740 JUMP JUMPDEST SWAP2 POP PUSH2 0x2ED1 DUP3 PUSH2 0x39D8 JUMP JUMPDEST PUSH1 0x40 DUP3 ADD SWAP1 POP SWAP2 SWAP1 POP JUMP JUMPDEST PUSH1 0x0 PUSH2 0x2EE9 PUSH1 0xD DUP4 PUSH2 0x3740 JUMP JUMPDEST SWAP2 POP PUSH2 0x2EF4 DUP3 PUSH2 0x3A27 JUMP JUMPDEST PUSH1 0x20 DUP3 ADD SWAP1 POP SWAP2 SWAP1 POP JUMP JUMPDEST PUSH1 0x0 PUSH2 0x2F0C PUSH1 0x26 DUP4 PUSH2 0x3740 JUMP JUMPDEST SWAP2 POP PUSH2 0x2F17 DUP3 PUSH2 0x3A50 JUMP JUMPDEST PUSH1 0x40 DUP3 ADD SWAP1 POP SWAP2 SWAP1 POP JUMP JUMPDEST PUSH1 0x0 PUSH2 0x2F2F PUSH1 0x22 DUP4 PUSH2 0x3740 JUMP JUMPDEST SWAP2 POP PUSH2 0x2F3A DUP3 PUSH2 0x3A9F JUMP JUMPDEST PUSH1 0x40 DUP3 ADD SWAP1 POP SWAP2 SWAP1 POP JUMP JUMPDEST PUSH1 0x0 PUSH2 0x2F52 PUSH1 0x10 DUP4 PUSH2 0x3740 JUMP JUMPDEST SWAP2 POP PUSH2 0x2F5D DUP3 PUSH2 0x3AEE JUMP JUMPDEST PUSH1 0x20 DUP3 ADD SWAP1 POP SWAP2 SWAP1 POP JUMP JUMPDEST PUSH1 0x0 PUSH2 0x2F75 PUSH1 0xF DUP4 PUSH2 0x3740 JUMP JUMPDEST SWAP2 POP PUSH2 0x2F80 DUP3 PUSH2 0x3B17 JUMP JUMPDEST PUSH1 0x20 DUP3 ADD SWAP1 POP SWAP2 SWAP1 POP JUMP JUMPDEST PUSH1 0x0 PUSH2 0x2F98 PUSH1 0x1F DUP4 PUSH2 0x3740 JUMP JUMPDEST SWAP2 POP PUSH2 0x2FA3 DUP3 PUSH2 0x3B40 JUMP JUMPDEST PUSH1 0x20 DUP3 ADD SWAP1 POP SWAP2 SWAP1 POP JUMP JUMPDEST PUSH1 0x0 PUSH2 0x2FBB PUSH1 0x11 DUP4 PUSH2 0x3740 JUMP JUMPDEST SWAP2 POP PUSH2 0x2FC6 DUP3 PUSH2 0x3B69 JUMP JUMPDEST PUSH1 0x20 DUP3 ADD SWAP1 POP SWAP2 SWAP1 POP JUMP JUMPDEST PUSH1 0x0 PUSH2 0x2FDE PUSH1 0x1D DUP4 PUSH2 0x3740 JUMP JUMPDEST SWAP2 POP PUSH2 0x2FE9 DUP3 PUSH2 0x3B92 JUMP JUMPDEST PUSH1 0x20 DUP3 ADD SWAP1 POP SWAP2 SWAP1 POP JUMP JUMPDEST PUSH1 0x0 PUSH2 0x3001 PUSH1 0x31 DUP4 PUSH2 0x3740 JUMP JUMPDEST SWAP2 POP PUSH2 0x300C DUP3 PUSH2 0x3BBB JUMP JUMPDEST PUSH1 0x40 DUP3 ADD SWAP1 POP SWAP2 SWAP1 POP JUMP JUMPDEST PUSH1 0x0 PUSH2 0x3024 PUSH1 0x2A DUP4 PUSH2 0x3740 JUMP JUMPDEST SWAP2 POP PUSH2 0x302F DUP3 PUSH2 0x3C0A JUMP JUMPDEST PUSH1 0x40 DUP3 ADD SWAP1 POP SWAP2 SWAP1 POP JUMP JUMPDEST PUSH1 0x0 PUSH2 0x3047 PUSH1 0x18 DUP4 PUSH2 0x3740 JUMP JUMPDEST SWAP2 POP PUSH2 0x3052 DUP3 PUSH2 0x3C59 JUMP JUMPDEST PUSH1 0x20 DUP3 ADD SWAP1 POP SWAP2 SWAP1 POP JUMP JUMPDEST PUSH1 0x0 PUSH2 0x306A PUSH1 0x44 DUP4 PUSH2 0x3740 JUMP JUMPDEST SWAP2 POP PUSH2 0x3075 DUP3 PUSH2 0x3C82 JUMP JUMPDEST PUSH1 0x60 DUP3 ADD SWAP1 POP SWAP2 SWAP1 POP JUMP JUMPDEST PUSH1 0x0 PUSH2 0x308D PUSH1 0x1F DUP4 PUSH2 0x3740 JUMP JUMPDEST SWAP2 POP PUSH2 0x3098 DUP3 PUSH2 0x3CF7 JUMP JUMPDEST PUSH1 0x20 DUP3 ADD SWAP1 POP SWAP2 SWAP1 POP JUMP JUMPDEST PUSH1 0x40 DUP3 ADD PUSH1 0x0 DUP3 ADD MLOAD PUSH2 0x30B9 PUSH1 0x0 DUP6 ADD DUP3 PUSH2 0x2CF3 JUMP JUMPDEST POP PUSH1 0x20 DUP3 ADD MLOAD PUSH2 0x30CC PUSH1 0x20 DUP6 ADD DUP3 PUSH2 0x3261 JUMP JUMPDEST POP POP POP POP JUMP JUMPDEST PUSH1 0x40 DUP3 ADD PUSH1 0x0 DUP3 ADD MLOAD PUSH2 0x30E8 PUSH1 0x0 DUP6 ADD DUP3 PUSH2 0x2CF3 JUMP JUMPDEST POP PUSH1 0x20 DUP3 ADD MLOAD PUSH2 0x30FB PUSH1 0x20 DUP6 ADD DUP3 PUSH2 0x3261 JUMP JUMPDEST POP POP POP POP JUMP JUMPDEST PUSH1 0x0 PUSH2 0x100 DUP4 ADD PUSH1 0x0 DUP4 ADD MLOAD PUSH2 0x311A PUSH1 0x0 DUP7 ADD DUP3 PUSH2 0x3261 JUMP JUMPDEST POP PUSH1 0x20 DUP4 ADD MLOAD PUSH2 0x312D PUSH1 0x20 DUP7 ADD DUP3 PUSH2 0x2CF3 JUMP JUMPDEST POP PUSH1 0x40 DUP4 ADD MLOAD PUSH2 0x3140 PUSH1 0x40 DUP7 ADD DUP3 PUSH2 0x2CF3 JUMP JUMPDEST POP PUSH1 0x60 DUP4 ADD MLOAD PUSH2 0x3153 PUSH1 0x60 DUP7 ADD DUP3 PUSH2 0x3261 JUMP JUMPDEST POP PUSH1 0x80 DUP4 ADD MLOAD PUSH2 0x3166 PUSH1 0x80 DUP7 ADD DUP3 PUSH2 0x3261 JUMP JUMPDEST POP PUSH1 0xA0 DUP4 ADD MLOAD PUSH2 0x3179 PUSH1 0xA0 DUP7 ADD DUP3 PUSH2 0x3261 JUMP JUMPDEST POP PUSH1 0xC0 DUP4 ADD MLOAD PUSH2 0x318C PUSH1 0xC0 DUP7 ADD DUP3 PUSH2 0x3261 JUMP JUMPDEST POP PUSH1 0xE0 DUP4 ADD MLOAD DUP5 DUP3 SUB PUSH1 0xE0 DUP7 ADD MSTORE PUSH2 0x31A4 DUP3 DUP3 PUSH2 0x2E24 JUMP JUMPDEST SWAP2 POP POP DUP1 SWAP2 POP POP SWAP3 SWAP2 POP POP JUMP JUMPDEST PUSH1 0x0 PUSH2 0x100 DUP4 ADD PUSH1 0x0 DUP4 ADD MLOAD PUSH2 0x31CA PUSH1 0x0 DUP7 ADD DUP3 PUSH2 0x3261 JUMP JUMPDEST POP PUSH1 0x20 DUP4 ADD MLOAD PUSH2 0x31DD PUSH1 0x20 DUP7 ADD DUP3 PUSH2 0x2CF3 JUMP JUMPDEST POP PUSH1 0x40 DUP4 ADD MLOAD PUSH2 0x31F0 PUSH1 0x40 DUP7 ADD DUP3 PUSH2 0x2CF3 JUMP JUMPDEST POP PUSH1 0x60 DUP4 ADD MLOAD PUSH2 0x3203 PUSH1 0x60 DUP7 ADD DUP3 PUSH2 0x3261 JUMP JUMPDEST POP PUSH1 0x80 DUP4 ADD MLOAD PUSH2 0x3216 PUSH1 0x80 DUP7 ADD DUP3 PUSH2 0x3261 JUMP JUMPDEST POP PUSH1 0xA0 DUP4 ADD MLOAD PUSH2 0x3229 PUSH1 0xA0 DUP7 ADD DUP3 PUSH2 0x3261 JUMP JUMPDEST POP PUSH1 0xC0 DUP4 ADD MLOAD PUSH2 0x323C PUSH1 0xC0 DUP7 ADD DUP3 PUSH2 0x3261 JUMP JUMPDEST POP PUSH1 0xE0 DUP4 ADD MLOAD DUP5 DUP3 SUB PUSH1 0xE0 DUP7 ADD MSTORE PUSH2 0x3254 DUP3 DUP3 PUSH2 0x2E24 JUMP JUMPDEST SWAP2 POP POP DUP1 SWAP2 POP POP SWAP3 SWAP2 POP POP JUMP JUMPDEST PUSH2 0x326A DUP2 PUSH2 0x3819 JUMP JUMPDEST DUP3 MSTORE POP POP JUMP JUMPDEST PUSH2 0x3279 DUP2 PUSH2 0x3819 JUMP JUMPDEST DUP3 MSTORE POP POP JUMP JUMPDEST PUSH1 0x0 PUSH2 0x328B DUP3 DUP5 PUSH2 0x2DF3 JUMP JUMPDEST SWAP2 POP DUP2 SWAP1 POP SWAP3 SWAP2 POP POP JUMP JUMPDEST PUSH1 0x0 PUSH1 0x20 DUP3 ADD SWAP1 POP PUSH2 0x32AB PUSH1 0x0 DUP4 ADD DUP5 PUSH2 0x2D02 JUMP JUMPDEST SWAP3 SWAP2 POP POP JUMP JUMPDEST PUSH1 0x0 PUSH1 0x60 DUP3 ADD SWAP1 POP PUSH2 0x32C6 PUSH1 0x0 DUP4 ADD DUP7 PUSH2 0x2D02 JUMP JUMPDEST PUSH2 0x32D3 PUSH1 0x20 DUP4 ADD DUP6 PUSH2 0x2D02 JUMP JUMPDEST PUSH2 0x32E0 PUSH1 0x40 DUP4 ADD DUP5 PUSH2 0x3270 JUMP JUMPDEST SWAP5 SWAP4 POP POP POP POP JUMP JUMPDEST PUSH1 0x0 PUSH1 0x80 DUP3 ADD SWAP1 POP PUSH2 0x32FD PUSH1 0x0 DUP4 ADD DUP8 PUSH2 0x2D02 JUMP JUMPDEST PUSH2 0x330A PUSH1 0x20 DUP4 ADD DUP7 PUSH2 0x2D02 JUMP JUMPDEST PUSH2 0x3317 PUSH1 0x40 DUP4 ADD DUP6 PUSH2 0x3270 JUMP JUMPDEST PUSH2 0x3324 PUSH1 0x60 DUP4 ADD DUP5 PUSH2 0x3270 JUMP JUMPDEST SWAP6 SWAP5 POP POP POP POP POP JUMP JUMPDEST PUSH1 0x0 PUSH1 0x40 DUP3 ADD SWAP1 POP PUSH2 0x3342 PUSH1 0x0 DUP4 ADD DUP6 PUSH2 0x2D02 JUMP JUMPDEST PUSH2 0x334F PUSH1 0x20 DUP4 ADD DUP5 PUSH2 0x3270 JUMP JUMPDEST SWAP4 SWAP3 POP POP POP JUMP JUMPDEST PUSH1 0x0 PUSH1 0x20 DUP3 ADD SWAP1 POP DUP2 DUP2 SUB PUSH1 0x0 DUP4 ADD MSTORE PUSH2 0x3370 DUP2 DUP5 PUSH2 0x2D11 JUMP JUMPDEST SWAP1 POP SWAP3 SWAP2 POP POP JUMP JUMPDEST PUSH1 0x0 PUSH1 0x20 DUP3 ADD SWAP1 POP DUP2 DUP2 SUB PUSH1 0x0 DUP4 ADD MSTORE PUSH2 0x3392 DUP2 DUP5 PUSH2 0x2D6F JUMP JUMPDEST SWAP1 POP SWAP3 SWAP2 POP POP JUMP JUMPDEST PUSH1 0x0 PUSH1 0x20 DUP3 ADD SWAP1 POP PUSH2 0x33AF PUSH1 0x0 DUP4 ADD DUP5 PUSH2 0x2DE4 JUMP JUMPDEST SWAP3 SWAP2 POP POP JUMP JUMPDEST PUSH1 0x0 PUSH1 0x20 DUP3 ADD SWAP1 POP DUP2 DUP2 SUB PUSH1 0x0 DUP4 ADD MSTORE PUSH2 0x33CF DUP2 DUP5 PUSH2 0x2E5D JUMP JUMPDEST SWAP1 POP SWAP3 SWAP2 POP POP JUMP JUMPDEST PUSH1 0x0 PUSH1 0x20 DUP3 ADD SWAP1 POP DUP2 DUP2 SUB PUSH1 0x0 DUP4 ADD MSTORE PUSH2 0x33F0 DUP2 PUSH2 0x2E96 JUMP JUMPDEST SWAP1 POP SWAP2 SWAP1 POP JUMP JUMPDEST PUSH1 0x0 PUSH1 0x20 DUP3 ADD SWAP1 POP DUP2 DUP2 SUB PUSH1 0x0 DUP4 ADD MSTORE PUSH2 0x3410 DUP2 PUSH2 0x2EB9 JUMP JUMPDEST SWAP1 POP SWAP2 SWAP1 POP JUMP JUMPDEST PUSH1 0x0 PUSH1 0x20 DUP3 ADD SWAP1 POP DUP2 DUP2 SUB PUSH1 0x0 DUP4 ADD MSTORE PUSH2 0x3430 DUP2 PUSH2 0x2EDC JUMP JUMPDEST SWAP1 POP SWAP2 SWAP1 POP JUMP JUMPDEST PUSH1 0x0 PUSH1 0x20 DUP3 ADD SWAP1 POP DUP2 DUP2 SUB PUSH1 0x0 DUP4 ADD MSTORE PUSH2 0x3450 DUP2 PUSH2 0x2EFF JUMP JUMPDEST SWAP1 POP SWAP2 SWAP1 POP JUMP JUMPDEST PUSH1 0x0 PUSH1 0x20 DUP3 ADD SWAP1 POP DUP2 DUP2 SUB PUSH1 0x0 DUP4 ADD MSTORE PUSH2 0x3470 DUP2 PUSH2 0x2F22 JUMP JUMPDEST SWAP1 POP SWAP2 SWAP1 POP JUMP JUMPDEST PUSH1 0x0 PUSH1 0x20 DUP3 ADD SWAP1 POP DUP2 DUP2 SUB PUSH1 0x0 DUP4 ADD MSTORE PUSH2 0x3490 DUP2 PUSH2 0x2F45 JUMP JUMPDEST SWAP1 POP SWAP2 SWAP1 POP JUMP JUMPDEST PUSH1 0x0 PUSH1 0x20 DUP3 ADD SWAP1 POP DUP2 DUP2 SUB PUSH1 0x0 DUP4 ADD MSTORE PUSH2 0x34B0 DUP2 PUSH2 0x2F68 JUMP JUMPDEST SWAP1 POP SWAP2 SWAP1 POP JUMP JUMPDEST PUSH1 0x0 PUSH1 0x20 DUP3 ADD SWAP1 POP DUP2 DUP2 SUB PUSH1 0x0 DUP4 ADD MSTORE PUSH2 0x34D0 DUP2 PUSH2 0x2F8B JUMP JUMPDEST SWAP1 POP SWAP2 SWAP1 POP JUMP JUMPDEST PUSH1 0x0 PUSH1 0x20 DUP3 ADD SWAP1 POP DUP2 DUP2 SUB PUSH1 0x0 DUP4 ADD MSTORE PUSH2 0x34F0 DUP2 PUSH2 0x2FAE JUMP JUMPDEST SWAP1 POP SWAP2 SWAP1 POP JUMP JUMPDEST PUSH1 0x0 PUSH1 0x20 DUP3 ADD SWAP1 POP DUP2 DUP2 SUB PUSH1 0x0 DUP4 ADD MSTORE PUSH2 0x3510 DUP2 PUSH2 0x2FD1 JUMP JUMPDEST SWAP1 POP SWAP2 SWAP1 POP JUMP JUMPDEST PUSH1 0x0 PUSH1 0x20 DUP3 ADD SWAP1 POP DUP2 DUP2 SUB PUSH1 0x0 DUP4 ADD MSTORE PUSH2 0x3530 DUP2 PUSH2 0x2FF4 JUMP JUMPDEST SWAP1 POP SWAP2 SWAP1 POP JUMP JUMPDEST PUSH1 0x0 PUSH1 0x20 DUP3 ADD SWAP1 POP DUP2 DUP2 SUB PUSH1 0x0 DUP4 ADD MSTORE PUSH2 0x3550 DUP2 PUSH2 0x3017 JUMP JUMPDEST SWAP1 POP SWAP2 SWAP1 POP JUMP JUMPDEST PUSH1 0x0 PUSH1 0x20 DUP3 ADD SWAP1 POP DUP2 DUP2 SUB PUSH1 0x0 DUP4 ADD MSTORE PUSH2 0x3570 DUP2 PUSH2 0x303A JUMP JUMPDEST SWAP1 POP SWAP2 SWAP1 POP JUMP JUMPDEST PUSH1 0x0 PUSH1 0x20 DUP3 ADD SWAP1 POP DUP2 DUP2 SUB PUSH1 0x0 DUP4 ADD MSTORE PUSH2 0x3590 DUP2 PUSH2 0x305D JUMP JUMPDEST SWAP1 POP SWAP2 SWAP1 POP JUMP JUMPDEST PUSH1 0x0 PUSH1 0x20 DUP3 ADD SWAP1 POP DUP2 DUP2 SUB PUSH1 0x0 DUP4 ADD MSTORE PUSH2 0x35B0 DUP2 PUSH2 0x3080 JUMP JUMPDEST SWAP1 POP SWAP2 SWAP1 POP JUMP JUMPDEST PUSH1 0x0 PUSH1 0x40 DUP3 ADD SWAP1 POP PUSH2 0x35CC PUSH1 0x0 DUP4 ADD DUP5 PUSH2 0x30D2 JUMP JUMPDEST SWAP3 SWAP2 POP POP JUMP JUMPDEST PUSH1 0x0 PUSH1 0x20 DUP3 ADD SWAP1 POP DUP2 DUP2 SUB PUSH1 0x0 DUP4 ADD MSTORE PUSH2 0x35EC DUP2 DUP5 PUSH2 0x31B1 JUMP JUMPDEST SWAP1 POP SWAP3 SWAP2 POP POP JUMP JUMPDEST PUSH1 0x0 PUSH1 0x20 DUP3 ADD SWAP1 POP PUSH2 0x3609 PUSH1 0x0 DUP4 ADD DUP5 PUSH2 0x3270 JUMP JUMPDEST SWAP3 SWAP2 POP POP JUMP JUMPDEST PUSH1 0x0 PUSH1 0x60 DUP3 ADD SWAP1 POP PUSH2 0x3624 PUSH1 0x0 DUP4 ADD DUP7 PUSH2 0x3270 JUMP JUMPDEST PUSH2 0x3631 PUSH1 0x20 DUP4 ADD DUP6 PUSH2 0x2D02 JUMP JUMPDEST PUSH2 0x363E PUSH1 0x40 DUP4 ADD DUP5 PUSH2 0x2D02 JUMP JUMPDEST SWAP5 SWAP4 POP POP POP POP JUMP JUMPDEST PUSH1 0x0 PUSH2 0x3650 PUSH2 0x3661 JUMP JUMPDEST SWAP1 POP PUSH2 0x365C DUP3 DUP3 PUSH2 0x3897 JUMP JUMPDEST SWAP2 SWAP1 POP JUMP JUMPDEST PUSH1 0x0 PUSH1 0x40 MLOAD SWAP1 POP SWAP1 JUMP JUMPDEST PUSH1 0x0 PUSH8 0xFFFFFFFFFFFFFFFF DUP3 GT ISZERO PUSH2 0x3686 JUMPI PUSH2 0x3685 PUSH2 0x396F JUMP JUMPDEST JUMPDEST PUSH2 0x368F DUP3 PUSH2 0x399E JUMP JUMPDEST SWAP1 POP PUSH1 0x20 DUP2 ADD SWAP1 POP SWAP2 SWAP1 POP JUMP JUMPDEST PUSH1 0x0 DUP2 SWAP1 POP PUSH1 0x20 DUP3 ADD SWAP1 POP SWAP2 SWAP1 POP JUMP JUMPDEST PUSH1 0x0 DUP2 SWAP1 POP PUSH1 0x20 DUP3 ADD SWAP1 POP SWAP2 SWAP1 POP JUMP JUMPDEST PUSH1 0x0 DUP2 MLOAD SWAP1 POP SWAP2 SWAP1 POP JUMP JUMPDEST PUSH1 0x0 DUP2 MLOAD SWAP1 POP SWAP2 SWAP1 POP JUMP JUMPDEST PUSH1 0x0 DUP2 MLOAD SWAP1 POP SWAP2 SWAP1 POP JUMP JUMPDEST PUSH1 0x0 DUP2 MLOAD SWAP1 POP SWAP2 SWAP1 POP JUMP JUMPDEST PUSH1 0x0 PUSH1 0x20 DUP3 ADD SWAP1 POP SWAP2 SWAP1 POP JUMP JUMPDEST PUSH1 0x0 PUSH1 0x20 DUP3 ADD SWAP1 POP SWAP2 SWAP1 POP JUMP JUMPDEST PUSH1 0x0 DUP3 DUP3 MSTORE PUSH1 0x20 DUP3 ADD SWAP1 POP SWAP3 SWAP2 POP POP JUMP JUMPDEST PUSH1 0x0 DUP3 DUP3 MSTORE PUSH1 0x20 DUP3 ADD SWAP1 POP SWAP3 SWAP2 POP POP JUMP JUMPDEST PUSH1 0x0 DUP2 SWAP1 POP SWAP3 SWAP2 POP POP JUMP JUMPDEST PUSH1 0x0 DUP3 DUP3 MSTORE PUSH1 0x20 DUP3 ADD SWAP1 POP SWAP3 SWAP2 POP POP JUMP JUMPDEST PUSH1 0x0 DUP3 DUP3 MSTORE PUSH1 0x20 DUP3 ADD SWAP1 POP SWAP3 SWAP2 POP POP JUMP JUMPDEST PUSH1 0x0 PUSH2 0x375C DUP3 PUSH2 0x3819 JUMP JUMPDEST SWAP2 POP PUSH2 0x3767 DUP4 PUSH2 0x3819 JUMP JUMPDEST SWAP3 POP DUP3 PUSH32 0xFFFFFFFFFFFFFFFFFFFFFFFFFFFFFFFFFFFFFFFFFFFFFFFFFFFFFFFFFFFFFFFF SUB DUP3 GT ISZERO PUSH2 0x379C JUMPI PUSH2 0x379B PUSH2 0x3911 JUMP JUMPDEST JUMPDEST DUP3 DUP3 ADD SWAP1 POP SWAP3 SWAP2 POP POP JUMP JUMPDEST PUSH1 0x0 PUSH2 0x37B2 DUP3 PUSH2 0x3819 JUMP JUMPDEST SWAP2 POP PUSH2 0x37BD DUP4 PUSH2 0x3819 JUMP JUMPDEST SWAP3 POP DUP3 DUP3 LT ISZERO PUSH2 0x37D0 JUMPI PUSH2 0x37CF PUSH2 0x3911 JUMP JUMPDEST JUMPDEST DUP3 DUP3 SUB SWAP1 POP SWAP3 SWAP2 POP POP JUMP JUMPDEST PUSH1 0x0 PUSH2 0x37E6 DUP3 PUSH2 0x37F9 JUMP JUMPDEST SWAP1 POP SWAP2 SWAP1 POP JUMP JUMPDEST PUSH1 0x0 DUP2 ISZERO ISZERO SWAP1 POP SWAP2 SWAP1 POP JUMP JUMPDEST PUSH1 0x0 PUSH20 0xFFFFFFFFFFFFFFFFFFFFFFFFFFFFFFFFFFFFFFFF DUP3 AND SWAP1 POP SWAP2 SWAP1 POP JUMP JUMPDEST PUSH1 0x0 DUP2 SWAP1 POP SWAP2 SWAP1 POP JUMP JUMPDEST DUP3 DUP2 DUP4 CALLDATACOPY PUSH1 0x0 DUP4 DUP4 ADD MSTORE POP POP POP JUMP JUMPDEST PUSH1 0x0 JUMPDEST DUP4 DUP2 LT ISZERO PUSH2 0x3850 JUMPI DUP1 DUP3 ADD MLOAD DUP2 DUP5 ADD MSTORE PUSH1 0x20 DUP2 ADD SWAP1 POP PUSH2 0x3835 JUMP JUMPDEST DUP4 DUP2 GT ISZERO PUSH2 0x385F JUMPI PUSH1 0x0 DUP5 DUP5 ADD MSTORE JUMPDEST POP POP POP POP JUMP JUMPDEST PUSH1 0x0 PUSH1 0x2 DUP3 DIV SWAP1 POP PUSH1 0x1 DUP3 AND DUP1 PUSH2 0x387D JUMPI PUSH1 0x7F DUP3 AND SWAP2 POP JUMPDEST PUSH1 0x20 DUP3 LT DUP2 EQ ISZERO PUSH2 0x3891 JUMPI PUSH2 0x3890 PUSH2 0x3940 JUMP JUMPDEST JUMPDEST POP SWAP2 SWAP1 POP JUMP JUMPDEST PUSH2 0x38A0 DUP3 PUSH2 0x399E JUMP JUMPDEST DUP2 ADD DUP2 DUP2 LT PUSH8 0xFFFFFFFFFFFFFFFF DUP3 GT OR ISZERO PUSH2 0x38BF JUMPI PUSH2 0x38BE PUSH2 0x396F JUMP JUMPDEST JUMPDEST DUP1 PUSH1 0x40 MSTORE POP POP POP JUMP JUMPDEST PUSH1 0x0 PUSH2 0x38D3 DUP3 PUSH2 0x3819 JUMP JUMPDEST SWAP2 POP PUSH32 0xFFFFFFFFFFFFFFFFFFFFFFFFFFFFFFFFFFFFFFFFFFFFFFFFFFFFFFFFFFFFFFFF DUP3 EQ ISZERO PUSH2 0x3906 JUMPI PUSH2 0x3905 PUSH2 0x3911 JUMP JUMPDEST JUMPDEST PUSH1 0x1 DUP3 ADD SWAP1 POP SWAP2 SWAP1 POP JUMP JUMPDEST PUSH32 0x4E487B7100000000000000000000000000000000000000000000000000000000 PUSH1 0x0 MSTORE PUSH1 0x11 PUSH1 0x4 MSTORE PUSH1 0x24 PUSH1 0x0 REVERT JUMPDEST PUSH32 0x4E487B7100000000000000000000000000000000000000000000000000000000 PUSH1 0x0 MSTORE PUSH1 0x22 PUSH1 0x4 MSTORE PUSH1 0x24 PUSH1 0x0 REVERT JUMPDEST PUSH32 0x4E487B7100000000000000000000000000000000000000000000000000000000 PUSH1 0x0 MSTORE PUSH1 0x41 PUSH1 0x4 MSTORE PUSH1 0x24 PUSH1 0x0 REVERT JUMPDEST PUSH1 0x0 PUSH1 0x1F NOT PUSH1 0x1F DUP4 ADD AND SWAP1 POP SWAP2 SWAP1 POP JUMP JUMPDEST PUSH32 0x4C6F636B2077617320756E6C6F636B6564000000000000000000000000000000 PUSH1 0x0 DUP3 ADD MSTORE POP JUMP JUMPDEST PUSH32 0x556E6C6F636B20646174652073686F756C6420626520696E2074686520667574 PUSH1 0x0 DUP3 ADD MSTORE PUSH32 0x7572650000000000000000000000000000000000000000000000000000000000 PUSH1 0x20 DUP3 ADD MSTORE POP JUMP JUMPDEST PUSH32 0x496E76616C696420696E64657800000000000000000000000000000000000000 PUSH1 0x0 DUP3 ADD MSTORE POP JUMP JUMPDEST PUSH32 0x416464726573733A20696E73756666696369656E742062616C616E636520666F PUSH1 0x0 DUP3 ADD MSTORE PUSH32 0x722063616C6C0000000000000000000000000000000000000000000000000000 PUSH1 0x20 DUP3 ADD MSTORE POP JUMP JUMPDEST PUSH32 0x596F7520617265206E6F7420746865206F776E6572206F662074686973206C6F PUSH1 0x0 DUP3 ADD MSTORE PUSH32 0x636B000000000000000000000000000000000000000000000000000000000000 PUSH1 0x20 DUP3 ADD MSTORE POP JUMP JUMPDEST PUSH32 0x5061757361626C653A2070617573656400000000000000000000000000000000 PUSH1 0x0 DUP3 ADD MSTORE POP JUMP JUMPDEST PUSH32 0x496E76616C6964206C6F636B2069640000000000000000000000000000000000 PUSH1 0x0 DUP3 ADD MSTORE POP JUMP JUMPDEST PUSH32 0x416D6F756E742073686F756C642062652067726561746572207468616E203000 PUSH1 0x0 DUP3 ADD MSTORE POP JUMP JUMPDEST PUSH32 0x4E6F7468696E6720746F20756E6C6F636B000000000000000000000000000000 PUSH1 0x0 DUP3 ADD MSTORE POP JUMP JUMPDEST PUSH32 0x416464726573733A2063616C6C20746F206E6F6E2D636F6E7472616374000000 PUSH1 0x0 DUP3 ADD MSTORE POP JUMP JUMPDEST PUSH32 0x4E657720616D6F756E742073686F756C64206E6F74206265206C657373207468 PUSH1 0x0 DUP3 ADD MSTORE PUSH32 0x616E2063757272656E7420616D6F756E74000000000000000000000000000000 PUSH1 0x20 DUP3 ADD MSTORE POP JUMP JUMPDEST PUSH32 0x5361666545524332303A204552433230206F7065726174696F6E20646964206E PUSH1 0x0 DUP3 ADD MSTORE PUSH32 0x6F74207375636365656400000000000000000000000000000000000000000000 PUSH1 0x20 DUP3 ADD MSTORE POP JUMP JUMPDEST PUSH32 0x4974206973206E6F742074696D6520746F20756E6C6F636B0000000000000000 PUSH1 0x0 DUP3 ADD MSTORE POP JUMP JUMPDEST PUSH32 0x4E657720756E6C6F636B2074696D652073686F756C64206E6F74206265206265 PUSH1 0x0 DUP3 ADD MSTORE PUSH32 0x666F7265206F6C6420756E6C6F636B2074696D65206F722063757272656E7420 PUSH1 0x20 DUP3 ADD MSTORE PUSH32 0x74696D6500000000000000000000000000000000000000000000000000000000 PUSH1 0x40 DUP3 ADD MSTORE POP JUMP JUMPDEST PUSH32 0x4E6F7420656E6F75676820746F6B656E20776173207472616E73666572656400 PUSH1 0x0 DUP3 ADD MSTORE POP JUMP JUMPDEST PUSH2 0x3D29 DUP2 PUSH2 0x37DB JUMP JUMPDEST DUP2 EQ PUSH2 0x3D34 JUMPI PUSH1 0x0 DUP1 REVERT JUMPDEST POP JUMP JUMPDEST PUSH2 0x3D40 DUP2 PUSH2 0x37ED JUMP JUMPDEST DUP2 EQ PUSH2 0x3D4B JUMPI PUSH1 0x0 DUP1 REVERT JUMPDEST POP JUMP JUMPDEST PUSH2 0x3D57 DUP2 PUSH2 0x3819 JUMP JUMPDEST DUP2 EQ PUSH2 0x3D62 JUMPI PUSH1 0x0 DUP1 REVERT JUMPDEST POP JUMP INVALID LOG2 PUSH5 0x6970667358 0x22 SLT KECCAK256 0xDA 0xF6 PUSH14 0x299942A0EAE7EB556CA79633B1E5 MOD PUSH15 0x1F7CB3958F05F86086FED5283C6473 PUSH16 0x6C634300080400330000000000000000 "
		},
		"gasEstimates": {
			"creation": {
				"codeDepositCost": "3154200",
				"executionCost": "24350",
				"totalCost": "3178550"
			},
			"external": {
				"allNormalTokenLockedCount()": "1333",
				"cumulativeLockInfo(address)": "infinite",
				"editLock(uint256,uint256,uint256)": "infinite",
				"editLockDescription(uint256,string)": "infinite",
				"getCumulativeNormalTokenLockInfo(uint256,uint256)": "infinite",
				"getCumulativeNormalTokenLockInfoAt(uint256)": "infinite",
				"getLockAt(uint256)": "infinite",
				"getLockById(uint256)": "infinite",
				"getLocksForToken(address,uint256,uint256)": "infinite",
				"getTotalLockCount()": "1255",
				"lock(address,address,uint256,uint256,string)": "infinite",
				"normalLockCountForUser(address)": "1735",
				"normalLockForUserAtIndex(address,uint256)": "infinite",
				"normalLocksForUser(address)": "infinite",
				"paused()": "1224",
				"renounceLockOwnership(uint256)": "infinite",
				"transferLockOwnership(uint256,address)": "infinite",
				"unlock(uint256)": "infinite"
			},
			"internal": {
				"_createLock(address,address,uint256,uint256,string memory)": "infinite",
				"_getActualIndex(uint256)": "infinite",
				"_lockNormalToken(address,address,uint256,uint256,string memory)": "infinite",
				"_normalUnlock(struct PinkLock_NormalLock.Lock storage pointer)": "infinite",
				"_registerLock(address,address,uint256,uint256,string memory)": "infinite",
				"_safeTransferFromEnsureExactAmount(address,address,address,uint256)": "infinite"
			}
		},
		"methodIdentifiers": {
			"allNormalTokenLockedCount()": "475831c8",
			"cumulativeLockInfo(address)": "e1444fd6",
			"editLock(uint256,uint256,uint256)": "b3b9aa48",
			"editLockDescription(uint256,string)": "d3cac885",
			"getCumulativeNormalTokenLockInfo(uint256,uint256)": "76c12822",
			"getCumulativeNormalTokenLockInfoAt(uint256)": "7e6706d3",
			"getLockAt(uint256)": "0d4f581a",
			"getLockById(uint256)": "08f12470",
			"getLocksForToken(address,uint256,uint256)": "332f26d7",
			"getTotalLockCount()": "fd981c66",
			"lock(address,address,uint256,uint256,string)": "97b1d73a",
			"normalLockCountForUser(address)": "eb80bdae",
			"normalLockForUserAtIndex(address,uint256)": "618df7a3",
			"normalLocksForUser(address)": "da1d8cff",
			"paused()": "5c975abb",
			"renounceLockOwnership(uint256)": "a57e3141",
			"transferLockOwnership(uint256,address)": "5a04fb69",
			"unlock(uint256)": "6198e339"
		}
	},
	"abi": [
		{
			"anonymous": false,
			"inputs": [
				{
					"indexed": true,
					"internalType": "uint256",
					"name": "id",
					"type": "uint256"
				},
				{
					"indexed": false,
					"internalType": "address",
					"name": "token",
					"type": "address"
				},
				{
					"indexed": false,
					"internalType": "address",
					"name": "owner",
					"type": "address"
				},
				{
					"indexed": false,
					"internalType": "uint256",
					"name": "amount",
					"type": "uint256"
				},
				{
					"indexed": false,
					"internalType": "uint256",
					"name": "unlockDate",
					"type": "uint256"
				}
			],
			"name": "LockAdded",
			"type": "event"
		},
		{
			"anonymous": false,
			"inputs": [
				{
					"indexed": false,
					"internalType": "uint256",
					"name": "lockId",
					"type": "uint256"
				}
			],
			"name": "LockDescriptionChanged",
			"type": "event"
		},
		{
			"anonymous": false,
			"inputs": [
				{
					"indexed": false,
					"internalType": "uint256",
					"name": "lockId",
					"type": "uint256"
				},
				{
					"indexed": false,
					"internalType": "address",
					"name": "owner",
					"type": "address"
				},
				{
					"indexed": false,
					"internalType": "address",
					"name": "newOwner",
					"type": "address"
				}
			],
			"name": "LockOwnerChanged",
			"type": "event"
		},
		{
			"anonymous": false,
			"inputs": [
				{
					"indexed": true,
					"internalType": "uint256",
					"name": "id",
					"type": "uint256"
				},
				{
					"indexed": false,
					"internalType": "address",
					"name": "token",
					"type": "address"
				},
				{
					"indexed": false,
					"internalType": "address",
					"name": "owner",
					"type": "address"
				},
				{
					"indexed": false,
					"internalType": "uint256",
					"name": "amount",
					"type": "uint256"
				},
				{
					"indexed": false,
					"internalType": "uint256",
					"name": "unlockedAt",
					"type": "uint256"
				}
			],
			"name": "LockRemoved",
			"type": "event"
		},
		{
			"anonymous": false,
			"inputs": [
				{
					"indexed": true,
					"internalType": "uint256",
					"name": "id",
					"type": "uint256"
				},
				{
					"indexed": false,
					"internalType": "address",
					"name": "token",
					"type": "address"
				},
				{
					"indexed": false,
					"internalType": "address",
					"name": "owner",
					"type": "address"
				},
				{
					"indexed": false,
					"internalType": "uint256",
					"name": "newAmount",
					"type": "uint256"
				},
				{
					"indexed": false,
					"internalType": "uint256",
					"name": "newUnlockDate",
					"type": "uint256"
				}
			],
			"name": "LockUpdated",
			"type": "event"
		},
		{
			"anonymous": false,
			"inputs": [
				{
					"indexed": false,
					"internalType": "address",
					"name": "account",
					"type": "address"
				}
			],
			"name": "Paused",
			"type": "event"
		},
		{
			"anonymous": false,
			"inputs": [
				{
					"indexed": false,
					"internalType": "address",
					"name": "account",
					"type": "address"
				}
			],
			"name": "Unpaused",
			"type": "event"
		},
		{
			"inputs": [],
			"name": "allNormalTokenLockedCount",
			"outputs": [
				{
					"internalType": "uint256",
					"name": "",
					"type": "uint256"
				}
			],
			"stateMutability": "view",
			"type": "function"
		},
		{
			"inputs": [
				{
					"internalType": "address",
					"name": "",
					"type": "address"
				}
			],
			"name": "cumulativeLockInfo",
			"outputs": [
				{
					"internalType": "address",
					"name": "token",
					"type": "address"
				},
				{
					"internalType": "uint256",
					"name": "amount",
					"type": "uint256"
				}
			],
			"stateMutability": "view",
			"type": "function"
		},
		{
			"inputs": [
				{
					"internalType": "uint256",
					"name": "lockId",
					"type": "uint256"
				},
				{
					"internalType": "uint256",
					"name": "newAmount",
					"type": "uint256"
				},
				{
					"internalType": "uint256",
					"name": "newUnlockDate",
					"type": "uint256"
				}
			],
			"name": "editLock",
			"outputs": [],
			"stateMutability": "nonpayable",
			"type": "function"
		},
		{
			"inputs": [
				{
					"internalType": "uint256",
					"name": "lockId",
					"type": "uint256"
				},
				{
					"internalType": "string",
					"name": "description",
					"type": "string"
				}
			],
			"name": "editLockDescription",
			"outputs": [],
			"stateMutability": "nonpayable",
			"type": "function"
		},
		{
			"inputs": [
				{
					"internalType": "uint256",
					"name": "start",
					"type": "uint256"
				},
				{
					"internalType": "uint256",
					"name": "end",
					"type": "uint256"
				}
			],
			"name": "getCumulativeNormalTokenLockInfo",
			"outputs": [
				{
					"components": [
						{
							"internalType": "address",
							"name": "token",
							"type": "address"
						},
						{
							"internalType": "uint256",
							"name": "amount",
							"type": "uint256"
						}
					],
					"internalType": "struct PinkLock_NormalLock.CumulativeLockInfo[]",
					"name": "",
					"type": "tuple[]"
				}
			],
			"stateMutability": "view",
			"type": "function"
		},
		{
			"inputs": [
				{
					"internalType": "uint256",
					"name": "index",
					"type": "uint256"
				}
			],
			"name": "getCumulativeNormalTokenLockInfoAt",
			"outputs": [
				{
					"components": [
						{
							"internalType": "address",
							"name": "token",
							"type": "address"
						},
						{
							"internalType": "uint256",
							"name": "amount",
							"type": "uint256"
						}
					],
					"internalType": "struct PinkLock_NormalLock.CumulativeLockInfo",
					"name": "",
					"type": "tuple"
				}
			],
			"stateMutability": "view",
			"type": "function"
		},
		{
			"inputs": [
				{
					"internalType": "uint256",
					"name": "index",
					"type": "uint256"
				}
			],
			"name": "getLockAt",
			"outputs": [
				{
					"components": [
						{
							"internalType": "uint256",
							"name": "id",
							"type": "uint256"
						},
						{
							"internalType": "address",
							"name": "token",
							"type": "address"
						},
						{
							"internalType": "address",
							"name": "owner",
							"type": "address"
						},
						{
							"internalType": "uint256",
							"name": "amount",
							"type": "uint256"
						},
						{
							"internalType": "uint256",
							"name": "lockDate",
							"type": "uint256"
						},
						{
							"internalType": "uint256",
							"name": "unlockDate",
							"type": "uint256"
						},
						{
							"internalType": "uint256",
							"name": "unlockedAmount",
							"type": "uint256"
						},
						{
							"internalType": "string",
							"name": "description",
							"type": "string"
						}
					],
					"internalType": "struct PinkLock_NormalLock.Lock",
					"name": "",
					"type": "tuple"
				}
			],
			"stateMutability": "view",
			"type": "function"
		},
		{
			"inputs": [
				{
					"internalType": "uint256",
					"name": "lockId",
					"type": "uint256"
				}
			],
			"name": "getLockById",
			"outputs": [
				{
					"components": [
						{
							"internalType": "uint256",
							"name": "id",
							"type": "uint256"
						},
						{
							"internalType": "address",
							"name": "token",
							"type": "address"
						},
						{
							"internalType": "address",
							"name": "owner",
							"type": "address"
						},
						{
							"internalType": "uint256",
							"name": "amount",
							"type": "uint256"
						},
						{
							"internalType": "uint256",
							"name": "lockDate",
							"type": "uint256"
						},
						{
							"internalType": "uint256",
							"name": "unlockDate",
							"type": "uint256"
						},
						{
							"internalType": "uint256",
							"name": "unlockedAmount",
							"type": "uint256"
						},
						{
							"internalType": "string",
							"name": "description",
							"type": "string"
						}
					],
					"internalType": "struct PinkLock_NormalLock.Lock",
					"name": "",
					"type": "tuple"
				}
			],
			"stateMutability": "view",
			"type": "function"
		},
		{
			"inputs": [
				{
					"internalType": "address",
					"name": "token",
					"type": "address"
				},
				{
					"internalType": "uint256",
					"name": "start",
					"type": "uint256"
				},
				{
					"internalType": "uint256",
					"name": "end",
					"type": "uint256"
				}
			],
			"name": "getLocksForToken",
			"outputs": [
				{
					"components": [
						{
							"internalType": "uint256",
							"name": "id",
							"type": "uint256"
						},
						{
							"internalType": "address",
							"name": "token",
							"type": "address"
						},
						{
							"internalType": "address",
							"name": "owner",
							"type": "address"
						},
						{
							"internalType": "uint256",
							"name": "amount",
							"type": "uint256"
						},
						{
							"internalType": "uint256",
							"name": "lockDate",
							"type": "uint256"
						},
						{
							"internalType": "uint256",
							"name": "unlockDate",
							"type": "uint256"
						},
						{
							"internalType": "uint256",
							"name": "unlockedAmount",
							"type": "uint256"
						},
						{
							"internalType": "string",
							"name": "description",
							"type": "string"
						}
					],
					"internalType": "struct PinkLock_NormalLock.Lock[]",
					"name": "",
					"type": "tuple[]"
				}
			],
			"stateMutability": "view",
			"type": "function"
		},
		{
			"inputs": [],
			"name": "getTotalLockCount",
			"outputs": [
				{
					"internalType": "uint256",
					"name": "",
					"type": "uint256"
				}
			],
			"stateMutability": "view",
			"type": "function"
		},
		{
			"inputs": [
				{
					"internalType": "address",
					"name": "owner",
					"type": "address"
				},
				{
					"internalType": "address",
					"name": "token",
					"type": "address"
				},
				{
					"internalType": "uint256",
					"name": "amount",
					"type": "uint256"
				},
				{
					"internalType": "uint256",
					"name": "unlockDate",
					"type": "uint256"
				},
				{
					"internalType": "string",
					"name": "description",
					"type": "string"
				}
			],
			"name": "lock",
			"outputs": [
				{
					"internalType": "uint256",
					"name": "id",
					"type": "uint256"
				}
			],
			"stateMutability": "nonpayable",
			"type": "function"
		},
		{
			"inputs": [
				{
					"internalType": "address",
					"name": "user",
					"type": "address"
				}
			],
			"name": "normalLockCountForUser",
			"outputs": [
				{
					"internalType": "uint256",
					"name": "",
					"type": "uint256"
				}
			],
			"stateMutability": "view",
			"type": "function"
		},
		{
			"inputs": [
				{
					"internalType": "address",
					"name": "user",
					"type": "address"
				},
				{
					"internalType": "uint256",
					"name": "index",
					"type": "uint256"
				}
			],
			"name": "normalLockForUserAtIndex",
			"outputs": [
				{
					"components": [
						{
							"internalType": "uint256",
							"name": "id",
							"type": "uint256"
						},
						{
							"internalType": "address",
							"name": "token",
							"type": "address"
						},
						{
							"internalType": "address",
							"name": "owner",
							"type": "address"
						},
						{
							"internalType": "uint256",
							"name": "amount",
							"type": "uint256"
						},
						{
							"internalType": "uint256",
							"name": "lockDate",
							"type": "uint256"
						},
						{
							"internalType": "uint256",
							"name": "unlockDate",
							"type": "uint256"
						},
						{
							"internalType": "uint256",
							"name": "unlockedAmount",
							"type": "uint256"
						},
						{
							"internalType": "string",
							"name": "description",
							"type": "string"
						}
					],
					"internalType": "struct PinkLock_NormalLock.Lock",
					"name": "",
					"type": "tuple"
				}
			],
			"stateMutability": "view",
			"type": "function"
		},
		{
			"inputs": [
				{
					"internalType": "address",
					"name": "user",
					"type": "address"
				}
			],
			"name": "normalLocksForUser",
			"outputs": [
				{
					"components": [
						{
							"internalType": "uint256",
							"name": "id",
							"type": "uint256"
						},
						{
							"internalType": "address",
							"name": "token",
							"type": "address"
						},
						{
							"internalType": "address",
							"name": "owner",
							"type": "address"
						},
						{
							"internalType": "uint256",
							"name": "amount",
							"type": "uint256"
						},
						{
							"internalType": "uint256",
							"name": "lockDate",
							"type": "uint256"
						},
						{
							"internalType": "uint256",
							"name": "unlockDate",
							"type": "uint256"
						},
						{
							"internalType": "uint256",
							"name": "unlockedAmount",
							"type": "uint256"
						},
						{
							"internalType": "string",
							"name": "description",
							"type": "string"
						}
					],
					"internalType": "struct PinkLock_NormalLock.Lock[]",
					"name": "",
					"type": "tuple[]"
				}
			],
			"stateMutability": "view",
			"type": "function"
		},
		{
			"inputs": [],
			"name": "paused",
			"outputs": [
				{
					"internalType": "bool",
					"name": "",
					"type": "bool"
				}
			],
			"stateMutability": "view",
			"type": "function"
		},
		{
			"inputs": [
				{
					"internalType": "uint256",
					"name": "lockId",
					"type": "uint256"
				}
			],
			"name": "renounceLockOwnership",
			"outputs": [],
			"stateMutability": "nonpayable",
			"type": "function"
		},
		{
			"inputs": [
				{
					"internalType": "uint256",
					"name": "lockId",
					"type": "uint256"
				},
				{
					"internalType": "address",
					"name": "newOwner",
					"type": "address"
				}
			],
			"name": "transferLockOwnership",
			"outputs": [],
			"stateMutability": "nonpayable",
			"type": "function"
		},
		{
			"inputs": [
				{
					"internalType": "uint256",
					"name": "lockId",
					"type": "uint256"
				}
			],
			"name": "unlock",
			"outputs": [],
			"stateMutability": "nonpayable",
			"type": "function"
		}
	]
}